{
	"Chain Paper/CP.sol": {
		"CP": {
			"abi": [
				{
					"inputs": [
						{
							"internalType": "string",
							"name": "name_",
							"type": "string"
						},
						{
							"internalType": "string",
							"name": "symbol_",
							"type": "string"
						}
					],
					"stateMutability": "nonpayable",
					"type": "constructor"
				},
				{
					"anonymous": false,
					"inputs": [
						{
							"indexed": false,
							"internalType": "address",
							"name": "owner",
							"type": "address"
						},
						{
							"indexed": false,
							"internalType": "address",
							"name": "operator",
							"type": "address"
						},
						{
							"indexed": false,
							"internalType": "bool",
							"name": "approved",
							"type": "bool"
						}
					],
					"name": "ApprovalForALl",
					"type": "event"
				},
				{
					"anonymous": false,
					"inputs": [
						{
							"indexed": false,
							"internalType": "address",
							"name": "owner",
							"type": "address"
						},
						{
							"indexed": false,
							"internalType": "address",
							"name": "approved",
							"type": "address"
						},
						{
							"indexed": false,
							"internalType": "uint256",
							"name": "tokenId",
							"type": "uint256"
						}
					],
					"name": "Approve",
					"type": "event"
				},
				{
					"anonymous": false,
					"inputs": [
						{
							"indexed": false,
							"internalType": "address",
							"name": "from",
							"type": "address"
						},
						{
							"indexed": false,
							"internalType": "address",
							"name": "to",
							"type": "address"
						},
						{
							"indexed": false,
							"internalType": "uint256",
							"name": "tokenId",
							"type": "uint256"
						}
					],
					"name": "Transfer",
					"type": "event"
				},
				{
					"inputs": [],
					"name": "MAX_CPS",
					"outputs": [
						{
							"internalType": "uint256",
							"name": "",
							"type": "uint256"
						}
					],
					"stateMutability": "view",
					"type": "function"
				},
				{
					"inputs": [
						{
							"internalType": "address",
							"name": "operator",
							"type": "address"
						},
						{
							"internalType": "bool",
							"name": "approved",
							"type": "bool"
						}
					],
					"name": "approvalForAll",
					"outputs": [],
					"stateMutability": "nonpayable",
					"type": "function"
				},
				{
					"inputs": [
						{
							"internalType": "address",
							"name": "to",
							"type": "address"
						},
						{
							"internalType": "uint256",
							"name": "tokenId",
							"type": "uint256"
						}
					],
					"name": "approve",
					"outputs": [],
					"stateMutability": "nonpayable",
					"type": "function"
				},
				{
					"inputs": [
						{
							"internalType": "address",
							"name": "owner",
							"type": "address"
						}
					],
					"name": "balanceOf",
					"outputs": [
						{
							"internalType": "uint256",
							"name": "",
							"type": "uint256"
						}
					],
					"stateMutability": "view",
					"type": "function"
				},
				{
					"inputs": [
						{
							"internalType": "uint256",
							"name": "tokenId",
							"type": "uint256"
						}
					],
					"name": "getApproved",
					"outputs": [
						{
							"internalType": "address",
							"name": "",
							"type": "address"
						}
					],
					"stateMutability": "view",
					"type": "function"
				},
				{
					"inputs": [
						{
							"internalType": "address",
							"name": "owner",
							"type": "address"
						},
						{
							"internalType": "address",
							"name": "operator",
							"type": "address"
						}
					],
					"name": "isApprovedForAll",
					"outputs": [
						{
							"internalType": "bool",
							"name": "",
							"type": "bool"
						}
					],
					"stateMutability": "view",
					"type": "function"
				},
				{
					"inputs": [
						{
							"internalType": "address",
							"name": "to",
							"type": "address"
						},
						{
							"internalType": "uint256",
							"name": "tokenId",
							"type": "uint256"
						}
					],
					"name": "mint",
					"outputs": [],
					"stateMutability": "nonpayable",
					"type": "function"
				},
				{
					"inputs": [],
					"name": "name",
					"outputs": [
						{
							"internalType": "string",
							"name": "",
							"type": "string"
						}
					],
					"stateMutability": "view",
					"type": "function"
				},
				{
					"inputs": [
						{
							"internalType": "uint256",
							"name": "tokenId",
							"type": "uint256"
						}
					],
					"name": "ownerOf",
					"outputs": [
						{
							"internalType": "address",
							"name": "owner",
							"type": "address"
						}
					],
					"stateMutability": "view",
					"type": "function"
				},
				{
					"inputs": [
						{
							"internalType": "address",
							"name": "from",
							"type": "address"
						},
						{
							"internalType": "address",
							"name": "to",
							"type": "address"
						},
						{
							"internalType": "uint256",
							"name": "tokenId",
							"type": "uint256"
						}
					],
					"name": "safeTransferFrom",
					"outputs": [],
					"stateMutability": "nonpayable",
					"type": "function"
				},
				{
					"inputs": [
						{
							"internalType": "address",
							"name": "from",
							"type": "address"
						},
						{
							"internalType": "address",
							"name": "to",
							"type": "address"
						},
						{
							"internalType": "uint256",
							"name": "tokenId",
							"type": "uint256"
						},
						{
							"internalType": "bytes",
							"name": "_data",
							"type": "bytes"
						}
					],
					"name": "safeTransferFrom",
					"outputs": [],
					"stateMutability": "nonpayable",
					"type": "function"
				},
				{
					"inputs": [
						{
							"internalType": "bytes4",
							"name": "interfaceId",
							"type": "bytes4"
						}
					],
					"name": "supportsInterface",
					"outputs": [
						{
							"internalType": "bool",
							"name": "",
							"type": "bool"
						}
					],
					"stateMutability": "pure",
					"type": "function"
				},
				{
					"inputs": [],
					"name": "symbol",
					"outputs": [
						{
							"internalType": "string",
							"name": "",
							"type": "string"
						}
					],
					"stateMutability": "view",
					"type": "function"
				},
				{
					"inputs": [
						{
							"internalType": "uint256",
							"name": "tokenId",
							"type": "uint256"
						}
					],
					"name": "tokenURI",
					"outputs": [
						{
							"internalType": "string",
							"name": "",
							"type": "string"
						}
					],
					"stateMutability": "view",
					"type": "function"
				},
				{
					"inputs": [
						{
							"internalType": "address",
							"name": "from",
							"type": "address"
						},
						{
							"internalType": "address",
							"name": "to",
							"type": "address"
						},
						{
							"internalType": "uint256",
							"name": "tokenId",
							"type": "uint256"
						}
					],
					"name": "transferFrom",
					"outputs": [],
					"stateMutability": "nonpayable",
					"type": "function"
				}
			],
			"devdoc": {
				"kind": "dev",
				"methods": {},
				"version": 1
			},
			"evm": {
				"assembly": "    /* \"Chain Paper/CP.sol\":94:583  contract CP is ERC721{\r... */\n  mstore(0x40, 0x80)\n    /* \"Chain Paper/CP.sol\":144:149  10000 */\n  0x2710\n    /* \"Chain Paper/CP.sol\":122:149  uint public MAX_CPS = 10000 */\n  0x06\n  sstore\n    /* \"Chain Paper/CP.sol\":158:255  constructor(string memory name_ , string memory symbol_) ERC721(name_, symbol_){\r... */\n  callvalue\n  dup1\n  iszero\n  tag_1\n  jumpi\n  0x00\n  dup1\n  revert\ntag_1:\n  pop\n  mload(0x40)\n  sub(codesize, bytecodeSize)\n  dup1\n  bytecodeSize\n  dup4\n  codecopy\n  dup2\n  dup2\n  add\n  0x40\n  mstore\n  dup2\n  add\n  swap1\n  tag_2\n  swap2\n  swap1\n  tag_3\n  jump\t// in\ntag_2:\n    /* \"Chain Paper/CP.sol\":222:227  name_ */\n  dup2\n    /* \"Chain Paper/CP.sol\":229:236  symbol_ */\n  dup2\n    /* \"Chain Paper/liberty/ERC721.sol\":769:774  name_ */\n  dup2\n    /* \"Chain Paper/liberty/ERC721.sol\":762:766  name */\n  0x00\n    /* \"Chain Paper/liberty/ERC721.sol\":762:774  name = name_ */\n  swap1\n  dup1\n  mload\n  swap1\n  0x20\n  add\n  swap1\n  tag_7\n  swap3\n  swap2\n  swap1\n  tag_8\n  jump\t// in\ntag_7:\n  pop\n    /* \"Chain Paper/liberty/ERC721.sol\":794:801  symbol_ */\n  dup1\n    /* \"Chain Paper/liberty/ERC721.sol\":785:791  symbol */\n  0x01\n    /* \"Chain Paper/liberty/ERC721.sol\":785:801  symbol = symbol_ */\n  swap1\n  dup1\n  mload\n  swap1\n  0x20\n  add\n  swap1\n  tag_9\n  swap3\n  swap2\n  swap1\n  tag_8\n  jump\t// in\ntag_9:\n  pop\n    /* \"Chain Paper/liberty/ERC721.sol\":695:809  constructor(string memory name_, string memory symbol_) {\r... */\n  pop\n  pop\n    /* \"Chain Paper/CP.sol\":158:255  constructor(string memory name_ , string memory symbol_) ERC721(name_, symbol_){\r... */\n  pop\n  pop\n    /* \"Chain Paper/CP.sol\":94:583  contract CP is ERC721{\r... */\n  jump(tag_11)\ntag_8:\n  dup3\n  dup1\n  sload\n  tag_12\n  swap1\n  tag_13\n  jump\t// in\ntag_12:\n  swap1\n  0x00\n  mstore\n  keccak256(0x00, 0x20)\n  swap1\n  0x1f\n  add\n  0x20\n  swap1\n  div\n  dup2\n  add\n  swap3\n  dup3\n  tag_15\n  jumpi\n  0x00\n  dup6\n  sstore\n  jump(tag_14)\ntag_15:\n  dup3\n  0x1f\n  lt\n  tag_16\n  jumpi\n  dup1\n  mload\n  not(0xff)\n  and\n  dup4\n  dup1\n  add\n  or\n  dup6\n  sstore\n  jump(tag_14)\ntag_16:\n  dup3\n  dup1\n  add\n  0x01\n  add\n  dup6\n  sstore\n  dup3\n  iszero\n  tag_14\n  jumpi\n  swap2\n  dup3\n  add\ntag_17:\n  dup3\n  dup2\n  gt\n  iszero\n  tag_18\n  jumpi\n  dup3\n  mload\n  dup3\n  sstore\n  swap2\n  0x20\n  add\n  swap2\n  swap1\n  0x01\n  add\n  swap1\n  jump(tag_17)\ntag_18:\ntag_14:\n  pop\n  swap1\n  pop\n  tag_19\n  swap2\n  swap1\n  tag_20\n  jump\t// in\ntag_19:\n  pop\n  swap1\n  jump\t// out\ntag_20:\ntag_21:\n  dup1\n  dup3\n  gt\n  iszero\n  tag_22\n  jumpi\n  0x00\n  dup2\n  0x00\n  swap1\n  sstore\n  pop\n  0x01\n  add\n  jump(tag_21)\ntag_22:\n  pop\n  swap1\n  jump\t// out\n    /* \"#utility.yul\":7:360   */\ntag_24:\n  0x00\n    /* \"#utility.yul\":121:186   */\n  tag_26\n    /* \"#utility.yul\":136:185   */\n  tag_27\n    /* \"#utility.yul\":178:184   */\n  dup5\n    /* \"#utility.yul\":136:185   */\n  tag_28\n  jump\t// in\ntag_27:\n    /* \"#utility.yul\":121:186   */\n  tag_29\n  jump\t// in\ntag_26:\n    /* \"#utility.yul\":112:186   */\n  swap1\n  pop\n    /* \"#utility.yul\":209:215   */\n  dup3\n    /* \"#utility.yul\":202:207   */\n  dup2\n    /* \"#utility.yul\":195:216   */\n  mstore\n    /* \"#utility.yul\":247:251   */\n  0x20\n    /* \"#utility.yul\":240:245   */\n  dup2\n    /* \"#utility.yul\":236:252   */\n  add\n    /* \"#utility.yul\":285:288   */\n  dup5\n    /* \"#utility.yul\":276:282   */\n  dup5\n    /* \"#utility.yul\":271:274   */\n  dup5\n    /* \"#utility.yul\":267:283   */\n  add\n    /* \"#utility.yul\":264:289   */\n  gt\n    /* \"#utility.yul\":261:263   */\n  iszero\n  tag_30\n  jumpi\n    /* \"#utility.yul\":302:303   */\n  0x00\n    /* \"#utility.yul\":299:300   */\n  dup1\n    /* \"#utility.yul\":292:304   */\n  revert\n    /* \"#utility.yul\":261:263   */\ntag_30:\n    /* \"#utility.yul\":315:354   */\n  tag_31\n    /* \"#utility.yul\":347:353   */\n  dup5\n    /* \"#utility.yul\":342:345   */\n  dup3\n    /* \"#utility.yul\":337:340   */\n  dup6\n    /* \"#utility.yul\":315:354   */\n  tag_32\n  jump\t// in\ntag_31:\n    /* \"#utility.yul\":102:360   */\n  pop\n  swap4\n  swap3\n  pop\n  pop\n  pop\n  jump\t// out\n    /* \"#utility.yul\":380:668   */\ntag_33:\n  0x00\n    /* \"#utility.yul\":496:499   */\n  dup3\n    /* \"#utility.yul\":489:493   */\n  0x1f\n    /* \"#utility.yul\":481:487   */\n  dup4\n    /* \"#utility.yul\":477:494   */\n  add\n    /* \"#utility.yul\":473:500   */\n  slt\n    /* \"#utility.yul\":463:465   */\n  tag_35\n  jumpi\n    /* \"#utility.yul\":514:515   */\n  0x00\n    /* \"#utility.yul\":511:512   */\n  dup1\n    /* \"#utility.yul\":504:516   */\n  revert\n    /* \"#utility.yul\":463:465   */\ntag_35:\n    /* \"#utility.yul\":547:553   */\n  dup2\n    /* \"#utility.yul\":541:554   */\n  mload\n    /* \"#utility.yul\":572:662   */\n  tag_36\n    /* \"#utility.yul\":658:661   */\n  dup5\n    /* \"#utility.yul\":650:656   */\n  dup3\n    /* \"#utility.yul\":643:647   */\n  0x20\n    /* \"#utility.yul\":635:641   */\n  dup7\n    /* \"#utility.yul\":631:648   */\n  add\n    /* \"#utility.yul\":572:662   */\n  tag_24\n  jump\t// in\ntag_36:\n    /* \"#utility.yul\":563:662   */\n  swap2\n  pop\n    /* \"#utility.yul\":453:668   */\n  pop\n  swap3\n  swap2\n  pop\n  pop\n  jump\t// out\n    /* \"#utility.yul\":674:1326   */\ntag_3:\n  0x00\n  dup1\n    /* \"#utility.yul\":830:832   */\n  0x40\n    /* \"#utility.yul\":818:827   */\n  dup4\n    /* \"#utility.yul\":809:816   */\n  dup6\n    /* \"#utility.yul\":805:828   */\n  sub\n    /* \"#utility.yul\":801:833   */\n  slt\n    /* \"#utility.yul\":798:800   */\n  iszero\n  tag_38\n  jumpi\n    /* \"#utility.yul\":846:847   */\n  0x00\n    /* \"#utility.yul\":843:844   */\n  dup1\n    /* \"#utility.yul\":836:848   */\n  revert\n    /* \"#utility.yul\":798:800   */\ntag_38:\n    /* \"#utility.yul\":910:911   */\n  0x00\n    /* \"#utility.yul\":899:908   */\n  dup4\n    /* \"#utility.yul\":895:912   */\n  add\n    /* \"#utility.yul\":889:913   */\n  mload\n    /* \"#utility.yul\":940:958   */\n  0xffffffffffffffff\n    /* \"#utility.yul\":932:938   */\n  dup2\n    /* \"#utility.yul\":929:959   */\n  gt\n    /* \"#utility.yul\":926:928   */\n  iszero\n  tag_39\n  jumpi\n    /* \"#utility.yul\":972:973   */\n  0x00\n    /* \"#utility.yul\":969:970   */\n  dup1\n    /* \"#utility.yul\":962:974   */\n  revert\n    /* \"#utility.yul\":926:928   */\ntag_39:\n    /* \"#utility.yul\":1000:1074   */\n  tag_40\n    /* \"#utility.yul\":1066:1073   */\n  dup6\n    /* \"#utility.yul\":1057:1063   */\n  dup3\n    /* \"#utility.yul\":1046:1055   */\n  dup7\n    /* \"#utility.yul\":1042:1064   */\n  add\n    /* \"#utility.yul\":1000:1074   */\n  tag_33\n  jump\t// in\ntag_40:\n    /* \"#utility.yul\":990:1074   */\n  swap3\n  pop\n    /* \"#utility.yul\":860:1084   */\n  pop\n    /* \"#utility.yul\":1144:1146   */\n  0x20\n    /* \"#utility.yul\":1133:1142   */\n  dup4\n    /* \"#utility.yul\":1129:1147   */\n  add\n    /* \"#utility.yul\":1123:1148   */\n  mload\n    /* \"#utility.yul\":1175:1193   */\n  0xffffffffffffffff\n    /* \"#utility.yul\":1167:1173   */\n  dup2\n    /* \"#utility.yul\":1164:1194   */\n  gt\n    /* \"#utility.yul\":1161:1163   */\n  iszero\n  tag_41\n  jumpi\n    /* \"#utility.yul\":1207:1208   */\n  0x00\n    /* \"#utility.yul\":1204:1205   */\n  dup1\n    /* \"#utility.yul\":1197:1209   */\n  revert\n    /* \"#utility.yul\":1161:1163   */\ntag_41:\n    /* \"#utility.yul\":1235:1309   */\n  tag_42\n    /* \"#utility.yul\":1301:1308   */\n  dup6\n    /* \"#utility.yul\":1292:1298   */\n  dup3\n    /* \"#utility.yul\":1281:1290   */\n  dup7\n    /* \"#utility.yul\":1277:1299   */\n  add\n    /* \"#utility.yul\":1235:1309   */\n  tag_33\n  jump\t// in\ntag_42:\n    /* \"#utility.yul\":1225:1309   */\n  swap2\n  pop\n    /* \"#utility.yul\":1094:1319   */\n  pop\n    /* \"#utility.yul\":788:1326   */\n  swap3\n  pop\n  swap3\n  swap1\n  pop\n  jump\t// out\n    /* \"#utility.yul\":1332:1615   */\ntag_29:\n  0x00\n    /* \"#utility.yul\":1398:1400   */\n  0x40\n    /* \"#utility.yul\":1392:1401   */\n  mload\n    /* \"#utility.yul\":1382:1401   */\n  swap1\n  pop\n    /* \"#utility.yul\":1440:1444   */\n  dup2\n    /* \"#utility.yul\":1432:1438   */\n  dup2\n    /* \"#utility.yul\":1428:1445   */\n  add\n    /* \"#utility.yul\":1547:1553   */\n  dup2\n    /* \"#utility.yul\":1535:1545   */\n  dup2\n    /* \"#utility.yul\":1532:1554   */\n  lt\n    /* \"#utility.yul\":1511:1529   */\n  0xffffffffffffffff\n    /* \"#utility.yul\":1499:1509   */\n  dup3\n    /* \"#utility.yul\":1496:1530   */\n  gt\n    /* \"#utility.yul\":1493:1555   */\n  or\n    /* \"#utility.yul\":1490:1492   */\n  iszero\n  tag_44\n  jumpi\n    /* \"#utility.yul\":1558:1576   */\n  tag_45\n  tag_46\n  jump\t// in\ntag_45:\n    /* \"#utility.yul\":1490:1492   */\ntag_44:\n    /* \"#utility.yul\":1598:1608   */\n  dup1\n    /* \"#utility.yul\":1594:1596   */\n  0x40\n    /* \"#utility.yul\":1587:1609   */\n  mstore\n    /* \"#utility.yul\":1372:1615   */\n  pop\n  swap2\n  swap1\n  pop\n  jump\t// out\n    /* \"#utility.yul\":1621:1953   */\ntag_28:\n  0x00\n    /* \"#utility.yul\":1773:1791   */\n  0xffffffffffffffff\n    /* \"#utility.yul\":1765:1771   */\n  dup3\n    /* \"#utility.yul\":1762:1792   */\n  gt\n    /* \"#utility.yul\":1759:1761   */\n  iszero\n  tag_48\n  jumpi\n    /* \"#utility.yul\":1795:1813   */\n  tag_49\n  tag_46\n  jump\t// in\ntag_49:\n    /* \"#utility.yul\":1759:1761   */\ntag_48:\n    /* \"#utility.yul\":1880:1884   */\n  0x1f\n    /* \"#utility.yul\":1876:1885   */\n  not\n    /* \"#utility.yul\":1869:1873   */\n  0x1f\n    /* \"#utility.yul\":1861:1867   */\n  dup4\n    /* \"#utility.yul\":1857:1874   */\n  add\n    /* \"#utility.yul\":1853:1886   */\n  and\n    /* \"#utility.yul\":1845:1886   */\n  swap1\n  pop\n    /* \"#utility.yul\":1941:1945   */\n  0x20\n    /* \"#utility.yul\":1935:1939   */\n  dup2\n    /* \"#utility.yul\":1931:1946   */\n  add\n    /* \"#utility.yul\":1923:1946   */\n  swap1\n  pop\n    /* \"#utility.yul\":1688:1953   */\n  swap2\n  swap1\n  pop\n  jump\t// out\n    /* \"#utility.yul\":1959:2266   */\ntag_32:\n    /* \"#utility.yul\":2027:2028   */\n  0x00\n    /* \"#utility.yul\":2037:2150   */\ntag_51:\n    /* \"#utility.yul\":2051:2057   */\n  dup4\n    /* \"#utility.yul\":2048:2049   */\n  dup2\n    /* \"#utility.yul\":2045:2058   */\n  lt\n    /* \"#utility.yul\":2037:2150   */\n  iszero\n  tag_53\n  jumpi\n    /* \"#utility.yul\":2136:2137   */\n  dup1\n    /* \"#utility.yul\":2131:2134   */\n  dup3\n    /* \"#utility.yul\":2127:2138   */\n  add\n    /* \"#utility.yul\":2121:2139   */\n  mload\n    /* \"#utility.yul\":2117:2118   */\n  dup2\n    /* \"#utility.yul\":2112:2115   */\n  dup5\n    /* \"#utility.yul\":2108:2119   */\n  add\n    /* \"#utility.yul\":2101:2140   */\n  mstore\n    /* \"#utility.yul\":2073:2075   */\n  0x20\n    /* \"#utility.yul\":2070:2071   */\n  dup2\n    /* \"#utility.yul\":2066:2076   */\n  add\n    /* \"#utility.yul\":2061:2076   */\n  swap1\n  pop\n    /* \"#utility.yul\":2037:2150   */\n  jump(tag_51)\ntag_53:\n    /* \"#utility.yul\":2168:2174   */\n  dup4\n    /* \"#utility.yul\":2165:2166   */\n  dup2\n    /* \"#utility.yul\":2162:2175   */\n  gt\n    /* \"#utility.yul\":2159:2161   */\n  iszero\n  tag_54\n  jumpi\n    /* \"#utility.yul\":2248:2249   */\n  0x00\n    /* \"#utility.yul\":2239:2245   */\n  dup5\n    /* \"#utility.yul\":2234:2237   */\n  dup5\n    /* \"#utility.yul\":2230:2246   */\n  add\n    /* \"#utility.yul\":2223:2250   */\n  mstore\n    /* \"#utility.yul\":2159:2161   */\ntag_54:\n    /* \"#utility.yul\":2008:2266   */\n  pop\n  pop\n  pop\n  pop\n  jump\t// out\n    /* \"#utility.yul\":2272:2592   */\ntag_13:\n  0x00\n    /* \"#utility.yul\":2353:2354   */\n  0x02\n    /* \"#utility.yul\":2347:2351   */\n  dup3\n    /* \"#utility.yul\":2343:2355   */\n  div\n    /* \"#utility.yul\":2333:2355   */\n  swap1\n  pop\n    /* \"#utility.yul\":2400:2401   */\n  0x01\n    /* \"#utility.yul\":2394:2398   */\n  dup3\n    /* \"#utility.yul\":2390:2402   */\n  and\n    /* \"#utility.yul\":2421:2439   */\n  dup1\n    /* \"#utility.yul\":2411:2413   */\n  tag_56\n  jumpi\n    /* \"#utility.yul\":2477:2481   */\n  0x7f\n    /* \"#utility.yul\":2469:2475   */\n  dup3\n    /* \"#utility.yul\":2465:2482   */\n  and\n    /* \"#utility.yul\":2455:2482   */\n  swap2\n  pop\n    /* \"#utility.yul\":2411:2413   */\ntag_56:\n    /* \"#utility.yul\":2539:2541   */\n  0x20\n    /* \"#utility.yul\":2531:2537   */\n  dup3\n    /* \"#utility.yul\":2528:2542   */\n  lt\n    /* \"#utility.yul\":2508:2526   */\n  dup2\n    /* \"#utility.yul\":2505:2543   */\n  eq\n    /* \"#utility.yul\":2502:2504   */\n  iszero\n  tag_57\n  jumpi\n    /* \"#utility.yul\":2558:2576   */\n  tag_58\n  tag_59\n  jump\t// in\ntag_58:\n    /* \"#utility.yul\":2502:2504   */\ntag_57:\n    /* \"#utility.yul\":2323:2592   */\n  pop\n  swap2\n  swap1\n  pop\n  jump\t// out\n    /* \"#utility.yul\":2598:2778   */\ntag_59:\n    /* \"#utility.yul\":2646:2723   */\n  0x4e487b7100000000000000000000000000000000000000000000000000000000\n    /* \"#utility.yul\":2643:2644   */\n  0x00\n    /* \"#utility.yul\":2636:2724   */\n  mstore\n    /* \"#utility.yul\":2743:2747   */\n  0x22\n    /* \"#utility.yul\":2740:2741   */\n  0x04\n    /* \"#utility.yul\":2733:2748   */\n  mstore\n    /* \"#utility.yul\":2767:2771   */\n  0x24\n    /* \"#utility.yul\":2764:2765   */\n  0x00\n    /* \"#utility.yul\":2757:2772   */\n  revert\n    /* \"#utility.yul\":2784:2964   */\ntag_46:\n    /* \"#utility.yul\":2832:2909   */\n  0x4e487b7100000000000000000000000000000000000000000000000000000000\n    /* \"#utility.yul\":2829:2830   */\n  0x00\n    /* \"#utility.yul\":2822:2910   */\n  mstore\n    /* \"#utility.yul\":2929:2933   */\n  0x41\n    /* \"#utility.yul\":2926:2927   */\n  0x04\n    /* \"#utility.yul\":2919:2934   */\n  mstore\n    /* \"#utility.yul\":2953:2957   */\n  0x24\n    /* \"#utility.yul\":2950:2951   */\n  0x00\n    /* \"#utility.yul\":2943:2958   */\n  revert\n    /* \"Chain Paper/CP.sol\":94:583  contract CP is ERC721{\r... */\ntag_11:\n  dataSize(sub_0)\n  dup1\n  dataOffset(sub_0)\n  0x00\n  codecopy\n  0x00\n  return\nstop\n\nsub_0: assembly {\n        /* \"Chain Paper/CP.sol\":94:583  contract CP is ERC721{\r... */\n      mstore(0x40, 0x80)\n      callvalue\n      dup1\n      iszero\n      tag_1\n      jumpi\n      0x00\n      dup1\n      revert\n    tag_1:\n      pop\n      jumpi(tag_2, lt(calldatasize, 0x04))\n      shr(0xe0, calldataload(0x00))\n      dup1\n      0x538f1672\n      gt\n      tag_18\n      jumpi\n      dup1\n      0xb88d4fde\n      gt\n      tag_19\n      jumpi\n      dup1\n      0xb88d4fde\n      eq\n      tag_14\n      jumpi\n      dup1\n      0xc5e51b9e\n      eq\n      tag_15\n      jumpi\n      dup1\n      0xc87b56dd\n      eq\n      tag_16\n      jumpi\n      dup1\n      0xe985e9c5\n      eq\n      tag_17\n      jumpi\n      jump(tag_2)\n    tag_19:\n      dup1\n      0x538f1672\n      eq\n      tag_10\n      jumpi\n      dup1\n      0x6352211e\n      eq\n      tag_11\n      jumpi\n      dup1\n      0x70a08231\n      eq\n      tag_12\n      jumpi\n      dup1\n      0x95d89b41\n      eq\n      tag_13\n      jumpi\n      jump(tag_2)\n    tag_18:\n      dup1\n      0x095ea7b3\n      gt\n      tag_20\n      jumpi\n      dup1\n      0x095ea7b3\n      eq\n      tag_6\n      jumpi\n      dup1\n      0x23b872dd\n      eq\n      tag_7\n      jumpi\n      dup1\n      0x40c10f19\n      eq\n      tag_8\n      jumpi\n      dup1\n      0x42842e0e\n      eq\n      tag_9\n      jumpi\n      jump(tag_2)\n    tag_20:\n      dup1\n      0x01ffc9a7\n      eq\n      tag_3\n      jumpi\n      dup1\n      0x06fdde03\n      eq\n      tag_4\n      jumpi\n      dup1\n      0x081812fc\n      eq\n      tag_5\n      jumpi\n    tag_2:\n      0x00\n      dup1\n      revert\n        /* \"Chain Paper/liberty/ERC721.sol\":817:1096  function supportsInterface(bytes4 interfaceId) external pure override returns(bool)  {\r... */\n    tag_3:\n      tag_21\n      0x04\n      dup1\n      calldatasize\n      sub\n      dup2\n      add\n      swap1\n      tag_22\n      swap2\n      swap1\n      tag_23\n      jump\t// in\n    tag_22:\n      tag_24\n      jump\t// in\n    tag_21:\n      mload(0x40)\n      tag_25\n      swap2\n      swap1\n      tag_26\n      jump\t// in\n    tag_25:\n      mload(0x40)\n      dup1\n      swap2\n      sub\n      swap1\n      return\n        /* \"Chain Paper/liberty/ERC721.sol\":390:417  string public override name */\n    tag_4:\n      tag_27\n      tag_28\n      jump\t// in\n    tag_27:\n      mload(0x40)\n      tag_29\n      swap2\n      swap1\n      tag_30\n      jump\t// in\n    tag_29:\n      mload(0x40)\n      dup1\n      swap2\n      sub\n      swap1\n      return\n        /* \"Chain Paper/liberty/ERC721.sol\":1844:2039  function getApproved(uint tokenId)external view override returns(address){\r... */\n    tag_5:\n      tag_31\n      0x04\n      dup1\n      calldatasize\n      sub\n      dup2\n      add\n      swap1\n      tag_32\n      swap2\n      swap1\n      tag_33\n      jump\t// in\n    tag_32:\n      tag_34\n      jump\t// in\n    tag_31:\n      mload(0x40)\n      tag_35\n      swap2\n      swap1\n      tag_36\n      jump\t// in\n    tag_35:\n      mload(0x40)\n      dup1\n      swap2\n      sub\n      swap1\n      return\n        /* \"Chain Paper/liberty/ERC721.sol\":2210:2474  function approve(address to , uint tokenId)external override {\r... */\n    tag_6:\n      tag_37\n      0x04\n      dup1\n      calldatasize\n      sub\n      dup2\n      add\n      swap1\n      tag_38\n      swap2\n      swap1\n      tag_39\n      jump\t// in\n    tag_38:\n      tag_40\n      jump\t// in\n    tag_37:\n      stop\n        /* \"Chain Paper/liberty/ERC721.sol\":3143:3390  function transferFrom(address from , address to , uint tokenId ) external override {\r... */\n    tag_7:\n      tag_41\n      0x04\n      dup1\n      calldatasize\n      sub\n      dup2\n      add\n      swap1\n      tag_42\n      swap2\n      swap1\n      tag_43\n      jump\t// in\n    tag_42:\n      tag_44\n      jump\t// in\n    tag_41:\n      stop\n        /* \"Chain Paper/CP.sol\":419:580  function mint(address to , uint tokenId) external {\r... */\n    tag_8:\n      tag_45\n      0x04\n      dup1\n      calldatasize\n      sub\n      dup2\n      add\n      swap1\n      tag_46\n      swap2\n      swap1\n      tag_39\n      jump\t// in\n    tag_46:\n      tag_47\n      jump\t// in\n    tag_45:\n      stop\n        /* \"Chain Paper/liberty/ERC721.sol\":3955:4140  function safeTransferFrom(address from , address to ,uint tokenId )external override{\r... */\n    tag_9:\n      tag_48\n      0x04\n      dup1\n      calldatasize\n      sub\n      dup2\n      add\n      swap1\n      tag_49\n      swap2\n      swap1\n      tag_43\n      jump\t// in\n    tag_49:\n      tag_50\n      jump\t// in\n    tag_48:\n      stop\n        /* \"Chain Paper/CP.sol\":122:149  uint public MAX_CPS = 10000 */\n    tag_10:\n      tag_51\n      tag_52\n      jump\t// in\n    tag_51:\n      mload(0x40)\n      tag_53\n      swap2\n      swap1\n      tag_54\n      jump\t// in\n    tag_53:\n      mload(0x40)\n      dup1\n      swap2\n      sub\n      swap1\n      return\n        /* \"Chain Paper/liberty/ERC721.sol\":1282:1459  function ownerOf(uint tokenId)public view override returns(address owner){\r... */\n    tag_11:\n      tag_55\n      0x04\n      dup1\n      calldatasize\n      sub\n      dup2\n      add\n      swap1\n      tag_56\n      swap2\n      swap1\n      tag_33\n      jump\t// in\n    tag_56:\n      tag_57\n      jump\t// in\n    tag_55:\n      mload(0x40)\n      tag_58\n      swap2\n      swap1\n      tag_36\n      jump\t// in\n    tag_58:\n      mload(0x40)\n      dup1\n      swap2\n      sub\n      swap1\n      return\n        /* \"Chain Paper/liberty/ERC721.sol\":1104:1274  function balanceOf(address owner)external view override returns(uint){\r... */\n    tag_12:\n      tag_59\n      0x04\n      dup1\n      calldatasize\n      sub\n      dup2\n      add\n      swap1\n      tag_60\n      swap2\n      swap1\n      tag_61\n      jump\t// in\n    tag_60:\n      tag_62\n      jump\t// in\n    tag_59:\n      mload(0x40)\n      tag_63\n      swap2\n      swap1\n      tag_54\n      jump\t// in\n    tag_63:\n      mload(0x40)\n      dup1\n      swap2\n      sub\n      swap1\n      return\n        /* \"Chain Paper/liberty/ERC721.sol\":424:453  string public override symbol */\n    tag_13:\n      tag_64\n      tag_65\n      jump\t// in\n    tag_64:\n      mload(0x40)\n      tag_66\n      swap2\n      swap1\n      tag_30\n      jump\t// in\n    tag_66:\n      mload(0x40)\n      dup1\n      swap2\n      sub\n      swap1\n      return\n        /* \"Chain Paper/liberty/ERC721.sol\":3651:3947  function safeTransferFrom(address from , address to ,uint tokenId , bytes memory _data)public  override{\r... */\n    tag_14:\n      tag_67\n      0x04\n      dup1\n      calldatasize\n      sub\n      dup2\n      add\n      swap1\n      tag_68\n      swap2\n      swap1\n      tag_69\n      jump\t// in\n    tag_68:\n      tag_70\n      jump\t// in\n    tag_67:\n      stop\n        /* \"Chain Paper/liberty/ERC721.sol\":1631:1836  function approvalForAll(address operator,bool approved)external override{\r... */\n    tag_15:\n      tag_71\n      0x04\n      dup1\n      calldatasize\n      sub\n      dup2\n      add\n      swap1\n      tag_72\n      swap2\n      swap1\n      tag_73\n      jump\t// in\n    tag_72:\n      tag_74\n      jump\t// in\n    tag_71:\n      stop\n        /* \"Chain Paper/liberty/ERC721.sol\":5303:5612  function tokenURI(uint tokenId) public override virtual view returns(string memory){\r... */\n    tag_16:\n      tag_75\n      0x04\n      dup1\n      calldatasize\n      sub\n      dup2\n      add\n      swap1\n      tag_76\n      swap2\n      swap1\n      tag_33\n      jump\t// in\n    tag_76:\n      tag_77\n      jump\t// in\n    tag_75:\n      mload(0x40)\n      tag_78\n      swap2\n      swap1\n      tag_30\n      jump\t// in\n    tag_78:\n      mload(0x40)\n      dup1\n      swap2\n      sub\n      swap1\n      return\n        /* \"Chain Paper/liberty/ERC721.sol\":1469:1623  function isApprovedForAll(address owner,address operator)external view override returns(bool){\r... */\n    tag_17:\n      tag_79\n      0x04\n      dup1\n      calldatasize\n      sub\n      dup2\n      add\n      swap1\n      tag_80\n      swap2\n      swap1\n      tag_81\n      jump\t// in\n    tag_80:\n      tag_82\n      jump\t// in\n    tag_79:\n      mload(0x40)\n      tag_83\n      swap2\n      swap1\n      tag_26\n      jump\t// in\n    tag_83:\n      mload(0x40)\n      dup1\n      swap2\n      sub\n      swap1\n      return\n        /* \"Chain Paper/liberty/ERC721.sol\":817:1096  function supportsInterface(bytes4 interfaceId) external pure override returns(bool)  {\r... */\n    tag_24:\n        /* \"Chain Paper/liberty/ERC721.sol\":895:899  bool */\n      0x00\n        /* \"Chain Paper/liberty/ERC721.sol\":935:960  type(IERC721).interfaceId */\n      0xe765f73600000000000000000000000000000000000000000000000000000000\n        /* \"Chain Paper/liberty/ERC721.sol\":920:960  interfaceId == type(IERC721).interfaceId */\n      not(0xffffffffffffffffffffffffffffffffffffffffffffffffffffffff)\n      and\n        /* \"Chain Paper/liberty/ERC721.sol\":920:931  interfaceId */\n      dup3\n        /* \"Chain Paper/liberty/ERC721.sol\":920:960  interfaceId == type(IERC721).interfaceId */\n      not(0xffffffffffffffffffffffffffffffffffffffffffffffffffffffff)\n      and\n      eq\n        /* \"Chain Paper/liberty/ERC721.sol\":920:1020  interfaceId == type(IERC721).interfaceId ||\r... */\n      dup1\n      tag_85\n      jumpi\n      pop\n        /* \"Chain Paper/liberty/ERC721.sol\":995:1020  type(IERC165).interfaceId */\n      0x01ffc9a700000000000000000000000000000000000000000000000000000000\n        /* \"Chain Paper/liberty/ERC721.sol\":980:1020  interfaceId == type(IERC165).interfaceId */\n      not(0xffffffffffffffffffffffffffffffffffffffffffffffffffffffff)\n      and\n        /* \"Chain Paper/liberty/ERC721.sol\":980:991  interfaceId */\n      dup3\n        /* \"Chain Paper/liberty/ERC721.sol\":980:1020  interfaceId == type(IERC165).interfaceId */\n      not(0xffffffffffffffffffffffffffffffffffffffffffffffffffffffff)\n      and\n      eq\n        /* \"Chain Paper/liberty/ERC721.sol\":920:1020  interfaceId == type(IERC721).interfaceId ||\r... */\n    tag_85:\n        /* \"Chain Paper/liberty/ERC721.sol\":920:1088  interfaceId == type(IERC721).interfaceId ||\r... */\n      dup1\n      tag_86\n      jumpi\n      pop\n        /* \"Chain Paper/liberty/ERC721.sol\":1055:1088  type(IERC721Metadata).interfaceId */\n      0x5b5e139f00000000000000000000000000000000000000000000000000000000\n        /* \"Chain Paper/liberty/ERC721.sol\":1040:1088  interfaceId == type(IERC721Metadata).interfaceId */\n      not(0xffffffffffffffffffffffffffffffffffffffffffffffffffffffff)\n      and\n        /* \"Chain Paper/liberty/ERC721.sol\":1040:1051  interfaceId */\n      dup3\n        /* \"Chain Paper/liberty/ERC721.sol\":1040:1088  interfaceId == type(IERC721Metadata).interfaceId */\n      not(0xffffffffffffffffffffffffffffffffffffffffffffffffffffffff)\n      and\n      eq\n        /* \"Chain Paper/liberty/ERC721.sol\":920:1088  interfaceId == type(IERC721).interfaceId ||\r... */\n    tag_86:\n        /* \"Chain Paper/liberty/ERC721.sol\":913:1088  return interfaceId == type(IERC721).interfaceId ||\r... */\n      swap1\n      pop\n        /* \"Chain Paper/liberty/ERC721.sol\":817:1096  function supportsInterface(bytes4 interfaceId) external pure override returns(bool)  {\r... */\n      swap2\n      swap1\n      pop\n      jump\t// out\n        /* \"Chain Paper/liberty/ERC721.sol\":390:417  string public override name */\n    tag_28:\n      0x00\n      dup1\n      sload\n      tag_87\n      swap1\n      tag_88\n      jump\t// in\n    tag_87:\n      dup1\n      0x1f\n      add\n      0x20\n      dup1\n      swap2\n      div\n      mul\n      0x20\n      add\n      mload(0x40)\n      swap1\n      dup2\n      add\n      0x40\n      mstore\n      dup1\n      swap3\n      swap2\n      swap1\n      dup2\n      dup2\n      mstore\n      0x20\n      add\n      dup3\n      dup1\n      sload\n      tag_89\n      swap1\n      tag_88\n      jump\t// in\n    tag_89:\n      dup1\n      iszero\n      tag_90\n      jumpi\n      dup1\n      0x1f\n      lt\n      tag_91\n      jumpi\n      0x0100\n      dup1\n      dup4\n      sload\n      div\n      mul\n      dup4\n      mstore\n      swap2\n      0x20\n      add\n      swap2\n      jump(tag_90)\n    tag_91:\n      dup3\n      add\n      swap2\n      swap1\n      0x00\n      mstore\n      keccak256(0x00, 0x20)\n      swap1\n    tag_92:\n      dup2\n      sload\n      dup2\n      mstore\n      swap1\n      0x01\n      add\n      swap1\n      0x20\n      add\n      dup1\n      dup4\n      gt\n      tag_92\n      jumpi\n      dup3\n      swap1\n      sub\n      0x1f\n      and\n      dup3\n      add\n      swap2\n    tag_90:\n      pop\n      pop\n      pop\n      pop\n      pop\n      dup2\n      jump\t// out\n        /* \"Chain Paper/liberty/ERC721.sol\":1844:2039  function getApproved(uint tokenId)external view override returns(address){\r... */\n    tag_34:\n        /* \"Chain Paper/liberty/ERC721.sol\":1909:1916  address */\n      0x00\n        /* \"Chain Paper/liberty/ERC721.sol\":1964:1965  0 */\n      dup1\n        /* \"Chain Paper/liberty/ERC721.sol\":1936:1966  _owners[tokenId] != address(0) */\n      0xffffffffffffffffffffffffffffffffffffffff\n      and\n        /* \"Chain Paper/liberty/ERC721.sol\":1936:1943  _owners */\n      0x02\n        /* \"Chain Paper/liberty/ERC721.sol\":1936:1952  _owners[tokenId] */\n      0x00\n        /* \"Chain Paper/liberty/ERC721.sol\":1944:1951  tokenId */\n      dup5\n        /* \"Chain Paper/liberty/ERC721.sol\":1936:1952  _owners[tokenId] */\n      dup2\n      mstore\n      0x20\n      add\n      swap1\n      dup2\n      mstore\n      0x20\n      add\n      0x00\n      keccak256\n      0x00\n      swap1\n      sload\n      swap1\n      0x0100\n      exp\n      swap1\n      div\n      0xffffffffffffffffffffffffffffffffffffffff\n      and\n        /* \"Chain Paper/liberty/ERC721.sol\":1936:1966  _owners[tokenId] != address(0) */\n      0xffffffffffffffffffffffffffffffffffffffff\n      and\n      eq\n      iszero\n        /* \"Chain Paper/liberty/ERC721.sol\":1928:1989  require(_owners[tokenId] != address(0),\"token doesn't exist\") */\n      tag_94\n      jumpi\n      mload(0x40)\n      0x08c379a000000000000000000000000000000000000000000000000000000000\n      dup2\n      mstore\n      0x04\n      add\n      tag_95\n      swap1\n      tag_96\n      jump\t// in\n    tag_95:\n      mload(0x40)\n      dup1\n      swap2\n      sub\n      swap1\n      revert\n    tag_94:\n        /* \"Chain Paper/liberty/ERC721.sol\":2007:2022  _tokenApprovals */\n      0x04\n        /* \"Chain Paper/liberty/ERC721.sol\":2007:2031  _tokenApprovals[tokenId] */\n      0x00\n        /* \"Chain Paper/liberty/ERC721.sol\":2023:2030  tokenId */\n      dup4\n        /* \"Chain Paper/liberty/ERC721.sol\":2007:2031  _tokenApprovals[tokenId] */\n      dup2\n      mstore\n      0x20\n      add\n      swap1\n      dup2\n      mstore\n      0x20\n      add\n      0x00\n      keccak256\n      0x00\n      swap1\n      sload\n      swap1\n      0x0100\n      exp\n      swap1\n      div\n      0xffffffffffffffffffffffffffffffffffffffff\n      and\n        /* \"Chain Paper/liberty/ERC721.sol\":2000:2031  return _tokenApprovals[tokenId] */\n      swap1\n      pop\n        /* \"Chain Paper/liberty/ERC721.sol\":1844:2039  function getApproved(uint tokenId)external view override returns(address){\r... */\n      swap2\n      swap1\n      pop\n      jump\t// out\n        /* \"Chain Paper/liberty/ERC721.sol\":2210:2474  function approve(address to , uint tokenId)external override {\r... */\n    tag_40:\n        /* \"Chain Paper/liberty/ERC721.sol\":2282:2295  address owner */\n      0x00\n        /* \"Chain Paper/liberty/ERC721.sol\":2298:2305  _owners */\n      0x02\n        /* \"Chain Paper/liberty/ERC721.sol\":2298:2314  _owners[tokenId] */\n      0x00\n        /* \"Chain Paper/liberty/ERC721.sol\":2306:2313  tokenId */\n      dup4\n        /* \"Chain Paper/liberty/ERC721.sol\":2298:2314  _owners[tokenId] */\n      dup2\n      mstore\n      0x20\n      add\n      swap1\n      dup2\n      mstore\n      0x20\n      add\n      0x00\n      keccak256\n      0x00\n      swap1\n      sload\n      swap1\n      0x0100\n      exp\n      swap1\n      div\n      0xffffffffffffffffffffffffffffffffffffffff\n      and\n        /* \"Chain Paper/liberty/ERC721.sol\":2282:2314  address owner = _owners[tokenId] */\n      swap1\n      pop\n        /* \"Chain Paper/liberty/ERC721.sol\":2347:2352  owner */\n      dup1\n        /* \"Chain Paper/liberty/ERC721.sol\":2333:2352  msg.sender == owner */\n      0xffffffffffffffffffffffffffffffffffffffff\n      and\n        /* \"Chain Paper/liberty/ERC721.sol\":2333:2343  msg.sender */\n      caller\n        /* \"Chain Paper/liberty/ERC721.sol\":2333:2352  msg.sender == owner */\n      0xffffffffffffffffffffffffffffffffffffffff\n      and\n      eq\n        /* \"Chain Paper/liberty/ERC721.sol\":2333:2393  msg.sender == owner || _operatorApprovals[owner][msg.sender] */\n      dup1\n      tag_98\n      jumpi\n      pop\n        /* \"Chain Paper/liberty/ERC721.sol\":2356:2374  _operatorApprovals */\n      0x05\n        /* \"Chain Paper/liberty/ERC721.sol\":2356:2381  _operatorApprovals[owner] */\n      0x00\n        /* \"Chain Paper/liberty/ERC721.sol\":2375:2380  owner */\n      dup3\n        /* \"Chain Paper/liberty/ERC721.sol\":2356:2381  _operatorApprovals[owner] */\n      0xffffffffffffffffffffffffffffffffffffffff\n      and\n      0xffffffffffffffffffffffffffffffffffffffff\n      and\n      dup2\n      mstore\n      0x20\n      add\n      swap1\n      dup2\n      mstore\n      0x20\n      add\n      0x00\n      keccak256\n        /* \"Chain Paper/liberty/ERC721.sol\":2356:2393  _operatorApprovals[owner][msg.sender] */\n      0x00\n        /* \"Chain Paper/liberty/ERC721.sol\":2382:2392  msg.sender */\n      caller\n        /* \"Chain Paper/liberty/ERC721.sol\":2356:2393  _operatorApprovals[owner][msg.sender] */\n      0xffffffffffffffffffffffffffffffffffffffff\n      and\n      0xffffffffffffffffffffffffffffffffffffffff\n      and\n      dup2\n      mstore\n      0x20\n      add\n      swap1\n      dup2\n      mstore\n      0x20\n      add\n      0x00\n      keccak256\n      0x00\n      swap1\n      sload\n      swap1\n      0x0100\n      exp\n      swap1\n      div\n      0xff\n      and\n        /* \"Chain Paper/liberty/ERC721.sol\":2333:2393  msg.sender == owner || _operatorApprovals[owner][msg.sender] */\n    tag_98:\n        /* \"Chain Paper/liberty/ERC721.sol\":2325:2426  require(msg.sender == owner || _operatorApprovals[owner][msg.sender],\"not owner or approved for all\") */\n      tag_99\n      jumpi\n      mload(0x40)\n      0x08c379a000000000000000000000000000000000000000000000000000000000\n      dup2\n      mstore\n      0x04\n      add\n      tag_100\n      swap1\n      tag_101\n      jump\t// in\n    tag_100:\n      mload(0x40)\n      dup1\n      swap2\n      sub\n      swap1\n      revert\n    tag_99:\n        /* \"Chain Paper/liberty/ERC721.sol\":2437:2466  _approve(owner, to , tokenId) */\n      tag_102\n        /* \"Chain Paper/liberty/ERC721.sol\":2446:2451  owner */\n      dup2\n        /* \"Chain Paper/liberty/ERC721.sol\":2453:2455  to */\n      dup5\n        /* \"Chain Paper/liberty/ERC721.sol\":2458:2465  tokenId */\n      dup5\n        /* \"Chain Paper/liberty/ERC721.sol\":2437:2445  _approve */\n      tag_103\n        /* \"Chain Paper/liberty/ERC721.sol\":2437:2466  _approve(owner, to , tokenId) */\n      jump\t// in\n    tag_102:\n        /* \"Chain Paper/liberty/ERC721.sol\":2210:2474  function approve(address to , uint tokenId)external override {\r... */\n      pop\n      pop\n      pop\n      jump\t// out\n        /* \"Chain Paper/liberty/ERC721.sol\":3143:3390  function transferFrom(address from , address to , uint tokenId ) external override {\r... */\n    tag_44:\n        /* \"Chain Paper/liberty/ERC721.sol\":3237:3250  address owner */\n      0x00\n        /* \"Chain Paper/liberty/ERC721.sol\":3253:3269  ownerOf(tokenId) */\n      tag_105\n        /* \"Chain Paper/liberty/ERC721.sol\":3261:3268  tokenId */\n      dup3\n        /* \"Chain Paper/liberty/ERC721.sol\":3253:3260  ownerOf */\n      tag_57\n        /* \"Chain Paper/liberty/ERC721.sol\":3253:3269  ownerOf(tokenId) */\n      jump\t// in\n    tag_105:\n        /* \"Chain Paper/liberty/ERC721.sol\":3237:3269  address owner = ownerOf(tokenId) */\n      swap1\n      pop\n        /* \"Chain Paper/liberty/ERC721.sol\":3289:3335  _isApprovedOrOwner(owner , msg.sender,tokenId) */\n      tag_106\n        /* \"Chain Paper/liberty/ERC721.sol\":3308:3313  owner */\n      dup2\n        /* \"Chain Paper/liberty/ERC721.sol\":3316:3326  msg.sender */\n      caller\n        /* \"Chain Paper/liberty/ERC721.sol\":3327:3334  tokenId */\n      dup5\n        /* \"Chain Paper/liberty/ERC721.sol\":3289:3307  _isApprovedOrOwner */\n      tag_107\n        /* \"Chain Paper/liberty/ERC721.sol\":3289:3335  _isApprovedOrOwner(owner , msg.sender,tokenId) */\n      jump\t// in\n    tag_106:\n        /* \"Chain Paper/liberty/ERC721.sol\":3280:3336  require( _isApprovedOrOwner(owner , msg.sender,tokenId)) */\n      tag_108\n      jumpi\n      0x00\n      dup1\n      revert\n    tag_108:\n        /* \"Chain Paper/liberty/ERC721.sol\":3350:3382  _transfer(owner,from,to,tokenId) */\n      tag_109\n        /* \"Chain Paper/liberty/ERC721.sol\":3360:3365  owner */\n      dup2\n        /* \"Chain Paper/liberty/ERC721.sol\":3366:3370  from */\n      dup6\n        /* \"Chain Paper/liberty/ERC721.sol\":3371:3373  to */\n      dup6\n        /* \"Chain Paper/liberty/ERC721.sol\":3374:3381  tokenId */\n      dup6\n        /* \"Chain Paper/liberty/ERC721.sol\":3350:3359  _transfer */\n      tag_110\n        /* \"Chain Paper/liberty/ERC721.sol\":3350:3382  _transfer(owner,from,to,tokenId) */\n      jump\t// in\n    tag_109:\n        /* \"Chain Paper/liberty/ERC721.sol\":3143:3390  function transferFrom(address from , address to , uint tokenId ) external override {\r... */\n      pop\n      pop\n      pop\n      pop\n      jump\t// out\n        /* \"Chain Paper/CP.sol\":419:580  function mint(address to , uint tokenId) external {\r... */\n    tag_47:\n        /* \"Chain Paper/CP.sol\":498:499  0 */\n      0x00\n        /* \"Chain Paper/CP.sol\":489:496  tokenId */\n      dup2\n        /* \"Chain Paper/CP.sol\":489:499  tokenId>=0 */\n      lt\n      iszero\n        /* \"Chain Paper/CP.sol\":489:519  tokenId>=0 && tokenId< MAX_CPS */\n      dup1\n      iszero\n      tag_112\n      jumpi\n      pop\n        /* \"Chain Paper/CP.sol\":512:519  MAX_CPS */\n      sload(0x06)\n        /* \"Chain Paper/CP.sol\":503:510  tokenId */\n      dup2\n        /* \"Chain Paper/CP.sol\":503:519  tokenId< MAX_CPS */\n      lt\n        /* \"Chain Paper/CP.sol\":489:519  tokenId>=0 && tokenId< MAX_CPS */\n    tag_112:\n        /* \"Chain Paper/CP.sol\":480:543  require (tokenId>=0 && tokenId< MAX_CPS,\"tokenId out of range\") */\n      tag_113\n      jumpi\n      mload(0x40)\n      0x08c379a000000000000000000000000000000000000000000000000000000000\n      dup2\n      mstore\n      0x04\n      add\n      tag_114\n      swap1\n      tag_115\n      jump\t// in\n    tag_114:\n      mload(0x40)\n      dup1\n      swap2\n      sub\n      swap1\n      revert\n    tag_113:\n        /* \"Chain Paper/CP.sol\":554:572  _mint(to, tokenId) */\n      tag_116\n        /* \"Chain Paper/CP.sol\":560:562  to */\n      dup3\n        /* \"Chain Paper/CP.sol\":564:571  tokenId */\n      dup3\n        /* \"Chain Paper/CP.sol\":554:559  _mint */\n      tag_117\n        /* \"Chain Paper/CP.sol\":554:572  _mint(to, tokenId) */\n      jump\t// in\n    tag_116:\n        /* \"Chain Paper/CP.sol\":419:580  function mint(address to , uint tokenId) external {\r... */\n      pop\n      pop\n      jump\t// out\n        /* \"Chain Paper/liberty/ERC721.sol\":3955:4140  function safeTransferFrom(address from , address to ,uint tokenId )external override{\r... */\n    tag_50:\n        /* \"Chain Paper/liberty/ERC721.sol\":4050:4063  address owner */\n      0x00\n        /* \"Chain Paper/liberty/ERC721.sol\":4066:4082  ownerOf(tokenId) */\n      tag_119\n        /* \"Chain Paper/liberty/ERC721.sol\":4074:4081  tokenId */\n      dup3\n        /* \"Chain Paper/liberty/ERC721.sol\":4066:4073  ownerOf */\n      tag_57\n        /* \"Chain Paper/liberty/ERC721.sol\":4066:4082  ownerOf(tokenId) */\n      jump\t// in\n    tag_119:\n        /* \"Chain Paper/liberty/ERC721.sol\":4050:4082  address owner = ownerOf(tokenId) */\n      swap1\n      pop\n        /* \"Chain Paper/liberty/ERC721.sol\":4093:4132  _safeTransfer(owner,from,to,tokenId,\"\") */\n      tag_120\n        /* \"Chain Paper/liberty/ERC721.sol\":4107:4112  owner */\n      dup2\n        /* \"Chain Paper/liberty/ERC721.sol\":4113:4117  from */\n      dup6\n        /* \"Chain Paper/liberty/ERC721.sol\":4118:4120  to */\n      dup6\n        /* \"Chain Paper/liberty/ERC721.sol\":4121:4128  tokenId */\n      dup6\n        /* \"Chain Paper/liberty/ERC721.sol\":4093:4132  _safeTransfer(owner,from,to,tokenId,\"\") */\n      mload(0x40)\n      dup1\n      0x20\n      add\n      0x40\n      mstore\n      dup1\n      0x00\n      dup2\n      mstore\n      pop\n        /* \"Chain Paper/liberty/ERC721.sol\":4093:4106  _safeTransfer */\n      tag_121\n        /* \"Chain Paper/liberty/ERC721.sol\":4093:4132  _safeTransfer(owner,from,to,tokenId,\"\") */\n      jump\t// in\n    tag_120:\n        /* \"Chain Paper/liberty/ERC721.sol\":3955:4140  function safeTransferFrom(address from , address to ,uint tokenId )external override{\r... */\n      pop\n      pop\n      pop\n      pop\n      jump\t// out\n        /* \"Chain Paper/CP.sol\":122:149  uint public MAX_CPS = 10000 */\n    tag_52:\n      sload(0x06)\n      dup2\n      jump\t// out\n        /* \"Chain Paper/liberty/ERC721.sol\":1282:1459  function ownerOf(uint tokenId)public view override returns(address owner){\r... */\n    tag_57:\n        /* \"Chain Paper/liberty/ERC721.sol\":1341:1354  address owner */\n      0x00\n        /* \"Chain Paper/liberty/ERC721.sol\":1374:1381  _owners */\n      0x02\n        /* \"Chain Paper/liberty/ERC721.sol\":1374:1390  _owners[tokenId] */\n      0x00\n        /* \"Chain Paper/liberty/ERC721.sol\":1382:1389  tokenId */\n      dup4\n        /* \"Chain Paper/liberty/ERC721.sol\":1374:1390  _owners[tokenId] */\n      dup2\n      mstore\n      0x20\n      add\n      swap1\n      dup2\n      mstore\n      0x20\n      add\n      0x00\n      keccak256\n      0x00\n      swap1\n      sload\n      swap1\n      0x0100\n      exp\n      swap1\n      div\n      0xffffffffffffffffffffffffffffffffffffffff\n      and\n        /* \"Chain Paper/liberty/ERC721.sol\":1366:1390  owner = _owners[tokenId] */\n      swap1\n      pop\n        /* \"Chain Paper/liberty/ERC721.sol\":1426:1427  0 */\n      0x00\n        /* \"Chain Paper/liberty/ERC721.sol\":1409:1428  owner != address(0) */\n      0xffffffffffffffffffffffffffffffffffffffff\n      and\n        /* \"Chain Paper/liberty/ERC721.sol\":1409:1414  owner */\n      dup2\n        /* \"Chain Paper/liberty/ERC721.sol\":1409:1428  owner != address(0) */\n      0xffffffffffffffffffffffffffffffffffffffff\n      and\n      eq\n      iszero\n        /* \"Chain Paper/liberty/ERC721.sol\":1401:1451  require(owner != address(0),\"token doesn't exist\") */\n      tag_123\n      jumpi\n      mload(0x40)\n      0x08c379a000000000000000000000000000000000000000000000000000000000\n      dup2\n      mstore\n      0x04\n      add\n      tag_124\n      swap1\n      tag_96\n      jump\t// in\n    tag_124:\n      mload(0x40)\n      dup1\n      swap2\n      sub\n      swap1\n      revert\n    tag_123:\n        /* \"Chain Paper/liberty/ERC721.sol\":1282:1459  function ownerOf(uint tokenId)public view override returns(address owner){\r... */\n      swap2\n      swap1\n      pop\n      jump\t// out\n        /* \"Chain Paper/liberty/ERC721.sol\":1104:1274  function balanceOf(address owner)external view override returns(uint){\r... */\n    tag_62:\n        /* \"Chain Paper/liberty/ERC721.sol\":1168:1172  uint */\n      0x00\n        /* \"Chain Paper/liberty/ERC721.sol\":1209:1210  0 */\n      dup1\n        /* \"Chain Paper/liberty/ERC721.sol\":1192:1211  owner != address(0) */\n      0xffffffffffffffffffffffffffffffffffffffff\n      and\n        /* \"Chain Paper/liberty/ERC721.sol\":1192:1197  owner */\n      dup3\n        /* \"Chain Paper/liberty/ERC721.sol\":1192:1211  owner != address(0) */\n      0xffffffffffffffffffffffffffffffffffffffff\n      and\n      eq\n      iszero\n        /* \"Chain Paper/liberty/ERC721.sol\":1184:1232  require(owner != address(0),\"owner = 0 address\") */\n      tag_126\n      jumpi\n      mload(0x40)\n      0x08c379a000000000000000000000000000000000000000000000000000000000\n      dup2\n      mstore\n      0x04\n      add\n      tag_127\n      swap1\n      tag_128\n      jump\t// in\n    tag_127:\n      mload(0x40)\n      dup1\n      swap2\n      sub\n      swap1\n      revert\n    tag_126:\n        /* \"Chain Paper/liberty/ERC721.sol\":1250:1259  _balances */\n      0x03\n        /* \"Chain Paper/liberty/ERC721.sol\":1250:1266  _balances[owner] */\n      0x00\n        /* \"Chain Paper/liberty/ERC721.sol\":1260:1265  owner */\n      dup4\n        /* \"Chain Paper/liberty/ERC721.sol\":1250:1266  _balances[owner] */\n      0xffffffffffffffffffffffffffffffffffffffff\n      and\n      0xffffffffffffffffffffffffffffffffffffffff\n      and\n      dup2\n      mstore\n      0x20\n      add\n      swap1\n      dup2\n      mstore\n      0x20\n      add\n      0x00\n      keccak256\n      sload\n        /* \"Chain Paper/liberty/ERC721.sol\":1243:1266  return _balances[owner] */\n      swap1\n      pop\n        /* \"Chain Paper/liberty/ERC721.sol\":1104:1274  function balanceOf(address owner)external view override returns(uint){\r... */\n      swap2\n      swap1\n      pop\n      jump\t// out\n        /* \"Chain Paper/liberty/ERC721.sol\":424:453  string public override symbol */\n    tag_65:\n      0x01\n      dup1\n      sload\n      tag_129\n      swap1\n      tag_88\n      jump\t// in\n    tag_129:\n      dup1\n      0x1f\n      add\n      0x20\n      dup1\n      swap2\n      div\n      mul\n      0x20\n      add\n      mload(0x40)\n      swap1\n      dup2\n      add\n      0x40\n      mstore\n      dup1\n      swap3\n      swap2\n      swap1\n      dup2\n      dup2\n      mstore\n      0x20\n      add\n      dup3\n      dup1\n      sload\n      tag_130\n      swap1\n      tag_88\n      jump\t// in\n    tag_130:\n      dup1\n      iszero\n      tag_131\n      jumpi\n      dup1\n      0x1f\n      lt\n      tag_132\n      jumpi\n      0x0100\n      dup1\n      dup4\n      sload\n      div\n      mul\n      dup4\n      mstore\n      swap2\n      0x20\n      add\n      swap2\n      jump(tag_131)\n    tag_132:\n      dup3\n      add\n      swap2\n      swap1\n      0x00\n      mstore\n      keccak256(0x00, 0x20)\n      swap1\n    tag_133:\n      dup2\n      sload\n      dup2\n      mstore\n      swap1\n      0x01\n      add\n      swap1\n      0x20\n      add\n      dup1\n      dup4\n      gt\n      tag_133\n      jumpi\n      dup3\n      swap1\n      sub\n      0x1f\n      and\n      dup3\n      add\n      swap2\n    tag_131:\n      pop\n      pop\n      pop\n      pop\n      pop\n      dup2\n      jump\t// out\n        /* \"Chain Paper/liberty/ERC721.sol\":3651:3947  function safeTransferFrom(address from , address to ,uint tokenId , bytes memory _data)public  override{\r... */\n    tag_70:\n        /* \"Chain Paper/liberty/ERC721.sol\":3765:3778  address owner */\n      0x00\n        /* \"Chain Paper/liberty/ERC721.sol\":3781:3797  ownerOf(tokenId) */\n      tag_135\n        /* \"Chain Paper/liberty/ERC721.sol\":3789:3796  tokenId */\n      dup4\n        /* \"Chain Paper/liberty/ERC721.sol\":3781:3788  ownerOf */\n      tag_57\n        /* \"Chain Paper/liberty/ERC721.sol\":3781:3797  ownerOf(tokenId) */\n      jump\t// in\n    tag_135:\n        /* \"Chain Paper/liberty/ERC721.sol\":3765:3797  address owner = ownerOf(tokenId) */\n      swap1\n      pop\n        /* \"Chain Paper/liberty/ERC721.sol\":3816:3860  _isApprovedOrOwner(owner,msg.sender,tokenId) */\n      tag_136\n        /* \"Chain Paper/liberty/ERC721.sol\":3835:3840  owner */\n      dup2\n        /* \"Chain Paper/liberty/ERC721.sol\":3841:3851  msg.sender */\n      caller\n        /* \"Chain Paper/liberty/ERC721.sol\":3852:3859  tokenId */\n      dup6\n        /* \"Chain Paper/liberty/ERC721.sol\":3816:3834  _isApprovedOrOwner */\n      tag_107\n        /* \"Chain Paper/liberty/ERC721.sol\":3816:3860  _isApprovedOrOwner(owner,msg.sender,tokenId) */\n      jump\t// in\n    tag_136:\n        /* \"Chain Paper/liberty/ERC721.sol\":3808:3886  require(_isApprovedOrOwner(owner,msg.sender,tokenId),\"not owner nor approved\") */\n      tag_137\n      jumpi\n      mload(0x40)\n      0x08c379a000000000000000000000000000000000000000000000000000000000\n      dup2\n      mstore\n      0x04\n      add\n      tag_138\n      swap1\n      tag_139\n      jump\t// in\n    tag_138:\n      mload(0x40)\n      dup1\n      swap2\n      sub\n      swap1\n      revert\n    tag_137:\n        /* \"Chain Paper/liberty/ERC721.sol\":3897:3939  _safeTransfer(owner,from,to,tokenId,_data) */\n      tag_140\n        /* \"Chain Paper/liberty/ERC721.sol\":3911:3916  owner */\n      dup2\n        /* \"Chain Paper/liberty/ERC721.sol\":3917:3921  from */\n      dup7\n        /* \"Chain Paper/liberty/ERC721.sol\":3922:3924  to */\n      dup7\n        /* \"Chain Paper/liberty/ERC721.sol\":3925:3932  tokenId */\n      dup7\n        /* \"Chain Paper/liberty/ERC721.sol\":3933:3938  _data */\n      dup7\n        /* \"Chain Paper/liberty/ERC721.sol\":3897:3910  _safeTransfer */\n      tag_121\n        /* \"Chain Paper/liberty/ERC721.sol\":3897:3939  _safeTransfer(owner,from,to,tokenId,_data) */\n      jump\t// in\n    tag_140:\n        /* \"Chain Paper/liberty/ERC721.sol\":3651:3947  function safeTransferFrom(address from , address to ,uint tokenId , bytes memory _data)public  override{\r... */\n      pop\n      pop\n      pop\n      pop\n      pop\n      jump\t// out\n        /* \"Chain Paper/liberty/ERC721.sol\":1631:1836  function approvalForAll(address operator,bool approved)external override{\r... */\n    tag_74:\n        /* \"Chain Paper/liberty/ERC721.sol\":1757:1765  approved */\n      dup1\n        /* \"Chain Paper/liberty/ERC721.sol\":1714:1732  _operatorApprovals */\n      0x05\n        /* \"Chain Paper/liberty/ERC721.sol\":1714:1744  _operatorApprovals[msg.sender] */\n      0x00\n        /* \"Chain Paper/liberty/ERC721.sol\":1733:1743  msg.sender */\n      caller\n        /* \"Chain Paper/liberty/ERC721.sol\":1714:1744  _operatorApprovals[msg.sender] */\n      0xffffffffffffffffffffffffffffffffffffffff\n      and\n      0xffffffffffffffffffffffffffffffffffffffff\n      and\n      dup2\n      mstore\n      0x20\n      add\n      swap1\n      dup2\n      mstore\n      0x20\n      add\n      0x00\n      keccak256\n        /* \"Chain Paper/liberty/ERC721.sol\":1714:1754  _operatorApprovals[msg.sender][operator] */\n      0x00\n        /* \"Chain Paper/liberty/ERC721.sol\":1745:1753  operator */\n      dup5\n        /* \"Chain Paper/liberty/ERC721.sol\":1714:1754  _operatorApprovals[msg.sender][operator] */\n      0xffffffffffffffffffffffffffffffffffffffff\n      and\n      0xffffffffffffffffffffffffffffffffffffffff\n      and\n      dup2\n      mstore\n      0x20\n      add\n      swap1\n      dup2\n      mstore\n      0x20\n      add\n      0x00\n      keccak256\n      0x00\n        /* \"Chain Paper/liberty/ERC721.sol\":1714:1765  _operatorApprovals[msg.sender][operator] = approved */\n      0x0100\n      exp\n      dup2\n      sload\n      dup2\n      0xff\n      mul\n      not\n      and\n      swap1\n      dup4\n      iszero\n      iszero\n      mul\n      or\n      swap1\n      sstore\n      pop\n        /* \"Chain Paper/liberty/ERC721.sol\":1781:1828  ApprovalForALl(msg.sender , operator, approved) */\n      0x6e58f42f8934de1bf5b284476ba8126ee2d334c7aacf1ac87c6d4ebdb6ffb683\n        /* \"Chain Paper/liberty/ERC721.sol\":1796:1806  msg.sender */\n      caller\n        /* \"Chain Paper/liberty/ERC721.sol\":1809:1817  operator */\n      dup4\n        /* \"Chain Paper/liberty/ERC721.sol\":1819:1827  approved */\n      dup4\n        /* \"Chain Paper/liberty/ERC721.sol\":1781:1828  ApprovalForALl(msg.sender , operator, approved) */\n      mload(0x40)\n      tag_142\n      swap4\n      swap3\n      swap2\n      swap1\n      tag_143\n      jump\t// in\n    tag_142:\n      mload(0x40)\n      dup1\n      swap2\n      sub\n      swap1\n      log1\n        /* \"Chain Paper/liberty/ERC721.sol\":1631:1836  function approvalForAll(address operator,bool approved)external override{\r... */\n      pop\n      pop\n      jump\t// out\n        /* \"Chain Paper/liberty/ERC721.sol\":5303:5612  function tokenURI(uint tokenId) public override virtual view returns(string memory){\r... */\n    tag_77:\n        /* \"Chain Paper/liberty/ERC721.sol\":5372:5385  string memory */\n      0x60\n        /* \"Chain Paper/liberty/ERC721.sol\":5433:5434  0 */\n      0x00\n        /* \"Chain Paper/liberty/ERC721.sol\":5405:5435  _owners[tokenId] != address(0) */\n      0xffffffffffffffffffffffffffffffffffffffff\n      and\n        /* \"Chain Paper/liberty/ERC721.sol\":5405:5412  _owners */\n      0x02\n        /* \"Chain Paper/liberty/ERC721.sol\":5405:5421  _owners[tokenId] */\n      0x00\n        /* \"Chain Paper/liberty/ERC721.sol\":5413:5420  tokenId */\n      dup5\n        /* \"Chain Paper/liberty/ERC721.sol\":5405:5421  _owners[tokenId] */\n      dup2\n      mstore\n      0x20\n      add\n      swap1\n      dup2\n      mstore\n      0x20\n      add\n      0x00\n      keccak256\n      0x00\n      swap1\n      sload\n      swap1\n      0x0100\n      exp\n      swap1\n      div\n      0xffffffffffffffffffffffffffffffffffffffff\n      and\n        /* \"Chain Paper/liberty/ERC721.sol\":5405:5435  _owners[tokenId] != address(0) */\n      0xffffffffffffffffffffffffffffffffffffffff\n      and\n      eq\n      iszero\n        /* \"Chain Paper/liberty/ERC721.sol\":5397:5454  require(_owners[tokenId] != address(0),\"Token not exist\") */\n      tag_145\n      jumpi\n      mload(0x40)\n      0x08c379a000000000000000000000000000000000000000000000000000000000\n      dup2\n      mstore\n      0x04\n      add\n      tag_146\n      swap1\n      tag_147\n      jump\t// in\n    tag_146:\n      mload(0x40)\n      dup1\n      swap2\n      sub\n      swap1\n      revert\n    tag_145:\n        /* \"Chain Paper/liberty/ERC721.sol\":5467:5488  string memory baseURI */\n      0x00\n        /* \"Chain Paper/liberty/ERC721.sol\":5491:5501  _baseURI() */\n      tag_148\n        /* \"Chain Paper/liberty/ERC721.sol\":5491:5499  _baseURI */\n      tag_149\n        /* \"Chain Paper/liberty/ERC721.sol\":5491:5501  _baseURI() */\n      jump\t// in\n    tag_148:\n        /* \"Chain Paper/liberty/ERC721.sol\":5467:5501  string memory baseURI = _baseURI() */\n      swap1\n      pop\n        /* \"Chain Paper/liberty/ERC721.sol\":5542:5543  0 */\n      0x00\n        /* \"Chain Paper/liberty/ERC721.sol\":5525:5532  baseURI */\n      dup2\n        /* \"Chain Paper/liberty/ERC721.sol\":5519:5540  bytes(baseURI).length */\n      mload\n        /* \"Chain Paper/liberty/ERC721.sol\":5519:5543  bytes(baseURI).length >0 */\n      gt\n        /* \"Chain Paper/liberty/ERC721.sol\":5519:5602  bytes(baseURI).length >0 ? string(abi.encodePacked(baseURI,tokenId.toString())) :\"\" */\n      tag_150\n      jumpi\n      mload(0x40)\n      dup1\n      0x20\n      add\n      0x40\n      mstore\n      dup1\n      0x00\n      dup2\n      mstore\n      pop\n      jump(tag_151)\n    tag_150:\n        /* \"Chain Paper/liberty/ERC721.sol\":5570:5577  baseURI */\n      dup1\n        /* \"Chain Paper/liberty/ERC721.sol\":5578:5596  tokenId.toString() */\n      tag_152\n        /* \"Chain Paper/liberty/ERC721.sol\":5578:5585  tokenId */\n      dup5\n        /* \"Chain Paper/liberty/ERC721.sol\":5578:5594  tokenId.toString */\n      tag_153\n        /* \"Chain Paper/liberty/ERC721.sol\":5578:5596  tokenId.toString() */\n      jump\t// in\n    tag_152:\n        /* \"Chain Paper/liberty/ERC721.sol\":5553:5597  abi.encodePacked(baseURI,tokenId.toString()) */\n      add(0x20, mload(0x40))\n      tag_154\n      swap3\n      swap2\n      swap1\n      tag_155\n      jump\t// in\n    tag_154:\n      mload(0x40)\n      0x20\n      dup2\n      dup4\n      sub\n      sub\n      dup2\n      mstore\n      swap1\n      0x40\n      mstore\n        /* \"Chain Paper/liberty/ERC721.sol\":5519:5602  bytes(baseURI).length >0 ? string(abi.encodePacked(baseURI,tokenId.toString())) :\"\" */\n    tag_151:\n        /* \"Chain Paper/liberty/ERC721.sol\":5512:5602  return bytes(baseURI).length >0 ? string(abi.encodePacked(baseURI,tokenId.toString())) :\"\" */\n      swap2\n      pop\n      pop\n        /* \"Chain Paper/liberty/ERC721.sol\":5303:5612  function tokenURI(uint tokenId) public override virtual view returns(string memory){\r... */\n      swap2\n      swap1\n      pop\n      jump\t// out\n        /* \"Chain Paper/liberty/ERC721.sol\":1469:1623  function isApprovedForAll(address owner,address operator)external view override returns(bool){\r... */\n    tag_82:\n        /* \"Chain Paper/liberty/ERC721.sol\":1557:1561  bool */\n      0x00\n        /* \"Chain Paper/liberty/ERC721.sol\":1580:1598  _operatorApprovals */\n      0x05\n        /* \"Chain Paper/liberty/ERC721.sol\":1580:1605  _operatorApprovals[owner] */\n      0x00\n        /* \"Chain Paper/liberty/ERC721.sol\":1599:1604  owner */\n      dup5\n        /* \"Chain Paper/liberty/ERC721.sol\":1580:1605  _operatorApprovals[owner] */\n      0xffffffffffffffffffffffffffffffffffffffff\n      and\n      0xffffffffffffffffffffffffffffffffffffffff\n      and\n      dup2\n      mstore\n      0x20\n      add\n      swap1\n      dup2\n      mstore\n      0x20\n      add\n      0x00\n      keccak256\n        /* \"Chain Paper/liberty/ERC721.sol\":1580:1615  _operatorApprovals[owner][operator] */\n      0x00\n        /* \"Chain Paper/liberty/ERC721.sol\":1606:1614  operator */\n      dup4\n        /* \"Chain Paper/liberty/ERC721.sol\":1580:1615  _operatorApprovals[owner][operator] */\n      0xffffffffffffffffffffffffffffffffffffffff\n      and\n      0xffffffffffffffffffffffffffffffffffffffff\n      and\n      dup2\n      mstore\n      0x20\n      add\n      swap1\n      dup2\n      mstore\n      0x20\n      add\n      0x00\n      keccak256\n      0x00\n      swap1\n      sload\n      swap1\n      0x0100\n      exp\n      swap1\n      div\n      0xff\n      and\n        /* \"Chain Paper/liberty/ERC721.sol\":1573:1615  return _operatorApprovals[owner][operator] */\n      swap1\n      pop\n        /* \"Chain Paper/liberty/ERC721.sol\":1469:1623  function isApprovedForAll(address owner,address operator)external view override returns(bool){\r... */\n      swap3\n      swap2\n      pop\n      pop\n      jump\t// out\n        /* \"Chain Paper/liberty/ERC721.sol\":2047:2202  function _approve(address owner,address to , uint tokenId) private{\r... */\n    tag_103:\n        /* \"Chain Paper/liberty/ERC721.sol\":2151:2153  to */\n      dup2\n        /* \"Chain Paper/liberty/ERC721.sol\":2124:2139  _tokenApprovals */\n      0x04\n        /* \"Chain Paper/liberty/ERC721.sol\":2124:2148  _tokenApprovals[tokenId] */\n      0x00\n        /* \"Chain Paper/liberty/ERC721.sol\":2140:2147  tokenId */\n      dup4\n        /* \"Chain Paper/liberty/ERC721.sol\":2124:2148  _tokenApprovals[tokenId] */\n      dup2\n      mstore\n      0x20\n      add\n      swap1\n      dup2\n      mstore\n      0x20\n      add\n      0x00\n      keccak256\n      0x00\n        /* \"Chain Paper/liberty/ERC721.sol\":2124:2153  _tokenApprovals[tokenId] = to */\n      0x0100\n      exp\n      dup2\n      sload\n      dup2\n      0xffffffffffffffffffffffffffffffffffffffff\n      mul\n      not\n      and\n      swap1\n      dup4\n      0xffffffffffffffffffffffffffffffffffffffff\n      and\n      mul\n      or\n      swap1\n      sstore\n      pop\n        /* \"Chain Paper/liberty/ERC721.sol\":2169:2194  Approve(owner,to,tokenId) */\n      0x6e11fb1b7f119e3f2fa29896ef5fdf8b8a2d0d4df6fe90ba8668e7d8b2ffa25e\n        /* \"Chain Paper/liberty/ERC721.sol\":2177:2182  owner */\n      dup4\n        /* \"Chain Paper/liberty/ERC721.sol\":2183:2185  to */\n      dup4\n        /* \"Chain Paper/liberty/ERC721.sol\":2186:2193  tokenId */\n      dup4\n        /* \"Chain Paper/liberty/ERC721.sol\":2169:2194  Approve(owner,to,tokenId) */\n      mload(0x40)\n      tag_158\n      swap4\n      swap3\n      swap2\n      swap1\n      tag_159\n      jump\t// in\n    tag_158:\n      mload(0x40)\n      dup1\n      swap2\n      sub\n      swap1\n      log1\n        /* \"Chain Paper/liberty/ERC721.sol\":2047:2202  function _approve(address owner,address to , uint tokenId) private{\r... */\n      pop\n      pop\n      pop\n      jump\t// out\n        /* \"Chain Paper/liberty/ERC721.sol\":2482:2735  function _isApprovedOrOwner(address owner , address spender,uint tokenId)private view returns(bool){\r... */\n    tag_107:\n        /* \"Chain Paper/liberty/ERC721.sol\":2576:2580  bool */\n      0x00\n        /* \"Chain Paper/liberty/ERC721.sol\":2611:2616  owner */\n      dup4\n        /* \"Chain Paper/liberty/ERC721.sol\":2600:2616  spender == owner */\n      0xffffffffffffffffffffffffffffffffffffffff\n      and\n        /* \"Chain Paper/liberty/ERC721.sol\":2600:2607  spender */\n      dup4\n        /* \"Chain Paper/liberty/ERC721.sol\":2600:2616  spender == owner */\n      0xffffffffffffffffffffffffffffffffffffffff\n      and\n      eq\n        /* \"Chain Paper/liberty/ERC721.sol\":2600:2672  spender == owner ||\r... */\n      dup1\n      tag_161\n      jumpi\n      pop\n        /* \"Chain Paper/liberty/ERC721.sol\":2665:2672  spender */\n      dup3\n        /* \"Chain Paper/liberty/ERC721.sol\":2637:2672  _tokenApprovals[tokenId] == spender */\n      0xffffffffffffffffffffffffffffffffffffffff\n      and\n        /* \"Chain Paper/liberty/ERC721.sol\":2637:2652  _tokenApprovals */\n      0x04\n        /* \"Chain Paper/liberty/ERC721.sol\":2637:2661  _tokenApprovals[tokenId] */\n      0x00\n        /* \"Chain Paper/liberty/ERC721.sol\":2653:2660  tokenId */\n      dup5\n        /* \"Chain Paper/liberty/ERC721.sol\":2637:2661  _tokenApprovals[tokenId] */\n      dup2\n      mstore\n      0x20\n      add\n      swap1\n      dup2\n      mstore\n      0x20\n      add\n      0x00\n      keccak256\n      0x00\n      swap1\n      sload\n      swap1\n      0x0100\n      exp\n      swap1\n      div\n      0xffffffffffffffffffffffffffffffffffffffff\n      and\n        /* \"Chain Paper/liberty/ERC721.sol\":2637:2672  _tokenApprovals[tokenId] == spender */\n      0xffffffffffffffffffffffffffffffffffffffff\n      and\n      eq\n        /* \"Chain Paper/liberty/ERC721.sol\":2600:2672  spender == owner ||\r... */\n    tag_161:\n        /* \"Chain Paper/liberty/ERC721.sol\":2600:2727  spender == owner ||\r... */\n      dup1\n      tag_162\n      jumpi\n      pop\n        /* \"Chain Paper/liberty/ERC721.sol\":2693:2711  _operatorApprovals */\n      0x05\n        /* \"Chain Paper/liberty/ERC721.sol\":2693:2718  _operatorApprovals[owner] */\n      0x00\n        /* \"Chain Paper/liberty/ERC721.sol\":2712:2717  owner */\n      dup6\n        /* \"Chain Paper/liberty/ERC721.sol\":2693:2718  _operatorApprovals[owner] */\n      0xffffffffffffffffffffffffffffffffffffffff\n      and\n      0xffffffffffffffffffffffffffffffffffffffff\n      and\n      dup2\n      mstore\n      0x20\n      add\n      swap1\n      dup2\n      mstore\n      0x20\n      add\n      0x00\n      keccak256\n        /* \"Chain Paper/liberty/ERC721.sol\":2693:2727  _operatorApprovals[owner][spender] */\n      0x00\n        /* \"Chain Paper/liberty/ERC721.sol\":2719:2726  spender */\n      dup5\n        /* \"Chain Paper/liberty/ERC721.sol\":2693:2727  _operatorApprovals[owner][spender] */\n      0xffffffffffffffffffffffffffffffffffffffff\n      and\n      0xffffffffffffffffffffffffffffffffffffffff\n      and\n      dup2\n      mstore\n      0x20\n      add\n      swap1\n      dup2\n      mstore\n      0x20\n      add\n      0x00\n      keccak256\n      0x00\n      swap1\n      sload\n      swap1\n      0x0100\n      exp\n      swap1\n      div\n      0xff\n      and\n        /* \"Chain Paper/liberty/ERC721.sol\":2600:2727  spender == owner ||\r... */\n    tag_162:\n        /* \"Chain Paper/liberty/ERC721.sol\":2592:2727  return  spender == owner ||\r... */\n      swap1\n      pop\n        /* \"Chain Paper/liberty/ERC721.sol\":2482:2735  function _isApprovedOrOwner(address owner , address spender,uint tokenId)private view returns(bool){\r... */\n      swap4\n      swap3\n      pop\n      pop\n      pop\n      jump\t// out\n        /* \"Chain Paper/liberty/ERC721.sol\":2743:3135  function _transfer(address owner,address from , address to , uint tokenId)private {\r... */\n    tag_110:\n        /* \"Chain Paper/liberty/ERC721.sol\":2852:2857  owner */\n      dup4\n        /* \"Chain Paper/liberty/ERC721.sol\":2844:2857  from == owner */\n      0xffffffffffffffffffffffffffffffffffffffff\n      and\n        /* \"Chain Paper/liberty/ERC721.sol\":2844:2848  from */\n      dup4\n        /* \"Chain Paper/liberty/ERC721.sol\":2844:2857  from == owner */\n      0xffffffffffffffffffffffffffffffffffffffff\n      and\n      eq\n        /* \"Chain Paper/liberty/ERC721.sol\":2836:2870  require(from == owner,\"not owner\") */\n      tag_164\n      jumpi\n      mload(0x40)\n      0x08c379a000000000000000000000000000000000000000000000000000000000\n      dup2\n      mstore\n      0x04\n      add\n      tag_165\n      swap1\n      tag_166\n      jump\t// in\n    tag_165:\n      mload(0x40)\n      dup1\n      swap2\n      sub\n      swap1\n      revert\n    tag_164:\n        /* \"Chain Paper/liberty/ERC721.sol\":2903:2904  0 */\n      0x00\n        /* \"Chain Paper/liberty/ERC721.sol\":2889:2905  to != address(0) */\n      0xffffffffffffffffffffffffffffffffffffffff\n      and\n        /* \"Chain Paper/liberty/ERC721.sol\":2889:2891  to */\n      dup3\n        /* \"Chain Paper/liberty/ERC721.sol\":2889:2905  to != address(0) */\n      0xffffffffffffffffffffffffffffffffffffffff\n      and\n      eq\n      iszero\n        /* \"Chain Paper/liberty/ERC721.sol\":2881:2924  require(to != address(0),\"to is 0 address\") */\n      tag_167\n      jumpi\n      mload(0x40)\n      0x08c379a000000000000000000000000000000000000000000000000000000000\n      dup2\n      mstore\n      0x04\n      add\n      tag_168\n      swap1\n      tag_169\n      jump\t// in\n    tag_168:\n      mload(0x40)\n      dup1\n      swap2\n      sub\n      swap1\n      revert\n    tag_167:\n        /* \"Chain Paper/liberty/ERC721.sol\":2937:2973  _approve(owner, address(0), tokenId) */\n      tag_170\n        /* \"Chain Paper/liberty/ERC721.sol\":2946:2951  owner */\n      dup5\n        /* \"Chain Paper/liberty/ERC721.sol\":2961:2962  0 */\n      0x00\n        /* \"Chain Paper/liberty/ERC721.sol\":2965:2972  tokenId */\n      dup4\n        /* \"Chain Paper/liberty/ERC721.sol\":2937:2945  _approve */\n      tag_103\n        /* \"Chain Paper/liberty/ERC721.sol\":2937:2973  _approve(owner, address(0), tokenId) */\n      jump\t// in\n    tag_170:\n        /* \"Chain Paper/liberty/ERC721.sol\":3020:3021  1 */\n      0x01\n        /* \"Chain Paper/liberty/ERC721.sol\":3002:3011  _balances */\n      0x03\n        /* \"Chain Paper/liberty/ERC721.sol\":3002:3017  _balances[from] */\n      0x00\n        /* \"Chain Paper/liberty/ERC721.sol\":3012:3016  from */\n      dup6\n        /* \"Chain Paper/liberty/ERC721.sol\":3002:3017  _balances[from] */\n      0xffffffffffffffffffffffffffffffffffffffff\n      and\n      0xffffffffffffffffffffffffffffffffffffffff\n      and\n      dup2\n      mstore\n      0x20\n      add\n      swap1\n      dup2\n      mstore\n      0x20\n      add\n      0x00\n      keccak256\n      0x00\n        /* \"Chain Paper/liberty/ERC721.sol\":3002:3021  _balances[from] -=1 */\n      dup3\n      dup3\n      sload\n      tag_171\n      swap2\n      swap1\n      tag_172\n      jump\t// in\n    tag_171:\n      swap3\n      pop\n      pop\n      dup2\n      swap1\n      sstore\n      pop\n        /* \"Chain Paper/liberty/ERC721.sol\":3048:3049  1 */\n      0x01\n        /* \"Chain Paper/liberty/ERC721.sol\":3032:3041  _balances */\n      0x03\n        /* \"Chain Paper/liberty/ERC721.sol\":3032:3045  _balances[to] */\n      0x00\n        /* \"Chain Paper/liberty/ERC721.sol\":3042:3044  to */\n      dup5\n        /* \"Chain Paper/liberty/ERC721.sol\":3032:3045  _balances[to] */\n      0xffffffffffffffffffffffffffffffffffffffff\n      and\n      0xffffffffffffffffffffffffffffffffffffffff\n      and\n      dup2\n      mstore\n      0x20\n      add\n      swap1\n      dup2\n      mstore\n      0x20\n      add\n      0x00\n      keccak256\n      0x00\n        /* \"Chain Paper/liberty/ERC721.sol\":3032:3049  _balances[to] +=1 */\n      dup3\n      dup3\n      sload\n      tag_173\n      swap2\n      swap1\n      tag_174\n      jump\t// in\n    tag_173:\n      swap3\n      pop\n      pop\n      dup2\n      swap1\n      sstore\n      pop\n        /* \"Chain Paper/liberty/ERC721.sol\":3079:3081  to */\n      dup2\n        /* \"Chain Paper/liberty/ERC721.sol\":3060:3067  _owners */\n      0x02\n        /* \"Chain Paper/liberty/ERC721.sol\":3060:3076  _owners[tokenId] */\n      0x00\n        /* \"Chain Paper/liberty/ERC721.sol\":3068:3075  tokenId */\n      dup4\n        /* \"Chain Paper/liberty/ERC721.sol\":3060:3076  _owners[tokenId] */\n      dup2\n      mstore\n      0x20\n      add\n      swap1\n      dup2\n      mstore\n      0x20\n      add\n      0x00\n      keccak256\n      0x00\n        /* \"Chain Paper/liberty/ERC721.sol\":3060:3081  _owners[tokenId] = to */\n      0x0100\n      exp\n      dup2\n      sload\n      dup2\n      0xffffffffffffffffffffffffffffffffffffffff\n      mul\n      not\n      and\n      swap1\n      dup4\n      0xffffffffffffffffffffffffffffffffffffffff\n      and\n      mul\n      or\n      swap1\n      sstore\n      pop\n        /* \"Chain Paper/liberty/ERC721.sol\":3099:3127  Transfer(from , to ,tokenId) */\n      0xddf252ad1be2c89b69c2b068fc378daa952ba7f163c4a11628f55a4df523b3ef\n        /* \"Chain Paper/liberty/ERC721.sol\":3108:3112  from */\n      dup4\n        /* \"Chain Paper/liberty/ERC721.sol\":3115:3117  to */\n      dup4\n        /* \"Chain Paper/liberty/ERC721.sol\":3119:3126  tokenId */\n      dup4\n        /* \"Chain Paper/liberty/ERC721.sol\":3099:3127  Transfer(from , to ,tokenId) */\n      mload(0x40)\n      tag_175\n      swap4\n      swap3\n      swap2\n      swap1\n      tag_159\n      jump\t// in\n    tag_175:\n      mload(0x40)\n      dup1\n      swap2\n      sub\n      swap1\n      log1\n        /* \"Chain Paper/liberty/ERC721.sol\":2743:3135  function _transfer(address owner,address from , address to , uint tokenId)private {\r... */\n      pop\n      pop\n      pop\n      pop\n      jump\t// out\n        /* \"Chain Paper/liberty/ERC721.sol\":4148:4457  function _mint(address to ,uint tokenId)internal virtual {\r... */\n    tag_117:\n        /* \"Chain Paper/liberty/ERC721.sol\":4238:4239  0 */\n      0x00\n        /* \"Chain Paper/liberty/ERC721.sol\":4224:4240  to != address(0) */\n      0xffffffffffffffffffffffffffffffffffffffff\n      and\n        /* \"Chain Paper/liberty/ERC721.sol\":4224:4226  to */\n      dup3\n        /* \"Chain Paper/liberty/ERC721.sol\":4224:4240  to != address(0) */\n      0xffffffffffffffffffffffffffffffffffffffff\n      and\n      eq\n      iszero\n        /* \"Chain Paper/liberty/ERC721.sol\":4216:4259  require(to != address(0),\"to is 0 address\") */\n      tag_177\n      jumpi\n      mload(0x40)\n      0x08c379a000000000000000000000000000000000000000000000000000000000\n      dup2\n      mstore\n      0x04\n      add\n      tag_178\n      swap1\n      tag_169\n      jump\t// in\n    tag_178:\n      mload(0x40)\n      dup1\n      swap2\n      sub\n      swap1\n      revert\n    tag_177:\n        /* \"Chain Paper/liberty/ERC721.sol\":4306:4307  0 */\n      0x00\n        /* \"Chain Paper/liberty/ERC721.sol\":4278:4308  _owners[tokenId] == address(0) */\n      0xffffffffffffffffffffffffffffffffffffffff\n      and\n        /* \"Chain Paper/liberty/ERC721.sol\":4278:4285  _owners */\n      0x02\n        /* \"Chain Paper/liberty/ERC721.sol\":4278:4294  _owners[tokenId] */\n      0x00\n        /* \"Chain Paper/liberty/ERC721.sol\":4286:4293  tokenId */\n      dup4\n        /* \"Chain Paper/liberty/ERC721.sol\":4278:4294  _owners[tokenId] */\n      dup2\n      mstore\n      0x20\n      add\n      swap1\n      dup2\n      mstore\n      0x20\n      add\n      0x00\n      keccak256\n      0x00\n      swap1\n      sload\n      swap1\n      0x0100\n      exp\n      swap1\n      div\n      0xffffffffffffffffffffffffffffffffffffffff\n      and\n        /* \"Chain Paper/liberty/ERC721.sol\":4278:4308  _owners[tokenId] == address(0) */\n      0xffffffffffffffffffffffffffffffffffffffff\n      and\n      eq\n        /* \"Chain Paper/liberty/ERC721.sol\":4270:4332  require(_owners[tokenId] == address(0),\"token already minted\") */\n      tag_179\n      jumpi\n      mload(0x40)\n      0x08c379a000000000000000000000000000000000000000000000000000000000\n      dup2\n      mstore\n      0x04\n      add\n      tag_180\n      swap1\n      tag_181\n      jump\t// in\n    tag_180:\n      mload(0x40)\n      dup1\n      swap2\n      sub\n      swap1\n      revert\n    tag_179:\n        /* \"Chain Paper/liberty/ERC721.sol\":4359:4360  1 */\n      0x01\n        /* \"Chain Paper/liberty/ERC721.sol\":4343:4352  _balances */\n      0x03\n        /* \"Chain Paper/liberty/ERC721.sol\":4343:4356  _balances[to] */\n      0x00\n        /* \"Chain Paper/liberty/ERC721.sol\":4353:4355  to */\n      dup5\n        /* \"Chain Paper/liberty/ERC721.sol\":4343:4356  _balances[to] */\n      0xffffffffffffffffffffffffffffffffffffffff\n      and\n      0xffffffffffffffffffffffffffffffffffffffff\n      and\n      dup2\n      mstore\n      0x20\n      add\n      swap1\n      dup2\n      mstore\n      0x20\n      add\n      0x00\n      keccak256\n      0x00\n        /* \"Chain Paper/liberty/ERC721.sol\":4343:4360  _balances[to] +=1 */\n      dup3\n      dup3\n      sload\n      tag_182\n      swap2\n      swap1\n      tag_174\n      jump\t// in\n    tag_182:\n      swap3\n      pop\n      pop\n      dup2\n      swap1\n      sstore\n      pop\n        /* \"Chain Paper/liberty/ERC721.sol\":4390:4392  to */\n      dup2\n        /* \"Chain Paper/liberty/ERC721.sol\":4371:4378  _owners */\n      0x02\n        /* \"Chain Paper/liberty/ERC721.sol\":4371:4387  _owners[tokenId] */\n      0x00\n        /* \"Chain Paper/liberty/ERC721.sol\":4379:4386  tokenId */\n      dup4\n        /* \"Chain Paper/liberty/ERC721.sol\":4371:4387  _owners[tokenId] */\n      dup2\n      mstore\n      0x20\n      add\n      swap1\n      dup2\n      mstore\n      0x20\n      add\n      0x00\n      keccak256\n      0x00\n        /* \"Chain Paper/liberty/ERC721.sol\":4371:4392  _owners[tokenId] = to */\n      0x0100\n      exp\n      dup2\n      sload\n      dup2\n      0xffffffffffffffffffffffffffffffffffffffff\n      mul\n      not\n      and\n      swap1\n      dup4\n      0xffffffffffffffffffffffffffffffffffffffff\n      and\n      mul\n      or\n      swap1\n      sstore\n      pop\n        /* \"Chain Paper/liberty/ERC721.sol\":4418:4449  Transfer(address(0),to,tokenId) */\n      0xddf252ad1be2c89b69c2b068fc378daa952ba7f163c4a11628f55a4df523b3ef\n        /* \"Chain Paper/liberty/ERC721.sol\":4435:4436  0 */\n      0x00\n        /* \"Chain Paper/liberty/ERC721.sol\":4438:4440  to */\n      dup4\n        /* \"Chain Paper/liberty/ERC721.sol\":4441:4448  tokenId */\n      dup4\n        /* \"Chain Paper/liberty/ERC721.sol\":4418:4449  Transfer(address(0),to,tokenId) */\n      mload(0x40)\n      tag_183\n      swap4\n      swap3\n      swap2\n      swap1\n      tag_159\n      jump\t// in\n    tag_183:\n      mload(0x40)\n      dup1\n      swap2\n      sub\n      swap1\n      log1\n        /* \"Chain Paper/liberty/ERC721.sol\":4148:4457  function _mint(address to ,uint tokenId)internal virtual {\r... */\n      pop\n      pop\n      jump\t// out\n        /* \"Chain Paper/liberty/ERC721.sol\":3398:3643  function _safeTransfer(address owner,address from, address to ,uint tokenId , bytes memory _data) private{\r... */\n    tag_121:\n        /* \"Chain Paper/liberty/ERC721.sol\":3514:3549  _transfer(owner,from , to ,tokenId) */\n      tag_185\n        /* \"Chain Paper/liberty/ERC721.sol\":3524:3529  owner */\n      dup6\n        /* \"Chain Paper/liberty/ERC721.sol\":3530:3534  from */\n      dup6\n        /* \"Chain Paper/liberty/ERC721.sol\":3537:3539  to */\n      dup6\n        /* \"Chain Paper/liberty/ERC721.sol\":3541:3548  tokenId */\n      dup6\n        /* \"Chain Paper/liberty/ERC721.sol\":3514:3523  _transfer */\n      tag_110\n        /* \"Chain Paper/liberty/ERC721.sol\":3514:3549  _transfer(owner,from , to ,tokenId) */\n      jump\t// in\n    tag_185:\n        /* \"Chain Paper/liberty/ERC721.sol\":3568:3613  _checkOnERC721Received(from,to,tokenId,_data) */\n      tag_186\n        /* \"Chain Paper/liberty/ERC721.sol\":3591:3595  from */\n      dup5\n        /* \"Chain Paper/liberty/ERC721.sol\":3596:3598  to */\n      dup5\n        /* \"Chain Paper/liberty/ERC721.sol\":3599:3606  tokenId */\n      dup5\n        /* \"Chain Paper/liberty/ERC721.sol\":3607:3612  _data */\n      dup5\n        /* \"Chain Paper/liberty/ERC721.sol\":3568:3590  _checkOnERC721Received */\n      tag_187\n        /* \"Chain Paper/liberty/ERC721.sol\":3568:3613  _checkOnERC721Received(from,to,tokenId,_data) */\n      jump\t// in\n    tag_186:\n        /* \"Chain Paper/liberty/ERC721.sol\":3560:3635  require(_checkOnERC721Received(from,to,tokenId,_data),\"not ERC721Receiver\") */\n      tag_188\n      jumpi\n      mload(0x40)\n      0x08c379a000000000000000000000000000000000000000000000000000000000\n      dup2\n      mstore\n      0x04\n      add\n      tag_189\n      swap1\n      tag_190\n      jump\t// in\n    tag_189:\n      mload(0x40)\n      dup1\n      swap2\n      sub\n      swap1\n      revert\n    tag_188:\n        /* \"Chain Paper/liberty/ERC721.sol\":3398:3643  function _safeTransfer(address owner,address from, address to ,uint tokenId , bytes memory _data) private{\r... */\n      pop\n      pop\n      pop\n      pop\n      pop\n      jump\t// out\n        /* \"Chain Paper/CP.sol\":263:411  function _baseURI() internal  pure override returns(string memory){\r... */\n    tag_149:\n        /* \"Chain Paper/CP.sol\":315:328  string memory */\n      0x60\n        /* \"Chain Paper/CP.sol\":340:403  return \"ipfs://QmcVgEu5CLpGJeZZEvSF3Lj3RUmkwWKUbRLqiTrQcVVU9w/\" */\n      mload(0x40)\n      dup1\n      0x60\n      add\n      0x40\n      mstore\n      dup1\n      0x36\n      dup2\n      mstore\n      0x20\n      add\n      data_dafc31c82e8c1246735c704fbbbc212321f9d708db16d4c6b2535806b69475d9\n      0x36\n      swap2\n      codecopy\n      swap1\n      pop\n        /* \"Chain Paper/CP.sol\":263:411  function _baseURI() internal  pure override returns(string memory){\r... */\n      swap1\n      jump\t// out\n        /* \"Chain Paper/other/Strings.sol\":407:1130  function toString(uint256 value) internal pure returns (string memory) {\r... */\n    tag_153:\n        /* \"Chain Paper/other/Strings.sol\":463:476  string memory */\n      0x60\n        /* \"Chain Paper/other/Strings.sol\":693:694  0 */\n      0x00\n        /* \"Chain Paper/other/Strings.sol\":684:689  value */\n      dup3\n        /* \"Chain Paper/other/Strings.sol\":684:694  value == 0 */\n      eq\n        /* \"Chain Paper/other/Strings.sol\":680:733  if (value == 0) {\r... */\n      iszero\n      tag_193\n      jumpi\n        /* \"Chain Paper/other/Strings.sol\":711:721  return \"0\" */\n      mload(0x40)\n      dup1\n      0x40\n      add\n      0x40\n      mstore\n      dup1\n      0x01\n      dup2\n      mstore\n      0x20\n      add\n      0x3000000000000000000000000000000000000000000000000000000000000000\n      dup2\n      mstore\n      pop\n      swap1\n      pop\n      jump(tag_192)\n        /* \"Chain Paper/other/Strings.sol\":680:733  if (value == 0) {\r... */\n    tag_193:\n        /* \"Chain Paper/other/Strings.sol\":743:755  uint256 temp */\n      0x00\n        /* \"Chain Paper/other/Strings.sol\":758:763  value */\n      dup3\n        /* \"Chain Paper/other/Strings.sol\":743:763  uint256 temp = value */\n      swap1\n      pop\n        /* \"Chain Paper/other/Strings.sol\":774:788  uint256 digits */\n      0x00\n        /* \"Chain Paper/other/Strings.sol\":799:877  while (temp != 0) {\r... */\n    tag_194:\n        /* \"Chain Paper/other/Strings.sol\":814:815  0 */\n      0x00\n        /* \"Chain Paper/other/Strings.sol\":806:810  temp */\n      dup3\n        /* \"Chain Paper/other/Strings.sol\":806:815  temp != 0 */\n      eq\n        /* \"Chain Paper/other/Strings.sol\":799:877  while (temp != 0) {\r... */\n      tag_195\n      jumpi\n        /* \"Chain Paper/other/Strings.sol\":832:840  digits++ */\n      dup1\n      dup1\n      tag_196\n      swap1\n      tag_197\n      jump\t// in\n    tag_196:\n      swap2\n      pop\n      pop\n        /* \"Chain Paper/other/Strings.sol\":863:865  10 */\n      0x0a\n        /* \"Chain Paper/other/Strings.sol\":855:865  temp /= 10 */\n      dup3\n      tag_198\n      swap2\n      swap1\n      tag_199\n      jump\t// in\n    tag_198:\n      swap2\n      pop\n        /* \"Chain Paper/other/Strings.sol\":799:877  while (temp != 0) {\r... */\n      jump(tag_194)\n    tag_195:\n        /* \"Chain Paper/other/Strings.sol\":887:906  bytes memory buffer */\n      0x00\n        /* \"Chain Paper/other/Strings.sol\":919:925  digits */\n      dup2\n        /* \"Chain Paper/other/Strings.sol\":909:926  new bytes(digits) */\n      0xffffffffffffffff\n      dup2\n      gt\n      iszero\n      tag_200\n      jumpi\n      mstore(0x00, 0x4e487b7100000000000000000000000000000000000000000000000000000000)\n      mstore(0x04, 0x41)\n      revert(0x00, 0x24)\n    tag_200:\n      mload(0x40)\n      swap1\n      dup1\n      dup3\n      mstore\n      dup1\n      0x1f\n      add\n      not(0x1f)\n      and\n      0x20\n      add\n      dup3\n      add\n      0x40\n      mstore\n      dup1\n      iszero\n      tag_201\n      jumpi\n      dup2\n      0x20\n      add\n      0x01\n      dup3\n      mul\n      dup1\n      calldatasize\n      dup4\n      calldatacopy\n      dup1\n      dup3\n      add\n      swap2\n      pop\n      pop\n      swap1\n      pop\n    tag_201:\n      pop\n        /* \"Chain Paper/other/Strings.sol\":887:926  bytes memory buffer = new bytes(digits) */\n      swap1\n      pop\n        /* \"Chain Paper/other/Strings.sol\":937:1091  while (value != 0) {\r... */\n    tag_202:\n        /* \"Chain Paper/other/Strings.sol\":953:954  0 */\n      0x00\n        /* \"Chain Paper/other/Strings.sol\":944:949  value */\n      dup6\n        /* \"Chain Paper/other/Strings.sol\":944:954  value != 0 */\n      eq\n        /* \"Chain Paper/other/Strings.sol\":937:1091  while (value != 0) {\r... */\n      tag_203\n      jumpi\n        /* \"Chain Paper/other/Strings.sol\":981:982  1 */\n      0x01\n        /* \"Chain Paper/other/Strings.sol\":971:982  digits -= 1 */\n      dup3\n      tag_204\n      swap2\n      swap1\n      tag_172\n      jump\t// in\n    tag_204:\n      swap2\n      pop\n        /* \"Chain Paper/other/Strings.sol\":1048:1050  10 */\n      0x0a\n        /* \"Chain Paper/other/Strings.sol\":1040:1045  value */\n      dup6\n        /* \"Chain Paper/other/Strings.sol\":1040:1050  value % 10 */\n      tag_205\n      swap2\n      swap1\n      tag_206\n      jump\t// in\n    tag_205:\n        /* \"Chain Paper/other/Strings.sol\":1027:1029  48 */\n      0x30\n        /* \"Chain Paper/other/Strings.sol\":1027:1051  48 + uint256(value % 10) */\n      tag_207\n      swap2\n      swap1\n      tag_174\n      jump\t// in\n    tag_207:\n        /* \"Chain Paper/other/Strings.sol\":1014:1053  bytes1(uint8(48 + uint256(value % 10))) */\n      0xf8\n      shl\n        /* \"Chain Paper/other/Strings.sol\":997:1003  buffer */\n      dup2\n        /* \"Chain Paper/other/Strings.sol\":1004:1010  digits */\n      dup4\n        /* \"Chain Paper/other/Strings.sol\":997:1011  buffer[digits] */\n      dup2\n      mload\n      dup2\n      lt\n      tag_208\n      jumpi\n      mstore(0x00, 0x4e487b7100000000000000000000000000000000000000000000000000000000)\n      mstore(0x04, 0x32)\n      revert(0x00, 0x24)\n    tag_208:\n      0x20\n      add\n      add\n        /* \"Chain Paper/other/Strings.sol\":997:1053  buffer[digits] = bytes1(uint8(48 + uint256(value % 10))) */\n      swap1\n      not(0xffffffffffffffffffffffffffffffffffffffffffffffffffffffffffffff)\n      and\n      swap1\n      dup2\n      0x00\n      byte\n      swap1\n      mstore8\n      pop\n        /* \"Chain Paper/other/Strings.sol\":1077:1079  10 */\n      0x0a\n        /* \"Chain Paper/other/Strings.sol\":1068:1079  value /= 10 */\n      dup6\n      tag_209\n      swap2\n      swap1\n      tag_199\n      jump\t// in\n    tag_209:\n      swap5\n      pop\n        /* \"Chain Paper/other/Strings.sol\":937:1091  while (value != 0) {\r... */\n      jump(tag_202)\n    tag_203:\n        /* \"Chain Paper/other/Strings.sol\":1115:1121  buffer */\n      dup1\n        /* \"Chain Paper/other/Strings.sol\":1101:1122  return string(buffer) */\n      swap4\n      pop\n      pop\n      pop\n      pop\n        /* \"Chain Paper/other/Strings.sol\":407:1130  function toString(uint256 value) internal pure returns (string memory) {\r... */\n    tag_192:\n      swap2\n      swap1\n      pop\n      jump\t// out\n        /* \"Chain Paper/liberty/ERC721.sol\":4785:5295  function _checkOnERC721Received(\r... */\n    tag_187:\n        /* \"Chain Paper/liberty/ERC721.sol\":4937:4941  bool */\n      0x00\n        /* \"Chain Paper/liberty/ERC721.sol\":4958:4973  to.isContract() */\n      tag_211\n        /* \"Chain Paper/liberty/ERC721.sol\":4958:4960  to */\n      dup5\n        /* \"Chain Paper/liberty/ERC721.sol\":4958:4971  to.isContract */\n      0xffffffffffffffffffffffffffffffffffffffff\n      and\n      tag_212\n        /* \"Chain Paper/liberty/ERC721.sol\":4958:4973  to.isContract() */\n      jump\t// in\n    tag_211:\n        /* \"Chain Paper/liberty/ERC721.sol\":4954:5288  if (to.isContract()) {\r... */\n      iszero\n      tag_213\n      jumpi\n        /* \"Chain Paper/liberty/ERC721.sol\":5191:5232  IERC721Receiver.onERC721Received.selector */\n      shl(0xe0, 0x150b7a02)\n        /* \"Chain Paper/liberty/ERC721.sol\":5014:5232  IERC721Receiver(to).onERC721Received(\r... */\n      not(0xffffffffffffffffffffffffffffffffffffffffffffffffffffffff)\n      and\n        /* \"Chain Paper/liberty/ERC721.sol\":5030:5032  to */\n      dup5\n        /* \"Chain Paper/liberty/ERC721.sol\":5014:5050  IERC721Receiver(to).onERC721Received */\n      0xffffffffffffffffffffffffffffffffffffffff\n      and\n      0x150b7a02\n        /* \"Chain Paper/liberty/ERC721.sol\":5073:5083  msg.sender */\n      caller\n        /* \"Chain Paper/liberty/ERC721.sol\":5106:5110  from */\n      dup9\n        /* \"Chain Paper/liberty/ERC721.sol\":5133:5140  tokenId */\n      dup8\n        /* \"Chain Paper/liberty/ERC721.sol\":5163:5168  _data */\n      dup8\n        /* \"Chain Paper/liberty/ERC721.sol\":5014:5187  IERC721Receiver(to).onERC721Received(\r... */\n      mload(0x40)\n      dup6\n      0xffffffff\n      and\n      0xe0\n      shl\n      dup2\n      mstore\n      0x04\n      add\n      tag_214\n      swap5\n      swap4\n      swap3\n      swap2\n      swap1\n      tag_215\n      jump\t// in\n    tag_214:\n      0x20\n      mload(0x40)\n      dup1\n      dup4\n      sub\n      dup2\n      0x00\n      dup8\n      dup1\n      extcodesize\n      iszero\n      dup1\n      iszero\n      tag_216\n      jumpi\n      0x00\n      dup1\n      revert\n    tag_216:\n      pop\n      gas\n      call\n      iszero\n      dup1\n      iszero\n      tag_218\n      jumpi\n      returndatasize\n      0x00\n      dup1\n      returndatacopy\n      revert(0x00, returndatasize)\n    tag_218:\n      pop\n      pop\n      pop\n      pop\n      mload(0x40)\n      returndatasize\n      not(0x1f)\n      0x1f\n      dup3\n      add\n      and\n      dup3\n      add\n      dup1\n      0x40\n      mstore\n      pop\n      dup2\n      add\n      swap1\n      tag_219\n      swap2\n      swap1\n      tag_220\n      jump\t// in\n    tag_219:\n        /* \"Chain Paper/liberty/ERC721.sol\":5014:5232  IERC721Receiver(to).onERC721Received(\r... */\n      not(0xffffffffffffffffffffffffffffffffffffffffffffffffffffffff)\n      and\n      eq\n        /* \"Chain Paper/liberty/ERC721.sol\":4990:5232  return\r... */\n      swap1\n      pop\n      jump(tag_210)\n        /* \"Chain Paper/liberty/ERC721.sol\":4954:5288  if (to.isContract()) {\r... */\n    tag_213:\n        /* \"Chain Paper/liberty/ERC721.sol\":5272:5276  true */\n      0x01\n        /* \"Chain Paper/liberty/ERC721.sol\":5265:5276  return true */\n      swap1\n      pop\n        /* \"Chain Paper/liberty/ERC721.sol\":4785:5295  function _checkOnERC721Received(\r... */\n    tag_210:\n      swap5\n      swap4\n      pop\n      pop\n      pop\n      pop\n      jump\t// out\n        /* \"Chain Paper/other/Address.sol\":163:356  function isContract(address account) internal view returns (bool) {\r... */\n    tag_212:\n        /* \"Chain Paper/other/Address.sol\":223:227  bool */\n      0x00\n        /* \"Chain Paper/other/Address.sol\":240:249  uint size */\n      dup1\n        /* \"Chain Paper/other/Address.sol\":304:311  account */\n      dup3\n        /* \"Chain Paper/other/Address.sol\":292:312  extcodesize(account) */\n      extcodesize\n        /* \"Chain Paper/other/Address.sol\":284:312  size := extcodesize(account) */\n      swap1\n      pop\n        /* \"Chain Paper/other/Address.sol\":347:348  0 */\n      0x00\n        /* \"Chain Paper/other/Address.sol\":340:344  size */\n      dup2\n        /* \"Chain Paper/other/Address.sol\":340:348  size > 0 */\n      gt\n        /* \"Chain Paper/other/Address.sol\":333:348  return size > 0 */\n      swap2\n      pop\n      pop\n        /* \"Chain Paper/other/Address.sol\":163:356  function isContract(address account) internal view returns (bool) {\r... */\n      swap2\n      swap1\n      pop\n      jump\t// out\n        /* \"#utility.yul\":7:349   */\n    tag_224:\n      0x00\n        /* \"#utility.yul\":109:173   */\n      tag_226\n        /* \"#utility.yul\":124:172   */\n      tag_227\n        /* \"#utility.yul\":165:171   */\n      dup5\n        /* \"#utility.yul\":124:172   */\n      tag_228\n      jump\t// in\n    tag_227:\n        /* \"#utility.yul\":109:173   */\n      tag_229\n      jump\t// in\n    tag_226:\n        /* \"#utility.yul\":100:173   */\n      swap1\n      pop\n        /* \"#utility.yul\":196:202   */\n      dup3\n        /* \"#utility.yul\":189:194   */\n      dup2\n        /* \"#utility.yul\":182:203   */\n      mstore\n        /* \"#utility.yul\":234:238   */\n      0x20\n        /* \"#utility.yul\":227:232   */\n      dup2\n        /* \"#utility.yul\":223:239   */\n      add\n        /* \"#utility.yul\":272:275   */\n      dup5\n        /* \"#utility.yul\":263:269   */\n      dup5\n        /* \"#utility.yul\":258:261   */\n      dup5\n        /* \"#utility.yul\":254:270   */\n      add\n        /* \"#utility.yul\":251:276   */\n      gt\n        /* \"#utility.yul\":248:250   */\n      iszero\n      tag_230\n      jumpi\n        /* \"#utility.yul\":289:290   */\n      0x00\n        /* \"#utility.yul\":286:287   */\n      dup1\n        /* \"#utility.yul\":279:291   */\n      revert\n        /* \"#utility.yul\":248:250   */\n    tag_230:\n        /* \"#utility.yul\":302:343   */\n      tag_231\n        /* \"#utility.yul\":336:342   */\n      dup5\n        /* \"#utility.yul\":331:334   */\n      dup3\n        /* \"#utility.yul\":326:329   */\n      dup6\n        /* \"#utility.yul\":302:343   */\n      tag_232\n      jump\t// in\n    tag_231:\n        /* \"#utility.yul\":90:349   */\n      pop\n      swap4\n      swap3\n      pop\n      pop\n      pop\n      jump\t// out\n        /* \"#utility.yul\":355:494   */\n    tag_233:\n      0x00\n        /* \"#utility.yul\":439:445   */\n      dup2\n        /* \"#utility.yul\":426:446   */\n      calldataload\n        /* \"#utility.yul\":417:446   */\n      swap1\n      pop\n        /* \"#utility.yul\":455:488   */\n      tag_235\n        /* \"#utility.yul\":482:487   */\n      dup2\n        /* \"#utility.yul\":455:488   */\n      tag_236\n      jump\t// in\n    tag_235:\n        /* \"#utility.yul\":407:494   */\n      swap3\n      swap2\n      pop\n      pop\n      jump\t// out\n        /* \"#utility.yul\":500:633   */\n    tag_237:\n      0x00\n        /* \"#utility.yul\":581:587   */\n      dup2\n        /* \"#utility.yul\":568:588   */\n      calldataload\n        /* \"#utility.yul\":559:588   */\n      swap1\n      pop\n        /* \"#utility.yul\":597:627   */\n      tag_239\n        /* \"#utility.yul\":621:626   */\n      dup2\n        /* \"#utility.yul\":597:627   */\n      tag_240\n      jump\t// in\n    tag_239:\n        /* \"#utility.yul\":549:633   */\n      swap3\n      swap2\n      pop\n      pop\n      jump\t// out\n        /* \"#utility.yul\":639:776   */\n    tag_241:\n      0x00\n        /* \"#utility.yul\":722:728   */\n      dup2\n        /* \"#utility.yul\":709:729   */\n      calldataload\n        /* \"#utility.yul\":700:729   */\n      swap1\n      pop\n        /* \"#utility.yul\":738:770   */\n      tag_243\n        /* \"#utility.yul\":764:769   */\n      dup2\n        /* \"#utility.yul\":738:770   */\n      tag_244\n      jump\t// in\n    tag_243:\n        /* \"#utility.yul\":690:776   */\n      swap3\n      swap2\n      pop\n      pop\n      jump\t// out\n        /* \"#utility.yul\":782:923   */\n    tag_245:\n      0x00\n        /* \"#utility.yul\":869:875   */\n      dup2\n        /* \"#utility.yul\":863:876   */\n      mload\n        /* \"#utility.yul\":854:876   */\n      swap1\n      pop\n        /* \"#utility.yul\":885:917   */\n      tag_247\n        /* \"#utility.yul\":911:916   */\n      dup2\n        /* \"#utility.yul\":885:917   */\n      tag_244\n      jump\t// in\n    tag_247:\n        /* \"#utility.yul\":844:923   */\n      swap3\n      swap2\n      pop\n      pop\n      jump\t// out\n        /* \"#utility.yul\":942:1213   */\n    tag_248:\n      0x00\n        /* \"#utility.yul\":1046:1049   */\n      dup3\n        /* \"#utility.yul\":1039:1043   */\n      0x1f\n        /* \"#utility.yul\":1031:1037   */\n      dup4\n        /* \"#utility.yul\":1027:1044   */\n      add\n        /* \"#utility.yul\":1023:1050   */\n      slt\n        /* \"#utility.yul\":1013:1015   */\n      tag_250\n      jumpi\n        /* \"#utility.yul\":1064:1065   */\n      0x00\n        /* \"#utility.yul\":1061:1062   */\n      dup1\n        /* \"#utility.yul\":1054:1066   */\n      revert\n        /* \"#utility.yul\":1013:1015   */\n    tag_250:\n        /* \"#utility.yul\":1104:1110   */\n      dup2\n        /* \"#utility.yul\":1091:1111   */\n      calldataload\n        /* \"#utility.yul\":1129:1207   */\n      tag_251\n        /* \"#utility.yul\":1203:1206   */\n      dup5\n        /* \"#utility.yul\":1195:1201   */\n      dup3\n        /* \"#utility.yul\":1188:1192   */\n      0x20\n        /* \"#utility.yul\":1180:1186   */\n      dup7\n        /* \"#utility.yul\":1176:1193   */\n      add\n        /* \"#utility.yul\":1129:1207   */\n      tag_224\n      jump\t// in\n    tag_251:\n        /* \"#utility.yul\":1120:1207   */\n      swap2\n      pop\n        /* \"#utility.yul\":1003:1213   */\n      pop\n      swap3\n      swap2\n      pop\n      pop\n      jump\t// out\n        /* \"#utility.yul\":1219:1358   */\n    tag_252:\n      0x00\n        /* \"#utility.yul\":1303:1309   */\n      dup2\n        /* \"#utility.yul\":1290:1310   */\n      calldataload\n        /* \"#utility.yul\":1281:1310   */\n      swap1\n      pop\n        /* \"#utility.yul\":1319:1352   */\n      tag_254\n        /* \"#utility.yul\":1346:1351   */\n      dup2\n        /* \"#utility.yul\":1319:1352   */\n      tag_255\n      jump\t// in\n    tag_254:\n        /* \"#utility.yul\":1271:1358   */\n      swap3\n      swap2\n      pop\n      pop\n      jump\t// out\n        /* \"#utility.yul\":1364:1626   */\n    tag_61:\n      0x00\n        /* \"#utility.yul\":1472:1474   */\n      0x20\n        /* \"#utility.yul\":1460:1469   */\n      dup3\n        /* \"#utility.yul\":1451:1458   */\n      dup5\n        /* \"#utility.yul\":1447:1470   */\n      sub\n        /* \"#utility.yul\":1443:1475   */\n      slt\n        /* \"#utility.yul\":1440:1442   */\n      iszero\n      tag_257\n      jumpi\n        /* \"#utility.yul\":1488:1489   */\n      0x00\n        /* \"#utility.yul\":1485:1486   */\n      dup1\n        /* \"#utility.yul\":1478:1490   */\n      revert\n        /* \"#utility.yul\":1440:1442   */\n    tag_257:\n        /* \"#utility.yul\":1531:1532   */\n      0x00\n        /* \"#utility.yul\":1556:1609   */\n      tag_258\n        /* \"#utility.yul\":1601:1608   */\n      dup5\n        /* \"#utility.yul\":1592:1598   */\n      dup3\n        /* \"#utility.yul\":1581:1590   */\n      dup6\n        /* \"#utility.yul\":1577:1599   */\n      add\n        /* \"#utility.yul\":1556:1609   */\n      tag_233\n      jump\t// in\n    tag_258:\n        /* \"#utility.yul\":1546:1609   */\n      swap2\n      pop\n        /* \"#utility.yul\":1502:1619   */\n      pop\n        /* \"#utility.yul\":1430:1626   */\n      swap3\n      swap2\n      pop\n      pop\n      jump\t// out\n        /* \"#utility.yul\":1632:2039   */\n    tag_81:\n      0x00\n      dup1\n        /* \"#utility.yul\":1757:1759   */\n      0x40\n        /* \"#utility.yul\":1745:1754   */\n      dup4\n        /* \"#utility.yul\":1736:1743   */\n      dup6\n        /* \"#utility.yul\":1732:1755   */\n      sub\n        /* \"#utility.yul\":1728:1760   */\n      slt\n        /* \"#utility.yul\":1725:1727   */\n      iszero\n      tag_260\n      jumpi\n        /* \"#utility.yul\":1773:1774   */\n      0x00\n        /* \"#utility.yul\":1770:1771   */\n      dup1\n        /* \"#utility.yul\":1763:1775   */\n      revert\n        /* \"#utility.yul\":1725:1727   */\n    tag_260:\n        /* \"#utility.yul\":1816:1817   */\n      0x00\n        /* \"#utility.yul\":1841:1894   */\n      tag_261\n        /* \"#utility.yul\":1886:1893   */\n      dup6\n        /* \"#utility.yul\":1877:1883   */\n      dup3\n        /* \"#utility.yul\":1866:1875   */\n      dup7\n        /* \"#utility.yul\":1862:1884   */\n      add\n        /* \"#utility.yul\":1841:1894   */\n      tag_233\n      jump\t// in\n    tag_261:\n        /* \"#utility.yul\":1831:1894   */\n      swap3\n      pop\n        /* \"#utility.yul\":1787:1904   */\n      pop\n        /* \"#utility.yul\":1943:1945   */\n      0x20\n        /* \"#utility.yul\":1969:2022   */\n      tag_262\n        /* \"#utility.yul\":2014:2021   */\n      dup6\n        /* \"#utility.yul\":2005:2011   */\n      dup3\n        /* \"#utility.yul\":1994:2003   */\n      dup7\n        /* \"#utility.yul\":1990:2012   */\n      add\n        /* \"#utility.yul\":1969:2022   */\n      tag_233\n      jump\t// in\n    tag_262:\n        /* \"#utility.yul\":1959:2022   */\n      swap2\n      pop\n        /* \"#utility.yul\":1914:2032   */\n      pop\n        /* \"#utility.yul\":1715:2039   */\n      swap3\n      pop\n      swap3\n      swap1\n      pop\n      jump\t// out\n        /* \"#utility.yul\":2045:2597   */\n    tag_43:\n      0x00\n      dup1\n      0x00\n        /* \"#utility.yul\":2187:2189   */\n      0x60\n        /* \"#utility.yul\":2175:2184   */\n      dup5\n        /* \"#utility.yul\":2166:2173   */\n      dup7\n        /* \"#utility.yul\":2162:2185   */\n      sub\n        /* \"#utility.yul\":2158:2190   */\n      slt\n        /* \"#utility.yul\":2155:2157   */\n      iszero\n      tag_264\n      jumpi\n        /* \"#utility.yul\":2203:2204   */\n      0x00\n        /* \"#utility.yul\":2200:2201   */\n      dup1\n        /* \"#utility.yul\":2193:2205   */\n      revert\n        /* \"#utility.yul\":2155:2157   */\n    tag_264:\n        /* \"#utility.yul\":2246:2247   */\n      0x00\n        /* \"#utility.yul\":2271:2324   */\n      tag_265\n        /* \"#utility.yul\":2316:2323   */\n      dup7\n        /* \"#utility.yul\":2307:2313   */\n      dup3\n        /* \"#utility.yul\":2296:2305   */\n      dup8\n        /* \"#utility.yul\":2292:2314   */\n      add\n        /* \"#utility.yul\":2271:2324   */\n      tag_233\n      jump\t// in\n    tag_265:\n        /* \"#utility.yul\":2261:2324   */\n      swap4\n      pop\n        /* \"#utility.yul\":2217:2334   */\n      pop\n        /* \"#utility.yul\":2373:2375   */\n      0x20\n        /* \"#utility.yul\":2399:2452   */\n      tag_266\n        /* \"#utility.yul\":2444:2451   */\n      dup7\n        /* \"#utility.yul\":2435:2441   */\n      dup3\n        /* \"#utility.yul\":2424:2433   */\n      dup8\n        /* \"#utility.yul\":2420:2442   */\n      add\n        /* \"#utility.yul\":2399:2452   */\n      tag_233\n      jump\t// in\n    tag_266:\n        /* \"#utility.yul\":2389:2452   */\n      swap3\n      pop\n        /* \"#utility.yul\":2344:2462   */\n      pop\n        /* \"#utility.yul\":2501:2503   */\n      0x40\n        /* \"#utility.yul\":2527:2580   */\n      tag_267\n        /* \"#utility.yul\":2572:2579   */\n      dup7\n        /* \"#utility.yul\":2563:2569   */\n      dup3\n        /* \"#utility.yul\":2552:2561   */\n      dup8\n        /* \"#utility.yul\":2548:2570   */\n      add\n        /* \"#utility.yul\":2527:2580   */\n      tag_252\n      jump\t// in\n    tag_267:\n        /* \"#utility.yul\":2517:2580   */\n      swap2\n      pop\n        /* \"#utility.yul\":2472:2590   */\n      pop\n        /* \"#utility.yul\":2145:2597   */\n      swap3\n      pop\n      swap3\n      pop\n      swap3\n      jump\t// out\n        /* \"#utility.yul\":2603:3412   */\n    tag_69:\n      0x00\n      dup1\n      0x00\n      dup1\n        /* \"#utility.yul\":2771:2774   */\n      0x80\n        /* \"#utility.yul\":2759:2768   */\n      dup6\n        /* \"#utility.yul\":2750:2757   */\n      dup8\n        /* \"#utility.yul\":2746:2769   */\n      sub\n        /* \"#utility.yul\":2742:2775   */\n      slt\n        /* \"#utility.yul\":2739:2741   */\n      iszero\n      tag_269\n      jumpi\n        /* \"#utility.yul\":2788:2789   */\n      0x00\n        /* \"#utility.yul\":2785:2786   */\n      dup1\n        /* \"#utility.yul\":2778:2790   */\n      revert\n        /* \"#utility.yul\":2739:2741   */\n    tag_269:\n        /* \"#utility.yul\":2831:2832   */\n      0x00\n        /* \"#utility.yul\":2856:2909   */\n      tag_270\n        /* \"#utility.yul\":2901:2908   */\n      dup8\n        /* \"#utility.yul\":2892:2898   */\n      dup3\n        /* \"#utility.yul\":2881:2890   */\n      dup9\n        /* \"#utility.yul\":2877:2899   */\n      add\n        /* \"#utility.yul\":2856:2909   */\n      tag_233\n      jump\t// in\n    tag_270:\n        /* \"#utility.yul\":2846:2909   */\n      swap5\n      pop\n        /* \"#utility.yul\":2802:2919   */\n      pop\n        /* \"#utility.yul\":2958:2960   */\n      0x20\n        /* \"#utility.yul\":2984:3037   */\n      tag_271\n        /* \"#utility.yul\":3029:3036   */\n      dup8\n        /* \"#utility.yul\":3020:3026   */\n      dup3\n        /* \"#utility.yul\":3009:3018   */\n      dup9\n        /* \"#utility.yul\":3005:3027   */\n      add\n        /* \"#utility.yul\":2984:3037   */\n      tag_233\n      jump\t// in\n    tag_271:\n        /* \"#utility.yul\":2974:3037   */\n      swap4\n      pop\n        /* \"#utility.yul\":2929:3047   */\n      pop\n        /* \"#utility.yul\":3086:3088   */\n      0x40\n        /* \"#utility.yul\":3112:3165   */\n      tag_272\n        /* \"#utility.yul\":3157:3164   */\n      dup8\n        /* \"#utility.yul\":3148:3154   */\n      dup3\n        /* \"#utility.yul\":3137:3146   */\n      dup9\n        /* \"#utility.yul\":3133:3155   */\n      add\n        /* \"#utility.yul\":3112:3165   */\n      tag_252\n      jump\t// in\n    tag_272:\n        /* \"#utility.yul\":3102:3165   */\n      swap3\n      pop\n        /* \"#utility.yul\":3057:3175   */\n      pop\n        /* \"#utility.yul\":3242:3244   */\n      0x60\n        /* \"#utility.yul\":3231:3240   */\n      dup6\n        /* \"#utility.yul\":3227:3245   */\n      add\n        /* \"#utility.yul\":3214:3246   */\n      calldataload\n        /* \"#utility.yul\":3273:3291   */\n      0xffffffffffffffff\n        /* \"#utility.yul\":3265:3271   */\n      dup2\n        /* \"#utility.yul\":3262:3292   */\n      gt\n        /* \"#utility.yul\":3259:3261   */\n      iszero\n      tag_273\n      jumpi\n        /* \"#utility.yul\":3305:3306   */\n      0x00\n        /* \"#utility.yul\":3302:3303   */\n      dup1\n        /* \"#utility.yul\":3295:3307   */\n      revert\n        /* \"#utility.yul\":3259:3261   */\n    tag_273:\n        /* \"#utility.yul\":3333:3395   */\n      tag_274\n        /* \"#utility.yul\":3387:3394   */\n      dup8\n        /* \"#utility.yul\":3378:3384   */\n      dup3\n        /* \"#utility.yul\":3367:3376   */\n      dup9\n        /* \"#utility.yul\":3363:3385   */\n      add\n        /* \"#utility.yul\":3333:3395   */\n      tag_248\n      jump\t// in\n    tag_274:\n        /* \"#utility.yul\":3323:3395   */\n      swap2\n      pop\n        /* \"#utility.yul\":3185:3405   */\n      pop\n        /* \"#utility.yul\":2729:3412   */\n      swap3\n      swap6\n      swap2\n      swap5\n      pop\n      swap3\n      pop\n      jump\t// out\n        /* \"#utility.yul\":3418:3819   */\n    tag_73:\n      0x00\n      dup1\n        /* \"#utility.yul\":3540:3542   */\n      0x40\n        /* \"#utility.yul\":3528:3537   */\n      dup4\n        /* \"#utility.yul\":3519:3526   */\n      dup6\n        /* \"#utility.yul\":3515:3538   */\n      sub\n        /* \"#utility.yul\":3511:3543   */\n      slt\n        /* \"#utility.yul\":3508:3510   */\n      iszero\n      tag_276\n      jumpi\n        /* \"#utility.yul\":3556:3557   */\n      0x00\n        /* \"#utility.yul\":3553:3554   */\n      dup1\n        /* \"#utility.yul\":3546:3558   */\n      revert\n        /* \"#utility.yul\":3508:3510   */\n    tag_276:\n        /* \"#utility.yul\":3599:3600   */\n      0x00\n        /* \"#utility.yul\":3624:3677   */\n      tag_277\n        /* \"#utility.yul\":3669:3676   */\n      dup6\n        /* \"#utility.yul\":3660:3666   */\n      dup3\n        /* \"#utility.yul\":3649:3658   */\n      dup7\n        /* \"#utility.yul\":3645:3667   */\n      add\n        /* \"#utility.yul\":3624:3677   */\n      tag_233\n      jump\t// in\n    tag_277:\n        /* \"#utility.yul\":3614:3677   */\n      swap3\n      pop\n        /* \"#utility.yul\":3570:3687   */\n      pop\n        /* \"#utility.yul\":3726:3728   */\n      0x20\n        /* \"#utility.yul\":3752:3802   */\n      tag_278\n        /* \"#utility.yul\":3794:3801   */\n      dup6\n        /* \"#utility.yul\":3785:3791   */\n      dup3\n        /* \"#utility.yul\":3774:3783   */\n      dup7\n        /* \"#utility.yul\":3770:3792   */\n      add\n        /* \"#utility.yul\":3752:3802   */\n      tag_237\n      jump\t// in\n    tag_278:\n        /* \"#utility.yul\":3742:3802   */\n      swap2\n      pop\n        /* \"#utility.yul\":3697:3812   */\n      pop\n        /* \"#utility.yul\":3498:3819   */\n      swap3\n      pop\n      swap3\n      swap1\n      pop\n      jump\t// out\n        /* \"#utility.yul\":3825:4232   */\n    tag_39:\n      0x00\n      dup1\n        /* \"#utility.yul\":3950:3952   */\n      0x40\n        /* \"#utility.yul\":3938:3947   */\n      dup4\n        /* \"#utility.yul\":3929:3936   */\n      dup6\n        /* \"#utility.yul\":3925:3948   */\n      sub\n        /* \"#utility.yul\":3921:3953   */\n      slt\n        /* \"#utility.yul\":3918:3920   */\n      iszero\n      tag_280\n      jumpi\n        /* \"#utility.yul\":3966:3967   */\n      0x00\n        /* \"#utility.yul\":3963:3964   */\n      dup1\n        /* \"#utility.yul\":3956:3968   */\n      revert\n        /* \"#utility.yul\":3918:3920   */\n    tag_280:\n        /* \"#utility.yul\":4009:4010   */\n      0x00\n        /* \"#utility.yul\":4034:4087   */\n      tag_281\n        /* \"#utility.yul\":4079:4086   */\n      dup6\n        /* \"#utility.yul\":4070:4076   */\n      dup3\n        /* \"#utility.yul\":4059:4068   */\n      dup7\n        /* \"#utility.yul\":4055:4077   */\n      add\n        /* \"#utility.yul\":4034:4087   */\n      tag_233\n      jump\t// in\n    tag_281:\n        /* \"#utility.yul\":4024:4087   */\n      swap3\n      pop\n        /* \"#utility.yul\":3980:4097   */\n      pop\n        /* \"#utility.yul\":4136:4138   */\n      0x20\n        /* \"#utility.yul\":4162:4215   */\n      tag_282\n        /* \"#utility.yul\":4207:4214   */\n      dup6\n        /* \"#utility.yul\":4198:4204   */\n      dup3\n        /* \"#utility.yul\":4187:4196   */\n      dup7\n        /* \"#utility.yul\":4183:4205   */\n      add\n        /* \"#utility.yul\":4162:4215   */\n      tag_252\n      jump\t// in\n    tag_282:\n        /* \"#utility.yul\":4152:4215   */\n      swap2\n      pop\n        /* \"#utility.yul\":4107:4225   */\n      pop\n        /* \"#utility.yul\":3908:4232   */\n      swap3\n      pop\n      swap3\n      swap1\n      pop\n      jump\t// out\n        /* \"#utility.yul\":4238:4498   */\n    tag_23:\n      0x00\n        /* \"#utility.yul\":4345:4347   */\n      0x20\n        /* \"#utility.yul\":4333:4342   */\n      dup3\n        /* \"#utility.yul\":4324:4331   */\n      dup5\n        /* \"#utility.yul\":4320:4343   */\n      sub\n        /* \"#utility.yul\":4316:4348   */\n      slt\n        /* \"#utility.yul\":4313:4315   */\n      iszero\n      tag_284\n      jumpi\n        /* \"#utility.yul\":4361:4362   */\n      0x00\n        /* \"#utility.yul\":4358:4359   */\n      dup1\n        /* \"#utility.yul\":4351:4363   */\n      revert\n        /* \"#utility.yul\":4313:4315   */\n    tag_284:\n        /* \"#utility.yul\":4404:4405   */\n      0x00\n        /* \"#utility.yul\":4429:4481   */\n      tag_285\n        /* \"#utility.yul\":4473:4480   */\n      dup5\n        /* \"#utility.yul\":4464:4470   */\n      dup3\n        /* \"#utility.yul\":4453:4462   */\n      dup6\n        /* \"#utility.yul\":4449:4471   */\n      add\n        /* \"#utility.yul\":4429:4481   */\n      tag_241\n      jump\t// in\n    tag_285:\n        /* \"#utility.yul\":4419:4481   */\n      swap2\n      pop\n        /* \"#utility.yul\":4375:4491   */\n      pop\n        /* \"#utility.yul\":4303:4498   */\n      swap3\n      swap2\n      pop\n      pop\n      jump\t// out\n        /* \"#utility.yul\":4504:4786   */\n    tag_220:\n      0x00\n        /* \"#utility.yul\":4622:4624   */\n      0x20\n        /* \"#utility.yul\":4610:4619   */\n      dup3\n        /* \"#utility.yul\":4601:4608   */\n      dup5\n        /* \"#utility.yul\":4597:4620   */\n      sub\n        /* \"#utility.yul\":4593:4625   */\n      slt\n        /* \"#utility.yul\":4590:4592   */\n      iszero\n      tag_287\n      jumpi\n        /* \"#utility.yul\":4638:4639   */\n      0x00\n        /* \"#utility.yul\":4635:4636   */\n      dup1\n        /* \"#utility.yul\":4628:4640   */\n      revert\n        /* \"#utility.yul\":4590:4592   */\n    tag_287:\n        /* \"#utility.yul\":4681:4682   */\n      0x00\n        /* \"#utility.yul\":4706:4769   */\n      tag_288\n        /* \"#utility.yul\":4761:4768   */\n      dup5\n        /* \"#utility.yul\":4752:4758   */\n      dup3\n        /* \"#utility.yul\":4741:4750   */\n      dup6\n        /* \"#utility.yul\":4737:4759   */\n      add\n        /* \"#utility.yul\":4706:4769   */\n      tag_245\n      jump\t// in\n    tag_288:\n        /* \"#utility.yul\":4696:4769   */\n      swap2\n      pop\n        /* \"#utility.yul\":4652:4779   */\n      pop\n        /* \"#utility.yul\":4580:4786   */\n      swap3\n      swap2\n      pop\n      pop\n      jump\t// out\n        /* \"#utility.yul\":4792:5054   */\n    tag_33:\n      0x00\n        /* \"#utility.yul\":4900:4902   */\n      0x20\n        /* \"#utility.yul\":4888:4897   */\n      dup3\n        /* \"#utility.yul\":4879:4886   */\n      dup5\n        /* \"#utility.yul\":4875:4898   */\n      sub\n        /* \"#utility.yul\":4871:4903   */\n      slt\n        /* \"#utility.yul\":4868:4870   */\n      iszero\n      tag_290\n      jumpi\n        /* \"#utility.yul\":4916:4917   */\n      0x00\n        /* \"#utility.yul\":4913:4914   */\n      dup1\n        /* \"#utility.yul\":4906:4918   */\n      revert\n        /* \"#utility.yul\":4868:4870   */\n    tag_290:\n        /* \"#utility.yul\":4959:4960   */\n      0x00\n        /* \"#utility.yul\":4984:5037   */\n      tag_291\n        /* \"#utility.yul\":5029:5036   */\n      dup5\n        /* \"#utility.yul\":5020:5026   */\n      dup3\n        /* \"#utility.yul\":5009:5018   */\n      dup6\n        /* \"#utility.yul\":5005:5027   */\n      add\n        /* \"#utility.yul\":4984:5037   */\n      tag_252\n      jump\t// in\n    tag_291:\n        /* \"#utility.yul\":4974:5037   */\n      swap2\n      pop\n        /* \"#utility.yul\":4930:5047   */\n      pop\n        /* \"#utility.yul\":4858:5054   */\n      swap3\n      swap2\n      pop\n      pop\n      jump\t// out\n        /* \"#utility.yul\":5060:5178   */\n    tag_292:\n        /* \"#utility.yul\":5147:5171   */\n      tag_294\n        /* \"#utility.yul\":5165:5170   */\n      dup2\n        /* \"#utility.yul\":5147:5171   */\n      tag_295\n      jump\t// in\n    tag_294:\n        /* \"#utility.yul\":5142:5145   */\n      dup3\n        /* \"#utility.yul\":5135:5172   */\n      mstore\n        /* \"#utility.yul\":5125:5178   */\n      pop\n      pop\n      jump\t// out\n        /* \"#utility.yul\":5184:5293   */\n    tag_296:\n        /* \"#utility.yul\":5265:5286   */\n      tag_298\n        /* \"#utility.yul\":5280:5285   */\n      dup2\n        /* \"#utility.yul\":5265:5286   */\n      tag_299\n      jump\t// in\n    tag_298:\n        /* \"#utility.yul\":5260:5263   */\n      dup3\n        /* \"#utility.yul\":5253:5287   */\n      mstore\n        /* \"#utility.yul\":5243:5293   */\n      pop\n      pop\n      jump\t// out\n        /* \"#utility.yul\":5299:5659   */\n    tag_300:\n      0x00\n        /* \"#utility.yul\":5413:5451   */\n      tag_302\n        /* \"#utility.yul\":5445:5450   */\n      dup3\n        /* \"#utility.yul\":5413:5451   */\n      tag_303\n      jump\t// in\n    tag_302:\n        /* \"#utility.yul\":5467:5537   */\n      tag_304\n        /* \"#utility.yul\":5530:5536   */\n      dup2\n        /* \"#utility.yul\":5525:5528   */\n      dup6\n        /* \"#utility.yul\":5467:5537   */\n      tag_305\n      jump\t// in\n    tag_304:\n        /* \"#utility.yul\":5460:5537   */\n      swap4\n      pop\n        /* \"#utility.yul\":5546:5598   */\n      tag_306\n        /* \"#utility.yul\":5591:5597   */\n      dup2\n        /* \"#utility.yul\":5586:5589   */\n      dup6\n        /* \"#utility.yul\":5579:5583   */\n      0x20\n        /* \"#utility.yul\":5572:5577   */\n      dup7\n        /* \"#utility.yul\":5568:5584   */\n      add\n        /* \"#utility.yul\":5546:5598   */\n      tag_307\n      jump\t// in\n    tag_306:\n        /* \"#utility.yul\":5623:5652   */\n      tag_308\n        /* \"#utility.yul\":5645:5651   */\n      dup2\n        /* \"#utility.yul\":5623:5652   */\n      tag_309\n      jump\t// in\n    tag_308:\n        /* \"#utility.yul\":5618:5621   */\n      dup5\n        /* \"#utility.yul\":5614:5653   */\n      add\n        /* \"#utility.yul\":5607:5653   */\n      swap2\n      pop\n        /* \"#utility.yul\":5389:5659   */\n      pop\n      swap3\n      swap2\n      pop\n      pop\n      jump\t// out\n        /* \"#utility.yul\":5665:6029   */\n    tag_310:\n      0x00\n        /* \"#utility.yul\":5781:5820   */\n      tag_312\n        /* \"#utility.yul\":5814:5819   */\n      dup3\n        /* \"#utility.yul\":5781:5820   */\n      tag_313\n      jump\t// in\n    tag_312:\n        /* \"#utility.yul\":5836:5907   */\n      tag_314\n        /* \"#utility.yul\":5900:5906   */\n      dup2\n        /* \"#utility.yul\":5895:5898   */\n      dup6\n        /* \"#utility.yul\":5836:5907   */\n      tag_315\n      jump\t// in\n    tag_314:\n        /* \"#utility.yul\":5829:5907   */\n      swap4\n      pop\n        /* \"#utility.yul\":5916:5968   */\n      tag_316\n        /* \"#utility.yul\":5961:5967   */\n      dup2\n        /* \"#utility.yul\":5956:5959   */\n      dup6\n        /* \"#utility.yul\":5949:5953   */\n      0x20\n        /* \"#utility.yul\":5942:5947   */\n      dup7\n        /* \"#utility.yul\":5938:5954   */\n      add\n        /* \"#utility.yul\":5916:5968   */\n      tag_307\n      jump\t// in\n    tag_316:\n        /* \"#utility.yul\":5993:6022   */\n      tag_317\n        /* \"#utility.yul\":6015:6021   */\n      dup2\n        /* \"#utility.yul\":5993:6022   */\n      tag_309\n      jump\t// in\n    tag_317:\n        /* \"#utility.yul\":5988:5991   */\n      dup5\n        /* \"#utility.yul\":5984:6023   */\n      add\n        /* \"#utility.yul\":5977:6023   */\n      swap2\n      pop\n        /* \"#utility.yul\":5757:6029   */\n      pop\n      swap3\n      swap2\n      pop\n      pop\n      jump\t// out\n        /* \"#utility.yul\":6035:6412   */\n    tag_318:\n      0x00\n        /* \"#utility.yul\":6169:6208   */\n      tag_320\n        /* \"#utility.yul\":6202:6207   */\n      dup3\n        /* \"#utility.yul\":6169:6208   */\n      tag_313\n      jump\t// in\n    tag_320:\n        /* \"#utility.yul\":6224:6313   */\n      tag_321\n        /* \"#utility.yul\":6306:6312   */\n      dup2\n        /* \"#utility.yul\":6301:6304   */\n      dup6\n        /* \"#utility.yul\":6224:6313   */\n      tag_322\n      jump\t// in\n    tag_321:\n        /* \"#utility.yul\":6217:6313   */\n      swap4\n      pop\n        /* \"#utility.yul\":6322:6374   */\n      tag_323\n        /* \"#utility.yul\":6367:6373   */\n      dup2\n        /* \"#utility.yul\":6362:6365   */\n      dup6\n        /* \"#utility.yul\":6355:6359   */\n      0x20\n        /* \"#utility.yul\":6348:6353   */\n      dup7\n        /* \"#utility.yul\":6344:6360   */\n      add\n        /* \"#utility.yul\":6322:6374   */\n      tag_307\n      jump\t// in\n    tag_323:\n        /* \"#utility.yul\":6399:6405   */\n      dup1\n        /* \"#utility.yul\":6394:6397   */\n      dup5\n        /* \"#utility.yul\":6390:6406   */\n      add\n        /* \"#utility.yul\":6383:6406   */\n      swap2\n      pop\n        /* \"#utility.yul\":6145:6412   */\n      pop\n      swap3\n      swap2\n      pop\n      pop\n      jump\t// out\n        /* \"#utility.yul\":6418:6736   */\n    tag_324:\n      0x00\n        /* \"#utility.yul\":6581:6648   */\n      tag_326\n        /* \"#utility.yul\":6645:6647   */\n      0x14\n        /* \"#utility.yul\":6640:6643   */\n      dup4\n        /* \"#utility.yul\":6581:6648   */\n      tag_315\n      jump\t// in\n    tag_326:\n        /* \"#utility.yul\":6574:6648   */\n      swap2\n      pop\n        /* \"#utility.yul\":6678:6700   */\n      0x746f6b656e4964206f7574206f662072616e6765000000000000000000000000\n        /* \"#utility.yul\":6674:6675   */\n      0x00\n        /* \"#utility.yul\":6669:6672   */\n      dup4\n        /* \"#utility.yul\":6665:6676   */\n      add\n        /* \"#utility.yul\":6658:6701   */\n      mstore\n        /* \"#utility.yul\":6727:6729   */\n      0x20\n        /* \"#utility.yul\":6722:6725   */\n      dup3\n        /* \"#utility.yul\":6718:6730   */\n      add\n        /* \"#utility.yul\":6711:6730   */\n      swap1\n      pop\n        /* \"#utility.yul\":6564:6736   */\n      swap2\n      swap1\n      pop\n      jump\t// out\n        /* \"#utility.yul\":6742:7069   */\n    tag_327:\n      0x00\n        /* \"#utility.yul\":6905:6972   */\n      tag_329\n        /* \"#utility.yul\":6969:6971   */\n      0x1d\n        /* \"#utility.yul\":6964:6967   */\n      dup4\n        /* \"#utility.yul\":6905:6972   */\n      tag_315\n      jump\t// in\n    tag_329:\n        /* \"#utility.yul\":6898:6972   */\n      swap2\n      pop\n        /* \"#utility.yul\":7002:7033   */\n      0x6e6f74206f776e6572206f7220617070726f76656420666f7220616c6c000000\n        /* \"#utility.yul\":6998:6999   */\n      0x00\n        /* \"#utility.yul\":6993:6996   */\n      dup4\n        /* \"#utility.yul\":6989:7000   */\n      add\n        /* \"#utility.yul\":6982:7034   */\n      mstore\n        /* \"#utility.yul\":7060:7062   */\n      0x20\n        /* \"#utility.yul\":7055:7058   */\n      dup3\n        /* \"#utility.yul\":7051:7063   */\n      add\n        /* \"#utility.yul\":7044:7063   */\n      swap1\n      pop\n        /* \"#utility.yul\":6888:7069   */\n      swap2\n      swap1\n      pop\n      jump\t// out\n        /* \"#utility.yul\":7075:7388   */\n    tag_330:\n      0x00\n        /* \"#utility.yul\":7238:7305   */\n      tag_332\n        /* \"#utility.yul\":7302:7304   */\n      0x0f\n        /* \"#utility.yul\":7297:7300   */\n      dup4\n        /* \"#utility.yul\":7238:7305   */\n      tag_315\n      jump\t// in\n    tag_332:\n        /* \"#utility.yul\":7231:7305   */\n      swap2\n      pop\n        /* \"#utility.yul\":7335:7352   */\n      0x746f206973203020616464726573730000000000000000000000000000000000\n        /* \"#utility.yul\":7331:7332   */\n      0x00\n        /* \"#utility.yul\":7326:7329   */\n      dup4\n        /* \"#utility.yul\":7322:7333   */\n      add\n        /* \"#utility.yul\":7315:7353   */\n      mstore\n        /* \"#utility.yul\":7379:7381   */\n      0x20\n        /* \"#utility.yul\":7374:7377   */\n      dup3\n        /* \"#utility.yul\":7370:7382   */\n      add\n        /* \"#utility.yul\":7363:7382   */\n      swap1\n      pop\n        /* \"#utility.yul\":7221:7388   */\n      swap2\n      swap1\n      pop\n      jump\t// out\n        /* \"#utility.yul\":7394:7714   */\n    tag_333:\n      0x00\n        /* \"#utility.yul\":7557:7624   */\n      tag_335\n        /* \"#utility.yul\":7621:7623   */\n      0x16\n        /* \"#utility.yul\":7616:7619   */\n      dup4\n        /* \"#utility.yul\":7557:7624   */\n      tag_315\n      jump\t// in\n    tag_335:\n        /* \"#utility.yul\":7550:7624   */\n      swap2\n      pop\n        /* \"#utility.yul\":7654:7678   */\n      0x6e6f74206f776e6572206e6f7220617070726f76656400000000000000000000\n        /* \"#utility.yul\":7650:7651   */\n      0x00\n        /* \"#utility.yul\":7645:7648   */\n      dup4\n        /* \"#utility.yul\":7641:7652   */\n      add\n        /* \"#utility.yul\":7634:7679   */\n      mstore\n        /* \"#utility.yul\":7705:7707   */\n      0x20\n        /* \"#utility.yul\":7700:7703   */\n      dup3\n        /* \"#utility.yul\":7696:7708   */\n      add\n        /* \"#utility.yul\":7689:7708   */\n      swap1\n      pop\n        /* \"#utility.yul\":7540:7714   */\n      swap2\n      swap1\n      pop\n      jump\t// out\n        /* \"#utility.yul\":7720:8037   */\n    tag_336:\n      0x00\n        /* \"#utility.yul\":7883:7950   */\n      tag_338\n        /* \"#utility.yul\":7947:7949   */\n      0x13\n        /* \"#utility.yul\":7942:7945   */\n      dup4\n        /* \"#utility.yul\":7883:7950   */\n      tag_315\n      jump\t// in\n    tag_338:\n        /* \"#utility.yul\":7876:7950   */\n      swap2\n      pop\n        /* \"#utility.yul\":7980:8001   */\n      0x746f6b656e20646f65736e277420657869737400000000000000000000000000\n        /* \"#utility.yul\":7976:7977   */\n      0x00\n        /* \"#utility.yul\":7971:7974   */\n      dup4\n        /* \"#utility.yul\":7967:7978   */\n      add\n        /* \"#utility.yul\":7960:8002   */\n      mstore\n        /* \"#utility.yul\":8028:8030   */\n      0x20\n        /* \"#utility.yul\":8023:8026   */\n      dup3\n        /* \"#utility.yul\":8019:8031   */\n      add\n        /* \"#utility.yul\":8012:8031   */\n      swap1\n      pop\n        /* \"#utility.yul\":7866:8037   */\n      swap2\n      swap1\n      pop\n      jump\t// out\n        /* \"#utility.yul\":8043:8361   */\n    tag_339:\n      0x00\n        /* \"#utility.yul\":8206:8273   */\n      tag_341\n        /* \"#utility.yul\":8270:8272   */\n      0x14\n        /* \"#utility.yul\":8265:8268   */\n      dup4\n        /* \"#utility.yul\":8206:8273   */\n      tag_315\n      jump\t// in\n    tag_341:\n        /* \"#utility.yul\":8199:8273   */\n      swap2\n      pop\n        /* \"#utility.yul\":8303:8325   */\n      0x746f6b656e20616c7265616479206d696e746564000000000000000000000000\n        /* \"#utility.yul\":8299:8300   */\n      0x00\n        /* \"#utility.yul\":8294:8297   */\n      dup4\n        /* \"#utility.yul\":8290:8301   */\n      add\n        /* \"#utility.yul\":8283:8326   */\n      mstore\n        /* \"#utility.yul\":8352:8354   */\n      0x20\n        /* \"#utility.yul\":8347:8350   */\n      dup3\n        /* \"#utility.yul\":8343:8355   */\n      add\n        /* \"#utility.yul\":8336:8355   */\n      swap1\n      pop\n        /* \"#utility.yul\":8189:8361   */\n      swap2\n      swap1\n      pop\n      jump\t// out\n        /* \"#utility.yul\":8367:8682   */\n    tag_342:\n      0x00\n        /* \"#utility.yul\":8530:8597   */\n      tag_344\n        /* \"#utility.yul\":8594:8596   */\n      0x11\n        /* \"#utility.yul\":8589:8592   */\n      dup4\n        /* \"#utility.yul\":8530:8597   */\n      tag_315\n      jump\t// in\n    tag_344:\n        /* \"#utility.yul\":8523:8597   */\n      swap2\n      pop\n        /* \"#utility.yul\":8627:8646   */\n      0x6f776e6572203d20302061646472657373000000000000000000000000000000\n        /* \"#utility.yul\":8623:8624   */\n      0x00\n        /* \"#utility.yul\":8618:8621   */\n      dup4\n        /* \"#utility.yul\":8614:8625   */\n      add\n        /* \"#utility.yul\":8607:8647   */\n      mstore\n        /* \"#utility.yul\":8673:8675   */\n      0x20\n        /* \"#utility.yul\":8668:8671   */\n      dup3\n        /* \"#utility.yul\":8664:8676   */\n      add\n        /* \"#utility.yul\":8657:8676   */\n      swap1\n      pop\n        /* \"#utility.yul\":8513:8682   */\n      swap2\n      swap1\n      pop\n      jump\t// out\n        /* \"#utility.yul\":8688:9001   */\n    tag_345:\n      0x00\n        /* \"#utility.yul\":8851:8918   */\n      tag_347\n        /* \"#utility.yul\":8915:8917   */\n      0x0f\n        /* \"#utility.yul\":8910:8913   */\n      dup4\n        /* \"#utility.yul\":8851:8918   */\n      tag_315\n      jump\t// in\n    tag_347:\n        /* \"#utility.yul\":8844:8918   */\n      swap2\n      pop\n        /* \"#utility.yul\":8948:8965   */\n      0x546f6b656e206e6f742065786973740000000000000000000000000000000000\n        /* \"#utility.yul\":8944:8945   */\n      0x00\n        /* \"#utility.yul\":8939:8942   */\n      dup4\n        /* \"#utility.yul\":8935:8946   */\n      add\n        /* \"#utility.yul\":8928:8966   */\n      mstore\n        /* \"#utility.yul\":8992:8994   */\n      0x20\n        /* \"#utility.yul\":8987:8990   */\n      dup3\n        /* \"#utility.yul\":8983:8995   */\n      add\n        /* \"#utility.yul\":8976:8995   */\n      swap1\n      pop\n        /* \"#utility.yul\":8834:9001   */\n      swap2\n      swap1\n      pop\n      jump\t// out\n        /* \"#utility.yul\":9007:9323   */\n    tag_348:\n      0x00\n        /* \"#utility.yul\":9170:9237   */\n      tag_350\n        /* \"#utility.yul\":9234:9236   */\n      0x12\n        /* \"#utility.yul\":9229:9232   */\n      dup4\n        /* \"#utility.yul\":9170:9237   */\n      tag_315\n      jump\t// in\n    tag_350:\n        /* \"#utility.yul\":9163:9237   */\n      swap2\n      pop\n        /* \"#utility.yul\":9267:9287   */\n      0x6e6f742045524337323152656365697665720000000000000000000000000000\n        /* \"#utility.yul\":9263:9264   */\n      0x00\n        /* \"#utility.yul\":9258:9261   */\n      dup4\n        /* \"#utility.yul\":9254:9265   */\n      add\n        /* \"#utility.yul\":9247:9288   */\n      mstore\n        /* \"#utility.yul\":9314:9316   */\n      0x20\n        /* \"#utility.yul\":9309:9312   */\n      dup3\n        /* \"#utility.yul\":9305:9317   */\n      add\n        /* \"#utility.yul\":9298:9317   */\n      swap1\n      pop\n        /* \"#utility.yul\":9153:9323   */\n      swap2\n      swap1\n      pop\n      jump\t// out\n        /* \"#utility.yul\":9329:9635   */\n    tag_351:\n      0x00\n        /* \"#utility.yul\":9492:9558   */\n      tag_353\n        /* \"#utility.yul\":9556:9557   */\n      0x09\n        /* \"#utility.yul\":9551:9554   */\n      dup4\n        /* \"#utility.yul\":9492:9558   */\n      tag_315\n      jump\t// in\n    tag_353:\n        /* \"#utility.yul\":9485:9558   */\n      swap2\n      pop\n        /* \"#utility.yul\":9588:9599   */\n      0x6e6f74206f776e65720000000000000000000000000000000000000000000000\n        /* \"#utility.yul\":9584:9585   */\n      0x00\n        /* \"#utility.yul\":9579:9582   */\n      dup4\n        /* \"#utility.yul\":9575:9586   */\n      add\n        /* \"#utility.yul\":9568:9600   */\n      mstore\n        /* \"#utility.yul\":9626:9628   */\n      0x20\n        /* \"#utility.yul\":9621:9624   */\n      dup3\n        /* \"#utility.yul\":9617:9629   */\n      add\n        /* \"#utility.yul\":9610:9629   */\n      swap1\n      pop\n        /* \"#utility.yul\":9475:9635   */\n      swap2\n      swap1\n      pop\n      jump\t// out\n        /* \"#utility.yul\":9641:9759   */\n    tag_354:\n        /* \"#utility.yul\":9728:9752   */\n      tag_356\n        /* \"#utility.yul\":9746:9751   */\n      dup2\n        /* \"#utility.yul\":9728:9752   */\n      tag_357\n      jump\t// in\n    tag_356:\n        /* \"#utility.yul\":9723:9726   */\n      dup3\n        /* \"#utility.yul\":9716:9753   */\n      mstore\n        /* \"#utility.yul\":9706:9759   */\n      pop\n      pop\n      jump\t// out\n        /* \"#utility.yul\":9765:10200   */\n    tag_155:\n      0x00\n        /* \"#utility.yul\":9967:10062   */\n      tag_359\n        /* \"#utility.yul\":10058:10061   */\n      dup3\n        /* \"#utility.yul\":10049:10055   */\n      dup6\n        /* \"#utility.yul\":9967:10062   */\n      tag_318\n      jump\t// in\n    tag_359:\n        /* \"#utility.yul\":9960:10062   */\n      swap2\n      pop\n        /* \"#utility.yul\":10079:10174   */\n      tag_360\n        /* \"#utility.yul\":10170:10173   */\n      dup3\n        /* \"#utility.yul\":10161:10167   */\n      dup5\n        /* \"#utility.yul\":10079:10174   */\n      tag_318\n      jump\t// in\n    tag_360:\n        /* \"#utility.yul\":10072:10174   */\n      swap2\n      pop\n        /* \"#utility.yul\":10191:10194   */\n      dup2\n        /* \"#utility.yul\":10184:10194   */\n      swap1\n      pop\n        /* \"#utility.yul\":9949:10200   */\n      swap4\n      swap3\n      pop\n      pop\n      pop\n      jump\t// out\n        /* \"#utility.yul\":10206:10428   */\n    tag_36:\n      0x00\n        /* \"#utility.yul\":10337:10339   */\n      0x20\n        /* \"#utility.yul\":10326:10335   */\n      dup3\n        /* \"#utility.yul\":10322:10340   */\n      add\n        /* \"#utility.yul\":10314:10340   */\n      swap1\n      pop\n        /* \"#utility.yul\":10350:10421   */\n      tag_362\n        /* \"#utility.yul\":10418:10419   */\n      0x00\n        /* \"#utility.yul\":10407:10416   */\n      dup4\n        /* \"#utility.yul\":10403:10420   */\n      add\n        /* \"#utility.yul\":10394:10400   */\n      dup5\n        /* \"#utility.yul\":10350:10421   */\n      tag_292\n      jump\t// in\n    tag_362:\n        /* \"#utility.yul\":10304:10428   */\n      swap3\n      swap2\n      pop\n      pop\n      jump\t// out\n        /* \"#utility.yul\":10434:10864   */\n    tag_143:\n      0x00\n        /* \"#utility.yul\":10615:10617   */\n      0x60\n        /* \"#utility.yul\":10604:10613   */\n      dup3\n        /* \"#utility.yul\":10600:10618   */\n      add\n        /* \"#utility.yul\":10592:10618   */\n      swap1\n      pop\n        /* \"#utility.yul\":10628:10699   */\n      tag_364\n        /* \"#utility.yul\":10696:10697   */\n      0x00\n        /* \"#utility.yul\":10685:10694   */\n      dup4\n        /* \"#utility.yul\":10681:10698   */\n      add\n        /* \"#utility.yul\":10672:10678   */\n      dup7\n        /* \"#utility.yul\":10628:10699   */\n      tag_292\n      jump\t// in\n    tag_364:\n        /* \"#utility.yul\":10709:10781   */\n      tag_365\n        /* \"#utility.yul\":10777:10779   */\n      0x20\n        /* \"#utility.yul\":10766:10775   */\n      dup4\n        /* \"#utility.yul\":10762:10780   */\n      add\n        /* \"#utility.yul\":10753:10759   */\n      dup6\n        /* \"#utility.yul\":10709:10781   */\n      tag_292\n      jump\t// in\n    tag_365:\n        /* \"#utility.yul\":10791:10857   */\n      tag_366\n        /* \"#utility.yul\":10853:10855   */\n      0x40\n        /* \"#utility.yul\":10842:10851   */\n      dup4\n        /* \"#utility.yul\":10838:10856   */\n      add\n        /* \"#utility.yul\":10829:10835   */\n      dup5\n        /* \"#utility.yul\":10791:10857   */\n      tag_296\n      jump\t// in\n    tag_366:\n        /* \"#utility.yul\":10582:10864   */\n      swap5\n      swap4\n      pop\n      pop\n      pop\n      pop\n      jump\t// out\n        /* \"#utility.yul\":10870:11312   */\n    tag_159:\n      0x00\n        /* \"#utility.yul\":11057:11059   */\n      0x60\n        /* \"#utility.yul\":11046:11055   */\n      dup3\n        /* \"#utility.yul\":11042:11060   */\n      add\n        /* \"#utility.yul\":11034:11060   */\n      swap1\n      pop\n        /* \"#utility.yul\":11070:11141   */\n      tag_368\n        /* \"#utility.yul\":11138:11139   */\n      0x00\n        /* \"#utility.yul\":11127:11136   */\n      dup4\n        /* \"#utility.yul\":11123:11140   */\n      add\n        /* \"#utility.yul\":11114:11120   */\n      dup7\n        /* \"#utility.yul\":11070:11141   */\n      tag_292\n      jump\t// in\n    tag_368:\n        /* \"#utility.yul\":11151:11223   */\n      tag_369\n        /* \"#utility.yul\":11219:11221   */\n      0x20\n        /* \"#utility.yul\":11208:11217   */\n      dup4\n        /* \"#utility.yul\":11204:11222   */\n      add\n        /* \"#utility.yul\":11195:11201   */\n      dup6\n        /* \"#utility.yul\":11151:11223   */\n      tag_292\n      jump\t// in\n    tag_369:\n        /* \"#utility.yul\":11233:11305   */\n      tag_370\n        /* \"#utility.yul\":11301:11303   */\n      0x40\n        /* \"#utility.yul\":11290:11299   */\n      dup4\n        /* \"#utility.yul\":11286:11304   */\n      add\n        /* \"#utility.yul\":11277:11283   */\n      dup5\n        /* \"#utility.yul\":11233:11305   */\n      tag_354\n      jump\t// in\n    tag_370:\n        /* \"#utility.yul\":11024:11312   */\n      swap5\n      swap4\n      pop\n      pop\n      pop\n      pop\n      jump\t// out\n        /* \"#utility.yul\":11318:11958   */\n    tag_215:\n      0x00\n        /* \"#utility.yul\":11551:11554   */\n      0x80\n        /* \"#utility.yul\":11540:11549   */\n      dup3\n        /* \"#utility.yul\":11536:11555   */\n      add\n        /* \"#utility.yul\":11528:11555   */\n      swap1\n      pop\n        /* \"#utility.yul\":11565:11636   */\n      tag_372\n        /* \"#utility.yul\":11633:11634   */\n      0x00\n        /* \"#utility.yul\":11622:11631   */\n      dup4\n        /* \"#utility.yul\":11618:11635   */\n      add\n        /* \"#utility.yul\":11609:11615   */\n      dup8\n        /* \"#utility.yul\":11565:11636   */\n      tag_292\n      jump\t// in\n    tag_372:\n        /* \"#utility.yul\":11646:11718   */\n      tag_373\n        /* \"#utility.yul\":11714:11716   */\n      0x20\n        /* \"#utility.yul\":11703:11712   */\n      dup4\n        /* \"#utility.yul\":11699:11717   */\n      add\n        /* \"#utility.yul\":11690:11696   */\n      dup7\n        /* \"#utility.yul\":11646:11718   */\n      tag_292\n      jump\t// in\n    tag_373:\n        /* \"#utility.yul\":11728:11800   */\n      tag_374\n        /* \"#utility.yul\":11796:11798   */\n      0x40\n        /* \"#utility.yul\":11785:11794   */\n      dup4\n        /* \"#utility.yul\":11781:11799   */\n      add\n        /* \"#utility.yul\":11772:11778   */\n      dup6\n        /* \"#utility.yul\":11728:11800   */\n      tag_354\n      jump\t// in\n    tag_374:\n        /* \"#utility.yul\":11847:11856   */\n      dup2\n        /* \"#utility.yul\":11841:11845   */\n      dup2\n        /* \"#utility.yul\":11837:11857   */\n      sub\n        /* \"#utility.yul\":11832:11834   */\n      0x60\n        /* \"#utility.yul\":11821:11830   */\n      dup4\n        /* \"#utility.yul\":11817:11835   */\n      add\n        /* \"#utility.yul\":11810:11858   */\n      mstore\n        /* \"#utility.yul\":11875:11951   */\n      tag_375\n        /* \"#utility.yul\":11946:11950   */\n      dup2\n        /* \"#utility.yul\":11937:11943   */\n      dup5\n        /* \"#utility.yul\":11875:11951   */\n      tag_300\n      jump\t// in\n    tag_375:\n        /* \"#utility.yul\":11867:11951   */\n      swap1\n      pop\n        /* \"#utility.yul\":11518:11958   */\n      swap6\n      swap5\n      pop\n      pop\n      pop\n      pop\n      pop\n      jump\t// out\n        /* \"#utility.yul\":11964:12174   */\n    tag_26:\n      0x00\n        /* \"#utility.yul\":12089:12091   */\n      0x20\n        /* \"#utility.yul\":12078:12087   */\n      dup3\n        /* \"#utility.yul\":12074:12092   */\n      add\n        /* \"#utility.yul\":12066:12092   */\n      swap1\n      pop\n        /* \"#utility.yul\":12102:12167   */\n      tag_377\n        /* \"#utility.yul\":12164:12165   */\n      0x00\n        /* \"#utility.yul\":12153:12162   */\n      dup4\n        /* \"#utility.yul\":12149:12166   */\n      add\n        /* \"#utility.yul\":12140:12146   */\n      dup5\n        /* \"#utility.yul\":12102:12167   */\n      tag_296\n      jump\t// in\n    tag_377:\n        /* \"#utility.yul\":12056:12174   */\n      swap3\n      swap2\n      pop\n      pop\n      jump\t// out\n        /* \"#utility.yul\":12180:12493   */\n    tag_30:\n      0x00\n        /* \"#utility.yul\":12331:12333   */\n      0x20\n        /* \"#utility.yul\":12320:12329   */\n      dup3\n        /* \"#utility.yul\":12316:12334   */\n      add\n        /* \"#utility.yul\":12308:12334   */\n      swap1\n      pop\n        /* \"#utility.yul\":12380:12389   */\n      dup2\n        /* \"#utility.yul\":12374:12378   */\n      dup2\n        /* \"#utility.yul\":12370:12390   */\n      sub\n        /* \"#utility.yul\":12366:12367   */\n      0x00\n        /* \"#utility.yul\":12355:12364   */\n      dup4\n        /* \"#utility.yul\":12351:12368   */\n      add\n        /* \"#utility.yul\":12344:12391   */\n      mstore\n        /* \"#utility.yul\":12408:12486   */\n      tag_379\n        /* \"#utility.yul\":12481:12485   */\n      dup2\n        /* \"#utility.yul\":12472:12478   */\n      dup5\n        /* \"#utility.yul\":12408:12486   */\n      tag_310\n      jump\t// in\n    tag_379:\n        /* \"#utility.yul\":12400:12486   */\n      swap1\n      pop\n        /* \"#utility.yul\":12298:12493   */\n      swap3\n      swap2\n      pop\n      pop\n      jump\t// out\n        /* \"#utility.yul\":12499:12918   */\n    tag_115:\n      0x00\n        /* \"#utility.yul\":12703:12705   */\n      0x20\n        /* \"#utility.yul\":12692:12701   */\n      dup3\n        /* \"#utility.yul\":12688:12706   */\n      add\n        /* \"#utility.yul\":12680:12706   */\n      swap1\n      pop\n        /* \"#utility.yul\":12752:12761   */\n      dup2\n        /* \"#utility.yul\":12746:12750   */\n      dup2\n        /* \"#utility.yul\":12742:12762   */\n      sub\n        /* \"#utility.yul\":12738:12739   */\n      0x00\n        /* \"#utility.yul\":12727:12736   */\n      dup4\n        /* \"#utility.yul\":12723:12740   */\n      add\n        /* \"#utility.yul\":12716:12763   */\n      mstore\n        /* \"#utility.yul\":12780:12911   */\n      tag_381\n        /* \"#utility.yul\":12906:12910   */\n      dup2\n        /* \"#utility.yul\":12780:12911   */\n      tag_324\n      jump\t// in\n    tag_381:\n        /* \"#utility.yul\":12772:12911   */\n      swap1\n      pop\n        /* \"#utility.yul\":12670:12918   */\n      swap2\n      swap1\n      pop\n      jump\t// out\n        /* \"#utility.yul\":12924:13343   */\n    tag_101:\n      0x00\n        /* \"#utility.yul\":13128:13130   */\n      0x20\n        /* \"#utility.yul\":13117:13126   */\n      dup3\n        /* \"#utility.yul\":13113:13131   */\n      add\n        /* \"#utility.yul\":13105:13131   */\n      swap1\n      pop\n        /* \"#utility.yul\":13177:13186   */\n      dup2\n        /* \"#utility.yul\":13171:13175   */\n      dup2\n        /* \"#utility.yul\":13167:13187   */\n      sub\n        /* \"#utility.yul\":13163:13164   */\n      0x00\n        /* \"#utility.yul\":13152:13161   */\n      dup4\n        /* \"#utility.yul\":13148:13165   */\n      add\n        /* \"#utility.yul\":13141:13188   */\n      mstore\n        /* \"#utility.yul\":13205:13336   */\n      tag_383\n        /* \"#utility.yul\":13331:13335   */\n      dup2\n        /* \"#utility.yul\":13205:13336   */\n      tag_327\n      jump\t// in\n    tag_383:\n        /* \"#utility.yul\":13197:13336   */\n      swap1\n      pop\n        /* \"#utility.yul\":13095:13343   */\n      swap2\n      swap1\n      pop\n      jump\t// out\n        /* \"#utility.yul\":13349:13768   */\n    tag_169:\n      0x00\n        /* \"#utility.yul\":13553:13555   */\n      0x20\n        /* \"#utility.yul\":13542:13551   */\n      dup3\n        /* \"#utility.yul\":13538:13556   */\n      add\n        /* \"#utility.yul\":13530:13556   */\n      swap1\n      pop\n        /* \"#utility.yul\":13602:13611   */\n      dup2\n        /* \"#utility.yul\":13596:13600   */\n      dup2\n        /* \"#utility.yul\":13592:13612   */\n      sub\n        /* \"#utility.yul\":13588:13589   */\n      0x00\n        /* \"#utility.yul\":13577:13586   */\n      dup4\n        /* \"#utility.yul\":13573:13590   */\n      add\n        /* \"#utility.yul\":13566:13613   */\n      mstore\n        /* \"#utility.yul\":13630:13761   */\n      tag_385\n        /* \"#utility.yul\":13756:13760   */\n      dup2\n        /* \"#utility.yul\":13630:13761   */\n      tag_330\n      jump\t// in\n    tag_385:\n        /* \"#utility.yul\":13622:13761   */\n      swap1\n      pop\n        /* \"#utility.yul\":13520:13768   */\n      swap2\n      swap1\n      pop\n      jump\t// out\n        /* \"#utility.yul\":13774:14193   */\n    tag_139:\n      0x00\n        /* \"#utility.yul\":13978:13980   */\n      0x20\n        /* \"#utility.yul\":13967:13976   */\n      dup3\n        /* \"#utility.yul\":13963:13981   */\n      add\n        /* \"#utility.yul\":13955:13981   */\n      swap1\n      pop\n        /* \"#utility.yul\":14027:14036   */\n      dup2\n        /* \"#utility.yul\":14021:14025   */\n      dup2\n        /* \"#utility.yul\":14017:14037   */\n      sub\n        /* \"#utility.yul\":14013:14014   */\n      0x00\n        /* \"#utility.yul\":14002:14011   */\n      dup4\n        /* \"#utility.yul\":13998:14015   */\n      add\n        /* \"#utility.yul\":13991:14038   */\n      mstore\n        /* \"#utility.yul\":14055:14186   */\n      tag_387\n        /* \"#utility.yul\":14181:14185   */\n      dup2\n        /* \"#utility.yul\":14055:14186   */\n      tag_333\n      jump\t// in\n    tag_387:\n        /* \"#utility.yul\":14047:14186   */\n      swap1\n      pop\n        /* \"#utility.yul\":13945:14193   */\n      swap2\n      swap1\n      pop\n      jump\t// out\n        /* \"#utility.yul\":14199:14618   */\n    tag_96:\n      0x00\n        /* \"#utility.yul\":14403:14405   */\n      0x20\n        /* \"#utility.yul\":14392:14401   */\n      dup3\n        /* \"#utility.yul\":14388:14406   */\n      add\n        /* \"#utility.yul\":14380:14406   */\n      swap1\n      pop\n        /* \"#utility.yul\":14452:14461   */\n      dup2\n        /* \"#utility.yul\":14446:14450   */\n      dup2\n        /* \"#utility.yul\":14442:14462   */\n      sub\n        /* \"#utility.yul\":14438:14439   */\n      0x00\n        /* \"#utility.yul\":14427:14436   */\n      dup4\n        /* \"#utility.yul\":14423:14440   */\n      add\n        /* \"#utility.yul\":14416:14463   */\n      mstore\n        /* \"#utility.yul\":14480:14611   */\n      tag_389\n        /* \"#utility.yul\":14606:14610   */\n      dup2\n        /* \"#utility.yul\":14480:14611   */\n      tag_336\n      jump\t// in\n    tag_389:\n        /* \"#utility.yul\":14472:14611   */\n      swap1\n      pop\n        /* \"#utility.yul\":14370:14618   */\n      swap2\n      swap1\n      pop\n      jump\t// out\n        /* \"#utility.yul\":14624:15043   */\n    tag_181:\n      0x00\n        /* \"#utility.yul\":14828:14830   */\n      0x20\n        /* \"#utility.yul\":14817:14826   */\n      dup3\n        /* \"#utility.yul\":14813:14831   */\n      add\n        /* \"#utility.yul\":14805:14831   */\n      swap1\n      pop\n        /* \"#utility.yul\":14877:14886   */\n      dup2\n        /* \"#utility.yul\":14871:14875   */\n      dup2\n        /* \"#utility.yul\":14867:14887   */\n      sub\n        /* \"#utility.yul\":14863:14864   */\n      0x00\n        /* \"#utility.yul\":14852:14861   */\n      dup4\n        /* \"#utility.yul\":14848:14865   */\n      add\n        /* \"#utility.yul\":14841:14888   */\n      mstore\n        /* \"#utility.yul\":14905:15036   */\n      tag_391\n        /* \"#utility.yul\":15031:15035   */\n      dup2\n        /* \"#utility.yul\":14905:15036   */\n      tag_339\n      jump\t// in\n    tag_391:\n        /* \"#utility.yul\":14897:15036   */\n      swap1\n      pop\n        /* \"#utility.yul\":14795:15043   */\n      swap2\n      swap1\n      pop\n      jump\t// out\n        /* \"#utility.yul\":15049:15468   */\n    tag_128:\n      0x00\n        /* \"#utility.yul\":15253:15255   */\n      0x20\n        /* \"#utility.yul\":15242:15251   */\n      dup3\n        /* \"#utility.yul\":15238:15256   */\n      add\n        /* \"#utility.yul\":15230:15256   */\n      swap1\n      pop\n        /* \"#utility.yul\":15302:15311   */\n      dup2\n        /* \"#utility.yul\":15296:15300   */\n      dup2\n        /* \"#utility.yul\":15292:15312   */\n      sub\n        /* \"#utility.yul\":15288:15289   */\n      0x00\n        /* \"#utility.yul\":15277:15286   */\n      dup4\n        /* \"#utility.yul\":15273:15290   */\n      add\n        /* \"#utility.yul\":15266:15313   */\n      mstore\n        /* \"#utility.yul\":15330:15461   */\n      tag_393\n        /* \"#utility.yul\":15456:15460   */\n      dup2\n        /* \"#utility.yul\":15330:15461   */\n      tag_342\n      jump\t// in\n    tag_393:\n        /* \"#utility.yul\":15322:15461   */\n      swap1\n      pop\n        /* \"#utility.yul\":15220:15468   */\n      swap2\n      swap1\n      pop\n      jump\t// out\n        /* \"#utility.yul\":15474:15893   */\n    tag_147:\n      0x00\n        /* \"#utility.yul\":15678:15680   */\n      0x20\n        /* \"#utility.yul\":15667:15676   */\n      dup3\n        /* \"#utility.yul\":15663:15681   */\n      add\n        /* \"#utility.yul\":15655:15681   */\n      swap1\n      pop\n        /* \"#utility.yul\":15727:15736   */\n      dup2\n        /* \"#utility.yul\":15721:15725   */\n      dup2\n        /* \"#utility.yul\":15717:15737   */\n      sub\n        /* \"#utility.yul\":15713:15714   */\n      0x00\n        /* \"#utility.yul\":15702:15711   */\n      dup4\n        /* \"#utility.yul\":15698:15715   */\n      add\n        /* \"#utility.yul\":15691:15738   */\n      mstore\n        /* \"#utility.yul\":15755:15886   */\n      tag_395\n        /* \"#utility.yul\":15881:15885   */\n      dup2\n        /* \"#utility.yul\":15755:15886   */\n      tag_345\n      jump\t// in\n    tag_395:\n        /* \"#utility.yul\":15747:15886   */\n      swap1\n      pop\n        /* \"#utility.yul\":15645:15893   */\n      swap2\n      swap1\n      pop\n      jump\t// out\n        /* \"#utility.yul\":15899:16318   */\n    tag_190:\n      0x00\n        /* \"#utility.yul\":16103:16105   */\n      0x20\n        /* \"#utility.yul\":16092:16101   */\n      dup3\n        /* \"#utility.yul\":16088:16106   */\n      add\n        /* \"#utility.yul\":16080:16106   */\n      swap1\n      pop\n        /* \"#utility.yul\":16152:16161   */\n      dup2\n        /* \"#utility.yul\":16146:16150   */\n      dup2\n        /* \"#utility.yul\":16142:16162   */\n      sub\n        /* \"#utility.yul\":16138:16139   */\n      0x00\n        /* \"#utility.yul\":16127:16136   */\n      dup4\n        /* \"#utility.yul\":16123:16140   */\n      add\n        /* \"#utility.yul\":16116:16163   */\n      mstore\n        /* \"#utility.yul\":16180:16311   */\n      tag_397\n        /* \"#utility.yul\":16306:16310   */\n      dup2\n        /* \"#utility.yul\":16180:16311   */\n      tag_348\n      jump\t// in\n    tag_397:\n        /* \"#utility.yul\":16172:16311   */\n      swap1\n      pop\n        /* \"#utility.yul\":16070:16318   */\n      swap2\n      swap1\n      pop\n      jump\t// out\n        /* \"#utility.yul\":16324:16743   */\n    tag_166:\n      0x00\n        /* \"#utility.yul\":16528:16530   */\n      0x20\n        /* \"#utility.yul\":16517:16526   */\n      dup3\n        /* \"#utility.yul\":16513:16531   */\n      add\n        /* \"#utility.yul\":16505:16531   */\n      swap1\n      pop\n        /* \"#utility.yul\":16577:16586   */\n      dup2\n        /* \"#utility.yul\":16571:16575   */\n      dup2\n        /* \"#utility.yul\":16567:16587   */\n      sub\n        /* \"#utility.yul\":16563:16564   */\n      0x00\n        /* \"#utility.yul\":16552:16561   */\n      dup4\n        /* \"#utility.yul\":16548:16565   */\n      add\n        /* \"#utility.yul\":16541:16588   */\n      mstore\n        /* \"#utility.yul\":16605:16736   */\n      tag_399\n        /* \"#utility.yul\":16731:16735   */\n      dup2\n        /* \"#utility.yul\":16605:16736   */\n      tag_351\n      jump\t// in\n    tag_399:\n        /* \"#utility.yul\":16597:16736   */\n      swap1\n      pop\n        /* \"#utility.yul\":16495:16743   */\n      swap2\n      swap1\n      pop\n      jump\t// out\n        /* \"#utility.yul\":16749:16971   */\n    tag_54:\n      0x00\n        /* \"#utility.yul\":16880:16882   */\n      0x20\n        /* \"#utility.yul\":16869:16878   */\n      dup3\n        /* \"#utility.yul\":16865:16883   */\n      add\n        /* \"#utility.yul\":16857:16883   */\n      swap1\n      pop\n        /* \"#utility.yul\":16893:16964   */\n      tag_401\n        /* \"#utility.yul\":16961:16962   */\n      0x00\n        /* \"#utility.yul\":16950:16959   */\n      dup4\n        /* \"#utility.yul\":16946:16963   */\n      add\n        /* \"#utility.yul\":16937:16943   */\n      dup5\n        /* \"#utility.yul\":16893:16964   */\n      tag_354\n      jump\t// in\n    tag_401:\n        /* \"#utility.yul\":16847:16971   */\n      swap3\n      swap2\n      pop\n      pop\n      jump\t// out\n        /* \"#utility.yul\":16977:17260   */\n    tag_229:\n      0x00\n        /* \"#utility.yul\":17043:17045   */\n      0x40\n        /* \"#utility.yul\":17037:17046   */\n      mload\n        /* \"#utility.yul\":17027:17046   */\n      swap1\n      pop\n        /* \"#utility.yul\":17085:17089   */\n      dup2\n        /* \"#utility.yul\":17077:17083   */\n      dup2\n        /* \"#utility.yul\":17073:17090   */\n      add\n        /* \"#utility.yul\":17192:17198   */\n      dup2\n        /* \"#utility.yul\":17180:17190   */\n      dup2\n        /* \"#utility.yul\":17177:17199   */\n      lt\n        /* \"#utility.yul\":17156:17174   */\n      0xffffffffffffffff\n        /* \"#utility.yul\":17144:17154   */\n      dup3\n        /* \"#utility.yul\":17141:17175   */\n      gt\n        /* \"#utility.yul\":17138:17200   */\n      or\n        /* \"#utility.yul\":17135:17137   */\n      iszero\n      tag_403\n      jumpi\n        /* \"#utility.yul\":17203:17221   */\n      tag_404\n      tag_405\n      jump\t// in\n    tag_404:\n        /* \"#utility.yul\":17135:17137   */\n    tag_403:\n        /* \"#utility.yul\":17243:17253   */\n      dup1\n        /* \"#utility.yul\":17239:17241   */\n      0x40\n        /* \"#utility.yul\":17232:17254   */\n      mstore\n        /* \"#utility.yul\":17017:17260   */\n      pop\n      swap2\n      swap1\n      pop\n      jump\t// out\n        /* \"#utility.yul\":17266:17597   */\n    tag_228:\n      0x00\n        /* \"#utility.yul\":17417:17435   */\n      0xffffffffffffffff\n        /* \"#utility.yul\":17409:17415   */\n      dup3\n        /* \"#utility.yul\":17406:17436   */\n      gt\n        /* \"#utility.yul\":17403:17405   */\n      iszero\n      tag_407\n      jumpi\n        /* \"#utility.yul\":17439:17457   */\n      tag_408\n      tag_405\n      jump\t// in\n    tag_408:\n        /* \"#utility.yul\":17403:17405   */\n    tag_407:\n        /* \"#utility.yul\":17524:17528   */\n      0x1f\n        /* \"#utility.yul\":17520:17529   */\n      not\n        /* \"#utility.yul\":17513:17517   */\n      0x1f\n        /* \"#utility.yul\":17505:17511   */\n      dup4\n        /* \"#utility.yul\":17501:17518   */\n      add\n        /* \"#utility.yul\":17497:17530   */\n      and\n        /* \"#utility.yul\":17489:17530   */\n      swap1\n      pop\n        /* \"#utility.yul\":17585:17589   */\n      0x20\n        /* \"#utility.yul\":17579:17583   */\n      dup2\n        /* \"#utility.yul\":17575:17590   */\n      add\n        /* \"#utility.yul\":17567:17590   */\n      swap1\n      pop\n        /* \"#utility.yul\":17332:17597   */\n      swap2\n      swap1\n      pop\n      jump\t// out\n        /* \"#utility.yul\":17603:17701   */\n    tag_303:\n      0x00\n        /* \"#utility.yul\":17688:17693   */\n      dup2\n        /* \"#utility.yul\":17682:17694   */\n      mload\n        /* \"#utility.yul\":17672:17694   */\n      swap1\n      pop\n        /* \"#utility.yul\":17661:17701   */\n      swap2\n      swap1\n      pop\n      jump\t// out\n        /* \"#utility.yul\":17707:17806   */\n    tag_313:\n      0x00\n        /* \"#utility.yul\":17793:17798   */\n      dup2\n        /* \"#utility.yul\":17787:17799   */\n      mload\n        /* \"#utility.yul\":17777:17799   */\n      swap1\n      pop\n        /* \"#utility.yul\":17766:17806   */\n      swap2\n      swap1\n      pop\n      jump\t// out\n        /* \"#utility.yul\":17812:17980   */\n    tag_305:\n      0x00\n        /* \"#utility.yul\":17929:17935   */\n      dup3\n        /* \"#utility.yul\":17924:17927   */\n      dup3\n        /* \"#utility.yul\":17917:17936   */\n      mstore\n        /* \"#utility.yul\":17969:17973   */\n      0x20\n        /* \"#utility.yul\":17964:17967   */\n      dup3\n        /* \"#utility.yul\":17960:17974   */\n      add\n        /* \"#utility.yul\":17945:17974   */\n      swap1\n      pop\n        /* \"#utility.yul\":17907:17980   */\n      swap3\n      swap2\n      pop\n      pop\n      jump\t// out\n        /* \"#utility.yul\":17986:18155   */\n    tag_315:\n      0x00\n        /* \"#utility.yul\":18104:18110   */\n      dup3\n        /* \"#utility.yul\":18099:18102   */\n      dup3\n        /* \"#utility.yul\":18092:18111   */\n      mstore\n        /* \"#utility.yul\":18144:18148   */\n      0x20\n        /* \"#utility.yul\":18139:18142   */\n      dup3\n        /* \"#utility.yul\":18135:18149   */\n      add\n        /* \"#utility.yul\":18120:18149   */\n      swap1\n      pop\n        /* \"#utility.yul\":18082:18155   */\n      swap3\n      swap2\n      pop\n      pop\n      jump\t// out\n        /* \"#utility.yul\":18161:18309   */\n    tag_322:\n      0x00\n        /* \"#utility.yul\":18300:18303   */\n      dup2\n        /* \"#utility.yul\":18285:18303   */\n      swap1\n      pop\n        /* \"#utility.yul\":18275:18309   */\n      swap3\n      swap2\n      pop\n      pop\n      jump\t// out\n        /* \"#utility.yul\":18315:18620   */\n    tag_174:\n      0x00\n        /* \"#utility.yul\":18374:18394   */\n      tag_415\n        /* \"#utility.yul\":18392:18393   */\n      dup3\n        /* \"#utility.yul\":18374:18394   */\n      tag_357\n      jump\t// in\n    tag_415:\n        /* \"#utility.yul\":18369:18394   */\n      swap2\n      pop\n        /* \"#utility.yul\":18408:18428   */\n      tag_416\n        /* \"#utility.yul\":18426:18427   */\n      dup4\n        /* \"#utility.yul\":18408:18428   */\n      tag_357\n      jump\t// in\n    tag_416:\n        /* \"#utility.yul\":18403:18428   */\n      swap3\n      pop\n        /* \"#utility.yul\":18562:18563   */\n      dup3\n        /* \"#utility.yul\":18494:18560   */\n      0xffffffffffffffffffffffffffffffffffffffffffffffffffffffffffffffff\n        /* \"#utility.yul\":18490:18564   */\n      sub\n        /* \"#utility.yul\":18487:18488   */\n      dup3\n        /* \"#utility.yul\":18484:18565   */\n      gt\n        /* \"#utility.yul\":18481:18483   */\n      iszero\n      tag_417\n      jumpi\n        /* \"#utility.yul\":18568:18586   */\n      tag_418\n      tag_419\n      jump\t// in\n    tag_418:\n        /* \"#utility.yul\":18481:18483   */\n    tag_417:\n        /* \"#utility.yul\":18612:18613   */\n      dup3\n        /* \"#utility.yul\":18609:18610   */\n      dup3\n        /* \"#utility.yul\":18605:18614   */\n      add\n        /* \"#utility.yul\":18598:18614   */\n      swap1\n      pop\n        /* \"#utility.yul\":18359:18620   */\n      swap3\n      swap2\n      pop\n      pop\n      jump\t// out\n        /* \"#utility.yul\":18626:18811   */\n    tag_199:\n      0x00\n        /* \"#utility.yul\":18683:18703   */\n      tag_421\n        /* \"#utility.yul\":18701:18702   */\n      dup3\n        /* \"#utility.yul\":18683:18703   */\n      tag_357\n      jump\t// in\n    tag_421:\n        /* \"#utility.yul\":18678:18703   */\n      swap2\n      pop\n        /* \"#utility.yul\":18717:18737   */\n      tag_422\n        /* \"#utility.yul\":18735:18736   */\n      dup4\n        /* \"#utility.yul\":18717:18737   */\n      tag_357\n      jump\t// in\n    tag_422:\n        /* \"#utility.yul\":18712:18737   */\n      swap3\n      pop\n        /* \"#utility.yul\":18756:18757   */\n      dup3\n        /* \"#utility.yul\":18746:18748   */\n      tag_423\n      jumpi\n        /* \"#utility.yul\":18761:18779   */\n      tag_424\n      tag_425\n      jump\t// in\n    tag_424:\n        /* \"#utility.yul\":18746:18748   */\n    tag_423:\n        /* \"#utility.yul\":18803:18804   */\n      dup3\n        /* \"#utility.yul\":18800:18801   */\n      dup3\n        /* \"#utility.yul\":18796:18805   */\n      div\n        /* \"#utility.yul\":18791:18805   */\n      swap1\n      pop\n        /* \"#utility.yul\":18668:18811   */\n      swap3\n      swap2\n      pop\n      pop\n      jump\t// out\n        /* \"#utility.yul\":18817:19008   */\n    tag_172:\n      0x00\n        /* \"#utility.yul\":18877:18897   */\n      tag_427\n        /* \"#utility.yul\":18895:18896   */\n      dup3\n        /* \"#utility.yul\":18877:18897   */\n      tag_357\n      jump\t// in\n    tag_427:\n        /* \"#utility.yul\":18872:18897   */\n      swap2\n      pop\n        /* \"#utility.yul\":18911:18931   */\n      tag_428\n        /* \"#utility.yul\":18929:18930   */\n      dup4\n        /* \"#utility.yul\":18911:18931   */\n      tag_357\n      jump\t// in\n    tag_428:\n        /* \"#utility.yul\":18906:18931   */\n      swap3\n      pop\n        /* \"#utility.yul\":18950:18951   */\n      dup3\n        /* \"#utility.yul\":18947:18948   */\n      dup3\n        /* \"#utility.yul\":18944:18952   */\n      lt\n        /* \"#utility.yul\":18941:18943   */\n      iszero\n      tag_429\n      jumpi\n        /* \"#utility.yul\":18955:18973   */\n      tag_430\n      tag_419\n      jump\t// in\n    tag_430:\n        /* \"#utility.yul\":18941:18943   */\n    tag_429:\n        /* \"#utility.yul\":19000:19001   */\n      dup3\n        /* \"#utility.yul\":18997:18998   */\n      dup3\n        /* \"#utility.yul\":18993:19002   */\n      sub\n        /* \"#utility.yul\":18985:19002   */\n      swap1\n      pop\n        /* \"#utility.yul\":18862:19008   */\n      swap3\n      swap2\n      pop\n      pop\n      jump\t// out\n        /* \"#utility.yul\":19014:19110   */\n    tag_295:\n      0x00\n        /* \"#utility.yul\":19080:19104   */\n      tag_432\n        /* \"#utility.yul\":19098:19103   */\n      dup3\n        /* \"#utility.yul\":19080:19104   */\n      tag_433\n      jump\t// in\n    tag_432:\n        /* \"#utility.yul\":19069:19104   */\n      swap1\n      pop\n        /* \"#utility.yul\":19059:19110   */\n      swap2\n      swap1\n      pop\n      jump\t// out\n        /* \"#utility.yul\":19116:19206   */\n    tag_299:\n      0x00\n        /* \"#utility.yul\":19193:19198   */\n      dup2\n        /* \"#utility.yul\":19186:19199   */\n      iszero\n        /* \"#utility.yul\":19179:19200   */\n      iszero\n        /* \"#utility.yul\":19168:19200   */\n      swap1\n      pop\n        /* \"#utility.yul\":19158:19206   */\n      swap2\n      swap1\n      pop\n      jump\t// out\n        /* \"#utility.yul\":19212:19361   */\n    tag_435:\n      0x00\n        /* \"#utility.yul\":19288:19354   */\n      0xffffffff00000000000000000000000000000000000000000000000000000000\n        /* \"#utility.yul\":19281:19286   */\n      dup3\n        /* \"#utility.yul\":19277:19355   */\n      and\n        /* \"#utility.yul\":19266:19355   */\n      swap1\n      pop\n        /* \"#utility.yul\":19256:19361   */\n      swap2\n      swap1\n      pop\n      jump\t// out\n        /* \"#utility.yul\":19367:19493   */\n    tag_433:\n      0x00\n        /* \"#utility.yul\":19444:19486   */\n      0xffffffffffffffffffffffffffffffffffffffff\n        /* \"#utility.yul\":19437:19442   */\n      dup3\n        /* \"#utility.yul\":19433:19487   */\n      and\n        /* \"#utility.yul\":19422:19487   */\n      swap1\n      pop\n        /* \"#utility.yul\":19412:19493   */\n      swap2\n      swap1\n      pop\n      jump\t// out\n        /* \"#utility.yul\":19499:19576   */\n    tag_357:\n      0x00\n        /* \"#utility.yul\":19565:19570   */\n      dup2\n        /* \"#utility.yul\":19554:19570   */\n      swap1\n      pop\n        /* \"#utility.yul\":19544:19576   */\n      swap2\n      swap1\n      pop\n      jump\t// out\n        /* \"#utility.yul\":19582:19736   */\n    tag_232:\n        /* \"#utility.yul\":19666:19672   */\n      dup3\n        /* \"#utility.yul\":19661:19664   */\n      dup2\n        /* \"#utility.yul\":19656:19659   */\n      dup4\n        /* \"#utility.yul\":19643:19673   */\n      calldatacopy\n        /* \"#utility.yul\":19728:19729   */\n      0x00\n        /* \"#utility.yul\":19719:19725   */\n      dup4\n        /* \"#utility.yul\":19714:19717   */\n      dup4\n        /* \"#utility.yul\":19710:19726   */\n      add\n        /* \"#utility.yul\":19703:19730   */\n      mstore\n        /* \"#utility.yul\":19633:19736   */\n      pop\n      pop\n      pop\n      jump\t// out\n        /* \"#utility.yul\":19742:20049   */\n    tag_307:\n        /* \"#utility.yul\":19810:19811   */\n      0x00\n        /* \"#utility.yul\":19820:19933   */\n    tag_441:\n        /* \"#utility.yul\":19834:19840   */\n      dup4\n        /* \"#utility.yul\":19831:19832   */\n      dup2\n        /* \"#utility.yul\":19828:19841   */\n      lt\n        /* \"#utility.yul\":19820:19933   */\n      iszero\n      tag_443\n      jumpi\n        /* \"#utility.yul\":19919:19920   */\n      dup1\n        /* \"#utility.yul\":19914:19917   */\n      dup3\n        /* \"#utility.yul\":19910:19921   */\n      add\n        /* \"#utility.yul\":19904:19922   */\n      mload\n        /* \"#utility.yul\":19900:19901   */\n      dup2\n        /* \"#utility.yul\":19895:19898   */\n      dup5\n        /* \"#utility.yul\":19891:19902   */\n      add\n        /* \"#utility.yul\":19884:19923   */\n      mstore\n        /* \"#utility.yul\":19856:19858   */\n      0x20\n        /* \"#utility.yul\":19853:19854   */\n      dup2\n        /* \"#utility.yul\":19849:19859   */\n      add\n        /* \"#utility.yul\":19844:19859   */\n      swap1\n      pop\n        /* \"#utility.yul\":19820:19933   */\n      jump(tag_441)\n    tag_443:\n        /* \"#utility.yul\":19951:19957   */\n      dup4\n        /* \"#utility.yul\":19948:19949   */\n      dup2\n        /* \"#utility.yul\":19945:19958   */\n      gt\n        /* \"#utility.yul\":19942:19944   */\n      iszero\n      tag_444\n      jumpi\n        /* \"#utility.yul\":20031:20032   */\n      0x00\n        /* \"#utility.yul\":20022:20028   */\n      dup5\n        /* \"#utility.yul\":20017:20020   */\n      dup5\n        /* \"#utility.yul\":20013:20029   */\n      add\n        /* \"#utility.yul\":20006:20033   */\n      mstore\n        /* \"#utility.yul\":19942:19944   */\n    tag_444:\n        /* \"#utility.yul\":19791:20049   */\n      pop\n      pop\n      pop\n      pop\n      jump\t// out\n        /* \"#utility.yul\":20055:20375   */\n    tag_88:\n      0x00\n        /* \"#utility.yul\":20136:20137   */\n      0x02\n        /* \"#utility.yul\":20130:20134   */\n      dup3\n        /* \"#utility.yul\":20126:20138   */\n      div\n        /* \"#utility.yul\":20116:20138   */\n      swap1\n      pop\n        /* \"#utility.yul\":20183:20184   */\n      0x01\n        /* \"#utility.yul\":20177:20181   */\n      dup3\n        /* \"#utility.yul\":20173:20185   */\n      and\n        /* \"#utility.yul\":20204:20222   */\n      dup1\n        /* \"#utility.yul\":20194:20196   */\n      tag_446\n      jumpi\n        /* \"#utility.yul\":20260:20264   */\n      0x7f\n        /* \"#utility.yul\":20252:20258   */\n      dup3\n        /* \"#utility.yul\":20248:20265   */\n      and\n        /* \"#utility.yul\":20238:20265   */\n      swap2\n      pop\n        /* \"#utility.yul\":20194:20196   */\n    tag_446:\n        /* \"#utility.yul\":20322:20324   */\n      0x20\n        /* \"#utility.yul\":20314:20320   */\n      dup3\n        /* \"#utility.yul\":20311:20325   */\n      lt\n        /* \"#utility.yul\":20291:20309   */\n      dup2\n        /* \"#utility.yul\":20288:20326   */\n      eq\n        /* \"#utility.yul\":20285:20287   */\n      iszero\n      tag_447\n      jumpi\n        /* \"#utility.yul\":20341:20359   */\n      tag_448\n      tag_449\n      jump\t// in\n    tag_448:\n        /* \"#utility.yul\":20285:20287   */\n    tag_447:\n        /* \"#utility.yul\":20106:20375   */\n      pop\n      swap2\n      swap1\n      pop\n      jump\t// out\n        /* \"#utility.yul\":20381:20614   */\n    tag_197:\n      0x00\n        /* \"#utility.yul\":20443:20467   */\n      tag_451\n        /* \"#utility.yul\":20461:20466   */\n      dup3\n        /* \"#utility.yul\":20443:20467   */\n      tag_357\n      jump\t// in\n    tag_451:\n        /* \"#utility.yul\":20434:20467   */\n      swap2\n      pop\n        /* \"#utility.yul\":20489:20555   */\n      0xffffffffffffffffffffffffffffffffffffffffffffffffffffffffffffffff\n        /* \"#utility.yul\":20482:20487   */\n      dup3\n        /* \"#utility.yul\":20479:20556   */\n      eq\n        /* \"#utility.yul\":20476:20478   */\n      iszero\n      tag_452\n      jumpi\n        /* \"#utility.yul\":20559:20577   */\n      tag_453\n      tag_419\n      jump\t// in\n    tag_453:\n        /* \"#utility.yul\":20476:20478   */\n    tag_452:\n        /* \"#utility.yul\":20606:20607   */\n      0x01\n        /* \"#utility.yul\":20599:20604   */\n      dup3\n        /* \"#utility.yul\":20595:20608   */\n      add\n        /* \"#utility.yul\":20588:20608   */\n      swap1\n      pop\n        /* \"#utility.yul\":20424:20614   */\n      swap2\n      swap1\n      pop\n      jump\t// out\n        /* \"#utility.yul\":20620:20796   */\n    tag_206:\n      0x00\n        /* \"#utility.yul\":20669:20689   */\n      tag_455\n        /* \"#utility.yul\":20687:20688   */\n      dup3\n        /* \"#utility.yul\":20669:20689   */\n      tag_357\n      jump\t// in\n    tag_455:\n        /* \"#utility.yul\":20664:20689   */\n      swap2\n      pop\n        /* \"#utility.yul\":20703:20723   */\n      tag_456\n        /* \"#utility.yul\":20721:20722   */\n      dup4\n        /* \"#utility.yul\":20703:20723   */\n      tag_357\n      jump\t// in\n    tag_456:\n        /* \"#utility.yul\":20698:20723   */\n      swap3\n      pop\n        /* \"#utility.yul\":20742:20743   */\n      dup3\n        /* \"#utility.yul\":20732:20734   */\n      tag_457\n      jumpi\n        /* \"#utility.yul\":20747:20765   */\n      tag_458\n      tag_425\n      jump\t// in\n    tag_458:\n        /* \"#utility.yul\":20732:20734   */\n    tag_457:\n        /* \"#utility.yul\":20788:20789   */\n      dup3\n        /* \"#utility.yul\":20785:20786   */\n      dup3\n        /* \"#utility.yul\":20781:20790   */\n      mod\n        /* \"#utility.yul\":20776:20790   */\n      swap1\n      pop\n        /* \"#utility.yul\":20654:20796   */\n      swap3\n      swap2\n      pop\n      pop\n      jump\t// out\n        /* \"#utility.yul\":20802:20982   */\n    tag_419:\n        /* \"#utility.yul\":20850:20927   */\n      0x4e487b7100000000000000000000000000000000000000000000000000000000\n        /* \"#utility.yul\":20847:20848   */\n      0x00\n        /* \"#utility.yul\":20840:20928   */\n      mstore\n        /* \"#utility.yul\":20947:20951   */\n      0x11\n        /* \"#utility.yul\":20944:20945   */\n      0x04\n        /* \"#utility.yul\":20937:20952   */\n      mstore\n        /* \"#utility.yul\":20971:20975   */\n      0x24\n        /* \"#utility.yul\":20968:20969   */\n      0x00\n        /* \"#utility.yul\":20961:20976   */\n      revert\n        /* \"#utility.yul\":20988:21168   */\n    tag_425:\n        /* \"#utility.yul\":21036:21113   */\n      0x4e487b7100000000000000000000000000000000000000000000000000000000\n        /* \"#utility.yul\":21033:21034   */\n      0x00\n        /* \"#utility.yul\":21026:21114   */\n      mstore\n        /* \"#utility.yul\":21133:21137   */\n      0x12\n        /* \"#utility.yul\":21130:21131   */\n      0x04\n        /* \"#utility.yul\":21123:21138   */\n      mstore\n        /* \"#utility.yul\":21157:21161   */\n      0x24\n        /* \"#utility.yul\":21154:21155   */\n      0x00\n        /* \"#utility.yul\":21147:21162   */\n      revert\n        /* \"#utility.yul\":21174:21354   */\n    tag_449:\n        /* \"#utility.yul\":21222:21299   */\n      0x4e487b7100000000000000000000000000000000000000000000000000000000\n        /* \"#utility.yul\":21219:21220   */\n      0x00\n        /* \"#utility.yul\":21212:21300   */\n      mstore\n        /* \"#utility.yul\":21319:21323   */\n      0x22\n        /* \"#utility.yul\":21316:21317   */\n      0x04\n        /* \"#utility.yul\":21309:21324   */\n      mstore\n        /* \"#utility.yul\":21343:21347   */\n      0x24\n        /* \"#utility.yul\":21340:21341   */\n      0x00\n        /* \"#utility.yul\":21333:21348   */\n      revert\n        /* \"#utility.yul\":21360:21540   */\n    tag_405:\n        /* \"#utility.yul\":21408:21485   */\n      0x4e487b7100000000000000000000000000000000000000000000000000000000\n        /* \"#utility.yul\":21405:21406   */\n      0x00\n        /* \"#utility.yul\":21398:21486   */\n      mstore\n        /* \"#utility.yul\":21505:21509   */\n      0x41\n        /* \"#utility.yul\":21502:21503   */\n      0x04\n        /* \"#utility.yul\":21495:21510   */\n      mstore\n        /* \"#utility.yul\":21529:21533   */\n      0x24\n        /* \"#utility.yul\":21526:21527   */\n      0x00\n        /* \"#utility.yul\":21519:21534   */\n      revert\n        /* \"#utility.yul\":21546:21648   */\n    tag_309:\n      0x00\n        /* \"#utility.yul\":21638:21640   */\n      0x1f\n        /* \"#utility.yul\":21634:21641   */\n      not\n        /* \"#utility.yul\":21629:21631   */\n      0x1f\n        /* \"#utility.yul\":21622:21627   */\n      dup4\n        /* \"#utility.yul\":21618:21632   */\n      add\n        /* \"#utility.yul\":21614:21642   */\n      and\n        /* \"#utility.yul\":21604:21642   */\n      swap1\n      pop\n        /* \"#utility.yul\":21594:21648   */\n      swap2\n      swap1\n      pop\n      jump\t// out\n        /* \"#utility.yul\":21654:21776   */\n    tag_236:\n        /* \"#utility.yul\":21727:21751   */\n      tag_465\n        /* \"#utility.yul\":21745:21750   */\n      dup2\n        /* \"#utility.yul\":21727:21751   */\n      tag_295\n      jump\t// in\n    tag_465:\n        /* \"#utility.yul\":21720:21725   */\n      dup2\n        /* \"#utility.yul\":21717:21752   */\n      eq\n        /* \"#utility.yul\":21707:21709   */\n      tag_466\n      jumpi\n        /* \"#utility.yul\":21766:21767   */\n      0x00\n        /* \"#utility.yul\":21763:21764   */\n      dup1\n        /* \"#utility.yul\":21756:21768   */\n      revert\n        /* \"#utility.yul\":21707:21709   */\n    tag_466:\n        /* \"#utility.yul\":21697:21776   */\n      pop\n      jump\t// out\n        /* \"#utility.yul\":21782:21898   */\n    tag_240:\n        /* \"#utility.yul\":21852:21873   */\n      tag_468\n        /* \"#utility.yul\":21867:21872   */\n      dup2\n        /* \"#utility.yul\":21852:21873   */\n      tag_299\n      jump\t// in\n    tag_468:\n        /* \"#utility.yul\":21845:21850   */\n      dup2\n        /* \"#utility.yul\":21842:21874   */\n      eq\n        /* \"#utility.yul\":21832:21834   */\n      tag_469\n      jumpi\n        /* \"#utility.yul\":21888:21889   */\n      0x00\n        /* \"#utility.yul\":21885:21886   */\n      dup1\n        /* \"#utility.yul\":21878:21890   */\n      revert\n        /* \"#utility.yul\":21832:21834   */\n    tag_469:\n        /* \"#utility.yul\":21822:21898   */\n      pop\n      jump\t// out\n        /* \"#utility.yul\":21904:22024   */\n    tag_244:\n        /* \"#utility.yul\":21976:21999   */\n      tag_471\n        /* \"#utility.yul\":21993:21998   */\n      dup2\n        /* \"#utility.yul\":21976:21999   */\n      tag_435\n      jump\t// in\n    tag_471:\n        /* \"#utility.yul\":21969:21974   */\n      dup2\n        /* \"#utility.yul\":21966:22000   */\n      eq\n        /* \"#utility.yul\":21956:21958   */\n      tag_472\n      jumpi\n        /* \"#utility.yul\":22014:22015   */\n      0x00\n        /* \"#utility.yul\":22011:22012   */\n      dup1\n        /* \"#utility.yul\":22004:22016   */\n      revert\n        /* \"#utility.yul\":21956:21958   */\n    tag_472:\n        /* \"#utility.yul\":21946:22024   */\n      pop\n      jump\t// out\n        /* \"#utility.yul\":22030:22152   */\n    tag_255:\n        /* \"#utility.yul\":22103:22127   */\n      tag_474\n        /* \"#utility.yul\":22121:22126   */\n      dup2\n        /* \"#utility.yul\":22103:22127   */\n      tag_357\n      jump\t// in\n    tag_474:\n        /* \"#utility.yul\":22096:22101   */\n      dup2\n        /* \"#utility.yul\":22093:22128   */\n      eq\n        /* \"#utility.yul\":22083:22085   */\n      tag_475\n      jumpi\n        /* \"#utility.yul\":22142:22143   */\n      0x00\n        /* \"#utility.yul\":22139:22140   */\n      dup1\n        /* \"#utility.yul\":22132:22144   */\n      revert\n        /* \"#utility.yul\":22083:22085   */\n    tag_475:\n        /* \"#utility.yul\":22073:22152   */\n      pop\n      jump\t// out\n    stop\n    data_dafc31c82e8c1246735c704fbbbc212321f9d708db16d4c6b2535806b69475d9 697066733a2f2f516d635667457535434c70474a655a5a45765346334c6a3352556d6b77574b5562524c71695472516356565539772f\n\n    auxdata: 0xa2646970667358221220216152b7a533f6875d80b2d4d5946d06d854d4b7c063ce9e4fa8f9dc6c79f9d964736f6c63430008000033\n}\n",
				"bytecode": {
					"linkReferences": {},
					"object": "60806040526127106006553480156200001757600080fd5b506040516200264f3803806200264f83398181016040528101906200003d91906200019d565b81818160009080519060200190620000579291906200007b565b508060019080519060200190620000709291906200007b565b505050505062000341565b8280546200008990620002ad565b90600052602060002090601f016020900481019282620000ad5760008555620000f9565b82601f10620000c857805160ff1916838001178555620000f9565b82800160010185558215620000f9579182015b82811115620000f8578251825591602001919060010190620000db565b5b5090506200010891906200010c565b5090565b5b80821115620001275760008160009055506001016200010d565b5090565b6000620001426200013c8462000244565b62000210565b9050828152602081018484840111156200015b57600080fd5b6200016884828562000277565b509392505050565b600082601f8301126200018257600080fd5b8151620001948482602086016200012b565b91505092915050565b60008060408385031215620001b157600080fd5b600083015167ffffffffffffffff811115620001cc57600080fd5b620001da8582860162000170565b925050602083015167ffffffffffffffff811115620001f857600080fd5b620002068582860162000170565b9150509250929050565b6000604051905081810181811067ffffffffffffffff821117156200023a576200023962000312565b5b8060405250919050565b600067ffffffffffffffff82111562000262576200026162000312565b5b601f19601f8301169050602081019050919050565b60005b83811015620002975780820151818401526020810190506200027a565b83811115620002a7576000848401525b50505050565b60006002820490506001821680620002c657607f821691505b60208210811415620002dd57620002dc620002e3565b5b50919050565b7f4e487b7100000000000000000000000000000000000000000000000000000000600052602260045260246000fd5b7f4e487b7100000000000000000000000000000000000000000000000000000000600052604160045260246000fd5b6122fe80620003516000396000f3fe608060405234801561001057600080fd5b50600436106100f55760003560e01c8063538f167211610097578063b88d4fde11610066578063b88d4fde14610284578063c5e51b9e146102a0578063c87b56dd146102bc578063e985e9c5146102ec576100f5565b8063538f1672146101e85780636352211e1461020657806370a082311461023657806395d89b4114610266576100f5565b8063095ea7b3116100d3578063095ea7b31461017857806323b872dd1461019457806340c10f19146101b057806342842e0e146101cc576100f5565b806301ffc9a7146100fa57806306fdde031461012a578063081812fc14610148575b600080fd5b610114600480360381019061010f919061184c565b61031c565b6040516101219190611d10565b60405180910390f35b610132610456565b60405161013f9190611d2b565b60405180910390f35b610162600480360381019061015d919061189e565b6104e4565b60405161016f9190611c3b565b60405180910390f35b610192600480360381019061018d9190611810565b6105c3565b005b6101ae60048036038101906101a9919061170a565b61070a565b005b6101ca60048036038101906101c59190611810565b61073d565b005b6101e660048036038101906101e1919061170a565b61079c565b005b6101f06107cb565b6040516101fd9190611e8d565b60405180910390f35b610220600480360381019061021b919061189e565b6107d1565b60405161022d9190611c3b565b60405180910390f35b610250600480360381019061024b91906116a5565b61087e565b60405161025d9190611e8d565b60405180910390f35b61026e610936565b60405161027b9190611d2b565b60405180910390f35b61029e60048036038101906102999190611759565b6109c4565b005b6102ba60048036038101906102b591906117d4565b610a2f565b005b6102d660048036038101906102d1919061189e565b610b02565b6040516102e39190611d2b565b60405180910390f35b610306600480360381019061030191906116ce565b610c04565b6040516103139190611d10565b60405180910390f35b60007fe765f736000000000000000000000000000000000000000000000000000000007bffffffffffffffffffffffffffffffffffffffffffffffffffffffff1916827bffffffffffffffffffffffffffffffffffffffffffffffffffffffff191614806103e757507f01ffc9a7000000000000000000000000000000000000000000000000000000007bffffffffffffffffffffffffffffffffffffffffffffffffffffffff1916827bffffffffffffffffffffffffffffffffffffffffffffffffffffffff1916145b8061044f57507f5b5e139f000000000000000000000000000000000000000000000000000000007bffffffffffffffffffffffffffffffffffffffffffffffffffffffff1916827bffffffffffffffffffffffffffffffffffffffffffffffffffffffff1916145b9050919050565b60008054610463906120bd565b80601f016020809104026020016040519081016040528092919081815260200182805461048f906120bd565b80156104dc5780601f106104b1576101008083540402835291602001916104dc565b820191906000526020600020905b8154815290600101906020018083116104bf57829003601f168201915b505050505081565b60008073ffffffffffffffffffffffffffffffffffffffff166002600084815260200190815260200160002060009054906101000a900473ffffffffffffffffffffffffffffffffffffffff1673ffffffffffffffffffffffffffffffffffffffff161415610588576040517f08c379a000000000000000000000000000000000000000000000000000000000815260040161057f90611dcd565b60405180910390fd5b6004600083815260200190815260200160002060009054906101000a900473ffffffffffffffffffffffffffffffffffffffff169050919050565b60006002600083815260200190815260200160002060009054906101000a900473ffffffffffffffffffffffffffffffffffffffff1690508073ffffffffffffffffffffffffffffffffffffffff163373ffffffffffffffffffffffffffffffffffffffff1614806106bb5750600560008273ffffffffffffffffffffffffffffffffffffffff1673ffffffffffffffffffffffffffffffffffffffff16815260200190815260200160002060003373ffffffffffffffffffffffffffffffffffffffff1673ffffffffffffffffffffffffffffffffffffffff16815260200190815260200160002060009054906101000a900460ff165b6106fa576040517f08c379a00000000000000000000000000000000000000000000000000000000081526004016106f190611d6d565b60405180910390fd5b610705818484610c98565b505050565b6000610715826107d1565b9050610722813384610d2a565b61072b57600080fd5b61073781858585610e5e565b50505050565b6000811015801561074f575060065481105b61078e576040517f08c379a000000000000000000000000000000000000000000000000000000000815260040161078590611d4d565b60405180910390fd5b6107988282611089565b5050565b60006107a7826107d1565b90506107c58185858560405180602001604052806000815250611284565b50505050565b60065481565b60006002600083815260200190815260200160002060009054906101000a900473ffffffffffffffffffffffffffffffffffffffff169050600073ffffffffffffffffffffffffffffffffffffffff168173ffffffffffffffffffffffffffffffffffffffff161415610879576040517f08c379a000000000000000000000000000000000000000000000000000000000815260040161087090611dcd565b60405180910390fd5b919050565b60008073ffffffffffffffffffffffffffffffffffffffff168273ffffffffffffffffffffffffffffffffffffffff1614156108ef576040517f08c379a00000000000000000000000000000000000000000000000000000000081526004016108e690611e0d565b60405180910390fd5b600360008373ffffffffffffffffffffffffffffffffffffffff1673ffffffffffffffffffffffffffffffffffffffff168152602001908152602001600020549050919050565b60018054610943906120bd565b80601f016020809104026020016040519081016040528092919081815260200182805461096f906120bd565b80156109bc5780601f10610991576101008083540402835291602001916109bc565b820191906000526020600020905b81548152906001019060200180831161099f57829003601f168201915b505050505081565b60006109cf836107d1565b90506109dc813385610d2a565b610a1b576040517f08c379a0000000000000000000000000000000000000000000000000000000008152600401610a1290611dad565b60405180910390fd5b610a288186868686611284565b5050505050565b80600560003373ffffffffffffffffffffffffffffffffffffffff1673ffffffffffffffffffffffffffffffffffffffff16815260200190815260200160002060008473ffffffffffffffffffffffffffffffffffffffff1673ffffffffffffffffffffffffffffffffffffffff16815260200190815260200160002060006101000a81548160ff0219169083151502179055507f6e58f42f8934de1bf5b284476ba8126ee2d334c7aacf1ac87c6d4ebdb6ffb683338383604051610af693929190611c56565b60405180910390a15050565b6060600073ffffffffffffffffffffffffffffffffffffffff166002600084815260200190815260200160002060009054906101000a900473ffffffffffffffffffffffffffffffffffffffff1673ffffffffffffffffffffffffffffffffffffffff161415610ba7576040517f08c379a0000000000000000000000000000000000000000000000000000000008152600401610b9e90611e2d565b60405180910390fd5b6000610bb16112e2565b90506000815111610bd15760405180602001604052806000815250610bfc565b80610bdb84611302565b604051602001610bec929190611c17565b6040516020818303038152906040525b915050919050565b6000600560008473ffffffffffffffffffffffffffffffffffffffff1673ffffffffffffffffffffffffffffffffffffffff16815260200190815260200160002060008373ffffffffffffffffffffffffffffffffffffffff1673ffffffffffffffffffffffffffffffffffffffff16815260200190815260200160002060009054906101000a900460ff16905092915050565b816004600083815260200190815260200160002060006101000a81548173ffffffffffffffffffffffffffffffffffffffff021916908373ffffffffffffffffffffffffffffffffffffffff1602179055507f6e11fb1b7f119e3f2fa29896ef5fdf8b8a2d0d4df6fe90ba8668e7d8b2ffa25e838383604051610d1d93929190611c8d565b60405180910390a1505050565b60008373ffffffffffffffffffffffffffffffffffffffff168373ffffffffffffffffffffffffffffffffffffffff161480610dc457508273ffffffffffffffffffffffffffffffffffffffff166004600084815260200190815260200160002060009054906101000a900473ffffffffffffffffffffffffffffffffffffffff1673ffffffffffffffffffffffffffffffffffffffff16145b80610e555750600560008573ffffffffffffffffffffffffffffffffffffffff1673ffffffffffffffffffffffffffffffffffffffff16815260200190815260200160002060008473ffffffffffffffffffffffffffffffffffffffff1673ffffffffffffffffffffffffffffffffffffffff16815260200190815260200160002060009054906101000a900460ff165b90509392505050565b8373ffffffffffffffffffffffffffffffffffffffff168373ffffffffffffffffffffffffffffffffffffffff1614610ecc576040517f08c379a0000000000000000000000000000000000000000000000000000000008152600401610ec390611e6d565b60405180910390fd5b600073ffffffffffffffffffffffffffffffffffffffff168273ffffffffffffffffffffffffffffffffffffffff161415610f3c576040517f08c379a0000000000000000000000000000000000000000000000000000000008152600401610f3390611d8d565b60405180910390fd5b610f4884600083610c98565b6001600360008573ffffffffffffffffffffffffffffffffffffffff1673ffffffffffffffffffffffffffffffffffffffff1681526020019081526020016000206000828254610f989190611fd3565b925050819055506001600360008473ffffffffffffffffffffffffffffffffffffffff1673ffffffffffffffffffffffffffffffffffffffff1681526020019081526020016000206000828254610fef9190611f4c565b92505081905550816002600083815260200190815260200160002060006101000a81548173ffffffffffffffffffffffffffffffffffffffff021916908373ffffffffffffffffffffffffffffffffffffffff1602179055507fddf252ad1be2c89b69c2b068fc378daa952ba7f163c4a11628f55a4df523b3ef83838360405161107b93929190611c8d565b60405180910390a150505050565b600073ffffffffffffffffffffffffffffffffffffffff168273ffffffffffffffffffffffffffffffffffffffff1614156110f9576040517f08c379a00000000000000000000000000000000000000000000000000000000081526004016110f090611d8d565b60405180910390fd5b600073ffffffffffffffffffffffffffffffffffffffff166002600083815260200190815260200160002060009054906101000a900473ffffffffffffffffffffffffffffffffffffffff1673ffffffffffffffffffffffffffffffffffffffff161461119b576040517f08c379a000000000000000000000000000000000000000000000000000000000815260040161119290611ded565b60405180910390fd5b6001600360008473ffffffffffffffffffffffffffffffffffffffff1673ffffffffffffffffffffffffffffffffffffffff16815260200190815260200160002060008282546111eb9190611f4c565b92505081905550816002600083815260200190815260200160002060006101000a81548173ffffffffffffffffffffffffffffffffffffffff021916908373ffffffffffffffffffffffffffffffffffffffff1602179055507fddf252ad1be2c89b69c2b068fc378daa952ba7f163c4a11628f55a4df523b3ef6000838360405161127893929190611c8d565b60405180910390a15050565b61129085858585610e5e565b61129c848484846114af565b6112db576040517f08c379a00000000000000000000000000000000000000000000000000000000081526004016112d290611e4d565b60405180910390fd5b5050505050565b606060405180606001604052806036815260200161229360369139905090565b6060600082141561134a576040518060400160405280600181526020017f300000000000000000000000000000000000000000000000000000000000000081525090506114aa565b600082905060005b6000821461137c578080611365906120ef565b915050600a826113759190611fa2565b9150611352565b60008167ffffffffffffffff8111156113be577f4e487b7100000000000000000000000000000000000000000000000000000000600052604160045260246000fd5b6040519080825280601f01601f1916602001820160405280156113f05781602001600182028036833780820191505090505b5090505b600085146114a3576001826114099190611fd3565b9150600a856114189190612138565b60306114249190611f4c565b60f81b818381518110611460577f4e487b7100000000000000000000000000000000000000000000000000000000600052603260045260246000fd5b60200101907effffffffffffffffffffffffffffffffffffffffffffffffffffffffffffff1916908160001a905350600a8561149c9190611fa2565b94506113f4565b8093505050505b919050565b60006114d08473ffffffffffffffffffffffffffffffffffffffff166115c1565b156115b45763150b7a0260e01b7bffffffffffffffffffffffffffffffffffffffffffffffffffffffff19168473ffffffffffffffffffffffffffffffffffffffff1663150b7a02338887876040518563ffffffff1660e01b815260040161153b9493929190611cc4565b602060405180830381600087803b15801561155557600080fd5b505af1158015611569573d6000803e3d6000fd5b505050506040513d601f19601f8201168201806040525081019061158d9190611875565b7bffffffffffffffffffffffffffffffffffffffffffffffffffffffff19161490506115b9565b600190505b949350505050565b600080823b905060008111915050919050565b60006115e76115e284611ed9565b611ea8565b9050828152602081018484840111156115ff57600080fd5b61160a84828561207b565b509392505050565b60008135905061162181612236565b92915050565b6000813590506116368161224d565b92915050565b60008135905061164b81612264565b92915050565b60008151905061166081612264565b92915050565b600082601f83011261167757600080fd5b81356116878482602086016115d4565b91505092915050565b60008135905061169f8161227b565b92915050565b6000602082840312156116b757600080fd5b60006116c584828501611612565b91505092915050565b600080604083850312156116e157600080fd5b60006116ef85828601611612565b925050602061170085828601611612565b9150509250929050565b60008060006060848603121561171f57600080fd5b600061172d86828701611612565b935050602061173e86828701611612565b925050604061174f86828701611690565b9150509250925092565b6000806000806080858703121561176f57600080fd5b600061177d87828801611612565b945050602061178e87828801611612565b935050604061179f87828801611690565b925050606085013567ffffffffffffffff8111156117bc57600080fd5b6117c887828801611666565b91505092959194509250565b600080604083850312156117e757600080fd5b60006117f585828601611612565b925050602061180685828601611627565b9150509250929050565b6000806040838503121561182357600080fd5b600061183185828601611612565b925050602061184285828601611690565b9150509250929050565b60006020828403121561185e57600080fd5b600061186c8482850161163c565b91505092915050565b60006020828403121561188757600080fd5b600061189584828501611651565b91505092915050565b6000602082840312156118b057600080fd5b60006118be84828501611690565b91505092915050565b6118d081612007565b82525050565b6118df81612019565b82525050565b60006118f082611f09565b6118fa8185611f1f565b935061190a81856020860161208a565b61191381612225565b840191505092915050565b600061192982611f14565b6119338185611f30565b935061194381856020860161208a565b61194c81612225565b840191505092915050565b600061196282611f14565b61196c8185611f41565b935061197c81856020860161208a565b80840191505092915050565b6000611995601483611f30565b91507f746f6b656e4964206f7574206f662072616e67650000000000000000000000006000830152602082019050919050565b60006119d5601d83611f30565b91507f6e6f74206f776e6572206f7220617070726f76656420666f7220616c6c0000006000830152602082019050919050565b6000611a15600f83611f30565b91507f746f2069732030206164647265737300000000000000000000000000000000006000830152602082019050919050565b6000611a55601683611f30565b91507f6e6f74206f776e6572206e6f7220617070726f766564000000000000000000006000830152602082019050919050565b6000611a95601383611f30565b91507f746f6b656e20646f65736e2774206578697374000000000000000000000000006000830152602082019050919050565b6000611ad5601483611f30565b91507f746f6b656e20616c7265616479206d696e7465640000000000000000000000006000830152602082019050919050565b6000611b15601183611f30565b91507f6f776e6572203d203020616464726573730000000000000000000000000000006000830152602082019050919050565b6000611b55600f83611f30565b91507f546f6b656e206e6f7420657869737400000000000000000000000000000000006000830152602082019050919050565b6000611b95601283611f30565b91507f6e6f7420455243373231526563656976657200000000000000000000000000006000830152602082019050919050565b6000611bd5600983611f30565b91507f6e6f74206f776e657200000000000000000000000000000000000000000000006000830152602082019050919050565b611c1181612071565b82525050565b6000611c238285611957565b9150611c2f8284611957565b91508190509392505050565b6000602082019050611c5060008301846118c7565b92915050565b6000606082019050611c6b60008301866118c7565b611c7860208301856118c7565b611c8560408301846118d6565b949350505050565b6000606082019050611ca260008301866118c7565b611caf60208301856118c7565b611cbc6040830184611c08565b949350505050565b6000608082019050611cd960008301876118c7565b611ce660208301866118c7565b611cf36040830185611c08565b8181036060830152611d0581846118e5565b905095945050505050565b6000602082019050611d2560008301846118d6565b92915050565b60006020820190508181036000830152611d45818461191e565b905092915050565b60006020820190508181036000830152611d6681611988565b9050919050565b60006020820190508181036000830152611d86816119c8565b9050919050565b60006020820190508181036000830152611da681611a08565b9050919050565b60006020820190508181036000830152611dc681611a48565b9050919050565b60006020820190508181036000830152611de681611a88565b9050919050565b60006020820190508181036000830152611e0681611ac8565b9050919050565b60006020820190508181036000830152611e2681611b08565b9050919050565b60006020820190508181036000830152611e4681611b48565b9050919050565b60006020820190508181036000830152611e6681611b88565b9050919050565b60006020820190508181036000830152611e8681611bc8565b9050919050565b6000602082019050611ea26000830184611c08565b92915050565b6000604051905081810181811067ffffffffffffffff82111715611ecf57611ece6121f6565b5b8060405250919050565b600067ffffffffffffffff821115611ef457611ef36121f6565b5b601f19601f8301169050602081019050919050565b600081519050919050565b600081519050919050565b600082825260208201905092915050565b600082825260208201905092915050565b600081905092915050565b6000611f5782612071565b9150611f6283612071565b9250827fffffffffffffffffffffffffffffffffffffffffffffffffffffffffffffffff03821115611f9757611f96612169565b5b828201905092915050565b6000611fad82612071565b9150611fb883612071565b925082611fc857611fc7612198565b5b828204905092915050565b6000611fde82612071565b9150611fe983612071565b925082821015611ffc57611ffb612169565b5b828203905092915050565b600061201282612051565b9050919050565b60008115159050919050565b60007fffffffff0000000000000000000000000000000000000000000000000000000082169050919050565b600073ffffffffffffffffffffffffffffffffffffffff82169050919050565b6000819050919050565b82818337600083830152505050565b60005b838110156120a857808201518184015260208101905061208d565b838111156120b7576000848401525b50505050565b600060028204905060018216806120d557607f821691505b602082108114156120e9576120e86121c7565b5b50919050565b60006120fa82612071565b91507fffffffffffffffffffffffffffffffffffffffffffffffffffffffffffffffff82141561212d5761212c612169565b5b600182019050919050565b600061214382612071565b915061214e83612071565b92508261215e5761215d612198565b5b828206905092915050565b7f4e487b7100000000000000000000000000000000000000000000000000000000600052601160045260246000fd5b7f4e487b7100000000000000000000000000000000000000000000000000000000600052601260045260246000fd5b7f4e487b7100000000000000000000000000000000000000000000000000000000600052602260045260246000fd5b7f4e487b7100000000000000000000000000000000000000000000000000000000600052604160045260246000fd5b6000601f19601f8301169050919050565b61223f81612007565b811461224a57600080fd5b50565b61225681612019565b811461226157600080fd5b50565b61226d81612025565b811461227857600080fd5b50565b61228481612071565b811461228f57600080fd5b5056fe697066733a2f2f516d635667457535434c70474a655a5a45765346334c6a3352556d6b77574b5562524c71695472516356565539772fa2646970667358221220216152b7a533f6875d80b2d4d5946d06d854d4b7c063ce9e4fa8f9dc6c79f9d964736f6c63430008000033",
					"opcodes": "PUSH1 0x80 PUSH1 0x40 MSTORE PUSH2 0x2710 PUSH1 0x6 SSTORE CALLVALUE DUP1 ISZERO PUSH3 0x17 JUMPI PUSH1 0x0 DUP1 REVERT JUMPDEST POP PUSH1 0x40 MLOAD PUSH3 0x264F CODESIZE SUB DUP1 PUSH3 0x264F DUP4 CODECOPY DUP2 DUP2 ADD PUSH1 0x40 MSTORE DUP2 ADD SWAP1 PUSH3 0x3D SWAP2 SWAP1 PUSH3 0x19D JUMP JUMPDEST DUP2 DUP2 DUP2 PUSH1 0x0 SWAP1 DUP1 MLOAD SWAP1 PUSH1 0x20 ADD SWAP1 PUSH3 0x57 SWAP3 SWAP2 SWAP1 PUSH3 0x7B JUMP JUMPDEST POP DUP1 PUSH1 0x1 SWAP1 DUP1 MLOAD SWAP1 PUSH1 0x20 ADD SWAP1 PUSH3 0x70 SWAP3 SWAP2 SWAP1 PUSH3 0x7B JUMP JUMPDEST POP POP POP POP POP PUSH3 0x341 JUMP JUMPDEST DUP3 DUP1 SLOAD PUSH3 0x89 SWAP1 PUSH3 0x2AD JUMP JUMPDEST SWAP1 PUSH1 0x0 MSTORE PUSH1 0x20 PUSH1 0x0 KECCAK256 SWAP1 PUSH1 0x1F ADD PUSH1 0x20 SWAP1 DIV DUP2 ADD SWAP3 DUP3 PUSH3 0xAD JUMPI PUSH1 0x0 DUP6 SSTORE PUSH3 0xF9 JUMP JUMPDEST DUP3 PUSH1 0x1F LT PUSH3 0xC8 JUMPI DUP1 MLOAD PUSH1 0xFF NOT AND DUP4 DUP1 ADD OR DUP6 SSTORE PUSH3 0xF9 JUMP JUMPDEST DUP3 DUP1 ADD PUSH1 0x1 ADD DUP6 SSTORE DUP3 ISZERO PUSH3 0xF9 JUMPI SWAP2 DUP3 ADD JUMPDEST DUP3 DUP2 GT ISZERO PUSH3 0xF8 JUMPI DUP3 MLOAD DUP3 SSTORE SWAP2 PUSH1 0x20 ADD SWAP2 SWAP1 PUSH1 0x1 ADD SWAP1 PUSH3 0xDB JUMP JUMPDEST JUMPDEST POP SWAP1 POP PUSH3 0x108 SWAP2 SWAP1 PUSH3 0x10C JUMP JUMPDEST POP SWAP1 JUMP JUMPDEST JUMPDEST DUP1 DUP3 GT ISZERO PUSH3 0x127 JUMPI PUSH1 0x0 DUP2 PUSH1 0x0 SWAP1 SSTORE POP PUSH1 0x1 ADD PUSH3 0x10D JUMP JUMPDEST POP SWAP1 JUMP JUMPDEST PUSH1 0x0 PUSH3 0x142 PUSH3 0x13C DUP5 PUSH3 0x244 JUMP JUMPDEST PUSH3 0x210 JUMP JUMPDEST SWAP1 POP DUP3 DUP2 MSTORE PUSH1 0x20 DUP2 ADD DUP5 DUP5 DUP5 ADD GT ISZERO PUSH3 0x15B JUMPI PUSH1 0x0 DUP1 REVERT JUMPDEST PUSH3 0x168 DUP5 DUP3 DUP6 PUSH3 0x277 JUMP JUMPDEST POP SWAP4 SWAP3 POP POP POP JUMP JUMPDEST PUSH1 0x0 DUP3 PUSH1 0x1F DUP4 ADD SLT PUSH3 0x182 JUMPI PUSH1 0x0 DUP1 REVERT JUMPDEST DUP2 MLOAD PUSH3 0x194 DUP5 DUP3 PUSH1 0x20 DUP7 ADD PUSH3 0x12B JUMP JUMPDEST SWAP2 POP POP SWAP3 SWAP2 POP POP JUMP JUMPDEST PUSH1 0x0 DUP1 PUSH1 0x40 DUP4 DUP6 SUB SLT ISZERO PUSH3 0x1B1 JUMPI PUSH1 0x0 DUP1 REVERT JUMPDEST PUSH1 0x0 DUP4 ADD MLOAD PUSH8 0xFFFFFFFFFFFFFFFF DUP2 GT ISZERO PUSH3 0x1CC JUMPI PUSH1 0x0 DUP1 REVERT JUMPDEST PUSH3 0x1DA DUP6 DUP3 DUP7 ADD PUSH3 0x170 JUMP JUMPDEST SWAP3 POP POP PUSH1 0x20 DUP4 ADD MLOAD PUSH8 0xFFFFFFFFFFFFFFFF DUP2 GT ISZERO PUSH3 0x1F8 JUMPI PUSH1 0x0 DUP1 REVERT JUMPDEST PUSH3 0x206 DUP6 DUP3 DUP7 ADD PUSH3 0x170 JUMP JUMPDEST SWAP2 POP POP SWAP3 POP SWAP3 SWAP1 POP JUMP JUMPDEST PUSH1 0x0 PUSH1 0x40 MLOAD SWAP1 POP DUP2 DUP2 ADD DUP2 DUP2 LT PUSH8 0xFFFFFFFFFFFFFFFF DUP3 GT OR ISZERO PUSH3 0x23A JUMPI PUSH3 0x239 PUSH3 0x312 JUMP JUMPDEST JUMPDEST DUP1 PUSH1 0x40 MSTORE POP SWAP2 SWAP1 POP JUMP JUMPDEST PUSH1 0x0 PUSH8 0xFFFFFFFFFFFFFFFF DUP3 GT ISZERO PUSH3 0x262 JUMPI PUSH3 0x261 PUSH3 0x312 JUMP JUMPDEST JUMPDEST PUSH1 0x1F NOT PUSH1 0x1F DUP4 ADD AND SWAP1 POP PUSH1 0x20 DUP2 ADD SWAP1 POP SWAP2 SWAP1 POP JUMP JUMPDEST PUSH1 0x0 JUMPDEST DUP4 DUP2 LT ISZERO PUSH3 0x297 JUMPI DUP1 DUP3 ADD MLOAD DUP2 DUP5 ADD MSTORE PUSH1 0x20 DUP2 ADD SWAP1 POP PUSH3 0x27A JUMP JUMPDEST DUP4 DUP2 GT ISZERO PUSH3 0x2A7 JUMPI PUSH1 0x0 DUP5 DUP5 ADD MSTORE JUMPDEST POP POP POP POP JUMP JUMPDEST PUSH1 0x0 PUSH1 0x2 DUP3 DIV SWAP1 POP PUSH1 0x1 DUP3 AND DUP1 PUSH3 0x2C6 JUMPI PUSH1 0x7F DUP3 AND SWAP2 POP JUMPDEST PUSH1 0x20 DUP3 LT DUP2 EQ ISZERO PUSH3 0x2DD JUMPI PUSH3 0x2DC PUSH3 0x2E3 JUMP JUMPDEST JUMPDEST POP SWAP2 SWAP1 POP JUMP JUMPDEST PUSH32 0x4E487B7100000000000000000000000000000000000000000000000000000000 PUSH1 0x0 MSTORE PUSH1 0x22 PUSH1 0x4 MSTORE PUSH1 0x24 PUSH1 0x0 REVERT JUMPDEST PUSH32 0x4E487B7100000000000000000000000000000000000000000000000000000000 PUSH1 0x0 MSTORE PUSH1 0x41 PUSH1 0x4 MSTORE PUSH1 0x24 PUSH1 0x0 REVERT JUMPDEST PUSH2 0x22FE DUP1 PUSH3 0x351 PUSH1 0x0 CODECOPY PUSH1 0x0 RETURN INVALID PUSH1 0x80 PUSH1 0x40 MSTORE CALLVALUE DUP1 ISZERO PUSH2 0x10 JUMPI PUSH1 0x0 DUP1 REVERT JUMPDEST POP PUSH1 0x4 CALLDATASIZE LT PUSH2 0xF5 JUMPI PUSH1 0x0 CALLDATALOAD PUSH1 0xE0 SHR DUP1 PUSH4 0x538F1672 GT PUSH2 0x97 JUMPI DUP1 PUSH4 0xB88D4FDE GT PUSH2 0x66 JUMPI DUP1 PUSH4 0xB88D4FDE EQ PUSH2 0x284 JUMPI DUP1 PUSH4 0xC5E51B9E EQ PUSH2 0x2A0 JUMPI DUP1 PUSH4 0xC87B56DD EQ PUSH2 0x2BC JUMPI DUP1 PUSH4 0xE985E9C5 EQ PUSH2 0x2EC JUMPI PUSH2 0xF5 JUMP JUMPDEST DUP1 PUSH4 0x538F1672 EQ PUSH2 0x1E8 JUMPI DUP1 PUSH4 0x6352211E EQ PUSH2 0x206 JUMPI DUP1 PUSH4 0x70A08231 EQ PUSH2 0x236 JUMPI DUP1 PUSH4 0x95D89B41 EQ PUSH2 0x266 JUMPI PUSH2 0xF5 JUMP JUMPDEST DUP1 PUSH4 0x95EA7B3 GT PUSH2 0xD3 JUMPI DUP1 PUSH4 0x95EA7B3 EQ PUSH2 0x178 JUMPI DUP1 PUSH4 0x23B872DD EQ PUSH2 0x194 JUMPI DUP1 PUSH4 0x40C10F19 EQ PUSH2 0x1B0 JUMPI DUP1 PUSH4 0x42842E0E EQ PUSH2 0x1CC JUMPI PUSH2 0xF5 JUMP JUMPDEST DUP1 PUSH4 0x1FFC9A7 EQ PUSH2 0xFA JUMPI DUP1 PUSH4 0x6FDDE03 EQ PUSH2 0x12A JUMPI DUP1 PUSH4 0x81812FC EQ PUSH2 0x148 JUMPI JUMPDEST PUSH1 0x0 DUP1 REVERT JUMPDEST PUSH2 0x114 PUSH1 0x4 DUP1 CALLDATASIZE SUB DUP2 ADD SWAP1 PUSH2 0x10F SWAP2 SWAP1 PUSH2 0x184C JUMP JUMPDEST PUSH2 0x31C JUMP JUMPDEST PUSH1 0x40 MLOAD PUSH2 0x121 SWAP2 SWAP1 PUSH2 0x1D10 JUMP JUMPDEST PUSH1 0x40 MLOAD DUP1 SWAP2 SUB SWAP1 RETURN JUMPDEST PUSH2 0x132 PUSH2 0x456 JUMP JUMPDEST PUSH1 0x40 MLOAD PUSH2 0x13F SWAP2 SWAP1 PUSH2 0x1D2B JUMP JUMPDEST PUSH1 0x40 MLOAD DUP1 SWAP2 SUB SWAP1 RETURN JUMPDEST PUSH2 0x162 PUSH1 0x4 DUP1 CALLDATASIZE SUB DUP2 ADD SWAP1 PUSH2 0x15D SWAP2 SWAP1 PUSH2 0x189E JUMP JUMPDEST PUSH2 0x4E4 JUMP JUMPDEST PUSH1 0x40 MLOAD PUSH2 0x16F SWAP2 SWAP1 PUSH2 0x1C3B JUMP JUMPDEST PUSH1 0x40 MLOAD DUP1 SWAP2 SUB SWAP1 RETURN JUMPDEST PUSH2 0x192 PUSH1 0x4 DUP1 CALLDATASIZE SUB DUP2 ADD SWAP1 PUSH2 0x18D SWAP2 SWAP1 PUSH2 0x1810 JUMP JUMPDEST PUSH2 0x5C3 JUMP JUMPDEST STOP JUMPDEST PUSH2 0x1AE PUSH1 0x4 DUP1 CALLDATASIZE SUB DUP2 ADD SWAP1 PUSH2 0x1A9 SWAP2 SWAP1 PUSH2 0x170A JUMP JUMPDEST PUSH2 0x70A JUMP JUMPDEST STOP JUMPDEST PUSH2 0x1CA PUSH1 0x4 DUP1 CALLDATASIZE SUB DUP2 ADD SWAP1 PUSH2 0x1C5 SWAP2 SWAP1 PUSH2 0x1810 JUMP JUMPDEST PUSH2 0x73D JUMP JUMPDEST STOP JUMPDEST PUSH2 0x1E6 PUSH1 0x4 DUP1 CALLDATASIZE SUB DUP2 ADD SWAP1 PUSH2 0x1E1 SWAP2 SWAP1 PUSH2 0x170A JUMP JUMPDEST PUSH2 0x79C JUMP JUMPDEST STOP JUMPDEST PUSH2 0x1F0 PUSH2 0x7CB JUMP JUMPDEST PUSH1 0x40 MLOAD PUSH2 0x1FD SWAP2 SWAP1 PUSH2 0x1E8D JUMP JUMPDEST PUSH1 0x40 MLOAD DUP1 SWAP2 SUB SWAP1 RETURN JUMPDEST PUSH2 0x220 PUSH1 0x4 DUP1 CALLDATASIZE SUB DUP2 ADD SWAP1 PUSH2 0x21B SWAP2 SWAP1 PUSH2 0x189E JUMP JUMPDEST PUSH2 0x7D1 JUMP JUMPDEST PUSH1 0x40 MLOAD PUSH2 0x22D SWAP2 SWAP1 PUSH2 0x1C3B JUMP JUMPDEST PUSH1 0x40 MLOAD DUP1 SWAP2 SUB SWAP1 RETURN JUMPDEST PUSH2 0x250 PUSH1 0x4 DUP1 CALLDATASIZE SUB DUP2 ADD SWAP1 PUSH2 0x24B SWAP2 SWAP1 PUSH2 0x16A5 JUMP JUMPDEST PUSH2 0x87E JUMP JUMPDEST PUSH1 0x40 MLOAD PUSH2 0x25D SWAP2 SWAP1 PUSH2 0x1E8D JUMP JUMPDEST PUSH1 0x40 MLOAD DUP1 SWAP2 SUB SWAP1 RETURN JUMPDEST PUSH2 0x26E PUSH2 0x936 JUMP JUMPDEST PUSH1 0x40 MLOAD PUSH2 0x27B SWAP2 SWAP1 PUSH2 0x1D2B JUMP JUMPDEST PUSH1 0x40 MLOAD DUP1 SWAP2 SUB SWAP1 RETURN JUMPDEST PUSH2 0x29E PUSH1 0x4 DUP1 CALLDATASIZE SUB DUP2 ADD SWAP1 PUSH2 0x299 SWAP2 SWAP1 PUSH2 0x1759 JUMP JUMPDEST PUSH2 0x9C4 JUMP JUMPDEST STOP JUMPDEST PUSH2 0x2BA PUSH1 0x4 DUP1 CALLDATASIZE SUB DUP2 ADD SWAP1 PUSH2 0x2B5 SWAP2 SWAP1 PUSH2 0x17D4 JUMP JUMPDEST PUSH2 0xA2F JUMP JUMPDEST STOP JUMPDEST PUSH2 0x2D6 PUSH1 0x4 DUP1 CALLDATASIZE SUB DUP2 ADD SWAP1 PUSH2 0x2D1 SWAP2 SWAP1 PUSH2 0x189E JUMP JUMPDEST PUSH2 0xB02 JUMP JUMPDEST PUSH1 0x40 MLOAD PUSH2 0x2E3 SWAP2 SWAP1 PUSH2 0x1D2B JUMP JUMPDEST PUSH1 0x40 MLOAD DUP1 SWAP2 SUB SWAP1 RETURN JUMPDEST PUSH2 0x306 PUSH1 0x4 DUP1 CALLDATASIZE SUB DUP2 ADD SWAP1 PUSH2 0x301 SWAP2 SWAP1 PUSH2 0x16CE JUMP JUMPDEST PUSH2 0xC04 JUMP JUMPDEST PUSH1 0x40 MLOAD PUSH2 0x313 SWAP2 SWAP1 PUSH2 0x1D10 JUMP JUMPDEST PUSH1 0x40 MLOAD DUP1 SWAP2 SUB SWAP1 RETURN JUMPDEST PUSH1 0x0 PUSH32 0xE765F73600000000000000000000000000000000000000000000000000000000 PUSH28 0xFFFFFFFFFFFFFFFFFFFFFFFFFFFFFFFFFFFFFFFFFFFFFFFFFFFFFFFF NOT AND DUP3 PUSH28 0xFFFFFFFFFFFFFFFFFFFFFFFFFFFFFFFFFFFFFFFFFFFFFFFFFFFFFFFF NOT AND EQ DUP1 PUSH2 0x3E7 JUMPI POP PUSH32 0x1FFC9A700000000000000000000000000000000000000000000000000000000 PUSH28 0xFFFFFFFFFFFFFFFFFFFFFFFFFFFFFFFFFFFFFFFFFFFFFFFFFFFFFFFF NOT AND DUP3 PUSH28 0xFFFFFFFFFFFFFFFFFFFFFFFFFFFFFFFFFFFFFFFFFFFFFFFFFFFFFFFF NOT AND EQ JUMPDEST DUP1 PUSH2 0x44F JUMPI POP PUSH32 0x5B5E139F00000000000000000000000000000000000000000000000000000000 PUSH28 0xFFFFFFFFFFFFFFFFFFFFFFFFFFFFFFFFFFFFFFFFFFFFFFFFFFFFFFFF NOT AND DUP3 PUSH28 0xFFFFFFFFFFFFFFFFFFFFFFFFFFFFFFFFFFFFFFFFFFFFFFFFFFFFFFFF NOT AND EQ JUMPDEST SWAP1 POP SWAP2 SWAP1 POP JUMP JUMPDEST PUSH1 0x0 DUP1 SLOAD PUSH2 0x463 SWAP1 PUSH2 0x20BD JUMP JUMPDEST DUP1 PUSH1 0x1F ADD PUSH1 0x20 DUP1 SWAP2 DIV MUL PUSH1 0x20 ADD PUSH1 0x40 MLOAD SWAP1 DUP2 ADD PUSH1 0x40 MSTORE DUP1 SWAP3 SWAP2 SWAP1 DUP2 DUP2 MSTORE PUSH1 0x20 ADD DUP3 DUP1 SLOAD PUSH2 0x48F SWAP1 PUSH2 0x20BD JUMP JUMPDEST DUP1 ISZERO PUSH2 0x4DC JUMPI DUP1 PUSH1 0x1F LT PUSH2 0x4B1 JUMPI PUSH2 0x100 DUP1 DUP4 SLOAD DIV MUL DUP4 MSTORE SWAP2 PUSH1 0x20 ADD SWAP2 PUSH2 0x4DC JUMP JUMPDEST DUP3 ADD SWAP2 SWAP1 PUSH1 0x0 MSTORE PUSH1 0x20 PUSH1 0x0 KECCAK256 SWAP1 JUMPDEST DUP2 SLOAD DUP2 MSTORE SWAP1 PUSH1 0x1 ADD SWAP1 PUSH1 0x20 ADD DUP1 DUP4 GT PUSH2 0x4BF JUMPI DUP3 SWAP1 SUB PUSH1 0x1F AND DUP3 ADD SWAP2 JUMPDEST POP POP POP POP POP DUP2 JUMP JUMPDEST PUSH1 0x0 DUP1 PUSH20 0xFFFFFFFFFFFFFFFFFFFFFFFFFFFFFFFFFFFFFFFF AND PUSH1 0x2 PUSH1 0x0 DUP5 DUP2 MSTORE PUSH1 0x20 ADD SWAP1 DUP2 MSTORE PUSH1 0x20 ADD PUSH1 0x0 KECCAK256 PUSH1 0x0 SWAP1 SLOAD SWAP1 PUSH2 0x100 EXP SWAP1 DIV PUSH20 0xFFFFFFFFFFFFFFFFFFFFFFFFFFFFFFFFFFFFFFFF AND PUSH20 0xFFFFFFFFFFFFFFFFFFFFFFFFFFFFFFFFFFFFFFFF AND EQ ISZERO PUSH2 0x588 JUMPI PUSH1 0x40 MLOAD PUSH32 0x8C379A000000000000000000000000000000000000000000000000000000000 DUP2 MSTORE PUSH1 0x4 ADD PUSH2 0x57F SWAP1 PUSH2 0x1DCD JUMP JUMPDEST PUSH1 0x40 MLOAD DUP1 SWAP2 SUB SWAP1 REVERT JUMPDEST PUSH1 0x4 PUSH1 0x0 DUP4 DUP2 MSTORE PUSH1 0x20 ADD SWAP1 DUP2 MSTORE PUSH1 0x20 ADD PUSH1 0x0 KECCAK256 PUSH1 0x0 SWAP1 SLOAD SWAP1 PUSH2 0x100 EXP SWAP1 DIV PUSH20 0xFFFFFFFFFFFFFFFFFFFFFFFFFFFFFFFFFFFFFFFF AND SWAP1 POP SWAP2 SWAP1 POP JUMP JUMPDEST PUSH1 0x0 PUSH1 0x2 PUSH1 0x0 DUP4 DUP2 MSTORE PUSH1 0x20 ADD SWAP1 DUP2 MSTORE PUSH1 0x20 ADD PUSH1 0x0 KECCAK256 PUSH1 0x0 SWAP1 SLOAD SWAP1 PUSH2 0x100 EXP SWAP1 DIV PUSH20 0xFFFFFFFFFFFFFFFFFFFFFFFFFFFFFFFFFFFFFFFF AND SWAP1 POP DUP1 PUSH20 0xFFFFFFFFFFFFFFFFFFFFFFFFFFFFFFFFFFFFFFFF AND CALLER PUSH20 0xFFFFFFFFFFFFFFFFFFFFFFFFFFFFFFFFFFFFFFFF AND EQ DUP1 PUSH2 0x6BB JUMPI POP PUSH1 0x5 PUSH1 0x0 DUP3 PUSH20 0xFFFFFFFFFFFFFFFFFFFFFFFFFFFFFFFFFFFFFFFF AND PUSH20 0xFFFFFFFFFFFFFFFFFFFFFFFFFFFFFFFFFFFFFFFF AND DUP2 MSTORE PUSH1 0x20 ADD SWAP1 DUP2 MSTORE PUSH1 0x20 ADD PUSH1 0x0 KECCAK256 PUSH1 0x0 CALLER PUSH20 0xFFFFFFFFFFFFFFFFFFFFFFFFFFFFFFFFFFFFFFFF AND PUSH20 0xFFFFFFFFFFFFFFFFFFFFFFFFFFFFFFFFFFFFFFFF AND DUP2 MSTORE PUSH1 0x20 ADD SWAP1 DUP2 MSTORE PUSH1 0x20 ADD PUSH1 0x0 KECCAK256 PUSH1 0x0 SWAP1 SLOAD SWAP1 PUSH2 0x100 EXP SWAP1 DIV PUSH1 0xFF AND JUMPDEST PUSH2 0x6FA JUMPI PUSH1 0x40 MLOAD PUSH32 0x8C379A000000000000000000000000000000000000000000000000000000000 DUP2 MSTORE PUSH1 0x4 ADD PUSH2 0x6F1 SWAP1 PUSH2 0x1D6D JUMP JUMPDEST PUSH1 0x40 MLOAD DUP1 SWAP2 SUB SWAP1 REVERT JUMPDEST PUSH2 0x705 DUP2 DUP5 DUP5 PUSH2 0xC98 JUMP JUMPDEST POP POP POP JUMP JUMPDEST PUSH1 0x0 PUSH2 0x715 DUP3 PUSH2 0x7D1 JUMP JUMPDEST SWAP1 POP PUSH2 0x722 DUP2 CALLER DUP5 PUSH2 0xD2A JUMP JUMPDEST PUSH2 0x72B JUMPI PUSH1 0x0 DUP1 REVERT JUMPDEST PUSH2 0x737 DUP2 DUP6 DUP6 DUP6 PUSH2 0xE5E JUMP JUMPDEST POP POP POP POP JUMP JUMPDEST PUSH1 0x0 DUP2 LT ISZERO DUP1 ISZERO PUSH2 0x74F JUMPI POP PUSH1 0x6 SLOAD DUP2 LT JUMPDEST PUSH2 0x78E JUMPI PUSH1 0x40 MLOAD PUSH32 0x8C379A000000000000000000000000000000000000000000000000000000000 DUP2 MSTORE PUSH1 0x4 ADD PUSH2 0x785 SWAP1 PUSH2 0x1D4D JUMP JUMPDEST PUSH1 0x40 MLOAD DUP1 SWAP2 SUB SWAP1 REVERT JUMPDEST PUSH2 0x798 DUP3 DUP3 PUSH2 0x1089 JUMP JUMPDEST POP POP JUMP JUMPDEST PUSH1 0x0 PUSH2 0x7A7 DUP3 PUSH2 0x7D1 JUMP JUMPDEST SWAP1 POP PUSH2 0x7C5 DUP2 DUP6 DUP6 DUP6 PUSH1 0x40 MLOAD DUP1 PUSH1 0x20 ADD PUSH1 0x40 MSTORE DUP1 PUSH1 0x0 DUP2 MSTORE POP PUSH2 0x1284 JUMP JUMPDEST POP POP POP POP JUMP JUMPDEST PUSH1 0x6 SLOAD DUP2 JUMP JUMPDEST PUSH1 0x0 PUSH1 0x2 PUSH1 0x0 DUP4 DUP2 MSTORE PUSH1 0x20 ADD SWAP1 DUP2 MSTORE PUSH1 0x20 ADD PUSH1 0x0 KECCAK256 PUSH1 0x0 SWAP1 SLOAD SWAP1 PUSH2 0x100 EXP SWAP1 DIV PUSH20 0xFFFFFFFFFFFFFFFFFFFFFFFFFFFFFFFFFFFFFFFF AND SWAP1 POP PUSH1 0x0 PUSH20 0xFFFFFFFFFFFFFFFFFFFFFFFFFFFFFFFFFFFFFFFF AND DUP2 PUSH20 0xFFFFFFFFFFFFFFFFFFFFFFFFFFFFFFFFFFFFFFFF AND EQ ISZERO PUSH2 0x879 JUMPI PUSH1 0x40 MLOAD PUSH32 0x8C379A000000000000000000000000000000000000000000000000000000000 DUP2 MSTORE PUSH1 0x4 ADD PUSH2 0x870 SWAP1 PUSH2 0x1DCD JUMP JUMPDEST PUSH1 0x40 MLOAD DUP1 SWAP2 SUB SWAP1 REVERT JUMPDEST SWAP2 SWAP1 POP JUMP JUMPDEST PUSH1 0x0 DUP1 PUSH20 0xFFFFFFFFFFFFFFFFFFFFFFFFFFFFFFFFFFFFFFFF AND DUP3 PUSH20 0xFFFFFFFFFFFFFFFFFFFFFFFFFFFFFFFFFFFFFFFF AND EQ ISZERO PUSH2 0x8EF JUMPI PUSH1 0x40 MLOAD PUSH32 0x8C379A000000000000000000000000000000000000000000000000000000000 DUP2 MSTORE PUSH1 0x4 ADD PUSH2 0x8E6 SWAP1 PUSH2 0x1E0D JUMP JUMPDEST PUSH1 0x40 MLOAD DUP1 SWAP2 SUB SWAP1 REVERT JUMPDEST PUSH1 0x3 PUSH1 0x0 DUP4 PUSH20 0xFFFFFFFFFFFFFFFFFFFFFFFFFFFFFFFFFFFFFFFF AND PUSH20 0xFFFFFFFFFFFFFFFFFFFFFFFFFFFFFFFFFFFFFFFF AND DUP2 MSTORE PUSH1 0x20 ADD SWAP1 DUP2 MSTORE PUSH1 0x20 ADD PUSH1 0x0 KECCAK256 SLOAD SWAP1 POP SWAP2 SWAP1 POP JUMP JUMPDEST PUSH1 0x1 DUP1 SLOAD PUSH2 0x943 SWAP1 PUSH2 0x20BD JUMP JUMPDEST DUP1 PUSH1 0x1F ADD PUSH1 0x20 DUP1 SWAP2 DIV MUL PUSH1 0x20 ADD PUSH1 0x40 MLOAD SWAP1 DUP2 ADD PUSH1 0x40 MSTORE DUP1 SWAP3 SWAP2 SWAP1 DUP2 DUP2 MSTORE PUSH1 0x20 ADD DUP3 DUP1 SLOAD PUSH2 0x96F SWAP1 PUSH2 0x20BD JUMP JUMPDEST DUP1 ISZERO PUSH2 0x9BC JUMPI DUP1 PUSH1 0x1F LT PUSH2 0x991 JUMPI PUSH2 0x100 DUP1 DUP4 SLOAD DIV MUL DUP4 MSTORE SWAP2 PUSH1 0x20 ADD SWAP2 PUSH2 0x9BC JUMP JUMPDEST DUP3 ADD SWAP2 SWAP1 PUSH1 0x0 MSTORE PUSH1 0x20 PUSH1 0x0 KECCAK256 SWAP1 JUMPDEST DUP2 SLOAD DUP2 MSTORE SWAP1 PUSH1 0x1 ADD SWAP1 PUSH1 0x20 ADD DUP1 DUP4 GT PUSH2 0x99F JUMPI DUP3 SWAP1 SUB PUSH1 0x1F AND DUP3 ADD SWAP2 JUMPDEST POP POP POP POP POP DUP2 JUMP JUMPDEST PUSH1 0x0 PUSH2 0x9CF DUP4 PUSH2 0x7D1 JUMP JUMPDEST SWAP1 POP PUSH2 0x9DC DUP2 CALLER DUP6 PUSH2 0xD2A JUMP JUMPDEST PUSH2 0xA1B JUMPI PUSH1 0x40 MLOAD PUSH32 0x8C379A000000000000000000000000000000000000000000000000000000000 DUP2 MSTORE PUSH1 0x4 ADD PUSH2 0xA12 SWAP1 PUSH2 0x1DAD JUMP JUMPDEST PUSH1 0x40 MLOAD DUP1 SWAP2 SUB SWAP1 REVERT JUMPDEST PUSH2 0xA28 DUP2 DUP7 DUP7 DUP7 DUP7 PUSH2 0x1284 JUMP JUMPDEST POP POP POP POP POP JUMP JUMPDEST DUP1 PUSH1 0x5 PUSH1 0x0 CALLER PUSH20 0xFFFFFFFFFFFFFFFFFFFFFFFFFFFFFFFFFFFFFFFF AND PUSH20 0xFFFFFFFFFFFFFFFFFFFFFFFFFFFFFFFFFFFFFFFF AND DUP2 MSTORE PUSH1 0x20 ADD SWAP1 DUP2 MSTORE PUSH1 0x20 ADD PUSH1 0x0 KECCAK256 PUSH1 0x0 DUP5 PUSH20 0xFFFFFFFFFFFFFFFFFFFFFFFFFFFFFFFFFFFFFFFF AND PUSH20 0xFFFFFFFFFFFFFFFFFFFFFFFFFFFFFFFFFFFFFFFF AND DUP2 MSTORE PUSH1 0x20 ADD SWAP1 DUP2 MSTORE PUSH1 0x20 ADD PUSH1 0x0 KECCAK256 PUSH1 0x0 PUSH2 0x100 EXP DUP2 SLOAD DUP2 PUSH1 0xFF MUL NOT AND SWAP1 DUP4 ISZERO ISZERO MUL OR SWAP1 SSTORE POP PUSH32 0x6E58F42F8934DE1BF5B284476BA8126EE2D334C7AACF1AC87C6D4EBDB6FFB683 CALLER DUP4 DUP4 PUSH1 0x40 MLOAD PUSH2 0xAF6 SWAP4 SWAP3 SWAP2 SWAP1 PUSH2 0x1C56 JUMP JUMPDEST PUSH1 0x40 MLOAD DUP1 SWAP2 SUB SWAP1 LOG1 POP POP JUMP JUMPDEST PUSH1 0x60 PUSH1 0x0 PUSH20 0xFFFFFFFFFFFFFFFFFFFFFFFFFFFFFFFFFFFFFFFF AND PUSH1 0x2 PUSH1 0x0 DUP5 DUP2 MSTORE PUSH1 0x20 ADD SWAP1 DUP2 MSTORE PUSH1 0x20 ADD PUSH1 0x0 KECCAK256 PUSH1 0x0 SWAP1 SLOAD SWAP1 PUSH2 0x100 EXP SWAP1 DIV PUSH20 0xFFFFFFFFFFFFFFFFFFFFFFFFFFFFFFFFFFFFFFFF AND PUSH20 0xFFFFFFFFFFFFFFFFFFFFFFFFFFFFFFFFFFFFFFFF AND EQ ISZERO PUSH2 0xBA7 JUMPI PUSH1 0x40 MLOAD PUSH32 0x8C379A000000000000000000000000000000000000000000000000000000000 DUP2 MSTORE PUSH1 0x4 ADD PUSH2 0xB9E SWAP1 PUSH2 0x1E2D JUMP JUMPDEST PUSH1 0x40 MLOAD DUP1 SWAP2 SUB SWAP1 REVERT JUMPDEST PUSH1 0x0 PUSH2 0xBB1 PUSH2 0x12E2 JUMP JUMPDEST SWAP1 POP PUSH1 0x0 DUP2 MLOAD GT PUSH2 0xBD1 JUMPI PUSH1 0x40 MLOAD DUP1 PUSH1 0x20 ADD PUSH1 0x40 MSTORE DUP1 PUSH1 0x0 DUP2 MSTORE POP PUSH2 0xBFC JUMP JUMPDEST DUP1 PUSH2 0xBDB DUP5 PUSH2 0x1302 JUMP JUMPDEST PUSH1 0x40 MLOAD PUSH1 0x20 ADD PUSH2 0xBEC SWAP3 SWAP2 SWAP1 PUSH2 0x1C17 JUMP JUMPDEST PUSH1 0x40 MLOAD PUSH1 0x20 DUP2 DUP4 SUB SUB DUP2 MSTORE SWAP1 PUSH1 0x40 MSTORE JUMPDEST SWAP2 POP POP SWAP2 SWAP1 POP JUMP JUMPDEST PUSH1 0x0 PUSH1 0x5 PUSH1 0x0 DUP5 PUSH20 0xFFFFFFFFFFFFFFFFFFFFFFFFFFFFFFFFFFFFFFFF AND PUSH20 0xFFFFFFFFFFFFFFFFFFFFFFFFFFFFFFFFFFFFFFFF AND DUP2 MSTORE PUSH1 0x20 ADD SWAP1 DUP2 MSTORE PUSH1 0x20 ADD PUSH1 0x0 KECCAK256 PUSH1 0x0 DUP4 PUSH20 0xFFFFFFFFFFFFFFFFFFFFFFFFFFFFFFFFFFFFFFFF AND PUSH20 0xFFFFFFFFFFFFFFFFFFFFFFFFFFFFFFFFFFFFFFFF AND DUP2 MSTORE PUSH1 0x20 ADD SWAP1 DUP2 MSTORE PUSH1 0x20 ADD PUSH1 0x0 KECCAK256 PUSH1 0x0 SWAP1 SLOAD SWAP1 PUSH2 0x100 EXP SWAP1 DIV PUSH1 0xFF AND SWAP1 POP SWAP3 SWAP2 POP POP JUMP JUMPDEST DUP2 PUSH1 0x4 PUSH1 0x0 DUP4 DUP2 MSTORE PUSH1 0x20 ADD SWAP1 DUP2 MSTORE PUSH1 0x20 ADD PUSH1 0x0 KECCAK256 PUSH1 0x0 PUSH2 0x100 EXP DUP2 SLOAD DUP2 PUSH20 0xFFFFFFFFFFFFFFFFFFFFFFFFFFFFFFFFFFFFFFFF MUL NOT AND SWAP1 DUP4 PUSH20 0xFFFFFFFFFFFFFFFFFFFFFFFFFFFFFFFFFFFFFFFF AND MUL OR SWAP1 SSTORE POP PUSH32 0x6E11FB1B7F119E3F2FA29896EF5FDF8B8A2D0D4DF6FE90BA8668E7D8B2FFA25E DUP4 DUP4 DUP4 PUSH1 0x40 MLOAD PUSH2 0xD1D SWAP4 SWAP3 SWAP2 SWAP1 PUSH2 0x1C8D JUMP JUMPDEST PUSH1 0x40 MLOAD DUP1 SWAP2 SUB SWAP1 LOG1 POP POP POP JUMP JUMPDEST PUSH1 0x0 DUP4 PUSH20 0xFFFFFFFFFFFFFFFFFFFFFFFFFFFFFFFFFFFFFFFF AND DUP4 PUSH20 0xFFFFFFFFFFFFFFFFFFFFFFFFFFFFFFFFFFFFFFFF AND EQ DUP1 PUSH2 0xDC4 JUMPI POP DUP3 PUSH20 0xFFFFFFFFFFFFFFFFFFFFFFFFFFFFFFFFFFFFFFFF AND PUSH1 0x4 PUSH1 0x0 DUP5 DUP2 MSTORE PUSH1 0x20 ADD SWAP1 DUP2 MSTORE PUSH1 0x20 ADD PUSH1 0x0 KECCAK256 PUSH1 0x0 SWAP1 SLOAD SWAP1 PUSH2 0x100 EXP SWAP1 DIV PUSH20 0xFFFFFFFFFFFFFFFFFFFFFFFFFFFFFFFFFFFFFFFF AND PUSH20 0xFFFFFFFFFFFFFFFFFFFFFFFFFFFFFFFFFFFFFFFF AND EQ JUMPDEST DUP1 PUSH2 0xE55 JUMPI POP PUSH1 0x5 PUSH1 0x0 DUP6 PUSH20 0xFFFFFFFFFFFFFFFFFFFFFFFFFFFFFFFFFFFFFFFF AND PUSH20 0xFFFFFFFFFFFFFFFFFFFFFFFFFFFFFFFFFFFFFFFF AND DUP2 MSTORE PUSH1 0x20 ADD SWAP1 DUP2 MSTORE PUSH1 0x20 ADD PUSH1 0x0 KECCAK256 PUSH1 0x0 DUP5 PUSH20 0xFFFFFFFFFFFFFFFFFFFFFFFFFFFFFFFFFFFFFFFF AND PUSH20 0xFFFFFFFFFFFFFFFFFFFFFFFFFFFFFFFFFFFFFFFF AND DUP2 MSTORE PUSH1 0x20 ADD SWAP1 DUP2 MSTORE PUSH1 0x20 ADD PUSH1 0x0 KECCAK256 PUSH1 0x0 SWAP1 SLOAD SWAP1 PUSH2 0x100 EXP SWAP1 DIV PUSH1 0xFF AND JUMPDEST SWAP1 POP SWAP4 SWAP3 POP POP POP JUMP JUMPDEST DUP4 PUSH20 0xFFFFFFFFFFFFFFFFFFFFFFFFFFFFFFFFFFFFFFFF AND DUP4 PUSH20 0xFFFFFFFFFFFFFFFFFFFFFFFFFFFFFFFFFFFFFFFF AND EQ PUSH2 0xECC JUMPI PUSH1 0x40 MLOAD PUSH32 0x8C379A000000000000000000000000000000000000000000000000000000000 DUP2 MSTORE PUSH1 0x4 ADD PUSH2 0xEC3 SWAP1 PUSH2 0x1E6D JUMP JUMPDEST PUSH1 0x40 MLOAD DUP1 SWAP2 SUB SWAP1 REVERT JUMPDEST PUSH1 0x0 PUSH20 0xFFFFFFFFFFFFFFFFFFFFFFFFFFFFFFFFFFFFFFFF AND DUP3 PUSH20 0xFFFFFFFFFFFFFFFFFFFFFFFFFFFFFFFFFFFFFFFF AND EQ ISZERO PUSH2 0xF3C JUMPI PUSH1 0x40 MLOAD PUSH32 0x8C379A000000000000000000000000000000000000000000000000000000000 DUP2 MSTORE PUSH1 0x4 ADD PUSH2 0xF33 SWAP1 PUSH2 0x1D8D JUMP JUMPDEST PUSH1 0x40 MLOAD DUP1 SWAP2 SUB SWAP1 REVERT JUMPDEST PUSH2 0xF48 DUP5 PUSH1 0x0 DUP4 PUSH2 0xC98 JUMP JUMPDEST PUSH1 0x1 PUSH1 0x3 PUSH1 0x0 DUP6 PUSH20 0xFFFFFFFFFFFFFFFFFFFFFFFFFFFFFFFFFFFFFFFF AND PUSH20 0xFFFFFFFFFFFFFFFFFFFFFFFFFFFFFFFFFFFFFFFF AND DUP2 MSTORE PUSH1 0x20 ADD SWAP1 DUP2 MSTORE PUSH1 0x20 ADD PUSH1 0x0 KECCAK256 PUSH1 0x0 DUP3 DUP3 SLOAD PUSH2 0xF98 SWAP2 SWAP1 PUSH2 0x1FD3 JUMP JUMPDEST SWAP3 POP POP DUP2 SWAP1 SSTORE POP PUSH1 0x1 PUSH1 0x3 PUSH1 0x0 DUP5 PUSH20 0xFFFFFFFFFFFFFFFFFFFFFFFFFFFFFFFFFFFFFFFF AND PUSH20 0xFFFFFFFFFFFFFFFFFFFFFFFFFFFFFFFFFFFFFFFF AND DUP2 MSTORE PUSH1 0x20 ADD SWAP1 DUP2 MSTORE PUSH1 0x20 ADD PUSH1 0x0 KECCAK256 PUSH1 0x0 DUP3 DUP3 SLOAD PUSH2 0xFEF SWAP2 SWAP1 PUSH2 0x1F4C JUMP JUMPDEST SWAP3 POP POP DUP2 SWAP1 SSTORE POP DUP2 PUSH1 0x2 PUSH1 0x0 DUP4 DUP2 MSTORE PUSH1 0x20 ADD SWAP1 DUP2 MSTORE PUSH1 0x20 ADD PUSH1 0x0 KECCAK256 PUSH1 0x0 PUSH2 0x100 EXP DUP2 SLOAD DUP2 PUSH20 0xFFFFFFFFFFFFFFFFFFFFFFFFFFFFFFFFFFFFFFFF MUL NOT AND SWAP1 DUP4 PUSH20 0xFFFFFFFFFFFFFFFFFFFFFFFFFFFFFFFFFFFFFFFF AND MUL OR SWAP1 SSTORE POP PUSH32 0xDDF252AD1BE2C89B69C2B068FC378DAA952BA7F163C4A11628F55A4DF523B3EF DUP4 DUP4 DUP4 PUSH1 0x40 MLOAD PUSH2 0x107B SWAP4 SWAP3 SWAP2 SWAP1 PUSH2 0x1C8D JUMP JUMPDEST PUSH1 0x40 MLOAD DUP1 SWAP2 SUB SWAP1 LOG1 POP POP POP POP JUMP JUMPDEST PUSH1 0x0 PUSH20 0xFFFFFFFFFFFFFFFFFFFFFFFFFFFFFFFFFFFFFFFF AND DUP3 PUSH20 0xFFFFFFFFFFFFFFFFFFFFFFFFFFFFFFFFFFFFFFFF AND EQ ISZERO PUSH2 0x10F9 JUMPI PUSH1 0x40 MLOAD PUSH32 0x8C379A000000000000000000000000000000000000000000000000000000000 DUP2 MSTORE PUSH1 0x4 ADD PUSH2 0x10F0 SWAP1 PUSH2 0x1D8D JUMP JUMPDEST PUSH1 0x40 MLOAD DUP1 SWAP2 SUB SWAP1 REVERT JUMPDEST PUSH1 0x0 PUSH20 0xFFFFFFFFFFFFFFFFFFFFFFFFFFFFFFFFFFFFFFFF AND PUSH1 0x2 PUSH1 0x0 DUP4 DUP2 MSTORE PUSH1 0x20 ADD SWAP1 DUP2 MSTORE PUSH1 0x20 ADD PUSH1 0x0 KECCAK256 PUSH1 0x0 SWAP1 SLOAD SWAP1 PUSH2 0x100 EXP SWAP1 DIV PUSH20 0xFFFFFFFFFFFFFFFFFFFFFFFFFFFFFFFFFFFFFFFF AND PUSH20 0xFFFFFFFFFFFFFFFFFFFFFFFFFFFFFFFFFFFFFFFF AND EQ PUSH2 0x119B JUMPI PUSH1 0x40 MLOAD PUSH32 0x8C379A000000000000000000000000000000000000000000000000000000000 DUP2 MSTORE PUSH1 0x4 ADD PUSH2 0x1192 SWAP1 PUSH2 0x1DED JUMP JUMPDEST PUSH1 0x40 MLOAD DUP1 SWAP2 SUB SWAP1 REVERT JUMPDEST PUSH1 0x1 PUSH1 0x3 PUSH1 0x0 DUP5 PUSH20 0xFFFFFFFFFFFFFFFFFFFFFFFFFFFFFFFFFFFFFFFF AND PUSH20 0xFFFFFFFFFFFFFFFFFFFFFFFFFFFFFFFFFFFFFFFF AND DUP2 MSTORE PUSH1 0x20 ADD SWAP1 DUP2 MSTORE PUSH1 0x20 ADD PUSH1 0x0 KECCAK256 PUSH1 0x0 DUP3 DUP3 SLOAD PUSH2 0x11EB SWAP2 SWAP1 PUSH2 0x1F4C JUMP JUMPDEST SWAP3 POP POP DUP2 SWAP1 SSTORE POP DUP2 PUSH1 0x2 PUSH1 0x0 DUP4 DUP2 MSTORE PUSH1 0x20 ADD SWAP1 DUP2 MSTORE PUSH1 0x20 ADD PUSH1 0x0 KECCAK256 PUSH1 0x0 PUSH2 0x100 EXP DUP2 SLOAD DUP2 PUSH20 0xFFFFFFFFFFFFFFFFFFFFFFFFFFFFFFFFFFFFFFFF MUL NOT AND SWAP1 DUP4 PUSH20 0xFFFFFFFFFFFFFFFFFFFFFFFFFFFFFFFFFFFFFFFF AND MUL OR SWAP1 SSTORE POP PUSH32 0xDDF252AD1BE2C89B69C2B068FC378DAA952BA7F163C4A11628F55A4DF523B3EF PUSH1 0x0 DUP4 DUP4 PUSH1 0x40 MLOAD PUSH2 0x1278 SWAP4 SWAP3 SWAP2 SWAP1 PUSH2 0x1C8D JUMP JUMPDEST PUSH1 0x40 MLOAD DUP1 SWAP2 SUB SWAP1 LOG1 POP POP JUMP JUMPDEST PUSH2 0x1290 DUP6 DUP6 DUP6 DUP6 PUSH2 0xE5E JUMP JUMPDEST PUSH2 0x129C DUP5 DUP5 DUP5 DUP5 PUSH2 0x14AF JUMP JUMPDEST PUSH2 0x12DB JUMPI PUSH1 0x40 MLOAD PUSH32 0x8C379A000000000000000000000000000000000000000000000000000000000 DUP2 MSTORE PUSH1 0x4 ADD PUSH2 0x12D2 SWAP1 PUSH2 0x1E4D JUMP JUMPDEST PUSH1 0x40 MLOAD DUP1 SWAP2 SUB SWAP1 REVERT JUMPDEST POP POP POP POP POP JUMP JUMPDEST PUSH1 0x60 PUSH1 0x40 MLOAD DUP1 PUSH1 0x60 ADD PUSH1 0x40 MSTORE DUP1 PUSH1 0x36 DUP2 MSTORE PUSH1 0x20 ADD PUSH2 0x2293 PUSH1 0x36 SWAP2 CODECOPY SWAP1 POP SWAP1 JUMP JUMPDEST PUSH1 0x60 PUSH1 0x0 DUP3 EQ ISZERO PUSH2 0x134A JUMPI PUSH1 0x40 MLOAD DUP1 PUSH1 0x40 ADD PUSH1 0x40 MSTORE DUP1 PUSH1 0x1 DUP2 MSTORE PUSH1 0x20 ADD PUSH32 0x3000000000000000000000000000000000000000000000000000000000000000 DUP2 MSTORE POP SWAP1 POP PUSH2 0x14AA JUMP JUMPDEST PUSH1 0x0 DUP3 SWAP1 POP PUSH1 0x0 JUMPDEST PUSH1 0x0 DUP3 EQ PUSH2 0x137C JUMPI DUP1 DUP1 PUSH2 0x1365 SWAP1 PUSH2 0x20EF JUMP JUMPDEST SWAP2 POP POP PUSH1 0xA DUP3 PUSH2 0x1375 SWAP2 SWAP1 PUSH2 0x1FA2 JUMP JUMPDEST SWAP2 POP PUSH2 0x1352 JUMP JUMPDEST PUSH1 0x0 DUP2 PUSH8 0xFFFFFFFFFFFFFFFF DUP2 GT ISZERO PUSH2 0x13BE JUMPI PUSH32 0x4E487B7100000000000000000000000000000000000000000000000000000000 PUSH1 0x0 MSTORE PUSH1 0x41 PUSH1 0x4 MSTORE PUSH1 0x24 PUSH1 0x0 REVERT JUMPDEST PUSH1 0x40 MLOAD SWAP1 DUP1 DUP3 MSTORE DUP1 PUSH1 0x1F ADD PUSH1 0x1F NOT AND PUSH1 0x20 ADD DUP3 ADD PUSH1 0x40 MSTORE DUP1 ISZERO PUSH2 0x13F0 JUMPI DUP2 PUSH1 0x20 ADD PUSH1 0x1 DUP3 MUL DUP1 CALLDATASIZE DUP4 CALLDATACOPY DUP1 DUP3 ADD SWAP2 POP POP SWAP1 POP JUMPDEST POP SWAP1 POP JUMPDEST PUSH1 0x0 DUP6 EQ PUSH2 0x14A3 JUMPI PUSH1 0x1 DUP3 PUSH2 0x1409 SWAP2 SWAP1 PUSH2 0x1FD3 JUMP JUMPDEST SWAP2 POP PUSH1 0xA DUP6 PUSH2 0x1418 SWAP2 SWAP1 PUSH2 0x2138 JUMP JUMPDEST PUSH1 0x30 PUSH2 0x1424 SWAP2 SWAP1 PUSH2 0x1F4C JUMP JUMPDEST PUSH1 0xF8 SHL DUP2 DUP4 DUP2 MLOAD DUP2 LT PUSH2 0x1460 JUMPI PUSH32 0x4E487B7100000000000000000000000000000000000000000000000000000000 PUSH1 0x0 MSTORE PUSH1 0x32 PUSH1 0x4 MSTORE PUSH1 0x24 PUSH1 0x0 REVERT JUMPDEST PUSH1 0x20 ADD ADD SWAP1 PUSH31 0xFFFFFFFFFFFFFFFFFFFFFFFFFFFFFFFFFFFFFFFFFFFFFFFFFFFFFFFFFFFFFF NOT AND SWAP1 DUP2 PUSH1 0x0 BYTE SWAP1 MSTORE8 POP PUSH1 0xA DUP6 PUSH2 0x149C SWAP2 SWAP1 PUSH2 0x1FA2 JUMP JUMPDEST SWAP5 POP PUSH2 0x13F4 JUMP JUMPDEST DUP1 SWAP4 POP POP POP POP JUMPDEST SWAP2 SWAP1 POP JUMP JUMPDEST PUSH1 0x0 PUSH2 0x14D0 DUP5 PUSH20 0xFFFFFFFFFFFFFFFFFFFFFFFFFFFFFFFFFFFFFFFF AND PUSH2 0x15C1 JUMP JUMPDEST ISZERO PUSH2 0x15B4 JUMPI PUSH4 0x150B7A02 PUSH1 0xE0 SHL PUSH28 0xFFFFFFFFFFFFFFFFFFFFFFFFFFFFFFFFFFFFFFFFFFFFFFFFFFFFFFFF NOT AND DUP5 PUSH20 0xFFFFFFFFFFFFFFFFFFFFFFFFFFFFFFFFFFFFFFFF AND PUSH4 0x150B7A02 CALLER DUP9 DUP8 DUP8 PUSH1 0x40 MLOAD DUP6 PUSH4 0xFFFFFFFF AND PUSH1 0xE0 SHL DUP2 MSTORE PUSH1 0x4 ADD PUSH2 0x153B SWAP5 SWAP4 SWAP3 SWAP2 SWAP1 PUSH2 0x1CC4 JUMP JUMPDEST PUSH1 0x20 PUSH1 0x40 MLOAD DUP1 DUP4 SUB DUP2 PUSH1 0x0 DUP8 DUP1 EXTCODESIZE ISZERO DUP1 ISZERO PUSH2 0x1555 JUMPI PUSH1 0x0 DUP1 REVERT JUMPDEST POP GAS CALL ISZERO DUP1 ISZERO PUSH2 0x1569 JUMPI RETURNDATASIZE PUSH1 0x0 DUP1 RETURNDATACOPY RETURNDATASIZE PUSH1 0x0 REVERT JUMPDEST POP POP POP POP PUSH1 0x40 MLOAD RETURNDATASIZE PUSH1 0x1F NOT PUSH1 0x1F DUP3 ADD AND DUP3 ADD DUP1 PUSH1 0x40 MSTORE POP DUP2 ADD SWAP1 PUSH2 0x158D SWAP2 SWAP1 PUSH2 0x1875 JUMP JUMPDEST PUSH28 0xFFFFFFFFFFFFFFFFFFFFFFFFFFFFFFFFFFFFFFFFFFFFFFFFFFFFFFFF NOT AND EQ SWAP1 POP PUSH2 0x15B9 JUMP JUMPDEST PUSH1 0x1 SWAP1 POP JUMPDEST SWAP5 SWAP4 POP POP POP POP JUMP JUMPDEST PUSH1 0x0 DUP1 DUP3 EXTCODESIZE SWAP1 POP PUSH1 0x0 DUP2 GT SWAP2 POP POP SWAP2 SWAP1 POP JUMP JUMPDEST PUSH1 0x0 PUSH2 0x15E7 PUSH2 0x15E2 DUP5 PUSH2 0x1ED9 JUMP JUMPDEST PUSH2 0x1EA8 JUMP JUMPDEST SWAP1 POP DUP3 DUP2 MSTORE PUSH1 0x20 DUP2 ADD DUP5 DUP5 DUP5 ADD GT ISZERO PUSH2 0x15FF JUMPI PUSH1 0x0 DUP1 REVERT JUMPDEST PUSH2 0x160A DUP5 DUP3 DUP6 PUSH2 0x207B JUMP JUMPDEST POP SWAP4 SWAP3 POP POP POP JUMP JUMPDEST PUSH1 0x0 DUP2 CALLDATALOAD SWAP1 POP PUSH2 0x1621 DUP2 PUSH2 0x2236 JUMP JUMPDEST SWAP3 SWAP2 POP POP JUMP JUMPDEST PUSH1 0x0 DUP2 CALLDATALOAD SWAP1 POP PUSH2 0x1636 DUP2 PUSH2 0x224D JUMP JUMPDEST SWAP3 SWAP2 POP POP JUMP JUMPDEST PUSH1 0x0 DUP2 CALLDATALOAD SWAP1 POP PUSH2 0x164B DUP2 PUSH2 0x2264 JUMP JUMPDEST SWAP3 SWAP2 POP POP JUMP JUMPDEST PUSH1 0x0 DUP2 MLOAD SWAP1 POP PUSH2 0x1660 DUP2 PUSH2 0x2264 JUMP JUMPDEST SWAP3 SWAP2 POP POP JUMP JUMPDEST PUSH1 0x0 DUP3 PUSH1 0x1F DUP4 ADD SLT PUSH2 0x1677 JUMPI PUSH1 0x0 DUP1 REVERT JUMPDEST DUP2 CALLDATALOAD PUSH2 0x1687 DUP5 DUP3 PUSH1 0x20 DUP7 ADD PUSH2 0x15D4 JUMP JUMPDEST SWAP2 POP POP SWAP3 SWAP2 POP POP JUMP JUMPDEST PUSH1 0x0 DUP2 CALLDATALOAD SWAP1 POP PUSH2 0x169F DUP2 PUSH2 0x227B JUMP JUMPDEST SWAP3 SWAP2 POP POP JUMP JUMPDEST PUSH1 0x0 PUSH1 0x20 DUP3 DUP5 SUB SLT ISZERO PUSH2 0x16B7 JUMPI PUSH1 0x0 DUP1 REVERT JUMPDEST PUSH1 0x0 PUSH2 0x16C5 DUP5 DUP3 DUP6 ADD PUSH2 0x1612 JUMP JUMPDEST SWAP2 POP POP SWAP3 SWAP2 POP POP JUMP JUMPDEST PUSH1 0x0 DUP1 PUSH1 0x40 DUP4 DUP6 SUB SLT ISZERO PUSH2 0x16E1 JUMPI PUSH1 0x0 DUP1 REVERT JUMPDEST PUSH1 0x0 PUSH2 0x16EF DUP6 DUP3 DUP7 ADD PUSH2 0x1612 JUMP JUMPDEST SWAP3 POP POP PUSH1 0x20 PUSH2 0x1700 DUP6 DUP3 DUP7 ADD PUSH2 0x1612 JUMP JUMPDEST SWAP2 POP POP SWAP3 POP SWAP3 SWAP1 POP JUMP JUMPDEST PUSH1 0x0 DUP1 PUSH1 0x0 PUSH1 0x60 DUP5 DUP7 SUB SLT ISZERO PUSH2 0x171F JUMPI PUSH1 0x0 DUP1 REVERT JUMPDEST PUSH1 0x0 PUSH2 0x172D DUP7 DUP3 DUP8 ADD PUSH2 0x1612 JUMP JUMPDEST SWAP4 POP POP PUSH1 0x20 PUSH2 0x173E DUP7 DUP3 DUP8 ADD PUSH2 0x1612 JUMP JUMPDEST SWAP3 POP POP PUSH1 0x40 PUSH2 0x174F DUP7 DUP3 DUP8 ADD PUSH2 0x1690 JUMP JUMPDEST SWAP2 POP POP SWAP3 POP SWAP3 POP SWAP3 JUMP JUMPDEST PUSH1 0x0 DUP1 PUSH1 0x0 DUP1 PUSH1 0x80 DUP6 DUP8 SUB SLT ISZERO PUSH2 0x176F JUMPI PUSH1 0x0 DUP1 REVERT JUMPDEST PUSH1 0x0 PUSH2 0x177D DUP8 DUP3 DUP9 ADD PUSH2 0x1612 JUMP JUMPDEST SWAP5 POP POP PUSH1 0x20 PUSH2 0x178E DUP8 DUP3 DUP9 ADD PUSH2 0x1612 JUMP JUMPDEST SWAP4 POP POP PUSH1 0x40 PUSH2 0x179F DUP8 DUP3 DUP9 ADD PUSH2 0x1690 JUMP JUMPDEST SWAP3 POP POP PUSH1 0x60 DUP6 ADD CALLDATALOAD PUSH8 0xFFFFFFFFFFFFFFFF DUP2 GT ISZERO PUSH2 0x17BC JUMPI PUSH1 0x0 DUP1 REVERT JUMPDEST PUSH2 0x17C8 DUP8 DUP3 DUP9 ADD PUSH2 0x1666 JUMP JUMPDEST SWAP2 POP POP SWAP3 SWAP6 SWAP2 SWAP5 POP SWAP3 POP JUMP JUMPDEST PUSH1 0x0 DUP1 PUSH1 0x40 DUP4 DUP6 SUB SLT ISZERO PUSH2 0x17E7 JUMPI PUSH1 0x0 DUP1 REVERT JUMPDEST PUSH1 0x0 PUSH2 0x17F5 DUP6 DUP3 DUP7 ADD PUSH2 0x1612 JUMP JUMPDEST SWAP3 POP POP PUSH1 0x20 PUSH2 0x1806 DUP6 DUP3 DUP7 ADD PUSH2 0x1627 JUMP JUMPDEST SWAP2 POP POP SWAP3 POP SWAP3 SWAP1 POP JUMP JUMPDEST PUSH1 0x0 DUP1 PUSH1 0x40 DUP4 DUP6 SUB SLT ISZERO PUSH2 0x1823 JUMPI PUSH1 0x0 DUP1 REVERT JUMPDEST PUSH1 0x0 PUSH2 0x1831 DUP6 DUP3 DUP7 ADD PUSH2 0x1612 JUMP JUMPDEST SWAP3 POP POP PUSH1 0x20 PUSH2 0x1842 DUP6 DUP3 DUP7 ADD PUSH2 0x1690 JUMP JUMPDEST SWAP2 POP POP SWAP3 POP SWAP3 SWAP1 POP JUMP JUMPDEST PUSH1 0x0 PUSH1 0x20 DUP3 DUP5 SUB SLT ISZERO PUSH2 0x185E JUMPI PUSH1 0x0 DUP1 REVERT JUMPDEST PUSH1 0x0 PUSH2 0x186C DUP5 DUP3 DUP6 ADD PUSH2 0x163C JUMP JUMPDEST SWAP2 POP POP SWAP3 SWAP2 POP POP JUMP JUMPDEST PUSH1 0x0 PUSH1 0x20 DUP3 DUP5 SUB SLT ISZERO PUSH2 0x1887 JUMPI PUSH1 0x0 DUP1 REVERT JUMPDEST PUSH1 0x0 PUSH2 0x1895 DUP5 DUP3 DUP6 ADD PUSH2 0x1651 JUMP JUMPDEST SWAP2 POP POP SWAP3 SWAP2 POP POP JUMP JUMPDEST PUSH1 0x0 PUSH1 0x20 DUP3 DUP5 SUB SLT ISZERO PUSH2 0x18B0 JUMPI PUSH1 0x0 DUP1 REVERT JUMPDEST PUSH1 0x0 PUSH2 0x18BE DUP5 DUP3 DUP6 ADD PUSH2 0x1690 JUMP JUMPDEST SWAP2 POP POP SWAP3 SWAP2 POP POP JUMP JUMPDEST PUSH2 0x18D0 DUP2 PUSH2 0x2007 JUMP JUMPDEST DUP3 MSTORE POP POP JUMP JUMPDEST PUSH2 0x18DF DUP2 PUSH2 0x2019 JUMP JUMPDEST DUP3 MSTORE POP POP JUMP JUMPDEST PUSH1 0x0 PUSH2 0x18F0 DUP3 PUSH2 0x1F09 JUMP JUMPDEST PUSH2 0x18FA DUP2 DUP6 PUSH2 0x1F1F JUMP JUMPDEST SWAP4 POP PUSH2 0x190A DUP2 DUP6 PUSH1 0x20 DUP7 ADD PUSH2 0x208A JUMP JUMPDEST PUSH2 0x1913 DUP2 PUSH2 0x2225 JUMP JUMPDEST DUP5 ADD SWAP2 POP POP SWAP3 SWAP2 POP POP JUMP JUMPDEST PUSH1 0x0 PUSH2 0x1929 DUP3 PUSH2 0x1F14 JUMP JUMPDEST PUSH2 0x1933 DUP2 DUP6 PUSH2 0x1F30 JUMP JUMPDEST SWAP4 POP PUSH2 0x1943 DUP2 DUP6 PUSH1 0x20 DUP7 ADD PUSH2 0x208A JUMP JUMPDEST PUSH2 0x194C DUP2 PUSH2 0x2225 JUMP JUMPDEST DUP5 ADD SWAP2 POP POP SWAP3 SWAP2 POP POP JUMP JUMPDEST PUSH1 0x0 PUSH2 0x1962 DUP3 PUSH2 0x1F14 JUMP JUMPDEST PUSH2 0x196C DUP2 DUP6 PUSH2 0x1F41 JUMP JUMPDEST SWAP4 POP PUSH2 0x197C DUP2 DUP6 PUSH1 0x20 DUP7 ADD PUSH2 0x208A JUMP JUMPDEST DUP1 DUP5 ADD SWAP2 POP POP SWAP3 SWAP2 POP POP JUMP JUMPDEST PUSH1 0x0 PUSH2 0x1995 PUSH1 0x14 DUP4 PUSH2 0x1F30 JUMP JUMPDEST SWAP2 POP PUSH32 0x746F6B656E4964206F7574206F662072616E6765000000000000000000000000 PUSH1 0x0 DUP4 ADD MSTORE PUSH1 0x20 DUP3 ADD SWAP1 POP SWAP2 SWAP1 POP JUMP JUMPDEST PUSH1 0x0 PUSH2 0x19D5 PUSH1 0x1D DUP4 PUSH2 0x1F30 JUMP JUMPDEST SWAP2 POP PUSH32 0x6E6F74206F776E6572206F7220617070726F76656420666F7220616C6C000000 PUSH1 0x0 DUP4 ADD MSTORE PUSH1 0x20 DUP3 ADD SWAP1 POP SWAP2 SWAP1 POP JUMP JUMPDEST PUSH1 0x0 PUSH2 0x1A15 PUSH1 0xF DUP4 PUSH2 0x1F30 JUMP JUMPDEST SWAP2 POP PUSH32 0x746F206973203020616464726573730000000000000000000000000000000000 PUSH1 0x0 DUP4 ADD MSTORE PUSH1 0x20 DUP3 ADD SWAP1 POP SWAP2 SWAP1 POP JUMP JUMPDEST PUSH1 0x0 PUSH2 0x1A55 PUSH1 0x16 DUP4 PUSH2 0x1F30 JUMP JUMPDEST SWAP2 POP PUSH32 0x6E6F74206F776E6572206E6F7220617070726F76656400000000000000000000 PUSH1 0x0 DUP4 ADD MSTORE PUSH1 0x20 DUP3 ADD SWAP1 POP SWAP2 SWAP1 POP JUMP JUMPDEST PUSH1 0x0 PUSH2 0x1A95 PUSH1 0x13 DUP4 PUSH2 0x1F30 JUMP JUMPDEST SWAP2 POP PUSH32 0x746F6B656E20646F65736E277420657869737400000000000000000000000000 PUSH1 0x0 DUP4 ADD MSTORE PUSH1 0x20 DUP3 ADD SWAP1 POP SWAP2 SWAP1 POP JUMP JUMPDEST PUSH1 0x0 PUSH2 0x1AD5 PUSH1 0x14 DUP4 PUSH2 0x1F30 JUMP JUMPDEST SWAP2 POP PUSH32 0x746F6B656E20616C7265616479206D696E746564000000000000000000000000 PUSH1 0x0 DUP4 ADD MSTORE PUSH1 0x20 DUP3 ADD SWAP1 POP SWAP2 SWAP1 POP JUMP JUMPDEST PUSH1 0x0 PUSH2 0x1B15 PUSH1 0x11 DUP4 PUSH2 0x1F30 JUMP JUMPDEST SWAP2 POP PUSH32 0x6F776E6572203D20302061646472657373000000000000000000000000000000 PUSH1 0x0 DUP4 ADD MSTORE PUSH1 0x20 DUP3 ADD SWAP1 POP SWAP2 SWAP1 POP JUMP JUMPDEST PUSH1 0x0 PUSH2 0x1B55 PUSH1 0xF DUP4 PUSH2 0x1F30 JUMP JUMPDEST SWAP2 POP PUSH32 0x546F6B656E206E6F742065786973740000000000000000000000000000000000 PUSH1 0x0 DUP4 ADD MSTORE PUSH1 0x20 DUP3 ADD SWAP1 POP SWAP2 SWAP1 POP JUMP JUMPDEST PUSH1 0x0 PUSH2 0x1B95 PUSH1 0x12 DUP4 PUSH2 0x1F30 JUMP JUMPDEST SWAP2 POP PUSH32 0x6E6F742045524337323152656365697665720000000000000000000000000000 PUSH1 0x0 DUP4 ADD MSTORE PUSH1 0x20 DUP3 ADD SWAP1 POP SWAP2 SWAP1 POP JUMP JUMPDEST PUSH1 0x0 PUSH2 0x1BD5 PUSH1 0x9 DUP4 PUSH2 0x1F30 JUMP JUMPDEST SWAP2 POP PUSH32 0x6E6F74206F776E65720000000000000000000000000000000000000000000000 PUSH1 0x0 DUP4 ADD MSTORE PUSH1 0x20 DUP3 ADD SWAP1 POP SWAP2 SWAP1 POP JUMP JUMPDEST PUSH2 0x1C11 DUP2 PUSH2 0x2071 JUMP JUMPDEST DUP3 MSTORE POP POP JUMP JUMPDEST PUSH1 0x0 PUSH2 0x1C23 DUP3 DUP6 PUSH2 0x1957 JUMP JUMPDEST SWAP2 POP PUSH2 0x1C2F DUP3 DUP5 PUSH2 0x1957 JUMP JUMPDEST SWAP2 POP DUP2 SWAP1 POP SWAP4 SWAP3 POP POP POP JUMP JUMPDEST PUSH1 0x0 PUSH1 0x20 DUP3 ADD SWAP1 POP PUSH2 0x1C50 PUSH1 0x0 DUP4 ADD DUP5 PUSH2 0x18C7 JUMP JUMPDEST SWAP3 SWAP2 POP POP JUMP JUMPDEST PUSH1 0x0 PUSH1 0x60 DUP3 ADD SWAP1 POP PUSH2 0x1C6B PUSH1 0x0 DUP4 ADD DUP7 PUSH2 0x18C7 JUMP JUMPDEST PUSH2 0x1C78 PUSH1 0x20 DUP4 ADD DUP6 PUSH2 0x18C7 JUMP JUMPDEST PUSH2 0x1C85 PUSH1 0x40 DUP4 ADD DUP5 PUSH2 0x18D6 JUMP JUMPDEST SWAP5 SWAP4 POP POP POP POP JUMP JUMPDEST PUSH1 0x0 PUSH1 0x60 DUP3 ADD SWAP1 POP PUSH2 0x1CA2 PUSH1 0x0 DUP4 ADD DUP7 PUSH2 0x18C7 JUMP JUMPDEST PUSH2 0x1CAF PUSH1 0x20 DUP4 ADD DUP6 PUSH2 0x18C7 JUMP JUMPDEST PUSH2 0x1CBC PUSH1 0x40 DUP4 ADD DUP5 PUSH2 0x1C08 JUMP JUMPDEST SWAP5 SWAP4 POP POP POP POP JUMP JUMPDEST PUSH1 0x0 PUSH1 0x80 DUP3 ADD SWAP1 POP PUSH2 0x1CD9 PUSH1 0x0 DUP4 ADD DUP8 PUSH2 0x18C7 JUMP JUMPDEST PUSH2 0x1CE6 PUSH1 0x20 DUP4 ADD DUP7 PUSH2 0x18C7 JUMP JUMPDEST PUSH2 0x1CF3 PUSH1 0x40 DUP4 ADD DUP6 PUSH2 0x1C08 JUMP JUMPDEST DUP2 DUP2 SUB PUSH1 0x60 DUP4 ADD MSTORE PUSH2 0x1D05 DUP2 DUP5 PUSH2 0x18E5 JUMP JUMPDEST SWAP1 POP SWAP6 SWAP5 POP POP POP POP POP JUMP JUMPDEST PUSH1 0x0 PUSH1 0x20 DUP3 ADD SWAP1 POP PUSH2 0x1D25 PUSH1 0x0 DUP4 ADD DUP5 PUSH2 0x18D6 JUMP JUMPDEST SWAP3 SWAP2 POP POP JUMP JUMPDEST PUSH1 0x0 PUSH1 0x20 DUP3 ADD SWAP1 POP DUP2 DUP2 SUB PUSH1 0x0 DUP4 ADD MSTORE PUSH2 0x1D45 DUP2 DUP5 PUSH2 0x191E JUMP JUMPDEST SWAP1 POP SWAP3 SWAP2 POP POP JUMP JUMPDEST PUSH1 0x0 PUSH1 0x20 DUP3 ADD SWAP1 POP DUP2 DUP2 SUB PUSH1 0x0 DUP4 ADD MSTORE PUSH2 0x1D66 DUP2 PUSH2 0x1988 JUMP JUMPDEST SWAP1 POP SWAP2 SWAP1 POP JUMP JUMPDEST PUSH1 0x0 PUSH1 0x20 DUP3 ADD SWAP1 POP DUP2 DUP2 SUB PUSH1 0x0 DUP4 ADD MSTORE PUSH2 0x1D86 DUP2 PUSH2 0x19C8 JUMP JUMPDEST SWAP1 POP SWAP2 SWAP1 POP JUMP JUMPDEST PUSH1 0x0 PUSH1 0x20 DUP3 ADD SWAP1 POP DUP2 DUP2 SUB PUSH1 0x0 DUP4 ADD MSTORE PUSH2 0x1DA6 DUP2 PUSH2 0x1A08 JUMP JUMPDEST SWAP1 POP SWAP2 SWAP1 POP JUMP JUMPDEST PUSH1 0x0 PUSH1 0x20 DUP3 ADD SWAP1 POP DUP2 DUP2 SUB PUSH1 0x0 DUP4 ADD MSTORE PUSH2 0x1DC6 DUP2 PUSH2 0x1A48 JUMP JUMPDEST SWAP1 POP SWAP2 SWAP1 POP JUMP JUMPDEST PUSH1 0x0 PUSH1 0x20 DUP3 ADD SWAP1 POP DUP2 DUP2 SUB PUSH1 0x0 DUP4 ADD MSTORE PUSH2 0x1DE6 DUP2 PUSH2 0x1A88 JUMP JUMPDEST SWAP1 POP SWAP2 SWAP1 POP JUMP JUMPDEST PUSH1 0x0 PUSH1 0x20 DUP3 ADD SWAP1 POP DUP2 DUP2 SUB PUSH1 0x0 DUP4 ADD MSTORE PUSH2 0x1E06 DUP2 PUSH2 0x1AC8 JUMP JUMPDEST SWAP1 POP SWAP2 SWAP1 POP JUMP JUMPDEST PUSH1 0x0 PUSH1 0x20 DUP3 ADD SWAP1 POP DUP2 DUP2 SUB PUSH1 0x0 DUP4 ADD MSTORE PUSH2 0x1E26 DUP2 PUSH2 0x1B08 JUMP JUMPDEST SWAP1 POP SWAP2 SWAP1 POP JUMP JUMPDEST PUSH1 0x0 PUSH1 0x20 DUP3 ADD SWAP1 POP DUP2 DUP2 SUB PUSH1 0x0 DUP4 ADD MSTORE PUSH2 0x1E46 DUP2 PUSH2 0x1B48 JUMP JUMPDEST SWAP1 POP SWAP2 SWAP1 POP JUMP JUMPDEST PUSH1 0x0 PUSH1 0x20 DUP3 ADD SWAP1 POP DUP2 DUP2 SUB PUSH1 0x0 DUP4 ADD MSTORE PUSH2 0x1E66 DUP2 PUSH2 0x1B88 JUMP JUMPDEST SWAP1 POP SWAP2 SWAP1 POP JUMP JUMPDEST PUSH1 0x0 PUSH1 0x20 DUP3 ADD SWAP1 POP DUP2 DUP2 SUB PUSH1 0x0 DUP4 ADD MSTORE PUSH2 0x1E86 DUP2 PUSH2 0x1BC8 JUMP JUMPDEST SWAP1 POP SWAP2 SWAP1 POP JUMP JUMPDEST PUSH1 0x0 PUSH1 0x20 DUP3 ADD SWAP1 POP PUSH2 0x1EA2 PUSH1 0x0 DUP4 ADD DUP5 PUSH2 0x1C08 JUMP JUMPDEST SWAP3 SWAP2 POP POP JUMP JUMPDEST PUSH1 0x0 PUSH1 0x40 MLOAD SWAP1 POP DUP2 DUP2 ADD DUP2 DUP2 LT PUSH8 0xFFFFFFFFFFFFFFFF DUP3 GT OR ISZERO PUSH2 0x1ECF JUMPI PUSH2 0x1ECE PUSH2 0x21F6 JUMP JUMPDEST JUMPDEST DUP1 PUSH1 0x40 MSTORE POP SWAP2 SWAP1 POP JUMP JUMPDEST PUSH1 0x0 PUSH8 0xFFFFFFFFFFFFFFFF DUP3 GT ISZERO PUSH2 0x1EF4 JUMPI PUSH2 0x1EF3 PUSH2 0x21F6 JUMP JUMPDEST JUMPDEST PUSH1 0x1F NOT PUSH1 0x1F DUP4 ADD AND SWAP1 POP PUSH1 0x20 DUP2 ADD SWAP1 POP SWAP2 SWAP1 POP JUMP JUMPDEST PUSH1 0x0 DUP2 MLOAD SWAP1 POP SWAP2 SWAP1 POP JUMP JUMPDEST PUSH1 0x0 DUP2 MLOAD SWAP1 POP SWAP2 SWAP1 POP JUMP JUMPDEST PUSH1 0x0 DUP3 DUP3 MSTORE PUSH1 0x20 DUP3 ADD SWAP1 POP SWAP3 SWAP2 POP POP JUMP JUMPDEST PUSH1 0x0 DUP3 DUP3 MSTORE PUSH1 0x20 DUP3 ADD SWAP1 POP SWAP3 SWAP2 POP POP JUMP JUMPDEST PUSH1 0x0 DUP2 SWAP1 POP SWAP3 SWAP2 POP POP JUMP JUMPDEST PUSH1 0x0 PUSH2 0x1F57 DUP3 PUSH2 0x2071 JUMP JUMPDEST SWAP2 POP PUSH2 0x1F62 DUP4 PUSH2 0x2071 JUMP JUMPDEST SWAP3 POP DUP3 PUSH32 0xFFFFFFFFFFFFFFFFFFFFFFFFFFFFFFFFFFFFFFFFFFFFFFFFFFFFFFFFFFFFFFFF SUB DUP3 GT ISZERO PUSH2 0x1F97 JUMPI PUSH2 0x1F96 PUSH2 0x2169 JUMP JUMPDEST JUMPDEST DUP3 DUP3 ADD SWAP1 POP SWAP3 SWAP2 POP POP JUMP JUMPDEST PUSH1 0x0 PUSH2 0x1FAD DUP3 PUSH2 0x2071 JUMP JUMPDEST SWAP2 POP PUSH2 0x1FB8 DUP4 PUSH2 0x2071 JUMP JUMPDEST SWAP3 POP DUP3 PUSH2 0x1FC8 JUMPI PUSH2 0x1FC7 PUSH2 0x2198 JUMP JUMPDEST JUMPDEST DUP3 DUP3 DIV SWAP1 POP SWAP3 SWAP2 POP POP JUMP JUMPDEST PUSH1 0x0 PUSH2 0x1FDE DUP3 PUSH2 0x2071 JUMP JUMPDEST SWAP2 POP PUSH2 0x1FE9 DUP4 PUSH2 0x2071 JUMP JUMPDEST SWAP3 POP DUP3 DUP3 LT ISZERO PUSH2 0x1FFC JUMPI PUSH2 0x1FFB PUSH2 0x2169 JUMP JUMPDEST JUMPDEST DUP3 DUP3 SUB SWAP1 POP SWAP3 SWAP2 POP POP JUMP JUMPDEST PUSH1 0x0 PUSH2 0x2012 DUP3 PUSH2 0x2051 JUMP JUMPDEST SWAP1 POP SWAP2 SWAP1 POP JUMP JUMPDEST PUSH1 0x0 DUP2 ISZERO ISZERO SWAP1 POP SWAP2 SWAP1 POP JUMP JUMPDEST PUSH1 0x0 PUSH32 0xFFFFFFFF00000000000000000000000000000000000000000000000000000000 DUP3 AND SWAP1 POP SWAP2 SWAP1 POP JUMP JUMPDEST PUSH1 0x0 PUSH20 0xFFFFFFFFFFFFFFFFFFFFFFFFFFFFFFFFFFFFFFFF DUP3 AND SWAP1 POP SWAP2 SWAP1 POP JUMP JUMPDEST PUSH1 0x0 DUP2 SWAP1 POP SWAP2 SWAP1 POP JUMP JUMPDEST DUP3 DUP2 DUP4 CALLDATACOPY PUSH1 0x0 DUP4 DUP4 ADD MSTORE POP POP POP JUMP JUMPDEST PUSH1 0x0 JUMPDEST DUP4 DUP2 LT ISZERO PUSH2 0x20A8 JUMPI DUP1 DUP3 ADD MLOAD DUP2 DUP5 ADD MSTORE PUSH1 0x20 DUP2 ADD SWAP1 POP PUSH2 0x208D JUMP JUMPDEST DUP4 DUP2 GT ISZERO PUSH2 0x20B7 JUMPI PUSH1 0x0 DUP5 DUP5 ADD MSTORE JUMPDEST POP POP POP POP JUMP JUMPDEST PUSH1 0x0 PUSH1 0x2 DUP3 DIV SWAP1 POP PUSH1 0x1 DUP3 AND DUP1 PUSH2 0x20D5 JUMPI PUSH1 0x7F DUP3 AND SWAP2 POP JUMPDEST PUSH1 0x20 DUP3 LT DUP2 EQ ISZERO PUSH2 0x20E9 JUMPI PUSH2 0x20E8 PUSH2 0x21C7 JUMP JUMPDEST JUMPDEST POP SWAP2 SWAP1 POP JUMP JUMPDEST PUSH1 0x0 PUSH2 0x20FA DUP3 PUSH2 0x2071 JUMP JUMPDEST SWAP2 POP PUSH32 0xFFFFFFFFFFFFFFFFFFFFFFFFFFFFFFFFFFFFFFFFFFFFFFFFFFFFFFFFFFFFFFFF DUP3 EQ ISZERO PUSH2 0x212D JUMPI PUSH2 0x212C PUSH2 0x2169 JUMP JUMPDEST JUMPDEST PUSH1 0x1 DUP3 ADD SWAP1 POP SWAP2 SWAP1 POP JUMP JUMPDEST PUSH1 0x0 PUSH2 0x2143 DUP3 PUSH2 0x2071 JUMP JUMPDEST SWAP2 POP PUSH2 0x214E DUP4 PUSH2 0x2071 JUMP JUMPDEST SWAP3 POP DUP3 PUSH2 0x215E JUMPI PUSH2 0x215D PUSH2 0x2198 JUMP JUMPDEST JUMPDEST DUP3 DUP3 MOD SWAP1 POP SWAP3 SWAP2 POP POP JUMP JUMPDEST PUSH32 0x4E487B7100000000000000000000000000000000000000000000000000000000 PUSH1 0x0 MSTORE PUSH1 0x11 PUSH1 0x4 MSTORE PUSH1 0x24 PUSH1 0x0 REVERT JUMPDEST PUSH32 0x4E487B7100000000000000000000000000000000000000000000000000000000 PUSH1 0x0 MSTORE PUSH1 0x12 PUSH1 0x4 MSTORE PUSH1 0x24 PUSH1 0x0 REVERT JUMPDEST PUSH32 0x4E487B7100000000000000000000000000000000000000000000000000000000 PUSH1 0x0 MSTORE PUSH1 0x22 PUSH1 0x4 MSTORE PUSH1 0x24 PUSH1 0x0 REVERT JUMPDEST PUSH32 0x4E487B7100000000000000000000000000000000000000000000000000000000 PUSH1 0x0 MSTORE PUSH1 0x41 PUSH1 0x4 MSTORE PUSH1 0x24 PUSH1 0x0 REVERT JUMPDEST PUSH1 0x0 PUSH1 0x1F NOT PUSH1 0x1F DUP4 ADD AND SWAP1 POP SWAP2 SWAP1 POP JUMP JUMPDEST PUSH2 0x223F DUP2 PUSH2 0x2007 JUMP JUMPDEST DUP2 EQ PUSH2 0x224A JUMPI PUSH1 0x0 DUP1 REVERT JUMPDEST POP JUMP JUMPDEST PUSH2 0x2256 DUP2 PUSH2 0x2019 JUMP JUMPDEST DUP2 EQ PUSH2 0x2261 JUMPI PUSH1 0x0 DUP1 REVERT JUMPDEST POP JUMP JUMPDEST PUSH2 0x226D DUP2 PUSH2 0x2025 JUMP JUMPDEST DUP2 EQ PUSH2 0x2278 JUMPI PUSH1 0x0 DUP1 REVERT JUMPDEST POP JUMP JUMPDEST PUSH2 0x2284 DUP2 PUSH2 0x2071 JUMP JUMPDEST DUP2 EQ PUSH2 0x228F JUMPI PUSH1 0x0 DUP1 REVERT JUMPDEST POP JUMP INVALID PUSH10 0x7066733A2F2F516D6356 PUSH8 0x457535434C70474A PUSH6 0x5A5A45765346 CALLER 0x4C PUSH11 0x3352556D6B77574B556252 0x4C PUSH18 0x695472516356565539772FA2646970667358 0x22 SLT KECCAK256 0x21 PUSH2 0x52B7 0xA5 CALLER 0xF6 DUP8 0x5D DUP1 0xB2 0xD4 0xD5 SWAP5 PUSH14 0x6D854D4B7C063CE9E4FA8F9DC6C PUSH26 0xF9D964736F6C6343000800003300000000000000000000000000 "
				},
				"gasEstimates": {
					"creation": {
						"codeDepositCost": "1791600",
						"executionCost": "infinite",
						"totalCost": "infinite"
					},
					"external": {
						"MAX_CPS()": "1152",
						"approvalForAll(address,bool)": "infinite",
						"approve(address,uint256)": "infinite",
						"balanceOf(address)": "1646",
						"getApproved(uint256)": "2585",
						"isApprovedForAll(address,address)": "infinite",
						"mint(address,uint256)": "infinite",
						"name()": "infinite",
						"ownerOf(uint256)": "1672",
						"safeTransferFrom(address,address,uint256)": "infinite",
						"safeTransferFrom(address,address,uint256,bytes)": "infinite",
						"supportsInterface(bytes4)": "754",
						"symbol()": "infinite",
						"tokenURI(uint256)": "infinite",
						"transferFrom(address,address,uint256)": "infinite"
					},
					"internal": {
						"_baseURI()": "infinite"
					}
				},
				"methodIdentifiers": {
					"MAX_CPS()": "538f1672",
					"approvalForAll(address,bool)": "c5e51b9e",
					"approve(address,uint256)": "095ea7b3",
					"balanceOf(address)": "70a08231",
					"getApproved(uint256)": "081812fc",
					"isApprovedForAll(address,address)": "e985e9c5",
					"mint(address,uint256)": "40c10f19",
					"name()": "06fdde03",
					"ownerOf(uint256)": "6352211e",
					"safeTransferFrom(address,address,uint256)": "42842e0e",
					"safeTransferFrom(address,address,uint256,bytes)": "b88d4fde",
					"supportsInterface(bytes4)": "01ffc9a7",
					"symbol()": "95d89b41",
					"tokenURI(uint256)": "c87b56dd",
					"transferFrom(address,address,uint256)": "23b872dd"
				}
			},
			"storageLayout": {
				"storage": [
					{
						"astId": 74,
						"contract": "Chain Paper/CP.sol:CP",
						"label": "name",
						"offset": 0,
						"slot": "0",
						"type": "t_string_storage"
					},
					{
						"astId": 77,
						"contract": "Chain Paper/CP.sol:CP",
						"label": "symbol",
						"offset": 0,
						"slot": "1",
						"type": "t_string_storage"
					},
					{
						"astId": 81,
						"contract": "Chain Paper/CP.sol:CP",
						"label": "_owners",
						"offset": 0,
						"slot": "2",
						"type": "t_mapping(t_uint256,t_address)"
					},
					{
						"astId": 85,
						"contract": "Chain Paper/CP.sol:CP",
						"label": "_balances",
						"offset": 0,
						"slot": "3",
						"type": "t_mapping(t_address,t_uint256)"
					},
					{
						"astId": 89,
						"contract": "Chain Paper/CP.sol:CP",
						"label": "_tokenApprovals",
						"offset": 0,
						"slot": "4",
						"type": "t_mapping(t_uint256,t_address)"
					},
					{
						"astId": 95,
						"contract": "Chain Paper/CP.sol:CP",
						"label": "_operatorApprovals",
						"offset": 0,
						"slot": "5",
						"type": "t_mapping(t_address,t_mapping(t_address,t_bool))"
					},
					{
						"astId": 7,
						"contract": "Chain Paper/CP.sol:CP",
						"label": "MAX_CPS",
						"offset": 0,
						"slot": "6",
						"type": "t_uint256"
					}
				],
				"types": {
					"t_address": {
						"encoding": "inplace",
						"label": "address",
						"numberOfBytes": "20"
					},
					"t_bool": {
						"encoding": "inplace",
						"label": "bool",
						"numberOfBytes": "1"
					},
					"t_mapping(t_address,t_bool)": {
						"encoding": "mapping",
						"key": "t_address",
						"label": "mapping(address => bool)",
						"numberOfBytes": "32",
						"value": "t_bool"
					},
					"t_mapping(t_address,t_mapping(t_address,t_bool))": {
						"encoding": "mapping",
						"key": "t_address",
						"label": "mapping(address => mapping(address => bool))",
						"numberOfBytes": "32",
						"value": "t_mapping(t_address,t_bool)"
					},
					"t_mapping(t_address,t_uint256)": {
						"encoding": "mapping",
						"key": "t_address",
						"label": "mapping(address => uint256)",
						"numberOfBytes": "32",
						"value": "t_uint256"
					},
					"t_mapping(t_uint256,t_address)": {
						"encoding": "mapping",
						"key": "t_uint256",
						"label": "mapping(uint256 => address)",
						"numberOfBytes": "32",
						"value": "t_address"
					},
					"t_string_storage": {
						"encoding": "bytes",
						"label": "string",
						"numberOfBytes": "32"
					},
					"t_uint256": {
						"encoding": "inplace",
						"label": "uint256",
						"numberOfBytes": "32"
					}
				}
			},
			"userdoc": {
				"kind": "user",
				"methods": {},
				"version": 1
			}
		}
	}
}