{
	"Chain Paper/CP.sol": {
		"CP": {
			"abi": [
				{
					"inputs": [
						{
							"internalType": "string",
							"name": "name_",
							"type": "string"
						},
						{
							"internalType": "string",
							"name": "symbol_",
							"type": "string"
						}
					],
					"stateMutability": "nonpayable",
					"type": "constructor"
				},
				{
					"anonymous": false,
					"inputs": [
						{
							"indexed": false,
							"internalType": "address",
							"name": "owner",
							"type": "address"
						},
						{
							"indexed": false,
							"internalType": "address",
							"name": "operator",
							"type": "address"
						},
						{
							"indexed": false,
							"internalType": "bool",
							"name": "approved",
							"type": "bool"
						}
					],
					"name": "ApprovalForALl",
					"type": "event"
				},
				{
					"anonymous": false,
					"inputs": [
						{
							"indexed": false,
							"internalType": "address",
							"name": "owner",
							"type": "address"
						},
						{
							"indexed": false,
							"internalType": "address",
							"name": "approved",
							"type": "address"
						},
						{
							"indexed": false,
							"internalType": "uint256",
							"name": "tokenId",
							"type": "uint256"
						}
					],
					"name": "Approve",
					"type": "event"
				},
				{
					"anonymous": false,
					"inputs": [
						{
							"indexed": true,
							"internalType": "address",
							"name": "previousOwner",
							"type": "address"
						},
						{
							"indexed": true,
							"internalType": "address",
							"name": "newOwner",
							"type": "address"
						}
					],
					"name": "OwnershipTransferred",
					"type": "event"
				},
				{
					"anonymous": false,
					"inputs": [
						{
							"indexed": false,
							"internalType": "address",
							"name": "from",
							"type": "address"
						},
						{
							"indexed": false,
							"internalType": "address",
							"name": "to",
							"type": "address"
						},
						{
							"indexed": false,
							"internalType": "uint256",
							"name": "tokenId",
							"type": "uint256"
						}
					],
					"name": "Transfer",
					"type": "event"
				},
				{
					"inputs": [],
					"name": "DROP_INTERVAL",
					"outputs": [
						{
							"internalType": "uint256",
							"name": "",
							"type": "uint256"
						}
					],
					"stateMutability": "view",
					"type": "function"
				},
				{
					"inputs": [],
					"name": "DROP_PER_STEP",
					"outputs": [
						{
							"internalType": "uint256",
							"name": "",
							"type": "uint256"
						}
					],
					"stateMutability": "view",
					"type": "function"
				},
				{
					"inputs": [],
					"name": "END_PRICE",
					"outputs": [
						{
							"internalType": "uint256",
							"name": "",
							"type": "uint256"
						}
					],
					"stateMutability": "view",
					"type": "function"
				},
				{
					"inputs": [],
					"name": "MAX_CPS",
					"outputs": [
						{
							"internalType": "uint256",
							"name": "",
							"type": "uint256"
						}
					],
					"stateMutability": "view",
					"type": "function"
				},
				{
					"inputs": [],
					"name": "START_PRICE",
					"outputs": [
						{
							"internalType": "uint256",
							"name": "",
							"type": "uint256"
						}
					],
					"stateMutability": "view",
					"type": "function"
				},
				{
					"inputs": [],
					"name": "TIME",
					"outputs": [
						{
							"internalType": "uint256",
							"name": "",
							"type": "uint256"
						}
					],
					"stateMutability": "view",
					"type": "function"
				},
				{
					"inputs": [
						{
							"internalType": "address",
							"name": "operator",
							"type": "address"
						},
						{
							"internalType": "bool",
							"name": "approved",
							"type": "bool"
						}
					],
					"name": "approvalForAll",
					"outputs": [],
					"stateMutability": "nonpayable",
					"type": "function"
				},
				{
					"inputs": [
						{
							"internalType": "address",
							"name": "to",
							"type": "address"
						},
						{
							"internalType": "uint256",
							"name": "tokenId",
							"type": "uint256"
						}
					],
					"name": "approve",
					"outputs": [],
					"stateMutability": "nonpayable",
					"type": "function"
				},
				{
					"inputs": [
						{
							"internalType": "uint256",
							"name": "tokenId",
							"type": "uint256"
						}
					],
					"name": "auctionMint",
					"outputs": [],
					"stateMutability": "payable",
					"type": "function"
				},
				{
					"inputs": [
						{
							"internalType": "address",
							"name": "owner",
							"type": "address"
						}
					],
					"name": "balanceOf",
					"outputs": [
						{
							"internalType": "uint256",
							"name": "",
							"type": "uint256"
						}
					],
					"stateMutability": "view",
					"type": "function"
				},
				{
					"inputs": [
						{
							"internalType": "uint256",
							"name": "tokenId",
							"type": "uint256"
						}
					],
					"name": "getApproved",
					"outputs": [
						{
							"internalType": "address",
							"name": "",
							"type": "address"
						}
					],
					"stateMutability": "view",
					"type": "function"
				},
				{
					"inputs": [],
					"name": "getPrice",
					"outputs": [
						{
							"internalType": "uint256",
							"name": "",
							"type": "uint256"
						}
					],
					"stateMutability": "view",
					"type": "function"
				},
				{
					"inputs": [
						{
							"internalType": "address",
							"name": "owner",
							"type": "address"
						},
						{
							"internalType": "address",
							"name": "operator",
							"type": "address"
						}
					],
					"name": "isApprovedForAll",
					"outputs": [
						{
							"internalType": "bool",
							"name": "",
							"type": "bool"
						}
					],
					"stateMutability": "view",
					"type": "function"
				},
				{
					"inputs": [],
					"name": "name",
					"outputs": [
						{
							"internalType": "string",
							"name": "",
							"type": "string"
						}
					],
					"stateMutability": "view",
					"type": "function"
				},
				{
					"inputs": [],
					"name": "owner",
					"outputs": [
						{
							"internalType": "address",
							"name": "",
							"type": "address"
						}
					],
					"stateMutability": "view",
					"type": "function"
				},
				{
					"inputs": [
						{
							"internalType": "uint256",
							"name": "tokenId",
							"type": "uint256"
						}
					],
					"name": "ownerOf",
					"outputs": [
						{
							"internalType": "address",
							"name": "owner",
							"type": "address"
						}
					],
					"stateMutability": "view",
					"type": "function"
				},
				{
					"inputs": [],
					"name": "renounceOwnership",
					"outputs": [],
					"stateMutability": "nonpayable",
					"type": "function"
				},
				{
					"inputs": [
						{
							"internalType": "address",
							"name": "from",
							"type": "address"
						},
						{
							"internalType": "address",
							"name": "to",
							"type": "address"
						},
						{
							"internalType": "uint256",
							"name": "tokenId",
							"type": "uint256"
						}
					],
					"name": "safeTransferFrom",
					"outputs": [],
					"stateMutability": "nonpayable",
					"type": "function"
				},
				{
					"inputs": [
						{
							"internalType": "address",
							"name": "from",
							"type": "address"
						},
						{
							"internalType": "address",
							"name": "to",
							"type": "address"
						},
						{
							"internalType": "uint256",
							"name": "tokenId",
							"type": "uint256"
						},
						{
							"internalType": "bytes",
							"name": "_data",
							"type": "bytes"
						}
					],
					"name": "safeTransferFrom",
					"outputs": [],
					"stateMutability": "nonpayable",
					"type": "function"
				},
				{
					"inputs": [
						{
							"internalType": "uint256",
							"name": "tokenId",
							"type": "uint256"
						}
					],
					"name": "setBaseURI",
					"outputs": [],
					"stateMutability": "nonpayable",
					"type": "function"
				},
				{
					"inputs": [
						{
							"internalType": "uint256",
							"name": "_timestamp",
							"type": "uint256"
						}
					],
					"name": "setStartTime",
					"outputs": [],
					"stateMutability": "nonpayable",
					"type": "function"
				},
				{
					"inputs": [],
					"name": "startTime",
					"outputs": [
						{
							"internalType": "uint256",
							"name": "",
							"type": "uint256"
						}
					],
					"stateMutability": "view",
					"type": "function"
				},
				{
					"inputs": [
						{
							"internalType": "bytes4",
							"name": "interfaceId",
							"type": "bytes4"
						}
					],
					"name": "supportsInterface",
					"outputs": [
						{
							"internalType": "bool",
							"name": "",
							"type": "bool"
						}
					],
					"stateMutability": "pure",
					"type": "function"
				},
				{
					"inputs": [],
					"name": "symbol",
					"outputs": [
						{
							"internalType": "string",
							"name": "",
							"type": "string"
						}
					],
					"stateMutability": "view",
					"type": "function"
				},
				{
					"inputs": [
						{
							"internalType": "uint256",
							"name": "tokenId",
							"type": "uint256"
						}
					],
					"name": "tokenURI",
					"outputs": [
						{
							"internalType": "string",
							"name": "",
							"type": "string"
						}
					],
					"stateMutability": "view",
					"type": "function"
				},
				{
					"inputs": [],
					"name": "totalSupply",
					"outputs": [
						{
							"internalType": "uint256",
							"name": "",
							"type": "uint256"
						}
					],
					"stateMutability": "view",
					"type": "function"
				},
				{
					"inputs": [
						{
							"internalType": "address",
							"name": "from",
							"type": "address"
						},
						{
							"internalType": "address",
							"name": "to",
							"type": "address"
						},
						{
							"internalType": "uint256",
							"name": "tokenId",
							"type": "uint256"
						}
					],
					"name": "transferFrom",
					"outputs": [],
					"stateMutability": "nonpayable",
					"type": "function"
				},
				{
					"inputs": [
						{
							"internalType": "address",
							"name": "newOwner",
							"type": "address"
						}
					],
					"name": "transferOwnership",
					"outputs": [],
					"stateMutability": "nonpayable",
					"type": "function"
				},
				{
					"inputs": [],
					"name": "withdrawMoney",
					"outputs": [],
					"stateMutability": "nonpayable",
					"type": "function"
				}
			],
			"devdoc": {
				"kind": "dev",
				"methods": {
					"owner()": {
						"details": "Returns the address of the current owner."
					},
					"renounceOwnership()": {
						"details": "Leaves the contract without owner. It will not be possible to call `onlyOwner` functions anymore. Can only be called by the current owner. NOTE: Renouncing ownership will leave the contract without an owner, thereby removing any functionality that is only available to the owner."
					},
					"transferOwnership(address)": {
						"details": "Transfers ownership of the contract to a new account (`newOwner`). Can only be called by the current owner."
					}
				},
				"version": 1
			},
			"evm": {
				"assembly": "    /* \"Chain Paper/CP.sol\":148:3159  contract CP is Ownable, ERC721 {\r... */\n  mstore(0x40, 0x80)\n    /* \"Chain Paper/CP.sol\":673:798  constructor(string memory name_ , string memory symbol_) ERC721(name_, symbol_){\r... */\n  callvalue\n  dup1\n  iszero\n  tag_1\n  jumpi\n  0x00\n  dup1\n  revert\ntag_1:\n  pop\n  mload(0x40)\n  sub(codesize, bytecodeSize)\n  dup1\n  bytecodeSize\n  dup4\n  codecopy\n  dup2\n  dup2\n  add\n  0x40\n  mstore\n  dup2\n  add\n  swap1\n  tag_2\n  swap2\n  swap1\n  tag_3\n  jump\t// in\ntag_2:\n    /* \"Chain Paper/CP.sol\":737:742  name_ */\n  dup2\n    /* \"Chain Paper/CP.sol\":744:751  symbol_ */\n  dup2\n    /* \"@openzeppelin/contracts/access/Ownable.sol\":936:968  _transferOwnership(_msgSender()) */\n  tag_8\n    /* \"@openzeppelin/contracts/access/Ownable.sol\":955:967  _msgSender() */\n  tag_9\n    /* \"@openzeppelin/contracts/access/Ownable.sol\":955:965  _msgSender */\n  shl(0x20, tag_10)\n    /* \"@openzeppelin/contracts/access/Ownable.sol\":955:967  _msgSender() */\n  0x20\n  shr\n  jump\t// in\ntag_9:\n    /* \"@openzeppelin/contracts/access/Ownable.sol\":936:954  _transferOwnership */\n  shl(0x20, tag_11)\n    /* \"@openzeppelin/contracts/access/Ownable.sol\":936:968  _transferOwnership(_msgSender()) */\n  0x20\n  shr\n  jump\t// in\ntag_8:\n    /* \"Chain Paper/liberty/ERC721.sol\":769:774  name_ */\n  dup2\n    /* \"Chain Paper/liberty/ERC721.sol\":762:766  name */\n  0x01\n    /* \"Chain Paper/liberty/ERC721.sol\":762:774  name = name_ */\n  swap1\n  dup1\n  mload\n  swap1\n  0x20\n  add\n  swap1\n  tag_13\n  swap3\n  swap2\n  swap1\n  tag_14\n  jump\t// in\ntag_13:\n  pop\n    /* \"Chain Paper/liberty/ERC721.sol\":794:801  symbol_ */\n  dup1\n    /* \"Chain Paper/liberty/ERC721.sol\":785:791  symbol */\n  0x02\n    /* \"Chain Paper/liberty/ERC721.sol\":785:801  symbol = symbol_ */\n  swap1\n  dup1\n  mload\n  swap1\n  0x20\n  add\n  swap1\n  tag_15\n  swap3\n  swap2\n  swap1\n  tag_14\n  jump\t// in\ntag_15:\n  pop\n    /* \"Chain Paper/liberty/ERC721.sol\":695:809  constructor(string memory name_, string memory symbol_) {\r... */\n  pop\n  pop\n    /* \"Chain Paper/CP.sol\":775:790  block.timestamp */\n  timestamp\n    /* \"Chain Paper/CP.sol\":763:772  startTime */\n  0x07\n    /* \"Chain Paper/CP.sol\":763:790  startTime = block.timestamp */\n  dup2\n  swap1\n  sstore\n  pop\n    /* \"Chain Paper/CP.sol\":673:798  constructor(string memory name_ , string memory symbol_) ERC721(name_, symbol_){\r... */\n  pop\n  pop\n    /* \"Chain Paper/CP.sol\":148:3159  contract CP is Ownable, ERC721 {\r... */\n  jump(tag_17)\n    /* \"@openzeppelin/contracts/utils/Context.sol\":640:736  function _msgSender() internal view virtual returns (address) {... */\ntag_10:\n    /* \"@openzeppelin/contracts/utils/Context.sol\":693:700  address */\n  0x00\n    /* \"@openzeppelin/contracts/utils/Context.sol\":719:729  msg.sender */\n  caller\n    /* \"@openzeppelin/contracts/utils/Context.sol\":712:729  return msg.sender */\n  swap1\n  pop\n    /* \"@openzeppelin/contracts/utils/Context.sol\":640:736  function _msgSender() internal view virtual returns (address) {... */\n  swap1\n  jump\t// out\n    /* \"@openzeppelin/contracts/access/Ownable.sol\":2433:2620  function _transferOwnership(address newOwner) internal virtual {... */\ntag_11:\n    /* \"@openzeppelin/contracts/access/Ownable.sol\":2506:2522  address oldOwner */\n  0x00\n    /* \"@openzeppelin/contracts/access/Ownable.sol\":2525:2531  _owner */\n  dup1\n  0x00\n  swap1\n  sload\n  swap1\n  0x0100\n  exp\n  swap1\n  div\n  0xffffffffffffffffffffffffffffffffffffffff\n  and\n    /* \"@openzeppelin/contracts/access/Ownable.sol\":2506:2531  address oldOwner = _owner */\n  swap1\n  pop\n    /* \"@openzeppelin/contracts/access/Ownable.sol\":2550:2558  newOwner */\n  dup2\n    /* \"@openzeppelin/contracts/access/Ownable.sol\":2541:2547  _owner */\n  0x00\n  dup1\n    /* \"@openzeppelin/contracts/access/Ownable.sol\":2541:2558  _owner = newOwner */\n  0x0100\n  exp\n  dup2\n  sload\n  dup2\n  0xffffffffffffffffffffffffffffffffffffffff\n  mul\n  not\n  and\n  swap1\n  dup4\n  0xffffffffffffffffffffffffffffffffffffffff\n  and\n  mul\n  or\n  swap1\n  sstore\n  pop\n    /* \"@openzeppelin/contracts/access/Ownable.sol\":2604:2612  newOwner */\n  dup2\n    /* \"@openzeppelin/contracts/access/Ownable.sol\":2573:2613  OwnershipTransferred(oldOwner, newOwner) */\n  0xffffffffffffffffffffffffffffffffffffffff\n  and\n    /* \"@openzeppelin/contracts/access/Ownable.sol\":2594:2602  oldOwner */\n  dup2\n    /* \"@openzeppelin/contracts/access/Ownable.sol\":2573:2613  OwnershipTransferred(oldOwner, newOwner) */\n  0xffffffffffffffffffffffffffffffffffffffff\n  and\n  0x8be0079c531659141344cd1fd0a4f28419497f9722a3daafe3b4186f6b6457e0\n  mload(0x40)\n  mload(0x40)\n  dup1\n  swap2\n  sub\n  swap1\n  log3\n    /* \"@openzeppelin/contracts/access/Ownable.sol\":2433:2620  function _transferOwnership(address newOwner) internal virtual {... */\n  pop\n  pop\n  jump\t// out\n    /* \"Chain Paper/CP.sol\":148:3159  contract CP is Ownable, ERC721 {\r... */\ntag_14:\n  dup3\n  dup1\n  sload\n  tag_20\n  swap1\n  tag_21\n  jump\t// in\ntag_20:\n  swap1\n  0x00\n  mstore\n  keccak256(0x00, 0x20)\n  swap1\n  0x1f\n  add\n  0x20\n  swap1\n  div\n  dup2\n  add\n  swap3\n  dup3\n  tag_23\n  jumpi\n  0x00\n  dup6\n  sstore\n  jump(tag_22)\ntag_23:\n  dup3\n  0x1f\n  lt\n  tag_24\n  jumpi\n  dup1\n  mload\n  not(0xff)\n  and\n  dup4\n  dup1\n  add\n  or\n  dup6\n  sstore\n  jump(tag_22)\ntag_24:\n  dup3\n  dup1\n  add\n  0x01\n  add\n  dup6\n  sstore\n  dup3\n  iszero\n  tag_22\n  jumpi\n  swap2\n  dup3\n  add\ntag_25:\n  dup3\n  dup2\n  gt\n  iszero\n  tag_26\n  jumpi\n  dup3\n  mload\n  dup3\n  sstore\n  swap2\n  0x20\n  add\n  swap2\n  swap1\n  0x01\n  add\n  swap1\n  jump(tag_25)\ntag_26:\ntag_22:\n  pop\n  swap1\n  pop\n  tag_27\n  swap2\n  swap1\n  tag_28\n  jump\t// in\ntag_27:\n  pop\n  swap1\n  jump\t// out\ntag_28:\ntag_29:\n  dup1\n  dup3\n  gt\n  iszero\n  tag_30\n  jumpi\n  0x00\n  dup2\n  0x00\n  swap1\n  sstore\n  pop\n  0x01\n  add\n  jump(tag_29)\ntag_30:\n  pop\n  swap1\n  jump\t// out\n    /* \"#utility.yul\":7:360   */\ntag_32:\n  0x00\n    /* \"#utility.yul\":121:186   */\n  tag_34\n    /* \"#utility.yul\":136:185   */\n  tag_35\n    /* \"#utility.yul\":178:184   */\n  dup5\n    /* \"#utility.yul\":136:185   */\n  tag_36\n  jump\t// in\ntag_35:\n    /* \"#utility.yul\":121:186   */\n  tag_37\n  jump\t// in\ntag_34:\n    /* \"#utility.yul\":112:186   */\n  swap1\n  pop\n    /* \"#utility.yul\":209:215   */\n  dup3\n    /* \"#utility.yul\":202:207   */\n  dup2\n    /* \"#utility.yul\":195:216   */\n  mstore\n    /* \"#utility.yul\":247:251   */\n  0x20\n    /* \"#utility.yul\":240:245   */\n  dup2\n    /* \"#utility.yul\":236:252   */\n  add\n    /* \"#utility.yul\":285:288   */\n  dup5\n    /* \"#utility.yul\":276:282   */\n  dup5\n    /* \"#utility.yul\":271:274   */\n  dup5\n    /* \"#utility.yul\":267:283   */\n  add\n    /* \"#utility.yul\":264:289   */\n  gt\n    /* \"#utility.yul\":261:263   */\n  iszero\n  tag_38\n  jumpi\n    /* \"#utility.yul\":302:303   */\n  0x00\n    /* \"#utility.yul\":299:300   */\n  dup1\n    /* \"#utility.yul\":292:304   */\n  revert\n    /* \"#utility.yul\":261:263   */\ntag_38:\n    /* \"#utility.yul\":315:354   */\n  tag_39\n    /* \"#utility.yul\":347:353   */\n  dup5\n    /* \"#utility.yul\":342:345   */\n  dup3\n    /* \"#utility.yul\":337:340   */\n  dup6\n    /* \"#utility.yul\":315:354   */\n  tag_40\n  jump\t// in\ntag_39:\n    /* \"#utility.yul\":102:360   */\n  pop\n  swap4\n  swap3\n  pop\n  pop\n  pop\n  jump\t// out\n    /* \"#utility.yul\":380:668   */\ntag_41:\n  0x00\n    /* \"#utility.yul\":496:499   */\n  dup3\n    /* \"#utility.yul\":489:493   */\n  0x1f\n    /* \"#utility.yul\":481:487   */\n  dup4\n    /* \"#utility.yul\":477:494   */\n  add\n    /* \"#utility.yul\":473:500   */\n  slt\n    /* \"#utility.yul\":463:465   */\n  tag_43\n  jumpi\n    /* \"#utility.yul\":514:515   */\n  0x00\n    /* \"#utility.yul\":511:512   */\n  dup1\n    /* \"#utility.yul\":504:516   */\n  revert\n    /* \"#utility.yul\":463:465   */\ntag_43:\n    /* \"#utility.yul\":547:553   */\n  dup2\n    /* \"#utility.yul\":541:554   */\n  mload\n    /* \"#utility.yul\":572:662   */\n  tag_44\n    /* \"#utility.yul\":658:661   */\n  dup5\n    /* \"#utility.yul\":650:656   */\n  dup3\n    /* \"#utility.yul\":643:647   */\n  0x20\n    /* \"#utility.yul\":635:641   */\n  dup7\n    /* \"#utility.yul\":631:648   */\n  add\n    /* \"#utility.yul\":572:662   */\n  tag_32\n  jump\t// in\ntag_44:\n    /* \"#utility.yul\":563:662   */\n  swap2\n  pop\n    /* \"#utility.yul\":453:668   */\n  pop\n  swap3\n  swap2\n  pop\n  pop\n  jump\t// out\n    /* \"#utility.yul\":674:1326   */\ntag_3:\n  0x00\n  dup1\n    /* \"#utility.yul\":830:832   */\n  0x40\n    /* \"#utility.yul\":818:827   */\n  dup4\n    /* \"#utility.yul\":809:816   */\n  dup6\n    /* \"#utility.yul\":805:828   */\n  sub\n    /* \"#utility.yul\":801:833   */\n  slt\n    /* \"#utility.yul\":798:800   */\n  iszero\n  tag_46\n  jumpi\n    /* \"#utility.yul\":846:847   */\n  0x00\n    /* \"#utility.yul\":843:844   */\n  dup1\n    /* \"#utility.yul\":836:848   */\n  revert\n    /* \"#utility.yul\":798:800   */\ntag_46:\n    /* \"#utility.yul\":910:911   */\n  0x00\n    /* \"#utility.yul\":899:908   */\n  dup4\n    /* \"#utility.yul\":895:912   */\n  add\n    /* \"#utility.yul\":889:913   */\n  mload\n    /* \"#utility.yul\":940:958   */\n  0xffffffffffffffff\n    /* \"#utility.yul\":932:938   */\n  dup2\n    /* \"#utility.yul\":929:959   */\n  gt\n    /* \"#utility.yul\":926:928   */\n  iszero\n  tag_47\n  jumpi\n    /* \"#utility.yul\":972:973   */\n  0x00\n    /* \"#utility.yul\":969:970   */\n  dup1\n    /* \"#utility.yul\":962:974   */\n  revert\n    /* \"#utility.yul\":926:928   */\ntag_47:\n    /* \"#utility.yul\":1000:1074   */\n  tag_48\n    /* \"#utility.yul\":1066:1073   */\n  dup6\n    /* \"#utility.yul\":1057:1063   */\n  dup3\n    /* \"#utility.yul\":1046:1055   */\n  dup7\n    /* \"#utility.yul\":1042:1064   */\n  add\n    /* \"#utility.yul\":1000:1074   */\n  tag_41\n  jump\t// in\ntag_48:\n    /* \"#utility.yul\":990:1074   */\n  swap3\n  pop\n    /* \"#utility.yul\":860:1084   */\n  pop\n    /* \"#utility.yul\":1144:1146   */\n  0x20\n    /* \"#utility.yul\":1133:1142   */\n  dup4\n    /* \"#utility.yul\":1129:1147   */\n  add\n    /* \"#utility.yul\":1123:1148   */\n  mload\n    /* \"#utility.yul\":1175:1193   */\n  0xffffffffffffffff\n    /* \"#utility.yul\":1167:1173   */\n  dup2\n    /* \"#utility.yul\":1164:1194   */\n  gt\n    /* \"#utility.yul\":1161:1163   */\n  iszero\n  tag_49\n  jumpi\n    /* \"#utility.yul\":1207:1208   */\n  0x00\n    /* \"#utility.yul\":1204:1205   */\n  dup1\n    /* \"#utility.yul\":1197:1209   */\n  revert\n    /* \"#utility.yul\":1161:1163   */\ntag_49:\n    /* \"#utility.yul\":1235:1309   */\n  tag_50\n    /* \"#utility.yul\":1301:1308   */\n  dup6\n    /* \"#utility.yul\":1292:1298   */\n  dup3\n    /* \"#utility.yul\":1281:1290   */\n  dup7\n    /* \"#utility.yul\":1277:1299   */\n  add\n    /* \"#utility.yul\":1235:1309   */\n  tag_41\n  jump\t// in\ntag_50:\n    /* \"#utility.yul\":1225:1309   */\n  swap2\n  pop\n    /* \"#utility.yul\":1094:1319   */\n  pop\n    /* \"#utility.yul\":788:1326   */\n  swap3\n  pop\n  swap3\n  swap1\n  pop\n  jump\t// out\n    /* \"#utility.yul\":1332:1615   */\ntag_37:\n  0x00\n    /* \"#utility.yul\":1398:1400   */\n  0x40\n    /* \"#utility.yul\":1392:1401   */\n  mload\n    /* \"#utility.yul\":1382:1401   */\n  swap1\n  pop\n    /* \"#utility.yul\":1440:1444   */\n  dup2\n    /* \"#utility.yul\":1432:1438   */\n  dup2\n    /* \"#utility.yul\":1428:1445   */\n  add\n    /* \"#utility.yul\":1547:1553   */\n  dup2\n    /* \"#utility.yul\":1535:1545   */\n  dup2\n    /* \"#utility.yul\":1532:1554   */\n  lt\n    /* \"#utility.yul\":1511:1529   */\n  0xffffffffffffffff\n    /* \"#utility.yul\":1499:1509   */\n  dup3\n    /* \"#utility.yul\":1496:1530   */\n  gt\n    /* \"#utility.yul\":1493:1555   */\n  or\n    /* \"#utility.yul\":1490:1492   */\n  iszero\n  tag_52\n  jumpi\n    /* \"#utility.yul\":1558:1576   */\n  tag_53\n  tag_54\n  jump\t// in\ntag_53:\n    /* \"#utility.yul\":1490:1492   */\ntag_52:\n    /* \"#utility.yul\":1598:1608   */\n  dup1\n    /* \"#utility.yul\":1594:1596   */\n  0x40\n    /* \"#utility.yul\":1587:1609   */\n  mstore\n    /* \"#utility.yul\":1372:1615   */\n  pop\n  swap2\n  swap1\n  pop\n  jump\t// out\n    /* \"#utility.yul\":1621:1953   */\ntag_36:\n  0x00\n    /* \"#utility.yul\":1773:1791   */\n  0xffffffffffffffff\n    /* \"#utility.yul\":1765:1771   */\n  dup3\n    /* \"#utility.yul\":1762:1792   */\n  gt\n    /* \"#utility.yul\":1759:1761   */\n  iszero\n  tag_56\n  jumpi\n    /* \"#utility.yul\":1795:1813   */\n  tag_57\n  tag_54\n  jump\t// in\ntag_57:\n    /* \"#utility.yul\":1759:1761   */\ntag_56:\n    /* \"#utility.yul\":1880:1884   */\n  0x1f\n    /* \"#utility.yul\":1876:1885   */\n  not\n    /* \"#utility.yul\":1869:1873   */\n  0x1f\n    /* \"#utility.yul\":1861:1867   */\n  dup4\n    /* \"#utility.yul\":1857:1874   */\n  add\n    /* \"#utility.yul\":1853:1886   */\n  and\n    /* \"#utility.yul\":1845:1886   */\n  swap1\n  pop\n    /* \"#utility.yul\":1941:1945   */\n  0x20\n    /* \"#utility.yul\":1935:1939   */\n  dup2\n    /* \"#utility.yul\":1931:1946   */\n  add\n    /* \"#utility.yul\":1923:1946   */\n  swap1\n  pop\n    /* \"#utility.yul\":1688:1953   */\n  swap2\n  swap1\n  pop\n  jump\t// out\n    /* \"#utility.yul\":1959:2266   */\ntag_40:\n    /* \"#utility.yul\":2027:2028   */\n  0x00\n    /* \"#utility.yul\":2037:2150   */\ntag_59:\n    /* \"#utility.yul\":2051:2057   */\n  dup4\n    /* \"#utility.yul\":2048:2049   */\n  dup2\n    /* \"#utility.yul\":2045:2058   */\n  lt\n    /* \"#utility.yul\":2037:2150   */\n  iszero\n  tag_61\n  jumpi\n    /* \"#utility.yul\":2136:2137   */\n  dup1\n    /* \"#utility.yul\":2131:2134   */\n  dup3\n    /* \"#utility.yul\":2127:2138   */\n  add\n    /* \"#utility.yul\":2121:2139   */\n  mload\n    /* \"#utility.yul\":2117:2118   */\n  dup2\n    /* \"#utility.yul\":2112:2115   */\n  dup5\n    /* \"#utility.yul\":2108:2119   */\n  add\n    /* \"#utility.yul\":2101:2140   */\n  mstore\n    /* \"#utility.yul\":2073:2075   */\n  0x20\n    /* \"#utility.yul\":2070:2071   */\n  dup2\n    /* \"#utility.yul\":2066:2076   */\n  add\n    /* \"#utility.yul\":2061:2076   */\n  swap1\n  pop\n    /* \"#utility.yul\":2037:2150   */\n  jump(tag_59)\ntag_61:\n    /* \"#utility.yul\":2168:2174   */\n  dup4\n    /* \"#utility.yul\":2165:2166   */\n  dup2\n    /* \"#utility.yul\":2162:2175   */\n  gt\n    /* \"#utility.yul\":2159:2161   */\n  iszero\n  tag_62\n  jumpi\n    /* \"#utility.yul\":2248:2249   */\n  0x00\n    /* \"#utility.yul\":2239:2245   */\n  dup5\n    /* \"#utility.yul\":2234:2237   */\n  dup5\n    /* \"#utility.yul\":2230:2246   */\n  add\n    /* \"#utility.yul\":2223:2250   */\n  mstore\n    /* \"#utility.yul\":2159:2161   */\ntag_62:\n    /* \"#utility.yul\":2008:2266   */\n  pop\n  pop\n  pop\n  pop\n  jump\t// out\n    /* \"#utility.yul\":2272:2592   */\ntag_21:\n  0x00\n    /* \"#utility.yul\":2353:2354   */\n  0x02\n    /* \"#utility.yul\":2347:2351   */\n  dup3\n    /* \"#utility.yul\":2343:2355   */\n  div\n    /* \"#utility.yul\":2333:2355   */\n  swap1\n  pop\n    /* \"#utility.yul\":2400:2401   */\n  0x01\n    /* \"#utility.yul\":2394:2398   */\n  dup3\n    /* \"#utility.yul\":2390:2402   */\n  and\n    /* \"#utility.yul\":2421:2439   */\n  dup1\n    /* \"#utility.yul\":2411:2413   */\n  tag_64\n  jumpi\n    /* \"#utility.yul\":2477:2481   */\n  0x7f\n    /* \"#utility.yul\":2469:2475   */\n  dup3\n    /* \"#utility.yul\":2465:2482   */\n  and\n    /* \"#utility.yul\":2455:2482   */\n  swap2\n  pop\n    /* \"#utility.yul\":2411:2413   */\ntag_64:\n    /* \"#utility.yul\":2539:2541   */\n  0x20\n    /* \"#utility.yul\":2531:2537   */\n  dup3\n    /* \"#utility.yul\":2528:2542   */\n  lt\n    /* \"#utility.yul\":2508:2526   */\n  dup2\n    /* \"#utility.yul\":2505:2543   */\n  eq\n    /* \"#utility.yul\":2502:2504   */\n  iszero\n  tag_65\n  jumpi\n    /* \"#utility.yul\":2558:2576   */\n  tag_66\n  tag_67\n  jump\t// in\ntag_66:\n    /* \"#utility.yul\":2502:2504   */\ntag_65:\n    /* \"#utility.yul\":2323:2592   */\n  pop\n  swap2\n  swap1\n  pop\n  jump\t// out\n    /* \"#utility.yul\":2598:2778   */\ntag_67:\n    /* \"#utility.yul\":2646:2723   */\n  0x4e487b7100000000000000000000000000000000000000000000000000000000\n    /* \"#utility.yul\":2643:2644   */\n  0x00\n    /* \"#utility.yul\":2636:2724   */\n  mstore\n    /* \"#utility.yul\":2743:2747   */\n  0x22\n    /* \"#utility.yul\":2740:2741   */\n  0x04\n    /* \"#utility.yul\":2733:2748   */\n  mstore\n    /* \"#utility.yul\":2767:2771   */\n  0x24\n    /* \"#utility.yul\":2764:2765   */\n  0x00\n    /* \"#utility.yul\":2757:2772   */\n  revert\n    /* \"#utility.yul\":2784:2964   */\ntag_54:\n    /* \"#utility.yul\":2832:2909   */\n  0x4e487b7100000000000000000000000000000000000000000000000000000000\n    /* \"#utility.yul\":2829:2830   */\n  0x00\n    /* \"#utility.yul\":2822:2910   */\n  mstore\n    /* \"#utility.yul\":2929:2933   */\n  0x41\n    /* \"#utility.yul\":2926:2927   */\n  0x04\n    /* \"#utility.yul\":2919:2934   */\n  mstore\n    /* \"#utility.yul\":2953:2957   */\n  0x24\n    /* \"#utility.yul\":2950:2951   */\n  0x00\n    /* \"#utility.yul\":2943:2958   */\n  revert\n    /* \"Chain Paper/CP.sol\":148:3159  contract CP is Ownable, ERC721 {\r... */\ntag_17:\n  dataSize(sub_0)\n  dup1\n  dataOffset(sub_0)\n  0x00\n  codecopy\n  0x00\n  return\nstop\n\nsub_0: assembly {\n        /* \"Chain Paper/CP.sol\":148:3159  contract CP is Ownable, ERC721 {\r... */\n      mstore(0x40, 0x80)\n      jumpi(tag_1, lt(calldatasize, 0x04))\n      shr(0xe0, calldataload(0x00))\n      dup1\n      0x70a08231\n      gt\n      tag_31\n      jumpi\n      dup1\n      0xac446002\n      gt\n      tag_32\n      jumpi\n      dup1\n      0xc87b56dd\n      gt\n      tag_33\n      jumpi\n      dup1\n      0xc87b56dd\n      eq\n      tag_27\n      jumpi\n      dup1\n      0xda460977\n      eq\n      tag_28\n      jumpi\n      dup1\n      0xe985e9c5\n      eq\n      tag_29\n      jumpi\n      dup1\n      0xf2fde38b\n      eq\n      tag_30\n      jumpi\n      jump(tag_1)\n    tag_33:\n      dup1\n      0xac446002\n      eq\n      tag_23\n      jumpi\n      dup1\n      0xb88d4fde\n      eq\n      tag_24\n      jumpi\n      dup1\n      0xbeae6637\n      eq\n      tag_25\n      jumpi\n      dup1\n      0xc5e51b9e\n      eq\n      tag_26\n      jumpi\n      jump(tag_1)\n    tag_32:\n      dup1\n      0x8a75191e\n      gt\n      tag_34\n      jumpi\n      dup1\n      0x8a75191e\n      eq\n      tag_19\n      jumpi\n      dup1\n      0x8da5cb5b\n      eq\n      tag_20\n      jumpi\n      dup1\n      0x95d89b41\n      eq\n      tag_21\n      jumpi\n      dup1\n      0x98d5fdca\n      eq\n      tag_22\n      jumpi\n      jump(tag_1)\n    tag_34:\n      dup1\n      0x70a08231\n      eq\n      tag_16\n      jumpi\n      dup1\n      0x715018a6\n      eq\n      tag_17\n      jumpi\n      dup1\n      0x78e97925\n      eq\n      tag_18\n      jumpi\n      jump(tag_1)\n    tag_31:\n      dup1\n      0x3609ac8f\n      gt\n      tag_35\n      jumpi\n      dup1\n      0x42842e0e\n      gt\n      tag_36\n      jumpi\n      dup1\n      0x42842e0e\n      eq\n      tag_12\n      jumpi\n      dup1\n      0x4d3554c3\n      eq\n      tag_13\n      jumpi\n      dup1\n      0x538f1672\n      eq\n      tag_14\n      jumpi\n      dup1\n      0x6352211e\n      eq\n      tag_15\n      jumpi\n      jump(tag_1)\n    tag_36:\n      dup1\n      0x3609ac8f\n      eq\n      tag_9\n      jumpi\n      dup1\n      0x3badcb56\n      eq\n      tag_10\n      jumpi\n      dup1\n      0x3e0a322d\n      eq\n      tag_11\n      jumpi\n      jump(tag_1)\n    tag_35:\n      dup1\n      0x095ea7b3\n      gt\n      tag_37\n      jumpi\n      dup1\n      0x095ea7b3\n      eq\n      tag_5\n      jumpi\n      dup1\n      0x096dc66f\n      eq\n      tag_6\n      jumpi\n      dup1\n      0x18160ddd\n      eq\n      tag_7\n      jumpi\n      dup1\n      0x23b872dd\n      eq\n      tag_8\n      jumpi\n      jump(tag_1)\n    tag_37:\n      dup1\n      0x01ffc9a7\n      eq\n      tag_2\n      jumpi\n      dup1\n      0x06fdde03\n      eq\n      tag_3\n      jumpi\n      dup1\n      0x081812fc\n      eq\n      tag_4\n      jumpi\n    tag_1:\n      0x00\n      dup1\n      revert\n        /* \"Chain Paper/liberty/ERC721.sol\":817:1096  function supportsInterface(bytes4 interfaceId) external pure override returns(bool)  {\r... */\n    tag_2:\n      callvalue\n      dup1\n      iszero\n      tag_38\n      jumpi\n      0x00\n      dup1\n      revert\n    tag_38:\n      pop\n      tag_39\n      0x04\n      dup1\n      calldatasize\n      sub\n      dup2\n      add\n      swap1\n      tag_40\n      swap2\n      swap1\n      tag_41\n      jump\t// in\n    tag_40:\n      tag_42\n      jump\t// in\n    tag_39:\n      mload(0x40)\n      tag_43\n      swap2\n      swap1\n      tag_44\n      jump\t// in\n    tag_43:\n      mload(0x40)\n      dup1\n      swap2\n      sub\n      swap1\n      return\n        /* \"Chain Paper/liberty/ERC721.sol\":390:417  string public override name */\n    tag_3:\n      callvalue\n      dup1\n      iszero\n      tag_45\n      jumpi\n      0x00\n      dup1\n      revert\n    tag_45:\n      pop\n      tag_46\n      tag_47\n      jump\t// in\n    tag_46:\n      mload(0x40)\n      tag_48\n      swap2\n      swap1\n      tag_49\n      jump\t// in\n    tag_48:\n      mload(0x40)\n      dup1\n      swap2\n      sub\n      swap1\n      return\n        /* \"Chain Paper/liberty/ERC721.sol\":1844:2039  function getApproved(uint tokenId)external view override returns(address){\r... */\n    tag_4:\n      callvalue\n      dup1\n      iszero\n      tag_50\n      jumpi\n      0x00\n      dup1\n      revert\n    tag_50:\n      pop\n      tag_51\n      0x04\n      dup1\n      calldatasize\n      sub\n      dup2\n      add\n      swap1\n      tag_52\n      swap2\n      swap1\n      tag_53\n      jump\t// in\n    tag_52:\n      tag_54\n      jump\t// in\n    tag_51:\n      mload(0x40)\n      tag_55\n      swap2\n      swap1\n      tag_56\n      jump\t// in\n    tag_55:\n      mload(0x40)\n      dup1\n      swap2\n      sub\n      swap1\n      return\n        /* \"Chain Paper/liberty/ERC721.sol\":2210:2474  function approve(address to , uint tokenId)external override {\r... */\n    tag_5:\n      callvalue\n      dup1\n      iszero\n      tag_57\n      jumpi\n      0x00\n      dup1\n      revert\n    tag_57:\n      pop\n      tag_58\n      0x04\n      dup1\n      calldatasize\n      sub\n      dup2\n      add\n      swap1\n      tag_59\n      swap2\n      swap1\n      tag_60\n      jump\t// in\n    tag_59:\n      tag_61\n      jump\t// in\n    tag_58:\n      stop\n        /* \"Chain Paper/CP.sol\":388:434  uint public constant DROP_INTERVAL = 1 minutes */\n    tag_6:\n      callvalue\n      dup1\n      iszero\n      tag_62\n      jumpi\n      0x00\n      dup1\n      revert\n    tag_62:\n      pop\n      tag_63\n      tag_64\n      jump\t// in\n    tag_63:\n      mload(0x40)\n      tag_65\n      swap2\n      swap1\n      tag_66\n      jump\t// in\n    tag_65:\n      mload(0x40)\n      dup1\n      swap2\n      sub\n      swap1\n      return\n        /* \"Chain Paper/CP.sol\":947:1045  function totalSupply()public view virtual returns(uint){\r... */\n    tag_7:\n      callvalue\n      dup1\n      iszero\n      tag_67\n      jumpi\n      0x00\n      dup1\n      revert\n    tag_67:\n      pop\n      tag_68\n      tag_69\n      jump\t// in\n    tag_68:\n      mload(0x40)\n      tag_70\n      swap2\n      swap1\n      tag_66\n      jump\t// in\n    tag_70:\n      mload(0x40)\n      dup1\n      swap2\n      sub\n      swap1\n      return\n        /* \"Chain Paper/liberty/ERC721.sol\":3143:3390  function transferFrom(address from , address to , uint tokenId ) external override {\r... */\n    tag_8:\n      callvalue\n      dup1\n      iszero\n      tag_71\n      jumpi\n      0x00\n      dup1\n      revert\n    tag_71:\n      pop\n      tag_72\n      0x04\n      dup1\n      calldatasize\n      sub\n      dup2\n      add\n      swap1\n      tag_73\n      swap2\n      swap1\n      tag_74\n      jump\t// in\n    tag_73:\n      tag_75\n      jump\t// in\n    tag_72:\n      stop\n        /* \"Chain Paper/CP.sol\":229:271  uint public constant START_PRICE = 1 ether */\n    tag_9:\n      callvalue\n      dup1\n      iszero\n      tag_76\n      jumpi\n      0x00\n      dup1\n      revert\n    tag_76:\n      pop\n      tag_77\n      tag_78\n      jump\t// in\n    tag_77:\n      mload(0x40)\n      tag_79\n      swap2\n      swap1\n      tag_66\n      jump\t// in\n    tag_79:\n      mload(0x40)\n      dup1\n      swap2\n      sub\n      swap1\n      return\n        /* \"Chain Paper/CP.sol\":453:536  uint public constant DROP_PER_STEP = (START_PRICE - END_PRICE)/(TIME/DROP_INTERVAL) */\n    tag_10:\n      callvalue\n      dup1\n      iszero\n      tag_80\n      jumpi\n      0x00\n      dup1\n      revert\n    tag_80:\n      pop\n      tag_81\n      tag_82\n      jump\t// in\n    tag_81:\n      mload(0x40)\n      tag_83\n      swap2\n      swap1\n      tag_66\n      jump\t// in\n    tag_83:\n      mload(0x40)\n      dup1\n      swap2\n      sub\n      swap1\n      return\n        /* \"Chain Paper/CP.sol\":841:939  function setStartTime(uint _timestamp) external onlyOwner{\r... */\n    tag_11:\n      callvalue\n      dup1\n      iszero\n      tag_84\n      jumpi\n      0x00\n      dup1\n      revert\n    tag_84:\n      pop\n      tag_85\n      0x04\n      dup1\n      calldatasize\n      sub\n      dup2\n      add\n      swap1\n      tag_86\n      swap2\n      swap1\n      tag_53\n      jump\t// in\n    tag_86:\n      tag_87\n      jump\t// in\n    tag_85:\n      stop\n        /* \"Chain Paper/liberty/ERC721.sol\":3955:4140  function safeTransferFrom(address from , address to ,uint tokenId )external override{\r... */\n    tag_12:\n      callvalue\n      dup1\n      iszero\n      tag_88\n      jumpi\n      0x00\n      dup1\n      revert\n    tag_88:\n      pop\n      tag_89\n      0x04\n      dup1\n      calldatasize\n      sub\n      dup2\n      add\n      swap1\n      tag_90\n      swap2\n      swap1\n      tag_74\n      jump\t// in\n    tag_90:\n      tag_91\n      jump\t// in\n    tag_89:\n      stop\n        /* \"Chain Paper/CP.sol\":1757:2600  function auctionMint(uint tokenId)external payable{\r... */\n    tag_13:\n      tag_92\n      0x04\n      dup1\n      calldatasize\n      sub\n      dup2\n      add\n      swap1\n      tag_93\n      swap2\n      swap1\n      tag_53\n      jump\t// in\n    tag_93:\n      tag_94\n      jump\t// in\n    tag_92:\n      stop\n        /* \"Chain Paper/CP.sol\":186:222  uint public constant MAX_CPS = 10000 */\n    tag_14:\n      callvalue\n      dup1\n      iszero\n      tag_95\n      jumpi\n      0x00\n      dup1\n      revert\n    tag_95:\n      pop\n      tag_96\n      tag_97\n      jump\t// in\n    tag_96:\n      mload(0x40)\n      tag_98\n      swap2\n      swap1\n      tag_66\n      jump\t// in\n    tag_98:\n      mload(0x40)\n      dup1\n      swap2\n      sub\n      swap1\n      return\n        /* \"Chain Paper/liberty/ERC721.sol\":1282:1459  function ownerOf(uint tokenId)public view override returns(address owner){\r... */\n    tag_15:\n      callvalue\n      dup1\n      iszero\n      tag_99\n      jumpi\n      0x00\n      dup1\n      revert\n    tag_99:\n      pop\n      tag_100\n      0x04\n      dup1\n      calldatasize\n      sub\n      dup2\n      add\n      swap1\n      tag_101\n      swap2\n      swap1\n      tag_53\n      jump\t// in\n    tag_101:\n      tag_102\n      jump\t// in\n    tag_100:\n      mload(0x40)\n      tag_103\n      swap2\n      swap1\n      tag_56\n      jump\t// in\n    tag_103:\n      mload(0x40)\n      dup1\n      swap2\n      sub\n      swap1\n      return\n        /* \"Chain Paper/liberty/ERC721.sol\":1104:1274  function balanceOf(address owner)external view override returns(uint){\r... */\n    tag_16:\n      callvalue\n      dup1\n      iszero\n      tag_104\n      jumpi\n      0x00\n      dup1\n      revert\n    tag_104:\n      pop\n      tag_105\n      0x04\n      dup1\n      calldatasize\n      sub\n      dup2\n      add\n      swap1\n      tag_106\n      swap2\n      swap1\n      tag_107\n      jump\t// in\n    tag_106:\n      tag_108\n      jump\t// in\n    tag_105:\n      mload(0x40)\n      tag_109\n      swap2\n      swap1\n      tag_66\n      jump\t// in\n    tag_109:\n      mload(0x40)\n      dup1\n      swap2\n      sub\n      swap1\n      return\n        /* \"@openzeppelin/contracts/access/Ownable.sol\":1831:1932  function renounceOwnership() public virtual onlyOwner {... */\n    tag_17:\n      callvalue\n      dup1\n      iszero\n      tag_110\n      jumpi\n      0x00\n      dup1\n      revert\n    tag_110:\n      pop\n      tag_111\n      tag_112\n      jump\t// in\n    tag_111:\n      stop\n        /* \"Chain Paper/CP.sol\":572:593  uint public startTime */\n    tag_18:\n      callvalue\n      dup1\n      iszero\n      tag_113\n      jumpi\n      0x00\n      dup1\n      revert\n    tag_113:\n      pop\n      tag_114\n      tag_115\n      jump\t// in\n    tag_114:\n      mload(0x40)\n      tag_116\n      swap2\n      swap1\n      tag_66\n      jump\t// in\n    tag_116:\n      mload(0x40)\n      dup1\n      swap2\n      sub\n      swap1\n      return\n        /* \"Chain Paper/CP.sol\":2808:2959  function setBaseURI(uint tokenId)external onlyOwner{\r... */\n    tag_19:\n      callvalue\n      dup1\n      iszero\n      tag_117\n      jumpi\n      0x00\n      dup1\n      revert\n    tag_117:\n      pop\n      tag_118\n      0x04\n      dup1\n      calldatasize\n      sub\n      dup2\n      add\n      swap1\n      tag_119\n      swap2\n      swap1\n      tag_53\n      jump\t// in\n    tag_119:\n      tag_120\n      jump\t// in\n    tag_118:\n      stop\n        /* \"@openzeppelin/contracts/access/Ownable.sol\":1201:1286  function owner() public view virtual returns (address) {... */\n    tag_20:\n      callvalue\n      dup1\n      iszero\n      tag_121\n      jumpi\n      0x00\n      dup1\n      revert\n    tag_121:\n      pop\n      tag_122\n      tag_123\n      jump\t// in\n    tag_122:\n      mload(0x40)\n      tag_124\n      swap2\n      swap1\n      tag_56\n      jump\t// in\n    tag_124:\n      mload(0x40)\n      dup1\n      swap2\n      sub\n      swap1\n      return\n        /* \"Chain Paper/liberty/ERC721.sol\":424:453  string public override symbol */\n    tag_21:\n      callvalue\n      dup1\n      iszero\n      tag_125\n      jumpi\n      0x00\n      dup1\n      revert\n    tag_125:\n      pop\n      tag_126\n      tag_127\n      jump\t// in\n    tag_126:\n      mload(0x40)\n      tag_128\n      swap2\n      swap1\n      tag_49\n      jump\t// in\n    tag_128:\n      mload(0x40)\n      dup1\n      swap2\n      sub\n      swap1\n      return\n        /* \"Chain Paper/CP.sol\":1229:1725  function getPrice()public view returns(uint){\r... */\n    tag_22:\n      callvalue\n      dup1\n      iszero\n      tag_129\n      jumpi\n      0x00\n      dup1\n      revert\n    tag_129:\n      pop\n      tag_130\n      tag_131\n      jump\t// in\n    tag_130:\n      mload(0x40)\n      tag_132\n      swap2\n      swap1\n      tag_66\n      jump\t// in\n    tag_132:\n      mload(0x40)\n      dup1\n      swap2\n      sub\n      swap1\n      return\n        /* \"Chain Paper/CP.sol\":2982:3156  function withdrawMoney()external onlyOwner{\r... */\n    tag_23:\n      callvalue\n      dup1\n      iszero\n      tag_133\n      jumpi\n      0x00\n      dup1\n      revert\n    tag_133:\n      pop\n      tag_134\n      tag_135\n      jump\t// in\n    tag_134:\n      stop\n        /* \"Chain Paper/liberty/ERC721.sol\":3651:3947  function safeTransferFrom(address from , address to ,uint tokenId , bytes memory _data)public  override{\r... */\n    tag_24:\n      callvalue\n      dup1\n      iszero\n      tag_136\n      jumpi\n      0x00\n      dup1\n      revert\n    tag_136:\n      pop\n      tag_137\n      0x04\n      dup1\n      calldatasize\n      sub\n      dup2\n      add\n      swap1\n      tag_138\n      swap2\n      swap1\n      tag_139\n      jump\t// in\n    tag_138:\n      tag_140\n      jump\t// in\n    tag_137:\n      stop\n        /* \"Chain Paper/CP.sol\":327:365  uint public constant TIME = 10 minutes */\n    tag_25:\n      callvalue\n      dup1\n      iszero\n      tag_141\n      jumpi\n      0x00\n      dup1\n      revert\n    tag_141:\n      pop\n      tag_142\n      tag_143\n      jump\t// in\n    tag_142:\n      mload(0x40)\n      tag_144\n      swap2\n      swap1\n      tag_66\n      jump\t// in\n    tag_144:\n      mload(0x40)\n      dup1\n      swap2\n      sub\n      swap1\n      return\n        /* \"Chain Paper/liberty/ERC721.sol\":1631:1836  function approvalForAll(address operator,bool approved)external override{\r... */\n    tag_26:\n      callvalue\n      dup1\n      iszero\n      tag_145\n      jumpi\n      0x00\n      dup1\n      revert\n    tag_145:\n      pop\n      tag_146\n      0x04\n      dup1\n      calldatasize\n      sub\n      dup2\n      add\n      swap1\n      tag_147\n      swap2\n      swap1\n      tag_148\n      jump\t// in\n    tag_147:\n      tag_149\n      jump\t// in\n    tag_146:\n      stop\n        /* \"Chain Paper/liberty/ERC721.sol\":5303:5612  function tokenURI(uint tokenId) public override virtual view returns(string memory){\r... */\n    tag_27:\n      callvalue\n      dup1\n      iszero\n      tag_150\n      jumpi\n      0x00\n      dup1\n      revert\n    tag_150:\n      pop\n      tag_151\n      0x04\n      dup1\n      calldatasize\n      sub\n      dup2\n      add\n      swap1\n      tag_152\n      swap2\n      swap1\n      tag_53\n      jump\t// in\n    tag_152:\n      tag_153\n      jump\t// in\n    tag_151:\n      mload(0x40)\n      tag_154\n      swap2\n      swap1\n      tag_49\n      jump\t// in\n    tag_154:\n      mload(0x40)\n      dup1\n      swap2\n      sub\n      swap1\n      return\n        /* \"Chain Paper/CP.sol\":278:320  uint public constant END_PRICE = 0.1 ether */\n    tag_28:\n      callvalue\n      dup1\n      iszero\n      tag_155\n      jumpi\n      0x00\n      dup1\n      revert\n    tag_155:\n      pop\n      tag_156\n      tag_157\n      jump\t// in\n    tag_156:\n      mload(0x40)\n      tag_158\n      swap2\n      swap1\n      tag_66\n      jump\t// in\n    tag_158:\n      mload(0x40)\n      dup1\n      swap2\n      sub\n      swap1\n      return\n        /* \"Chain Paper/liberty/ERC721.sol\":1469:1623  function isApprovedForAll(address owner,address operator)external view override returns(bool){\r... */\n    tag_29:\n      callvalue\n      dup1\n      iszero\n      tag_159\n      jumpi\n      0x00\n      dup1\n      revert\n    tag_159:\n      pop\n      tag_160\n      0x04\n      dup1\n      calldatasize\n      sub\n      dup2\n      add\n      swap1\n      tag_161\n      swap2\n      swap1\n      tag_162\n      jump\t// in\n    tag_161:\n      tag_163\n      jump\t// in\n    tag_160:\n      mload(0x40)\n      tag_164\n      swap2\n      swap1\n      tag_44\n      jump\t// in\n    tag_164:\n      mload(0x40)\n      dup1\n      swap2\n      sub\n      swap1\n      return\n        /* \"@openzeppelin/contracts/access/Ownable.sol\":2081:2279  function transferOwnership(address newOwner) public virtual onlyOwner {... */\n    tag_30:\n      callvalue\n      dup1\n      iszero\n      tag_165\n      jumpi\n      0x00\n      dup1\n      revert\n    tag_165:\n      pop\n      tag_166\n      0x04\n      dup1\n      calldatasize\n      sub\n      dup2\n      add\n      swap1\n      tag_167\n      swap2\n      swap1\n      tag_107\n      jump\t// in\n    tag_167:\n      tag_168\n      jump\t// in\n    tag_166:\n      stop\n        /* \"Chain Paper/liberty/ERC721.sol\":817:1096  function supportsInterface(bytes4 interfaceId) external pure override returns(bool)  {\r... */\n    tag_42:\n        /* \"Chain Paper/liberty/ERC721.sol\":895:899  bool */\n      0x00\n        /* \"Chain Paper/liberty/ERC721.sol\":935:960  type(IERC721).interfaceId */\n      0xe765f73600000000000000000000000000000000000000000000000000000000\n        /* \"Chain Paper/liberty/ERC721.sol\":920:960  interfaceId == type(IERC721).interfaceId */\n      not(0xffffffffffffffffffffffffffffffffffffffffffffffffffffffff)\n      and\n        /* \"Chain Paper/liberty/ERC721.sol\":920:931  interfaceId */\n      dup3\n        /* \"Chain Paper/liberty/ERC721.sol\":920:960  interfaceId == type(IERC721).interfaceId */\n      not(0xffffffffffffffffffffffffffffffffffffffffffffffffffffffff)\n      and\n      eq\n        /* \"Chain Paper/liberty/ERC721.sol\":920:1020  interfaceId == type(IERC721).interfaceId ||\r... */\n      dup1\n      tag_170\n      jumpi\n      pop\n        /* \"Chain Paper/liberty/ERC721.sol\":995:1020  type(IERC165).interfaceId */\n      0x01ffc9a700000000000000000000000000000000000000000000000000000000\n        /* \"Chain Paper/liberty/ERC721.sol\":980:1020  interfaceId == type(IERC165).interfaceId */\n      not(0xffffffffffffffffffffffffffffffffffffffffffffffffffffffff)\n      and\n        /* \"Chain Paper/liberty/ERC721.sol\":980:991  interfaceId */\n      dup3\n        /* \"Chain Paper/liberty/ERC721.sol\":980:1020  interfaceId == type(IERC165).interfaceId */\n      not(0xffffffffffffffffffffffffffffffffffffffffffffffffffffffff)\n      and\n      eq\n        /* \"Chain Paper/liberty/ERC721.sol\":920:1020  interfaceId == type(IERC721).interfaceId ||\r... */\n    tag_170:\n        /* \"Chain Paper/liberty/ERC721.sol\":920:1088  interfaceId == type(IERC721).interfaceId ||\r... */\n      dup1\n      tag_171\n      jumpi\n      pop\n        /* \"Chain Paper/liberty/ERC721.sol\":1055:1088  type(IERC721Metadata).interfaceId */\n      0x5b5e139f00000000000000000000000000000000000000000000000000000000\n        /* \"Chain Paper/liberty/ERC721.sol\":1040:1088  interfaceId == type(IERC721Metadata).interfaceId */\n      not(0xffffffffffffffffffffffffffffffffffffffffffffffffffffffff)\n      and\n        /* \"Chain Paper/liberty/ERC721.sol\":1040:1051  interfaceId */\n      dup3\n        /* \"Chain Paper/liberty/ERC721.sol\":1040:1088  interfaceId == type(IERC721Metadata).interfaceId */\n      not(0xffffffffffffffffffffffffffffffffffffffffffffffffffffffff)\n      and\n      eq\n        /* \"Chain Paper/liberty/ERC721.sol\":920:1088  interfaceId == type(IERC721).interfaceId ||\r... */\n    tag_171:\n        /* \"Chain Paper/liberty/ERC721.sol\":913:1088  return interfaceId == type(IERC721).interfaceId ||\r... */\n      swap1\n      pop\n        /* \"Chain Paper/liberty/ERC721.sol\":817:1096  function supportsInterface(bytes4 interfaceId) external pure override returns(bool)  {\r... */\n      swap2\n      swap1\n      pop\n      jump\t// out\n        /* \"Chain Paper/liberty/ERC721.sol\":390:417  string public override name */\n    tag_47:\n      0x01\n      dup1\n      sload\n      tag_172\n      swap1\n      tag_173\n      jump\t// in\n    tag_172:\n      dup1\n      0x1f\n      add\n      0x20\n      dup1\n      swap2\n      div\n      mul\n      0x20\n      add\n      mload(0x40)\n      swap1\n      dup2\n      add\n      0x40\n      mstore\n      dup1\n      swap3\n      swap2\n      swap1\n      dup2\n      dup2\n      mstore\n      0x20\n      add\n      dup3\n      dup1\n      sload\n      tag_174\n      swap1\n      tag_173\n      jump\t// in\n    tag_174:\n      dup1\n      iszero\n      tag_175\n      jumpi\n      dup1\n      0x1f\n      lt\n      tag_176\n      jumpi\n      0x0100\n      dup1\n      dup4\n      sload\n      div\n      mul\n      dup4\n      mstore\n      swap2\n      0x20\n      add\n      swap2\n      jump(tag_175)\n    tag_176:\n      dup3\n      add\n      swap2\n      swap1\n      0x00\n      mstore\n      keccak256(0x00, 0x20)\n      swap1\n    tag_177:\n      dup2\n      sload\n      dup2\n      mstore\n      swap1\n      0x01\n      add\n      swap1\n      0x20\n      add\n      dup1\n      dup4\n      gt\n      tag_177\n      jumpi\n      dup3\n      swap1\n      sub\n      0x1f\n      and\n      dup3\n      add\n      swap2\n    tag_175:\n      pop\n      pop\n      pop\n      pop\n      pop\n      dup2\n      jump\t// out\n        /* \"Chain Paper/liberty/ERC721.sol\":1844:2039  function getApproved(uint tokenId)external view override returns(address){\r... */\n    tag_54:\n        /* \"Chain Paper/liberty/ERC721.sol\":1909:1916  address */\n      0x00\n        /* \"Chain Paper/liberty/ERC721.sol\":1964:1965  0 */\n      dup1\n        /* \"Chain Paper/liberty/ERC721.sol\":1936:1966  _owners[tokenId] != address(0) */\n      0xffffffffffffffffffffffffffffffffffffffff\n      and\n        /* \"Chain Paper/liberty/ERC721.sol\":1936:1943  _owners */\n      0x03\n        /* \"Chain Paper/liberty/ERC721.sol\":1936:1952  _owners[tokenId] */\n      0x00\n        /* \"Chain Paper/liberty/ERC721.sol\":1944:1951  tokenId */\n      dup5\n        /* \"Chain Paper/liberty/ERC721.sol\":1936:1952  _owners[tokenId] */\n      dup2\n      mstore\n      0x20\n      add\n      swap1\n      dup2\n      mstore\n      0x20\n      add\n      0x00\n      keccak256\n      0x00\n      swap1\n      sload\n      swap1\n      0x0100\n      exp\n      swap1\n      div\n      0xffffffffffffffffffffffffffffffffffffffff\n      and\n        /* \"Chain Paper/liberty/ERC721.sol\":1936:1966  _owners[tokenId] != address(0) */\n      0xffffffffffffffffffffffffffffffffffffffff\n      and\n      eq\n      iszero\n        /* \"Chain Paper/liberty/ERC721.sol\":1928:1989  require(_owners[tokenId] != address(0),\"token doesn't exist\") */\n      tag_179\n      jumpi\n      mload(0x40)\n      0x08c379a000000000000000000000000000000000000000000000000000000000\n      dup2\n      mstore\n      0x04\n      add\n      tag_180\n      swap1\n      tag_181\n      jump\t// in\n    tag_180:\n      mload(0x40)\n      dup1\n      swap2\n      sub\n      swap1\n      revert\n    tag_179:\n        /* \"Chain Paper/liberty/ERC721.sol\":2007:2022  _tokenApprovals */\n      0x05\n        /* \"Chain Paper/liberty/ERC721.sol\":2007:2031  _tokenApprovals[tokenId] */\n      0x00\n        /* \"Chain Paper/liberty/ERC721.sol\":2023:2030  tokenId */\n      dup4\n        /* \"Chain Paper/liberty/ERC721.sol\":2007:2031  _tokenApprovals[tokenId] */\n      dup2\n      mstore\n      0x20\n      add\n      swap1\n      dup2\n      mstore\n      0x20\n      add\n      0x00\n      keccak256\n      0x00\n      swap1\n      sload\n      swap1\n      0x0100\n      exp\n      swap1\n      div\n      0xffffffffffffffffffffffffffffffffffffffff\n      and\n        /* \"Chain Paper/liberty/ERC721.sol\":2000:2031  return _tokenApprovals[tokenId] */\n      swap1\n      pop\n        /* \"Chain Paper/liberty/ERC721.sol\":1844:2039  function getApproved(uint tokenId)external view override returns(address){\r... */\n      swap2\n      swap1\n      pop\n      jump\t// out\n        /* \"Chain Paper/liberty/ERC721.sol\":2210:2474  function approve(address to , uint tokenId)external override {\r... */\n    tag_61:\n        /* \"Chain Paper/liberty/ERC721.sol\":2282:2295  address owner */\n      0x00\n        /* \"Chain Paper/liberty/ERC721.sol\":2298:2305  _owners */\n      0x03\n        /* \"Chain Paper/liberty/ERC721.sol\":2298:2314  _owners[tokenId] */\n      0x00\n        /* \"Chain Paper/liberty/ERC721.sol\":2306:2313  tokenId */\n      dup4\n        /* \"Chain Paper/liberty/ERC721.sol\":2298:2314  _owners[tokenId] */\n      dup2\n      mstore\n      0x20\n      add\n      swap1\n      dup2\n      mstore\n      0x20\n      add\n      0x00\n      keccak256\n      0x00\n      swap1\n      sload\n      swap1\n      0x0100\n      exp\n      swap1\n      div\n      0xffffffffffffffffffffffffffffffffffffffff\n      and\n        /* \"Chain Paper/liberty/ERC721.sol\":2282:2314  address owner = _owners[tokenId] */\n      swap1\n      pop\n        /* \"Chain Paper/liberty/ERC721.sol\":2347:2352  owner */\n      dup1\n        /* \"Chain Paper/liberty/ERC721.sol\":2333:2352  msg.sender == owner */\n      0xffffffffffffffffffffffffffffffffffffffff\n      and\n        /* \"Chain Paper/liberty/ERC721.sol\":2333:2343  msg.sender */\n      caller\n        /* \"Chain Paper/liberty/ERC721.sol\":2333:2352  msg.sender == owner */\n      0xffffffffffffffffffffffffffffffffffffffff\n      and\n      eq\n        /* \"Chain Paper/liberty/ERC721.sol\":2333:2393  msg.sender == owner || _operatorApprovals[owner][msg.sender] */\n      dup1\n      tag_183\n      jumpi\n      pop\n        /* \"Chain Paper/liberty/ERC721.sol\":2356:2374  _operatorApprovals */\n      0x06\n        /* \"Chain Paper/liberty/ERC721.sol\":2356:2381  _operatorApprovals[owner] */\n      0x00\n        /* \"Chain Paper/liberty/ERC721.sol\":2375:2380  owner */\n      dup3\n        /* \"Chain Paper/liberty/ERC721.sol\":2356:2381  _operatorApprovals[owner] */\n      0xffffffffffffffffffffffffffffffffffffffff\n      and\n      0xffffffffffffffffffffffffffffffffffffffff\n      and\n      dup2\n      mstore\n      0x20\n      add\n      swap1\n      dup2\n      mstore\n      0x20\n      add\n      0x00\n      keccak256\n        /* \"Chain Paper/liberty/ERC721.sol\":2356:2393  _operatorApprovals[owner][msg.sender] */\n      0x00\n        /* \"Chain Paper/liberty/ERC721.sol\":2382:2392  msg.sender */\n      caller\n        /* \"Chain Paper/liberty/ERC721.sol\":2356:2393  _operatorApprovals[owner][msg.sender] */\n      0xffffffffffffffffffffffffffffffffffffffff\n      and\n      0xffffffffffffffffffffffffffffffffffffffff\n      and\n      dup2\n      mstore\n      0x20\n      add\n      swap1\n      dup2\n      mstore\n      0x20\n      add\n      0x00\n      keccak256\n      0x00\n      swap1\n      sload\n      swap1\n      0x0100\n      exp\n      swap1\n      div\n      0xff\n      and\n        /* \"Chain Paper/liberty/ERC721.sol\":2333:2393  msg.sender == owner || _operatorApprovals[owner][msg.sender] */\n    tag_183:\n        /* \"Chain Paper/liberty/ERC721.sol\":2325:2426  require(msg.sender == owner || _operatorApprovals[owner][msg.sender],\"not owner or approved for all\") */\n      tag_184\n      jumpi\n      mload(0x40)\n      0x08c379a000000000000000000000000000000000000000000000000000000000\n      dup2\n      mstore\n      0x04\n      add\n      tag_185\n      swap1\n      tag_186\n      jump\t// in\n    tag_185:\n      mload(0x40)\n      dup1\n      swap2\n      sub\n      swap1\n      revert\n    tag_184:\n        /* \"Chain Paper/liberty/ERC721.sol\":2437:2466  _approve(owner, to , tokenId) */\n      tag_187\n        /* \"Chain Paper/liberty/ERC721.sol\":2446:2451  owner */\n      dup2\n        /* \"Chain Paper/liberty/ERC721.sol\":2453:2455  to */\n      dup5\n        /* \"Chain Paper/liberty/ERC721.sol\":2458:2465  tokenId */\n      dup5\n        /* \"Chain Paper/liberty/ERC721.sol\":2437:2445  _approve */\n      tag_188\n        /* \"Chain Paper/liberty/ERC721.sol\":2437:2466  _approve(owner, to , tokenId) */\n      jump\t// in\n    tag_187:\n        /* \"Chain Paper/liberty/ERC721.sol\":2210:2474  function approve(address to , uint tokenId)external override {\r... */\n      pop\n      pop\n      pop\n      jump\t// out\n        /* \"Chain Paper/CP.sol\":388:434  uint public constant DROP_INTERVAL = 1 minutes */\n    tag_64:\n        /* \"Chain Paper/CP.sol\":425:434  1 minutes */\n      0x3c\n        /* \"Chain Paper/CP.sol\":388:434  uint public constant DROP_INTERVAL = 1 minutes */\n      dup2\n      jump\t// out\n        /* \"Chain Paper/CP.sol\":947:1045  function totalSupply()public view virtual returns(uint){\r... */\n    tag_69:\n        /* \"Chain Paper/CP.sol\":997:1001  uint */\n      0x00\n        /* \"Chain Paper/CP.sol\":1020:1030  _allTokens */\n      0x09\n        /* \"Chain Paper/CP.sol\":1020:1037  _allTokens.length */\n      dup1\n      sload\n      swap1\n      pop\n        /* \"Chain Paper/CP.sol\":1013:1037  return _allTokens.length */\n      swap1\n      pop\n        /* \"Chain Paper/CP.sol\":947:1045  function totalSupply()public view virtual returns(uint){\r... */\n      swap1\n      jump\t// out\n        /* \"Chain Paper/liberty/ERC721.sol\":3143:3390  function transferFrom(address from , address to , uint tokenId ) external override {\r... */\n    tag_75:\n        /* \"Chain Paper/liberty/ERC721.sol\":3237:3250  address owner */\n      0x00\n        /* \"Chain Paper/liberty/ERC721.sol\":3253:3269  ownerOf(tokenId) */\n      tag_191\n        /* \"Chain Paper/liberty/ERC721.sol\":3261:3268  tokenId */\n      dup3\n        /* \"Chain Paper/liberty/ERC721.sol\":3253:3260  ownerOf */\n      tag_102\n        /* \"Chain Paper/liberty/ERC721.sol\":3253:3269  ownerOf(tokenId) */\n      jump\t// in\n    tag_191:\n        /* \"Chain Paper/liberty/ERC721.sol\":3237:3269  address owner = ownerOf(tokenId) */\n      swap1\n      pop\n        /* \"Chain Paper/liberty/ERC721.sol\":3289:3335  _isApprovedOrOwner(owner , msg.sender,tokenId) */\n      tag_192\n        /* \"Chain Paper/liberty/ERC721.sol\":3308:3313  owner */\n      dup2\n        /* \"Chain Paper/liberty/ERC721.sol\":3316:3326  msg.sender */\n      caller\n        /* \"Chain Paper/liberty/ERC721.sol\":3327:3334  tokenId */\n      dup5\n        /* \"Chain Paper/liberty/ERC721.sol\":3289:3307  _isApprovedOrOwner */\n      tag_193\n        /* \"Chain Paper/liberty/ERC721.sol\":3289:3335  _isApprovedOrOwner(owner , msg.sender,tokenId) */\n      jump\t// in\n    tag_192:\n        /* \"Chain Paper/liberty/ERC721.sol\":3280:3336  require( _isApprovedOrOwner(owner , msg.sender,tokenId)) */\n      tag_194\n      jumpi\n      0x00\n      dup1\n      revert\n    tag_194:\n        /* \"Chain Paper/liberty/ERC721.sol\":3350:3382  _transfer(owner,from,to,tokenId) */\n      tag_195\n        /* \"Chain Paper/liberty/ERC721.sol\":3360:3365  owner */\n      dup2\n        /* \"Chain Paper/liberty/ERC721.sol\":3366:3370  from */\n      dup6\n        /* \"Chain Paper/liberty/ERC721.sol\":3371:3373  to */\n      dup6\n        /* \"Chain Paper/liberty/ERC721.sol\":3374:3381  tokenId */\n      dup6\n        /* \"Chain Paper/liberty/ERC721.sol\":3350:3359  _transfer */\n      tag_196\n        /* \"Chain Paper/liberty/ERC721.sol\":3350:3382  _transfer(owner,from,to,tokenId) */\n      jump\t// in\n    tag_195:\n        /* \"Chain Paper/liberty/ERC721.sol\":3143:3390  function transferFrom(address from , address to , uint tokenId ) external override {\r... */\n      pop\n      pop\n      pop\n      pop\n      jump\t// out\n        /* \"Chain Paper/CP.sol\":229:271  uint public constant START_PRICE = 1 ether */\n    tag_78:\n        /* \"Chain Paper/CP.sol\":264:271  1 ether */\n      0x0de0b6b3a7640000\n        /* \"Chain Paper/CP.sol\":229:271  uint public constant START_PRICE = 1 ether */\n      dup2\n      jump\t// out\n        /* \"Chain Paper/CP.sol\":453:536  uint public constant DROP_PER_STEP = (START_PRICE - END_PRICE)/(TIME/DROP_INTERVAL) */\n    tag_82:\n        /* \"Chain Paper/CP.sol\":425:434  1 minutes */\n      0x3c\n        /* \"Chain Paper/CP.sol\":355:365  10 minutes */\n      0x0258\n        /* \"Chain Paper/CP.sol\":517:535  TIME/DROP_INTERVAL */\n      tag_197\n      swap2\n      swap1\n      tag_198\n      jump\t// in\n    tag_197:\n        /* \"Chain Paper/CP.sol\":311:320  0.1 ether */\n      0x016345785d8a0000\n        /* \"Chain Paper/CP.sol\":264:271  1 ether */\n      0x0de0b6b3a7640000\n        /* \"Chain Paper/CP.sol\":491:514  START_PRICE - END_PRICE */\n      tag_199\n      swap2\n      swap1\n      tag_200\n      jump\t// in\n    tag_199:\n        /* \"Chain Paper/CP.sol\":490:536  (START_PRICE - END_PRICE)/(TIME/DROP_INTERVAL) */\n      tag_201\n      swap2\n      swap1\n      tag_198\n      jump\t// in\n    tag_201:\n        /* \"Chain Paper/CP.sol\":453:536  uint public constant DROP_PER_STEP = (START_PRICE - END_PRICE)/(TIME/DROP_INTERVAL) */\n      dup2\n      jump\t// out\n        /* \"Chain Paper/CP.sol\":841:939  function setStartTime(uint _timestamp) external onlyOwner{\r... */\n    tag_87:\n        /* \"@openzeppelin/contracts/access/Ownable.sol\":1094:1107  _checkOwner() */\n      tag_203\n        /* \"@openzeppelin/contracts/access/Ownable.sol\":1094:1105  _checkOwner */\n      tag_204\n        /* \"@openzeppelin/contracts/access/Ownable.sol\":1094:1107  _checkOwner() */\n      jump\t// in\n    tag_203:\n        /* \"Chain Paper/CP.sol\":921:931  _timestamp */\n      dup1\n        /* \"Chain Paper/CP.sol\":909:918  startTime */\n      0x07\n        /* \"Chain Paper/CP.sol\":909:931  startTime = _timestamp */\n      dup2\n      swap1\n      sstore\n      pop\n        /* \"Chain Paper/CP.sol\":841:939  function setStartTime(uint _timestamp) external onlyOwner{\r... */\n      pop\n      jump\t// out\n        /* \"Chain Paper/liberty/ERC721.sol\":3955:4140  function safeTransferFrom(address from , address to ,uint tokenId )external override{\r... */\n    tag_91:\n        /* \"Chain Paper/liberty/ERC721.sol\":4050:4063  address owner */\n      0x00\n        /* \"Chain Paper/liberty/ERC721.sol\":4066:4082  ownerOf(tokenId) */\n      tag_207\n        /* \"Chain Paper/liberty/ERC721.sol\":4074:4081  tokenId */\n      dup3\n        /* \"Chain Paper/liberty/ERC721.sol\":4066:4073  ownerOf */\n      tag_102\n        /* \"Chain Paper/liberty/ERC721.sol\":4066:4082  ownerOf(tokenId) */\n      jump\t// in\n    tag_207:\n        /* \"Chain Paper/liberty/ERC721.sol\":4050:4082  address owner = ownerOf(tokenId) */\n      swap1\n      pop\n        /* \"Chain Paper/liberty/ERC721.sol\":4093:4132  _safeTransfer(owner,from,to,tokenId,\"\") */\n      tag_208\n        /* \"Chain Paper/liberty/ERC721.sol\":4107:4112  owner */\n      dup2\n        /* \"Chain Paper/liberty/ERC721.sol\":4113:4117  from */\n      dup6\n        /* \"Chain Paper/liberty/ERC721.sol\":4118:4120  to */\n      dup6\n        /* \"Chain Paper/liberty/ERC721.sol\":4121:4128  tokenId */\n      dup6\n        /* \"Chain Paper/liberty/ERC721.sol\":4093:4132  _safeTransfer(owner,from,to,tokenId,\"\") */\n      mload(0x40)\n      dup1\n      0x20\n      add\n      0x40\n      mstore\n      dup1\n      0x00\n      dup2\n      mstore\n      pop\n        /* \"Chain Paper/liberty/ERC721.sol\":4093:4106  _safeTransfer */\n      tag_209\n        /* \"Chain Paper/liberty/ERC721.sol\":4093:4132  _safeTransfer(owner,from,to,tokenId,\"\") */\n      jump\t// in\n    tag_208:\n        /* \"Chain Paper/liberty/ERC721.sol\":3955:4140  function safeTransferFrom(address from , address to ,uint tokenId )external override{\r... */\n      pop\n      pop\n      pop\n      pop\n      jump\t// out\n        /* \"Chain Paper/CP.sol\":1757:2600  function auctionMint(uint tokenId)external payable{\r... */\n    tag_94:\n        /* \"Chain Paper/CP.sol\":1820:1835  uint _startTime */\n      0x00\n        /* \"Chain Paper/CP.sol\":1843:1852  startTime */\n      sload(0x07)\n        /* \"Chain Paper/CP.sol\":1820:1853  uint _startTime = uint(startTime) */\n      swap1\n      pop\n        /* \"Chain Paper/CP.sol\":1920:1921  0 */\n      0x00\n        /* \"Chain Paper/CP.sol\":1906:1916  _startTime */\n      dup2\n        /* \"Chain Paper/CP.sol\":1906:1921  _startTime != 0 */\n      eq\n      iszero\n        /* \"Chain Paper/CP.sol\":1906:1954  _startTime != 0 && block.timestamp >= _startTime */\n      dup1\n      iszero\n      tag_211\n      jumpi\n      pop\n        /* \"Chain Paper/CP.sol\":1944:1954  _startTime */\n      dup1\n        /* \"Chain Paper/CP.sol\":1925:1940  block.timestamp */\n      timestamp\n        /* \"Chain Paper/CP.sol\":1925:1954  block.timestamp >= _startTime */\n      lt\n      iszero\n        /* \"Chain Paper/CP.sol\":1906:1954  _startTime != 0 && block.timestamp >= _startTime */\n    tag_211:\n        /* \"Chain Paper/CP.sol\":1898:1982  require(_startTime != 0 && block.timestamp >= _startTime,\"sale has not started yet\") */\n      tag_212\n      jumpi\n      mload(0x40)\n      0x08c379a000000000000000000000000000000000000000000000000000000000\n      dup2\n      mstore\n      0x04\n      add\n      tag_213\n      swap1\n      tag_214\n      jump\t// in\n    tag_213:\n      mload(0x40)\n      dup1\n      swap2\n      sub\n      swap1\n      revert\n    tag_212:\n        /* \"Chain Paper/CP.sol\":217:222  10000 */\n      0x2710\n        /* \"Chain Paper/CP.sol\":2046:2047  1 */\n      0x01\n        /* \"Chain Paper/CP.sol\":2030:2043  totalSupply() */\n      tag_215\n        /* \"Chain Paper/CP.sol\":2030:2041  totalSupply */\n      tag_69\n        /* \"Chain Paper/CP.sol\":2030:2043  totalSupply() */\n      jump\t// in\n    tag_215:\n        /* \"Chain Paper/CP.sol\":2030:2047  totalSupply() + 1 */\n      tag_216\n      swap2\n      swap1\n      tag_217\n      jump\t// in\n    tag_216:\n        /* \"Chain Paper/CP.sol\":2030:2058  totalSupply() + 1 <= MAX_CPS */\n      gt\n      iszero\n        /* \"Chain Paper/CP.sol\":2022:2134  require(totalSupply() + 1 <= MAX_CPS,\"not enough remaining reserved for auction to support desired mint amount\") */\n      tag_218\n      jumpi\n      mload(0x40)\n      0x08c379a000000000000000000000000000000000000000000000000000000000\n      dup2\n      mstore\n      0x04\n      add\n      tag_219\n      swap1\n      tag_220\n      jump\t// in\n    tag_219:\n      mload(0x40)\n      dup1\n      swap2\n      sub\n      swap1\n      revert\n    tag_218:\n        /* \"Chain Paper/CP.sol\":2181:2190  uint cost */\n      0x00\n        /* \"Chain Paper/CP.sol\":2193:2203  getPrice() */\n      tag_221\n        /* \"Chain Paper/CP.sol\":2193:2201  getPrice */\n      tag_131\n        /* \"Chain Paper/CP.sol\":2193:2203  getPrice() */\n      jump\t// in\n    tag_221:\n        /* \"Chain Paper/CP.sol\":2181:2203  uint cost = getPrice() */\n      swap1\n      pop\n        /* \"Chain Paper/CP.sol\":2296:2300  cost */\n      dup1\n        /* \"Chain Paper/CP.sol\":2283:2292  msg.value */\n      callvalue\n        /* \"Chain Paper/CP.sol\":2283:2300  msg.value >= cost */\n      lt\n      iszero\n        /* \"Chain Paper/CP.sol\":2275:2327  require(msg.value >= cost, \"Need to send more ETH.\") */\n      tag_222\n      jumpi\n      mload(0x40)\n      0x08c379a000000000000000000000000000000000000000000000000000000000\n      dup2\n      mstore\n      0x04\n      add\n      tag_223\n      swap1\n      tag_224\n      jump\t// in\n    tag_223:\n      mload(0x40)\n      dup1\n      swap2\n      sub\n      swap1\n      revert\n    tag_222:\n        /* \"Chain Paper/CP.sol\":2375:2400  _mint(msg.sender,tokenId) */\n      tag_225\n        /* \"Chain Paper/CP.sol\":2381:2391  msg.sender */\n      caller\n        /* \"Chain Paper/CP.sol\":2392:2399  tokenId */\n      dup5\n        /* \"Chain Paper/CP.sol\":2375:2380  _mint */\n      tag_226\n        /* \"Chain Paper/CP.sol\":2375:2400  _mint(msg.sender,tokenId) */\n      jump\t// in\n    tag_225:\n        /* \"Chain Paper/CP.sol\":2411:2451  _addTokenToAllTokensEnumeration(tokenId) */\n      tag_227\n        /* \"Chain Paper/CP.sol\":2443:2450  tokenId */\n      dup4\n        /* \"Chain Paper/CP.sol\":2411:2442  _addTokenToAllTokensEnumeration */\n      tag_228\n        /* \"Chain Paper/CP.sol\":2411:2451  _addTokenToAllTokensEnumeration(tokenId) */\n      jump\t// in\n    tag_227:\n        /* \"Chain Paper/CP.sol\":2512:2516  cost */\n      dup1\n        /* \"Chain Paper/CP.sol\":2500:2509  msg.value */\n      callvalue\n        /* \"Chain Paper/CP.sol\":2500:2516  msg.value > cost */\n      gt\n        /* \"Chain Paper/CP.sol\":2496:2591  if (msg.value > cost) {\r... */\n      iszero\n      tag_229\n      jumpi\n        /* \"Chain Paper/CP.sol\":2541:2551  msg.sender */\n      caller\n        /* \"Chain Paper/CP.sol\":2533:2561  payable(msg.sender).transfer */\n      0xffffffffffffffffffffffffffffffffffffffff\n      and\n        /* \"Chain Paper/CP.sol\":2533:2579  payable(msg.sender).transfer(msg.value - cost) */\n      0x08fc\n        /* \"Chain Paper/CP.sol\":2574:2578  cost */\n      dup3\n        /* \"Chain Paper/CP.sol\":2562:2571  msg.value */\n      callvalue\n        /* \"Chain Paper/CP.sol\":2562:2578  msg.value - cost */\n      tag_230\n      swap2\n      swap1\n      tag_200\n      jump\t// in\n    tag_230:\n        /* \"Chain Paper/CP.sol\":2533:2579  payable(msg.sender).transfer(msg.value - cost) */\n      swap1\n      dup2\n      iszero\n      mul\n      swap1\n      mload(0x40)\n      0x00\n      mload(0x40)\n      dup1\n      dup4\n      sub\n      dup2\n      dup6\n      dup9\n      dup9\n      call\n      swap4\n      pop\n      pop\n      pop\n      pop\n      iszero\n      dup1\n      iszero\n      tag_232\n      jumpi\n      returndatasize\n      0x00\n      dup1\n      returndatacopy\n      revert(0x00, returndatasize)\n    tag_232:\n      pop\n        /* \"Chain Paper/CP.sol\":2496:2591  if (msg.value > cost) {\r... */\n    tag_229:\n        /* \"Chain Paper/CP.sol\":1757:2600  function auctionMint(uint tokenId)external payable{\r... */\n      pop\n      pop\n      pop\n      jump\t// out\n        /* \"Chain Paper/CP.sol\":186:222  uint public constant MAX_CPS = 10000 */\n    tag_97:\n        /* \"Chain Paper/CP.sol\":217:222  10000 */\n      0x2710\n        /* \"Chain Paper/CP.sol\":186:222  uint public constant MAX_CPS = 10000 */\n      dup2\n      jump\t// out\n        /* \"Chain Paper/liberty/ERC721.sol\":1282:1459  function ownerOf(uint tokenId)public view override returns(address owner){\r... */\n    tag_102:\n        /* \"Chain Paper/liberty/ERC721.sol\":1341:1354  address owner */\n      0x00\n        /* \"Chain Paper/liberty/ERC721.sol\":1374:1381  _owners */\n      0x03\n        /* \"Chain Paper/liberty/ERC721.sol\":1374:1390  _owners[tokenId] */\n      0x00\n        /* \"Chain Paper/liberty/ERC721.sol\":1382:1389  tokenId */\n      dup4\n        /* \"Chain Paper/liberty/ERC721.sol\":1374:1390  _owners[tokenId] */\n      dup2\n      mstore\n      0x20\n      add\n      swap1\n      dup2\n      mstore\n      0x20\n      add\n      0x00\n      keccak256\n      0x00\n      swap1\n      sload\n      swap1\n      0x0100\n      exp\n      swap1\n      div\n      0xffffffffffffffffffffffffffffffffffffffff\n      and\n        /* \"Chain Paper/liberty/ERC721.sol\":1366:1390  owner = _owners[tokenId] */\n      swap1\n      pop\n        /* \"Chain Paper/liberty/ERC721.sol\":1426:1427  0 */\n      0x00\n        /* \"Chain Paper/liberty/ERC721.sol\":1409:1428  owner != address(0) */\n      0xffffffffffffffffffffffffffffffffffffffff\n      and\n        /* \"Chain Paper/liberty/ERC721.sol\":1409:1414  owner */\n      dup2\n        /* \"Chain Paper/liberty/ERC721.sol\":1409:1428  owner != address(0) */\n      0xffffffffffffffffffffffffffffffffffffffff\n      and\n      eq\n      iszero\n        /* \"Chain Paper/liberty/ERC721.sol\":1401:1451  require(owner != address(0),\"token doesn't exist\") */\n      tag_234\n      jumpi\n      mload(0x40)\n      0x08c379a000000000000000000000000000000000000000000000000000000000\n      dup2\n      mstore\n      0x04\n      add\n      tag_235\n      swap1\n      tag_181\n      jump\t// in\n    tag_235:\n      mload(0x40)\n      dup1\n      swap2\n      sub\n      swap1\n      revert\n    tag_234:\n        /* \"Chain Paper/liberty/ERC721.sol\":1282:1459  function ownerOf(uint tokenId)public view override returns(address owner){\r... */\n      swap2\n      swap1\n      pop\n      jump\t// out\n        /* \"Chain Paper/liberty/ERC721.sol\":1104:1274  function balanceOf(address owner)external view override returns(uint){\r... */\n    tag_108:\n        /* \"Chain Paper/liberty/ERC721.sol\":1168:1172  uint */\n      0x00\n        /* \"Chain Paper/liberty/ERC721.sol\":1209:1210  0 */\n      dup1\n        /* \"Chain Paper/liberty/ERC721.sol\":1192:1211  owner != address(0) */\n      0xffffffffffffffffffffffffffffffffffffffff\n      and\n        /* \"Chain Paper/liberty/ERC721.sol\":1192:1197  owner */\n      dup3\n        /* \"Chain Paper/liberty/ERC721.sol\":1192:1211  owner != address(0) */\n      0xffffffffffffffffffffffffffffffffffffffff\n      and\n      eq\n      iszero\n        /* \"Chain Paper/liberty/ERC721.sol\":1184:1232  require(owner != address(0),\"owner = 0 address\") */\n      tag_237\n      jumpi\n      mload(0x40)\n      0x08c379a000000000000000000000000000000000000000000000000000000000\n      dup2\n      mstore\n      0x04\n      add\n      tag_238\n      swap1\n      tag_239\n      jump\t// in\n    tag_238:\n      mload(0x40)\n      dup1\n      swap2\n      sub\n      swap1\n      revert\n    tag_237:\n        /* \"Chain Paper/liberty/ERC721.sol\":1250:1259  _balances */\n      0x04\n        /* \"Chain Paper/liberty/ERC721.sol\":1250:1266  _balances[owner] */\n      0x00\n        /* \"Chain Paper/liberty/ERC721.sol\":1260:1265  owner */\n      dup4\n        /* \"Chain Paper/liberty/ERC721.sol\":1250:1266  _balances[owner] */\n      0xffffffffffffffffffffffffffffffffffffffff\n      and\n      0xffffffffffffffffffffffffffffffffffffffff\n      and\n      dup2\n      mstore\n      0x20\n      add\n      swap1\n      dup2\n      mstore\n      0x20\n      add\n      0x00\n      keccak256\n      sload\n        /* \"Chain Paper/liberty/ERC721.sol\":1243:1266  return _balances[owner] */\n      swap1\n      pop\n        /* \"Chain Paper/liberty/ERC721.sol\":1104:1274  function balanceOf(address owner)external view override returns(uint){\r... */\n      swap2\n      swap1\n      pop\n      jump\t// out\n        /* \"@openzeppelin/contracts/access/Ownable.sol\":1831:1932  function renounceOwnership() public virtual onlyOwner {... */\n    tag_112:\n        /* \"@openzeppelin/contracts/access/Ownable.sol\":1094:1107  _checkOwner() */\n      tag_241\n        /* \"@openzeppelin/contracts/access/Ownable.sol\":1094:1105  _checkOwner */\n      tag_204\n        /* \"@openzeppelin/contracts/access/Ownable.sol\":1094:1107  _checkOwner() */\n      jump\t// in\n    tag_241:\n        /* \"@openzeppelin/contracts/access/Ownable.sol\":1895:1925  _transferOwnership(address(0)) */\n      tag_243\n        /* \"@openzeppelin/contracts/access/Ownable.sol\":1922:1923  0 */\n      0x00\n        /* \"@openzeppelin/contracts/access/Ownable.sol\":1895:1913  _transferOwnership */\n      tag_244\n        /* \"@openzeppelin/contracts/access/Ownable.sol\":1895:1925  _transferOwnership(address(0)) */\n      jump\t// in\n    tag_243:\n        /* \"@openzeppelin/contracts/access/Ownable.sol\":1831:1932  function renounceOwnership() public virtual onlyOwner {... */\n      jump\t// out\n        /* \"Chain Paper/CP.sol\":572:593  uint public startTime */\n    tag_115:\n      sload(0x07)\n      dup2\n      jump\t// out\n        /* \"Chain Paper/CP.sol\":2808:2959  function setBaseURI(uint tokenId)external onlyOwner{\r... */\n    tag_120:\n        /* \"@openzeppelin/contracts/access/Ownable.sol\":1094:1107  _checkOwner() */\n      tag_246\n        /* \"@openzeppelin/contracts/access/Ownable.sol\":1094:1105  _checkOwner */\n      tag_204\n        /* \"@openzeppelin/contracts/access/Ownable.sol\":1094:1107  _checkOwner() */\n      jump\t// in\n    tag_246:\n        /* \"Chain Paper/CP.sol\":2870:2951  _baseTokenURI[tokenId] = \"ipfs://QmcVgEu5CLpGJeZZEvSF3Lj3RUmkwWKUbRLqiTrQcVVU9w/\" */\n      mload(0x40)\n      dup1\n      0x60\n      add\n      0x40\n      mstore\n      dup1\n      0x36\n      dup2\n      mstore\n      0x20\n      add\n      data_dafc31c82e8c1246735c704fbbbc212321f9d708db16d4c6b2535806b69475d9\n      0x36\n      swap2\n      codecopy\n        /* \"Chain Paper/CP.sol\":2870:2883  _baseTokenURI */\n      0x08\n        /* \"Chain Paper/CP.sol\":2884:2891  tokenId */\n      dup3\n        /* \"Chain Paper/CP.sol\":2870:2892  _baseTokenURI[tokenId] */\n      dup2\n      sload\n      dup2\n      lt\n      tag_248\n      jumpi\n      mstore(0x00, 0x4e487b7100000000000000000000000000000000000000000000000000000000)\n      mstore(0x04, 0x32)\n      revert(0x00, 0x24)\n    tag_248:\n      swap1\n      0x00\n      mstore\n      keccak256(0x00, 0x20)\n      add\n        /* \"Chain Paper/CP.sol\":2870:2951  _baseTokenURI[tokenId] = \"ipfs://QmcVgEu5CLpGJeZZEvSF3Lj3RUmkwWKUbRLqiTrQcVVU9w/\" */\n      swap1\n      dup1\n      mload\n      swap1\n      0x20\n      add\n      swap1\n      tag_250\n      swap3\n      swap2\n      swap1\n      tag_251\n      jump\t// in\n    tag_250:\n      pop\n        /* \"Chain Paper/CP.sol\":2808:2959  function setBaseURI(uint tokenId)external onlyOwner{\r... */\n      pop\n      jump\t// out\n        /* \"@openzeppelin/contracts/access/Ownable.sol\":1201:1286  function owner() public view virtual returns (address) {... */\n    tag_123:\n        /* \"@openzeppelin/contracts/access/Ownable.sol\":1247:1254  address */\n      0x00\n        /* \"@openzeppelin/contracts/access/Ownable.sol\":1273:1279  _owner */\n      dup1\n      0x00\n      swap1\n      sload\n      swap1\n      0x0100\n      exp\n      swap1\n      div\n      0xffffffffffffffffffffffffffffffffffffffff\n      and\n        /* \"@openzeppelin/contracts/access/Ownable.sol\":1266:1279  return _owner */\n      swap1\n      pop\n        /* \"@openzeppelin/contracts/access/Ownable.sol\":1201:1286  function owner() public view virtual returns (address) {... */\n      swap1\n      jump\t// out\n        /* \"Chain Paper/liberty/ERC721.sol\":424:453  string public override symbol */\n    tag_127:\n      0x02\n      dup1\n      sload\n      tag_253\n      swap1\n      tag_173\n      jump\t// in\n    tag_253:\n      dup1\n      0x1f\n      add\n      0x20\n      dup1\n      swap2\n      div\n      mul\n      0x20\n      add\n      mload(0x40)\n      swap1\n      dup2\n      add\n      0x40\n      mstore\n      dup1\n      swap3\n      swap2\n      swap1\n      dup2\n      dup2\n      mstore\n      0x20\n      add\n      dup3\n      dup1\n      sload\n      tag_254\n      swap1\n      tag_173\n      jump\t// in\n    tag_254:\n      dup1\n      iszero\n      tag_255\n      jumpi\n      dup1\n      0x1f\n      lt\n      tag_256\n      jumpi\n      0x0100\n      dup1\n      dup4\n      sload\n      div\n      mul\n      dup4\n      mstore\n      swap2\n      0x20\n      add\n      swap2\n      jump(tag_255)\n    tag_256:\n      dup3\n      add\n      swap2\n      swap1\n      0x00\n      mstore\n      keccak256(0x00, 0x20)\n      swap1\n    tag_257:\n      dup2\n      sload\n      dup2\n      mstore\n      swap1\n      0x01\n      add\n      swap1\n      0x20\n      add\n      dup1\n      dup4\n      gt\n      tag_257\n      jumpi\n      dup3\n      swap1\n      sub\n      0x1f\n      and\n      dup3\n      add\n      swap2\n    tag_255:\n      pop\n      pop\n      pop\n      pop\n      pop\n      dup2\n      jump\t// out\n        /* \"Chain Paper/CP.sol\":1229:1725  function getPrice()public view returns(uint){\r... */\n    tag_131:\n        /* \"Chain Paper/CP.sol\":1268:1272  uint */\n      0x00\n        /* \"Chain Paper/CP.sol\":1284:1299  uint _startTime */\n      dup1\n        /* \"Chain Paper/CP.sol\":1302:1311  startTime */\n      sload(0x07)\n        /* \"Chain Paper/CP.sol\":1284:1311  uint _startTime = startTime */\n      swap1\n      pop\n        /* \"Chain Paper/CP.sol\":1343:1353  _startTime */\n      dup1\n        /* \"Chain Paper/CP.sol\":1325:1340  block.timestamp */\n      timestamp\n        /* \"Chain Paper/CP.sol\":1325:1353  block.timestamp < _startTime */\n      lt\n        /* \"Chain Paper/CP.sol\":1322:1718  if(block.timestamp < _startTime){\r... */\n      iszero\n      tag_259\n      jumpi\n        /* \"Chain Paper/CP.sol\":264:271  1 ether */\n      0x0de0b6b3a7640000\n        /* \"Chain Paper/CP.sol\":1369:1387  return START_PRICE */\n      swap2\n      pop\n      pop\n      jump(tag_258)\n        /* \"Chain Paper/CP.sol\":1322:1718  if(block.timestamp < _startTime){\r... */\n    tag_259:\n        /* \"Chain Paper/CP.sol\":355:365  10 minutes */\n      0x0258\n        /* \"Chain Paper/CP.sol\":1455:1465  _startTime */\n      dup2\n        /* \"Chain Paper/CP.sol\":1455:1472  _startTime + TIME */\n      tag_261\n      swap2\n      swap1\n      tag_217\n      jump\t// in\n    tag_261:\n        /* \"Chain Paper/CP.sol\":1436:1451  block.timestamp */\n      timestamp\n        /* \"Chain Paper/CP.sol\":1436:1472  block.timestamp >= _startTime + TIME */\n      lt\n        /* \"Chain Paper/CP.sol\":1433:1718  if(block.timestamp >= _startTime + TIME){\r... */\n      tag_262\n      jumpi\n        /* \"Chain Paper/CP.sol\":311:320  0.1 ether */\n      0x016345785d8a0000\n        /* \"Chain Paper/CP.sol\":1488:1504  return END_PRICE */\n      swap2\n      pop\n      pop\n      jump(tag_258)\n        /* \"Chain Paper/CP.sol\":1433:1718  if(block.timestamp >= _startTime + TIME){\r... */\n    tag_262:\n        /* \"Chain Paper/CP.sol\":1562:1572  uint steps */\n      0x00\n        /* \"Chain Paper/CP.sol\":425:434  1 minutes */\n      0x3c\n        /* \"Chain Paper/CP.sol\":1594:1604  _startTime */\n      dup3\n        /* \"Chain Paper/CP.sol\":1576:1591  block.timestamp */\n      timestamp\n        /* \"Chain Paper/CP.sol\":1576:1604  block.timestamp - _startTime */\n      tag_264\n      swap2\n      swap1\n      tag_200\n      jump\t// in\n    tag_264:\n        /* \"Chain Paper/CP.sol\":1575:1620  (block.timestamp - _startTime) /DROP_INTERVAL */\n      tag_265\n      swap2\n      swap1\n      tag_198\n      jump\t// in\n    tag_265:\n        /* \"Chain Paper/CP.sol\":1562:1620  uint steps = (block.timestamp - _startTime) /DROP_INTERVAL */\n      swap1\n      pop\n        /* \"Chain Paper/CP.sol\":425:434  1 minutes */\n      0x3c\n        /* \"Chain Paper/CP.sol\":355:365  10 minutes */\n      0x0258\n        /* \"Chain Paper/CP.sol\":517:535  TIME/DROP_INTERVAL */\n      tag_266\n      swap2\n      swap1\n      tag_198\n      jump\t// in\n    tag_266:\n        /* \"Chain Paper/CP.sol\":311:320  0.1 ether */\n      0x016345785d8a0000\n        /* \"Chain Paper/CP.sol\":264:271  1 ether */\n      0x0de0b6b3a7640000\n        /* \"Chain Paper/CP.sol\":491:514  START_PRICE - END_PRICE */\n      tag_267\n      swap2\n      swap1\n      tag_200\n      jump\t// in\n    tag_267:\n        /* \"Chain Paper/CP.sol\":490:536  (START_PRICE - END_PRICE)/(TIME/DROP_INTERVAL) */\n      tag_268\n      swap2\n      swap1\n      tag_198\n      jump\t// in\n    tag_268:\n        /* \"Chain Paper/CP.sol\":1686:1691  steps */\n      dup2\n        /* \"Chain Paper/CP.sol\":1686:1705  steps*DROP_PER_STEP */\n      tag_269\n      swap2\n      swap1\n      tag_270\n      jump\t// in\n    tag_269:\n        /* \"Chain Paper/CP.sol\":264:271  1 ether */\n      0x0de0b6b3a7640000\n        /* \"Chain Paper/CP.sol\":1672:1705  START_PRICE - steps*DROP_PER_STEP */\n      tag_271\n      swap2\n      swap1\n      tag_200\n      jump\t// in\n    tag_271:\n        /* \"Chain Paper/CP.sol\":1665:1705  return START_PRICE - steps*DROP_PER_STEP */\n      swap3\n      pop\n      pop\n      pop\n        /* \"Chain Paper/CP.sol\":1229:1725  function getPrice()public view returns(uint){\r... */\n    tag_258:\n      swap1\n      jump\t// out\n        /* \"Chain Paper/CP.sol\":2982:3156  function withdrawMoney()external onlyOwner{\r... */\n    tag_135:\n        /* \"@openzeppelin/contracts/access/Ownable.sol\":1094:1107  _checkOwner() */\n      tag_273\n        /* \"@openzeppelin/contracts/access/Ownable.sol\":1094:1105  _checkOwner */\n      tag_204\n        /* \"@openzeppelin/contracts/access/Ownable.sol\":1094:1107  _checkOwner() */\n      jump\t// in\n    tag_273:\n        /* \"Chain Paper/CP.sol\":3036:3048  bool success */\n      0x00\n        /* \"Chain Paper/CP.sol\":3054:3064  msg.sender */\n      caller\n        /* \"Chain Paper/CP.sol\":3054:3069  msg.sender.call */\n      0xffffffffffffffffffffffffffffffffffffffff\n      and\n        /* \"Chain Paper/CP.sol\":3077:3098  address(this).balance */\n      selfbalance\n        /* \"Chain Paper/CP.sol\":3054:3103  msg.sender.call{value: address(this).balance}(\"\") */\n      mload(0x40)\n      tag_275\n      swap1\n      tag_276\n      jump\t// in\n    tag_275:\n      0x00\n      mload(0x40)\n      dup1\n      dup4\n      sub\n      dup2\n      dup6\n      dup8\n      gas\n      call\n      swap3\n      pop\n      pop\n      pop\n      returndatasize\n      dup1\n      0x00\n      dup2\n      eq\n      tag_279\n      jumpi\n      mload(0x40)\n      swap2\n      pop\n      and(add(returndatasize, 0x3f), not(0x1f))\n      dup3\n      add\n      0x40\n      mstore\n      returndatasize\n      dup3\n      mstore\n      returndatasize\n      0x00\n      0x20\n      dup5\n      add\n      returndatacopy\n      jump(tag_278)\n    tag_279:\n      0x60\n      swap2\n      pop\n    tag_278:\n      pop\n        /* \"Chain Paper/CP.sol\":3035:3103  (bool success, ) = msg.sender.call{value: address(this).balance}(\"\") */\n      pop\n      swap1\n      pop\n        /* \"Chain Paper/CP.sol\":3122:3129  success */\n      dup1\n        /* \"Chain Paper/CP.sol\":3114:3148  require(success,\"Transfer failed\") */\n      tag_280\n      jumpi\n      mload(0x40)\n      0x08c379a000000000000000000000000000000000000000000000000000000000\n      dup2\n      mstore\n      0x04\n      add\n      tag_281\n      swap1\n      tag_282\n      jump\t// in\n    tag_281:\n      mload(0x40)\n      dup1\n      swap2\n      sub\n      swap1\n      revert\n    tag_280:\n        /* \"@openzeppelin/contracts/access/Ownable.sol\":1117:1118  _ */\n      pop\n        /* \"Chain Paper/CP.sol\":2982:3156  function withdrawMoney()external onlyOwner{\r... */\n      jump\t// out\n        /* \"Chain Paper/liberty/ERC721.sol\":3651:3947  function safeTransferFrom(address from , address to ,uint tokenId , bytes memory _data)public  override{\r... */\n    tag_140:\n        /* \"Chain Paper/liberty/ERC721.sol\":3765:3778  address owner */\n      0x00\n        /* \"Chain Paper/liberty/ERC721.sol\":3781:3797  ownerOf(tokenId) */\n      tag_284\n        /* \"Chain Paper/liberty/ERC721.sol\":3789:3796  tokenId */\n      dup4\n        /* \"Chain Paper/liberty/ERC721.sol\":3781:3788  ownerOf */\n      tag_102\n        /* \"Chain Paper/liberty/ERC721.sol\":3781:3797  ownerOf(tokenId) */\n      jump\t// in\n    tag_284:\n        /* \"Chain Paper/liberty/ERC721.sol\":3765:3797  address owner = ownerOf(tokenId) */\n      swap1\n      pop\n        /* \"Chain Paper/liberty/ERC721.sol\":3816:3860  _isApprovedOrOwner(owner,msg.sender,tokenId) */\n      tag_285\n        /* \"Chain Paper/liberty/ERC721.sol\":3835:3840  owner */\n      dup2\n        /* \"Chain Paper/liberty/ERC721.sol\":3841:3851  msg.sender */\n      caller\n        /* \"Chain Paper/liberty/ERC721.sol\":3852:3859  tokenId */\n      dup6\n        /* \"Chain Paper/liberty/ERC721.sol\":3816:3834  _isApprovedOrOwner */\n      tag_193\n        /* \"Chain Paper/liberty/ERC721.sol\":3816:3860  _isApprovedOrOwner(owner,msg.sender,tokenId) */\n      jump\t// in\n    tag_285:\n        /* \"Chain Paper/liberty/ERC721.sol\":3808:3886  require(_isApprovedOrOwner(owner,msg.sender,tokenId),\"not owner nor approved\") */\n      tag_286\n      jumpi\n      mload(0x40)\n      0x08c379a000000000000000000000000000000000000000000000000000000000\n      dup2\n      mstore\n      0x04\n      add\n      tag_287\n      swap1\n      tag_288\n      jump\t// in\n    tag_287:\n      mload(0x40)\n      dup1\n      swap2\n      sub\n      swap1\n      revert\n    tag_286:\n        /* \"Chain Paper/liberty/ERC721.sol\":3897:3939  _safeTransfer(owner,from,to,tokenId,_data) */\n      tag_289\n        /* \"Chain Paper/liberty/ERC721.sol\":3911:3916  owner */\n      dup2\n        /* \"Chain Paper/liberty/ERC721.sol\":3917:3921  from */\n      dup7\n        /* \"Chain Paper/liberty/ERC721.sol\":3922:3924  to */\n      dup7\n        /* \"Chain Paper/liberty/ERC721.sol\":3925:3932  tokenId */\n      dup7\n        /* \"Chain Paper/liberty/ERC721.sol\":3933:3938  _data */\n      dup7\n        /* \"Chain Paper/liberty/ERC721.sol\":3897:3910  _safeTransfer */\n      tag_209\n        /* \"Chain Paper/liberty/ERC721.sol\":3897:3939  _safeTransfer(owner,from,to,tokenId,_data) */\n      jump\t// in\n    tag_289:\n        /* \"Chain Paper/liberty/ERC721.sol\":3651:3947  function safeTransferFrom(address from , address to ,uint tokenId , bytes memory _data)public  override{\r... */\n      pop\n      pop\n      pop\n      pop\n      pop\n      jump\t// out\n        /* \"Chain Paper/CP.sol\":327:365  uint public constant TIME = 10 minutes */\n    tag_143:\n        /* \"Chain Paper/CP.sol\":355:365  10 minutes */\n      0x0258\n        /* \"Chain Paper/CP.sol\":327:365  uint public constant TIME = 10 minutes */\n      dup2\n      jump\t// out\n        /* \"Chain Paper/liberty/ERC721.sol\":1631:1836  function approvalForAll(address operator,bool approved)external override{\r... */\n    tag_149:\n        /* \"Chain Paper/liberty/ERC721.sol\":1757:1765  approved */\n      dup1\n        /* \"Chain Paper/liberty/ERC721.sol\":1714:1732  _operatorApprovals */\n      0x06\n        /* \"Chain Paper/liberty/ERC721.sol\":1714:1744  _operatorApprovals[msg.sender] */\n      0x00\n        /* \"Chain Paper/liberty/ERC721.sol\":1733:1743  msg.sender */\n      caller\n        /* \"Chain Paper/liberty/ERC721.sol\":1714:1744  _operatorApprovals[msg.sender] */\n      0xffffffffffffffffffffffffffffffffffffffff\n      and\n      0xffffffffffffffffffffffffffffffffffffffff\n      and\n      dup2\n      mstore\n      0x20\n      add\n      swap1\n      dup2\n      mstore\n      0x20\n      add\n      0x00\n      keccak256\n        /* \"Chain Paper/liberty/ERC721.sol\":1714:1754  _operatorApprovals[msg.sender][operator] */\n      0x00\n        /* \"Chain Paper/liberty/ERC721.sol\":1745:1753  operator */\n      dup5\n        /* \"Chain Paper/liberty/ERC721.sol\":1714:1754  _operatorApprovals[msg.sender][operator] */\n      0xffffffffffffffffffffffffffffffffffffffff\n      and\n      0xffffffffffffffffffffffffffffffffffffffff\n      and\n      dup2\n      mstore\n      0x20\n      add\n      swap1\n      dup2\n      mstore\n      0x20\n      add\n      0x00\n      keccak256\n      0x00\n        /* \"Chain Paper/liberty/ERC721.sol\":1714:1765  _operatorApprovals[msg.sender][operator] = approved */\n      0x0100\n      exp\n      dup2\n      sload\n      dup2\n      0xff\n      mul\n      not\n      and\n      swap1\n      dup4\n      iszero\n      iszero\n      mul\n      or\n      swap1\n      sstore\n      pop\n        /* \"Chain Paper/liberty/ERC721.sol\":1781:1828  ApprovalForALl(msg.sender , operator, approved) */\n      0x6e58f42f8934de1bf5b284476ba8126ee2d334c7aacf1ac87c6d4ebdb6ffb683\n        /* \"Chain Paper/liberty/ERC721.sol\":1796:1806  msg.sender */\n      caller\n        /* \"Chain Paper/liberty/ERC721.sol\":1809:1817  operator */\n      dup4\n        /* \"Chain Paper/liberty/ERC721.sol\":1819:1827  approved */\n      dup4\n        /* \"Chain Paper/liberty/ERC721.sol\":1781:1828  ApprovalForALl(msg.sender , operator, approved) */\n      mload(0x40)\n      tag_291\n      swap4\n      swap3\n      swap2\n      swap1\n      tag_292\n      jump\t// in\n    tag_291:\n      mload(0x40)\n      dup1\n      swap2\n      sub\n      swap1\n      log1\n        /* \"Chain Paper/liberty/ERC721.sol\":1631:1836  function approvalForAll(address operator,bool approved)external override{\r... */\n      pop\n      pop\n      jump\t// out\n        /* \"Chain Paper/liberty/ERC721.sol\":5303:5612  function tokenURI(uint tokenId) public override virtual view returns(string memory){\r... */\n    tag_153:\n        /* \"Chain Paper/liberty/ERC721.sol\":5372:5385  string memory */\n      0x60\n        /* \"Chain Paper/liberty/ERC721.sol\":5433:5434  0 */\n      0x00\n        /* \"Chain Paper/liberty/ERC721.sol\":5405:5435  _owners[tokenId] != address(0) */\n      0xffffffffffffffffffffffffffffffffffffffff\n      and\n        /* \"Chain Paper/liberty/ERC721.sol\":5405:5412  _owners */\n      0x03\n        /* \"Chain Paper/liberty/ERC721.sol\":5405:5421  _owners[tokenId] */\n      0x00\n        /* \"Chain Paper/liberty/ERC721.sol\":5413:5420  tokenId */\n      dup5\n        /* \"Chain Paper/liberty/ERC721.sol\":5405:5421  _owners[tokenId] */\n      dup2\n      mstore\n      0x20\n      add\n      swap1\n      dup2\n      mstore\n      0x20\n      add\n      0x00\n      keccak256\n      0x00\n      swap1\n      sload\n      swap1\n      0x0100\n      exp\n      swap1\n      div\n      0xffffffffffffffffffffffffffffffffffffffff\n      and\n        /* \"Chain Paper/liberty/ERC721.sol\":5405:5435  _owners[tokenId] != address(0) */\n      0xffffffffffffffffffffffffffffffffffffffff\n      and\n      eq\n      iszero\n        /* \"Chain Paper/liberty/ERC721.sol\":5397:5454  require(_owners[tokenId] != address(0),\"Token not exist\") */\n      tag_294\n      jumpi\n      mload(0x40)\n      0x08c379a000000000000000000000000000000000000000000000000000000000\n      dup2\n      mstore\n      0x04\n      add\n      tag_295\n      swap1\n      tag_296\n      jump\t// in\n    tag_295:\n      mload(0x40)\n      dup1\n      swap2\n      sub\n      swap1\n      revert\n    tag_294:\n        /* \"Chain Paper/liberty/ERC721.sol\":5467:5488  string memory baseURI */\n      0x00\n        /* \"Chain Paper/liberty/ERC721.sol\":5491:5501  _baseURI() */\n      tag_297\n        /* \"Chain Paper/liberty/ERC721.sol\":5491:5499  _baseURI */\n      tag_298\n        /* \"Chain Paper/liberty/ERC721.sol\":5491:5501  _baseURI() */\n      jump\t// in\n    tag_297:\n        /* \"Chain Paper/liberty/ERC721.sol\":5467:5501  string memory baseURI = _baseURI() */\n      swap1\n      pop\n        /* \"Chain Paper/liberty/ERC721.sol\":5542:5543  0 */\n      0x00\n        /* \"Chain Paper/liberty/ERC721.sol\":5525:5532  baseURI */\n      dup2\n        /* \"Chain Paper/liberty/ERC721.sol\":5519:5540  bytes(baseURI).length */\n      mload\n        /* \"Chain Paper/liberty/ERC721.sol\":5519:5543  bytes(baseURI).length >0 */\n      gt\n        /* \"Chain Paper/liberty/ERC721.sol\":5519:5602  bytes(baseURI).length >0 ? string(abi.encodePacked(baseURI,tokenId.toString())) :\"\" */\n      tag_299\n      jumpi\n      mload(0x40)\n      dup1\n      0x20\n      add\n      0x40\n      mstore\n      dup1\n      0x00\n      dup2\n      mstore\n      pop\n      jump(tag_300)\n    tag_299:\n        /* \"Chain Paper/liberty/ERC721.sol\":5570:5577  baseURI */\n      dup1\n        /* \"Chain Paper/liberty/ERC721.sol\":5578:5596  tokenId.toString() */\n      tag_301\n        /* \"Chain Paper/liberty/ERC721.sol\":5578:5585  tokenId */\n      dup5\n        /* \"Chain Paper/liberty/ERC721.sol\":5578:5594  tokenId.toString */\n      tag_302\n        /* \"Chain Paper/liberty/ERC721.sol\":5578:5596  tokenId.toString() */\n      jump\t// in\n    tag_301:\n        /* \"Chain Paper/liberty/ERC721.sol\":5553:5597  abi.encodePacked(baseURI,tokenId.toString()) */\n      add(0x20, mload(0x40))\n      tag_303\n      swap3\n      swap2\n      swap1\n      tag_304\n      jump\t// in\n    tag_303:\n      mload(0x40)\n      0x20\n      dup2\n      dup4\n      sub\n      sub\n      dup2\n      mstore\n      swap1\n      0x40\n      mstore\n        /* \"Chain Paper/liberty/ERC721.sol\":5519:5602  bytes(baseURI).length >0 ? string(abi.encodePacked(baseURI,tokenId.toString())) :\"\" */\n    tag_300:\n        /* \"Chain Paper/liberty/ERC721.sol\":5512:5602  return bytes(baseURI).length >0 ? string(abi.encodePacked(baseURI,tokenId.toString())) :\"\" */\n      swap2\n      pop\n      pop\n        /* \"Chain Paper/liberty/ERC721.sol\":5303:5612  function tokenURI(uint tokenId) public override virtual view returns(string memory){\r... */\n      swap2\n      swap1\n      pop\n      jump\t// out\n        /* \"Chain Paper/CP.sol\":278:320  uint public constant END_PRICE = 0.1 ether */\n    tag_157:\n        /* \"Chain Paper/CP.sol\":311:320  0.1 ether */\n      0x016345785d8a0000\n        /* \"Chain Paper/CP.sol\":278:320  uint public constant END_PRICE = 0.1 ether */\n      dup2\n      jump\t// out\n        /* \"Chain Paper/liberty/ERC721.sol\":1469:1623  function isApprovedForAll(address owner,address operator)external view override returns(bool){\r... */\n    tag_163:\n        /* \"Chain Paper/liberty/ERC721.sol\":1557:1561  bool */\n      0x00\n        /* \"Chain Paper/liberty/ERC721.sol\":1580:1598  _operatorApprovals */\n      0x06\n        /* \"Chain Paper/liberty/ERC721.sol\":1580:1605  _operatorApprovals[owner] */\n      0x00\n        /* \"Chain Paper/liberty/ERC721.sol\":1599:1604  owner */\n      dup5\n        /* \"Chain Paper/liberty/ERC721.sol\":1580:1605  _operatorApprovals[owner] */\n      0xffffffffffffffffffffffffffffffffffffffff\n      and\n      0xffffffffffffffffffffffffffffffffffffffff\n      and\n      dup2\n      mstore\n      0x20\n      add\n      swap1\n      dup2\n      mstore\n      0x20\n      add\n      0x00\n      keccak256\n        /* \"Chain Paper/liberty/ERC721.sol\":1580:1615  _operatorApprovals[owner][operator] */\n      0x00\n        /* \"Chain Paper/liberty/ERC721.sol\":1606:1614  operator */\n      dup4\n        /* \"Chain Paper/liberty/ERC721.sol\":1580:1615  _operatorApprovals[owner][operator] */\n      0xffffffffffffffffffffffffffffffffffffffff\n      and\n      0xffffffffffffffffffffffffffffffffffffffff\n      and\n      dup2\n      mstore\n      0x20\n      add\n      swap1\n      dup2\n      mstore\n      0x20\n      add\n      0x00\n      keccak256\n      0x00\n      swap1\n      sload\n      swap1\n      0x0100\n      exp\n      swap1\n      div\n      0xff\n      and\n        /* \"Chain Paper/liberty/ERC721.sol\":1573:1615  return _operatorApprovals[owner][operator] */\n      swap1\n      pop\n        /* \"Chain Paper/liberty/ERC721.sol\":1469:1623  function isApprovedForAll(address owner,address operator)external view override returns(bool){\r... */\n      swap3\n      swap2\n      pop\n      pop\n      jump\t// out\n        /* \"@openzeppelin/contracts/access/Ownable.sol\":2081:2279  function transferOwnership(address newOwner) public virtual onlyOwner {... */\n    tag_168:\n        /* \"@openzeppelin/contracts/access/Ownable.sol\":1094:1107  _checkOwner() */\n      tag_307\n        /* \"@openzeppelin/contracts/access/Ownable.sol\":1094:1105  _checkOwner */\n      tag_204\n        /* \"@openzeppelin/contracts/access/Ownable.sol\":1094:1107  _checkOwner() */\n      jump\t// in\n    tag_307:\n        /* \"@openzeppelin/contracts/access/Ownable.sol\":2189:2190  0 */\n      0x00\n        /* \"@openzeppelin/contracts/access/Ownable.sol\":2169:2191  newOwner != address(0) */\n      0xffffffffffffffffffffffffffffffffffffffff\n      and\n        /* \"@openzeppelin/contracts/access/Ownable.sol\":2169:2177  newOwner */\n      dup2\n        /* \"@openzeppelin/contracts/access/Ownable.sol\":2169:2191  newOwner != address(0) */\n      0xffffffffffffffffffffffffffffffffffffffff\n      and\n      eq\n      iszero\n        /* \"@openzeppelin/contracts/access/Ownable.sol\":2161:2234  require(newOwner != address(0), \"Ownable: new owner is the zero address\") */\n      tag_309\n      jumpi\n      mload(0x40)\n      0x08c379a000000000000000000000000000000000000000000000000000000000\n      dup2\n      mstore\n      0x04\n      add\n      tag_310\n      swap1\n      tag_311\n      jump\t// in\n    tag_310:\n      mload(0x40)\n      dup1\n      swap2\n      sub\n      swap1\n      revert\n    tag_309:\n        /* \"@openzeppelin/contracts/access/Ownable.sol\":2244:2272  _transferOwnership(newOwner) */\n      tag_312\n        /* \"@openzeppelin/contracts/access/Ownable.sol\":2263:2271  newOwner */\n      dup2\n        /* \"@openzeppelin/contracts/access/Ownable.sol\":2244:2262  _transferOwnership */\n      tag_244\n        /* \"@openzeppelin/contracts/access/Ownable.sol\":2244:2272  _transferOwnership(newOwner) */\n      jump\t// in\n    tag_312:\n        /* \"@openzeppelin/contracts/access/Ownable.sol\":2081:2279  function transferOwnership(address newOwner) public virtual onlyOwner {... */\n      pop\n      jump\t// out\n        /* \"Chain Paper/liberty/ERC721.sol\":2047:2202  function _approve(address owner,address to , uint tokenId) private{\r... */\n    tag_188:\n        /* \"Chain Paper/liberty/ERC721.sol\":2151:2153  to */\n      dup2\n        /* \"Chain Paper/liberty/ERC721.sol\":2124:2139  _tokenApprovals */\n      0x05\n        /* \"Chain Paper/liberty/ERC721.sol\":2124:2148  _tokenApprovals[tokenId] */\n      0x00\n        /* \"Chain Paper/liberty/ERC721.sol\":2140:2147  tokenId */\n      dup4\n        /* \"Chain Paper/liberty/ERC721.sol\":2124:2148  _tokenApprovals[tokenId] */\n      dup2\n      mstore\n      0x20\n      add\n      swap1\n      dup2\n      mstore\n      0x20\n      add\n      0x00\n      keccak256\n      0x00\n        /* \"Chain Paper/liberty/ERC721.sol\":2124:2153  _tokenApprovals[tokenId] = to */\n      0x0100\n      exp\n      dup2\n      sload\n      dup2\n      0xffffffffffffffffffffffffffffffffffffffff\n      mul\n      not\n      and\n      swap1\n      dup4\n      0xffffffffffffffffffffffffffffffffffffffff\n      and\n      mul\n      or\n      swap1\n      sstore\n      pop\n        /* \"Chain Paper/liberty/ERC721.sol\":2169:2194  Approve(owner,to,tokenId) */\n      0x6e11fb1b7f119e3f2fa29896ef5fdf8b8a2d0d4df6fe90ba8668e7d8b2ffa25e\n        /* \"Chain Paper/liberty/ERC721.sol\":2177:2182  owner */\n      dup4\n        /* \"Chain Paper/liberty/ERC721.sol\":2183:2185  to */\n      dup4\n        /* \"Chain Paper/liberty/ERC721.sol\":2186:2193  tokenId */\n      dup4\n        /* \"Chain Paper/liberty/ERC721.sol\":2169:2194  Approve(owner,to,tokenId) */\n      mload(0x40)\n      tag_314\n      swap4\n      swap3\n      swap2\n      swap1\n      tag_315\n      jump\t// in\n    tag_314:\n      mload(0x40)\n      dup1\n      swap2\n      sub\n      swap1\n      log1\n        /* \"Chain Paper/liberty/ERC721.sol\":2047:2202  function _approve(address owner,address to , uint tokenId) private{\r... */\n      pop\n      pop\n      pop\n      jump\t// out\n        /* \"Chain Paper/liberty/ERC721.sol\":2482:2735  function _isApprovedOrOwner(address owner , address spender,uint tokenId)private view returns(bool){\r... */\n    tag_193:\n        /* \"Chain Paper/liberty/ERC721.sol\":2576:2580  bool */\n      0x00\n        /* \"Chain Paper/liberty/ERC721.sol\":2611:2616  owner */\n      dup4\n        /* \"Chain Paper/liberty/ERC721.sol\":2600:2616  spender == owner */\n      0xffffffffffffffffffffffffffffffffffffffff\n      and\n        /* \"Chain Paper/liberty/ERC721.sol\":2600:2607  spender */\n      dup4\n        /* \"Chain Paper/liberty/ERC721.sol\":2600:2616  spender == owner */\n      0xffffffffffffffffffffffffffffffffffffffff\n      and\n      eq\n        /* \"Chain Paper/liberty/ERC721.sol\":2600:2672  spender == owner ||\r... */\n      dup1\n      tag_317\n      jumpi\n      pop\n        /* \"Chain Paper/liberty/ERC721.sol\":2665:2672  spender */\n      dup3\n        /* \"Chain Paper/liberty/ERC721.sol\":2637:2672  _tokenApprovals[tokenId] == spender */\n      0xffffffffffffffffffffffffffffffffffffffff\n      and\n        /* \"Chain Paper/liberty/ERC721.sol\":2637:2652  _tokenApprovals */\n      0x05\n        /* \"Chain Paper/liberty/ERC721.sol\":2637:2661  _tokenApprovals[tokenId] */\n      0x00\n        /* \"Chain Paper/liberty/ERC721.sol\":2653:2660  tokenId */\n      dup5\n        /* \"Chain Paper/liberty/ERC721.sol\":2637:2661  _tokenApprovals[tokenId] */\n      dup2\n      mstore\n      0x20\n      add\n      swap1\n      dup2\n      mstore\n      0x20\n      add\n      0x00\n      keccak256\n      0x00\n      swap1\n      sload\n      swap1\n      0x0100\n      exp\n      swap1\n      div\n      0xffffffffffffffffffffffffffffffffffffffff\n      and\n        /* \"Chain Paper/liberty/ERC721.sol\":2637:2672  _tokenApprovals[tokenId] == spender */\n      0xffffffffffffffffffffffffffffffffffffffff\n      and\n      eq\n        /* \"Chain Paper/liberty/ERC721.sol\":2600:2672  spender == owner ||\r... */\n    tag_317:\n        /* \"Chain Paper/liberty/ERC721.sol\":2600:2727  spender == owner ||\r... */\n      dup1\n      tag_318\n      jumpi\n      pop\n        /* \"Chain Paper/liberty/ERC721.sol\":2693:2711  _operatorApprovals */\n      0x06\n        /* \"Chain Paper/liberty/ERC721.sol\":2693:2718  _operatorApprovals[owner] */\n      0x00\n        /* \"Chain Paper/liberty/ERC721.sol\":2712:2717  owner */\n      dup6\n        /* \"Chain Paper/liberty/ERC721.sol\":2693:2718  _operatorApprovals[owner] */\n      0xffffffffffffffffffffffffffffffffffffffff\n      and\n      0xffffffffffffffffffffffffffffffffffffffff\n      and\n      dup2\n      mstore\n      0x20\n      add\n      swap1\n      dup2\n      mstore\n      0x20\n      add\n      0x00\n      keccak256\n        /* \"Chain Paper/liberty/ERC721.sol\":2693:2727  _operatorApprovals[owner][spender] */\n      0x00\n        /* \"Chain Paper/liberty/ERC721.sol\":2719:2726  spender */\n      dup5\n        /* \"Chain Paper/liberty/ERC721.sol\":2693:2727  _operatorApprovals[owner][spender] */\n      0xffffffffffffffffffffffffffffffffffffffff\n      and\n      0xffffffffffffffffffffffffffffffffffffffff\n      and\n      dup2\n      mstore\n      0x20\n      add\n      swap1\n      dup2\n      mstore\n      0x20\n      add\n      0x00\n      keccak256\n      0x00\n      swap1\n      sload\n      swap1\n      0x0100\n      exp\n      swap1\n      div\n      0xff\n      and\n        /* \"Chain Paper/liberty/ERC721.sol\":2600:2727  spender == owner ||\r... */\n    tag_318:\n        /* \"Chain Paper/liberty/ERC721.sol\":2592:2727  return  spender == owner ||\r... */\n      swap1\n      pop\n        /* \"Chain Paper/liberty/ERC721.sol\":2482:2735  function _isApprovedOrOwner(address owner , address spender,uint tokenId)private view returns(bool){\r... */\n      swap4\n      swap3\n      pop\n      pop\n      pop\n      jump\t// out\n        /* \"Chain Paper/liberty/ERC721.sol\":2743:3135  function _transfer(address owner,address from , address to , uint tokenId)private {\r... */\n    tag_196:\n        /* \"Chain Paper/liberty/ERC721.sol\":2852:2857  owner */\n      dup4\n        /* \"Chain Paper/liberty/ERC721.sol\":2844:2857  from == owner */\n      0xffffffffffffffffffffffffffffffffffffffff\n      and\n        /* \"Chain Paper/liberty/ERC721.sol\":2844:2848  from */\n      dup4\n        /* \"Chain Paper/liberty/ERC721.sol\":2844:2857  from == owner */\n      0xffffffffffffffffffffffffffffffffffffffff\n      and\n      eq\n        /* \"Chain Paper/liberty/ERC721.sol\":2836:2870  require(from == owner,\"not owner\") */\n      tag_320\n      jumpi\n      mload(0x40)\n      0x08c379a000000000000000000000000000000000000000000000000000000000\n      dup2\n      mstore\n      0x04\n      add\n      tag_321\n      swap1\n      tag_322\n      jump\t// in\n    tag_321:\n      mload(0x40)\n      dup1\n      swap2\n      sub\n      swap1\n      revert\n    tag_320:\n        /* \"Chain Paper/liberty/ERC721.sol\":2903:2904  0 */\n      0x00\n        /* \"Chain Paper/liberty/ERC721.sol\":2889:2905  to != address(0) */\n      0xffffffffffffffffffffffffffffffffffffffff\n      and\n        /* \"Chain Paper/liberty/ERC721.sol\":2889:2891  to */\n      dup3\n        /* \"Chain Paper/liberty/ERC721.sol\":2889:2905  to != address(0) */\n      0xffffffffffffffffffffffffffffffffffffffff\n      and\n      eq\n      iszero\n        /* \"Chain Paper/liberty/ERC721.sol\":2881:2924  require(to != address(0),\"to is 0 address\") */\n      tag_323\n      jumpi\n      mload(0x40)\n      0x08c379a000000000000000000000000000000000000000000000000000000000\n      dup2\n      mstore\n      0x04\n      add\n      tag_324\n      swap1\n      tag_325\n      jump\t// in\n    tag_324:\n      mload(0x40)\n      dup1\n      swap2\n      sub\n      swap1\n      revert\n    tag_323:\n        /* \"Chain Paper/liberty/ERC721.sol\":2937:2973  _approve(owner, address(0), tokenId) */\n      tag_326\n        /* \"Chain Paper/liberty/ERC721.sol\":2946:2951  owner */\n      dup5\n        /* \"Chain Paper/liberty/ERC721.sol\":2961:2962  0 */\n      0x00\n        /* \"Chain Paper/liberty/ERC721.sol\":2965:2972  tokenId */\n      dup4\n        /* \"Chain Paper/liberty/ERC721.sol\":2937:2945  _approve */\n      tag_188\n        /* \"Chain Paper/liberty/ERC721.sol\":2937:2973  _approve(owner, address(0), tokenId) */\n      jump\t// in\n    tag_326:\n        /* \"Chain Paper/liberty/ERC721.sol\":3020:3021  1 */\n      0x01\n        /* \"Chain Paper/liberty/ERC721.sol\":3002:3011  _balances */\n      0x04\n        /* \"Chain Paper/liberty/ERC721.sol\":3002:3017  _balances[from] */\n      0x00\n        /* \"Chain Paper/liberty/ERC721.sol\":3012:3016  from */\n      dup6\n        /* \"Chain Paper/liberty/ERC721.sol\":3002:3017  _balances[from] */\n      0xffffffffffffffffffffffffffffffffffffffff\n      and\n      0xffffffffffffffffffffffffffffffffffffffff\n      and\n      dup2\n      mstore\n      0x20\n      add\n      swap1\n      dup2\n      mstore\n      0x20\n      add\n      0x00\n      keccak256\n      0x00\n        /* \"Chain Paper/liberty/ERC721.sol\":3002:3021  _balances[from] -=1 */\n      dup3\n      dup3\n      sload\n      tag_327\n      swap2\n      swap1\n      tag_200\n      jump\t// in\n    tag_327:\n      swap3\n      pop\n      pop\n      dup2\n      swap1\n      sstore\n      pop\n        /* \"Chain Paper/liberty/ERC721.sol\":3048:3049  1 */\n      0x01\n        /* \"Chain Paper/liberty/ERC721.sol\":3032:3041  _balances */\n      0x04\n        /* \"Chain Paper/liberty/ERC721.sol\":3032:3045  _balances[to] */\n      0x00\n        /* \"Chain Paper/liberty/ERC721.sol\":3042:3044  to */\n      dup5\n        /* \"Chain Paper/liberty/ERC721.sol\":3032:3045  _balances[to] */\n      0xffffffffffffffffffffffffffffffffffffffff\n      and\n      0xffffffffffffffffffffffffffffffffffffffff\n      and\n      dup2\n      mstore\n      0x20\n      add\n      swap1\n      dup2\n      mstore\n      0x20\n      add\n      0x00\n      keccak256\n      0x00\n        /* \"Chain Paper/liberty/ERC721.sol\":3032:3049  _balances[to] +=1 */\n      dup3\n      dup3\n      sload\n      tag_328\n      swap2\n      swap1\n      tag_217\n      jump\t// in\n    tag_328:\n      swap3\n      pop\n      pop\n      dup2\n      swap1\n      sstore\n      pop\n        /* \"Chain Paper/liberty/ERC721.sol\":3079:3081  to */\n      dup2\n        /* \"Chain Paper/liberty/ERC721.sol\":3060:3067  _owners */\n      0x03\n        /* \"Chain Paper/liberty/ERC721.sol\":3060:3076  _owners[tokenId] */\n      0x00\n        /* \"Chain Paper/liberty/ERC721.sol\":3068:3075  tokenId */\n      dup4\n        /* \"Chain Paper/liberty/ERC721.sol\":3060:3076  _owners[tokenId] */\n      dup2\n      mstore\n      0x20\n      add\n      swap1\n      dup2\n      mstore\n      0x20\n      add\n      0x00\n      keccak256\n      0x00\n        /* \"Chain Paper/liberty/ERC721.sol\":3060:3081  _owners[tokenId] = to */\n      0x0100\n      exp\n      dup2\n      sload\n      dup2\n      0xffffffffffffffffffffffffffffffffffffffff\n      mul\n      not\n      and\n      swap1\n      dup4\n      0xffffffffffffffffffffffffffffffffffffffff\n      and\n      mul\n      or\n      swap1\n      sstore\n      pop\n        /* \"Chain Paper/liberty/ERC721.sol\":3099:3127  Transfer(from , to ,tokenId) */\n      0xddf252ad1be2c89b69c2b068fc378daa952ba7f163c4a11628f55a4df523b3ef\n        /* \"Chain Paper/liberty/ERC721.sol\":3108:3112  from */\n      dup4\n        /* \"Chain Paper/liberty/ERC721.sol\":3115:3117  to */\n      dup4\n        /* \"Chain Paper/liberty/ERC721.sol\":3119:3126  tokenId */\n      dup4\n        /* \"Chain Paper/liberty/ERC721.sol\":3099:3127  Transfer(from , to ,tokenId) */\n      mload(0x40)\n      tag_329\n      swap4\n      swap3\n      swap2\n      swap1\n      tag_315\n      jump\t// in\n    tag_329:\n      mload(0x40)\n      dup1\n      swap2\n      sub\n      swap1\n      log1\n        /* \"Chain Paper/liberty/ERC721.sol\":2743:3135  function _transfer(address owner,address from , address to , uint tokenId)private {\r... */\n      pop\n      pop\n      pop\n      pop\n      jump\t// out\n        /* \"@openzeppelin/contracts/access/Ownable.sol\":1359:1489  function _checkOwner() internal view virtual {... */\n    tag_204:\n        /* \"@openzeppelin/contracts/access/Ownable.sol\":1433:1445  _msgSender() */\n      tag_331\n        /* \"@openzeppelin/contracts/access/Ownable.sol\":1433:1443  _msgSender */\n      tag_332\n        /* \"@openzeppelin/contracts/access/Ownable.sol\":1433:1445  _msgSender() */\n      jump\t// in\n    tag_331:\n        /* \"@openzeppelin/contracts/access/Ownable.sol\":1422:1445  owner() == _msgSender() */\n      0xffffffffffffffffffffffffffffffffffffffff\n      and\n        /* \"@openzeppelin/contracts/access/Ownable.sol\":1422:1429  owner() */\n      tag_333\n        /* \"@openzeppelin/contracts/access/Ownable.sol\":1422:1427  owner */\n      tag_123\n        /* \"@openzeppelin/contracts/access/Ownable.sol\":1422:1429  owner() */\n      jump\t// in\n    tag_333:\n        /* \"@openzeppelin/contracts/access/Ownable.sol\":1422:1445  owner() == _msgSender() */\n      0xffffffffffffffffffffffffffffffffffffffff\n      and\n      eq\n        /* \"@openzeppelin/contracts/access/Ownable.sol\":1414:1482  require(owner() == _msgSender(), \"Ownable: caller is not the owner\") */\n      tag_334\n      jumpi\n      mload(0x40)\n      0x08c379a000000000000000000000000000000000000000000000000000000000\n      dup2\n      mstore\n      0x04\n      add\n      tag_335\n      swap1\n      tag_336\n      jump\t// in\n    tag_335:\n      mload(0x40)\n      dup1\n      swap2\n      sub\n      swap1\n      revert\n    tag_334:\n        /* \"@openzeppelin/contracts/access/Ownable.sol\":1359:1489  function _checkOwner() internal view virtual {... */\n      jump\t// out\n        /* \"Chain Paper/liberty/ERC721.sol\":3398:3643  function _safeTransfer(address owner,address from, address to ,uint tokenId , bytes memory _data) private{\r... */\n    tag_209:\n        /* \"Chain Paper/liberty/ERC721.sol\":3514:3549  _transfer(owner,from , to ,tokenId) */\n      tag_338\n        /* \"Chain Paper/liberty/ERC721.sol\":3524:3529  owner */\n      dup6\n        /* \"Chain Paper/liberty/ERC721.sol\":3530:3534  from */\n      dup6\n        /* \"Chain Paper/liberty/ERC721.sol\":3537:3539  to */\n      dup6\n        /* \"Chain Paper/liberty/ERC721.sol\":3541:3548  tokenId */\n      dup6\n        /* \"Chain Paper/liberty/ERC721.sol\":3514:3523  _transfer */\n      tag_196\n        /* \"Chain Paper/liberty/ERC721.sol\":3514:3549  _transfer(owner,from , to ,tokenId) */\n      jump\t// in\n    tag_338:\n        /* \"Chain Paper/liberty/ERC721.sol\":3568:3613  _checkOnERC721Received(from,to,tokenId,_data) */\n      tag_339\n        /* \"Chain Paper/liberty/ERC721.sol\":3591:3595  from */\n      dup5\n        /* \"Chain Paper/liberty/ERC721.sol\":3596:3598  to */\n      dup5\n        /* \"Chain Paper/liberty/ERC721.sol\":3599:3606  tokenId */\n      dup5\n        /* \"Chain Paper/liberty/ERC721.sol\":3607:3612  _data */\n      dup5\n        /* \"Chain Paper/liberty/ERC721.sol\":3568:3590  _checkOnERC721Received */\n      tag_340\n        /* \"Chain Paper/liberty/ERC721.sol\":3568:3613  _checkOnERC721Received(from,to,tokenId,_data) */\n      jump\t// in\n    tag_339:\n        /* \"Chain Paper/liberty/ERC721.sol\":3560:3635  require(_checkOnERC721Received(from,to,tokenId,_data),\"not ERC721Receiver\") */\n      tag_341\n      jumpi\n      mload(0x40)\n      0x08c379a000000000000000000000000000000000000000000000000000000000\n      dup2\n      mstore\n      0x04\n      add\n      tag_342\n      swap1\n      tag_343\n      jump\t// in\n    tag_342:\n      mload(0x40)\n      dup1\n      swap2\n      sub\n      swap1\n      revert\n    tag_341:\n        /* \"Chain Paper/liberty/ERC721.sol\":3398:3643  function _safeTransfer(address owner,address from, address to ,uint tokenId , bytes memory _data) private{\r... */\n      pop\n      pop\n      pop\n      pop\n      pop\n      jump\t// out\n        /* \"Chain Paper/liberty/ERC721.sol\":4148:4457  function _mint(address to ,uint tokenId)internal virtual {\r... */\n    tag_226:\n        /* \"Chain Paper/liberty/ERC721.sol\":4238:4239  0 */\n      0x00\n        /* \"Chain Paper/liberty/ERC721.sol\":4224:4240  to != address(0) */\n      0xffffffffffffffffffffffffffffffffffffffff\n      and\n        /* \"Chain Paper/liberty/ERC721.sol\":4224:4226  to */\n      dup3\n        /* \"Chain Paper/liberty/ERC721.sol\":4224:4240  to != address(0) */\n      0xffffffffffffffffffffffffffffffffffffffff\n      and\n      eq\n      iszero\n        /* \"Chain Paper/liberty/ERC721.sol\":4216:4259  require(to != address(0),\"to is 0 address\") */\n      tag_345\n      jumpi\n      mload(0x40)\n      0x08c379a000000000000000000000000000000000000000000000000000000000\n      dup2\n      mstore\n      0x04\n      add\n      tag_346\n      swap1\n      tag_325\n      jump\t// in\n    tag_346:\n      mload(0x40)\n      dup1\n      swap2\n      sub\n      swap1\n      revert\n    tag_345:\n        /* \"Chain Paper/liberty/ERC721.sol\":4306:4307  0 */\n      0x00\n        /* \"Chain Paper/liberty/ERC721.sol\":4278:4308  _owners[tokenId] == address(0) */\n      0xffffffffffffffffffffffffffffffffffffffff\n      and\n        /* \"Chain Paper/liberty/ERC721.sol\":4278:4285  _owners */\n      0x03\n        /* \"Chain Paper/liberty/ERC721.sol\":4278:4294  _owners[tokenId] */\n      0x00\n        /* \"Chain Paper/liberty/ERC721.sol\":4286:4293  tokenId */\n      dup4\n        /* \"Chain Paper/liberty/ERC721.sol\":4278:4294  _owners[tokenId] */\n      dup2\n      mstore\n      0x20\n      add\n      swap1\n      dup2\n      mstore\n      0x20\n      add\n      0x00\n      keccak256\n      0x00\n      swap1\n      sload\n      swap1\n      0x0100\n      exp\n      swap1\n      div\n      0xffffffffffffffffffffffffffffffffffffffff\n      and\n        /* \"Chain Paper/liberty/ERC721.sol\":4278:4308  _owners[tokenId] == address(0) */\n      0xffffffffffffffffffffffffffffffffffffffff\n      and\n      eq\n        /* \"Chain Paper/liberty/ERC721.sol\":4270:4332  require(_owners[tokenId] == address(0),\"token already minted\") */\n      tag_347\n      jumpi\n      mload(0x40)\n      0x08c379a000000000000000000000000000000000000000000000000000000000\n      dup2\n      mstore\n      0x04\n      add\n      tag_348\n      swap1\n      tag_349\n      jump\t// in\n    tag_348:\n      mload(0x40)\n      dup1\n      swap2\n      sub\n      swap1\n      revert\n    tag_347:\n        /* \"Chain Paper/liberty/ERC721.sol\":4359:4360  1 */\n      0x01\n        /* \"Chain Paper/liberty/ERC721.sol\":4343:4352  _balances */\n      0x04\n        /* \"Chain Paper/liberty/ERC721.sol\":4343:4356  _balances[to] */\n      0x00\n        /* \"Chain Paper/liberty/ERC721.sol\":4353:4355  to */\n      dup5\n        /* \"Chain Paper/liberty/ERC721.sol\":4343:4356  _balances[to] */\n      0xffffffffffffffffffffffffffffffffffffffff\n      and\n      0xffffffffffffffffffffffffffffffffffffffff\n      and\n      dup2\n      mstore\n      0x20\n      add\n      swap1\n      dup2\n      mstore\n      0x20\n      add\n      0x00\n      keccak256\n      0x00\n        /* \"Chain Paper/liberty/ERC721.sol\":4343:4360  _balances[to] +=1 */\n      dup3\n      dup3\n      sload\n      tag_350\n      swap2\n      swap1\n      tag_217\n      jump\t// in\n    tag_350:\n      swap3\n      pop\n      pop\n      dup2\n      swap1\n      sstore\n      pop\n        /* \"Chain Paper/liberty/ERC721.sol\":4390:4392  to */\n      dup2\n        /* \"Chain Paper/liberty/ERC721.sol\":4371:4378  _owners */\n      0x03\n        /* \"Chain Paper/liberty/ERC721.sol\":4371:4387  _owners[tokenId] */\n      0x00\n        /* \"Chain Paper/liberty/ERC721.sol\":4379:4386  tokenId */\n      dup4\n        /* \"Chain Paper/liberty/ERC721.sol\":4371:4387  _owners[tokenId] */\n      dup2\n      mstore\n      0x20\n      add\n      swap1\n      dup2\n      mstore\n      0x20\n      add\n      0x00\n      keccak256\n      0x00\n        /* \"Chain Paper/liberty/ERC721.sol\":4371:4392  _owners[tokenId] = to */\n      0x0100\n      exp\n      dup2\n      sload\n      dup2\n      0xffffffffffffffffffffffffffffffffffffffff\n      mul\n      not\n      and\n      swap1\n      dup4\n      0xffffffffffffffffffffffffffffffffffffffff\n      and\n      mul\n      or\n      swap1\n      sstore\n      pop\n        /* \"Chain Paper/liberty/ERC721.sol\":4418:4449  Transfer(address(0),to,tokenId) */\n      0xddf252ad1be2c89b69c2b068fc378daa952ba7f163c4a11628f55a4df523b3ef\n        /* \"Chain Paper/liberty/ERC721.sol\":4435:4436  0 */\n      0x00\n        /* \"Chain Paper/liberty/ERC721.sol\":4438:4440  to */\n      dup4\n        /* \"Chain Paper/liberty/ERC721.sol\":4441:4448  tokenId */\n      dup4\n        /* \"Chain Paper/liberty/ERC721.sol\":4418:4449  Transfer(address(0),to,tokenId) */\n      mload(0x40)\n      tag_351\n      swap4\n      swap3\n      swap2\n      swap1\n      tag_315\n      jump\t// in\n    tag_351:\n      mload(0x40)\n      dup1\n      swap2\n      sub\n      swap1\n      log1\n        /* \"Chain Paper/liberty/ERC721.sol\":4148:4457  function _mint(address to ,uint tokenId)internal virtual {\r... */\n      pop\n      pop\n      jump\t// out\n        /* \"Chain Paper/CP.sol\":1085:1189  function _addTokenToAllTokensEnumeration(uint tokenId)private{\r... */\n    tag_228:\n        /* \"Chain Paper/CP.sol\":1157:1167  _allTokens */\n      0x09\n        /* \"Chain Paper/CP.sol\":1173:1180  tokenId */\n      dup2\n        /* \"Chain Paper/CP.sol\":1157:1181  _allTokens.push(tokenId) */\n      swap1\n      dup1\n      0x01\n      dup2\n      sload\n      add\n      dup1\n      dup3\n      sstore\n      dup1\n      swap2\n      pop\n      pop\n      0x01\n      swap1\n      sub\n      swap1\n      0x00\n      mstore\n      keccak256(0x00, 0x20)\n      add\n      0x00\n      swap1\n      swap2\n      swap1\n      swap2\n      swap1\n      swap2\n      pop\n      sstore\n        /* \"Chain Paper/CP.sol\":1085:1189  function _addTokenToAllTokensEnumeration(uint tokenId)private{\r... */\n      pop\n      jump\t// out\n        /* \"@openzeppelin/contracts/access/Ownable.sol\":2433:2620  function _transferOwnership(address newOwner) internal virtual {... */\n    tag_244:\n        /* \"@openzeppelin/contracts/access/Ownable.sol\":2506:2522  address oldOwner */\n      0x00\n        /* \"@openzeppelin/contracts/access/Ownable.sol\":2525:2531  _owner */\n      dup1\n      0x00\n      swap1\n      sload\n      swap1\n      0x0100\n      exp\n      swap1\n      div\n      0xffffffffffffffffffffffffffffffffffffffff\n      and\n        /* \"@openzeppelin/contracts/access/Ownable.sol\":2506:2531  address oldOwner = _owner */\n      swap1\n      pop\n        /* \"@openzeppelin/contracts/access/Ownable.sol\":2550:2558  newOwner */\n      dup2\n        /* \"@openzeppelin/contracts/access/Ownable.sol\":2541:2547  _owner */\n      0x00\n      dup1\n        /* \"@openzeppelin/contracts/access/Ownable.sol\":2541:2558  _owner = newOwner */\n      0x0100\n      exp\n      dup2\n      sload\n      dup2\n      0xffffffffffffffffffffffffffffffffffffffff\n      mul\n      not\n      and\n      swap1\n      dup4\n      0xffffffffffffffffffffffffffffffffffffffff\n      and\n      mul\n      or\n      swap1\n      sstore\n      pop\n        /* \"@openzeppelin/contracts/access/Ownable.sol\":2604:2612  newOwner */\n      dup2\n        /* \"@openzeppelin/contracts/access/Ownable.sol\":2573:2613  OwnershipTransferred(oldOwner, newOwner) */\n      0xffffffffffffffffffffffffffffffffffffffff\n      and\n        /* \"@openzeppelin/contracts/access/Ownable.sol\":2594:2602  oldOwner */\n      dup2\n        /* \"@openzeppelin/contracts/access/Ownable.sol\":2573:2613  OwnershipTransferred(oldOwner, newOwner) */\n      0xffffffffffffffffffffffffffffffffffffffff\n      and\n      0x8be0079c531659141344cd1fd0a4f28419497f9722a3daafe3b4186f6b6457e0\n      mload(0x40)\n      mload(0x40)\n      dup1\n      swap2\n      sub\n      swap1\n      log3\n        /* \"@openzeppelin/contracts/access/Ownable.sol\":2433:2620  function _transferOwnership(address newOwner) internal virtual {... */\n      pop\n      pop\n      jump\t// out\n        /* \"Chain Paper/CP.sol\":2608:2800  function _baseURI() internal view virtual override returns(string memory){\r... */\n    tag_298:\n        /* \"Chain Paper/CP.sol\":2667:2680  string memory */\n      0x60\n        /* \"Chain Paper/CP.sol\":2776:2789  _baseTokenURI */\n      0x08\n        /* \"Chain Paper/CP.sol\":2790:2791  0 */\n      0x00\n        /* \"Chain Paper/CP.sol\":2776:2792  _baseTokenURI[0] */\n      dup2\n      sload\n      dup2\n      lt\n      tag_356\n      jumpi\n      mstore(0x00, 0x4e487b7100000000000000000000000000000000000000000000000000000000)\n      mstore(0x04, 0x32)\n      revert(0x00, 0x24)\n    tag_356:\n      swap1\n      0x00\n      mstore\n      keccak256(0x00, 0x20)\n      add\n        /* \"Chain Paper/CP.sol\":2769:2792  return _baseTokenURI[0] */\n      dup1\n      sload\n      tag_358\n      swap1\n      tag_173\n      jump\t// in\n    tag_358:\n      dup1\n      0x1f\n      add\n      0x20\n      dup1\n      swap2\n      div\n      mul\n      0x20\n      add\n      mload(0x40)\n      swap1\n      dup2\n      add\n      0x40\n      mstore\n      dup1\n      swap3\n      swap2\n      swap1\n      dup2\n      dup2\n      mstore\n      0x20\n      add\n      dup3\n      dup1\n      sload\n      tag_359\n      swap1\n      tag_173\n      jump\t// in\n    tag_359:\n      dup1\n      iszero\n      tag_360\n      jumpi\n      dup1\n      0x1f\n      lt\n      tag_361\n      jumpi\n      0x0100\n      dup1\n      dup4\n      sload\n      div\n      mul\n      dup4\n      mstore\n      swap2\n      0x20\n      add\n      swap2\n      jump(tag_360)\n    tag_361:\n      dup3\n      add\n      swap2\n      swap1\n      0x00\n      mstore\n      keccak256(0x00, 0x20)\n      swap1\n    tag_362:\n      dup2\n      sload\n      dup2\n      mstore\n      swap1\n      0x01\n      add\n      swap1\n      0x20\n      add\n      dup1\n      dup4\n      gt\n      tag_362\n      jumpi\n      dup3\n      swap1\n      sub\n      0x1f\n      and\n      dup3\n      add\n      swap2\n    tag_360:\n      pop\n      pop\n      pop\n      pop\n      pop\n      swap1\n      pop\n        /* \"Chain Paper/CP.sol\":2608:2800  function _baseURI() internal view virtual override returns(string memory){\r... */\n      swap1\n      jump\t// out\n        /* \"Chain Paper/other/Strings.sol\":407:1130  function toString(uint256 value) internal pure returns (string memory) {\r... */\n    tag_302:\n        /* \"Chain Paper/other/Strings.sol\":463:476  string memory */\n      0x60\n        /* \"Chain Paper/other/Strings.sol\":693:694  0 */\n      0x00\n        /* \"Chain Paper/other/Strings.sol\":684:689  value */\n      dup3\n        /* \"Chain Paper/other/Strings.sol\":684:694  value == 0 */\n      eq\n        /* \"Chain Paper/other/Strings.sol\":680:733  if (value == 0) {\r... */\n      iszero\n      tag_364\n      jumpi\n        /* \"Chain Paper/other/Strings.sol\":711:721  return \"0\" */\n      mload(0x40)\n      dup1\n      0x40\n      add\n      0x40\n      mstore\n      dup1\n      0x01\n      dup2\n      mstore\n      0x20\n      add\n      0x3000000000000000000000000000000000000000000000000000000000000000\n      dup2\n      mstore\n      pop\n      swap1\n      pop\n      jump(tag_363)\n        /* \"Chain Paper/other/Strings.sol\":680:733  if (value == 0) {\r... */\n    tag_364:\n        /* \"Chain Paper/other/Strings.sol\":743:755  uint256 temp */\n      0x00\n        /* \"Chain Paper/other/Strings.sol\":758:763  value */\n      dup3\n        /* \"Chain Paper/other/Strings.sol\":743:763  uint256 temp = value */\n      swap1\n      pop\n        /* \"Chain Paper/other/Strings.sol\":774:788  uint256 digits */\n      0x00\n        /* \"Chain Paper/other/Strings.sol\":799:877  while (temp != 0) {\r... */\n    tag_365:\n        /* \"Chain Paper/other/Strings.sol\":814:815  0 */\n      0x00\n        /* \"Chain Paper/other/Strings.sol\":806:810  temp */\n      dup3\n        /* \"Chain Paper/other/Strings.sol\":806:815  temp != 0 */\n      eq\n        /* \"Chain Paper/other/Strings.sol\":799:877  while (temp != 0) {\r... */\n      tag_366\n      jumpi\n        /* \"Chain Paper/other/Strings.sol\":832:840  digits++ */\n      dup1\n      dup1\n      tag_367\n      swap1\n      tag_368\n      jump\t// in\n    tag_367:\n      swap2\n      pop\n      pop\n        /* \"Chain Paper/other/Strings.sol\":863:865  10 */\n      0x0a\n        /* \"Chain Paper/other/Strings.sol\":855:865  temp /= 10 */\n      dup3\n      tag_369\n      swap2\n      swap1\n      tag_198\n      jump\t// in\n    tag_369:\n      swap2\n      pop\n        /* \"Chain Paper/other/Strings.sol\":799:877  while (temp != 0) {\r... */\n      jump(tag_365)\n    tag_366:\n        /* \"Chain Paper/other/Strings.sol\":887:906  bytes memory buffer */\n      0x00\n        /* \"Chain Paper/other/Strings.sol\":919:925  digits */\n      dup2\n        /* \"Chain Paper/other/Strings.sol\":909:926  new bytes(digits) */\n      0xffffffffffffffff\n      dup2\n      gt\n      iszero\n      tag_370\n      jumpi\n      mstore(0x00, 0x4e487b7100000000000000000000000000000000000000000000000000000000)\n      mstore(0x04, 0x41)\n      revert(0x00, 0x24)\n    tag_370:\n      mload(0x40)\n      swap1\n      dup1\n      dup3\n      mstore\n      dup1\n      0x1f\n      add\n      not(0x1f)\n      and\n      0x20\n      add\n      dup3\n      add\n      0x40\n      mstore\n      dup1\n      iszero\n      tag_371\n      jumpi\n      dup2\n      0x20\n      add\n      0x01\n      dup3\n      mul\n      dup1\n      calldatasize\n      dup4\n      calldatacopy\n      dup1\n      dup3\n      add\n      swap2\n      pop\n      pop\n      swap1\n      pop\n    tag_371:\n      pop\n        /* \"Chain Paper/other/Strings.sol\":887:926  bytes memory buffer = new bytes(digits) */\n      swap1\n      pop\n        /* \"Chain Paper/other/Strings.sol\":937:1091  while (value != 0) {\r... */\n    tag_372:\n        /* \"Chain Paper/other/Strings.sol\":953:954  0 */\n      0x00\n        /* \"Chain Paper/other/Strings.sol\":944:949  value */\n      dup6\n        /* \"Chain Paper/other/Strings.sol\":944:954  value != 0 */\n      eq\n        /* \"Chain Paper/other/Strings.sol\":937:1091  while (value != 0) {\r... */\n      tag_373\n      jumpi\n        /* \"Chain Paper/other/Strings.sol\":981:982  1 */\n      0x01\n        /* \"Chain Paper/other/Strings.sol\":971:982  digits -= 1 */\n      dup3\n      tag_374\n      swap2\n      swap1\n      tag_200\n      jump\t// in\n    tag_374:\n      swap2\n      pop\n        /* \"Chain Paper/other/Strings.sol\":1048:1050  10 */\n      0x0a\n        /* \"Chain Paper/other/Strings.sol\":1040:1045  value */\n      dup6\n        /* \"Chain Paper/other/Strings.sol\":1040:1050  value % 10 */\n      tag_375\n      swap2\n      swap1\n      tag_376\n      jump\t// in\n    tag_375:\n        /* \"Chain Paper/other/Strings.sol\":1027:1029  48 */\n      0x30\n        /* \"Chain Paper/other/Strings.sol\":1027:1051  48 + uint256(value % 10) */\n      tag_377\n      swap2\n      swap1\n      tag_217\n      jump\t// in\n    tag_377:\n        /* \"Chain Paper/other/Strings.sol\":1014:1053  bytes1(uint8(48 + uint256(value % 10))) */\n      0xf8\n      shl\n        /* \"Chain Paper/other/Strings.sol\":997:1003  buffer */\n      dup2\n        /* \"Chain Paper/other/Strings.sol\":1004:1010  digits */\n      dup4\n        /* \"Chain Paper/other/Strings.sol\":997:1011  buffer[digits] */\n      dup2\n      mload\n      dup2\n      lt\n      tag_378\n      jumpi\n      mstore(0x00, 0x4e487b7100000000000000000000000000000000000000000000000000000000)\n      mstore(0x04, 0x32)\n      revert(0x00, 0x24)\n    tag_378:\n      0x20\n      add\n      add\n        /* \"Chain Paper/other/Strings.sol\":997:1053  buffer[digits] = bytes1(uint8(48 + uint256(value % 10))) */\n      swap1\n      not(0xffffffffffffffffffffffffffffffffffffffffffffffffffffffffffffff)\n      and\n      swap1\n      dup2\n      0x00\n      byte\n      swap1\n      mstore8\n      pop\n        /* \"Chain Paper/other/Strings.sol\":1077:1079  10 */\n      0x0a\n        /* \"Chain Paper/other/Strings.sol\":1068:1079  value /= 10 */\n      dup6\n      tag_379\n      swap2\n      swap1\n      tag_198\n      jump\t// in\n    tag_379:\n      swap5\n      pop\n        /* \"Chain Paper/other/Strings.sol\":937:1091  while (value != 0) {\r... */\n      jump(tag_372)\n    tag_373:\n        /* \"Chain Paper/other/Strings.sol\":1115:1121  buffer */\n      dup1\n        /* \"Chain Paper/other/Strings.sol\":1101:1122  return string(buffer) */\n      swap4\n      pop\n      pop\n      pop\n      pop\n        /* \"Chain Paper/other/Strings.sol\":407:1130  function toString(uint256 value) internal pure returns (string memory) {\r... */\n    tag_363:\n      swap2\n      swap1\n      pop\n      jump\t// out\n        /* \"@openzeppelin/contracts/utils/Context.sol\":640:736  function _msgSender() internal view virtual returns (address) {... */\n    tag_332:\n        /* \"@openzeppelin/contracts/utils/Context.sol\":693:700  address */\n      0x00\n        /* \"@openzeppelin/contracts/utils/Context.sol\":719:729  msg.sender */\n      caller\n        /* \"@openzeppelin/contracts/utils/Context.sol\":712:729  return msg.sender */\n      swap1\n      pop\n        /* \"@openzeppelin/contracts/utils/Context.sol\":640:736  function _msgSender() internal view virtual returns (address) {... */\n      swap1\n      jump\t// out\n        /* \"Chain Paper/liberty/ERC721.sol\":4785:5295  function _checkOnERC721Received(\r... */\n    tag_340:\n        /* \"Chain Paper/liberty/ERC721.sol\":4937:4941  bool */\n      0x00\n        /* \"Chain Paper/liberty/ERC721.sol\":4958:4973  to.isContract() */\n      tag_382\n        /* \"Chain Paper/liberty/ERC721.sol\":4958:4960  to */\n      dup5\n        /* \"Chain Paper/liberty/ERC721.sol\":4958:4971  to.isContract */\n      0xffffffffffffffffffffffffffffffffffffffff\n      and\n      tag_383\n        /* \"Chain Paper/liberty/ERC721.sol\":4958:4973  to.isContract() */\n      jump\t// in\n    tag_382:\n        /* \"Chain Paper/liberty/ERC721.sol\":4954:5288  if (to.isContract()) {\r... */\n      iszero\n      tag_384\n      jumpi\n        /* \"Chain Paper/liberty/ERC721.sol\":5191:5232  IERC721Receiver.onERC721Received.selector */\n      shl(0xe0, 0x150b7a02)\n        /* \"Chain Paper/liberty/ERC721.sol\":5014:5232  IERC721Receiver(to).onERC721Received(\r... */\n      not(0xffffffffffffffffffffffffffffffffffffffffffffffffffffffff)\n      and\n        /* \"Chain Paper/liberty/ERC721.sol\":5030:5032  to */\n      dup5\n        /* \"Chain Paper/liberty/ERC721.sol\":5014:5050  IERC721Receiver(to).onERC721Received */\n      0xffffffffffffffffffffffffffffffffffffffff\n      and\n      0x150b7a02\n        /* \"Chain Paper/liberty/ERC721.sol\":5073:5083  msg.sender */\n      caller\n        /* \"Chain Paper/liberty/ERC721.sol\":5106:5110  from */\n      dup9\n        /* \"Chain Paper/liberty/ERC721.sol\":5133:5140  tokenId */\n      dup8\n        /* \"Chain Paper/liberty/ERC721.sol\":5163:5168  _data */\n      dup8\n        /* \"Chain Paper/liberty/ERC721.sol\":5014:5187  IERC721Receiver(to).onERC721Received(\r... */\n      mload(0x40)\n      dup6\n      0xffffffff\n      and\n      0xe0\n      shl\n      dup2\n      mstore\n      0x04\n      add\n      tag_385\n      swap5\n      swap4\n      swap3\n      swap2\n      swap1\n      tag_386\n      jump\t// in\n    tag_385:\n      0x20\n      mload(0x40)\n      dup1\n      dup4\n      sub\n      dup2\n      0x00\n      dup8\n      dup1\n      extcodesize\n      iszero\n      dup1\n      iszero\n      tag_387\n      jumpi\n      0x00\n      dup1\n      revert\n    tag_387:\n      pop\n      gas\n      call\n      iszero\n      dup1\n      iszero\n      tag_389\n      jumpi\n      returndatasize\n      0x00\n      dup1\n      returndatacopy\n      revert(0x00, returndatasize)\n    tag_389:\n      pop\n      pop\n      pop\n      pop\n      mload(0x40)\n      returndatasize\n      not(0x1f)\n      0x1f\n      dup3\n      add\n      and\n      dup3\n      add\n      dup1\n      0x40\n      mstore\n      pop\n      dup2\n      add\n      swap1\n      tag_390\n      swap2\n      swap1\n      tag_391\n      jump\t// in\n    tag_390:\n        /* \"Chain Paper/liberty/ERC721.sol\":5014:5232  IERC721Receiver(to).onERC721Received(\r... */\n      not(0xffffffffffffffffffffffffffffffffffffffffffffffffffffffff)\n      and\n      eq\n        /* \"Chain Paper/liberty/ERC721.sol\":4990:5232  return\r... */\n      swap1\n      pop\n      jump(tag_381)\n        /* \"Chain Paper/liberty/ERC721.sol\":4954:5288  if (to.isContract()) {\r... */\n    tag_384:\n        /* \"Chain Paper/liberty/ERC721.sol\":5272:5276  true */\n      0x01\n        /* \"Chain Paper/liberty/ERC721.sol\":5265:5276  return true */\n      swap1\n      pop\n        /* \"Chain Paper/liberty/ERC721.sol\":4785:5295  function _checkOnERC721Received(\r... */\n    tag_381:\n      swap5\n      swap4\n      pop\n      pop\n      pop\n      pop\n      jump\t// out\n        /* \"Chain Paper/other/Address.sol\":163:356  function isContract(address account) internal view returns (bool) {\r... */\n    tag_383:\n        /* \"Chain Paper/other/Address.sol\":223:227  bool */\n      0x00\n        /* \"Chain Paper/other/Address.sol\":240:249  uint size */\n      dup1\n        /* \"Chain Paper/other/Address.sol\":304:311  account */\n      dup3\n        /* \"Chain Paper/other/Address.sol\":292:312  extcodesize(account) */\n      extcodesize\n        /* \"Chain Paper/other/Address.sol\":284:312  size := extcodesize(account) */\n      swap1\n      pop\n        /* \"Chain Paper/other/Address.sol\":347:348  0 */\n      0x00\n        /* \"Chain Paper/other/Address.sol\":340:344  size */\n      dup2\n        /* \"Chain Paper/other/Address.sol\":340:348  size > 0 */\n      gt\n        /* \"Chain Paper/other/Address.sol\":333:348  return size > 0 */\n      swap2\n      pop\n      pop\n        /* \"Chain Paper/other/Address.sol\":163:356  function isContract(address account) internal view returns (bool) {\r... */\n      swap2\n      swap1\n      pop\n      jump\t// out\n    tag_251:\n      dup3\n      dup1\n      sload\n      tag_394\n      swap1\n      tag_173\n      jump\t// in\n    tag_394:\n      swap1\n      0x00\n      mstore\n      keccak256(0x00, 0x20)\n      swap1\n      0x1f\n      add\n      0x20\n      swap1\n      div\n      dup2\n      add\n      swap3\n      dup3\n      tag_396\n      jumpi\n      0x00\n      dup6\n      sstore\n      jump(tag_395)\n    tag_396:\n      dup3\n      0x1f\n      lt\n      tag_397\n      jumpi\n      dup1\n      mload\n      not(0xff)\n      and\n      dup4\n      dup1\n      add\n      or\n      dup6\n      sstore\n      jump(tag_395)\n    tag_397:\n      dup3\n      dup1\n      add\n      0x01\n      add\n      dup6\n      sstore\n      dup3\n      iszero\n      tag_395\n      jumpi\n      swap2\n      dup3\n      add\n    tag_398:\n      dup3\n      dup2\n      gt\n      iszero\n      tag_399\n      jumpi\n      dup3\n      mload\n      dup3\n      sstore\n      swap2\n      0x20\n      add\n      swap2\n      swap1\n      0x01\n      add\n      swap1\n      jump(tag_398)\n    tag_399:\n    tag_395:\n      pop\n      swap1\n      pop\n      tag_400\n      swap2\n      swap1\n      tag_401\n      jump\t// in\n    tag_400:\n      pop\n      swap1\n      jump\t// out\n    tag_401:\n    tag_402:\n      dup1\n      dup3\n      gt\n      iszero\n      tag_403\n      jumpi\n      0x00\n      dup2\n      0x00\n      swap1\n      sstore\n      pop\n      0x01\n      add\n      jump(tag_402)\n    tag_403:\n      pop\n      swap1\n      jump\t// out\n        /* \"#utility.yul\":7:349   */\n    tag_405:\n      0x00\n        /* \"#utility.yul\":109:173   */\n      tag_407\n        /* \"#utility.yul\":124:172   */\n      tag_408\n        /* \"#utility.yul\":165:171   */\n      dup5\n        /* \"#utility.yul\":124:172   */\n      tag_409\n      jump\t// in\n    tag_408:\n        /* \"#utility.yul\":109:173   */\n      tag_410\n      jump\t// in\n    tag_407:\n        /* \"#utility.yul\":100:173   */\n      swap1\n      pop\n        /* \"#utility.yul\":196:202   */\n      dup3\n        /* \"#utility.yul\":189:194   */\n      dup2\n        /* \"#utility.yul\":182:203   */\n      mstore\n        /* \"#utility.yul\":234:238   */\n      0x20\n        /* \"#utility.yul\":227:232   */\n      dup2\n        /* \"#utility.yul\":223:239   */\n      add\n        /* \"#utility.yul\":272:275   */\n      dup5\n        /* \"#utility.yul\":263:269   */\n      dup5\n        /* \"#utility.yul\":258:261   */\n      dup5\n        /* \"#utility.yul\":254:270   */\n      add\n        /* \"#utility.yul\":251:276   */\n      gt\n        /* \"#utility.yul\":248:250   */\n      iszero\n      tag_411\n      jumpi\n        /* \"#utility.yul\":289:290   */\n      0x00\n        /* \"#utility.yul\":286:287   */\n      dup1\n        /* \"#utility.yul\":279:291   */\n      revert\n        /* \"#utility.yul\":248:250   */\n    tag_411:\n        /* \"#utility.yul\":302:343   */\n      tag_412\n        /* \"#utility.yul\":336:342   */\n      dup5\n        /* \"#utility.yul\":331:334   */\n      dup3\n        /* \"#utility.yul\":326:329   */\n      dup6\n        /* \"#utility.yul\":302:343   */\n      tag_413\n      jump\t// in\n    tag_412:\n        /* \"#utility.yul\":90:349   */\n      pop\n      swap4\n      swap3\n      pop\n      pop\n      pop\n      jump\t// out\n        /* \"#utility.yul\":355:494   */\n    tag_414:\n      0x00\n        /* \"#utility.yul\":439:445   */\n      dup2\n        /* \"#utility.yul\":426:446   */\n      calldataload\n        /* \"#utility.yul\":417:446   */\n      swap1\n      pop\n        /* \"#utility.yul\":455:488   */\n      tag_416\n        /* \"#utility.yul\":482:487   */\n      dup2\n        /* \"#utility.yul\":455:488   */\n      tag_417\n      jump\t// in\n    tag_416:\n        /* \"#utility.yul\":407:494   */\n      swap3\n      swap2\n      pop\n      pop\n      jump\t// out\n        /* \"#utility.yul\":500:633   */\n    tag_418:\n      0x00\n        /* \"#utility.yul\":581:587   */\n      dup2\n        /* \"#utility.yul\":568:588   */\n      calldataload\n        /* \"#utility.yul\":559:588   */\n      swap1\n      pop\n        /* \"#utility.yul\":597:627   */\n      tag_420\n        /* \"#utility.yul\":621:626   */\n      dup2\n        /* \"#utility.yul\":597:627   */\n      tag_421\n      jump\t// in\n    tag_420:\n        /* \"#utility.yul\":549:633   */\n      swap3\n      swap2\n      pop\n      pop\n      jump\t// out\n        /* \"#utility.yul\":639:776   */\n    tag_422:\n      0x00\n        /* \"#utility.yul\":722:728   */\n      dup2\n        /* \"#utility.yul\":709:729   */\n      calldataload\n        /* \"#utility.yul\":700:729   */\n      swap1\n      pop\n        /* \"#utility.yul\":738:770   */\n      tag_424\n        /* \"#utility.yul\":764:769   */\n      dup2\n        /* \"#utility.yul\":738:770   */\n      tag_425\n      jump\t// in\n    tag_424:\n        /* \"#utility.yul\":690:776   */\n      swap3\n      swap2\n      pop\n      pop\n      jump\t// out\n        /* \"#utility.yul\":782:923   */\n    tag_426:\n      0x00\n        /* \"#utility.yul\":869:875   */\n      dup2\n        /* \"#utility.yul\":863:876   */\n      mload\n        /* \"#utility.yul\":854:876   */\n      swap1\n      pop\n        /* \"#utility.yul\":885:917   */\n      tag_428\n        /* \"#utility.yul\":911:916   */\n      dup2\n        /* \"#utility.yul\":885:917   */\n      tag_425\n      jump\t// in\n    tag_428:\n        /* \"#utility.yul\":844:923   */\n      swap3\n      swap2\n      pop\n      pop\n      jump\t// out\n        /* \"#utility.yul\":942:1213   */\n    tag_429:\n      0x00\n        /* \"#utility.yul\":1046:1049   */\n      dup3\n        /* \"#utility.yul\":1039:1043   */\n      0x1f\n        /* \"#utility.yul\":1031:1037   */\n      dup4\n        /* \"#utility.yul\":1027:1044   */\n      add\n        /* \"#utility.yul\":1023:1050   */\n      slt\n        /* \"#utility.yul\":1013:1015   */\n      tag_431\n      jumpi\n        /* \"#utility.yul\":1064:1065   */\n      0x00\n        /* \"#utility.yul\":1061:1062   */\n      dup1\n        /* \"#utility.yul\":1054:1066   */\n      revert\n        /* \"#utility.yul\":1013:1015   */\n    tag_431:\n        /* \"#utility.yul\":1104:1110   */\n      dup2\n        /* \"#utility.yul\":1091:1111   */\n      calldataload\n        /* \"#utility.yul\":1129:1207   */\n      tag_432\n        /* \"#utility.yul\":1203:1206   */\n      dup5\n        /* \"#utility.yul\":1195:1201   */\n      dup3\n        /* \"#utility.yul\":1188:1192   */\n      0x20\n        /* \"#utility.yul\":1180:1186   */\n      dup7\n        /* \"#utility.yul\":1176:1193   */\n      add\n        /* \"#utility.yul\":1129:1207   */\n      tag_405\n      jump\t// in\n    tag_432:\n        /* \"#utility.yul\":1120:1207   */\n      swap2\n      pop\n        /* \"#utility.yul\":1003:1213   */\n      pop\n      swap3\n      swap2\n      pop\n      pop\n      jump\t// out\n        /* \"#utility.yul\":1219:1358   */\n    tag_433:\n      0x00\n        /* \"#utility.yul\":1303:1309   */\n      dup2\n        /* \"#utility.yul\":1290:1310   */\n      calldataload\n        /* \"#utility.yul\":1281:1310   */\n      swap1\n      pop\n        /* \"#utility.yul\":1319:1352   */\n      tag_435\n        /* \"#utility.yul\":1346:1351   */\n      dup2\n        /* \"#utility.yul\":1319:1352   */\n      tag_436\n      jump\t// in\n    tag_435:\n        /* \"#utility.yul\":1271:1358   */\n      swap3\n      swap2\n      pop\n      pop\n      jump\t// out\n        /* \"#utility.yul\":1364:1626   */\n    tag_107:\n      0x00\n        /* \"#utility.yul\":1472:1474   */\n      0x20\n        /* \"#utility.yul\":1460:1469   */\n      dup3\n        /* \"#utility.yul\":1451:1458   */\n      dup5\n        /* \"#utility.yul\":1447:1470   */\n      sub\n        /* \"#utility.yul\":1443:1475   */\n      slt\n        /* \"#utility.yul\":1440:1442   */\n      iszero\n      tag_438\n      jumpi\n        /* \"#utility.yul\":1488:1489   */\n      0x00\n        /* \"#utility.yul\":1485:1486   */\n      dup1\n        /* \"#utility.yul\":1478:1490   */\n      revert\n        /* \"#utility.yul\":1440:1442   */\n    tag_438:\n        /* \"#utility.yul\":1531:1532   */\n      0x00\n        /* \"#utility.yul\":1556:1609   */\n      tag_439\n        /* \"#utility.yul\":1601:1608   */\n      dup5\n        /* \"#utility.yul\":1592:1598   */\n      dup3\n        /* \"#utility.yul\":1581:1590   */\n      dup6\n        /* \"#utility.yul\":1577:1599   */\n      add\n        /* \"#utility.yul\":1556:1609   */\n      tag_414\n      jump\t// in\n    tag_439:\n        /* \"#utility.yul\":1546:1609   */\n      swap2\n      pop\n        /* \"#utility.yul\":1502:1619   */\n      pop\n        /* \"#utility.yul\":1430:1626   */\n      swap3\n      swap2\n      pop\n      pop\n      jump\t// out\n        /* \"#utility.yul\":1632:2039   */\n    tag_162:\n      0x00\n      dup1\n        /* \"#utility.yul\":1757:1759   */\n      0x40\n        /* \"#utility.yul\":1745:1754   */\n      dup4\n        /* \"#utility.yul\":1736:1743   */\n      dup6\n        /* \"#utility.yul\":1732:1755   */\n      sub\n        /* \"#utility.yul\":1728:1760   */\n      slt\n        /* \"#utility.yul\":1725:1727   */\n      iszero\n      tag_441\n      jumpi\n        /* \"#utility.yul\":1773:1774   */\n      0x00\n        /* \"#utility.yul\":1770:1771   */\n      dup1\n        /* \"#utility.yul\":1763:1775   */\n      revert\n        /* \"#utility.yul\":1725:1727   */\n    tag_441:\n        /* \"#utility.yul\":1816:1817   */\n      0x00\n        /* \"#utility.yul\":1841:1894   */\n      tag_442\n        /* \"#utility.yul\":1886:1893   */\n      dup6\n        /* \"#utility.yul\":1877:1883   */\n      dup3\n        /* \"#utility.yul\":1866:1875   */\n      dup7\n        /* \"#utility.yul\":1862:1884   */\n      add\n        /* \"#utility.yul\":1841:1894   */\n      tag_414\n      jump\t// in\n    tag_442:\n        /* \"#utility.yul\":1831:1894   */\n      swap3\n      pop\n        /* \"#utility.yul\":1787:1904   */\n      pop\n        /* \"#utility.yul\":1943:1945   */\n      0x20\n        /* \"#utility.yul\":1969:2022   */\n      tag_443\n        /* \"#utility.yul\":2014:2021   */\n      dup6\n        /* \"#utility.yul\":2005:2011   */\n      dup3\n        /* \"#utility.yul\":1994:2003   */\n      dup7\n        /* \"#utility.yul\":1990:2012   */\n      add\n        /* \"#utility.yul\":1969:2022   */\n      tag_414\n      jump\t// in\n    tag_443:\n        /* \"#utility.yul\":1959:2022   */\n      swap2\n      pop\n        /* \"#utility.yul\":1914:2032   */\n      pop\n        /* \"#utility.yul\":1715:2039   */\n      swap3\n      pop\n      swap3\n      swap1\n      pop\n      jump\t// out\n        /* \"#utility.yul\":2045:2597   */\n    tag_74:\n      0x00\n      dup1\n      0x00\n        /* \"#utility.yul\":2187:2189   */\n      0x60\n        /* \"#utility.yul\":2175:2184   */\n      dup5\n        /* \"#utility.yul\":2166:2173   */\n      dup7\n        /* \"#utility.yul\":2162:2185   */\n      sub\n        /* \"#utility.yul\":2158:2190   */\n      slt\n        /* \"#utility.yul\":2155:2157   */\n      iszero\n      tag_445\n      jumpi\n        /* \"#utility.yul\":2203:2204   */\n      0x00\n        /* \"#utility.yul\":2200:2201   */\n      dup1\n        /* \"#utility.yul\":2193:2205   */\n      revert\n        /* \"#utility.yul\":2155:2157   */\n    tag_445:\n        /* \"#utility.yul\":2246:2247   */\n      0x00\n        /* \"#utility.yul\":2271:2324   */\n      tag_446\n        /* \"#utility.yul\":2316:2323   */\n      dup7\n        /* \"#utility.yul\":2307:2313   */\n      dup3\n        /* \"#utility.yul\":2296:2305   */\n      dup8\n        /* \"#utility.yul\":2292:2314   */\n      add\n        /* \"#utility.yul\":2271:2324   */\n      tag_414\n      jump\t// in\n    tag_446:\n        /* \"#utility.yul\":2261:2324   */\n      swap4\n      pop\n        /* \"#utility.yul\":2217:2334   */\n      pop\n        /* \"#utility.yul\":2373:2375   */\n      0x20\n        /* \"#utility.yul\":2399:2452   */\n      tag_447\n        /* \"#utility.yul\":2444:2451   */\n      dup7\n        /* \"#utility.yul\":2435:2441   */\n      dup3\n        /* \"#utility.yul\":2424:2433   */\n      dup8\n        /* \"#utility.yul\":2420:2442   */\n      add\n        /* \"#utility.yul\":2399:2452   */\n      tag_414\n      jump\t// in\n    tag_447:\n        /* \"#utility.yul\":2389:2452   */\n      swap3\n      pop\n        /* \"#utility.yul\":2344:2462   */\n      pop\n        /* \"#utility.yul\":2501:2503   */\n      0x40\n        /* \"#utility.yul\":2527:2580   */\n      tag_448\n        /* \"#utility.yul\":2572:2579   */\n      dup7\n        /* \"#utility.yul\":2563:2569   */\n      dup3\n        /* \"#utility.yul\":2552:2561   */\n      dup8\n        /* \"#utility.yul\":2548:2570   */\n      add\n        /* \"#utility.yul\":2527:2580   */\n      tag_433\n      jump\t// in\n    tag_448:\n        /* \"#utility.yul\":2517:2580   */\n      swap2\n      pop\n        /* \"#utility.yul\":2472:2590   */\n      pop\n        /* \"#utility.yul\":2145:2597   */\n      swap3\n      pop\n      swap3\n      pop\n      swap3\n      jump\t// out\n        /* \"#utility.yul\":2603:3412   */\n    tag_139:\n      0x00\n      dup1\n      0x00\n      dup1\n        /* \"#utility.yul\":2771:2774   */\n      0x80\n        /* \"#utility.yul\":2759:2768   */\n      dup6\n        /* \"#utility.yul\":2750:2757   */\n      dup8\n        /* \"#utility.yul\":2746:2769   */\n      sub\n        /* \"#utility.yul\":2742:2775   */\n      slt\n        /* \"#utility.yul\":2739:2741   */\n      iszero\n      tag_450\n      jumpi\n        /* \"#utility.yul\":2788:2789   */\n      0x00\n        /* \"#utility.yul\":2785:2786   */\n      dup1\n        /* \"#utility.yul\":2778:2790   */\n      revert\n        /* \"#utility.yul\":2739:2741   */\n    tag_450:\n        /* \"#utility.yul\":2831:2832   */\n      0x00\n        /* \"#utility.yul\":2856:2909   */\n      tag_451\n        /* \"#utility.yul\":2901:2908   */\n      dup8\n        /* \"#utility.yul\":2892:2898   */\n      dup3\n        /* \"#utility.yul\":2881:2890   */\n      dup9\n        /* \"#utility.yul\":2877:2899   */\n      add\n        /* \"#utility.yul\":2856:2909   */\n      tag_414\n      jump\t// in\n    tag_451:\n        /* \"#utility.yul\":2846:2909   */\n      swap5\n      pop\n        /* \"#utility.yul\":2802:2919   */\n      pop\n        /* \"#utility.yul\":2958:2960   */\n      0x20\n        /* \"#utility.yul\":2984:3037   */\n      tag_452\n        /* \"#utility.yul\":3029:3036   */\n      dup8\n        /* \"#utility.yul\":3020:3026   */\n      dup3\n        /* \"#utility.yul\":3009:3018   */\n      dup9\n        /* \"#utility.yul\":3005:3027   */\n      add\n        /* \"#utility.yul\":2984:3037   */\n      tag_414\n      jump\t// in\n    tag_452:\n        /* \"#utility.yul\":2974:3037   */\n      swap4\n      pop\n        /* \"#utility.yul\":2929:3047   */\n      pop\n        /* \"#utility.yul\":3086:3088   */\n      0x40\n        /* \"#utility.yul\":3112:3165   */\n      tag_453\n        /* \"#utility.yul\":3157:3164   */\n      dup8\n        /* \"#utility.yul\":3148:3154   */\n      dup3\n        /* \"#utility.yul\":3137:3146   */\n      dup9\n        /* \"#utility.yul\":3133:3155   */\n      add\n        /* \"#utility.yul\":3112:3165   */\n      tag_433\n      jump\t// in\n    tag_453:\n        /* \"#utility.yul\":3102:3165   */\n      swap3\n      pop\n        /* \"#utility.yul\":3057:3175   */\n      pop\n        /* \"#utility.yul\":3242:3244   */\n      0x60\n        /* \"#utility.yul\":3231:3240   */\n      dup6\n        /* \"#utility.yul\":3227:3245   */\n      add\n        /* \"#utility.yul\":3214:3246   */\n      calldataload\n        /* \"#utility.yul\":3273:3291   */\n      0xffffffffffffffff\n        /* \"#utility.yul\":3265:3271   */\n      dup2\n        /* \"#utility.yul\":3262:3292   */\n      gt\n        /* \"#utility.yul\":3259:3261   */\n      iszero\n      tag_454\n      jumpi\n        /* \"#utility.yul\":3305:3306   */\n      0x00\n        /* \"#utility.yul\":3302:3303   */\n      dup1\n        /* \"#utility.yul\":3295:3307   */\n      revert\n        /* \"#utility.yul\":3259:3261   */\n    tag_454:\n        /* \"#utility.yul\":3333:3395   */\n      tag_455\n        /* \"#utility.yul\":3387:3394   */\n      dup8\n        /* \"#utility.yul\":3378:3384   */\n      dup3\n        /* \"#utility.yul\":3367:3376   */\n      dup9\n        /* \"#utility.yul\":3363:3385   */\n      add\n        /* \"#utility.yul\":3333:3395   */\n      tag_429\n      jump\t// in\n    tag_455:\n        /* \"#utility.yul\":3323:3395   */\n      swap2\n      pop\n        /* \"#utility.yul\":3185:3405   */\n      pop\n        /* \"#utility.yul\":2729:3412   */\n      swap3\n      swap6\n      swap2\n      swap5\n      pop\n      swap3\n      pop\n      jump\t// out\n        /* \"#utility.yul\":3418:3819   */\n    tag_148:\n      0x00\n      dup1\n        /* \"#utility.yul\":3540:3542   */\n      0x40\n        /* \"#utility.yul\":3528:3537   */\n      dup4\n        /* \"#utility.yul\":3519:3526   */\n      dup6\n        /* \"#utility.yul\":3515:3538   */\n      sub\n        /* \"#utility.yul\":3511:3543   */\n      slt\n        /* \"#utility.yul\":3508:3510   */\n      iszero\n      tag_457\n      jumpi\n        /* \"#utility.yul\":3556:3557   */\n      0x00\n        /* \"#utility.yul\":3553:3554   */\n      dup1\n        /* \"#utility.yul\":3546:3558   */\n      revert\n        /* \"#utility.yul\":3508:3510   */\n    tag_457:\n        /* \"#utility.yul\":3599:3600   */\n      0x00\n        /* \"#utility.yul\":3624:3677   */\n      tag_458\n        /* \"#utility.yul\":3669:3676   */\n      dup6\n        /* \"#utility.yul\":3660:3666   */\n      dup3\n        /* \"#utility.yul\":3649:3658   */\n      dup7\n        /* \"#utility.yul\":3645:3667   */\n      add\n        /* \"#utility.yul\":3624:3677   */\n      tag_414\n      jump\t// in\n    tag_458:\n        /* \"#utility.yul\":3614:3677   */\n      swap3\n      pop\n        /* \"#utility.yul\":3570:3687   */\n      pop\n        /* \"#utility.yul\":3726:3728   */\n      0x20\n        /* \"#utility.yul\":3752:3802   */\n      tag_459\n        /* \"#utility.yul\":3794:3801   */\n      dup6\n        /* \"#utility.yul\":3785:3791   */\n      dup3\n        /* \"#utility.yul\":3774:3783   */\n      dup7\n        /* \"#utility.yul\":3770:3792   */\n      add\n        /* \"#utility.yul\":3752:3802   */\n      tag_418\n      jump\t// in\n    tag_459:\n        /* \"#utility.yul\":3742:3802   */\n      swap2\n      pop\n        /* \"#utility.yul\":3697:3812   */\n      pop\n        /* \"#utility.yul\":3498:3819   */\n      swap3\n      pop\n      swap3\n      swap1\n      pop\n      jump\t// out\n        /* \"#utility.yul\":3825:4232   */\n    tag_60:\n      0x00\n      dup1\n        /* \"#utility.yul\":3950:3952   */\n      0x40\n        /* \"#utility.yul\":3938:3947   */\n      dup4\n        /* \"#utility.yul\":3929:3936   */\n      dup6\n        /* \"#utility.yul\":3925:3948   */\n      sub\n        /* \"#utility.yul\":3921:3953   */\n      slt\n        /* \"#utility.yul\":3918:3920   */\n      iszero\n      tag_461\n      jumpi\n        /* \"#utility.yul\":3966:3967   */\n      0x00\n        /* \"#utility.yul\":3963:3964   */\n      dup1\n        /* \"#utility.yul\":3956:3968   */\n      revert\n        /* \"#utility.yul\":3918:3920   */\n    tag_461:\n        /* \"#utility.yul\":4009:4010   */\n      0x00\n        /* \"#utility.yul\":4034:4087   */\n      tag_462\n        /* \"#utility.yul\":4079:4086   */\n      dup6\n        /* \"#utility.yul\":4070:4076   */\n      dup3\n        /* \"#utility.yul\":4059:4068   */\n      dup7\n        /* \"#utility.yul\":4055:4077   */\n      add\n        /* \"#utility.yul\":4034:4087   */\n      tag_414\n      jump\t// in\n    tag_462:\n        /* \"#utility.yul\":4024:4087   */\n      swap3\n      pop\n        /* \"#utility.yul\":3980:4097   */\n      pop\n        /* \"#utility.yul\":4136:4138   */\n      0x20\n        /* \"#utility.yul\":4162:4215   */\n      tag_463\n        /* \"#utility.yul\":4207:4214   */\n      dup6\n        /* \"#utility.yul\":4198:4204   */\n      dup3\n        /* \"#utility.yul\":4187:4196   */\n      dup7\n        /* \"#utility.yul\":4183:4205   */\n      add\n        /* \"#utility.yul\":4162:4215   */\n      tag_433\n      jump\t// in\n    tag_463:\n        /* \"#utility.yul\":4152:4215   */\n      swap2\n      pop\n        /* \"#utility.yul\":4107:4225   */\n      pop\n        /* \"#utility.yul\":3908:4232   */\n      swap3\n      pop\n      swap3\n      swap1\n      pop\n      jump\t// out\n        /* \"#utility.yul\":4238:4498   */\n    tag_41:\n      0x00\n        /* \"#utility.yul\":4345:4347   */\n      0x20\n        /* \"#utility.yul\":4333:4342   */\n      dup3\n        /* \"#utility.yul\":4324:4331   */\n      dup5\n        /* \"#utility.yul\":4320:4343   */\n      sub\n        /* \"#utility.yul\":4316:4348   */\n      slt\n        /* \"#utility.yul\":4313:4315   */\n      iszero\n      tag_465\n      jumpi\n        /* \"#utility.yul\":4361:4362   */\n      0x00\n        /* \"#utility.yul\":4358:4359   */\n      dup1\n        /* \"#utility.yul\":4351:4363   */\n      revert\n        /* \"#utility.yul\":4313:4315   */\n    tag_465:\n        /* \"#utility.yul\":4404:4405   */\n      0x00\n        /* \"#utility.yul\":4429:4481   */\n      tag_466\n        /* \"#utility.yul\":4473:4480   */\n      dup5\n        /* \"#utility.yul\":4464:4470   */\n      dup3\n        /* \"#utility.yul\":4453:4462   */\n      dup6\n        /* \"#utility.yul\":4449:4471   */\n      add\n        /* \"#utility.yul\":4429:4481   */\n      tag_422\n      jump\t// in\n    tag_466:\n        /* \"#utility.yul\":4419:4481   */\n      swap2\n      pop\n        /* \"#utility.yul\":4375:4491   */\n      pop\n        /* \"#utility.yul\":4303:4498   */\n      swap3\n      swap2\n      pop\n      pop\n      jump\t// out\n        /* \"#utility.yul\":4504:4786   */\n    tag_391:\n      0x00\n        /* \"#utility.yul\":4622:4624   */\n      0x20\n        /* \"#utility.yul\":4610:4619   */\n      dup3\n        /* \"#utility.yul\":4601:4608   */\n      dup5\n        /* \"#utility.yul\":4597:4620   */\n      sub\n        /* \"#utility.yul\":4593:4625   */\n      slt\n        /* \"#utility.yul\":4590:4592   */\n      iszero\n      tag_468\n      jumpi\n        /* \"#utility.yul\":4638:4639   */\n      0x00\n        /* \"#utility.yul\":4635:4636   */\n      dup1\n        /* \"#utility.yul\":4628:4640   */\n      revert\n        /* \"#utility.yul\":4590:4592   */\n    tag_468:\n        /* \"#utility.yul\":4681:4682   */\n      0x00\n        /* \"#utility.yul\":4706:4769   */\n      tag_469\n        /* \"#utility.yul\":4761:4768   */\n      dup5\n        /* \"#utility.yul\":4752:4758   */\n      dup3\n        /* \"#utility.yul\":4741:4750   */\n      dup6\n        /* \"#utility.yul\":4737:4759   */\n      add\n        /* \"#utility.yul\":4706:4769   */\n      tag_426\n      jump\t// in\n    tag_469:\n        /* \"#utility.yul\":4696:4769   */\n      swap2\n      pop\n        /* \"#utility.yul\":4652:4779   */\n      pop\n        /* \"#utility.yul\":4580:4786   */\n      swap3\n      swap2\n      pop\n      pop\n      jump\t// out\n        /* \"#utility.yul\":4792:5054   */\n    tag_53:\n      0x00\n        /* \"#utility.yul\":4900:4902   */\n      0x20\n        /* \"#utility.yul\":4888:4897   */\n      dup3\n        /* \"#utility.yul\":4879:4886   */\n      dup5\n        /* \"#utility.yul\":4875:4898   */\n      sub\n        /* \"#utility.yul\":4871:4903   */\n      slt\n        /* \"#utility.yul\":4868:4870   */\n      iszero\n      tag_471\n      jumpi\n        /* \"#utility.yul\":4916:4917   */\n      0x00\n        /* \"#utility.yul\":4913:4914   */\n      dup1\n        /* \"#utility.yul\":4906:4918   */\n      revert\n        /* \"#utility.yul\":4868:4870   */\n    tag_471:\n        /* \"#utility.yul\":4959:4960   */\n      0x00\n        /* \"#utility.yul\":4984:5037   */\n      tag_472\n        /* \"#utility.yul\":5029:5036   */\n      dup5\n        /* \"#utility.yul\":5020:5026   */\n      dup3\n        /* \"#utility.yul\":5009:5018   */\n      dup6\n        /* \"#utility.yul\":5005:5027   */\n      add\n        /* \"#utility.yul\":4984:5037   */\n      tag_433\n      jump\t// in\n    tag_472:\n        /* \"#utility.yul\":4974:5037   */\n      swap2\n      pop\n        /* \"#utility.yul\":4930:5047   */\n      pop\n        /* \"#utility.yul\":4858:5054   */\n      swap3\n      swap2\n      pop\n      pop\n      jump\t// out\n        /* \"#utility.yul\":5060:5178   */\n    tag_473:\n        /* \"#utility.yul\":5147:5171   */\n      tag_475\n        /* \"#utility.yul\":5165:5170   */\n      dup2\n        /* \"#utility.yul\":5147:5171   */\n      tag_476\n      jump\t// in\n    tag_475:\n        /* \"#utility.yul\":5142:5145   */\n      dup3\n        /* \"#utility.yul\":5135:5172   */\n      mstore\n        /* \"#utility.yul\":5125:5178   */\n      pop\n      pop\n      jump\t// out\n        /* \"#utility.yul\":5184:5293   */\n    tag_477:\n        /* \"#utility.yul\":5265:5286   */\n      tag_479\n        /* \"#utility.yul\":5280:5285   */\n      dup2\n        /* \"#utility.yul\":5265:5286   */\n      tag_480\n      jump\t// in\n    tag_479:\n        /* \"#utility.yul\":5260:5263   */\n      dup3\n        /* \"#utility.yul\":5253:5287   */\n      mstore\n        /* \"#utility.yul\":5243:5293   */\n      pop\n      pop\n      jump\t// out\n        /* \"#utility.yul\":5299:5659   */\n    tag_481:\n      0x00\n        /* \"#utility.yul\":5413:5451   */\n      tag_483\n        /* \"#utility.yul\":5445:5450   */\n      dup3\n        /* \"#utility.yul\":5413:5451   */\n      tag_484\n      jump\t// in\n    tag_483:\n        /* \"#utility.yul\":5467:5537   */\n      tag_485\n        /* \"#utility.yul\":5530:5536   */\n      dup2\n        /* \"#utility.yul\":5525:5528   */\n      dup6\n        /* \"#utility.yul\":5467:5537   */\n      tag_486\n      jump\t// in\n    tag_485:\n        /* \"#utility.yul\":5460:5537   */\n      swap4\n      pop\n        /* \"#utility.yul\":5546:5598   */\n      tag_487\n        /* \"#utility.yul\":5591:5597   */\n      dup2\n        /* \"#utility.yul\":5586:5589   */\n      dup6\n        /* \"#utility.yul\":5579:5583   */\n      0x20\n        /* \"#utility.yul\":5572:5577   */\n      dup7\n        /* \"#utility.yul\":5568:5584   */\n      add\n        /* \"#utility.yul\":5546:5598   */\n      tag_488\n      jump\t// in\n    tag_487:\n        /* \"#utility.yul\":5623:5652   */\n      tag_489\n        /* \"#utility.yul\":5645:5651   */\n      dup2\n        /* \"#utility.yul\":5623:5652   */\n      tag_490\n      jump\t// in\n    tag_489:\n        /* \"#utility.yul\":5618:5621   */\n      dup5\n        /* \"#utility.yul\":5614:5653   */\n      add\n        /* \"#utility.yul\":5607:5653   */\n      swap2\n      pop\n        /* \"#utility.yul\":5389:5659   */\n      pop\n      swap3\n      swap2\n      pop\n      pop\n      jump\t// out\n        /* \"#utility.yul\":5665:6029   */\n    tag_491:\n      0x00\n        /* \"#utility.yul\":5781:5820   */\n      tag_493\n        /* \"#utility.yul\":5814:5819   */\n      dup3\n        /* \"#utility.yul\":5781:5820   */\n      tag_494\n      jump\t// in\n    tag_493:\n        /* \"#utility.yul\":5836:5907   */\n      tag_495\n        /* \"#utility.yul\":5900:5906   */\n      dup2\n        /* \"#utility.yul\":5895:5898   */\n      dup6\n        /* \"#utility.yul\":5836:5907   */\n      tag_496\n      jump\t// in\n    tag_495:\n        /* \"#utility.yul\":5829:5907   */\n      swap4\n      pop\n        /* \"#utility.yul\":5916:5968   */\n      tag_497\n        /* \"#utility.yul\":5961:5967   */\n      dup2\n        /* \"#utility.yul\":5956:5959   */\n      dup6\n        /* \"#utility.yul\":5949:5953   */\n      0x20\n        /* \"#utility.yul\":5942:5947   */\n      dup7\n        /* \"#utility.yul\":5938:5954   */\n      add\n        /* \"#utility.yul\":5916:5968   */\n      tag_488\n      jump\t// in\n    tag_497:\n        /* \"#utility.yul\":5993:6022   */\n      tag_498\n        /* \"#utility.yul\":6015:6021   */\n      dup2\n        /* \"#utility.yul\":5993:6022   */\n      tag_490\n      jump\t// in\n    tag_498:\n        /* \"#utility.yul\":5988:5991   */\n      dup5\n        /* \"#utility.yul\":5984:6023   */\n      add\n        /* \"#utility.yul\":5977:6023   */\n      swap2\n      pop\n        /* \"#utility.yul\":5757:6029   */\n      pop\n      swap3\n      swap2\n      pop\n      pop\n      jump\t// out\n        /* \"#utility.yul\":6035:6412   */\n    tag_499:\n      0x00\n        /* \"#utility.yul\":6169:6208   */\n      tag_501\n        /* \"#utility.yul\":6202:6207   */\n      dup3\n        /* \"#utility.yul\":6169:6208   */\n      tag_494\n      jump\t// in\n    tag_501:\n        /* \"#utility.yul\":6224:6313   */\n      tag_502\n        /* \"#utility.yul\":6306:6312   */\n      dup2\n        /* \"#utility.yul\":6301:6304   */\n      dup6\n        /* \"#utility.yul\":6224:6313   */\n      tag_503\n      jump\t// in\n    tag_502:\n        /* \"#utility.yul\":6217:6313   */\n      swap4\n      pop\n        /* \"#utility.yul\":6322:6374   */\n      tag_504\n        /* \"#utility.yul\":6367:6373   */\n      dup2\n        /* \"#utility.yul\":6362:6365   */\n      dup6\n        /* \"#utility.yul\":6355:6359   */\n      0x20\n        /* \"#utility.yul\":6348:6353   */\n      dup7\n        /* \"#utility.yul\":6344:6360   */\n      add\n        /* \"#utility.yul\":6322:6374   */\n      tag_488\n      jump\t// in\n    tag_504:\n        /* \"#utility.yul\":6399:6405   */\n      dup1\n        /* \"#utility.yul\":6394:6397   */\n      dup5\n        /* \"#utility.yul\":6390:6406   */\n      add\n        /* \"#utility.yul\":6383:6406   */\n      swap2\n      pop\n        /* \"#utility.yul\":6145:6412   */\n      pop\n      swap3\n      swap2\n      pop\n      pop\n      jump\t// out\n        /* \"#utility.yul\":6418:6745   */\n    tag_505:\n      0x00\n        /* \"#utility.yul\":6581:6648   */\n      tag_507\n        /* \"#utility.yul\":6645:6647   */\n      0x1d\n        /* \"#utility.yul\":6640:6643   */\n      dup4\n        /* \"#utility.yul\":6581:6648   */\n      tag_496\n      jump\t// in\n    tag_507:\n        /* \"#utility.yul\":6574:6648   */\n      swap2\n      pop\n        /* \"#utility.yul\":6678:6709   */\n      0x6e6f74206f776e6572206f7220617070726f76656420666f7220616c6c000000\n        /* \"#utility.yul\":6674:6675   */\n      0x00\n        /* \"#utility.yul\":6669:6672   */\n      dup4\n        /* \"#utility.yul\":6665:6676   */\n      add\n        /* \"#utility.yul\":6658:6710   */\n      mstore\n        /* \"#utility.yul\":6736:6738   */\n      0x20\n        /* \"#utility.yul\":6731:6734   */\n      dup3\n        /* \"#utility.yul\":6727:6739   */\n      add\n        /* \"#utility.yul\":6720:6739   */\n      swap1\n      pop\n        /* \"#utility.yul\":6564:6745   */\n      swap2\n      swap1\n      pop\n      jump\t// out\n        /* \"#utility.yul\":6751:7064   */\n    tag_508:\n      0x00\n        /* \"#utility.yul\":6914:6981   */\n      tag_510\n        /* \"#utility.yul\":6978:6980   */\n      0x0f\n        /* \"#utility.yul\":6973:6976   */\n      dup4\n        /* \"#utility.yul\":6914:6981   */\n      tag_496\n      jump\t// in\n    tag_510:\n        /* \"#utility.yul\":6907:6981   */\n      swap2\n      pop\n        /* \"#utility.yul\":7011:7028   */\n      0x746f206973203020616464726573730000000000000000000000000000000000\n        /* \"#utility.yul\":7007:7008   */\n      0x00\n        /* \"#utility.yul\":7002:7005   */\n      dup4\n        /* \"#utility.yul\":6998:7009   */\n      add\n        /* \"#utility.yul\":6991:7029   */\n      mstore\n        /* \"#utility.yul\":7055:7057   */\n      0x20\n        /* \"#utility.yul\":7050:7053   */\n      dup3\n        /* \"#utility.yul\":7046:7058   */\n      add\n        /* \"#utility.yul\":7039:7058   */\n      swap1\n      pop\n        /* \"#utility.yul\":6897:7064   */\n      swap2\n      swap1\n      pop\n      jump\t// out\n        /* \"#utility.yul\":7070:7390   */\n    tag_511:\n      0x00\n        /* \"#utility.yul\":7233:7300   */\n      tag_513\n        /* \"#utility.yul\":7297:7299   */\n      0x16\n        /* \"#utility.yul\":7292:7295   */\n      dup4\n        /* \"#utility.yul\":7233:7300   */\n      tag_496\n      jump\t// in\n    tag_513:\n        /* \"#utility.yul\":7226:7300   */\n      swap2\n      pop\n        /* \"#utility.yul\":7330:7354   */\n      0x6e6f74206f776e6572206e6f7220617070726f76656400000000000000000000\n        /* \"#utility.yul\":7326:7327   */\n      0x00\n        /* \"#utility.yul\":7321:7324   */\n      dup4\n        /* \"#utility.yul\":7317:7328   */\n      add\n        /* \"#utility.yul\":7310:7355   */\n      mstore\n        /* \"#utility.yul\":7381:7383   */\n      0x20\n        /* \"#utility.yul\":7376:7379   */\n      dup3\n        /* \"#utility.yul\":7372:7384   */\n      add\n        /* \"#utility.yul\":7365:7384   */\n      swap1\n      pop\n        /* \"#utility.yul\":7216:7390   */\n      swap2\n      swap1\n      pop\n      jump\t// out\n        /* \"#utility.yul\":7396:7766   */\n    tag_514:\n      0x00\n        /* \"#utility.yul\":7559:7626   */\n      tag_516\n        /* \"#utility.yul\":7623:7625   */\n      0x26\n        /* \"#utility.yul\":7618:7621   */\n      dup4\n        /* \"#utility.yul\":7559:7626   */\n      tag_496\n      jump\t// in\n    tag_516:\n        /* \"#utility.yul\":7552:7626   */\n      swap2\n      pop\n        /* \"#utility.yul\":7656:7690   */\n      0x4f776e61626c653a206e6577206f776e657220697320746865207a65726f2061\n        /* \"#utility.yul\":7652:7653   */\n      0x00\n        /* \"#utility.yul\":7647:7650   */\n      dup4\n        /* \"#utility.yul\":7643:7654   */\n      add\n        /* \"#utility.yul\":7636:7691   */\n      mstore\n        /* \"#utility.yul\":7722:7730   */\n      0x6464726573730000000000000000000000000000000000000000000000000000\n        /* \"#utility.yul\":7717:7719   */\n      0x20\n        /* \"#utility.yul\":7712:7715   */\n      dup4\n        /* \"#utility.yul\":7708:7720   */\n      add\n        /* \"#utility.yul\":7701:7731   */\n      mstore\n        /* \"#utility.yul\":7757:7759   */\n      0x40\n        /* \"#utility.yul\":7752:7755   */\n      dup3\n        /* \"#utility.yul\":7748:7760   */\n      add\n        /* \"#utility.yul\":7741:7760   */\n      swap1\n      pop\n        /* \"#utility.yul\":7542:7766   */\n      swap2\n      swap1\n      pop\n      jump\t// out\n        /* \"#utility.yul\":7772:8085   */\n    tag_517:\n      0x00\n        /* \"#utility.yul\":7935:8002   */\n      tag_519\n        /* \"#utility.yul\":7999:8001   */\n      0x0f\n        /* \"#utility.yul\":7994:7997   */\n      dup4\n        /* \"#utility.yul\":7935:8002   */\n      tag_496\n      jump\t// in\n    tag_519:\n        /* \"#utility.yul\":7928:8002   */\n      swap2\n      pop\n        /* \"#utility.yul\":8032:8049   */\n      0x5472616e73666572206661696c65640000000000000000000000000000000000\n        /* \"#utility.yul\":8028:8029   */\n      0x00\n        /* \"#utility.yul\":8023:8026   */\n      dup4\n        /* \"#utility.yul\":8019:8030   */\n      add\n        /* \"#utility.yul\":8012:8050   */\n      mstore\n        /* \"#utility.yul\":8076:8078   */\n      0x20\n        /* \"#utility.yul\":8071:8074   */\n      dup3\n        /* \"#utility.yul\":8067:8079   */\n      add\n        /* \"#utility.yul\":8060:8079   */\n      swap1\n      pop\n        /* \"#utility.yul\":7918:8085   */\n      swap2\n      swap1\n      pop\n      jump\t// out\n        /* \"#utility.yul\":8091:8413   */\n    tag_520:\n      0x00\n        /* \"#utility.yul\":8254:8321   */\n      tag_522\n        /* \"#utility.yul\":8318:8320   */\n      0x18\n        /* \"#utility.yul\":8313:8316   */\n      dup4\n        /* \"#utility.yul\":8254:8321   */\n      tag_496\n      jump\t// in\n    tag_522:\n        /* \"#utility.yul\":8247:8321   */\n      swap2\n      pop\n        /* \"#utility.yul\":8351:8377   */\n      0x73616c6520686173206e6f742073746172746564207965740000000000000000\n        /* \"#utility.yul\":8347:8348   */\n      0x00\n        /* \"#utility.yul\":8342:8345   */\n      dup4\n        /* \"#utility.yul\":8338:8349   */\n      add\n        /* \"#utility.yul\":8331:8378   */\n      mstore\n        /* \"#utility.yul\":8404:8406   */\n      0x20\n        /* \"#utility.yul\":8399:8402   */\n      dup3\n        /* \"#utility.yul\":8395:8407   */\n      add\n        /* \"#utility.yul\":8388:8407   */\n      swap1\n      pop\n        /* \"#utility.yul\":8237:8413   */\n      swap2\n      swap1\n      pop\n      jump\t// out\n        /* \"#utility.yul\":8419:8736   */\n    tag_523:\n      0x00\n        /* \"#utility.yul\":8582:8649   */\n      tag_525\n        /* \"#utility.yul\":8646:8648   */\n      0x13\n        /* \"#utility.yul\":8641:8644   */\n      dup4\n        /* \"#utility.yul\":8582:8649   */\n      tag_496\n      jump\t// in\n    tag_525:\n        /* \"#utility.yul\":8575:8649   */\n      swap2\n      pop\n        /* \"#utility.yul\":8679:8700   */\n      0x746f6b656e20646f65736e277420657869737400000000000000000000000000\n        /* \"#utility.yul\":8675:8676   */\n      0x00\n        /* \"#utility.yul\":8670:8673   */\n      dup4\n        /* \"#utility.yul\":8666:8677   */\n      add\n        /* \"#utility.yul\":8659:8701   */\n      mstore\n        /* \"#utility.yul\":8727:8729   */\n      0x20\n        /* \"#utility.yul\":8722:8725   */\n      dup3\n        /* \"#utility.yul\":8718:8730   */\n      add\n        /* \"#utility.yul\":8711:8730   */\n      swap1\n      pop\n        /* \"#utility.yul\":8565:8736   */\n      swap2\n      swap1\n      pop\n      jump\t// out\n        /* \"#utility.yul\":8742:9072   */\n    tag_526:\n      0x00\n        /* \"#utility.yul\":8905:8972   */\n      tag_528\n        /* \"#utility.yul\":8969:8971   */\n      0x20\n        /* \"#utility.yul\":8964:8967   */\n      dup4\n        /* \"#utility.yul\":8905:8972   */\n      tag_496\n      jump\t// in\n    tag_528:\n        /* \"#utility.yul\":8898:8972   */\n      swap2\n      pop\n        /* \"#utility.yul\":9002:9036   */\n      0x4f776e61626c653a2063616c6c6572206973206e6f7420746865206f776e6572\n        /* \"#utility.yul\":8998:8999   */\n      0x00\n        /* \"#utility.yul\":8993:8996   */\n      dup4\n        /* \"#utility.yul\":8989:9000   */\n      add\n        /* \"#utility.yul\":8982:9037   */\n      mstore\n        /* \"#utility.yul\":9063:9065   */\n      0x20\n        /* \"#utility.yul\":9058:9061   */\n      dup3\n        /* \"#utility.yul\":9054:9066   */\n      add\n        /* \"#utility.yul\":9047:9066   */\n      swap1\n      pop\n        /* \"#utility.yul\":8888:9072   */\n      swap2\n      swap1\n      pop\n      jump\t// out\n        /* \"#utility.yul\":9078:9396   */\n    tag_529:\n      0x00\n        /* \"#utility.yul\":9241:9308   */\n      tag_531\n        /* \"#utility.yul\":9305:9307   */\n      0x14\n        /* \"#utility.yul\":9300:9303   */\n      dup4\n        /* \"#utility.yul\":9241:9308   */\n      tag_496\n      jump\t// in\n    tag_531:\n        /* \"#utility.yul\":9234:9308   */\n      swap2\n      pop\n        /* \"#utility.yul\":9338:9360   */\n      0x746f6b656e20616c7265616479206d696e746564000000000000000000000000\n        /* \"#utility.yul\":9334:9335   */\n      0x00\n        /* \"#utility.yul\":9329:9332   */\n      dup4\n        /* \"#utility.yul\":9325:9336   */\n      add\n        /* \"#utility.yul\":9318:9361   */\n      mstore\n        /* \"#utility.yul\":9387:9389   */\n      0x20\n        /* \"#utility.yul\":9382:9385   */\n      dup3\n        /* \"#utility.yul\":9378:9390   */\n      add\n        /* \"#utility.yul\":9371:9390   */\n      swap1\n      pop\n        /* \"#utility.yul\":9224:9396   */\n      swap2\n      swap1\n      pop\n      jump\t// out\n        /* \"#utility.yul\":9402:9717   */\n    tag_532:\n      0x00\n        /* \"#utility.yul\":9565:9632   */\n      tag_534\n        /* \"#utility.yul\":9629:9631   */\n      0x11\n        /* \"#utility.yul\":9624:9627   */\n      dup4\n        /* \"#utility.yul\":9565:9632   */\n      tag_496\n      jump\t// in\n    tag_534:\n        /* \"#utility.yul\":9558:9632   */\n      swap2\n      pop\n        /* \"#utility.yul\":9662:9681   */\n      0x6f776e6572203d20302061646472657373000000000000000000000000000000\n        /* \"#utility.yul\":9658:9659   */\n      0x00\n        /* \"#utility.yul\":9653:9656   */\n      dup4\n        /* \"#utility.yul\":9649:9660   */\n      add\n        /* \"#utility.yul\":9642:9682   */\n      mstore\n        /* \"#utility.yul\":9708:9710   */\n      0x20\n        /* \"#utility.yul\":9703:9706   */\n      dup3\n        /* \"#utility.yul\":9699:9711   */\n      add\n        /* \"#utility.yul\":9692:9711   */\n      swap1\n      pop\n        /* \"#utility.yul\":9548:9717   */\n      swap2\n      swap1\n      pop\n      jump\t// out\n        /* \"#utility.yul\":9723:10020   */\n    tag_535:\n      0x00\n        /* \"#utility.yul\":9903:9986   */\n      tag_537\n        /* \"#utility.yul\":9984:9985   */\n      0x00\n        /* \"#utility.yul\":9979:9982   */\n      dup4\n        /* \"#utility.yul\":9903:9986   */\n      tag_538\n      jump\t// in\n    tag_537:\n        /* \"#utility.yul\":9896:9986   */\n      swap2\n      pop\n        /* \"#utility.yul\":10012:10013   */\n      0x00\n        /* \"#utility.yul\":10007:10010   */\n      dup3\n        /* \"#utility.yul\":10003:10014   */\n      add\n        /* \"#utility.yul\":9996:10014   */\n      swap1\n      pop\n        /* \"#utility.yul\":9886:10020   */\n      swap2\n      swap1\n      pop\n      jump\t// out\n        /* \"#utility.yul\":10026:10346   */\n    tag_539:\n      0x00\n        /* \"#utility.yul\":10189:10256   */\n      tag_541\n        /* \"#utility.yul\":10253:10255   */\n      0x16\n        /* \"#utility.yul\":10248:10251   */\n      dup4\n        /* \"#utility.yul\":10189:10256   */\n      tag_496\n      jump\t// in\n    tag_541:\n        /* \"#utility.yul\":10182:10256   */\n      swap2\n      pop\n        /* \"#utility.yul\":10286:10310   */\n      0x4e65656420746f2073656e64206d6f7265204554482e00000000000000000000\n        /* \"#utility.yul\":10282:10283   */\n      0x00\n        /* \"#utility.yul\":10277:10280   */\n      dup4\n        /* \"#utility.yul\":10273:10284   */\n      add\n        /* \"#utility.yul\":10266:10311   */\n      mstore\n        /* \"#utility.yul\":10337:10339   */\n      0x20\n        /* \"#utility.yul\":10332:10335   */\n      dup3\n        /* \"#utility.yul\":10328:10340   */\n      add\n        /* \"#utility.yul\":10321:10340   */\n      swap1\n      pop\n        /* \"#utility.yul\":10172:10346   */\n      swap2\n      swap1\n      pop\n      jump\t// out\n        /* \"#utility.yul\":10352:10665   */\n    tag_542:\n      0x00\n        /* \"#utility.yul\":10515:10582   */\n      tag_544\n        /* \"#utility.yul\":10579:10581   */\n      0x0f\n        /* \"#utility.yul\":10574:10577   */\n      dup4\n        /* \"#utility.yul\":10515:10582   */\n      tag_496\n      jump\t// in\n    tag_544:\n        /* \"#utility.yul\":10508:10582   */\n      swap2\n      pop\n        /* \"#utility.yul\":10612:10629   */\n      0x546f6b656e206e6f742065786973740000000000000000000000000000000000\n        /* \"#utility.yul\":10608:10609   */\n      0x00\n        /* \"#utility.yul\":10603:10606   */\n      dup4\n        /* \"#utility.yul\":10599:10610   */\n      add\n        /* \"#utility.yul\":10592:10630   */\n      mstore\n        /* \"#utility.yul\":10656:10658   */\n      0x20\n        /* \"#utility.yul\":10651:10654   */\n      dup3\n        /* \"#utility.yul\":10647:10659   */\n      add\n        /* \"#utility.yul\":10640:10659   */\n      swap1\n      pop\n        /* \"#utility.yul\":10498:10665   */\n      swap2\n      swap1\n      pop\n      jump\t// out\n        /* \"#utility.yul\":10671:10987   */\n    tag_545:\n      0x00\n        /* \"#utility.yul\":10834:10901   */\n      tag_547\n        /* \"#utility.yul\":10898:10900   */\n      0x12\n        /* \"#utility.yul\":10893:10896   */\n      dup4\n        /* \"#utility.yul\":10834:10901   */\n      tag_496\n      jump\t// in\n    tag_547:\n        /* \"#utility.yul\":10827:10901   */\n      swap2\n      pop\n        /* \"#utility.yul\":10931:10951   */\n      0x6e6f742045524337323152656365697665720000000000000000000000000000\n        /* \"#utility.yul\":10927:10928   */\n      0x00\n        /* \"#utility.yul\":10922:10925   */\n      dup4\n        /* \"#utility.yul\":10918:10929   */\n      add\n        /* \"#utility.yul\":10911:10952   */\n      mstore\n        /* \"#utility.yul\":10978:10980   */\n      0x20\n        /* \"#utility.yul\":10973:10976   */\n      dup3\n        /* \"#utility.yul\":10969:10981   */\n      add\n        /* \"#utility.yul\":10962:10981   */\n      swap1\n      pop\n        /* \"#utility.yul\":10817:10987   */\n      swap2\n      swap1\n      pop\n      jump\t// out\n        /* \"#utility.yul\":10993:11431   */\n    tag_548:\n      0x00\n        /* \"#utility.yul\":11156:11223   */\n      tag_550\n        /* \"#utility.yul\":11220:11222   */\n      0x48\n        /* \"#utility.yul\":11215:11218   */\n      dup4\n        /* \"#utility.yul\":11156:11223   */\n      tag_496\n      jump\t// in\n    tag_550:\n        /* \"#utility.yul\":11149:11223   */\n      swap2\n      pop\n        /* \"#utility.yul\":11253:11287   */\n      0x6e6f7420656e6f7567682072656d61696e696e6720726573657276656420666f\n        /* \"#utility.yul\":11249:11250   */\n      0x00\n        /* \"#utility.yul\":11244:11247   */\n      dup4\n        /* \"#utility.yul\":11240:11251   */\n      add\n        /* \"#utility.yul\":11233:11288   */\n      mstore\n        /* \"#utility.yul\":11319:11353   */\n      0x722061756374696f6e20746f20737570706f72742064657369726564206d696e\n        /* \"#utility.yul\":11314:11316   */\n      0x20\n        /* \"#utility.yul\":11309:11312   */\n      dup4\n        /* \"#utility.yul\":11305:11317   */\n      add\n        /* \"#utility.yul\":11298:11354   */\n      mstore\n        /* \"#utility.yul\":11385:11395   */\n      0x7420616d6f756e74000000000000000000000000000000000000000000000000\n        /* \"#utility.yul\":11380:11382   */\n      0x40\n        /* \"#utility.yul\":11375:11378   */\n      dup4\n        /* \"#utility.yul\":11371:11383   */\n      add\n        /* \"#utility.yul\":11364:11396   */\n      mstore\n        /* \"#utility.yul\":11422:11424   */\n      0x60\n        /* \"#utility.yul\":11417:11420   */\n      dup3\n        /* \"#utility.yul\":11413:11425   */\n      add\n        /* \"#utility.yul\":11406:11425   */\n      swap1\n      pop\n        /* \"#utility.yul\":11139:11431   */\n      swap2\n      swap1\n      pop\n      jump\t// out\n        /* \"#utility.yul\":11437:11743   */\n    tag_551:\n      0x00\n        /* \"#utility.yul\":11600:11666   */\n      tag_553\n        /* \"#utility.yul\":11664:11665   */\n      0x09\n        /* \"#utility.yul\":11659:11662   */\n      dup4\n        /* \"#utility.yul\":11600:11666   */\n      tag_496\n      jump\t// in\n    tag_553:\n        /* \"#utility.yul\":11593:11666   */\n      swap2\n      pop\n        /* \"#utility.yul\":11696:11707   */\n      0x6e6f74206f776e65720000000000000000000000000000000000000000000000\n        /* \"#utility.yul\":11692:11693   */\n      0x00\n        /* \"#utility.yul\":11687:11690   */\n      dup4\n        /* \"#utility.yul\":11683:11694   */\n      add\n        /* \"#utility.yul\":11676:11708   */\n      mstore\n        /* \"#utility.yul\":11734:11736   */\n      0x20\n        /* \"#utility.yul\":11729:11732   */\n      dup3\n        /* \"#utility.yul\":11725:11737   */\n      add\n        /* \"#utility.yul\":11718:11737   */\n      swap1\n      pop\n        /* \"#utility.yul\":11583:11743   */\n      swap2\n      swap1\n      pop\n      jump\t// out\n        /* \"#utility.yul\":11749:11867   */\n    tag_554:\n        /* \"#utility.yul\":11836:11860   */\n      tag_556\n        /* \"#utility.yul\":11854:11859   */\n      dup2\n        /* \"#utility.yul\":11836:11860   */\n      tag_557\n      jump\t// in\n    tag_556:\n        /* \"#utility.yul\":11831:11834   */\n      dup3\n        /* \"#utility.yul\":11824:11861   */\n      mstore\n        /* \"#utility.yul\":11814:11867   */\n      pop\n      pop\n      jump\t// out\n        /* \"#utility.yul\":11873:12308   */\n    tag_304:\n      0x00\n        /* \"#utility.yul\":12075:12170   */\n      tag_559\n        /* \"#utility.yul\":12166:12169   */\n      dup3\n        /* \"#utility.yul\":12157:12163   */\n      dup6\n        /* \"#utility.yul\":12075:12170   */\n      tag_499\n      jump\t// in\n    tag_559:\n        /* \"#utility.yul\":12068:12170   */\n      swap2\n      pop\n        /* \"#utility.yul\":12187:12282   */\n      tag_560\n        /* \"#utility.yul\":12278:12281   */\n      dup3\n        /* \"#utility.yul\":12269:12275   */\n      dup5\n        /* \"#utility.yul\":12187:12282   */\n      tag_499\n      jump\t// in\n    tag_560:\n        /* \"#utility.yul\":12180:12282   */\n      swap2\n      pop\n        /* \"#utility.yul\":12299:12302   */\n      dup2\n        /* \"#utility.yul\":12292:12302   */\n      swap1\n      pop\n        /* \"#utility.yul\":12057:12308   */\n      swap4\n      swap3\n      pop\n      pop\n      pop\n      jump\t// out\n        /* \"#utility.yul\":12314:12693   */\n    tag_276:\n      0x00\n        /* \"#utility.yul\":12520:12667   */\n      tag_562\n        /* \"#utility.yul\":12663:12666   */\n      dup3\n        /* \"#utility.yul\":12520:12667   */\n      tag_535\n      jump\t// in\n    tag_562:\n        /* \"#utility.yul\":12513:12667   */\n      swap2\n      pop\n        /* \"#utility.yul\":12684:12687   */\n      dup2\n        /* \"#utility.yul\":12677:12687   */\n      swap1\n      pop\n        /* \"#utility.yul\":12502:12693   */\n      swap2\n      swap1\n      pop\n      jump\t// out\n        /* \"#utility.yul\":12699:12921   */\n    tag_56:\n      0x00\n        /* \"#utility.yul\":12830:12832   */\n      0x20\n        /* \"#utility.yul\":12819:12828   */\n      dup3\n        /* \"#utility.yul\":12815:12833   */\n      add\n        /* \"#utility.yul\":12807:12833   */\n      swap1\n      pop\n        /* \"#utility.yul\":12843:12914   */\n      tag_564\n        /* \"#utility.yul\":12911:12912   */\n      0x00\n        /* \"#utility.yul\":12900:12909   */\n      dup4\n        /* \"#utility.yul\":12896:12913   */\n      add\n        /* \"#utility.yul\":12887:12893   */\n      dup5\n        /* \"#utility.yul\":12843:12914   */\n      tag_473\n      jump\t// in\n    tag_564:\n        /* \"#utility.yul\":12797:12921   */\n      swap3\n      swap2\n      pop\n      pop\n      jump\t// out\n        /* \"#utility.yul\":12927:13357   */\n    tag_292:\n      0x00\n        /* \"#utility.yul\":13108:13110   */\n      0x60\n        /* \"#utility.yul\":13097:13106   */\n      dup3\n        /* \"#utility.yul\":13093:13111   */\n      add\n        /* \"#utility.yul\":13085:13111   */\n      swap1\n      pop\n        /* \"#utility.yul\":13121:13192   */\n      tag_566\n        /* \"#utility.yul\":13189:13190   */\n      0x00\n        /* \"#utility.yul\":13178:13187   */\n      dup4\n        /* \"#utility.yul\":13174:13191   */\n      add\n        /* \"#utility.yul\":13165:13171   */\n      dup7\n        /* \"#utility.yul\":13121:13192   */\n      tag_473\n      jump\t// in\n    tag_566:\n        /* \"#utility.yul\":13202:13274   */\n      tag_567\n        /* \"#utility.yul\":13270:13272   */\n      0x20\n        /* \"#utility.yul\":13259:13268   */\n      dup4\n        /* \"#utility.yul\":13255:13273   */\n      add\n        /* \"#utility.yul\":13246:13252   */\n      dup6\n        /* \"#utility.yul\":13202:13274   */\n      tag_473\n      jump\t// in\n    tag_567:\n        /* \"#utility.yul\":13284:13350   */\n      tag_568\n        /* \"#utility.yul\":13346:13348   */\n      0x40\n        /* \"#utility.yul\":13335:13344   */\n      dup4\n        /* \"#utility.yul\":13331:13349   */\n      add\n        /* \"#utility.yul\":13322:13328   */\n      dup5\n        /* \"#utility.yul\":13284:13350   */\n      tag_477\n      jump\t// in\n    tag_568:\n        /* \"#utility.yul\":13075:13357   */\n      swap5\n      swap4\n      pop\n      pop\n      pop\n      pop\n      jump\t// out\n        /* \"#utility.yul\":13363:13805   */\n    tag_315:\n      0x00\n        /* \"#utility.yul\":13550:13552   */\n      0x60\n        /* \"#utility.yul\":13539:13548   */\n      dup3\n        /* \"#utility.yul\":13535:13553   */\n      add\n        /* \"#utility.yul\":13527:13553   */\n      swap1\n      pop\n        /* \"#utility.yul\":13563:13634   */\n      tag_570\n        /* \"#utility.yul\":13631:13632   */\n      0x00\n        /* \"#utility.yul\":13620:13629   */\n      dup4\n        /* \"#utility.yul\":13616:13633   */\n      add\n        /* \"#utility.yul\":13607:13613   */\n      dup7\n        /* \"#utility.yul\":13563:13634   */\n      tag_473\n      jump\t// in\n    tag_570:\n        /* \"#utility.yul\":13644:13716   */\n      tag_571\n        /* \"#utility.yul\":13712:13714   */\n      0x20\n        /* \"#utility.yul\":13701:13710   */\n      dup4\n        /* \"#utility.yul\":13697:13715   */\n      add\n        /* \"#utility.yul\":13688:13694   */\n      dup6\n        /* \"#utility.yul\":13644:13716   */\n      tag_473\n      jump\t// in\n    tag_571:\n        /* \"#utility.yul\":13726:13798   */\n      tag_572\n        /* \"#utility.yul\":13794:13796   */\n      0x40\n        /* \"#utility.yul\":13783:13792   */\n      dup4\n        /* \"#utility.yul\":13779:13797   */\n      add\n        /* \"#utility.yul\":13770:13776   */\n      dup5\n        /* \"#utility.yul\":13726:13798   */\n      tag_554\n      jump\t// in\n    tag_572:\n        /* \"#utility.yul\":13517:13805   */\n      swap5\n      swap4\n      pop\n      pop\n      pop\n      pop\n      jump\t// out\n        /* \"#utility.yul\":13811:14451   */\n    tag_386:\n      0x00\n        /* \"#utility.yul\":14044:14047   */\n      0x80\n        /* \"#utility.yul\":14033:14042   */\n      dup3\n        /* \"#utility.yul\":14029:14048   */\n      add\n        /* \"#utility.yul\":14021:14048   */\n      swap1\n      pop\n        /* \"#utility.yul\":14058:14129   */\n      tag_574\n        /* \"#utility.yul\":14126:14127   */\n      0x00\n        /* \"#utility.yul\":14115:14124   */\n      dup4\n        /* \"#utility.yul\":14111:14128   */\n      add\n        /* \"#utility.yul\":14102:14108   */\n      dup8\n        /* \"#utility.yul\":14058:14129   */\n      tag_473\n      jump\t// in\n    tag_574:\n        /* \"#utility.yul\":14139:14211   */\n      tag_575\n        /* \"#utility.yul\":14207:14209   */\n      0x20\n        /* \"#utility.yul\":14196:14205   */\n      dup4\n        /* \"#utility.yul\":14192:14210   */\n      add\n        /* \"#utility.yul\":14183:14189   */\n      dup7\n        /* \"#utility.yul\":14139:14211   */\n      tag_473\n      jump\t// in\n    tag_575:\n        /* \"#utility.yul\":14221:14293   */\n      tag_576\n        /* \"#utility.yul\":14289:14291   */\n      0x40\n        /* \"#utility.yul\":14278:14287   */\n      dup4\n        /* \"#utility.yul\":14274:14292   */\n      add\n        /* \"#utility.yul\":14265:14271   */\n      dup6\n        /* \"#utility.yul\":14221:14293   */\n      tag_554\n      jump\t// in\n    tag_576:\n        /* \"#utility.yul\":14340:14349   */\n      dup2\n        /* \"#utility.yul\":14334:14338   */\n      dup2\n        /* \"#utility.yul\":14330:14350   */\n      sub\n        /* \"#utility.yul\":14325:14327   */\n      0x60\n        /* \"#utility.yul\":14314:14323   */\n      dup4\n        /* \"#utility.yul\":14310:14328   */\n      add\n        /* \"#utility.yul\":14303:14351   */\n      mstore\n        /* \"#utility.yul\":14368:14444   */\n      tag_577\n        /* \"#utility.yul\":14439:14443   */\n      dup2\n        /* \"#utility.yul\":14430:14436   */\n      dup5\n        /* \"#utility.yul\":14368:14444   */\n      tag_481\n      jump\t// in\n    tag_577:\n        /* \"#utility.yul\":14360:14444   */\n      swap1\n      pop\n        /* \"#utility.yul\":14011:14451   */\n      swap6\n      swap5\n      pop\n      pop\n      pop\n      pop\n      pop\n      jump\t// out\n        /* \"#utility.yul\":14457:14667   */\n    tag_44:\n      0x00\n        /* \"#utility.yul\":14582:14584   */\n      0x20\n        /* \"#utility.yul\":14571:14580   */\n      dup3\n        /* \"#utility.yul\":14567:14585   */\n      add\n        /* \"#utility.yul\":14559:14585   */\n      swap1\n      pop\n        /* \"#utility.yul\":14595:14660   */\n      tag_579\n        /* \"#utility.yul\":14657:14658   */\n      0x00\n        /* \"#utility.yul\":14646:14655   */\n      dup4\n        /* \"#utility.yul\":14642:14659   */\n      add\n        /* \"#utility.yul\":14633:14639   */\n      dup5\n        /* \"#utility.yul\":14595:14660   */\n      tag_477\n      jump\t// in\n    tag_579:\n        /* \"#utility.yul\":14549:14667   */\n      swap3\n      swap2\n      pop\n      pop\n      jump\t// out\n        /* \"#utility.yul\":14673:14986   */\n    tag_49:\n      0x00\n        /* \"#utility.yul\":14824:14826   */\n      0x20\n        /* \"#utility.yul\":14813:14822   */\n      dup3\n        /* \"#utility.yul\":14809:14827   */\n      add\n        /* \"#utility.yul\":14801:14827   */\n      swap1\n      pop\n        /* \"#utility.yul\":14873:14882   */\n      dup2\n        /* \"#utility.yul\":14867:14871   */\n      dup2\n        /* \"#utility.yul\":14863:14883   */\n      sub\n        /* \"#utility.yul\":14859:14860   */\n      0x00\n        /* \"#utility.yul\":14848:14857   */\n      dup4\n        /* \"#utility.yul\":14844:14861   */\n      add\n        /* \"#utility.yul\":14837:14884   */\n      mstore\n        /* \"#utility.yul\":14901:14979   */\n      tag_581\n        /* \"#utility.yul\":14974:14978   */\n      dup2\n        /* \"#utility.yul\":14965:14971   */\n      dup5\n        /* \"#utility.yul\":14901:14979   */\n      tag_491\n      jump\t// in\n    tag_581:\n        /* \"#utility.yul\":14893:14979   */\n      swap1\n      pop\n        /* \"#utility.yul\":14791:14986   */\n      swap3\n      swap2\n      pop\n      pop\n      jump\t// out\n        /* \"#utility.yul\":14992:15411   */\n    tag_186:\n      0x00\n        /* \"#utility.yul\":15196:15198   */\n      0x20\n        /* \"#utility.yul\":15185:15194   */\n      dup3\n        /* \"#utility.yul\":15181:15199   */\n      add\n        /* \"#utility.yul\":15173:15199   */\n      swap1\n      pop\n        /* \"#utility.yul\":15245:15254   */\n      dup2\n        /* \"#utility.yul\":15239:15243   */\n      dup2\n        /* \"#utility.yul\":15235:15255   */\n      sub\n        /* \"#utility.yul\":15231:15232   */\n      0x00\n        /* \"#utility.yul\":15220:15229   */\n      dup4\n        /* \"#utility.yul\":15216:15233   */\n      add\n        /* \"#utility.yul\":15209:15256   */\n      mstore\n        /* \"#utility.yul\":15273:15404   */\n      tag_583\n        /* \"#utility.yul\":15399:15403   */\n      dup2\n        /* \"#utility.yul\":15273:15404   */\n      tag_505\n      jump\t// in\n    tag_583:\n        /* \"#utility.yul\":15265:15404   */\n      swap1\n      pop\n        /* \"#utility.yul\":15163:15411   */\n      swap2\n      swap1\n      pop\n      jump\t// out\n        /* \"#utility.yul\":15417:15836   */\n    tag_325:\n      0x00\n        /* \"#utility.yul\":15621:15623   */\n      0x20\n        /* \"#utility.yul\":15610:15619   */\n      dup3\n        /* \"#utility.yul\":15606:15624   */\n      add\n        /* \"#utility.yul\":15598:15624   */\n      swap1\n      pop\n        /* \"#utility.yul\":15670:15679   */\n      dup2\n        /* \"#utility.yul\":15664:15668   */\n      dup2\n        /* \"#utility.yul\":15660:15680   */\n      sub\n        /* \"#utility.yul\":15656:15657   */\n      0x00\n        /* \"#utility.yul\":15645:15654   */\n      dup4\n        /* \"#utility.yul\":15641:15658   */\n      add\n        /* \"#utility.yul\":15634:15681   */\n      mstore\n        /* \"#utility.yul\":15698:15829   */\n      tag_585\n        /* \"#utility.yul\":15824:15828   */\n      dup2\n        /* \"#utility.yul\":15698:15829   */\n      tag_508\n      jump\t// in\n    tag_585:\n        /* \"#utility.yul\":15690:15829   */\n      swap1\n      pop\n        /* \"#utility.yul\":15588:15836   */\n      swap2\n      swap1\n      pop\n      jump\t// out\n        /* \"#utility.yul\":15842:16261   */\n    tag_288:\n      0x00\n        /* \"#utility.yul\":16046:16048   */\n      0x20\n        /* \"#utility.yul\":16035:16044   */\n      dup3\n        /* \"#utility.yul\":16031:16049   */\n      add\n        /* \"#utility.yul\":16023:16049   */\n      swap1\n      pop\n        /* \"#utility.yul\":16095:16104   */\n      dup2\n        /* \"#utility.yul\":16089:16093   */\n      dup2\n        /* \"#utility.yul\":16085:16105   */\n      sub\n        /* \"#utility.yul\":16081:16082   */\n      0x00\n        /* \"#utility.yul\":16070:16079   */\n      dup4\n        /* \"#utility.yul\":16066:16083   */\n      add\n        /* \"#utility.yul\":16059:16106   */\n      mstore\n        /* \"#utility.yul\":16123:16254   */\n      tag_587\n        /* \"#utility.yul\":16249:16253   */\n      dup2\n        /* \"#utility.yul\":16123:16254   */\n      tag_511\n      jump\t// in\n    tag_587:\n        /* \"#utility.yul\":16115:16254   */\n      swap1\n      pop\n        /* \"#utility.yul\":16013:16261   */\n      swap2\n      swap1\n      pop\n      jump\t// out\n        /* \"#utility.yul\":16267:16686   */\n    tag_311:\n      0x00\n        /* \"#utility.yul\":16471:16473   */\n      0x20\n        /* \"#utility.yul\":16460:16469   */\n      dup3\n        /* \"#utility.yul\":16456:16474   */\n      add\n        /* \"#utility.yul\":16448:16474   */\n      swap1\n      pop\n        /* \"#utility.yul\":16520:16529   */\n      dup2\n        /* \"#utility.yul\":16514:16518   */\n      dup2\n        /* \"#utility.yul\":16510:16530   */\n      sub\n        /* \"#utility.yul\":16506:16507   */\n      0x00\n        /* \"#utility.yul\":16495:16504   */\n      dup4\n        /* \"#utility.yul\":16491:16508   */\n      add\n        /* \"#utility.yul\":16484:16531   */\n      mstore\n        /* \"#utility.yul\":16548:16679   */\n      tag_589\n        /* \"#utility.yul\":16674:16678   */\n      dup2\n        /* \"#utility.yul\":16548:16679   */\n      tag_514\n      jump\t// in\n    tag_589:\n        /* \"#utility.yul\":16540:16679   */\n      swap1\n      pop\n        /* \"#utility.yul\":16438:16686   */\n      swap2\n      swap1\n      pop\n      jump\t// out\n        /* \"#utility.yul\":16692:17111   */\n    tag_282:\n      0x00\n        /* \"#utility.yul\":16896:16898   */\n      0x20\n        /* \"#utility.yul\":16885:16894   */\n      dup3\n        /* \"#utility.yul\":16881:16899   */\n      add\n        /* \"#utility.yul\":16873:16899   */\n      swap1\n      pop\n        /* \"#utility.yul\":16945:16954   */\n      dup2\n        /* \"#utility.yul\":16939:16943   */\n      dup2\n        /* \"#utility.yul\":16935:16955   */\n      sub\n        /* \"#utility.yul\":16931:16932   */\n      0x00\n        /* \"#utility.yul\":16920:16929   */\n      dup4\n        /* \"#utility.yul\":16916:16933   */\n      add\n        /* \"#utility.yul\":16909:16956   */\n      mstore\n        /* \"#utility.yul\":16973:17104   */\n      tag_591\n        /* \"#utility.yul\":17099:17103   */\n      dup2\n        /* \"#utility.yul\":16973:17104   */\n      tag_517\n      jump\t// in\n    tag_591:\n        /* \"#utility.yul\":16965:17104   */\n      swap1\n      pop\n        /* \"#utility.yul\":16863:17111   */\n      swap2\n      swap1\n      pop\n      jump\t// out\n        /* \"#utility.yul\":17117:17536   */\n    tag_214:\n      0x00\n        /* \"#utility.yul\":17321:17323   */\n      0x20\n        /* \"#utility.yul\":17310:17319   */\n      dup3\n        /* \"#utility.yul\":17306:17324   */\n      add\n        /* \"#utility.yul\":17298:17324   */\n      swap1\n      pop\n        /* \"#utility.yul\":17370:17379   */\n      dup2\n        /* \"#utility.yul\":17364:17368   */\n      dup2\n        /* \"#utility.yul\":17360:17380   */\n      sub\n        /* \"#utility.yul\":17356:17357   */\n      0x00\n        /* \"#utility.yul\":17345:17354   */\n      dup4\n        /* \"#utility.yul\":17341:17358   */\n      add\n        /* \"#utility.yul\":17334:17381   */\n      mstore\n        /* \"#utility.yul\":17398:17529   */\n      tag_593\n        /* \"#utility.yul\":17524:17528   */\n      dup2\n        /* \"#utility.yul\":17398:17529   */\n      tag_520\n      jump\t// in\n    tag_593:\n        /* \"#utility.yul\":17390:17529   */\n      swap1\n      pop\n        /* \"#utility.yul\":17288:17536   */\n      swap2\n      swap1\n      pop\n      jump\t// out\n        /* \"#utility.yul\":17542:17961   */\n    tag_181:\n      0x00\n        /* \"#utility.yul\":17746:17748   */\n      0x20\n        /* \"#utility.yul\":17735:17744   */\n      dup3\n        /* \"#utility.yul\":17731:17749   */\n      add\n        /* \"#utility.yul\":17723:17749   */\n      swap1\n      pop\n        /* \"#utility.yul\":17795:17804   */\n      dup2\n        /* \"#utility.yul\":17789:17793   */\n      dup2\n        /* \"#utility.yul\":17785:17805   */\n      sub\n        /* \"#utility.yul\":17781:17782   */\n      0x00\n        /* \"#utility.yul\":17770:17779   */\n      dup4\n        /* \"#utility.yul\":17766:17783   */\n      add\n        /* \"#utility.yul\":17759:17806   */\n      mstore\n        /* \"#utility.yul\":17823:17954   */\n      tag_595\n        /* \"#utility.yul\":17949:17953   */\n      dup2\n        /* \"#utility.yul\":17823:17954   */\n      tag_523\n      jump\t// in\n    tag_595:\n        /* \"#utility.yul\":17815:17954   */\n      swap1\n      pop\n        /* \"#utility.yul\":17713:17961   */\n      swap2\n      swap1\n      pop\n      jump\t// out\n        /* \"#utility.yul\":17967:18386   */\n    tag_336:\n      0x00\n        /* \"#utility.yul\":18171:18173   */\n      0x20\n        /* \"#utility.yul\":18160:18169   */\n      dup3\n        /* \"#utility.yul\":18156:18174   */\n      add\n        /* \"#utility.yul\":18148:18174   */\n      swap1\n      pop\n        /* \"#utility.yul\":18220:18229   */\n      dup2\n        /* \"#utility.yul\":18214:18218   */\n      dup2\n        /* \"#utility.yul\":18210:18230   */\n      sub\n        /* \"#utility.yul\":18206:18207   */\n      0x00\n        /* \"#utility.yul\":18195:18204   */\n      dup4\n        /* \"#utility.yul\":18191:18208   */\n      add\n        /* \"#utility.yul\":18184:18231   */\n      mstore\n        /* \"#utility.yul\":18248:18379   */\n      tag_597\n        /* \"#utility.yul\":18374:18378   */\n      dup2\n        /* \"#utility.yul\":18248:18379   */\n      tag_526\n      jump\t// in\n    tag_597:\n        /* \"#utility.yul\":18240:18379   */\n      swap1\n      pop\n        /* \"#utility.yul\":18138:18386   */\n      swap2\n      swap1\n      pop\n      jump\t// out\n        /* \"#utility.yul\":18392:18811   */\n    tag_349:\n      0x00\n        /* \"#utility.yul\":18596:18598   */\n      0x20\n        /* \"#utility.yul\":18585:18594   */\n      dup3\n        /* \"#utility.yul\":18581:18599   */\n      add\n        /* \"#utility.yul\":18573:18599   */\n      swap1\n      pop\n        /* \"#utility.yul\":18645:18654   */\n      dup2\n        /* \"#utility.yul\":18639:18643   */\n      dup2\n        /* \"#utility.yul\":18635:18655   */\n      sub\n        /* \"#utility.yul\":18631:18632   */\n      0x00\n        /* \"#utility.yul\":18620:18629   */\n      dup4\n        /* \"#utility.yul\":18616:18633   */\n      add\n        /* \"#utility.yul\":18609:18656   */\n      mstore\n        /* \"#utility.yul\":18673:18804   */\n      tag_599\n        /* \"#utility.yul\":18799:18803   */\n      dup2\n        /* \"#utility.yul\":18673:18804   */\n      tag_529\n      jump\t// in\n    tag_599:\n        /* \"#utility.yul\":18665:18804   */\n      swap1\n      pop\n        /* \"#utility.yul\":18563:18811   */\n      swap2\n      swap1\n      pop\n      jump\t// out\n        /* \"#utility.yul\":18817:19236   */\n    tag_239:\n      0x00\n        /* \"#utility.yul\":19021:19023   */\n      0x20\n        /* \"#utility.yul\":19010:19019   */\n      dup3\n        /* \"#utility.yul\":19006:19024   */\n      add\n        /* \"#utility.yul\":18998:19024   */\n      swap1\n      pop\n        /* \"#utility.yul\":19070:19079   */\n      dup2\n        /* \"#utility.yul\":19064:19068   */\n      dup2\n        /* \"#utility.yul\":19060:19080   */\n      sub\n        /* \"#utility.yul\":19056:19057   */\n      0x00\n        /* \"#utility.yul\":19045:19054   */\n      dup4\n        /* \"#utility.yul\":19041:19058   */\n      add\n        /* \"#utility.yul\":19034:19081   */\n      mstore\n        /* \"#utility.yul\":19098:19229   */\n      tag_601\n        /* \"#utility.yul\":19224:19228   */\n      dup2\n        /* \"#utility.yul\":19098:19229   */\n      tag_532\n      jump\t// in\n    tag_601:\n        /* \"#utility.yul\":19090:19229   */\n      swap1\n      pop\n        /* \"#utility.yul\":18988:19236   */\n      swap2\n      swap1\n      pop\n      jump\t// out\n        /* \"#utility.yul\":19242:19661   */\n    tag_224:\n      0x00\n        /* \"#utility.yul\":19446:19448   */\n      0x20\n        /* \"#utility.yul\":19435:19444   */\n      dup3\n        /* \"#utility.yul\":19431:19449   */\n      add\n        /* \"#utility.yul\":19423:19449   */\n      swap1\n      pop\n        /* \"#utility.yul\":19495:19504   */\n      dup2\n        /* \"#utility.yul\":19489:19493   */\n      dup2\n        /* \"#utility.yul\":19485:19505   */\n      sub\n        /* \"#utility.yul\":19481:19482   */\n      0x00\n        /* \"#utility.yul\":19470:19479   */\n      dup4\n        /* \"#utility.yul\":19466:19483   */\n      add\n        /* \"#utility.yul\":19459:19506   */\n      mstore\n        /* \"#utility.yul\":19523:19654   */\n      tag_603\n        /* \"#utility.yul\":19649:19653   */\n      dup2\n        /* \"#utility.yul\":19523:19654   */\n      tag_539\n      jump\t// in\n    tag_603:\n        /* \"#utility.yul\":19515:19654   */\n      swap1\n      pop\n        /* \"#utility.yul\":19413:19661   */\n      swap2\n      swap1\n      pop\n      jump\t// out\n        /* \"#utility.yul\":19667:20086   */\n    tag_296:\n      0x00\n        /* \"#utility.yul\":19871:19873   */\n      0x20\n        /* \"#utility.yul\":19860:19869   */\n      dup3\n        /* \"#utility.yul\":19856:19874   */\n      add\n        /* \"#utility.yul\":19848:19874   */\n      swap1\n      pop\n        /* \"#utility.yul\":19920:19929   */\n      dup2\n        /* \"#utility.yul\":19914:19918   */\n      dup2\n        /* \"#utility.yul\":19910:19930   */\n      sub\n        /* \"#utility.yul\":19906:19907   */\n      0x00\n        /* \"#utility.yul\":19895:19904   */\n      dup4\n        /* \"#utility.yul\":19891:19908   */\n      add\n        /* \"#utility.yul\":19884:19931   */\n      mstore\n        /* \"#utility.yul\":19948:20079   */\n      tag_605\n        /* \"#utility.yul\":20074:20078   */\n      dup2\n        /* \"#utility.yul\":19948:20079   */\n      tag_542\n      jump\t// in\n    tag_605:\n        /* \"#utility.yul\":19940:20079   */\n      swap1\n      pop\n        /* \"#utility.yul\":19838:20086   */\n      swap2\n      swap1\n      pop\n      jump\t// out\n        /* \"#utility.yul\":20092:20511   */\n    tag_343:\n      0x00\n        /* \"#utility.yul\":20296:20298   */\n      0x20\n        /* \"#utility.yul\":20285:20294   */\n      dup3\n        /* \"#utility.yul\":20281:20299   */\n      add\n        /* \"#utility.yul\":20273:20299   */\n      swap1\n      pop\n        /* \"#utility.yul\":20345:20354   */\n      dup2\n        /* \"#utility.yul\":20339:20343   */\n      dup2\n        /* \"#utility.yul\":20335:20355   */\n      sub\n        /* \"#utility.yul\":20331:20332   */\n      0x00\n        /* \"#utility.yul\":20320:20329   */\n      dup4\n        /* \"#utility.yul\":20316:20333   */\n      add\n        /* \"#utility.yul\":20309:20356   */\n      mstore\n        /* \"#utility.yul\":20373:20504   */\n      tag_607\n        /* \"#utility.yul\":20499:20503   */\n      dup2\n        /* \"#utility.yul\":20373:20504   */\n      tag_545\n      jump\t// in\n    tag_607:\n        /* \"#utility.yul\":20365:20504   */\n      swap1\n      pop\n        /* \"#utility.yul\":20263:20511   */\n      swap2\n      swap1\n      pop\n      jump\t// out\n        /* \"#utility.yul\":20517:20936   */\n    tag_220:\n      0x00\n        /* \"#utility.yul\":20721:20723   */\n      0x20\n        /* \"#utility.yul\":20710:20719   */\n      dup3\n        /* \"#utility.yul\":20706:20724   */\n      add\n        /* \"#utility.yul\":20698:20724   */\n      swap1\n      pop\n        /* \"#utility.yul\":20770:20779   */\n      dup2\n        /* \"#utility.yul\":20764:20768   */\n      dup2\n        /* \"#utility.yul\":20760:20780   */\n      sub\n        /* \"#utility.yul\":20756:20757   */\n      0x00\n        /* \"#utility.yul\":20745:20754   */\n      dup4\n        /* \"#utility.yul\":20741:20758   */\n      add\n        /* \"#utility.yul\":20734:20781   */\n      mstore\n        /* \"#utility.yul\":20798:20929   */\n      tag_609\n        /* \"#utility.yul\":20924:20928   */\n      dup2\n        /* \"#utility.yul\":20798:20929   */\n      tag_548\n      jump\t// in\n    tag_609:\n        /* \"#utility.yul\":20790:20929   */\n      swap1\n      pop\n        /* \"#utility.yul\":20688:20936   */\n      swap2\n      swap1\n      pop\n      jump\t// out\n        /* \"#utility.yul\":20942:21361   */\n    tag_322:\n      0x00\n        /* \"#utility.yul\":21146:21148   */\n      0x20\n        /* \"#utility.yul\":21135:21144   */\n      dup3\n        /* \"#utility.yul\":21131:21149   */\n      add\n        /* \"#utility.yul\":21123:21149   */\n      swap1\n      pop\n        /* \"#utility.yul\":21195:21204   */\n      dup2\n        /* \"#utility.yul\":21189:21193   */\n      dup2\n        /* \"#utility.yul\":21185:21205   */\n      sub\n        /* \"#utility.yul\":21181:21182   */\n      0x00\n        /* \"#utility.yul\":21170:21179   */\n      dup4\n        /* \"#utility.yul\":21166:21183   */\n      add\n        /* \"#utility.yul\":21159:21206   */\n      mstore\n        /* \"#utility.yul\":21223:21354   */\n      tag_611\n        /* \"#utility.yul\":21349:21353   */\n      dup2\n        /* \"#utility.yul\":21223:21354   */\n      tag_551\n      jump\t// in\n    tag_611:\n        /* \"#utility.yul\":21215:21354   */\n      swap1\n      pop\n        /* \"#utility.yul\":21113:21361   */\n      swap2\n      swap1\n      pop\n      jump\t// out\n        /* \"#utility.yul\":21367:21589   */\n    tag_66:\n      0x00\n        /* \"#utility.yul\":21498:21500   */\n      0x20\n        /* \"#utility.yul\":21487:21496   */\n      dup3\n        /* \"#utility.yul\":21483:21501   */\n      add\n        /* \"#utility.yul\":21475:21501   */\n      swap1\n      pop\n        /* \"#utility.yul\":21511:21582   */\n      tag_613\n        /* \"#utility.yul\":21579:21580   */\n      0x00\n        /* \"#utility.yul\":21568:21577   */\n      dup4\n        /* \"#utility.yul\":21564:21581   */\n      add\n        /* \"#utility.yul\":21555:21561   */\n      dup5\n        /* \"#utility.yul\":21511:21582   */\n      tag_554\n      jump\t// in\n    tag_613:\n        /* \"#utility.yul\":21465:21589   */\n      swap3\n      swap2\n      pop\n      pop\n      jump\t// out\n        /* \"#utility.yul\":21595:21878   */\n    tag_410:\n      0x00\n        /* \"#utility.yul\":21661:21663   */\n      0x40\n        /* \"#utility.yul\":21655:21664   */\n      mload\n        /* \"#utility.yul\":21645:21664   */\n      swap1\n      pop\n        /* \"#utility.yul\":21703:21707   */\n      dup2\n        /* \"#utility.yul\":21695:21701   */\n      dup2\n        /* \"#utility.yul\":21691:21708   */\n      add\n        /* \"#utility.yul\":21810:21816   */\n      dup2\n        /* \"#utility.yul\":21798:21808   */\n      dup2\n        /* \"#utility.yul\":21795:21817   */\n      lt\n        /* \"#utility.yul\":21774:21792   */\n      0xffffffffffffffff\n        /* \"#utility.yul\":21762:21772   */\n      dup3\n        /* \"#utility.yul\":21759:21793   */\n      gt\n        /* \"#utility.yul\":21756:21818   */\n      or\n        /* \"#utility.yul\":21753:21755   */\n      iszero\n      tag_615\n      jumpi\n        /* \"#utility.yul\":21821:21839   */\n      tag_616\n      tag_617\n      jump\t// in\n    tag_616:\n        /* \"#utility.yul\":21753:21755   */\n    tag_615:\n        /* \"#utility.yul\":21861:21871   */\n      dup1\n        /* \"#utility.yul\":21857:21859   */\n      0x40\n        /* \"#utility.yul\":21850:21872   */\n      mstore\n        /* \"#utility.yul\":21635:21878   */\n      pop\n      swap2\n      swap1\n      pop\n      jump\t// out\n        /* \"#utility.yul\":21884:22215   */\n    tag_409:\n      0x00\n        /* \"#utility.yul\":22035:22053   */\n      0xffffffffffffffff\n        /* \"#utility.yul\":22027:22033   */\n      dup3\n        /* \"#utility.yul\":22024:22054   */\n      gt\n        /* \"#utility.yul\":22021:22023   */\n      iszero\n      tag_619\n      jumpi\n        /* \"#utility.yul\":22057:22075   */\n      tag_620\n      tag_617\n      jump\t// in\n    tag_620:\n        /* \"#utility.yul\":22021:22023   */\n    tag_619:\n        /* \"#utility.yul\":22142:22146   */\n      0x1f\n        /* \"#utility.yul\":22138:22147   */\n      not\n        /* \"#utility.yul\":22131:22135   */\n      0x1f\n        /* \"#utility.yul\":22123:22129   */\n      dup4\n        /* \"#utility.yul\":22119:22136   */\n      add\n        /* \"#utility.yul\":22115:22148   */\n      and\n        /* \"#utility.yul\":22107:22148   */\n      swap1\n      pop\n        /* \"#utility.yul\":22203:22207   */\n      0x20\n        /* \"#utility.yul\":22197:22201   */\n      dup2\n        /* \"#utility.yul\":22193:22208   */\n      add\n        /* \"#utility.yul\":22185:22208   */\n      swap1\n      pop\n        /* \"#utility.yul\":21950:22215   */\n      swap2\n      swap1\n      pop\n      jump\t// out\n        /* \"#utility.yul\":22221:22319   */\n    tag_484:\n      0x00\n        /* \"#utility.yul\":22306:22311   */\n      dup2\n        /* \"#utility.yul\":22300:22312   */\n      mload\n        /* \"#utility.yul\":22290:22312   */\n      swap1\n      pop\n        /* \"#utility.yul\":22279:22319   */\n      swap2\n      swap1\n      pop\n      jump\t// out\n        /* \"#utility.yul\":22325:22424   */\n    tag_494:\n      0x00\n        /* \"#utility.yul\":22411:22416   */\n      dup2\n        /* \"#utility.yul\":22405:22417   */\n      mload\n        /* \"#utility.yul\":22395:22417   */\n      swap1\n      pop\n        /* \"#utility.yul\":22384:22424   */\n      swap2\n      swap1\n      pop\n      jump\t// out\n        /* \"#utility.yul\":22430:22598   */\n    tag_486:\n      0x00\n        /* \"#utility.yul\":22547:22553   */\n      dup3\n        /* \"#utility.yul\":22542:22545   */\n      dup3\n        /* \"#utility.yul\":22535:22554   */\n      mstore\n        /* \"#utility.yul\":22587:22591   */\n      0x20\n        /* \"#utility.yul\":22582:22585   */\n      dup3\n        /* \"#utility.yul\":22578:22592   */\n      add\n        /* \"#utility.yul\":22563:22592   */\n      swap1\n      pop\n        /* \"#utility.yul\":22525:22598   */\n      swap3\n      swap2\n      pop\n      pop\n      jump\t// out\n        /* \"#utility.yul\":22604:22751   */\n    tag_538:\n      0x00\n        /* \"#utility.yul\":22742:22745   */\n      dup2\n        /* \"#utility.yul\":22727:22745   */\n      swap1\n      pop\n        /* \"#utility.yul\":22717:22751   */\n      swap3\n      swap2\n      pop\n      pop\n      jump\t// out\n        /* \"#utility.yul\":22757:22926   */\n    tag_496:\n      0x00\n        /* \"#utility.yul\":22875:22881   */\n      dup3\n        /* \"#utility.yul\":22870:22873   */\n      dup3\n        /* \"#utility.yul\":22863:22882   */\n      mstore\n        /* \"#utility.yul\":22915:22919   */\n      0x20\n        /* \"#utility.yul\":22910:22913   */\n      dup3\n        /* \"#utility.yul\":22906:22920   */\n      add\n        /* \"#utility.yul\":22891:22920   */\n      swap1\n      pop\n        /* \"#utility.yul\":22853:22926   */\n      swap3\n      swap2\n      pop\n      pop\n      jump\t// out\n        /* \"#utility.yul\":22932:23080   */\n    tag_503:\n      0x00\n        /* \"#utility.yul\":23071:23074   */\n      dup2\n        /* \"#utility.yul\":23056:23074   */\n      swap1\n      pop\n        /* \"#utility.yul\":23046:23080   */\n      swap3\n      swap2\n      pop\n      pop\n      jump\t// out\n        /* \"#utility.yul\":23086:23391   */\n    tag_217:\n      0x00\n        /* \"#utility.yul\":23145:23165   */\n      tag_628\n        /* \"#utility.yul\":23163:23164   */\n      dup3\n        /* \"#utility.yul\":23145:23165   */\n      tag_557\n      jump\t// in\n    tag_628:\n        /* \"#utility.yul\":23140:23165   */\n      swap2\n      pop\n        /* \"#utility.yul\":23179:23199   */\n      tag_629\n        /* \"#utility.yul\":23197:23198   */\n      dup4\n        /* \"#utility.yul\":23179:23199   */\n      tag_557\n      jump\t// in\n    tag_629:\n        /* \"#utility.yul\":23174:23199   */\n      swap3\n      pop\n        /* \"#utility.yul\":23333:23334   */\n      dup3\n        /* \"#utility.yul\":23265:23331   */\n      0xffffffffffffffffffffffffffffffffffffffffffffffffffffffffffffffff\n        /* \"#utility.yul\":23261:23335   */\n      sub\n        /* \"#utility.yul\":23258:23259   */\n      dup3\n        /* \"#utility.yul\":23255:23336   */\n      gt\n        /* \"#utility.yul\":23252:23254   */\n      iszero\n      tag_630\n      jumpi\n        /* \"#utility.yul\":23339:23357   */\n      tag_631\n      tag_632\n      jump\t// in\n    tag_631:\n        /* \"#utility.yul\":23252:23254   */\n    tag_630:\n        /* \"#utility.yul\":23383:23384   */\n      dup3\n        /* \"#utility.yul\":23380:23381   */\n      dup3\n        /* \"#utility.yul\":23376:23385   */\n      add\n        /* \"#utility.yul\":23369:23385   */\n      swap1\n      pop\n        /* \"#utility.yul\":23130:23391   */\n      swap3\n      swap2\n      pop\n      pop\n      jump\t// out\n        /* \"#utility.yul\":23397:23582   */\n    tag_198:\n      0x00\n        /* \"#utility.yul\":23454:23474   */\n      tag_634\n        /* \"#utility.yul\":23472:23473   */\n      dup3\n        /* \"#utility.yul\":23454:23474   */\n      tag_557\n      jump\t// in\n    tag_634:\n        /* \"#utility.yul\":23449:23474   */\n      swap2\n      pop\n        /* \"#utility.yul\":23488:23508   */\n      tag_635\n        /* \"#utility.yul\":23506:23507   */\n      dup4\n        /* \"#utility.yul\":23488:23508   */\n      tag_557\n      jump\t// in\n    tag_635:\n        /* \"#utility.yul\":23483:23508   */\n      swap3\n      pop\n        /* \"#utility.yul\":23527:23528   */\n      dup3\n        /* \"#utility.yul\":23517:23519   */\n      tag_636\n      jumpi\n        /* \"#utility.yul\":23532:23550   */\n      tag_637\n      tag_638\n      jump\t// in\n    tag_637:\n        /* \"#utility.yul\":23517:23519   */\n    tag_636:\n        /* \"#utility.yul\":23574:23575   */\n      dup3\n        /* \"#utility.yul\":23571:23572   */\n      dup3\n        /* \"#utility.yul\":23567:23576   */\n      div\n        /* \"#utility.yul\":23562:23576   */\n      swap1\n      pop\n        /* \"#utility.yul\":23439:23582   */\n      swap3\n      swap2\n      pop\n      pop\n      jump\t// out\n        /* \"#utility.yul\":23588:23936   */\n    tag_270:\n      0x00\n        /* \"#utility.yul\":23651:23671   */\n      tag_640\n        /* \"#utility.yul\":23669:23670   */\n      dup3\n        /* \"#utility.yul\":23651:23671   */\n      tag_557\n      jump\t// in\n    tag_640:\n        /* \"#utility.yul\":23646:23671   */\n      swap2\n      pop\n        /* \"#utility.yul\":23685:23705   */\n      tag_641\n        /* \"#utility.yul\":23703:23704   */\n      dup4\n        /* \"#utility.yul\":23685:23705   */\n      tag_557\n      jump\t// in\n    tag_641:\n        /* \"#utility.yul\":23680:23705   */\n      swap3\n      pop\n        /* \"#utility.yul\":23873:23874   */\n      dup2\n        /* \"#utility.yul\":23805:23871   */\n      0xffffffffffffffffffffffffffffffffffffffffffffffffffffffffffffffff\n        /* \"#utility.yul\":23801:23875   */\n      div\n        /* \"#utility.yul\":23798:23799   */\n      dup4\n        /* \"#utility.yul\":23795:23876   */\n      gt\n        /* \"#utility.yul\":23790:23791   */\n      dup3\n        /* \"#utility.yul\":23783:23792   */\n      iszero\n        /* \"#utility.yul\":23776:23793   */\n      iszero\n        /* \"#utility.yul\":23772:23877   */\n      and\n        /* \"#utility.yul\":23769:23771   */\n      iszero\n      tag_642\n      jumpi\n        /* \"#utility.yul\":23880:23898   */\n      tag_643\n      tag_632\n      jump\t// in\n    tag_643:\n        /* \"#utility.yul\":23769:23771   */\n    tag_642:\n        /* \"#utility.yul\":23928:23929   */\n      dup3\n        /* \"#utility.yul\":23925:23926   */\n      dup3\n        /* \"#utility.yul\":23921:23930   */\n      mul\n        /* \"#utility.yul\":23910:23930   */\n      swap1\n      pop\n        /* \"#utility.yul\":23636:23936   */\n      swap3\n      swap2\n      pop\n      pop\n      jump\t// out\n        /* \"#utility.yul\":23942:24133   */\n    tag_200:\n      0x00\n        /* \"#utility.yul\":24002:24022   */\n      tag_645\n        /* \"#utility.yul\":24020:24021   */\n      dup3\n        /* \"#utility.yul\":24002:24022   */\n      tag_557\n      jump\t// in\n    tag_645:\n        /* \"#utility.yul\":23997:24022   */\n      swap2\n      pop\n        /* \"#utility.yul\":24036:24056   */\n      tag_646\n        /* \"#utility.yul\":24054:24055   */\n      dup4\n        /* \"#utility.yul\":24036:24056   */\n      tag_557\n      jump\t// in\n    tag_646:\n        /* \"#utility.yul\":24031:24056   */\n      swap3\n      pop\n        /* \"#utility.yul\":24075:24076   */\n      dup3\n        /* \"#utility.yul\":24072:24073   */\n      dup3\n        /* \"#utility.yul\":24069:24077   */\n      lt\n        /* \"#utility.yul\":24066:24068   */\n      iszero\n      tag_647\n      jumpi\n        /* \"#utility.yul\":24080:24098   */\n      tag_648\n      tag_632\n      jump\t// in\n    tag_648:\n        /* \"#utility.yul\":24066:24068   */\n    tag_647:\n        /* \"#utility.yul\":24125:24126   */\n      dup3\n        /* \"#utility.yul\":24122:24123   */\n      dup3\n        /* \"#utility.yul\":24118:24127   */\n      sub\n        /* \"#utility.yul\":24110:24127   */\n      swap1\n      pop\n        /* \"#utility.yul\":23987:24133   */\n      swap3\n      swap2\n      pop\n      pop\n      jump\t// out\n        /* \"#utility.yul\":24139:24235   */\n    tag_476:\n      0x00\n        /* \"#utility.yul\":24205:24229   */\n      tag_650\n        /* \"#utility.yul\":24223:24228   */\n      dup3\n        /* \"#utility.yul\":24205:24229   */\n      tag_651\n      jump\t// in\n    tag_650:\n        /* \"#utility.yul\":24194:24229   */\n      swap1\n      pop\n        /* \"#utility.yul\":24184:24235   */\n      swap2\n      swap1\n      pop\n      jump\t// out\n        /* \"#utility.yul\":24241:24331   */\n    tag_480:\n      0x00\n        /* \"#utility.yul\":24318:24323   */\n      dup2\n        /* \"#utility.yul\":24311:24324   */\n      iszero\n        /* \"#utility.yul\":24304:24325   */\n      iszero\n        /* \"#utility.yul\":24293:24325   */\n      swap1\n      pop\n        /* \"#utility.yul\":24283:24331   */\n      swap2\n      swap1\n      pop\n      jump\t// out\n        /* \"#utility.yul\":24337:24486   */\n    tag_653:\n      0x00\n        /* \"#utility.yul\":24413:24479   */\n      0xffffffff00000000000000000000000000000000000000000000000000000000\n        /* \"#utility.yul\":24406:24411   */\n      dup3\n        /* \"#utility.yul\":24402:24480   */\n      and\n        /* \"#utility.yul\":24391:24480   */\n      swap1\n      pop\n        /* \"#utility.yul\":24381:24486   */\n      swap2\n      swap1\n      pop\n      jump\t// out\n        /* \"#utility.yul\":24492:24618   */\n    tag_651:\n      0x00\n        /* \"#utility.yul\":24569:24611   */\n      0xffffffffffffffffffffffffffffffffffffffff\n        /* \"#utility.yul\":24562:24567   */\n      dup3\n        /* \"#utility.yul\":24558:24612   */\n      and\n        /* \"#utility.yul\":24547:24612   */\n      swap1\n      pop\n        /* \"#utility.yul\":24537:24618   */\n      swap2\n      swap1\n      pop\n      jump\t// out\n        /* \"#utility.yul\":24624:24701   */\n    tag_557:\n      0x00\n        /* \"#utility.yul\":24690:24695   */\n      dup2\n        /* \"#utility.yul\":24679:24695   */\n      swap1\n      pop\n        /* \"#utility.yul\":24669:24701   */\n      swap2\n      swap1\n      pop\n      jump\t// out\n        /* \"#utility.yul\":24707:24861   */\n    tag_413:\n        /* \"#utility.yul\":24791:24797   */\n      dup3\n        /* \"#utility.yul\":24786:24789   */\n      dup2\n        /* \"#utility.yul\":24781:24784   */\n      dup4\n        /* \"#utility.yul\":24768:24798   */\n      calldatacopy\n        /* \"#utility.yul\":24853:24854   */\n      0x00\n        /* \"#utility.yul\":24844:24850   */\n      dup4\n        /* \"#utility.yul\":24839:24842   */\n      dup4\n        /* \"#utility.yul\":24835:24851   */\n      add\n        /* \"#utility.yul\":24828:24855   */\n      mstore\n        /* \"#utility.yul\":24758:24861   */\n      pop\n      pop\n      pop\n      jump\t// out\n        /* \"#utility.yul\":24867:25174   */\n    tag_488:\n        /* \"#utility.yul\":24935:24936   */\n      0x00\n        /* \"#utility.yul\":24945:25058   */\n    tag_659:\n        /* \"#utility.yul\":24959:24965   */\n      dup4\n        /* \"#utility.yul\":24956:24957   */\n      dup2\n        /* \"#utility.yul\":24953:24966   */\n      lt\n        /* \"#utility.yul\":24945:25058   */\n      iszero\n      tag_661\n      jumpi\n        /* \"#utility.yul\":25044:25045   */\n      dup1\n        /* \"#utility.yul\":25039:25042   */\n      dup3\n        /* \"#utility.yul\":25035:25046   */\n      add\n        /* \"#utility.yul\":25029:25047   */\n      mload\n        /* \"#utility.yul\":25025:25026   */\n      dup2\n        /* \"#utility.yul\":25020:25023   */\n      dup5\n        /* \"#utility.yul\":25016:25027   */\n      add\n        /* \"#utility.yul\":25009:25048   */\n      mstore\n        /* \"#utility.yul\":24981:24983   */\n      0x20\n        /* \"#utility.yul\":24978:24979   */\n      dup2\n        /* \"#utility.yul\":24974:24984   */\n      add\n        /* \"#utility.yul\":24969:24984   */\n      swap1\n      pop\n        /* \"#utility.yul\":24945:25058   */\n      jump(tag_659)\n    tag_661:\n        /* \"#utility.yul\":25076:25082   */\n      dup4\n        /* \"#utility.yul\":25073:25074   */\n      dup2\n        /* \"#utility.yul\":25070:25083   */\n      gt\n        /* \"#utility.yul\":25067:25069   */\n      iszero\n      tag_662\n      jumpi\n        /* \"#utility.yul\":25156:25157   */\n      0x00\n        /* \"#utility.yul\":25147:25153   */\n      dup5\n        /* \"#utility.yul\":25142:25145   */\n      dup5\n        /* \"#utility.yul\":25138:25154   */\n      add\n        /* \"#utility.yul\":25131:25158   */\n      mstore\n        /* \"#utility.yul\":25067:25069   */\n    tag_662:\n        /* \"#utility.yul\":24916:25174   */\n      pop\n      pop\n      pop\n      pop\n      jump\t// out\n        /* \"#utility.yul\":25180:25500   */\n    tag_173:\n      0x00\n        /* \"#utility.yul\":25261:25262   */\n      0x02\n        /* \"#utility.yul\":25255:25259   */\n      dup3\n        /* \"#utility.yul\":25251:25263   */\n      div\n        /* \"#utility.yul\":25241:25263   */\n      swap1\n      pop\n        /* \"#utility.yul\":25308:25309   */\n      0x01\n        /* \"#utility.yul\":25302:25306   */\n      dup3\n        /* \"#utility.yul\":25298:25310   */\n      and\n        /* \"#utility.yul\":25329:25347   */\n      dup1\n        /* \"#utility.yul\":25319:25321   */\n      tag_664\n      jumpi\n        /* \"#utility.yul\":25385:25389   */\n      0x7f\n        /* \"#utility.yul\":25377:25383   */\n      dup3\n        /* \"#utility.yul\":25373:25390   */\n      and\n        /* \"#utility.yul\":25363:25390   */\n      swap2\n      pop\n        /* \"#utility.yul\":25319:25321   */\n    tag_664:\n        /* \"#utility.yul\":25447:25449   */\n      0x20\n        /* \"#utility.yul\":25439:25445   */\n      dup3\n        /* \"#utility.yul\":25436:25450   */\n      lt\n        /* \"#utility.yul\":25416:25434   */\n      dup2\n        /* \"#utility.yul\":25413:25451   */\n      eq\n        /* \"#utility.yul\":25410:25412   */\n      iszero\n      tag_665\n      jumpi\n        /* \"#utility.yul\":25466:25484   */\n      tag_666\n      tag_667\n      jump\t// in\n    tag_666:\n        /* \"#utility.yul\":25410:25412   */\n    tag_665:\n        /* \"#utility.yul\":25231:25500   */\n      pop\n      swap2\n      swap1\n      pop\n      jump\t// out\n        /* \"#utility.yul\":25506:25739   */\n    tag_368:\n      0x00\n        /* \"#utility.yul\":25568:25592   */\n      tag_669\n        /* \"#utility.yul\":25586:25591   */\n      dup3\n        /* \"#utility.yul\":25568:25592   */\n      tag_557\n      jump\t// in\n    tag_669:\n        /* \"#utility.yul\":25559:25592   */\n      swap2\n      pop\n        /* \"#utility.yul\":25614:25680   */\n      0xffffffffffffffffffffffffffffffffffffffffffffffffffffffffffffffff\n        /* \"#utility.yul\":25607:25612   */\n      dup3\n        /* \"#utility.yul\":25604:25681   */\n      eq\n        /* \"#utility.yul\":25601:25603   */\n      iszero\n      tag_670\n      jumpi\n        /* \"#utility.yul\":25684:25702   */\n      tag_671\n      tag_632\n      jump\t// in\n    tag_671:\n        /* \"#utility.yul\":25601:25603   */\n    tag_670:\n        /* \"#utility.yul\":25731:25732   */\n      0x01\n        /* \"#utility.yul\":25724:25729   */\n      dup3\n        /* \"#utility.yul\":25720:25733   */\n      add\n        /* \"#utility.yul\":25713:25733   */\n      swap1\n      pop\n        /* \"#utility.yul\":25549:25739   */\n      swap2\n      swap1\n      pop\n      jump\t// out\n        /* \"#utility.yul\":25745:25921   */\n    tag_376:\n      0x00\n        /* \"#utility.yul\":25794:25814   */\n      tag_673\n        /* \"#utility.yul\":25812:25813   */\n      dup3\n        /* \"#utility.yul\":25794:25814   */\n      tag_557\n      jump\t// in\n    tag_673:\n        /* \"#utility.yul\":25789:25814   */\n      swap2\n      pop\n        /* \"#utility.yul\":25828:25848   */\n      tag_674\n        /* \"#utility.yul\":25846:25847   */\n      dup4\n        /* \"#utility.yul\":25828:25848   */\n      tag_557\n      jump\t// in\n    tag_674:\n        /* \"#utility.yul\":25823:25848   */\n      swap3\n      pop\n        /* \"#utility.yul\":25867:25868   */\n      dup3\n        /* \"#utility.yul\":25857:25859   */\n      tag_675\n      jumpi\n        /* \"#utility.yul\":25872:25890   */\n      tag_676\n      tag_638\n      jump\t// in\n    tag_676:\n        /* \"#utility.yul\":25857:25859   */\n    tag_675:\n        /* \"#utility.yul\":25913:25914   */\n      dup3\n        /* \"#utility.yul\":25910:25911   */\n      dup3\n        /* \"#utility.yul\":25906:25915   */\n      mod\n        /* \"#utility.yul\":25901:25915   */\n      swap1\n      pop\n        /* \"#utility.yul\":25779:25921   */\n      swap3\n      swap2\n      pop\n      pop\n      jump\t// out\n        /* \"#utility.yul\":25927:26107   */\n    tag_632:\n        /* \"#utility.yul\":25975:26052   */\n      0x4e487b7100000000000000000000000000000000000000000000000000000000\n        /* \"#utility.yul\":25972:25973   */\n      0x00\n        /* \"#utility.yul\":25965:26053   */\n      mstore\n        /* \"#utility.yul\":26072:26076   */\n      0x11\n        /* \"#utility.yul\":26069:26070   */\n      0x04\n        /* \"#utility.yul\":26062:26077   */\n      mstore\n        /* \"#utility.yul\":26096:26100   */\n      0x24\n        /* \"#utility.yul\":26093:26094   */\n      0x00\n        /* \"#utility.yul\":26086:26101   */\n      revert\n        /* \"#utility.yul\":26113:26293   */\n    tag_638:\n        /* \"#utility.yul\":26161:26238   */\n      0x4e487b7100000000000000000000000000000000000000000000000000000000\n        /* \"#utility.yul\":26158:26159   */\n      0x00\n        /* \"#utility.yul\":26151:26239   */\n      mstore\n        /* \"#utility.yul\":26258:26262   */\n      0x12\n        /* \"#utility.yul\":26255:26256   */\n      0x04\n        /* \"#utility.yul\":26248:26263   */\n      mstore\n        /* \"#utility.yul\":26282:26286   */\n      0x24\n        /* \"#utility.yul\":26279:26280   */\n      0x00\n        /* \"#utility.yul\":26272:26287   */\n      revert\n        /* \"#utility.yul\":26299:26479   */\n    tag_667:\n        /* \"#utility.yul\":26347:26424   */\n      0x4e487b7100000000000000000000000000000000000000000000000000000000\n        /* \"#utility.yul\":26344:26345   */\n      0x00\n        /* \"#utility.yul\":26337:26425   */\n      mstore\n        /* \"#utility.yul\":26444:26448   */\n      0x22\n        /* \"#utility.yul\":26441:26442   */\n      0x04\n        /* \"#utility.yul\":26434:26449   */\n      mstore\n        /* \"#utility.yul\":26468:26472   */\n      0x24\n        /* \"#utility.yul\":26465:26466   */\n      0x00\n        /* \"#utility.yul\":26458:26473   */\n      revert\n        /* \"#utility.yul\":26485:26665   */\n    tag_617:\n        /* \"#utility.yul\":26533:26610   */\n      0x4e487b7100000000000000000000000000000000000000000000000000000000\n        /* \"#utility.yul\":26530:26531   */\n      0x00\n        /* \"#utility.yul\":26523:26611   */\n      mstore\n        /* \"#utility.yul\":26630:26634   */\n      0x41\n        /* \"#utility.yul\":26627:26628   */\n      0x04\n        /* \"#utility.yul\":26620:26635   */\n      mstore\n        /* \"#utility.yul\":26654:26658   */\n      0x24\n        /* \"#utility.yul\":26651:26652   */\n      0x00\n        /* \"#utility.yul\":26644:26659   */\n      revert\n        /* \"#utility.yul\":26671:26773   */\n    tag_490:\n      0x00\n        /* \"#utility.yul\":26763:26765   */\n      0x1f\n        /* \"#utility.yul\":26759:26766   */\n      not\n        /* \"#utility.yul\":26754:26756   */\n      0x1f\n        /* \"#utility.yul\":26747:26752   */\n      dup4\n        /* \"#utility.yul\":26743:26757   */\n      add\n        /* \"#utility.yul\":26739:26767   */\n      and\n        /* \"#utility.yul\":26729:26767   */\n      swap1\n      pop\n        /* \"#utility.yul\":26719:26773   */\n      swap2\n      swap1\n      pop\n      jump\t// out\n        /* \"#utility.yul\":26779:26901   */\n    tag_417:\n        /* \"#utility.yul\":26852:26876   */\n      tag_683\n        /* \"#utility.yul\":26870:26875   */\n      dup2\n        /* \"#utility.yul\":26852:26876   */\n      tag_476\n      jump\t// in\n    tag_683:\n        /* \"#utility.yul\":26845:26850   */\n      dup2\n        /* \"#utility.yul\":26842:26877   */\n      eq\n        /* \"#utility.yul\":26832:26834   */\n      tag_684\n      jumpi\n        /* \"#utility.yul\":26891:26892   */\n      0x00\n        /* \"#utility.yul\":26888:26889   */\n      dup1\n        /* \"#utility.yul\":26881:26893   */\n      revert\n        /* \"#utility.yul\":26832:26834   */\n    tag_684:\n        /* \"#utility.yul\":26822:26901   */\n      pop\n      jump\t// out\n        /* \"#utility.yul\":26907:27023   */\n    tag_421:\n        /* \"#utility.yul\":26977:26998   */\n      tag_686\n        /* \"#utility.yul\":26992:26997   */\n      dup2\n        /* \"#utility.yul\":26977:26998   */\n      tag_480\n      jump\t// in\n    tag_686:\n        /* \"#utility.yul\":26970:26975   */\n      dup2\n        /* \"#utility.yul\":26967:26999   */\n      eq\n        /* \"#utility.yul\":26957:26959   */\n      tag_687\n      jumpi\n        /* \"#utility.yul\":27013:27014   */\n      0x00\n        /* \"#utility.yul\":27010:27011   */\n      dup1\n        /* \"#utility.yul\":27003:27015   */\n      revert\n        /* \"#utility.yul\":26957:26959   */\n    tag_687:\n        /* \"#utility.yul\":26947:27023   */\n      pop\n      jump\t// out\n        /* \"#utility.yul\":27029:27149   */\n    tag_425:\n        /* \"#utility.yul\":27101:27124   */\n      tag_689\n        /* \"#utility.yul\":27118:27123   */\n      dup2\n        /* \"#utility.yul\":27101:27124   */\n      tag_653\n      jump\t// in\n    tag_689:\n        /* \"#utility.yul\":27094:27099   */\n      dup2\n        /* \"#utility.yul\":27091:27125   */\n      eq\n        /* \"#utility.yul\":27081:27083   */\n      tag_690\n      jumpi\n        /* \"#utility.yul\":27139:27140   */\n      0x00\n        /* \"#utility.yul\":27136:27137   */\n      dup1\n        /* \"#utility.yul\":27129:27141   */\n      revert\n        /* \"#utility.yul\":27081:27083   */\n    tag_690:\n        /* \"#utility.yul\":27071:27149   */\n      pop\n      jump\t// out\n        /* \"#utility.yul\":27155:27277   */\n    tag_436:\n        /* \"#utility.yul\":27228:27252   */\n      tag_692\n        /* \"#utility.yul\":27246:27251   */\n      dup2\n        /* \"#utility.yul\":27228:27252   */\n      tag_557\n      jump\t// in\n    tag_692:\n        /* \"#utility.yul\":27221:27226   */\n      dup2\n        /* \"#utility.yul\":27218:27253   */\n      eq\n        /* \"#utility.yul\":27208:27210   */\n      tag_693\n      jumpi\n        /* \"#utility.yul\":27267:27268   */\n      0x00\n        /* \"#utility.yul\":27264:27265   */\n      dup1\n        /* \"#utility.yul\":27257:27269   */\n      revert\n        /* \"#utility.yul\":27208:27210   */\n    tag_693:\n        /* \"#utility.yul\":27198:27277   */\n      pop\n      jump\t// out\n    stop\n    data_dafc31c82e8c1246735c704fbbbc212321f9d708db16d4c6b2535806b69475d9 697066733a2f2f516d635667457535434c70474a655a5a45765346334c6a3352556d6b77574b5562524c71695472516356565539772f\n\n    auxdata: 0xa26469706673582212202acee03f6fc97e4828e35b698362e74c5b81077bbe13b5f5acf610b76f488f3e64736f6c63430008000033\n}\n",
				"bytecode": {
					"linkReferences": {},
					"object": "60806040523480156200001157600080fd5b50604051620034e2380380620034e283398181016040528101906200003791906200028a565b8181620000596200004d6200009c60201b60201c565b620000a460201b60201c565b81600190805190602001906200007192919062000168565b5080600290805190602001906200008a92919062000168565b5050504260078190555050506200042e565b600033905090565b60008060009054906101000a900473ffffffffffffffffffffffffffffffffffffffff169050816000806101000a81548173ffffffffffffffffffffffffffffffffffffffff021916908373ffffffffffffffffffffffffffffffffffffffff1602179055508173ffffffffffffffffffffffffffffffffffffffff168173ffffffffffffffffffffffffffffffffffffffff167f8be0079c531659141344cd1fd0a4f28419497f9722a3daafe3b4186f6b6457e060405160405180910390a35050565b82805462000176906200039a565b90600052602060002090601f0160209004810192826200019a5760008555620001e6565b82601f10620001b557805160ff1916838001178555620001e6565b82800160010185558215620001e6579182015b82811115620001e5578251825591602001919060010190620001c8565b5b509050620001f59190620001f9565b5090565b5b8082111562000214576000816000905550600101620001fa565b5090565b60006200022f620002298462000331565b620002fd565b9050828152602081018484840111156200024857600080fd5b6200025584828562000364565b509392505050565b600082601f8301126200026f57600080fd5b81516200028184826020860162000218565b91505092915050565b600080604083850312156200029e57600080fd5b600083015167ffffffffffffffff811115620002b957600080fd5b620002c7858286016200025d565b925050602083015167ffffffffffffffff811115620002e557600080fd5b620002f3858286016200025d565b9150509250929050565b6000604051905081810181811067ffffffffffffffff82111715620003275762000326620003ff565b5b8060405250919050565b600067ffffffffffffffff8211156200034f576200034e620003ff565b5b601f19601f8301169050602081019050919050565b60005b838110156200038457808201518184015260208101905062000367565b8381111562000394576000848401525b50505050565b60006002820490506001821680620003b357607f821691505b60208210811415620003ca57620003c9620003d0565b5b50919050565b7f4e487b7100000000000000000000000000000000000000000000000000000000600052602260045260246000fd5b7f4e487b7100000000000000000000000000000000000000000000000000000000600052604160045260246000fd5b6130a4806200043e6000396000f3fe6080604052600436106101c25760003560e01c806370a08231116100f7578063ac44600211610095578063c87b56dd11610064578063c87b56dd146105fd578063da4609771461063a578063e985e9c514610665578063f2fde38b146106a2576101c2565b8063ac44600214610569578063b88d4fde14610580578063beae6637146105a9578063c5e51b9e146105d4576101c2565b80638a75191e116100d15780638a75191e146104bf5780638da5cb5b146104e857806395d89b411461051357806398d5fdca1461053e576101c2565b806370a0823114610440578063715018a61461047d57806378e9792514610494576101c2565b80633609ac8f1161016457806342842e0e1161013e57806342842e0e146103935780634d3554c3146103bc578063538f1672146103d85780636352211e14610403576101c2565b80633609ac8f146103145780633badcb561461033f5780633e0a322d1461036a576101c2565b8063095ea7b3116101a0578063095ea7b31461026c578063096dc66f1461029557806318160ddd146102c057806323b872dd146102eb576101c2565b806301ffc9a7146101c757806306fdde0314610204578063081812fc1461022f575b600080fd5b3480156101d357600080fd5b506101ee60048036038101906101e9919061230c565b6106cb565b6040516101fb91906129b1565b60405180910390f35b34801561021057600080fd5b50610219610805565b60405161022691906129cc565b60405180910390f35b34801561023b57600080fd5b506102566004803603810190610251919061235e565b610893565b60405161026391906128dc565b60405180910390f35b34801561027857600080fd5b50610293600480360381019061028e91906122d0565b610972565b005b3480156102a157600080fd5b506102aa610ab9565b6040516102b79190612bce565b60405180910390f35b3480156102cc57600080fd5b506102d5610abe565b6040516102e29190612bce565b60405180910390f35b3480156102f757600080fd5b50610312600480360381019061030d91906121ca565b610acb565b005b34801561032057600080fd5b50610329610afe565b6040516103369190612bce565b60405180910390f35b34801561034b57600080fd5b50610354610b0a565b6040516103619190612bce565b60405180910390f35b34801561037657600080fd5b50610391600480360381019061038c919061235e565b610b42565b005b34801561039f57600080fd5b506103ba60048036038101906103b591906121ca565b610b54565b005b6103d660048036038101906103d1919061235e565b610b83565b005b3480156103e457600080fd5b506103ed610cf4565b6040516103fa9190612bce565b60405180910390f35b34801561040f57600080fd5b5061042a6004803603810190610425919061235e565b610cfa565b60405161043791906128dc565b60405180910390f35b34801561044c57600080fd5b5061046760048036038101906104629190612165565b610da7565b6040516104749190612bce565b60405180910390f35b34801561048957600080fd5b50610492610e5f565b005b3480156104a057600080fd5b506104a9610e73565b6040516104b69190612bce565b60405180910390f35b3480156104cb57600080fd5b506104e660048036038101906104e1919061235e565b610e79565b005b3480156104f457600080fd5b506104fd610ef5565b60405161050a91906128dc565b60405180910390f35b34801561051f57600080fd5b50610528610f1e565b60405161053591906129cc565b60405180910390f35b34801561054a57600080fd5b50610553610fac565b6040516105609190612bce565b60405180910390f35b34801561057557600080fd5b5061057e611069565b005b34801561058c57600080fd5b506105a760048036038101906105a29190612219565b611120565b005b3480156105b557600080fd5b506105be61118b565b6040516105cb9190612bce565b60405180910390f35b3480156105e057600080fd5b506105fb60048036038101906105f69190612294565b611191565b005b34801561060957600080fd5b50610624600480360381019061061f919061235e565b611264565b60405161063191906129cc565b60405180910390f35b34801561064657600080fd5b5061064f611366565b60405161065c9190612bce565b60405180910390f35b34801561067157600080fd5b5061068c6004803603810190610687919061218e565b611372565b60405161069991906129b1565b60405180910390f35b3480156106ae57600080fd5b506106c960048036038101906106c49190612165565b611406565b005b60007fe765f736000000000000000000000000000000000000000000000000000000007bffffffffffffffffffffffffffffffffffffffffffffffffffffffff1916827bffffffffffffffffffffffffffffffffffffffffffffffffffffffff1916148061079657507f01ffc9a7000000000000000000000000000000000000000000000000000000007bffffffffffffffffffffffffffffffffffffffffffffffffffffffff1916827bffffffffffffffffffffffffffffffffffffffffffffffffffffffff1916145b806107fe57507f5b5e139f000000000000000000000000000000000000000000000000000000007bffffffffffffffffffffffffffffffffffffffffffffffffffffffff1916827bffffffffffffffffffffffffffffffffffffffffffffffffffffffff1916145b9050919050565b6001805461081290612e63565b80601f016020809104026020016040519081016040528092919081815260200182805461083e90612e63565b801561088b5780601f106108605761010080835404028352916020019161088b565b820191906000526020600020905b81548152906001019060200180831161086e57829003601f168201915b505050505081565b60008073ffffffffffffffffffffffffffffffffffffffff166003600084815260200190815260200160002060009054906101000a900473ffffffffffffffffffffffffffffffffffffffff1673ffffffffffffffffffffffffffffffffffffffff161415610937576040517f08c379a000000000000000000000000000000000000000000000000000000000815260040161092e90612aae565b60405180910390fd5b6005600083815260200190815260200160002060009054906101000a900473ffffffffffffffffffffffffffffffffffffffff169050919050565b60006003600083815260200190815260200160002060009054906101000a900473ffffffffffffffffffffffffffffffffffffffff1690508073ffffffffffffffffffffffffffffffffffffffff163373ffffffffffffffffffffffffffffffffffffffff161480610a6a5750600660008273ffffffffffffffffffffffffffffffffffffffff1673ffffffffffffffffffffffffffffffffffffffff16815260200190815260200160002060003373ffffffffffffffffffffffffffffffffffffffff1673ffffffffffffffffffffffffffffffffffffffff16815260200190815260200160002060009054906101000a900460ff165b610aa9576040517f08c379a0000000000000000000000000000000000000000000000000000000008152600401610aa0906129ee565b60405180910390fd5b610ab481848461148a565b505050565b603c81565b6000600980549050905090565b6000610ad682610cfa565b9050610ae381338461151c565b610aec57600080fd5b610af881858585611650565b50505050565b670de0b6b3a764000081565b603c610258610b199190612cee565b67016345785d8a0000670de0b6b3a7640000610b359190612d79565b610b3f9190612cee565b81565b610b4a61187b565b8060078190555050565b6000610b5f82610cfa565b9050610b7d81858585604051806020016040528060008152506118f9565b50505050565b6000600754905060008114158015610b9b5750804210155b610bda576040517f08c379a0000000000000000000000000000000000000000000000000000000008152600401610bd190612a8e565b60405180910390fd5b6127106001610be7610abe565b610bf19190612c98565b1115610c32576040517f08c379a0000000000000000000000000000000000000000000000000000000008152600401610c2990612b8e565b60405180910390fd5b6000610c3c610fac565b905080341015610c81576040517f08c379a0000000000000000000000000000000000000000000000000000000008152600401610c7890612b2e565b60405180910390fd5b610c8b3384611957565b610c9483611b52565b80341115610cef573373ffffffffffffffffffffffffffffffffffffffff166108fc8234610cc29190612d79565b9081150290604051600060405180830381858888f19350505050158015610ced573d6000803e3d6000fd5b505b505050565b61271081565b60006003600083815260200190815260200160002060009054906101000a900473ffffffffffffffffffffffffffffffffffffffff169050600073ffffffffffffffffffffffffffffffffffffffff168173ffffffffffffffffffffffffffffffffffffffff161415610da2576040517f08c379a0000000000000000000000000000000000000000000000000000000008152600401610d9990612aae565b60405180910390fd5b919050565b60008073ffffffffffffffffffffffffffffffffffffffff168273ffffffffffffffffffffffffffffffffffffffff161415610e18576040517f08c379a0000000000000000000000000000000000000000000000000000000008152600401610e0f90612b0e565b60405180910390fd5b600460008373ffffffffffffffffffffffffffffffffffffffff1673ffffffffffffffffffffffffffffffffffffffff168152602001908152602001600020549050919050565b610e6761187b565b610e716000611b7e565b565b60075481565b610e8161187b565b6040518060600160405280603681526020016130396036913960088281548110610ed4577f4e487b7100000000000000000000000000000000000000000000000000000000600052603260045260246000fd5b906000526020600020019080519060200190610ef1929190611ff1565b5050565b60008060009054906101000a900473ffffffffffffffffffffffffffffffffffffffff16905090565b60028054610f2b90612e63565b80601f0160208091040260200160405190810160405280929190818152602001828054610f5790612e63565b8015610fa45780601f10610f7957610100808354040283529160200191610fa4565b820191906000526020600020905b815481529060010190602001808311610f8757829003601f168201915b505050505081565b600080600754905080421015610fcd57670de0b6b3a7640000915050611066565b61025881610fdb9190612c98565b4210610ff25767016345785d8a0000915050611066565b6000603c82426110029190612d79565b61100c9190612cee565b9050603c61025861101d9190612cee565b67016345785d8a0000670de0b6b3a76400006110399190612d79565b6110439190612cee565b8161104e9190612d1f565b670de0b6b3a76400006110619190612d79565b925050505b90565b61107161187b565b60003373ffffffffffffffffffffffffffffffffffffffff1647604051611097906128c7565b60006040518083038185875af1925050503d80600081146110d4576040519150601f19603f3d011682016040523d82523d6000602084013e6110d9565b606091505b505090508061111d576040517f08c379a000000000000000000000000000000000000000000000000000000000815260040161111490612a6e565b60405180910390fd5b50565b600061112b83610cfa565b905061113881338561151c565b611177576040517f08c379a000000000000000000000000000000000000000000000000000000000815260040161116e90612a2e565b60405180910390fd5b61118481868686866118f9565b5050505050565b61025881565b80600660003373ffffffffffffffffffffffffffffffffffffffff1673ffffffffffffffffffffffffffffffffffffffff16815260200190815260200160002060008473ffffffffffffffffffffffffffffffffffffffff1673ffffffffffffffffffffffffffffffffffffffff16815260200190815260200160002060006101000a81548160ff0219169083151502179055507f6e58f42f8934de1bf5b284476ba8126ee2d334c7aacf1ac87c6d4ebdb6ffb683338383604051611258939291906128f7565b60405180910390a15050565b6060600073ffffffffffffffffffffffffffffffffffffffff166003600084815260200190815260200160002060009054906101000a900473ffffffffffffffffffffffffffffffffffffffff1673ffffffffffffffffffffffffffffffffffffffff161415611309576040517f08c379a000000000000000000000000000000000000000000000000000000000815260040161130090612b4e565b60405180910390fd5b6000611313611c42565b90506000815111611333576040518060200160405280600081525061135e565b8061133d84611d17565b60405160200161134e9291906128a3565b6040516020818303038152906040525b915050919050565b67016345785d8a000081565b6000600660008473ffffffffffffffffffffffffffffffffffffffff1673ffffffffffffffffffffffffffffffffffffffff16815260200190815260200160002060008373ffffffffffffffffffffffffffffffffffffffff1673ffffffffffffffffffffffffffffffffffffffff16815260200190815260200160002060009054906101000a900460ff16905092915050565b61140e61187b565b600073ffffffffffffffffffffffffffffffffffffffff168173ffffffffffffffffffffffffffffffffffffffff16141561147e576040517f08c379a000000000000000000000000000000000000000000000000000000000815260040161147590612a4e565b60405180910390fd5b61148781611b7e565b50565b816005600083815260200190815260200160002060006101000a81548173ffffffffffffffffffffffffffffffffffffffff021916908373ffffffffffffffffffffffffffffffffffffffff1602179055507f6e11fb1b7f119e3f2fa29896ef5fdf8b8a2d0d4df6fe90ba8668e7d8b2ffa25e83838360405161150f9392919061292e565b60405180910390a1505050565b60008373ffffffffffffffffffffffffffffffffffffffff168373ffffffffffffffffffffffffffffffffffffffff1614806115b657508273ffffffffffffffffffffffffffffffffffffffff166005600084815260200190815260200160002060009054906101000a900473ffffffffffffffffffffffffffffffffffffffff1673ffffffffffffffffffffffffffffffffffffffff16145b806116475750600660008573ffffffffffffffffffffffffffffffffffffffff1673ffffffffffffffffffffffffffffffffffffffff16815260200190815260200160002060008473ffffffffffffffffffffffffffffffffffffffff1673ffffffffffffffffffffffffffffffffffffffff16815260200190815260200160002060009054906101000a900460ff165b90509392505050565b8373ffffffffffffffffffffffffffffffffffffffff168373ffffffffffffffffffffffffffffffffffffffff16146116be576040517f08c379a00000000000000000000000000000000000000000000000000000000081526004016116b590612bae565b60405180910390fd5b600073ffffffffffffffffffffffffffffffffffffffff168273ffffffffffffffffffffffffffffffffffffffff16141561172e576040517f08c379a000000000000000000000000000000000000000000000000000000000815260040161172590612a0e565b60405180910390fd5b61173a8460008361148a565b6001600460008573ffffffffffffffffffffffffffffffffffffffff1673ffffffffffffffffffffffffffffffffffffffff168152602001908152602001600020600082825461178a9190612d79565b925050819055506001600460008473ffffffffffffffffffffffffffffffffffffffff1673ffffffffffffffffffffffffffffffffffffffff16815260200190815260200160002060008282546117e19190612c98565b92505081905550816003600083815260200190815260200160002060006101000a81548173ffffffffffffffffffffffffffffffffffffffff021916908373ffffffffffffffffffffffffffffffffffffffff1602179055507fddf252ad1be2c89b69c2b068fc378daa952ba7f163c4a11628f55a4df523b3ef83838360405161186d9392919061292e565b60405180910390a150505050565b611883611ec4565b73ffffffffffffffffffffffffffffffffffffffff166118a1610ef5565b73ffffffffffffffffffffffffffffffffffffffff16146118f7576040517f08c379a00000000000000000000000000000000000000000000000000000000081526004016118ee90612ace565b60405180910390fd5b565b61190585858585611650565b61191184848484611ecc565b611950576040517f08c379a000000000000000000000000000000000000000000000000000000000815260040161194790612b6e565b60405180910390fd5b5050505050565b600073ffffffffffffffffffffffffffffffffffffffff168273ffffffffffffffffffffffffffffffffffffffff1614156119c7576040517f08c379a00000000000000000000000000000000000000000000000000000000081526004016119be90612a0e565b60405180910390fd5b600073ffffffffffffffffffffffffffffffffffffffff166003600083815260200190815260200160002060009054906101000a900473ffffffffffffffffffffffffffffffffffffffff1673ffffffffffffffffffffffffffffffffffffffff1614611a69576040517f08c379a0000000000000000000000000000000000000000000000000000000008152600401611a6090612aee565b60405180910390fd5b6001600460008473ffffffffffffffffffffffffffffffffffffffff1673ffffffffffffffffffffffffffffffffffffffff1681526020019081526020016000206000828254611ab99190612c98565b92505081905550816003600083815260200190815260200160002060006101000a81548173ffffffffffffffffffffffffffffffffffffffff021916908373ffffffffffffffffffffffffffffffffffffffff1602179055507fddf252ad1be2c89b69c2b068fc378daa952ba7f163c4a11628f55a4df523b3ef60008383604051611b469392919061292e565b60405180910390a15050565b600981908060018154018082558091505060019003906000526020600020016000909190919091505550565b60008060009054906101000a900473ffffffffffffffffffffffffffffffffffffffff169050816000806101000a81548173ffffffffffffffffffffffffffffffffffffffff021916908373ffffffffffffffffffffffffffffffffffffffff1602179055508173ffffffffffffffffffffffffffffffffffffffff168173ffffffffffffffffffffffffffffffffffffffff167f8be0079c531659141344cd1fd0a4f28419497f9722a3daafe3b4186f6b6457e060405160405180910390a35050565b60606008600081548110611c7f577f4e487b7100000000000000000000000000000000000000000000000000000000600052603260045260246000fd5b906000526020600020018054611c9490612e63565b80601f0160208091040260200160405190810160405280929190818152602001828054611cc090612e63565b8015611d0d5780601f10611ce257610100808354040283529160200191611d0d565b820191906000526020600020905b815481529060010190602001808311611cf057829003601f168201915b5050505050905090565b60606000821415611d5f576040518060400160405280600181526020017f30000000000000000000000000000000000000000000000000000000000000008152509050611ebf565b600082905060005b60008214611d91578080611d7a90612e95565b915050600a82611d8a9190612cee565b9150611d67565b60008167ffffffffffffffff811115611dd3577f4e487b7100000000000000000000000000000000000000000000000000000000600052604160045260246000fd5b6040519080825280601f01601f191660200182016040528015611e055781602001600182028036833780820191505090505b5090505b60008514611eb857600182611e1e9190612d79565b9150600a85611e2d9190612ede565b6030611e399190612c98565b60f81b818381518110611e75577f4e487b7100000000000000000000000000000000000000000000000000000000600052603260045260246000fd5b60200101907effffffffffffffffffffffffffffffffffffffffffffffffffffffffffffff1916908160001a905350600a85611eb19190612cee565b9450611e09565b8093505050505b919050565b600033905090565b6000611eed8473ffffffffffffffffffffffffffffffffffffffff16611fde565b15611fd15763150b7a0260e01b7bffffffffffffffffffffffffffffffffffffffffffffffffffffffff19168473ffffffffffffffffffffffffffffffffffffffff1663150b7a02338887876040518563ffffffff1660e01b8152600401611f589493929190612965565b602060405180830381600087803b158015611f7257600080fd5b505af1158015611f86573d6000803e3d6000fd5b505050506040513d601f19601f82011682018060405250810190611faa9190612335565b7bffffffffffffffffffffffffffffffffffffffffffffffffffffffff1916149050611fd6565b600190505b949350505050565b600080823b905060008111915050919050565b828054611ffd90612e63565b90600052602060002090601f01602090048101928261201f5760008555612066565b82601f1061203857805160ff1916838001178555612066565b82800160010185558215612066579182015b8281111561206557825182559160200191906001019061204a565b5b5090506120739190612077565b5090565b5b80821115612090576000816000905550600101612078565b5090565b60006120a76120a284612c1a565b612be9565b9050828152602081018484840111156120bf57600080fd5b6120ca848285612e21565b509392505050565b6000813590506120e181612fdc565b92915050565b6000813590506120f681612ff3565b92915050565b60008135905061210b8161300a565b92915050565b6000815190506121208161300a565b92915050565b600082601f83011261213757600080fd5b8135612147848260208601612094565b91505092915050565b60008135905061215f81613021565b92915050565b60006020828403121561217757600080fd5b6000612185848285016120d2565b91505092915050565b600080604083850312156121a157600080fd5b60006121af858286016120d2565b92505060206121c0858286016120d2565b9150509250929050565b6000806000606084860312156121df57600080fd5b60006121ed868287016120d2565b93505060206121fe868287016120d2565b925050604061220f86828701612150565b9150509250925092565b6000806000806080858703121561222f57600080fd5b600061223d878288016120d2565b945050602061224e878288016120d2565b935050604061225f87828801612150565b925050606085013567ffffffffffffffff81111561227c57600080fd5b61228887828801612126565b91505092959194509250565b600080604083850312156122a757600080fd5b60006122b5858286016120d2565b92505060206122c6858286016120e7565b9150509250929050565b600080604083850312156122e357600080fd5b60006122f1858286016120d2565b925050602061230285828601612150565b9150509250929050565b60006020828403121561231e57600080fd5b600061232c848285016120fc565b91505092915050565b60006020828403121561234757600080fd5b600061235584828501612111565b91505092915050565b60006020828403121561237057600080fd5b600061237e84828501612150565b91505092915050565b61239081612dad565b82525050565b61239f81612dbf565b82525050565b60006123b082612c4a565b6123ba8185612c60565b93506123ca818560208601612e30565b6123d381612fcb565b840191505092915050565b60006123e982612c55565b6123f38185612c7c565b9350612403818560208601612e30565b61240c81612fcb565b840191505092915050565b600061242282612c55565b61242c8185612c8d565b935061243c818560208601612e30565b80840191505092915050565b6000612455601d83612c7c565b91507f6e6f74206f776e6572206f7220617070726f76656420666f7220616c6c0000006000830152602082019050919050565b6000612495600f83612c7c565b91507f746f2069732030206164647265737300000000000000000000000000000000006000830152602082019050919050565b60006124d5601683612c7c565b91507f6e6f74206f776e6572206e6f7220617070726f766564000000000000000000006000830152602082019050919050565b6000612515602683612c7c565b91507f4f776e61626c653a206e6577206f776e657220697320746865207a65726f206160008301527f64647265737300000000000000000000000000000000000000000000000000006020830152604082019050919050565b600061257b600f83612c7c565b91507f5472616e73666572206661696c656400000000000000000000000000000000006000830152602082019050919050565b60006125bb601883612c7c565b91507f73616c6520686173206e6f7420737461727465642079657400000000000000006000830152602082019050919050565b60006125fb601383612c7c565b91507f746f6b656e20646f65736e2774206578697374000000000000000000000000006000830152602082019050919050565b600061263b602083612c7c565b91507f4f776e61626c653a2063616c6c6572206973206e6f7420746865206f776e65726000830152602082019050919050565b600061267b601483612c7c565b91507f746f6b656e20616c7265616479206d696e7465640000000000000000000000006000830152602082019050919050565b60006126bb601183612c7c565b91507f6f776e6572203d203020616464726573730000000000000000000000000000006000830152602082019050919050565b60006126fb600083612c71565b9150600082019050919050565b6000612715601683612c7c565b91507f4e65656420746f2073656e64206d6f7265204554482e000000000000000000006000830152602082019050919050565b6000612755600f83612c7c565b91507f546f6b656e206e6f7420657869737400000000000000000000000000000000006000830152602082019050919050565b6000612795601283612c7c565b91507f6e6f7420455243373231526563656976657200000000000000000000000000006000830152602082019050919050565b60006127d5604883612c7c565b91507f6e6f7420656e6f7567682072656d61696e696e6720726573657276656420666f60008301527f722061756374696f6e20746f20737570706f72742064657369726564206d696e60208301527f7420616d6f756e740000000000000000000000000000000000000000000000006040830152606082019050919050565b6000612861600983612c7c565b91507f6e6f74206f776e657200000000000000000000000000000000000000000000006000830152602082019050919050565b61289d81612e17565b82525050565b60006128af8285612417565b91506128bb8284612417565b91508190509392505050565b60006128d2826126ee565b9150819050919050565b60006020820190506128f16000830184612387565b92915050565b600060608201905061290c6000830186612387565b6129196020830185612387565b6129266040830184612396565b949350505050565b60006060820190506129436000830186612387565b6129506020830185612387565b61295d6040830184612894565b949350505050565b600060808201905061297a6000830187612387565b6129876020830186612387565b6129946040830185612894565b81810360608301526129a681846123a5565b905095945050505050565b60006020820190506129c66000830184612396565b92915050565b600060208201905081810360008301526129e681846123de565b905092915050565b60006020820190508181036000830152612a0781612448565b9050919050565b60006020820190508181036000830152612a2781612488565b9050919050565b60006020820190508181036000830152612a47816124c8565b9050919050565b60006020820190508181036000830152612a6781612508565b9050919050565b60006020820190508181036000830152612a878161256e565b9050919050565b60006020820190508181036000830152612aa7816125ae565b9050919050565b60006020820190508181036000830152612ac7816125ee565b9050919050565b60006020820190508181036000830152612ae78161262e565b9050919050565b60006020820190508181036000830152612b078161266e565b9050919050565b60006020820190508181036000830152612b27816126ae565b9050919050565b60006020820190508181036000830152612b4781612708565b9050919050565b60006020820190508181036000830152612b6781612748565b9050919050565b60006020820190508181036000830152612b8781612788565b9050919050565b60006020820190508181036000830152612ba7816127c8565b9050919050565b60006020820190508181036000830152612bc781612854565b9050919050565b6000602082019050612be36000830184612894565b92915050565b6000604051905081810181811067ffffffffffffffff82111715612c1057612c0f612f9c565b5b8060405250919050565b600067ffffffffffffffff821115612c3557612c34612f9c565b5b601f19601f8301169050602081019050919050565b600081519050919050565b600081519050919050565b600082825260208201905092915050565b600081905092915050565b600082825260208201905092915050565b600081905092915050565b6000612ca382612e17565b9150612cae83612e17565b9250827fffffffffffffffffffffffffffffffffffffffffffffffffffffffffffffffff03821115612ce357612ce2612f0f565b5b828201905092915050565b6000612cf982612e17565b9150612d0483612e17565b925082612d1457612d13612f3e565b5b828204905092915050565b6000612d2a82612e17565b9150612d3583612e17565b9250817fffffffffffffffffffffffffffffffffffffffffffffffffffffffffffffffff0483118215151615612d6e57612d6d612f0f565b5b828202905092915050565b6000612d8482612e17565b9150612d8f83612e17565b925082821015612da257612da1612f0f565b5b828203905092915050565b6000612db882612df7565b9050919050565b60008115159050919050565b60007fffffffff0000000000000000000000000000000000000000000000000000000082169050919050565b600073ffffffffffffffffffffffffffffffffffffffff82169050919050565b6000819050919050565b82818337600083830152505050565b60005b83811015612e4e578082015181840152602081019050612e33565b83811115612e5d576000848401525b50505050565b60006002820490506001821680612e7b57607f821691505b60208210811415612e8f57612e8e612f6d565b5b50919050565b6000612ea082612e17565b91507fffffffffffffffffffffffffffffffffffffffffffffffffffffffffffffffff821415612ed357612ed2612f0f565b5b600182019050919050565b6000612ee982612e17565b9150612ef483612e17565b925082612f0457612f03612f3e565b5b828206905092915050565b7f4e487b7100000000000000000000000000000000000000000000000000000000600052601160045260246000fd5b7f4e487b7100000000000000000000000000000000000000000000000000000000600052601260045260246000fd5b7f4e487b7100000000000000000000000000000000000000000000000000000000600052602260045260246000fd5b7f4e487b7100000000000000000000000000000000000000000000000000000000600052604160045260246000fd5b6000601f19601f8301169050919050565b612fe581612dad565b8114612ff057600080fd5b50565b612ffc81612dbf565b811461300757600080fd5b50565b61301381612dcb565b811461301e57600080fd5b50565b61302a81612e17565b811461303557600080fd5b5056fe697066733a2f2f516d635667457535434c70474a655a5a45765346334c6a3352556d6b77574b5562524c71695472516356565539772fa26469706673582212202acee03f6fc97e4828e35b698362e74c5b81077bbe13b5f5acf610b76f488f3e64736f6c63430008000033",
					"opcodes": "PUSH1 0x80 PUSH1 0x40 MSTORE CALLVALUE DUP1 ISZERO PUSH3 0x11 JUMPI PUSH1 0x0 DUP1 REVERT JUMPDEST POP PUSH1 0x40 MLOAD PUSH3 0x34E2 CODESIZE SUB DUP1 PUSH3 0x34E2 DUP4 CODECOPY DUP2 DUP2 ADD PUSH1 0x40 MSTORE DUP2 ADD SWAP1 PUSH3 0x37 SWAP2 SWAP1 PUSH3 0x28A JUMP JUMPDEST DUP2 DUP2 PUSH3 0x59 PUSH3 0x4D PUSH3 0x9C PUSH1 0x20 SHL PUSH1 0x20 SHR JUMP JUMPDEST PUSH3 0xA4 PUSH1 0x20 SHL PUSH1 0x20 SHR JUMP JUMPDEST DUP2 PUSH1 0x1 SWAP1 DUP1 MLOAD SWAP1 PUSH1 0x20 ADD SWAP1 PUSH3 0x71 SWAP3 SWAP2 SWAP1 PUSH3 0x168 JUMP JUMPDEST POP DUP1 PUSH1 0x2 SWAP1 DUP1 MLOAD SWAP1 PUSH1 0x20 ADD SWAP1 PUSH3 0x8A SWAP3 SWAP2 SWAP1 PUSH3 0x168 JUMP JUMPDEST POP POP POP TIMESTAMP PUSH1 0x7 DUP2 SWAP1 SSTORE POP POP POP PUSH3 0x42E JUMP JUMPDEST PUSH1 0x0 CALLER SWAP1 POP SWAP1 JUMP JUMPDEST PUSH1 0x0 DUP1 PUSH1 0x0 SWAP1 SLOAD SWAP1 PUSH2 0x100 EXP SWAP1 DIV PUSH20 0xFFFFFFFFFFFFFFFFFFFFFFFFFFFFFFFFFFFFFFFF AND SWAP1 POP DUP2 PUSH1 0x0 DUP1 PUSH2 0x100 EXP DUP2 SLOAD DUP2 PUSH20 0xFFFFFFFFFFFFFFFFFFFFFFFFFFFFFFFFFFFFFFFF MUL NOT AND SWAP1 DUP4 PUSH20 0xFFFFFFFFFFFFFFFFFFFFFFFFFFFFFFFFFFFFFFFF AND MUL OR SWAP1 SSTORE POP DUP2 PUSH20 0xFFFFFFFFFFFFFFFFFFFFFFFFFFFFFFFFFFFFFFFF AND DUP2 PUSH20 0xFFFFFFFFFFFFFFFFFFFFFFFFFFFFFFFFFFFFFFFF AND PUSH32 0x8BE0079C531659141344CD1FD0A4F28419497F9722A3DAAFE3B4186F6B6457E0 PUSH1 0x40 MLOAD PUSH1 0x40 MLOAD DUP1 SWAP2 SUB SWAP1 LOG3 POP POP JUMP JUMPDEST DUP3 DUP1 SLOAD PUSH3 0x176 SWAP1 PUSH3 0x39A JUMP JUMPDEST SWAP1 PUSH1 0x0 MSTORE PUSH1 0x20 PUSH1 0x0 KECCAK256 SWAP1 PUSH1 0x1F ADD PUSH1 0x20 SWAP1 DIV DUP2 ADD SWAP3 DUP3 PUSH3 0x19A JUMPI PUSH1 0x0 DUP6 SSTORE PUSH3 0x1E6 JUMP JUMPDEST DUP3 PUSH1 0x1F LT PUSH3 0x1B5 JUMPI DUP1 MLOAD PUSH1 0xFF NOT AND DUP4 DUP1 ADD OR DUP6 SSTORE PUSH3 0x1E6 JUMP JUMPDEST DUP3 DUP1 ADD PUSH1 0x1 ADD DUP6 SSTORE DUP3 ISZERO PUSH3 0x1E6 JUMPI SWAP2 DUP3 ADD JUMPDEST DUP3 DUP2 GT ISZERO PUSH3 0x1E5 JUMPI DUP3 MLOAD DUP3 SSTORE SWAP2 PUSH1 0x20 ADD SWAP2 SWAP1 PUSH1 0x1 ADD SWAP1 PUSH3 0x1C8 JUMP JUMPDEST JUMPDEST POP SWAP1 POP PUSH3 0x1F5 SWAP2 SWAP1 PUSH3 0x1F9 JUMP JUMPDEST POP SWAP1 JUMP JUMPDEST JUMPDEST DUP1 DUP3 GT ISZERO PUSH3 0x214 JUMPI PUSH1 0x0 DUP2 PUSH1 0x0 SWAP1 SSTORE POP PUSH1 0x1 ADD PUSH3 0x1FA JUMP JUMPDEST POP SWAP1 JUMP JUMPDEST PUSH1 0x0 PUSH3 0x22F PUSH3 0x229 DUP5 PUSH3 0x331 JUMP JUMPDEST PUSH3 0x2FD JUMP JUMPDEST SWAP1 POP DUP3 DUP2 MSTORE PUSH1 0x20 DUP2 ADD DUP5 DUP5 DUP5 ADD GT ISZERO PUSH3 0x248 JUMPI PUSH1 0x0 DUP1 REVERT JUMPDEST PUSH3 0x255 DUP5 DUP3 DUP6 PUSH3 0x364 JUMP JUMPDEST POP SWAP4 SWAP3 POP POP POP JUMP JUMPDEST PUSH1 0x0 DUP3 PUSH1 0x1F DUP4 ADD SLT PUSH3 0x26F JUMPI PUSH1 0x0 DUP1 REVERT JUMPDEST DUP2 MLOAD PUSH3 0x281 DUP5 DUP3 PUSH1 0x20 DUP7 ADD PUSH3 0x218 JUMP JUMPDEST SWAP2 POP POP SWAP3 SWAP2 POP POP JUMP JUMPDEST PUSH1 0x0 DUP1 PUSH1 0x40 DUP4 DUP6 SUB SLT ISZERO PUSH3 0x29E JUMPI PUSH1 0x0 DUP1 REVERT JUMPDEST PUSH1 0x0 DUP4 ADD MLOAD PUSH8 0xFFFFFFFFFFFFFFFF DUP2 GT ISZERO PUSH3 0x2B9 JUMPI PUSH1 0x0 DUP1 REVERT JUMPDEST PUSH3 0x2C7 DUP6 DUP3 DUP7 ADD PUSH3 0x25D JUMP JUMPDEST SWAP3 POP POP PUSH1 0x20 DUP4 ADD MLOAD PUSH8 0xFFFFFFFFFFFFFFFF DUP2 GT ISZERO PUSH3 0x2E5 JUMPI PUSH1 0x0 DUP1 REVERT JUMPDEST PUSH3 0x2F3 DUP6 DUP3 DUP7 ADD PUSH3 0x25D JUMP JUMPDEST SWAP2 POP POP SWAP3 POP SWAP3 SWAP1 POP JUMP JUMPDEST PUSH1 0x0 PUSH1 0x40 MLOAD SWAP1 POP DUP2 DUP2 ADD DUP2 DUP2 LT PUSH8 0xFFFFFFFFFFFFFFFF DUP3 GT OR ISZERO PUSH3 0x327 JUMPI PUSH3 0x326 PUSH3 0x3FF JUMP JUMPDEST JUMPDEST DUP1 PUSH1 0x40 MSTORE POP SWAP2 SWAP1 POP JUMP JUMPDEST PUSH1 0x0 PUSH8 0xFFFFFFFFFFFFFFFF DUP3 GT ISZERO PUSH3 0x34F JUMPI PUSH3 0x34E PUSH3 0x3FF JUMP JUMPDEST JUMPDEST PUSH1 0x1F NOT PUSH1 0x1F DUP4 ADD AND SWAP1 POP PUSH1 0x20 DUP2 ADD SWAP1 POP SWAP2 SWAP1 POP JUMP JUMPDEST PUSH1 0x0 JUMPDEST DUP4 DUP2 LT ISZERO PUSH3 0x384 JUMPI DUP1 DUP3 ADD MLOAD DUP2 DUP5 ADD MSTORE PUSH1 0x20 DUP2 ADD SWAP1 POP PUSH3 0x367 JUMP JUMPDEST DUP4 DUP2 GT ISZERO PUSH3 0x394 JUMPI PUSH1 0x0 DUP5 DUP5 ADD MSTORE JUMPDEST POP POP POP POP JUMP JUMPDEST PUSH1 0x0 PUSH1 0x2 DUP3 DIV SWAP1 POP PUSH1 0x1 DUP3 AND DUP1 PUSH3 0x3B3 JUMPI PUSH1 0x7F DUP3 AND SWAP2 POP JUMPDEST PUSH1 0x20 DUP3 LT DUP2 EQ ISZERO PUSH3 0x3CA JUMPI PUSH3 0x3C9 PUSH3 0x3D0 JUMP JUMPDEST JUMPDEST POP SWAP2 SWAP1 POP JUMP JUMPDEST PUSH32 0x4E487B7100000000000000000000000000000000000000000000000000000000 PUSH1 0x0 MSTORE PUSH1 0x22 PUSH1 0x4 MSTORE PUSH1 0x24 PUSH1 0x0 REVERT JUMPDEST PUSH32 0x4E487B7100000000000000000000000000000000000000000000000000000000 PUSH1 0x0 MSTORE PUSH1 0x41 PUSH1 0x4 MSTORE PUSH1 0x24 PUSH1 0x0 REVERT JUMPDEST PUSH2 0x30A4 DUP1 PUSH3 0x43E PUSH1 0x0 CODECOPY PUSH1 0x0 RETURN INVALID PUSH1 0x80 PUSH1 0x40 MSTORE PUSH1 0x4 CALLDATASIZE LT PUSH2 0x1C2 JUMPI PUSH1 0x0 CALLDATALOAD PUSH1 0xE0 SHR DUP1 PUSH4 0x70A08231 GT PUSH2 0xF7 JUMPI DUP1 PUSH4 0xAC446002 GT PUSH2 0x95 JUMPI DUP1 PUSH4 0xC87B56DD GT PUSH2 0x64 JUMPI DUP1 PUSH4 0xC87B56DD EQ PUSH2 0x5FD JUMPI DUP1 PUSH4 0xDA460977 EQ PUSH2 0x63A JUMPI DUP1 PUSH4 0xE985E9C5 EQ PUSH2 0x665 JUMPI DUP1 PUSH4 0xF2FDE38B EQ PUSH2 0x6A2 JUMPI PUSH2 0x1C2 JUMP JUMPDEST DUP1 PUSH4 0xAC446002 EQ PUSH2 0x569 JUMPI DUP1 PUSH4 0xB88D4FDE EQ PUSH2 0x580 JUMPI DUP1 PUSH4 0xBEAE6637 EQ PUSH2 0x5A9 JUMPI DUP1 PUSH4 0xC5E51B9E EQ PUSH2 0x5D4 JUMPI PUSH2 0x1C2 JUMP JUMPDEST DUP1 PUSH4 0x8A75191E GT PUSH2 0xD1 JUMPI DUP1 PUSH4 0x8A75191E EQ PUSH2 0x4BF JUMPI DUP1 PUSH4 0x8DA5CB5B EQ PUSH2 0x4E8 JUMPI DUP1 PUSH4 0x95D89B41 EQ PUSH2 0x513 JUMPI DUP1 PUSH4 0x98D5FDCA EQ PUSH2 0x53E JUMPI PUSH2 0x1C2 JUMP JUMPDEST DUP1 PUSH4 0x70A08231 EQ PUSH2 0x440 JUMPI DUP1 PUSH4 0x715018A6 EQ PUSH2 0x47D JUMPI DUP1 PUSH4 0x78E97925 EQ PUSH2 0x494 JUMPI PUSH2 0x1C2 JUMP JUMPDEST DUP1 PUSH4 0x3609AC8F GT PUSH2 0x164 JUMPI DUP1 PUSH4 0x42842E0E GT PUSH2 0x13E JUMPI DUP1 PUSH4 0x42842E0E EQ PUSH2 0x393 JUMPI DUP1 PUSH4 0x4D3554C3 EQ PUSH2 0x3BC JUMPI DUP1 PUSH4 0x538F1672 EQ PUSH2 0x3D8 JUMPI DUP1 PUSH4 0x6352211E EQ PUSH2 0x403 JUMPI PUSH2 0x1C2 JUMP JUMPDEST DUP1 PUSH4 0x3609AC8F EQ PUSH2 0x314 JUMPI DUP1 PUSH4 0x3BADCB56 EQ PUSH2 0x33F JUMPI DUP1 PUSH4 0x3E0A322D EQ PUSH2 0x36A JUMPI PUSH2 0x1C2 JUMP JUMPDEST DUP1 PUSH4 0x95EA7B3 GT PUSH2 0x1A0 JUMPI DUP1 PUSH4 0x95EA7B3 EQ PUSH2 0x26C JUMPI DUP1 PUSH4 0x96DC66F EQ PUSH2 0x295 JUMPI DUP1 PUSH4 0x18160DDD EQ PUSH2 0x2C0 JUMPI DUP1 PUSH4 0x23B872DD EQ PUSH2 0x2EB JUMPI PUSH2 0x1C2 JUMP JUMPDEST DUP1 PUSH4 0x1FFC9A7 EQ PUSH2 0x1C7 JUMPI DUP1 PUSH4 0x6FDDE03 EQ PUSH2 0x204 JUMPI DUP1 PUSH4 0x81812FC EQ PUSH2 0x22F JUMPI JUMPDEST PUSH1 0x0 DUP1 REVERT JUMPDEST CALLVALUE DUP1 ISZERO PUSH2 0x1D3 JUMPI PUSH1 0x0 DUP1 REVERT JUMPDEST POP PUSH2 0x1EE PUSH1 0x4 DUP1 CALLDATASIZE SUB DUP2 ADD SWAP1 PUSH2 0x1E9 SWAP2 SWAP1 PUSH2 0x230C JUMP JUMPDEST PUSH2 0x6CB JUMP JUMPDEST PUSH1 0x40 MLOAD PUSH2 0x1FB SWAP2 SWAP1 PUSH2 0x29B1 JUMP JUMPDEST PUSH1 0x40 MLOAD DUP1 SWAP2 SUB SWAP1 RETURN JUMPDEST CALLVALUE DUP1 ISZERO PUSH2 0x210 JUMPI PUSH1 0x0 DUP1 REVERT JUMPDEST POP PUSH2 0x219 PUSH2 0x805 JUMP JUMPDEST PUSH1 0x40 MLOAD PUSH2 0x226 SWAP2 SWAP1 PUSH2 0x29CC JUMP JUMPDEST PUSH1 0x40 MLOAD DUP1 SWAP2 SUB SWAP1 RETURN JUMPDEST CALLVALUE DUP1 ISZERO PUSH2 0x23B JUMPI PUSH1 0x0 DUP1 REVERT JUMPDEST POP PUSH2 0x256 PUSH1 0x4 DUP1 CALLDATASIZE SUB DUP2 ADD SWAP1 PUSH2 0x251 SWAP2 SWAP1 PUSH2 0x235E JUMP JUMPDEST PUSH2 0x893 JUMP JUMPDEST PUSH1 0x40 MLOAD PUSH2 0x263 SWAP2 SWAP1 PUSH2 0x28DC JUMP JUMPDEST PUSH1 0x40 MLOAD DUP1 SWAP2 SUB SWAP1 RETURN JUMPDEST CALLVALUE DUP1 ISZERO PUSH2 0x278 JUMPI PUSH1 0x0 DUP1 REVERT JUMPDEST POP PUSH2 0x293 PUSH1 0x4 DUP1 CALLDATASIZE SUB DUP2 ADD SWAP1 PUSH2 0x28E SWAP2 SWAP1 PUSH2 0x22D0 JUMP JUMPDEST PUSH2 0x972 JUMP JUMPDEST STOP JUMPDEST CALLVALUE DUP1 ISZERO PUSH2 0x2A1 JUMPI PUSH1 0x0 DUP1 REVERT JUMPDEST POP PUSH2 0x2AA PUSH2 0xAB9 JUMP JUMPDEST PUSH1 0x40 MLOAD PUSH2 0x2B7 SWAP2 SWAP1 PUSH2 0x2BCE JUMP JUMPDEST PUSH1 0x40 MLOAD DUP1 SWAP2 SUB SWAP1 RETURN JUMPDEST CALLVALUE DUP1 ISZERO PUSH2 0x2CC JUMPI PUSH1 0x0 DUP1 REVERT JUMPDEST POP PUSH2 0x2D5 PUSH2 0xABE JUMP JUMPDEST PUSH1 0x40 MLOAD PUSH2 0x2E2 SWAP2 SWAP1 PUSH2 0x2BCE JUMP JUMPDEST PUSH1 0x40 MLOAD DUP1 SWAP2 SUB SWAP1 RETURN JUMPDEST CALLVALUE DUP1 ISZERO PUSH2 0x2F7 JUMPI PUSH1 0x0 DUP1 REVERT JUMPDEST POP PUSH2 0x312 PUSH1 0x4 DUP1 CALLDATASIZE SUB DUP2 ADD SWAP1 PUSH2 0x30D SWAP2 SWAP1 PUSH2 0x21CA JUMP JUMPDEST PUSH2 0xACB JUMP JUMPDEST STOP JUMPDEST CALLVALUE DUP1 ISZERO PUSH2 0x320 JUMPI PUSH1 0x0 DUP1 REVERT JUMPDEST POP PUSH2 0x329 PUSH2 0xAFE JUMP JUMPDEST PUSH1 0x40 MLOAD PUSH2 0x336 SWAP2 SWAP1 PUSH2 0x2BCE JUMP JUMPDEST PUSH1 0x40 MLOAD DUP1 SWAP2 SUB SWAP1 RETURN JUMPDEST CALLVALUE DUP1 ISZERO PUSH2 0x34B JUMPI PUSH1 0x0 DUP1 REVERT JUMPDEST POP PUSH2 0x354 PUSH2 0xB0A JUMP JUMPDEST PUSH1 0x40 MLOAD PUSH2 0x361 SWAP2 SWAP1 PUSH2 0x2BCE JUMP JUMPDEST PUSH1 0x40 MLOAD DUP1 SWAP2 SUB SWAP1 RETURN JUMPDEST CALLVALUE DUP1 ISZERO PUSH2 0x376 JUMPI PUSH1 0x0 DUP1 REVERT JUMPDEST POP PUSH2 0x391 PUSH1 0x4 DUP1 CALLDATASIZE SUB DUP2 ADD SWAP1 PUSH2 0x38C SWAP2 SWAP1 PUSH2 0x235E JUMP JUMPDEST PUSH2 0xB42 JUMP JUMPDEST STOP JUMPDEST CALLVALUE DUP1 ISZERO PUSH2 0x39F JUMPI PUSH1 0x0 DUP1 REVERT JUMPDEST POP PUSH2 0x3BA PUSH1 0x4 DUP1 CALLDATASIZE SUB DUP2 ADD SWAP1 PUSH2 0x3B5 SWAP2 SWAP1 PUSH2 0x21CA JUMP JUMPDEST PUSH2 0xB54 JUMP JUMPDEST STOP JUMPDEST PUSH2 0x3D6 PUSH1 0x4 DUP1 CALLDATASIZE SUB DUP2 ADD SWAP1 PUSH2 0x3D1 SWAP2 SWAP1 PUSH2 0x235E JUMP JUMPDEST PUSH2 0xB83 JUMP JUMPDEST STOP JUMPDEST CALLVALUE DUP1 ISZERO PUSH2 0x3E4 JUMPI PUSH1 0x0 DUP1 REVERT JUMPDEST POP PUSH2 0x3ED PUSH2 0xCF4 JUMP JUMPDEST PUSH1 0x40 MLOAD PUSH2 0x3FA SWAP2 SWAP1 PUSH2 0x2BCE JUMP JUMPDEST PUSH1 0x40 MLOAD DUP1 SWAP2 SUB SWAP1 RETURN JUMPDEST CALLVALUE DUP1 ISZERO PUSH2 0x40F JUMPI PUSH1 0x0 DUP1 REVERT JUMPDEST POP PUSH2 0x42A PUSH1 0x4 DUP1 CALLDATASIZE SUB DUP2 ADD SWAP1 PUSH2 0x425 SWAP2 SWAP1 PUSH2 0x235E JUMP JUMPDEST PUSH2 0xCFA JUMP JUMPDEST PUSH1 0x40 MLOAD PUSH2 0x437 SWAP2 SWAP1 PUSH2 0x28DC JUMP JUMPDEST PUSH1 0x40 MLOAD DUP1 SWAP2 SUB SWAP1 RETURN JUMPDEST CALLVALUE DUP1 ISZERO PUSH2 0x44C JUMPI PUSH1 0x0 DUP1 REVERT JUMPDEST POP PUSH2 0x467 PUSH1 0x4 DUP1 CALLDATASIZE SUB DUP2 ADD SWAP1 PUSH2 0x462 SWAP2 SWAP1 PUSH2 0x2165 JUMP JUMPDEST PUSH2 0xDA7 JUMP JUMPDEST PUSH1 0x40 MLOAD PUSH2 0x474 SWAP2 SWAP1 PUSH2 0x2BCE JUMP JUMPDEST PUSH1 0x40 MLOAD DUP1 SWAP2 SUB SWAP1 RETURN JUMPDEST CALLVALUE DUP1 ISZERO PUSH2 0x489 JUMPI PUSH1 0x0 DUP1 REVERT JUMPDEST POP PUSH2 0x492 PUSH2 0xE5F JUMP JUMPDEST STOP JUMPDEST CALLVALUE DUP1 ISZERO PUSH2 0x4A0 JUMPI PUSH1 0x0 DUP1 REVERT JUMPDEST POP PUSH2 0x4A9 PUSH2 0xE73 JUMP JUMPDEST PUSH1 0x40 MLOAD PUSH2 0x4B6 SWAP2 SWAP1 PUSH2 0x2BCE JUMP JUMPDEST PUSH1 0x40 MLOAD DUP1 SWAP2 SUB SWAP1 RETURN JUMPDEST CALLVALUE DUP1 ISZERO PUSH2 0x4CB JUMPI PUSH1 0x0 DUP1 REVERT JUMPDEST POP PUSH2 0x4E6 PUSH1 0x4 DUP1 CALLDATASIZE SUB DUP2 ADD SWAP1 PUSH2 0x4E1 SWAP2 SWAP1 PUSH2 0x235E JUMP JUMPDEST PUSH2 0xE79 JUMP JUMPDEST STOP JUMPDEST CALLVALUE DUP1 ISZERO PUSH2 0x4F4 JUMPI PUSH1 0x0 DUP1 REVERT JUMPDEST POP PUSH2 0x4FD PUSH2 0xEF5 JUMP JUMPDEST PUSH1 0x40 MLOAD PUSH2 0x50A SWAP2 SWAP1 PUSH2 0x28DC JUMP JUMPDEST PUSH1 0x40 MLOAD DUP1 SWAP2 SUB SWAP1 RETURN JUMPDEST CALLVALUE DUP1 ISZERO PUSH2 0x51F JUMPI PUSH1 0x0 DUP1 REVERT JUMPDEST POP PUSH2 0x528 PUSH2 0xF1E JUMP JUMPDEST PUSH1 0x40 MLOAD PUSH2 0x535 SWAP2 SWAP1 PUSH2 0x29CC JUMP JUMPDEST PUSH1 0x40 MLOAD DUP1 SWAP2 SUB SWAP1 RETURN JUMPDEST CALLVALUE DUP1 ISZERO PUSH2 0x54A JUMPI PUSH1 0x0 DUP1 REVERT JUMPDEST POP PUSH2 0x553 PUSH2 0xFAC JUMP JUMPDEST PUSH1 0x40 MLOAD PUSH2 0x560 SWAP2 SWAP1 PUSH2 0x2BCE JUMP JUMPDEST PUSH1 0x40 MLOAD DUP1 SWAP2 SUB SWAP1 RETURN JUMPDEST CALLVALUE DUP1 ISZERO PUSH2 0x575 JUMPI PUSH1 0x0 DUP1 REVERT JUMPDEST POP PUSH2 0x57E PUSH2 0x1069 JUMP JUMPDEST STOP JUMPDEST CALLVALUE DUP1 ISZERO PUSH2 0x58C JUMPI PUSH1 0x0 DUP1 REVERT JUMPDEST POP PUSH2 0x5A7 PUSH1 0x4 DUP1 CALLDATASIZE SUB DUP2 ADD SWAP1 PUSH2 0x5A2 SWAP2 SWAP1 PUSH2 0x2219 JUMP JUMPDEST PUSH2 0x1120 JUMP JUMPDEST STOP JUMPDEST CALLVALUE DUP1 ISZERO PUSH2 0x5B5 JUMPI PUSH1 0x0 DUP1 REVERT JUMPDEST POP PUSH2 0x5BE PUSH2 0x118B JUMP JUMPDEST PUSH1 0x40 MLOAD PUSH2 0x5CB SWAP2 SWAP1 PUSH2 0x2BCE JUMP JUMPDEST PUSH1 0x40 MLOAD DUP1 SWAP2 SUB SWAP1 RETURN JUMPDEST CALLVALUE DUP1 ISZERO PUSH2 0x5E0 JUMPI PUSH1 0x0 DUP1 REVERT JUMPDEST POP PUSH2 0x5FB PUSH1 0x4 DUP1 CALLDATASIZE SUB DUP2 ADD SWAP1 PUSH2 0x5F6 SWAP2 SWAP1 PUSH2 0x2294 JUMP JUMPDEST PUSH2 0x1191 JUMP JUMPDEST STOP JUMPDEST CALLVALUE DUP1 ISZERO PUSH2 0x609 JUMPI PUSH1 0x0 DUP1 REVERT JUMPDEST POP PUSH2 0x624 PUSH1 0x4 DUP1 CALLDATASIZE SUB DUP2 ADD SWAP1 PUSH2 0x61F SWAP2 SWAP1 PUSH2 0x235E JUMP JUMPDEST PUSH2 0x1264 JUMP JUMPDEST PUSH1 0x40 MLOAD PUSH2 0x631 SWAP2 SWAP1 PUSH2 0x29CC JUMP JUMPDEST PUSH1 0x40 MLOAD DUP1 SWAP2 SUB SWAP1 RETURN JUMPDEST CALLVALUE DUP1 ISZERO PUSH2 0x646 JUMPI PUSH1 0x0 DUP1 REVERT JUMPDEST POP PUSH2 0x64F PUSH2 0x1366 JUMP JUMPDEST PUSH1 0x40 MLOAD PUSH2 0x65C SWAP2 SWAP1 PUSH2 0x2BCE JUMP JUMPDEST PUSH1 0x40 MLOAD DUP1 SWAP2 SUB SWAP1 RETURN JUMPDEST CALLVALUE DUP1 ISZERO PUSH2 0x671 JUMPI PUSH1 0x0 DUP1 REVERT JUMPDEST POP PUSH2 0x68C PUSH1 0x4 DUP1 CALLDATASIZE SUB DUP2 ADD SWAP1 PUSH2 0x687 SWAP2 SWAP1 PUSH2 0x218E JUMP JUMPDEST PUSH2 0x1372 JUMP JUMPDEST PUSH1 0x40 MLOAD PUSH2 0x699 SWAP2 SWAP1 PUSH2 0x29B1 JUMP JUMPDEST PUSH1 0x40 MLOAD DUP1 SWAP2 SUB SWAP1 RETURN JUMPDEST CALLVALUE DUP1 ISZERO PUSH2 0x6AE JUMPI PUSH1 0x0 DUP1 REVERT JUMPDEST POP PUSH2 0x6C9 PUSH1 0x4 DUP1 CALLDATASIZE SUB DUP2 ADD SWAP1 PUSH2 0x6C4 SWAP2 SWAP1 PUSH2 0x2165 JUMP JUMPDEST PUSH2 0x1406 JUMP JUMPDEST STOP JUMPDEST PUSH1 0x0 PUSH32 0xE765F73600000000000000000000000000000000000000000000000000000000 PUSH28 0xFFFFFFFFFFFFFFFFFFFFFFFFFFFFFFFFFFFFFFFFFFFFFFFFFFFFFFFF NOT AND DUP3 PUSH28 0xFFFFFFFFFFFFFFFFFFFFFFFFFFFFFFFFFFFFFFFFFFFFFFFFFFFFFFFF NOT AND EQ DUP1 PUSH2 0x796 JUMPI POP PUSH32 0x1FFC9A700000000000000000000000000000000000000000000000000000000 PUSH28 0xFFFFFFFFFFFFFFFFFFFFFFFFFFFFFFFFFFFFFFFFFFFFFFFFFFFFFFFF NOT AND DUP3 PUSH28 0xFFFFFFFFFFFFFFFFFFFFFFFFFFFFFFFFFFFFFFFFFFFFFFFFFFFFFFFF NOT AND EQ JUMPDEST DUP1 PUSH2 0x7FE JUMPI POP PUSH32 0x5B5E139F00000000000000000000000000000000000000000000000000000000 PUSH28 0xFFFFFFFFFFFFFFFFFFFFFFFFFFFFFFFFFFFFFFFFFFFFFFFFFFFFFFFF NOT AND DUP3 PUSH28 0xFFFFFFFFFFFFFFFFFFFFFFFFFFFFFFFFFFFFFFFFFFFFFFFFFFFFFFFF NOT AND EQ JUMPDEST SWAP1 POP SWAP2 SWAP1 POP JUMP JUMPDEST PUSH1 0x1 DUP1 SLOAD PUSH2 0x812 SWAP1 PUSH2 0x2E63 JUMP JUMPDEST DUP1 PUSH1 0x1F ADD PUSH1 0x20 DUP1 SWAP2 DIV MUL PUSH1 0x20 ADD PUSH1 0x40 MLOAD SWAP1 DUP2 ADD PUSH1 0x40 MSTORE DUP1 SWAP3 SWAP2 SWAP1 DUP2 DUP2 MSTORE PUSH1 0x20 ADD DUP3 DUP1 SLOAD PUSH2 0x83E SWAP1 PUSH2 0x2E63 JUMP JUMPDEST DUP1 ISZERO PUSH2 0x88B JUMPI DUP1 PUSH1 0x1F LT PUSH2 0x860 JUMPI PUSH2 0x100 DUP1 DUP4 SLOAD DIV MUL DUP4 MSTORE SWAP2 PUSH1 0x20 ADD SWAP2 PUSH2 0x88B JUMP JUMPDEST DUP3 ADD SWAP2 SWAP1 PUSH1 0x0 MSTORE PUSH1 0x20 PUSH1 0x0 KECCAK256 SWAP1 JUMPDEST DUP2 SLOAD DUP2 MSTORE SWAP1 PUSH1 0x1 ADD SWAP1 PUSH1 0x20 ADD DUP1 DUP4 GT PUSH2 0x86E JUMPI DUP3 SWAP1 SUB PUSH1 0x1F AND DUP3 ADD SWAP2 JUMPDEST POP POP POP POP POP DUP2 JUMP JUMPDEST PUSH1 0x0 DUP1 PUSH20 0xFFFFFFFFFFFFFFFFFFFFFFFFFFFFFFFFFFFFFFFF AND PUSH1 0x3 PUSH1 0x0 DUP5 DUP2 MSTORE PUSH1 0x20 ADD SWAP1 DUP2 MSTORE PUSH1 0x20 ADD PUSH1 0x0 KECCAK256 PUSH1 0x0 SWAP1 SLOAD SWAP1 PUSH2 0x100 EXP SWAP1 DIV PUSH20 0xFFFFFFFFFFFFFFFFFFFFFFFFFFFFFFFFFFFFFFFF AND PUSH20 0xFFFFFFFFFFFFFFFFFFFFFFFFFFFFFFFFFFFFFFFF AND EQ ISZERO PUSH2 0x937 JUMPI PUSH1 0x40 MLOAD PUSH32 0x8C379A000000000000000000000000000000000000000000000000000000000 DUP2 MSTORE PUSH1 0x4 ADD PUSH2 0x92E SWAP1 PUSH2 0x2AAE JUMP JUMPDEST PUSH1 0x40 MLOAD DUP1 SWAP2 SUB SWAP1 REVERT JUMPDEST PUSH1 0x5 PUSH1 0x0 DUP4 DUP2 MSTORE PUSH1 0x20 ADD SWAP1 DUP2 MSTORE PUSH1 0x20 ADD PUSH1 0x0 KECCAK256 PUSH1 0x0 SWAP1 SLOAD SWAP1 PUSH2 0x100 EXP SWAP1 DIV PUSH20 0xFFFFFFFFFFFFFFFFFFFFFFFFFFFFFFFFFFFFFFFF AND SWAP1 POP SWAP2 SWAP1 POP JUMP JUMPDEST PUSH1 0x0 PUSH1 0x3 PUSH1 0x0 DUP4 DUP2 MSTORE PUSH1 0x20 ADD SWAP1 DUP2 MSTORE PUSH1 0x20 ADD PUSH1 0x0 KECCAK256 PUSH1 0x0 SWAP1 SLOAD SWAP1 PUSH2 0x100 EXP SWAP1 DIV PUSH20 0xFFFFFFFFFFFFFFFFFFFFFFFFFFFFFFFFFFFFFFFF AND SWAP1 POP DUP1 PUSH20 0xFFFFFFFFFFFFFFFFFFFFFFFFFFFFFFFFFFFFFFFF AND CALLER PUSH20 0xFFFFFFFFFFFFFFFFFFFFFFFFFFFFFFFFFFFFFFFF AND EQ DUP1 PUSH2 0xA6A JUMPI POP PUSH1 0x6 PUSH1 0x0 DUP3 PUSH20 0xFFFFFFFFFFFFFFFFFFFFFFFFFFFFFFFFFFFFFFFF AND PUSH20 0xFFFFFFFFFFFFFFFFFFFFFFFFFFFFFFFFFFFFFFFF AND DUP2 MSTORE PUSH1 0x20 ADD SWAP1 DUP2 MSTORE PUSH1 0x20 ADD PUSH1 0x0 KECCAK256 PUSH1 0x0 CALLER PUSH20 0xFFFFFFFFFFFFFFFFFFFFFFFFFFFFFFFFFFFFFFFF AND PUSH20 0xFFFFFFFFFFFFFFFFFFFFFFFFFFFFFFFFFFFFFFFF AND DUP2 MSTORE PUSH1 0x20 ADD SWAP1 DUP2 MSTORE PUSH1 0x20 ADD PUSH1 0x0 KECCAK256 PUSH1 0x0 SWAP1 SLOAD SWAP1 PUSH2 0x100 EXP SWAP1 DIV PUSH1 0xFF AND JUMPDEST PUSH2 0xAA9 JUMPI PUSH1 0x40 MLOAD PUSH32 0x8C379A000000000000000000000000000000000000000000000000000000000 DUP2 MSTORE PUSH1 0x4 ADD PUSH2 0xAA0 SWAP1 PUSH2 0x29EE JUMP JUMPDEST PUSH1 0x40 MLOAD DUP1 SWAP2 SUB SWAP1 REVERT JUMPDEST PUSH2 0xAB4 DUP2 DUP5 DUP5 PUSH2 0x148A JUMP JUMPDEST POP POP POP JUMP JUMPDEST PUSH1 0x3C DUP2 JUMP JUMPDEST PUSH1 0x0 PUSH1 0x9 DUP1 SLOAD SWAP1 POP SWAP1 POP SWAP1 JUMP JUMPDEST PUSH1 0x0 PUSH2 0xAD6 DUP3 PUSH2 0xCFA JUMP JUMPDEST SWAP1 POP PUSH2 0xAE3 DUP2 CALLER DUP5 PUSH2 0x151C JUMP JUMPDEST PUSH2 0xAEC JUMPI PUSH1 0x0 DUP1 REVERT JUMPDEST PUSH2 0xAF8 DUP2 DUP6 DUP6 DUP6 PUSH2 0x1650 JUMP JUMPDEST POP POP POP POP JUMP JUMPDEST PUSH8 0xDE0B6B3A7640000 DUP2 JUMP JUMPDEST PUSH1 0x3C PUSH2 0x258 PUSH2 0xB19 SWAP2 SWAP1 PUSH2 0x2CEE JUMP JUMPDEST PUSH8 0x16345785D8A0000 PUSH8 0xDE0B6B3A7640000 PUSH2 0xB35 SWAP2 SWAP1 PUSH2 0x2D79 JUMP JUMPDEST PUSH2 0xB3F SWAP2 SWAP1 PUSH2 0x2CEE JUMP JUMPDEST DUP2 JUMP JUMPDEST PUSH2 0xB4A PUSH2 0x187B JUMP JUMPDEST DUP1 PUSH1 0x7 DUP2 SWAP1 SSTORE POP POP JUMP JUMPDEST PUSH1 0x0 PUSH2 0xB5F DUP3 PUSH2 0xCFA JUMP JUMPDEST SWAP1 POP PUSH2 0xB7D DUP2 DUP6 DUP6 DUP6 PUSH1 0x40 MLOAD DUP1 PUSH1 0x20 ADD PUSH1 0x40 MSTORE DUP1 PUSH1 0x0 DUP2 MSTORE POP PUSH2 0x18F9 JUMP JUMPDEST POP POP POP POP JUMP JUMPDEST PUSH1 0x0 PUSH1 0x7 SLOAD SWAP1 POP PUSH1 0x0 DUP2 EQ ISZERO DUP1 ISZERO PUSH2 0xB9B JUMPI POP DUP1 TIMESTAMP LT ISZERO JUMPDEST PUSH2 0xBDA JUMPI PUSH1 0x40 MLOAD PUSH32 0x8C379A000000000000000000000000000000000000000000000000000000000 DUP2 MSTORE PUSH1 0x4 ADD PUSH2 0xBD1 SWAP1 PUSH2 0x2A8E JUMP JUMPDEST PUSH1 0x40 MLOAD DUP1 SWAP2 SUB SWAP1 REVERT JUMPDEST PUSH2 0x2710 PUSH1 0x1 PUSH2 0xBE7 PUSH2 0xABE JUMP JUMPDEST PUSH2 0xBF1 SWAP2 SWAP1 PUSH2 0x2C98 JUMP JUMPDEST GT ISZERO PUSH2 0xC32 JUMPI PUSH1 0x40 MLOAD PUSH32 0x8C379A000000000000000000000000000000000000000000000000000000000 DUP2 MSTORE PUSH1 0x4 ADD PUSH2 0xC29 SWAP1 PUSH2 0x2B8E JUMP JUMPDEST PUSH1 0x40 MLOAD DUP1 SWAP2 SUB SWAP1 REVERT JUMPDEST PUSH1 0x0 PUSH2 0xC3C PUSH2 0xFAC JUMP JUMPDEST SWAP1 POP DUP1 CALLVALUE LT ISZERO PUSH2 0xC81 JUMPI PUSH1 0x40 MLOAD PUSH32 0x8C379A000000000000000000000000000000000000000000000000000000000 DUP2 MSTORE PUSH1 0x4 ADD PUSH2 0xC78 SWAP1 PUSH2 0x2B2E JUMP JUMPDEST PUSH1 0x40 MLOAD DUP1 SWAP2 SUB SWAP1 REVERT JUMPDEST PUSH2 0xC8B CALLER DUP5 PUSH2 0x1957 JUMP JUMPDEST PUSH2 0xC94 DUP4 PUSH2 0x1B52 JUMP JUMPDEST DUP1 CALLVALUE GT ISZERO PUSH2 0xCEF JUMPI CALLER PUSH20 0xFFFFFFFFFFFFFFFFFFFFFFFFFFFFFFFFFFFFFFFF AND PUSH2 0x8FC DUP3 CALLVALUE PUSH2 0xCC2 SWAP2 SWAP1 PUSH2 0x2D79 JUMP JUMPDEST SWAP1 DUP2 ISZERO MUL SWAP1 PUSH1 0x40 MLOAD PUSH1 0x0 PUSH1 0x40 MLOAD DUP1 DUP4 SUB DUP2 DUP6 DUP9 DUP9 CALL SWAP4 POP POP POP POP ISZERO DUP1 ISZERO PUSH2 0xCED JUMPI RETURNDATASIZE PUSH1 0x0 DUP1 RETURNDATACOPY RETURNDATASIZE PUSH1 0x0 REVERT JUMPDEST POP JUMPDEST POP POP POP JUMP JUMPDEST PUSH2 0x2710 DUP2 JUMP JUMPDEST PUSH1 0x0 PUSH1 0x3 PUSH1 0x0 DUP4 DUP2 MSTORE PUSH1 0x20 ADD SWAP1 DUP2 MSTORE PUSH1 0x20 ADD PUSH1 0x0 KECCAK256 PUSH1 0x0 SWAP1 SLOAD SWAP1 PUSH2 0x100 EXP SWAP1 DIV PUSH20 0xFFFFFFFFFFFFFFFFFFFFFFFFFFFFFFFFFFFFFFFF AND SWAP1 POP PUSH1 0x0 PUSH20 0xFFFFFFFFFFFFFFFFFFFFFFFFFFFFFFFFFFFFFFFF AND DUP2 PUSH20 0xFFFFFFFFFFFFFFFFFFFFFFFFFFFFFFFFFFFFFFFF AND EQ ISZERO PUSH2 0xDA2 JUMPI PUSH1 0x40 MLOAD PUSH32 0x8C379A000000000000000000000000000000000000000000000000000000000 DUP2 MSTORE PUSH1 0x4 ADD PUSH2 0xD99 SWAP1 PUSH2 0x2AAE JUMP JUMPDEST PUSH1 0x40 MLOAD DUP1 SWAP2 SUB SWAP1 REVERT JUMPDEST SWAP2 SWAP1 POP JUMP JUMPDEST PUSH1 0x0 DUP1 PUSH20 0xFFFFFFFFFFFFFFFFFFFFFFFFFFFFFFFFFFFFFFFF AND DUP3 PUSH20 0xFFFFFFFFFFFFFFFFFFFFFFFFFFFFFFFFFFFFFFFF AND EQ ISZERO PUSH2 0xE18 JUMPI PUSH1 0x40 MLOAD PUSH32 0x8C379A000000000000000000000000000000000000000000000000000000000 DUP2 MSTORE PUSH1 0x4 ADD PUSH2 0xE0F SWAP1 PUSH2 0x2B0E JUMP JUMPDEST PUSH1 0x40 MLOAD DUP1 SWAP2 SUB SWAP1 REVERT JUMPDEST PUSH1 0x4 PUSH1 0x0 DUP4 PUSH20 0xFFFFFFFFFFFFFFFFFFFFFFFFFFFFFFFFFFFFFFFF AND PUSH20 0xFFFFFFFFFFFFFFFFFFFFFFFFFFFFFFFFFFFFFFFF AND DUP2 MSTORE PUSH1 0x20 ADD SWAP1 DUP2 MSTORE PUSH1 0x20 ADD PUSH1 0x0 KECCAK256 SLOAD SWAP1 POP SWAP2 SWAP1 POP JUMP JUMPDEST PUSH2 0xE67 PUSH2 0x187B JUMP JUMPDEST PUSH2 0xE71 PUSH1 0x0 PUSH2 0x1B7E JUMP JUMPDEST JUMP JUMPDEST PUSH1 0x7 SLOAD DUP2 JUMP JUMPDEST PUSH2 0xE81 PUSH2 0x187B JUMP JUMPDEST PUSH1 0x40 MLOAD DUP1 PUSH1 0x60 ADD PUSH1 0x40 MSTORE DUP1 PUSH1 0x36 DUP2 MSTORE PUSH1 0x20 ADD PUSH2 0x3039 PUSH1 0x36 SWAP2 CODECOPY PUSH1 0x8 DUP3 DUP2 SLOAD DUP2 LT PUSH2 0xED4 JUMPI PUSH32 0x4E487B7100000000000000000000000000000000000000000000000000000000 PUSH1 0x0 MSTORE PUSH1 0x32 PUSH1 0x4 MSTORE PUSH1 0x24 PUSH1 0x0 REVERT JUMPDEST SWAP1 PUSH1 0x0 MSTORE PUSH1 0x20 PUSH1 0x0 KECCAK256 ADD SWAP1 DUP1 MLOAD SWAP1 PUSH1 0x20 ADD SWAP1 PUSH2 0xEF1 SWAP3 SWAP2 SWAP1 PUSH2 0x1FF1 JUMP JUMPDEST POP POP JUMP JUMPDEST PUSH1 0x0 DUP1 PUSH1 0x0 SWAP1 SLOAD SWAP1 PUSH2 0x100 EXP SWAP1 DIV PUSH20 0xFFFFFFFFFFFFFFFFFFFFFFFFFFFFFFFFFFFFFFFF AND SWAP1 POP SWAP1 JUMP JUMPDEST PUSH1 0x2 DUP1 SLOAD PUSH2 0xF2B SWAP1 PUSH2 0x2E63 JUMP JUMPDEST DUP1 PUSH1 0x1F ADD PUSH1 0x20 DUP1 SWAP2 DIV MUL PUSH1 0x20 ADD PUSH1 0x40 MLOAD SWAP1 DUP2 ADD PUSH1 0x40 MSTORE DUP1 SWAP3 SWAP2 SWAP1 DUP2 DUP2 MSTORE PUSH1 0x20 ADD DUP3 DUP1 SLOAD PUSH2 0xF57 SWAP1 PUSH2 0x2E63 JUMP JUMPDEST DUP1 ISZERO PUSH2 0xFA4 JUMPI DUP1 PUSH1 0x1F LT PUSH2 0xF79 JUMPI PUSH2 0x100 DUP1 DUP4 SLOAD DIV MUL DUP4 MSTORE SWAP2 PUSH1 0x20 ADD SWAP2 PUSH2 0xFA4 JUMP JUMPDEST DUP3 ADD SWAP2 SWAP1 PUSH1 0x0 MSTORE PUSH1 0x20 PUSH1 0x0 KECCAK256 SWAP1 JUMPDEST DUP2 SLOAD DUP2 MSTORE SWAP1 PUSH1 0x1 ADD SWAP1 PUSH1 0x20 ADD DUP1 DUP4 GT PUSH2 0xF87 JUMPI DUP3 SWAP1 SUB PUSH1 0x1F AND DUP3 ADD SWAP2 JUMPDEST POP POP POP POP POP DUP2 JUMP JUMPDEST PUSH1 0x0 DUP1 PUSH1 0x7 SLOAD SWAP1 POP DUP1 TIMESTAMP LT ISZERO PUSH2 0xFCD JUMPI PUSH8 0xDE0B6B3A7640000 SWAP2 POP POP PUSH2 0x1066 JUMP JUMPDEST PUSH2 0x258 DUP2 PUSH2 0xFDB SWAP2 SWAP1 PUSH2 0x2C98 JUMP JUMPDEST TIMESTAMP LT PUSH2 0xFF2 JUMPI PUSH8 0x16345785D8A0000 SWAP2 POP POP PUSH2 0x1066 JUMP JUMPDEST PUSH1 0x0 PUSH1 0x3C DUP3 TIMESTAMP PUSH2 0x1002 SWAP2 SWAP1 PUSH2 0x2D79 JUMP JUMPDEST PUSH2 0x100C SWAP2 SWAP1 PUSH2 0x2CEE JUMP JUMPDEST SWAP1 POP PUSH1 0x3C PUSH2 0x258 PUSH2 0x101D SWAP2 SWAP1 PUSH2 0x2CEE JUMP JUMPDEST PUSH8 0x16345785D8A0000 PUSH8 0xDE0B6B3A7640000 PUSH2 0x1039 SWAP2 SWAP1 PUSH2 0x2D79 JUMP JUMPDEST PUSH2 0x1043 SWAP2 SWAP1 PUSH2 0x2CEE JUMP JUMPDEST DUP2 PUSH2 0x104E SWAP2 SWAP1 PUSH2 0x2D1F JUMP JUMPDEST PUSH8 0xDE0B6B3A7640000 PUSH2 0x1061 SWAP2 SWAP1 PUSH2 0x2D79 JUMP JUMPDEST SWAP3 POP POP POP JUMPDEST SWAP1 JUMP JUMPDEST PUSH2 0x1071 PUSH2 0x187B JUMP JUMPDEST PUSH1 0x0 CALLER PUSH20 0xFFFFFFFFFFFFFFFFFFFFFFFFFFFFFFFFFFFFFFFF AND SELFBALANCE PUSH1 0x40 MLOAD PUSH2 0x1097 SWAP1 PUSH2 0x28C7 JUMP JUMPDEST PUSH1 0x0 PUSH1 0x40 MLOAD DUP1 DUP4 SUB DUP2 DUP6 DUP8 GAS CALL SWAP3 POP POP POP RETURNDATASIZE DUP1 PUSH1 0x0 DUP2 EQ PUSH2 0x10D4 JUMPI PUSH1 0x40 MLOAD SWAP2 POP PUSH1 0x1F NOT PUSH1 0x3F RETURNDATASIZE ADD AND DUP3 ADD PUSH1 0x40 MSTORE RETURNDATASIZE DUP3 MSTORE RETURNDATASIZE PUSH1 0x0 PUSH1 0x20 DUP5 ADD RETURNDATACOPY PUSH2 0x10D9 JUMP JUMPDEST PUSH1 0x60 SWAP2 POP JUMPDEST POP POP SWAP1 POP DUP1 PUSH2 0x111D JUMPI PUSH1 0x40 MLOAD PUSH32 0x8C379A000000000000000000000000000000000000000000000000000000000 DUP2 MSTORE PUSH1 0x4 ADD PUSH2 0x1114 SWAP1 PUSH2 0x2A6E JUMP JUMPDEST PUSH1 0x40 MLOAD DUP1 SWAP2 SUB SWAP1 REVERT JUMPDEST POP JUMP JUMPDEST PUSH1 0x0 PUSH2 0x112B DUP4 PUSH2 0xCFA JUMP JUMPDEST SWAP1 POP PUSH2 0x1138 DUP2 CALLER DUP6 PUSH2 0x151C JUMP JUMPDEST PUSH2 0x1177 JUMPI PUSH1 0x40 MLOAD PUSH32 0x8C379A000000000000000000000000000000000000000000000000000000000 DUP2 MSTORE PUSH1 0x4 ADD PUSH2 0x116E SWAP1 PUSH2 0x2A2E JUMP JUMPDEST PUSH1 0x40 MLOAD DUP1 SWAP2 SUB SWAP1 REVERT JUMPDEST PUSH2 0x1184 DUP2 DUP7 DUP7 DUP7 DUP7 PUSH2 0x18F9 JUMP JUMPDEST POP POP POP POP POP JUMP JUMPDEST PUSH2 0x258 DUP2 JUMP JUMPDEST DUP1 PUSH1 0x6 PUSH1 0x0 CALLER PUSH20 0xFFFFFFFFFFFFFFFFFFFFFFFFFFFFFFFFFFFFFFFF AND PUSH20 0xFFFFFFFFFFFFFFFFFFFFFFFFFFFFFFFFFFFFFFFF AND DUP2 MSTORE PUSH1 0x20 ADD SWAP1 DUP2 MSTORE PUSH1 0x20 ADD PUSH1 0x0 KECCAK256 PUSH1 0x0 DUP5 PUSH20 0xFFFFFFFFFFFFFFFFFFFFFFFFFFFFFFFFFFFFFFFF AND PUSH20 0xFFFFFFFFFFFFFFFFFFFFFFFFFFFFFFFFFFFFFFFF AND DUP2 MSTORE PUSH1 0x20 ADD SWAP1 DUP2 MSTORE PUSH1 0x20 ADD PUSH1 0x0 KECCAK256 PUSH1 0x0 PUSH2 0x100 EXP DUP2 SLOAD DUP2 PUSH1 0xFF MUL NOT AND SWAP1 DUP4 ISZERO ISZERO MUL OR SWAP1 SSTORE POP PUSH32 0x6E58F42F8934DE1BF5B284476BA8126EE2D334C7AACF1AC87C6D4EBDB6FFB683 CALLER DUP4 DUP4 PUSH1 0x40 MLOAD PUSH2 0x1258 SWAP4 SWAP3 SWAP2 SWAP1 PUSH2 0x28F7 JUMP JUMPDEST PUSH1 0x40 MLOAD DUP1 SWAP2 SUB SWAP1 LOG1 POP POP JUMP JUMPDEST PUSH1 0x60 PUSH1 0x0 PUSH20 0xFFFFFFFFFFFFFFFFFFFFFFFFFFFFFFFFFFFFFFFF AND PUSH1 0x3 PUSH1 0x0 DUP5 DUP2 MSTORE PUSH1 0x20 ADD SWAP1 DUP2 MSTORE PUSH1 0x20 ADD PUSH1 0x0 KECCAK256 PUSH1 0x0 SWAP1 SLOAD SWAP1 PUSH2 0x100 EXP SWAP1 DIV PUSH20 0xFFFFFFFFFFFFFFFFFFFFFFFFFFFFFFFFFFFFFFFF AND PUSH20 0xFFFFFFFFFFFFFFFFFFFFFFFFFFFFFFFFFFFFFFFF AND EQ ISZERO PUSH2 0x1309 JUMPI PUSH1 0x40 MLOAD PUSH32 0x8C379A000000000000000000000000000000000000000000000000000000000 DUP2 MSTORE PUSH1 0x4 ADD PUSH2 0x1300 SWAP1 PUSH2 0x2B4E JUMP JUMPDEST PUSH1 0x40 MLOAD DUP1 SWAP2 SUB SWAP1 REVERT JUMPDEST PUSH1 0x0 PUSH2 0x1313 PUSH2 0x1C42 JUMP JUMPDEST SWAP1 POP PUSH1 0x0 DUP2 MLOAD GT PUSH2 0x1333 JUMPI PUSH1 0x40 MLOAD DUP1 PUSH1 0x20 ADD PUSH1 0x40 MSTORE DUP1 PUSH1 0x0 DUP2 MSTORE POP PUSH2 0x135E JUMP JUMPDEST DUP1 PUSH2 0x133D DUP5 PUSH2 0x1D17 JUMP JUMPDEST PUSH1 0x40 MLOAD PUSH1 0x20 ADD PUSH2 0x134E SWAP3 SWAP2 SWAP1 PUSH2 0x28A3 JUMP JUMPDEST PUSH1 0x40 MLOAD PUSH1 0x20 DUP2 DUP4 SUB SUB DUP2 MSTORE SWAP1 PUSH1 0x40 MSTORE JUMPDEST SWAP2 POP POP SWAP2 SWAP1 POP JUMP JUMPDEST PUSH8 0x16345785D8A0000 DUP2 JUMP JUMPDEST PUSH1 0x0 PUSH1 0x6 PUSH1 0x0 DUP5 PUSH20 0xFFFFFFFFFFFFFFFFFFFFFFFFFFFFFFFFFFFFFFFF AND PUSH20 0xFFFFFFFFFFFFFFFFFFFFFFFFFFFFFFFFFFFFFFFF AND DUP2 MSTORE PUSH1 0x20 ADD SWAP1 DUP2 MSTORE PUSH1 0x20 ADD PUSH1 0x0 KECCAK256 PUSH1 0x0 DUP4 PUSH20 0xFFFFFFFFFFFFFFFFFFFFFFFFFFFFFFFFFFFFFFFF AND PUSH20 0xFFFFFFFFFFFFFFFFFFFFFFFFFFFFFFFFFFFFFFFF AND DUP2 MSTORE PUSH1 0x20 ADD SWAP1 DUP2 MSTORE PUSH1 0x20 ADD PUSH1 0x0 KECCAK256 PUSH1 0x0 SWAP1 SLOAD SWAP1 PUSH2 0x100 EXP SWAP1 DIV PUSH1 0xFF AND SWAP1 POP SWAP3 SWAP2 POP POP JUMP JUMPDEST PUSH2 0x140E PUSH2 0x187B JUMP JUMPDEST PUSH1 0x0 PUSH20 0xFFFFFFFFFFFFFFFFFFFFFFFFFFFFFFFFFFFFFFFF AND DUP2 PUSH20 0xFFFFFFFFFFFFFFFFFFFFFFFFFFFFFFFFFFFFFFFF AND EQ ISZERO PUSH2 0x147E JUMPI PUSH1 0x40 MLOAD PUSH32 0x8C379A000000000000000000000000000000000000000000000000000000000 DUP2 MSTORE PUSH1 0x4 ADD PUSH2 0x1475 SWAP1 PUSH2 0x2A4E JUMP JUMPDEST PUSH1 0x40 MLOAD DUP1 SWAP2 SUB SWAP1 REVERT JUMPDEST PUSH2 0x1487 DUP2 PUSH2 0x1B7E JUMP JUMPDEST POP JUMP JUMPDEST DUP2 PUSH1 0x5 PUSH1 0x0 DUP4 DUP2 MSTORE PUSH1 0x20 ADD SWAP1 DUP2 MSTORE PUSH1 0x20 ADD PUSH1 0x0 KECCAK256 PUSH1 0x0 PUSH2 0x100 EXP DUP2 SLOAD DUP2 PUSH20 0xFFFFFFFFFFFFFFFFFFFFFFFFFFFFFFFFFFFFFFFF MUL NOT AND SWAP1 DUP4 PUSH20 0xFFFFFFFFFFFFFFFFFFFFFFFFFFFFFFFFFFFFFFFF AND MUL OR SWAP1 SSTORE POP PUSH32 0x6E11FB1B7F119E3F2FA29896EF5FDF8B8A2D0D4DF6FE90BA8668E7D8B2FFA25E DUP4 DUP4 DUP4 PUSH1 0x40 MLOAD PUSH2 0x150F SWAP4 SWAP3 SWAP2 SWAP1 PUSH2 0x292E JUMP JUMPDEST PUSH1 0x40 MLOAD DUP1 SWAP2 SUB SWAP1 LOG1 POP POP POP JUMP JUMPDEST PUSH1 0x0 DUP4 PUSH20 0xFFFFFFFFFFFFFFFFFFFFFFFFFFFFFFFFFFFFFFFF AND DUP4 PUSH20 0xFFFFFFFFFFFFFFFFFFFFFFFFFFFFFFFFFFFFFFFF AND EQ DUP1 PUSH2 0x15B6 JUMPI POP DUP3 PUSH20 0xFFFFFFFFFFFFFFFFFFFFFFFFFFFFFFFFFFFFFFFF AND PUSH1 0x5 PUSH1 0x0 DUP5 DUP2 MSTORE PUSH1 0x20 ADD SWAP1 DUP2 MSTORE PUSH1 0x20 ADD PUSH1 0x0 KECCAK256 PUSH1 0x0 SWAP1 SLOAD SWAP1 PUSH2 0x100 EXP SWAP1 DIV PUSH20 0xFFFFFFFFFFFFFFFFFFFFFFFFFFFFFFFFFFFFFFFF AND PUSH20 0xFFFFFFFFFFFFFFFFFFFFFFFFFFFFFFFFFFFFFFFF AND EQ JUMPDEST DUP1 PUSH2 0x1647 JUMPI POP PUSH1 0x6 PUSH1 0x0 DUP6 PUSH20 0xFFFFFFFFFFFFFFFFFFFFFFFFFFFFFFFFFFFFFFFF AND PUSH20 0xFFFFFFFFFFFFFFFFFFFFFFFFFFFFFFFFFFFFFFFF AND DUP2 MSTORE PUSH1 0x20 ADD SWAP1 DUP2 MSTORE PUSH1 0x20 ADD PUSH1 0x0 KECCAK256 PUSH1 0x0 DUP5 PUSH20 0xFFFFFFFFFFFFFFFFFFFFFFFFFFFFFFFFFFFFFFFF AND PUSH20 0xFFFFFFFFFFFFFFFFFFFFFFFFFFFFFFFFFFFFFFFF AND DUP2 MSTORE PUSH1 0x20 ADD SWAP1 DUP2 MSTORE PUSH1 0x20 ADD PUSH1 0x0 KECCAK256 PUSH1 0x0 SWAP1 SLOAD SWAP1 PUSH2 0x100 EXP SWAP1 DIV PUSH1 0xFF AND JUMPDEST SWAP1 POP SWAP4 SWAP3 POP POP POP JUMP JUMPDEST DUP4 PUSH20 0xFFFFFFFFFFFFFFFFFFFFFFFFFFFFFFFFFFFFFFFF AND DUP4 PUSH20 0xFFFFFFFFFFFFFFFFFFFFFFFFFFFFFFFFFFFFFFFF AND EQ PUSH2 0x16BE JUMPI PUSH1 0x40 MLOAD PUSH32 0x8C379A000000000000000000000000000000000000000000000000000000000 DUP2 MSTORE PUSH1 0x4 ADD PUSH2 0x16B5 SWAP1 PUSH2 0x2BAE JUMP JUMPDEST PUSH1 0x40 MLOAD DUP1 SWAP2 SUB SWAP1 REVERT JUMPDEST PUSH1 0x0 PUSH20 0xFFFFFFFFFFFFFFFFFFFFFFFFFFFFFFFFFFFFFFFF AND DUP3 PUSH20 0xFFFFFFFFFFFFFFFFFFFFFFFFFFFFFFFFFFFFFFFF AND EQ ISZERO PUSH2 0x172E JUMPI PUSH1 0x40 MLOAD PUSH32 0x8C379A000000000000000000000000000000000000000000000000000000000 DUP2 MSTORE PUSH1 0x4 ADD PUSH2 0x1725 SWAP1 PUSH2 0x2A0E JUMP JUMPDEST PUSH1 0x40 MLOAD DUP1 SWAP2 SUB SWAP1 REVERT JUMPDEST PUSH2 0x173A DUP5 PUSH1 0x0 DUP4 PUSH2 0x148A JUMP JUMPDEST PUSH1 0x1 PUSH1 0x4 PUSH1 0x0 DUP6 PUSH20 0xFFFFFFFFFFFFFFFFFFFFFFFFFFFFFFFFFFFFFFFF AND PUSH20 0xFFFFFFFFFFFFFFFFFFFFFFFFFFFFFFFFFFFFFFFF AND DUP2 MSTORE PUSH1 0x20 ADD SWAP1 DUP2 MSTORE PUSH1 0x20 ADD PUSH1 0x0 KECCAK256 PUSH1 0x0 DUP3 DUP3 SLOAD PUSH2 0x178A SWAP2 SWAP1 PUSH2 0x2D79 JUMP JUMPDEST SWAP3 POP POP DUP2 SWAP1 SSTORE POP PUSH1 0x1 PUSH1 0x4 PUSH1 0x0 DUP5 PUSH20 0xFFFFFFFFFFFFFFFFFFFFFFFFFFFFFFFFFFFFFFFF AND PUSH20 0xFFFFFFFFFFFFFFFFFFFFFFFFFFFFFFFFFFFFFFFF AND DUP2 MSTORE PUSH1 0x20 ADD SWAP1 DUP2 MSTORE PUSH1 0x20 ADD PUSH1 0x0 KECCAK256 PUSH1 0x0 DUP3 DUP3 SLOAD PUSH2 0x17E1 SWAP2 SWAP1 PUSH2 0x2C98 JUMP JUMPDEST SWAP3 POP POP DUP2 SWAP1 SSTORE POP DUP2 PUSH1 0x3 PUSH1 0x0 DUP4 DUP2 MSTORE PUSH1 0x20 ADD SWAP1 DUP2 MSTORE PUSH1 0x20 ADD PUSH1 0x0 KECCAK256 PUSH1 0x0 PUSH2 0x100 EXP DUP2 SLOAD DUP2 PUSH20 0xFFFFFFFFFFFFFFFFFFFFFFFFFFFFFFFFFFFFFFFF MUL NOT AND SWAP1 DUP4 PUSH20 0xFFFFFFFFFFFFFFFFFFFFFFFFFFFFFFFFFFFFFFFF AND MUL OR SWAP1 SSTORE POP PUSH32 0xDDF252AD1BE2C89B69C2B068FC378DAA952BA7F163C4A11628F55A4DF523B3EF DUP4 DUP4 DUP4 PUSH1 0x40 MLOAD PUSH2 0x186D SWAP4 SWAP3 SWAP2 SWAP1 PUSH2 0x292E JUMP JUMPDEST PUSH1 0x40 MLOAD DUP1 SWAP2 SUB SWAP1 LOG1 POP POP POP POP JUMP JUMPDEST PUSH2 0x1883 PUSH2 0x1EC4 JUMP JUMPDEST PUSH20 0xFFFFFFFFFFFFFFFFFFFFFFFFFFFFFFFFFFFFFFFF AND PUSH2 0x18A1 PUSH2 0xEF5 JUMP JUMPDEST PUSH20 0xFFFFFFFFFFFFFFFFFFFFFFFFFFFFFFFFFFFFFFFF AND EQ PUSH2 0x18F7 JUMPI PUSH1 0x40 MLOAD PUSH32 0x8C379A000000000000000000000000000000000000000000000000000000000 DUP2 MSTORE PUSH1 0x4 ADD PUSH2 0x18EE SWAP1 PUSH2 0x2ACE JUMP JUMPDEST PUSH1 0x40 MLOAD DUP1 SWAP2 SUB SWAP1 REVERT JUMPDEST JUMP JUMPDEST PUSH2 0x1905 DUP6 DUP6 DUP6 DUP6 PUSH2 0x1650 JUMP JUMPDEST PUSH2 0x1911 DUP5 DUP5 DUP5 DUP5 PUSH2 0x1ECC JUMP JUMPDEST PUSH2 0x1950 JUMPI PUSH1 0x40 MLOAD PUSH32 0x8C379A000000000000000000000000000000000000000000000000000000000 DUP2 MSTORE PUSH1 0x4 ADD PUSH2 0x1947 SWAP1 PUSH2 0x2B6E JUMP JUMPDEST PUSH1 0x40 MLOAD DUP1 SWAP2 SUB SWAP1 REVERT JUMPDEST POP POP POP POP POP JUMP JUMPDEST PUSH1 0x0 PUSH20 0xFFFFFFFFFFFFFFFFFFFFFFFFFFFFFFFFFFFFFFFF AND DUP3 PUSH20 0xFFFFFFFFFFFFFFFFFFFFFFFFFFFFFFFFFFFFFFFF AND EQ ISZERO PUSH2 0x19C7 JUMPI PUSH1 0x40 MLOAD PUSH32 0x8C379A000000000000000000000000000000000000000000000000000000000 DUP2 MSTORE PUSH1 0x4 ADD PUSH2 0x19BE SWAP1 PUSH2 0x2A0E JUMP JUMPDEST PUSH1 0x40 MLOAD DUP1 SWAP2 SUB SWAP1 REVERT JUMPDEST PUSH1 0x0 PUSH20 0xFFFFFFFFFFFFFFFFFFFFFFFFFFFFFFFFFFFFFFFF AND PUSH1 0x3 PUSH1 0x0 DUP4 DUP2 MSTORE PUSH1 0x20 ADD SWAP1 DUP2 MSTORE PUSH1 0x20 ADD PUSH1 0x0 KECCAK256 PUSH1 0x0 SWAP1 SLOAD SWAP1 PUSH2 0x100 EXP SWAP1 DIV PUSH20 0xFFFFFFFFFFFFFFFFFFFFFFFFFFFFFFFFFFFFFFFF AND PUSH20 0xFFFFFFFFFFFFFFFFFFFFFFFFFFFFFFFFFFFFFFFF AND EQ PUSH2 0x1A69 JUMPI PUSH1 0x40 MLOAD PUSH32 0x8C379A000000000000000000000000000000000000000000000000000000000 DUP2 MSTORE PUSH1 0x4 ADD PUSH2 0x1A60 SWAP1 PUSH2 0x2AEE JUMP JUMPDEST PUSH1 0x40 MLOAD DUP1 SWAP2 SUB SWAP1 REVERT JUMPDEST PUSH1 0x1 PUSH1 0x4 PUSH1 0x0 DUP5 PUSH20 0xFFFFFFFFFFFFFFFFFFFFFFFFFFFFFFFFFFFFFFFF AND PUSH20 0xFFFFFFFFFFFFFFFFFFFFFFFFFFFFFFFFFFFFFFFF AND DUP2 MSTORE PUSH1 0x20 ADD SWAP1 DUP2 MSTORE PUSH1 0x20 ADD PUSH1 0x0 KECCAK256 PUSH1 0x0 DUP3 DUP3 SLOAD PUSH2 0x1AB9 SWAP2 SWAP1 PUSH2 0x2C98 JUMP JUMPDEST SWAP3 POP POP DUP2 SWAP1 SSTORE POP DUP2 PUSH1 0x3 PUSH1 0x0 DUP4 DUP2 MSTORE PUSH1 0x20 ADD SWAP1 DUP2 MSTORE PUSH1 0x20 ADD PUSH1 0x0 KECCAK256 PUSH1 0x0 PUSH2 0x100 EXP DUP2 SLOAD DUP2 PUSH20 0xFFFFFFFFFFFFFFFFFFFFFFFFFFFFFFFFFFFFFFFF MUL NOT AND SWAP1 DUP4 PUSH20 0xFFFFFFFFFFFFFFFFFFFFFFFFFFFFFFFFFFFFFFFF AND MUL OR SWAP1 SSTORE POP PUSH32 0xDDF252AD1BE2C89B69C2B068FC378DAA952BA7F163C4A11628F55A4DF523B3EF PUSH1 0x0 DUP4 DUP4 PUSH1 0x40 MLOAD PUSH2 0x1B46 SWAP4 SWAP3 SWAP2 SWAP1 PUSH2 0x292E JUMP JUMPDEST PUSH1 0x40 MLOAD DUP1 SWAP2 SUB SWAP1 LOG1 POP POP JUMP JUMPDEST PUSH1 0x9 DUP2 SWAP1 DUP1 PUSH1 0x1 DUP2 SLOAD ADD DUP1 DUP3 SSTORE DUP1 SWAP2 POP POP PUSH1 0x1 SWAP1 SUB SWAP1 PUSH1 0x0 MSTORE PUSH1 0x20 PUSH1 0x0 KECCAK256 ADD PUSH1 0x0 SWAP1 SWAP2 SWAP1 SWAP2 SWAP1 SWAP2 POP SSTORE POP JUMP JUMPDEST PUSH1 0x0 DUP1 PUSH1 0x0 SWAP1 SLOAD SWAP1 PUSH2 0x100 EXP SWAP1 DIV PUSH20 0xFFFFFFFFFFFFFFFFFFFFFFFFFFFFFFFFFFFFFFFF AND SWAP1 POP DUP2 PUSH1 0x0 DUP1 PUSH2 0x100 EXP DUP2 SLOAD DUP2 PUSH20 0xFFFFFFFFFFFFFFFFFFFFFFFFFFFFFFFFFFFFFFFF MUL NOT AND SWAP1 DUP4 PUSH20 0xFFFFFFFFFFFFFFFFFFFFFFFFFFFFFFFFFFFFFFFF AND MUL OR SWAP1 SSTORE POP DUP2 PUSH20 0xFFFFFFFFFFFFFFFFFFFFFFFFFFFFFFFFFFFFFFFF AND DUP2 PUSH20 0xFFFFFFFFFFFFFFFFFFFFFFFFFFFFFFFFFFFFFFFF AND PUSH32 0x8BE0079C531659141344CD1FD0A4F28419497F9722A3DAAFE3B4186F6B6457E0 PUSH1 0x40 MLOAD PUSH1 0x40 MLOAD DUP1 SWAP2 SUB SWAP1 LOG3 POP POP JUMP JUMPDEST PUSH1 0x60 PUSH1 0x8 PUSH1 0x0 DUP2 SLOAD DUP2 LT PUSH2 0x1C7F JUMPI PUSH32 0x4E487B7100000000000000000000000000000000000000000000000000000000 PUSH1 0x0 MSTORE PUSH1 0x32 PUSH1 0x4 MSTORE PUSH1 0x24 PUSH1 0x0 REVERT JUMPDEST SWAP1 PUSH1 0x0 MSTORE PUSH1 0x20 PUSH1 0x0 KECCAK256 ADD DUP1 SLOAD PUSH2 0x1C94 SWAP1 PUSH2 0x2E63 JUMP JUMPDEST DUP1 PUSH1 0x1F ADD PUSH1 0x20 DUP1 SWAP2 DIV MUL PUSH1 0x20 ADD PUSH1 0x40 MLOAD SWAP1 DUP2 ADD PUSH1 0x40 MSTORE DUP1 SWAP3 SWAP2 SWAP1 DUP2 DUP2 MSTORE PUSH1 0x20 ADD DUP3 DUP1 SLOAD PUSH2 0x1CC0 SWAP1 PUSH2 0x2E63 JUMP JUMPDEST DUP1 ISZERO PUSH2 0x1D0D JUMPI DUP1 PUSH1 0x1F LT PUSH2 0x1CE2 JUMPI PUSH2 0x100 DUP1 DUP4 SLOAD DIV MUL DUP4 MSTORE SWAP2 PUSH1 0x20 ADD SWAP2 PUSH2 0x1D0D JUMP JUMPDEST DUP3 ADD SWAP2 SWAP1 PUSH1 0x0 MSTORE PUSH1 0x20 PUSH1 0x0 KECCAK256 SWAP1 JUMPDEST DUP2 SLOAD DUP2 MSTORE SWAP1 PUSH1 0x1 ADD SWAP1 PUSH1 0x20 ADD DUP1 DUP4 GT PUSH2 0x1CF0 JUMPI DUP3 SWAP1 SUB PUSH1 0x1F AND DUP3 ADD SWAP2 JUMPDEST POP POP POP POP POP SWAP1 POP SWAP1 JUMP JUMPDEST PUSH1 0x60 PUSH1 0x0 DUP3 EQ ISZERO PUSH2 0x1D5F JUMPI PUSH1 0x40 MLOAD DUP1 PUSH1 0x40 ADD PUSH1 0x40 MSTORE DUP1 PUSH1 0x1 DUP2 MSTORE PUSH1 0x20 ADD PUSH32 0x3000000000000000000000000000000000000000000000000000000000000000 DUP2 MSTORE POP SWAP1 POP PUSH2 0x1EBF JUMP JUMPDEST PUSH1 0x0 DUP3 SWAP1 POP PUSH1 0x0 JUMPDEST PUSH1 0x0 DUP3 EQ PUSH2 0x1D91 JUMPI DUP1 DUP1 PUSH2 0x1D7A SWAP1 PUSH2 0x2E95 JUMP JUMPDEST SWAP2 POP POP PUSH1 0xA DUP3 PUSH2 0x1D8A SWAP2 SWAP1 PUSH2 0x2CEE JUMP JUMPDEST SWAP2 POP PUSH2 0x1D67 JUMP JUMPDEST PUSH1 0x0 DUP2 PUSH8 0xFFFFFFFFFFFFFFFF DUP2 GT ISZERO PUSH2 0x1DD3 JUMPI PUSH32 0x4E487B7100000000000000000000000000000000000000000000000000000000 PUSH1 0x0 MSTORE PUSH1 0x41 PUSH1 0x4 MSTORE PUSH1 0x24 PUSH1 0x0 REVERT JUMPDEST PUSH1 0x40 MLOAD SWAP1 DUP1 DUP3 MSTORE DUP1 PUSH1 0x1F ADD PUSH1 0x1F NOT AND PUSH1 0x20 ADD DUP3 ADD PUSH1 0x40 MSTORE DUP1 ISZERO PUSH2 0x1E05 JUMPI DUP2 PUSH1 0x20 ADD PUSH1 0x1 DUP3 MUL DUP1 CALLDATASIZE DUP4 CALLDATACOPY DUP1 DUP3 ADD SWAP2 POP POP SWAP1 POP JUMPDEST POP SWAP1 POP JUMPDEST PUSH1 0x0 DUP6 EQ PUSH2 0x1EB8 JUMPI PUSH1 0x1 DUP3 PUSH2 0x1E1E SWAP2 SWAP1 PUSH2 0x2D79 JUMP JUMPDEST SWAP2 POP PUSH1 0xA DUP6 PUSH2 0x1E2D SWAP2 SWAP1 PUSH2 0x2EDE JUMP JUMPDEST PUSH1 0x30 PUSH2 0x1E39 SWAP2 SWAP1 PUSH2 0x2C98 JUMP JUMPDEST PUSH1 0xF8 SHL DUP2 DUP4 DUP2 MLOAD DUP2 LT PUSH2 0x1E75 JUMPI PUSH32 0x4E487B7100000000000000000000000000000000000000000000000000000000 PUSH1 0x0 MSTORE PUSH1 0x32 PUSH1 0x4 MSTORE PUSH1 0x24 PUSH1 0x0 REVERT JUMPDEST PUSH1 0x20 ADD ADD SWAP1 PUSH31 0xFFFFFFFFFFFFFFFFFFFFFFFFFFFFFFFFFFFFFFFFFFFFFFFFFFFFFFFFFFFFFF NOT AND SWAP1 DUP2 PUSH1 0x0 BYTE SWAP1 MSTORE8 POP PUSH1 0xA DUP6 PUSH2 0x1EB1 SWAP2 SWAP1 PUSH2 0x2CEE JUMP JUMPDEST SWAP5 POP PUSH2 0x1E09 JUMP JUMPDEST DUP1 SWAP4 POP POP POP POP JUMPDEST SWAP2 SWAP1 POP JUMP JUMPDEST PUSH1 0x0 CALLER SWAP1 POP SWAP1 JUMP JUMPDEST PUSH1 0x0 PUSH2 0x1EED DUP5 PUSH20 0xFFFFFFFFFFFFFFFFFFFFFFFFFFFFFFFFFFFFFFFF AND PUSH2 0x1FDE JUMP JUMPDEST ISZERO PUSH2 0x1FD1 JUMPI PUSH4 0x150B7A02 PUSH1 0xE0 SHL PUSH28 0xFFFFFFFFFFFFFFFFFFFFFFFFFFFFFFFFFFFFFFFFFFFFFFFFFFFFFFFF NOT AND DUP5 PUSH20 0xFFFFFFFFFFFFFFFFFFFFFFFFFFFFFFFFFFFFFFFF AND PUSH4 0x150B7A02 CALLER DUP9 DUP8 DUP8 PUSH1 0x40 MLOAD DUP6 PUSH4 0xFFFFFFFF AND PUSH1 0xE0 SHL DUP2 MSTORE PUSH1 0x4 ADD PUSH2 0x1F58 SWAP5 SWAP4 SWAP3 SWAP2 SWAP1 PUSH2 0x2965 JUMP JUMPDEST PUSH1 0x20 PUSH1 0x40 MLOAD DUP1 DUP4 SUB DUP2 PUSH1 0x0 DUP8 DUP1 EXTCODESIZE ISZERO DUP1 ISZERO PUSH2 0x1F72 JUMPI PUSH1 0x0 DUP1 REVERT JUMPDEST POP GAS CALL ISZERO DUP1 ISZERO PUSH2 0x1F86 JUMPI RETURNDATASIZE PUSH1 0x0 DUP1 RETURNDATACOPY RETURNDATASIZE PUSH1 0x0 REVERT JUMPDEST POP POP POP POP PUSH1 0x40 MLOAD RETURNDATASIZE PUSH1 0x1F NOT PUSH1 0x1F DUP3 ADD AND DUP3 ADD DUP1 PUSH1 0x40 MSTORE POP DUP2 ADD SWAP1 PUSH2 0x1FAA SWAP2 SWAP1 PUSH2 0x2335 JUMP JUMPDEST PUSH28 0xFFFFFFFFFFFFFFFFFFFFFFFFFFFFFFFFFFFFFFFFFFFFFFFFFFFFFFFF NOT AND EQ SWAP1 POP PUSH2 0x1FD6 JUMP JUMPDEST PUSH1 0x1 SWAP1 POP JUMPDEST SWAP5 SWAP4 POP POP POP POP JUMP JUMPDEST PUSH1 0x0 DUP1 DUP3 EXTCODESIZE SWAP1 POP PUSH1 0x0 DUP2 GT SWAP2 POP POP SWAP2 SWAP1 POP JUMP JUMPDEST DUP3 DUP1 SLOAD PUSH2 0x1FFD SWAP1 PUSH2 0x2E63 JUMP JUMPDEST SWAP1 PUSH1 0x0 MSTORE PUSH1 0x20 PUSH1 0x0 KECCAK256 SWAP1 PUSH1 0x1F ADD PUSH1 0x20 SWAP1 DIV DUP2 ADD SWAP3 DUP3 PUSH2 0x201F JUMPI PUSH1 0x0 DUP6 SSTORE PUSH2 0x2066 JUMP JUMPDEST DUP3 PUSH1 0x1F LT PUSH2 0x2038 JUMPI DUP1 MLOAD PUSH1 0xFF NOT AND DUP4 DUP1 ADD OR DUP6 SSTORE PUSH2 0x2066 JUMP JUMPDEST DUP3 DUP1 ADD PUSH1 0x1 ADD DUP6 SSTORE DUP3 ISZERO PUSH2 0x2066 JUMPI SWAP2 DUP3 ADD JUMPDEST DUP3 DUP2 GT ISZERO PUSH2 0x2065 JUMPI DUP3 MLOAD DUP3 SSTORE SWAP2 PUSH1 0x20 ADD SWAP2 SWAP1 PUSH1 0x1 ADD SWAP1 PUSH2 0x204A JUMP JUMPDEST JUMPDEST POP SWAP1 POP PUSH2 0x2073 SWAP2 SWAP1 PUSH2 0x2077 JUMP JUMPDEST POP SWAP1 JUMP JUMPDEST JUMPDEST DUP1 DUP3 GT ISZERO PUSH2 0x2090 JUMPI PUSH1 0x0 DUP2 PUSH1 0x0 SWAP1 SSTORE POP PUSH1 0x1 ADD PUSH2 0x2078 JUMP JUMPDEST POP SWAP1 JUMP JUMPDEST PUSH1 0x0 PUSH2 0x20A7 PUSH2 0x20A2 DUP5 PUSH2 0x2C1A JUMP JUMPDEST PUSH2 0x2BE9 JUMP JUMPDEST SWAP1 POP DUP3 DUP2 MSTORE PUSH1 0x20 DUP2 ADD DUP5 DUP5 DUP5 ADD GT ISZERO PUSH2 0x20BF JUMPI PUSH1 0x0 DUP1 REVERT JUMPDEST PUSH2 0x20CA DUP5 DUP3 DUP6 PUSH2 0x2E21 JUMP JUMPDEST POP SWAP4 SWAP3 POP POP POP JUMP JUMPDEST PUSH1 0x0 DUP2 CALLDATALOAD SWAP1 POP PUSH2 0x20E1 DUP2 PUSH2 0x2FDC JUMP JUMPDEST SWAP3 SWAP2 POP POP JUMP JUMPDEST PUSH1 0x0 DUP2 CALLDATALOAD SWAP1 POP PUSH2 0x20F6 DUP2 PUSH2 0x2FF3 JUMP JUMPDEST SWAP3 SWAP2 POP POP JUMP JUMPDEST PUSH1 0x0 DUP2 CALLDATALOAD SWAP1 POP PUSH2 0x210B DUP2 PUSH2 0x300A JUMP JUMPDEST SWAP3 SWAP2 POP POP JUMP JUMPDEST PUSH1 0x0 DUP2 MLOAD SWAP1 POP PUSH2 0x2120 DUP2 PUSH2 0x300A JUMP JUMPDEST SWAP3 SWAP2 POP POP JUMP JUMPDEST PUSH1 0x0 DUP3 PUSH1 0x1F DUP4 ADD SLT PUSH2 0x2137 JUMPI PUSH1 0x0 DUP1 REVERT JUMPDEST DUP2 CALLDATALOAD PUSH2 0x2147 DUP5 DUP3 PUSH1 0x20 DUP7 ADD PUSH2 0x2094 JUMP JUMPDEST SWAP2 POP POP SWAP3 SWAP2 POP POP JUMP JUMPDEST PUSH1 0x0 DUP2 CALLDATALOAD SWAP1 POP PUSH2 0x215F DUP2 PUSH2 0x3021 JUMP JUMPDEST SWAP3 SWAP2 POP POP JUMP JUMPDEST PUSH1 0x0 PUSH1 0x20 DUP3 DUP5 SUB SLT ISZERO PUSH2 0x2177 JUMPI PUSH1 0x0 DUP1 REVERT JUMPDEST PUSH1 0x0 PUSH2 0x2185 DUP5 DUP3 DUP6 ADD PUSH2 0x20D2 JUMP JUMPDEST SWAP2 POP POP SWAP3 SWAP2 POP POP JUMP JUMPDEST PUSH1 0x0 DUP1 PUSH1 0x40 DUP4 DUP6 SUB SLT ISZERO PUSH2 0x21A1 JUMPI PUSH1 0x0 DUP1 REVERT JUMPDEST PUSH1 0x0 PUSH2 0x21AF DUP6 DUP3 DUP7 ADD PUSH2 0x20D2 JUMP JUMPDEST SWAP3 POP POP PUSH1 0x20 PUSH2 0x21C0 DUP6 DUP3 DUP7 ADD PUSH2 0x20D2 JUMP JUMPDEST SWAP2 POP POP SWAP3 POP SWAP3 SWAP1 POP JUMP JUMPDEST PUSH1 0x0 DUP1 PUSH1 0x0 PUSH1 0x60 DUP5 DUP7 SUB SLT ISZERO PUSH2 0x21DF JUMPI PUSH1 0x0 DUP1 REVERT JUMPDEST PUSH1 0x0 PUSH2 0x21ED DUP7 DUP3 DUP8 ADD PUSH2 0x20D2 JUMP JUMPDEST SWAP4 POP POP PUSH1 0x20 PUSH2 0x21FE DUP7 DUP3 DUP8 ADD PUSH2 0x20D2 JUMP JUMPDEST SWAP3 POP POP PUSH1 0x40 PUSH2 0x220F DUP7 DUP3 DUP8 ADD PUSH2 0x2150 JUMP JUMPDEST SWAP2 POP POP SWAP3 POP SWAP3 POP SWAP3 JUMP JUMPDEST PUSH1 0x0 DUP1 PUSH1 0x0 DUP1 PUSH1 0x80 DUP6 DUP8 SUB SLT ISZERO PUSH2 0x222F JUMPI PUSH1 0x0 DUP1 REVERT JUMPDEST PUSH1 0x0 PUSH2 0x223D DUP8 DUP3 DUP9 ADD PUSH2 0x20D2 JUMP JUMPDEST SWAP5 POP POP PUSH1 0x20 PUSH2 0x224E DUP8 DUP3 DUP9 ADD PUSH2 0x20D2 JUMP JUMPDEST SWAP4 POP POP PUSH1 0x40 PUSH2 0x225F DUP8 DUP3 DUP9 ADD PUSH2 0x2150 JUMP JUMPDEST SWAP3 POP POP PUSH1 0x60 DUP6 ADD CALLDATALOAD PUSH8 0xFFFFFFFFFFFFFFFF DUP2 GT ISZERO PUSH2 0x227C JUMPI PUSH1 0x0 DUP1 REVERT JUMPDEST PUSH2 0x2288 DUP8 DUP3 DUP9 ADD PUSH2 0x2126 JUMP JUMPDEST SWAP2 POP POP SWAP3 SWAP6 SWAP2 SWAP5 POP SWAP3 POP JUMP JUMPDEST PUSH1 0x0 DUP1 PUSH1 0x40 DUP4 DUP6 SUB SLT ISZERO PUSH2 0x22A7 JUMPI PUSH1 0x0 DUP1 REVERT JUMPDEST PUSH1 0x0 PUSH2 0x22B5 DUP6 DUP3 DUP7 ADD PUSH2 0x20D2 JUMP JUMPDEST SWAP3 POP POP PUSH1 0x20 PUSH2 0x22C6 DUP6 DUP3 DUP7 ADD PUSH2 0x20E7 JUMP JUMPDEST SWAP2 POP POP SWAP3 POP SWAP3 SWAP1 POP JUMP JUMPDEST PUSH1 0x0 DUP1 PUSH1 0x40 DUP4 DUP6 SUB SLT ISZERO PUSH2 0x22E3 JUMPI PUSH1 0x0 DUP1 REVERT JUMPDEST PUSH1 0x0 PUSH2 0x22F1 DUP6 DUP3 DUP7 ADD PUSH2 0x20D2 JUMP JUMPDEST SWAP3 POP POP PUSH1 0x20 PUSH2 0x2302 DUP6 DUP3 DUP7 ADD PUSH2 0x2150 JUMP JUMPDEST SWAP2 POP POP SWAP3 POP SWAP3 SWAP1 POP JUMP JUMPDEST PUSH1 0x0 PUSH1 0x20 DUP3 DUP5 SUB SLT ISZERO PUSH2 0x231E JUMPI PUSH1 0x0 DUP1 REVERT JUMPDEST PUSH1 0x0 PUSH2 0x232C DUP5 DUP3 DUP6 ADD PUSH2 0x20FC JUMP JUMPDEST SWAP2 POP POP SWAP3 SWAP2 POP POP JUMP JUMPDEST PUSH1 0x0 PUSH1 0x20 DUP3 DUP5 SUB SLT ISZERO PUSH2 0x2347 JUMPI PUSH1 0x0 DUP1 REVERT JUMPDEST PUSH1 0x0 PUSH2 0x2355 DUP5 DUP3 DUP6 ADD PUSH2 0x2111 JUMP JUMPDEST SWAP2 POP POP SWAP3 SWAP2 POP POP JUMP JUMPDEST PUSH1 0x0 PUSH1 0x20 DUP3 DUP5 SUB SLT ISZERO PUSH2 0x2370 JUMPI PUSH1 0x0 DUP1 REVERT JUMPDEST PUSH1 0x0 PUSH2 0x237E DUP5 DUP3 DUP6 ADD PUSH2 0x2150 JUMP JUMPDEST SWAP2 POP POP SWAP3 SWAP2 POP POP JUMP JUMPDEST PUSH2 0x2390 DUP2 PUSH2 0x2DAD JUMP JUMPDEST DUP3 MSTORE POP POP JUMP JUMPDEST PUSH2 0x239F DUP2 PUSH2 0x2DBF JUMP JUMPDEST DUP3 MSTORE POP POP JUMP JUMPDEST PUSH1 0x0 PUSH2 0x23B0 DUP3 PUSH2 0x2C4A JUMP JUMPDEST PUSH2 0x23BA DUP2 DUP6 PUSH2 0x2C60 JUMP JUMPDEST SWAP4 POP PUSH2 0x23CA DUP2 DUP6 PUSH1 0x20 DUP7 ADD PUSH2 0x2E30 JUMP JUMPDEST PUSH2 0x23D3 DUP2 PUSH2 0x2FCB JUMP JUMPDEST DUP5 ADD SWAP2 POP POP SWAP3 SWAP2 POP POP JUMP JUMPDEST PUSH1 0x0 PUSH2 0x23E9 DUP3 PUSH2 0x2C55 JUMP JUMPDEST PUSH2 0x23F3 DUP2 DUP6 PUSH2 0x2C7C JUMP JUMPDEST SWAP4 POP PUSH2 0x2403 DUP2 DUP6 PUSH1 0x20 DUP7 ADD PUSH2 0x2E30 JUMP JUMPDEST PUSH2 0x240C DUP2 PUSH2 0x2FCB JUMP JUMPDEST DUP5 ADD SWAP2 POP POP SWAP3 SWAP2 POP POP JUMP JUMPDEST PUSH1 0x0 PUSH2 0x2422 DUP3 PUSH2 0x2C55 JUMP JUMPDEST PUSH2 0x242C DUP2 DUP6 PUSH2 0x2C8D JUMP JUMPDEST SWAP4 POP PUSH2 0x243C DUP2 DUP6 PUSH1 0x20 DUP7 ADD PUSH2 0x2E30 JUMP JUMPDEST DUP1 DUP5 ADD SWAP2 POP POP SWAP3 SWAP2 POP POP JUMP JUMPDEST PUSH1 0x0 PUSH2 0x2455 PUSH1 0x1D DUP4 PUSH2 0x2C7C JUMP JUMPDEST SWAP2 POP PUSH32 0x6E6F74206F776E6572206F7220617070726F76656420666F7220616C6C000000 PUSH1 0x0 DUP4 ADD MSTORE PUSH1 0x20 DUP3 ADD SWAP1 POP SWAP2 SWAP1 POP JUMP JUMPDEST PUSH1 0x0 PUSH2 0x2495 PUSH1 0xF DUP4 PUSH2 0x2C7C JUMP JUMPDEST SWAP2 POP PUSH32 0x746F206973203020616464726573730000000000000000000000000000000000 PUSH1 0x0 DUP4 ADD MSTORE PUSH1 0x20 DUP3 ADD SWAP1 POP SWAP2 SWAP1 POP JUMP JUMPDEST PUSH1 0x0 PUSH2 0x24D5 PUSH1 0x16 DUP4 PUSH2 0x2C7C JUMP JUMPDEST SWAP2 POP PUSH32 0x6E6F74206F776E6572206E6F7220617070726F76656400000000000000000000 PUSH1 0x0 DUP4 ADD MSTORE PUSH1 0x20 DUP3 ADD SWAP1 POP SWAP2 SWAP1 POP JUMP JUMPDEST PUSH1 0x0 PUSH2 0x2515 PUSH1 0x26 DUP4 PUSH2 0x2C7C JUMP JUMPDEST SWAP2 POP PUSH32 0x4F776E61626C653A206E6577206F776E657220697320746865207A65726F2061 PUSH1 0x0 DUP4 ADD MSTORE PUSH32 0x6464726573730000000000000000000000000000000000000000000000000000 PUSH1 0x20 DUP4 ADD MSTORE PUSH1 0x40 DUP3 ADD SWAP1 POP SWAP2 SWAP1 POP JUMP JUMPDEST PUSH1 0x0 PUSH2 0x257B PUSH1 0xF DUP4 PUSH2 0x2C7C JUMP JUMPDEST SWAP2 POP PUSH32 0x5472616E73666572206661696C65640000000000000000000000000000000000 PUSH1 0x0 DUP4 ADD MSTORE PUSH1 0x20 DUP3 ADD SWAP1 POP SWAP2 SWAP1 POP JUMP JUMPDEST PUSH1 0x0 PUSH2 0x25BB PUSH1 0x18 DUP4 PUSH2 0x2C7C JUMP JUMPDEST SWAP2 POP PUSH32 0x73616C6520686173206E6F742073746172746564207965740000000000000000 PUSH1 0x0 DUP4 ADD MSTORE PUSH1 0x20 DUP3 ADD SWAP1 POP SWAP2 SWAP1 POP JUMP JUMPDEST PUSH1 0x0 PUSH2 0x25FB PUSH1 0x13 DUP4 PUSH2 0x2C7C JUMP JUMPDEST SWAP2 POP PUSH32 0x746F6B656E20646F65736E277420657869737400000000000000000000000000 PUSH1 0x0 DUP4 ADD MSTORE PUSH1 0x20 DUP3 ADD SWAP1 POP SWAP2 SWAP1 POP JUMP JUMPDEST PUSH1 0x0 PUSH2 0x263B PUSH1 0x20 DUP4 PUSH2 0x2C7C JUMP JUMPDEST SWAP2 POP PUSH32 0x4F776E61626C653A2063616C6C6572206973206E6F7420746865206F776E6572 PUSH1 0x0 DUP4 ADD MSTORE PUSH1 0x20 DUP3 ADD SWAP1 POP SWAP2 SWAP1 POP JUMP JUMPDEST PUSH1 0x0 PUSH2 0x267B PUSH1 0x14 DUP4 PUSH2 0x2C7C JUMP JUMPDEST SWAP2 POP PUSH32 0x746F6B656E20616C7265616479206D696E746564000000000000000000000000 PUSH1 0x0 DUP4 ADD MSTORE PUSH1 0x20 DUP3 ADD SWAP1 POP SWAP2 SWAP1 POP JUMP JUMPDEST PUSH1 0x0 PUSH2 0x26BB PUSH1 0x11 DUP4 PUSH2 0x2C7C JUMP JUMPDEST SWAP2 POP PUSH32 0x6F776E6572203D20302061646472657373000000000000000000000000000000 PUSH1 0x0 DUP4 ADD MSTORE PUSH1 0x20 DUP3 ADD SWAP1 POP SWAP2 SWAP1 POP JUMP JUMPDEST PUSH1 0x0 PUSH2 0x26FB PUSH1 0x0 DUP4 PUSH2 0x2C71 JUMP JUMPDEST SWAP2 POP PUSH1 0x0 DUP3 ADD SWAP1 POP SWAP2 SWAP1 POP JUMP JUMPDEST PUSH1 0x0 PUSH2 0x2715 PUSH1 0x16 DUP4 PUSH2 0x2C7C JUMP JUMPDEST SWAP2 POP PUSH32 0x4E65656420746F2073656E64206D6F7265204554482E00000000000000000000 PUSH1 0x0 DUP4 ADD MSTORE PUSH1 0x20 DUP3 ADD SWAP1 POP SWAP2 SWAP1 POP JUMP JUMPDEST PUSH1 0x0 PUSH2 0x2755 PUSH1 0xF DUP4 PUSH2 0x2C7C JUMP JUMPDEST SWAP2 POP PUSH32 0x546F6B656E206E6F742065786973740000000000000000000000000000000000 PUSH1 0x0 DUP4 ADD MSTORE PUSH1 0x20 DUP3 ADD SWAP1 POP SWAP2 SWAP1 POP JUMP JUMPDEST PUSH1 0x0 PUSH2 0x2795 PUSH1 0x12 DUP4 PUSH2 0x2C7C JUMP JUMPDEST SWAP2 POP PUSH32 0x6E6F742045524337323152656365697665720000000000000000000000000000 PUSH1 0x0 DUP4 ADD MSTORE PUSH1 0x20 DUP3 ADD SWAP1 POP SWAP2 SWAP1 POP JUMP JUMPDEST PUSH1 0x0 PUSH2 0x27D5 PUSH1 0x48 DUP4 PUSH2 0x2C7C JUMP JUMPDEST SWAP2 POP PUSH32 0x6E6F7420656E6F7567682072656D61696E696E6720726573657276656420666F PUSH1 0x0 DUP4 ADD MSTORE PUSH32 0x722061756374696F6E20746F20737570706F72742064657369726564206D696E PUSH1 0x20 DUP4 ADD MSTORE PUSH32 0x7420616D6F756E74000000000000000000000000000000000000000000000000 PUSH1 0x40 DUP4 ADD MSTORE PUSH1 0x60 DUP3 ADD SWAP1 POP SWAP2 SWAP1 POP JUMP JUMPDEST PUSH1 0x0 PUSH2 0x2861 PUSH1 0x9 DUP4 PUSH2 0x2C7C JUMP JUMPDEST SWAP2 POP PUSH32 0x6E6F74206F776E65720000000000000000000000000000000000000000000000 PUSH1 0x0 DUP4 ADD MSTORE PUSH1 0x20 DUP3 ADD SWAP1 POP SWAP2 SWAP1 POP JUMP JUMPDEST PUSH2 0x289D DUP2 PUSH2 0x2E17 JUMP JUMPDEST DUP3 MSTORE POP POP JUMP JUMPDEST PUSH1 0x0 PUSH2 0x28AF DUP3 DUP6 PUSH2 0x2417 JUMP JUMPDEST SWAP2 POP PUSH2 0x28BB DUP3 DUP5 PUSH2 0x2417 JUMP JUMPDEST SWAP2 POP DUP2 SWAP1 POP SWAP4 SWAP3 POP POP POP JUMP JUMPDEST PUSH1 0x0 PUSH2 0x28D2 DUP3 PUSH2 0x26EE JUMP JUMPDEST SWAP2 POP DUP2 SWAP1 POP SWAP2 SWAP1 POP JUMP JUMPDEST PUSH1 0x0 PUSH1 0x20 DUP3 ADD SWAP1 POP PUSH2 0x28F1 PUSH1 0x0 DUP4 ADD DUP5 PUSH2 0x2387 JUMP JUMPDEST SWAP3 SWAP2 POP POP JUMP JUMPDEST PUSH1 0x0 PUSH1 0x60 DUP3 ADD SWAP1 POP PUSH2 0x290C PUSH1 0x0 DUP4 ADD DUP7 PUSH2 0x2387 JUMP JUMPDEST PUSH2 0x2919 PUSH1 0x20 DUP4 ADD DUP6 PUSH2 0x2387 JUMP JUMPDEST PUSH2 0x2926 PUSH1 0x40 DUP4 ADD DUP5 PUSH2 0x2396 JUMP JUMPDEST SWAP5 SWAP4 POP POP POP POP JUMP JUMPDEST PUSH1 0x0 PUSH1 0x60 DUP3 ADD SWAP1 POP PUSH2 0x2943 PUSH1 0x0 DUP4 ADD DUP7 PUSH2 0x2387 JUMP JUMPDEST PUSH2 0x2950 PUSH1 0x20 DUP4 ADD DUP6 PUSH2 0x2387 JUMP JUMPDEST PUSH2 0x295D PUSH1 0x40 DUP4 ADD DUP5 PUSH2 0x2894 JUMP JUMPDEST SWAP5 SWAP4 POP POP POP POP JUMP JUMPDEST PUSH1 0x0 PUSH1 0x80 DUP3 ADD SWAP1 POP PUSH2 0x297A PUSH1 0x0 DUP4 ADD DUP8 PUSH2 0x2387 JUMP JUMPDEST PUSH2 0x2987 PUSH1 0x20 DUP4 ADD DUP7 PUSH2 0x2387 JUMP JUMPDEST PUSH2 0x2994 PUSH1 0x40 DUP4 ADD DUP6 PUSH2 0x2894 JUMP JUMPDEST DUP2 DUP2 SUB PUSH1 0x60 DUP4 ADD MSTORE PUSH2 0x29A6 DUP2 DUP5 PUSH2 0x23A5 JUMP JUMPDEST SWAP1 POP SWAP6 SWAP5 POP POP POP POP POP JUMP JUMPDEST PUSH1 0x0 PUSH1 0x20 DUP3 ADD SWAP1 POP PUSH2 0x29C6 PUSH1 0x0 DUP4 ADD DUP5 PUSH2 0x2396 JUMP JUMPDEST SWAP3 SWAP2 POP POP JUMP JUMPDEST PUSH1 0x0 PUSH1 0x20 DUP3 ADD SWAP1 POP DUP2 DUP2 SUB PUSH1 0x0 DUP4 ADD MSTORE PUSH2 0x29E6 DUP2 DUP5 PUSH2 0x23DE JUMP JUMPDEST SWAP1 POP SWAP3 SWAP2 POP POP JUMP JUMPDEST PUSH1 0x0 PUSH1 0x20 DUP3 ADD SWAP1 POP DUP2 DUP2 SUB PUSH1 0x0 DUP4 ADD MSTORE PUSH2 0x2A07 DUP2 PUSH2 0x2448 JUMP JUMPDEST SWAP1 POP SWAP2 SWAP1 POP JUMP JUMPDEST PUSH1 0x0 PUSH1 0x20 DUP3 ADD SWAP1 POP DUP2 DUP2 SUB PUSH1 0x0 DUP4 ADD MSTORE PUSH2 0x2A27 DUP2 PUSH2 0x2488 JUMP JUMPDEST SWAP1 POP SWAP2 SWAP1 POP JUMP JUMPDEST PUSH1 0x0 PUSH1 0x20 DUP3 ADD SWAP1 POP DUP2 DUP2 SUB PUSH1 0x0 DUP4 ADD MSTORE PUSH2 0x2A47 DUP2 PUSH2 0x24C8 JUMP JUMPDEST SWAP1 POP SWAP2 SWAP1 POP JUMP JUMPDEST PUSH1 0x0 PUSH1 0x20 DUP3 ADD SWAP1 POP DUP2 DUP2 SUB PUSH1 0x0 DUP4 ADD MSTORE PUSH2 0x2A67 DUP2 PUSH2 0x2508 JUMP JUMPDEST SWAP1 POP SWAP2 SWAP1 POP JUMP JUMPDEST PUSH1 0x0 PUSH1 0x20 DUP3 ADD SWAP1 POP DUP2 DUP2 SUB PUSH1 0x0 DUP4 ADD MSTORE PUSH2 0x2A87 DUP2 PUSH2 0x256E JUMP JUMPDEST SWAP1 POP SWAP2 SWAP1 POP JUMP JUMPDEST PUSH1 0x0 PUSH1 0x20 DUP3 ADD SWAP1 POP DUP2 DUP2 SUB PUSH1 0x0 DUP4 ADD MSTORE PUSH2 0x2AA7 DUP2 PUSH2 0x25AE JUMP JUMPDEST SWAP1 POP SWAP2 SWAP1 POP JUMP JUMPDEST PUSH1 0x0 PUSH1 0x20 DUP3 ADD SWAP1 POP DUP2 DUP2 SUB PUSH1 0x0 DUP4 ADD MSTORE PUSH2 0x2AC7 DUP2 PUSH2 0x25EE JUMP JUMPDEST SWAP1 POP SWAP2 SWAP1 POP JUMP JUMPDEST PUSH1 0x0 PUSH1 0x20 DUP3 ADD SWAP1 POP DUP2 DUP2 SUB PUSH1 0x0 DUP4 ADD MSTORE PUSH2 0x2AE7 DUP2 PUSH2 0x262E JUMP JUMPDEST SWAP1 POP SWAP2 SWAP1 POP JUMP JUMPDEST PUSH1 0x0 PUSH1 0x20 DUP3 ADD SWAP1 POP DUP2 DUP2 SUB PUSH1 0x0 DUP4 ADD MSTORE PUSH2 0x2B07 DUP2 PUSH2 0x266E JUMP JUMPDEST SWAP1 POP SWAP2 SWAP1 POP JUMP JUMPDEST PUSH1 0x0 PUSH1 0x20 DUP3 ADD SWAP1 POP DUP2 DUP2 SUB PUSH1 0x0 DUP4 ADD MSTORE PUSH2 0x2B27 DUP2 PUSH2 0x26AE JUMP JUMPDEST SWAP1 POP SWAP2 SWAP1 POP JUMP JUMPDEST PUSH1 0x0 PUSH1 0x20 DUP3 ADD SWAP1 POP DUP2 DUP2 SUB PUSH1 0x0 DUP4 ADD MSTORE PUSH2 0x2B47 DUP2 PUSH2 0x2708 JUMP JUMPDEST SWAP1 POP SWAP2 SWAP1 POP JUMP JUMPDEST PUSH1 0x0 PUSH1 0x20 DUP3 ADD SWAP1 POP DUP2 DUP2 SUB PUSH1 0x0 DUP4 ADD MSTORE PUSH2 0x2B67 DUP2 PUSH2 0x2748 JUMP JUMPDEST SWAP1 POP SWAP2 SWAP1 POP JUMP JUMPDEST PUSH1 0x0 PUSH1 0x20 DUP3 ADD SWAP1 POP DUP2 DUP2 SUB PUSH1 0x0 DUP4 ADD MSTORE PUSH2 0x2B87 DUP2 PUSH2 0x2788 JUMP JUMPDEST SWAP1 POP SWAP2 SWAP1 POP JUMP JUMPDEST PUSH1 0x0 PUSH1 0x20 DUP3 ADD SWAP1 POP DUP2 DUP2 SUB PUSH1 0x0 DUP4 ADD MSTORE PUSH2 0x2BA7 DUP2 PUSH2 0x27C8 JUMP JUMPDEST SWAP1 POP SWAP2 SWAP1 POP JUMP JUMPDEST PUSH1 0x0 PUSH1 0x20 DUP3 ADD SWAP1 POP DUP2 DUP2 SUB PUSH1 0x0 DUP4 ADD MSTORE PUSH2 0x2BC7 DUP2 PUSH2 0x2854 JUMP JUMPDEST SWAP1 POP SWAP2 SWAP1 POP JUMP JUMPDEST PUSH1 0x0 PUSH1 0x20 DUP3 ADD SWAP1 POP PUSH2 0x2BE3 PUSH1 0x0 DUP4 ADD DUP5 PUSH2 0x2894 JUMP JUMPDEST SWAP3 SWAP2 POP POP JUMP JUMPDEST PUSH1 0x0 PUSH1 0x40 MLOAD SWAP1 POP DUP2 DUP2 ADD DUP2 DUP2 LT PUSH8 0xFFFFFFFFFFFFFFFF DUP3 GT OR ISZERO PUSH2 0x2C10 JUMPI PUSH2 0x2C0F PUSH2 0x2F9C JUMP JUMPDEST JUMPDEST DUP1 PUSH1 0x40 MSTORE POP SWAP2 SWAP1 POP JUMP JUMPDEST PUSH1 0x0 PUSH8 0xFFFFFFFFFFFFFFFF DUP3 GT ISZERO PUSH2 0x2C35 JUMPI PUSH2 0x2C34 PUSH2 0x2F9C JUMP JUMPDEST JUMPDEST PUSH1 0x1F NOT PUSH1 0x1F DUP4 ADD AND SWAP1 POP PUSH1 0x20 DUP2 ADD SWAP1 POP SWAP2 SWAP1 POP JUMP JUMPDEST PUSH1 0x0 DUP2 MLOAD SWAP1 POP SWAP2 SWAP1 POP JUMP JUMPDEST PUSH1 0x0 DUP2 MLOAD SWAP1 POP SWAP2 SWAP1 POP JUMP JUMPDEST PUSH1 0x0 DUP3 DUP3 MSTORE PUSH1 0x20 DUP3 ADD SWAP1 POP SWAP3 SWAP2 POP POP JUMP JUMPDEST PUSH1 0x0 DUP2 SWAP1 POP SWAP3 SWAP2 POP POP JUMP JUMPDEST PUSH1 0x0 DUP3 DUP3 MSTORE PUSH1 0x20 DUP3 ADD SWAP1 POP SWAP3 SWAP2 POP POP JUMP JUMPDEST PUSH1 0x0 DUP2 SWAP1 POP SWAP3 SWAP2 POP POP JUMP JUMPDEST PUSH1 0x0 PUSH2 0x2CA3 DUP3 PUSH2 0x2E17 JUMP JUMPDEST SWAP2 POP PUSH2 0x2CAE DUP4 PUSH2 0x2E17 JUMP JUMPDEST SWAP3 POP DUP3 PUSH32 0xFFFFFFFFFFFFFFFFFFFFFFFFFFFFFFFFFFFFFFFFFFFFFFFFFFFFFFFFFFFFFFFF SUB DUP3 GT ISZERO PUSH2 0x2CE3 JUMPI PUSH2 0x2CE2 PUSH2 0x2F0F JUMP JUMPDEST JUMPDEST DUP3 DUP3 ADD SWAP1 POP SWAP3 SWAP2 POP POP JUMP JUMPDEST PUSH1 0x0 PUSH2 0x2CF9 DUP3 PUSH2 0x2E17 JUMP JUMPDEST SWAP2 POP PUSH2 0x2D04 DUP4 PUSH2 0x2E17 JUMP JUMPDEST SWAP3 POP DUP3 PUSH2 0x2D14 JUMPI PUSH2 0x2D13 PUSH2 0x2F3E JUMP JUMPDEST JUMPDEST DUP3 DUP3 DIV SWAP1 POP SWAP3 SWAP2 POP POP JUMP JUMPDEST PUSH1 0x0 PUSH2 0x2D2A DUP3 PUSH2 0x2E17 JUMP JUMPDEST SWAP2 POP PUSH2 0x2D35 DUP4 PUSH2 0x2E17 JUMP JUMPDEST SWAP3 POP DUP2 PUSH32 0xFFFFFFFFFFFFFFFFFFFFFFFFFFFFFFFFFFFFFFFFFFFFFFFFFFFFFFFFFFFFFFFF DIV DUP4 GT DUP3 ISZERO ISZERO AND ISZERO PUSH2 0x2D6E JUMPI PUSH2 0x2D6D PUSH2 0x2F0F JUMP JUMPDEST JUMPDEST DUP3 DUP3 MUL SWAP1 POP SWAP3 SWAP2 POP POP JUMP JUMPDEST PUSH1 0x0 PUSH2 0x2D84 DUP3 PUSH2 0x2E17 JUMP JUMPDEST SWAP2 POP PUSH2 0x2D8F DUP4 PUSH2 0x2E17 JUMP JUMPDEST SWAP3 POP DUP3 DUP3 LT ISZERO PUSH2 0x2DA2 JUMPI PUSH2 0x2DA1 PUSH2 0x2F0F JUMP JUMPDEST JUMPDEST DUP3 DUP3 SUB SWAP1 POP SWAP3 SWAP2 POP POP JUMP JUMPDEST PUSH1 0x0 PUSH2 0x2DB8 DUP3 PUSH2 0x2DF7 JUMP JUMPDEST SWAP1 POP SWAP2 SWAP1 POP JUMP JUMPDEST PUSH1 0x0 DUP2 ISZERO ISZERO SWAP1 POP SWAP2 SWAP1 POP JUMP JUMPDEST PUSH1 0x0 PUSH32 0xFFFFFFFF00000000000000000000000000000000000000000000000000000000 DUP3 AND SWAP1 POP SWAP2 SWAP1 POP JUMP JUMPDEST PUSH1 0x0 PUSH20 0xFFFFFFFFFFFFFFFFFFFFFFFFFFFFFFFFFFFFFFFF DUP3 AND SWAP1 POP SWAP2 SWAP1 POP JUMP JUMPDEST PUSH1 0x0 DUP2 SWAP1 POP SWAP2 SWAP1 POP JUMP JUMPDEST DUP3 DUP2 DUP4 CALLDATACOPY PUSH1 0x0 DUP4 DUP4 ADD MSTORE POP POP POP JUMP JUMPDEST PUSH1 0x0 JUMPDEST DUP4 DUP2 LT ISZERO PUSH2 0x2E4E JUMPI DUP1 DUP3 ADD MLOAD DUP2 DUP5 ADD MSTORE PUSH1 0x20 DUP2 ADD SWAP1 POP PUSH2 0x2E33 JUMP JUMPDEST DUP4 DUP2 GT ISZERO PUSH2 0x2E5D JUMPI PUSH1 0x0 DUP5 DUP5 ADD MSTORE JUMPDEST POP POP POP POP JUMP JUMPDEST PUSH1 0x0 PUSH1 0x2 DUP3 DIV SWAP1 POP PUSH1 0x1 DUP3 AND DUP1 PUSH2 0x2E7B JUMPI PUSH1 0x7F DUP3 AND SWAP2 POP JUMPDEST PUSH1 0x20 DUP3 LT DUP2 EQ ISZERO PUSH2 0x2E8F JUMPI PUSH2 0x2E8E PUSH2 0x2F6D JUMP JUMPDEST JUMPDEST POP SWAP2 SWAP1 POP JUMP JUMPDEST PUSH1 0x0 PUSH2 0x2EA0 DUP3 PUSH2 0x2E17 JUMP JUMPDEST SWAP2 POP PUSH32 0xFFFFFFFFFFFFFFFFFFFFFFFFFFFFFFFFFFFFFFFFFFFFFFFFFFFFFFFFFFFFFFFF DUP3 EQ ISZERO PUSH2 0x2ED3 JUMPI PUSH2 0x2ED2 PUSH2 0x2F0F JUMP JUMPDEST JUMPDEST PUSH1 0x1 DUP3 ADD SWAP1 POP SWAP2 SWAP1 POP JUMP JUMPDEST PUSH1 0x0 PUSH2 0x2EE9 DUP3 PUSH2 0x2E17 JUMP JUMPDEST SWAP2 POP PUSH2 0x2EF4 DUP4 PUSH2 0x2E17 JUMP JUMPDEST SWAP3 POP DUP3 PUSH2 0x2F04 JUMPI PUSH2 0x2F03 PUSH2 0x2F3E JUMP JUMPDEST JUMPDEST DUP3 DUP3 MOD SWAP1 POP SWAP3 SWAP2 POP POP JUMP JUMPDEST PUSH32 0x4E487B7100000000000000000000000000000000000000000000000000000000 PUSH1 0x0 MSTORE PUSH1 0x11 PUSH1 0x4 MSTORE PUSH1 0x24 PUSH1 0x0 REVERT JUMPDEST PUSH32 0x4E487B7100000000000000000000000000000000000000000000000000000000 PUSH1 0x0 MSTORE PUSH1 0x12 PUSH1 0x4 MSTORE PUSH1 0x24 PUSH1 0x0 REVERT JUMPDEST PUSH32 0x4E487B7100000000000000000000000000000000000000000000000000000000 PUSH1 0x0 MSTORE PUSH1 0x22 PUSH1 0x4 MSTORE PUSH1 0x24 PUSH1 0x0 REVERT JUMPDEST PUSH32 0x4E487B7100000000000000000000000000000000000000000000000000000000 PUSH1 0x0 MSTORE PUSH1 0x41 PUSH1 0x4 MSTORE PUSH1 0x24 PUSH1 0x0 REVERT JUMPDEST PUSH1 0x0 PUSH1 0x1F NOT PUSH1 0x1F DUP4 ADD AND SWAP1 POP SWAP2 SWAP1 POP JUMP JUMPDEST PUSH2 0x2FE5 DUP2 PUSH2 0x2DAD JUMP JUMPDEST DUP2 EQ PUSH2 0x2FF0 JUMPI PUSH1 0x0 DUP1 REVERT JUMPDEST POP JUMP JUMPDEST PUSH2 0x2FFC DUP2 PUSH2 0x2DBF JUMP JUMPDEST DUP2 EQ PUSH2 0x3007 JUMPI PUSH1 0x0 DUP1 REVERT JUMPDEST POP JUMP JUMPDEST PUSH2 0x3013 DUP2 PUSH2 0x2DCB JUMP JUMPDEST DUP2 EQ PUSH2 0x301E JUMPI PUSH1 0x0 DUP1 REVERT JUMPDEST POP JUMP JUMPDEST PUSH2 0x302A DUP2 PUSH2 0x2E17 JUMP JUMPDEST DUP2 EQ PUSH2 0x3035 JUMPI PUSH1 0x0 DUP1 REVERT JUMPDEST POP JUMP INVALID PUSH10 0x7066733A2F2F516D6356 PUSH8 0x457535434C70474A PUSH6 0x5A5A45765346 CALLER 0x4C PUSH11 0x3352556D6B77574B556252 0x4C PUSH18 0x695472516356565539772FA2646970667358 0x22 SLT KECCAK256 0x2A 0xCE 0xE0 EXTCODEHASH PUSH16 0xC97E4828E35B698362E74C5B81077BBE SGT 0xB5 CREATE2 0xAC 0xF6 LT 0xB7 PUSH16 0x488F3E64736F6C634300080000330000 "
				},
				"gasEstimates": {
					"creation": {
						"codeDepositCost": "2490400",
						"executionCost": "infinite",
						"totalCost": "infinite"
					},
					"external": {
						"DROP_INTERVAL()": "397",
						"DROP_PER_STEP()": "infinite",
						"END_PRICE()": "395",
						"MAX_CPS()": "418",
						"START_PRICE()": "375",
						"TIME()": "418",
						"approvalForAll(address,bool)": "infinite",
						"approve(address,uint256)": "infinite",
						"auctionMint(uint256)": "infinite",
						"balanceOf(address)": "1625",
						"getApproved(uint256)": "2608",
						"getPrice()": "infinite",
						"isApprovedForAll(address,address)": "infinite",
						"name()": "infinite",
						"owner()": "1289",
						"ownerOf(uint256)": "1738",
						"renounceOwnership()": "24466",
						"safeTransferFrom(address,address,uint256)": "infinite",
						"safeTransferFrom(address,address,uint256,bytes)": "infinite",
						"setBaseURI(uint256)": "infinite",
						"setStartTime(uint256)": "21474",
						"startTime()": "1219",
						"supportsInterface(bytes4)": "777",
						"symbol()": "infinite",
						"tokenURI(uint256)": "infinite",
						"totalSupply()": "1235",
						"transferFrom(address,address,uint256)": "infinite",
						"transferOwnership(address)": "24857",
						"withdrawMoney()": "infinite"
					},
					"internal": {
						"_addTokenToAllTokensEnumeration(uint256)": "40937",
						"_baseURI()": "infinite"
					}
				},
				"methodIdentifiers": {
					"DROP_INTERVAL()": "096dc66f",
					"DROP_PER_STEP()": "3badcb56",
					"END_PRICE()": "da460977",
					"MAX_CPS()": "538f1672",
					"START_PRICE()": "3609ac8f",
					"TIME()": "beae6637",
					"approvalForAll(address,bool)": "c5e51b9e",
					"approve(address,uint256)": "095ea7b3",
					"auctionMint(uint256)": "4d3554c3",
					"balanceOf(address)": "70a08231",
					"getApproved(uint256)": "081812fc",
					"getPrice()": "98d5fdca",
					"isApprovedForAll(address,address)": "e985e9c5",
					"name()": "06fdde03",
					"owner()": "8da5cb5b",
					"ownerOf(uint256)": "6352211e",
					"renounceOwnership()": "715018a6",
					"safeTransferFrom(address,address,uint256)": "42842e0e",
					"safeTransferFrom(address,address,uint256,bytes)": "b88d4fde",
					"setBaseURI(uint256)": "8a75191e",
					"setStartTime(uint256)": "3e0a322d",
					"startTime()": "78e97925",
					"supportsInterface(bytes4)": "01ffc9a7",
					"symbol()": "95d89b41",
					"tokenURI(uint256)": "c87b56dd",
					"totalSupply()": "18160ddd",
					"transferFrom(address,address,uint256)": "23b872dd",
					"transferOwnership(address)": "f2fde38b",
					"withdrawMoney()": "ac446002"
				}
			},
			"storageLayout": {
				"storage": [
					{
						"astId": 7,
						"contract": "Chain Paper/CP.sol:CP",
						"label": "_owner",
						"offset": 0,
						"slot": "0",
						"type": "t_address"
					},
					{
						"astId": 419,
						"contract": "Chain Paper/CP.sol:CP",
						"label": "name",
						"offset": 0,
						"slot": "1",
						"type": "t_string_storage"
					},
					{
						"astId": 422,
						"contract": "Chain Paper/CP.sol:CP",
						"label": "symbol",
						"offset": 0,
						"slot": "2",
						"type": "t_string_storage"
					},
					{
						"astId": 426,
						"contract": "Chain Paper/CP.sol:CP",
						"label": "_owners",
						"offset": 0,
						"slot": "3",
						"type": "t_mapping(t_uint256,t_address)"
					},
					{
						"astId": 430,
						"contract": "Chain Paper/CP.sol:CP",
						"label": "_balances",
						"offset": 0,
						"slot": "4",
						"type": "t_mapping(t_address,t_uint256)"
					},
					{
						"astId": 434,
						"contract": "Chain Paper/CP.sol:CP",
						"label": "_tokenApprovals",
						"offset": 0,
						"slot": "5",
						"type": "t_mapping(t_uint256,t_address)"
					},
					{
						"astId": 440,
						"contract": "Chain Paper/CP.sol:CP",
						"label": "_operatorApprovals",
						"offset": 0,
						"slot": "6",
						"type": "t_mapping(t_address,t_mapping(t_address,t_bool))"
					},
					{
						"astId": 170,
						"contract": "Chain Paper/CP.sol:CP",
						"label": "startTime",
						"offset": 0,
						"slot": "7",
						"type": "t_uint256"
					},
					{
						"astId": 173,
						"contract": "Chain Paper/CP.sol:CP",
						"label": "_baseTokenURI",
						"offset": 0,
						"slot": "8",
						"type": "t_array(t_string_storage)dyn_storage"
					},
					{
						"astId": 176,
						"contract": "Chain Paper/CP.sol:CP",
						"label": "_allTokens",
						"offset": 0,
						"slot": "9",
						"type": "t_array(t_uint256)dyn_storage"
					}
				],
				"types": {
					"t_address": {
						"encoding": "inplace",
						"label": "address",
						"numberOfBytes": "20"
					},
					"t_array(t_string_storage)dyn_storage": {
						"base": "t_string_storage",
						"encoding": "dynamic_array",
						"label": "string[]",
						"numberOfBytes": "32"
					},
					"t_array(t_uint256)dyn_storage": {
						"base": "t_uint256",
						"encoding": "dynamic_array",
						"label": "uint256[]",
						"numberOfBytes": "32"
					},
					"t_bool": {
						"encoding": "inplace",
						"label": "bool",
						"numberOfBytes": "1"
					},
					"t_mapping(t_address,t_bool)": {
						"encoding": "mapping",
						"key": "t_address",
						"label": "mapping(address => bool)",
						"numberOfBytes": "32",
						"value": "t_bool"
					},
					"t_mapping(t_address,t_mapping(t_address,t_bool))": {
						"encoding": "mapping",
						"key": "t_address",
						"label": "mapping(address => mapping(address => bool))",
						"numberOfBytes": "32",
						"value": "t_mapping(t_address,t_bool)"
					},
					"t_mapping(t_address,t_uint256)": {
						"encoding": "mapping",
						"key": "t_address",
						"label": "mapping(address => uint256)",
						"numberOfBytes": "32",
						"value": "t_uint256"
					},
					"t_mapping(t_uint256,t_address)": {
						"encoding": "mapping",
						"key": "t_uint256",
						"label": "mapping(uint256 => address)",
						"numberOfBytes": "32",
						"value": "t_address"
					},
					"t_string_storage": {
						"encoding": "bytes",
						"label": "string",
						"numberOfBytes": "32"
					},
					"t_uint256": {
						"encoding": "inplace",
						"label": "uint256",
						"numberOfBytes": "32"
					}
				}
			},
			"userdoc": {
				"kind": "user",
				"methods": {},
				"version": 1
			}
		}
	}
}