{
	"Chain Paper/liberty/ERC721.sol": {
		"ERC721": {
			"abi": [
				{
					"inputs": [
						{
							"internalType": "string",
							"name": "name_",
							"type": "string"
						},
						{
							"internalType": "string",
							"name": "symbol_",
							"type": "string"
						}
					],
					"stateMutability": "nonpayable",
					"type": "constructor"
				},
				{
					"anonymous": false,
					"inputs": [
						{
							"indexed": false,
							"internalType": "address",
							"name": "owner",
							"type": "address"
						},
						{
							"indexed": false,
							"internalType": "address",
							"name": "operator",
							"type": "address"
						},
						{
							"indexed": false,
							"internalType": "bool",
							"name": "approved",
							"type": "bool"
						}
					],
					"name": "ApprovalForALl",
					"type": "event"
				},
				{
					"anonymous": false,
					"inputs": [
						{
							"indexed": false,
							"internalType": "address",
							"name": "owner",
							"type": "address"
						},
						{
							"indexed": false,
							"internalType": "address",
							"name": "approved",
							"type": "address"
						},
						{
							"indexed": false,
							"internalType": "uint256",
							"name": "tokenId",
							"type": "uint256"
						}
					],
					"name": "Approve",
					"type": "event"
				},
				{
					"anonymous": false,
					"inputs": [
						{
							"indexed": false,
							"internalType": "address",
							"name": "from",
							"type": "address"
						},
						{
							"indexed": false,
							"internalType": "address",
							"name": "to",
							"type": "address"
						},
						{
							"indexed": false,
							"internalType": "uint256",
							"name": "tokenId",
							"type": "uint256"
						}
					],
					"name": "Transfer",
					"type": "event"
				},
				{
					"inputs": [
						{
							"internalType": "address",
							"name": "operator",
							"type": "address"
						},
						{
							"internalType": "bool",
							"name": "approved",
							"type": "bool"
						}
					],
					"name": "approvalForAll",
					"outputs": [],
					"stateMutability": "nonpayable",
					"type": "function"
				},
				{
					"inputs": [
						{
							"internalType": "address",
							"name": "to",
							"type": "address"
						},
						{
							"internalType": "uint256",
							"name": "tokenId",
							"type": "uint256"
						}
					],
					"name": "approve",
					"outputs": [],
					"stateMutability": "nonpayable",
					"type": "function"
				},
				{
					"inputs": [
						{
							"internalType": "address",
							"name": "owner",
							"type": "address"
						}
					],
					"name": "balanceOf",
					"outputs": [
						{
							"internalType": "uint256",
							"name": "",
							"type": "uint256"
						}
					],
					"stateMutability": "view",
					"type": "function"
				},
				{
					"inputs": [
						{
							"internalType": "uint256",
							"name": "tokenId",
							"type": "uint256"
						}
					],
					"name": "getApproved",
					"outputs": [
						{
							"internalType": "address",
							"name": "",
							"type": "address"
						}
					],
					"stateMutability": "view",
					"type": "function"
				},
				{
					"inputs": [
						{
							"internalType": "address",
							"name": "owner",
							"type": "address"
						},
						{
							"internalType": "address",
							"name": "operator",
							"type": "address"
						}
					],
					"name": "isApprovedForAll",
					"outputs": [
						{
							"internalType": "bool",
							"name": "",
							"type": "bool"
						}
					],
					"stateMutability": "view",
					"type": "function"
				},
				{
					"inputs": [],
					"name": "name",
					"outputs": [
						{
							"internalType": "string",
							"name": "",
							"type": "string"
						}
					],
					"stateMutability": "view",
					"type": "function"
				},
				{
					"inputs": [
						{
							"internalType": "uint256",
							"name": "tokenId",
							"type": "uint256"
						}
					],
					"name": "ownerOf",
					"outputs": [
						{
							"internalType": "address",
							"name": "owner",
							"type": "address"
						}
					],
					"stateMutability": "view",
					"type": "function"
				},
				{
					"inputs": [
						{
							"internalType": "address",
							"name": "from",
							"type": "address"
						},
						{
							"internalType": "address",
							"name": "to",
							"type": "address"
						},
						{
							"internalType": "uint256",
							"name": "tokenId",
							"type": "uint256"
						}
					],
					"name": "safeTransferFrom",
					"outputs": [],
					"stateMutability": "nonpayable",
					"type": "function"
				},
				{
					"inputs": [
						{
							"internalType": "address",
							"name": "from",
							"type": "address"
						},
						{
							"internalType": "address",
							"name": "to",
							"type": "address"
						},
						{
							"internalType": "uint256",
							"name": "tokenId",
							"type": "uint256"
						},
						{
							"internalType": "bytes",
							"name": "_data",
							"type": "bytes"
						}
					],
					"name": "safeTransferFrom",
					"outputs": [],
					"stateMutability": "nonpayable",
					"type": "function"
				},
				{
					"inputs": [
						{
							"internalType": "bytes4",
							"name": "interfaceId",
							"type": "bytes4"
						}
					],
					"name": "supportsInterface",
					"outputs": [
						{
							"internalType": "bool",
							"name": "",
							"type": "bool"
						}
					],
					"stateMutability": "pure",
					"type": "function"
				},
				{
					"inputs": [],
					"name": "symbol",
					"outputs": [
						{
							"internalType": "string",
							"name": "",
							"type": "string"
						}
					],
					"stateMutability": "view",
					"type": "function"
				},
				{
					"inputs": [
						{
							"internalType": "uint256",
							"name": "tokenId",
							"type": "uint256"
						}
					],
					"name": "tokenURI",
					"outputs": [
						{
							"internalType": "string",
							"name": "",
							"type": "string"
						}
					],
					"stateMutability": "view",
					"type": "function"
				},
				{
					"inputs": [
						{
							"internalType": "address",
							"name": "from",
							"type": "address"
						},
						{
							"internalType": "address",
							"name": "to",
							"type": "address"
						},
						{
							"internalType": "uint256",
							"name": "tokenId",
							"type": "uint256"
						}
					],
					"name": "transferFrom",
					"outputs": [],
					"stateMutability": "nonpayable",
					"type": "function"
				}
			],
			"devdoc": {
				"kind": "dev",
				"methods": {},
				"version": 1
			},
			"evm": {
				"assembly": "    /* \"Chain Paper/liberty/ERC721.sol\":244:5716  contract ERC721 is IERC721,IERC721Metadata{\r... */\n  mstore(0x40, 0x80)\n    /* \"Chain Paper/liberty/ERC721.sol\":695:809  constructor(string memory name_, string memory symbol_) {\r... */\n  callvalue\n  dup1\n  iszero\n  tag_1\n  jumpi\n  0x00\n  dup1\n  revert\ntag_1:\n  pop\n  mload(0x40)\n  sub(codesize, bytecodeSize)\n  dup1\n  bytecodeSize\n  dup4\n  codecopy\n  dup2\n  dup2\n  add\n  0x40\n  mstore\n  dup2\n  add\n  swap1\n  tag_2\n  swap2\n  swap1\n  tag_3\n  jump\t// in\ntag_2:\n    /* \"Chain Paper/liberty/ERC721.sol\":769:774  name_ */\n  dup2\n    /* \"Chain Paper/liberty/ERC721.sol\":762:766  name */\n  0x00\n    /* \"Chain Paper/liberty/ERC721.sol\":762:774  name = name_ */\n  swap1\n  dup1\n  mload\n  swap1\n  0x20\n  add\n  swap1\n  tag_6\n  swap3\n  swap2\n  swap1\n  tag_7\n  jump\t// in\ntag_6:\n  pop\n    /* \"Chain Paper/liberty/ERC721.sol\":794:801  symbol_ */\n  dup1\n    /* \"Chain Paper/liberty/ERC721.sol\":785:791  symbol */\n  0x01\n    /* \"Chain Paper/liberty/ERC721.sol\":785:801  symbol = symbol_ */\n  swap1\n  dup1\n  mload\n  swap1\n  0x20\n  add\n  swap1\n  tag_8\n  swap3\n  swap2\n  swap1\n  tag_7\n  jump\t// in\ntag_8:\n  pop\n    /* \"Chain Paper/liberty/ERC721.sol\":695:809  constructor(string memory name_, string memory symbol_) {\r... */\n  pop\n  pop\n    /* \"Chain Paper/liberty/ERC721.sol\":244:5716  contract ERC721 is IERC721,IERC721Metadata{\r... */\n  jump(tag_9)\ntag_7:\n  dup3\n  dup1\n  sload\n  tag_10\n  swap1\n  tag_11\n  jump\t// in\ntag_10:\n  swap1\n  0x00\n  mstore\n  keccak256(0x00, 0x20)\n  swap1\n  0x1f\n  add\n  0x20\n  swap1\n  div\n  dup2\n  add\n  swap3\n  dup3\n  tag_13\n  jumpi\n  0x00\n  dup6\n  sstore\n  jump(tag_12)\ntag_13:\n  dup3\n  0x1f\n  lt\n  tag_14\n  jumpi\n  dup1\n  mload\n  not(0xff)\n  and\n  dup4\n  dup1\n  add\n  or\n  dup6\n  sstore\n  jump(tag_12)\ntag_14:\n  dup3\n  dup1\n  add\n  0x01\n  add\n  dup6\n  sstore\n  dup3\n  iszero\n  tag_12\n  jumpi\n  swap2\n  dup3\n  add\ntag_15:\n  dup3\n  dup2\n  gt\n  iszero\n  tag_16\n  jumpi\n  dup3\n  mload\n  dup3\n  sstore\n  swap2\n  0x20\n  add\n  swap2\n  swap1\n  0x01\n  add\n  swap1\n  jump(tag_15)\ntag_16:\ntag_12:\n  pop\n  swap1\n  pop\n  tag_17\n  swap2\n  swap1\n  tag_18\n  jump\t// in\ntag_17:\n  pop\n  swap1\n  jump\t// out\ntag_18:\ntag_19:\n  dup1\n  dup3\n  gt\n  iszero\n  tag_20\n  jumpi\n  0x00\n  dup2\n  0x00\n  swap1\n  sstore\n  pop\n  0x01\n  add\n  jump(tag_19)\ntag_20:\n  pop\n  swap1\n  jump\t// out\n    /* \"#utility.yul\":7:360   */\ntag_22:\n  0x00\n    /* \"#utility.yul\":121:186   */\n  tag_24\n    /* \"#utility.yul\":136:185   */\n  tag_25\n    /* \"#utility.yul\":178:184   */\n  dup5\n    /* \"#utility.yul\":136:185   */\n  tag_26\n  jump\t// in\ntag_25:\n    /* \"#utility.yul\":121:186   */\n  tag_27\n  jump\t// in\ntag_24:\n    /* \"#utility.yul\":112:186   */\n  swap1\n  pop\n    /* \"#utility.yul\":209:215   */\n  dup3\n    /* \"#utility.yul\":202:207   */\n  dup2\n    /* \"#utility.yul\":195:216   */\n  mstore\n    /* \"#utility.yul\":247:251   */\n  0x20\n    /* \"#utility.yul\":240:245   */\n  dup2\n    /* \"#utility.yul\":236:252   */\n  add\n    /* \"#utility.yul\":285:288   */\n  dup5\n    /* \"#utility.yul\":276:282   */\n  dup5\n    /* \"#utility.yul\":271:274   */\n  dup5\n    /* \"#utility.yul\":267:283   */\n  add\n    /* \"#utility.yul\":264:289   */\n  gt\n    /* \"#utility.yul\":261:263   */\n  iszero\n  tag_28\n  jumpi\n    /* \"#utility.yul\":302:303   */\n  0x00\n    /* \"#utility.yul\":299:300   */\n  dup1\n    /* \"#utility.yul\":292:304   */\n  revert\n    /* \"#utility.yul\":261:263   */\ntag_28:\n    /* \"#utility.yul\":315:354   */\n  tag_29\n    /* \"#utility.yul\":347:353   */\n  dup5\n    /* \"#utility.yul\":342:345   */\n  dup3\n    /* \"#utility.yul\":337:340   */\n  dup6\n    /* \"#utility.yul\":315:354   */\n  tag_30\n  jump\t// in\ntag_29:\n    /* \"#utility.yul\":102:360   */\n  pop\n  swap4\n  swap3\n  pop\n  pop\n  pop\n  jump\t// out\n    /* \"#utility.yul\":380:668   */\ntag_31:\n  0x00\n    /* \"#utility.yul\":496:499   */\n  dup3\n    /* \"#utility.yul\":489:493   */\n  0x1f\n    /* \"#utility.yul\":481:487   */\n  dup4\n    /* \"#utility.yul\":477:494   */\n  add\n    /* \"#utility.yul\":473:500   */\n  slt\n    /* \"#utility.yul\":463:465   */\n  tag_33\n  jumpi\n    /* \"#utility.yul\":514:515   */\n  0x00\n    /* \"#utility.yul\":511:512   */\n  dup1\n    /* \"#utility.yul\":504:516   */\n  revert\n    /* \"#utility.yul\":463:465   */\ntag_33:\n    /* \"#utility.yul\":547:553   */\n  dup2\n    /* \"#utility.yul\":541:554   */\n  mload\n    /* \"#utility.yul\":572:662   */\n  tag_34\n    /* \"#utility.yul\":658:661   */\n  dup5\n    /* \"#utility.yul\":650:656   */\n  dup3\n    /* \"#utility.yul\":643:647   */\n  0x20\n    /* \"#utility.yul\":635:641   */\n  dup7\n    /* \"#utility.yul\":631:648   */\n  add\n    /* \"#utility.yul\":572:662   */\n  tag_22\n  jump\t// in\ntag_34:\n    /* \"#utility.yul\":563:662   */\n  swap2\n  pop\n    /* \"#utility.yul\":453:668   */\n  pop\n  swap3\n  swap2\n  pop\n  pop\n  jump\t// out\n    /* \"#utility.yul\":674:1326   */\ntag_3:\n  0x00\n  dup1\n    /* \"#utility.yul\":830:832   */\n  0x40\n    /* \"#utility.yul\":818:827   */\n  dup4\n    /* \"#utility.yul\":809:816   */\n  dup6\n    /* \"#utility.yul\":805:828   */\n  sub\n    /* \"#utility.yul\":801:833   */\n  slt\n    /* \"#utility.yul\":798:800   */\n  iszero\n  tag_36\n  jumpi\n    /* \"#utility.yul\":846:847   */\n  0x00\n    /* \"#utility.yul\":843:844   */\n  dup1\n    /* \"#utility.yul\":836:848   */\n  revert\n    /* \"#utility.yul\":798:800   */\ntag_36:\n    /* \"#utility.yul\":910:911   */\n  0x00\n    /* \"#utility.yul\":899:908   */\n  dup4\n    /* \"#utility.yul\":895:912   */\n  add\n    /* \"#utility.yul\":889:913   */\n  mload\n    /* \"#utility.yul\":940:958   */\n  0xffffffffffffffff\n    /* \"#utility.yul\":932:938   */\n  dup2\n    /* \"#utility.yul\":929:959   */\n  gt\n    /* \"#utility.yul\":926:928   */\n  iszero\n  tag_37\n  jumpi\n    /* \"#utility.yul\":972:973   */\n  0x00\n    /* \"#utility.yul\":969:970   */\n  dup1\n    /* \"#utility.yul\":962:974   */\n  revert\n    /* \"#utility.yul\":926:928   */\ntag_37:\n    /* \"#utility.yul\":1000:1074   */\n  tag_38\n    /* \"#utility.yul\":1066:1073   */\n  dup6\n    /* \"#utility.yul\":1057:1063   */\n  dup3\n    /* \"#utility.yul\":1046:1055   */\n  dup7\n    /* \"#utility.yul\":1042:1064   */\n  add\n    /* \"#utility.yul\":1000:1074   */\n  tag_31\n  jump\t// in\ntag_38:\n    /* \"#utility.yul\":990:1074   */\n  swap3\n  pop\n    /* \"#utility.yul\":860:1084   */\n  pop\n    /* \"#utility.yul\":1144:1146   */\n  0x20\n    /* \"#utility.yul\":1133:1142   */\n  dup4\n    /* \"#utility.yul\":1129:1147   */\n  add\n    /* \"#utility.yul\":1123:1148   */\n  mload\n    /* \"#utility.yul\":1175:1193   */\n  0xffffffffffffffff\n    /* \"#utility.yul\":1167:1173   */\n  dup2\n    /* \"#utility.yul\":1164:1194   */\n  gt\n    /* \"#utility.yul\":1161:1163   */\n  iszero\n  tag_39\n  jumpi\n    /* \"#utility.yul\":1207:1208   */\n  0x00\n    /* \"#utility.yul\":1204:1205   */\n  dup1\n    /* \"#utility.yul\":1197:1209   */\n  revert\n    /* \"#utility.yul\":1161:1163   */\ntag_39:\n    /* \"#utility.yul\":1235:1309   */\n  tag_40\n    /* \"#utility.yul\":1301:1308   */\n  dup6\n    /* \"#utility.yul\":1292:1298   */\n  dup3\n    /* \"#utility.yul\":1281:1290   */\n  dup7\n    /* \"#utility.yul\":1277:1299   */\n  add\n    /* \"#utility.yul\":1235:1309   */\n  tag_31\n  jump\t// in\ntag_40:\n    /* \"#utility.yul\":1225:1309   */\n  swap2\n  pop\n    /* \"#utility.yul\":1094:1319   */\n  pop\n    /* \"#utility.yul\":788:1326   */\n  swap3\n  pop\n  swap3\n  swap1\n  pop\n  jump\t// out\n    /* \"#utility.yul\":1332:1615   */\ntag_27:\n  0x00\n    /* \"#utility.yul\":1398:1400   */\n  0x40\n    /* \"#utility.yul\":1392:1401   */\n  mload\n    /* \"#utility.yul\":1382:1401   */\n  swap1\n  pop\n    /* \"#utility.yul\":1440:1444   */\n  dup2\n    /* \"#utility.yul\":1432:1438   */\n  dup2\n    /* \"#utility.yul\":1428:1445   */\n  add\n    /* \"#utility.yul\":1547:1553   */\n  dup2\n    /* \"#utility.yul\":1535:1545   */\n  dup2\n    /* \"#utility.yul\":1532:1554   */\n  lt\n    /* \"#utility.yul\":1511:1529   */\n  0xffffffffffffffff\n    /* \"#utility.yul\":1499:1509   */\n  dup3\n    /* \"#utility.yul\":1496:1530   */\n  gt\n    /* \"#utility.yul\":1493:1555   */\n  or\n    /* \"#utility.yul\":1490:1492   */\n  iszero\n  tag_42\n  jumpi\n    /* \"#utility.yul\":1558:1576   */\n  tag_43\n  tag_44\n  jump\t// in\ntag_43:\n    /* \"#utility.yul\":1490:1492   */\ntag_42:\n    /* \"#utility.yul\":1598:1608   */\n  dup1\n    /* \"#utility.yul\":1594:1596   */\n  0x40\n    /* \"#utility.yul\":1587:1609   */\n  mstore\n    /* \"#utility.yul\":1372:1615   */\n  pop\n  swap2\n  swap1\n  pop\n  jump\t// out\n    /* \"#utility.yul\":1621:1953   */\ntag_26:\n  0x00\n    /* \"#utility.yul\":1773:1791   */\n  0xffffffffffffffff\n    /* \"#utility.yul\":1765:1771   */\n  dup3\n    /* \"#utility.yul\":1762:1792   */\n  gt\n    /* \"#utility.yul\":1759:1761   */\n  iszero\n  tag_46\n  jumpi\n    /* \"#utility.yul\":1795:1813   */\n  tag_47\n  tag_44\n  jump\t// in\ntag_47:\n    /* \"#utility.yul\":1759:1761   */\ntag_46:\n    /* \"#utility.yul\":1880:1884   */\n  0x1f\n    /* \"#utility.yul\":1876:1885   */\n  not\n    /* \"#utility.yul\":1869:1873   */\n  0x1f\n    /* \"#utility.yul\":1861:1867   */\n  dup4\n    /* \"#utility.yul\":1857:1874   */\n  add\n    /* \"#utility.yul\":1853:1886   */\n  and\n    /* \"#utility.yul\":1845:1886   */\n  swap1\n  pop\n    /* \"#utility.yul\":1941:1945   */\n  0x20\n    /* \"#utility.yul\":1935:1939   */\n  dup2\n    /* \"#utility.yul\":1931:1946   */\n  add\n    /* \"#utility.yul\":1923:1946   */\n  swap1\n  pop\n    /* \"#utility.yul\":1688:1953   */\n  swap2\n  swap1\n  pop\n  jump\t// out\n    /* \"#utility.yul\":1959:2266   */\ntag_30:\n    /* \"#utility.yul\":2027:2028   */\n  0x00\n    /* \"#utility.yul\":2037:2150   */\ntag_49:\n    /* \"#utility.yul\":2051:2057   */\n  dup4\n    /* \"#utility.yul\":2048:2049   */\n  dup2\n    /* \"#utility.yul\":2045:2058   */\n  lt\n    /* \"#utility.yul\":2037:2150   */\n  iszero\n  tag_51\n  jumpi\n    /* \"#utility.yul\":2136:2137   */\n  dup1\n    /* \"#utility.yul\":2131:2134   */\n  dup3\n    /* \"#utility.yul\":2127:2138   */\n  add\n    /* \"#utility.yul\":2121:2139   */\n  mload\n    /* \"#utility.yul\":2117:2118   */\n  dup2\n    /* \"#utility.yul\":2112:2115   */\n  dup5\n    /* \"#utility.yul\":2108:2119   */\n  add\n    /* \"#utility.yul\":2101:2140   */\n  mstore\n    /* \"#utility.yul\":2073:2075   */\n  0x20\n    /* \"#utility.yul\":2070:2071   */\n  dup2\n    /* \"#utility.yul\":2066:2076   */\n  add\n    /* \"#utility.yul\":2061:2076   */\n  swap1\n  pop\n    /* \"#utility.yul\":2037:2150   */\n  jump(tag_49)\ntag_51:\n    /* \"#utility.yul\":2168:2174   */\n  dup4\n    /* \"#utility.yul\":2165:2166   */\n  dup2\n    /* \"#utility.yul\":2162:2175   */\n  gt\n    /* \"#utility.yul\":2159:2161   */\n  iszero\n  tag_52\n  jumpi\n    /* \"#utility.yul\":2248:2249   */\n  0x00\n    /* \"#utility.yul\":2239:2245   */\n  dup5\n    /* \"#utility.yul\":2234:2237   */\n  dup5\n    /* \"#utility.yul\":2230:2246   */\n  add\n    /* \"#utility.yul\":2223:2250   */\n  mstore\n    /* \"#utility.yul\":2159:2161   */\ntag_52:\n    /* \"#utility.yul\":2008:2266   */\n  pop\n  pop\n  pop\n  pop\n  jump\t// out\n    /* \"#utility.yul\":2272:2592   */\ntag_11:\n  0x00\n    /* \"#utility.yul\":2353:2354   */\n  0x02\n    /* \"#utility.yul\":2347:2351   */\n  dup3\n    /* \"#utility.yul\":2343:2355   */\n  div\n    /* \"#utility.yul\":2333:2355   */\n  swap1\n  pop\n    /* \"#utility.yul\":2400:2401   */\n  0x01\n    /* \"#utility.yul\":2394:2398   */\n  dup3\n    /* \"#utility.yul\":2390:2402   */\n  and\n    /* \"#utility.yul\":2421:2439   */\n  dup1\n    /* \"#utility.yul\":2411:2413   */\n  tag_54\n  jumpi\n    /* \"#utility.yul\":2477:2481   */\n  0x7f\n    /* \"#utility.yul\":2469:2475   */\n  dup3\n    /* \"#utility.yul\":2465:2482   */\n  and\n    /* \"#utility.yul\":2455:2482   */\n  swap2\n  pop\n    /* \"#utility.yul\":2411:2413   */\ntag_54:\n    /* \"#utility.yul\":2539:2541   */\n  0x20\n    /* \"#utility.yul\":2531:2537   */\n  dup3\n    /* \"#utility.yul\":2528:2542   */\n  lt\n    /* \"#utility.yul\":2508:2526   */\n  dup2\n    /* \"#utility.yul\":2505:2543   */\n  eq\n    /* \"#utility.yul\":2502:2504   */\n  iszero\n  tag_55\n  jumpi\n    /* \"#utility.yul\":2558:2576   */\n  tag_56\n  tag_57\n  jump\t// in\ntag_56:\n    /* \"#utility.yul\":2502:2504   */\ntag_55:\n    /* \"#utility.yul\":2323:2592   */\n  pop\n  swap2\n  swap1\n  pop\n  jump\t// out\n    /* \"#utility.yul\":2598:2778   */\ntag_57:\n    /* \"#utility.yul\":2646:2723   */\n  0x4e487b7100000000000000000000000000000000000000000000000000000000\n    /* \"#utility.yul\":2643:2644   */\n  0x00\n    /* \"#utility.yul\":2636:2724   */\n  mstore\n    /* \"#utility.yul\":2743:2747   */\n  0x22\n    /* \"#utility.yul\":2740:2741   */\n  0x04\n    /* \"#utility.yul\":2733:2748   */\n  mstore\n    /* \"#utility.yul\":2767:2771   */\n  0x24\n    /* \"#utility.yul\":2764:2765   */\n  0x00\n    /* \"#utility.yul\":2757:2772   */\n  revert\n    /* \"#utility.yul\":2784:2964   */\ntag_44:\n    /* \"#utility.yul\":2832:2909   */\n  0x4e487b7100000000000000000000000000000000000000000000000000000000\n    /* \"#utility.yul\":2829:2830   */\n  0x00\n    /* \"#utility.yul\":2822:2910   */\n  mstore\n    /* \"#utility.yul\":2929:2933   */\n  0x41\n    /* \"#utility.yul\":2926:2927   */\n  0x04\n    /* \"#utility.yul\":2919:2934   */\n  mstore\n    /* \"#utility.yul\":2953:2957   */\n  0x24\n    /* \"#utility.yul\":2950:2951   */\n  0x00\n    /* \"#utility.yul\":2943:2958   */\n  revert\n    /* \"Chain Paper/liberty/ERC721.sol\":244:5716  contract ERC721 is IERC721,IERC721Metadata{\r... */\ntag_9:\n  dataSize(sub_0)\n  dup1\n  dataOffset(sub_0)\n  0x00\n  codecopy\n  0x00\n  return\nstop\n\nsub_0: assembly {\n        /* \"Chain Paper/liberty/ERC721.sol\":244:5716  contract ERC721 is IERC721,IERC721Metadata{\r... */\n      mstore(0x40, 0x80)\n      callvalue\n      dup1\n      iszero\n      tag_1\n      jumpi\n      0x00\n      dup1\n      revert\n    tag_1:\n      pop\n      jumpi(tag_2, lt(calldatasize, 0x04))\n      shr(0xe0, calldataload(0x00))\n      dup1\n      0x6352211e\n      gt\n      tag_16\n      jumpi\n      dup1\n      0xb88d4fde\n      gt\n      tag_17\n      jumpi\n      dup1\n      0xb88d4fde\n      eq\n      tag_12\n      jumpi\n      dup1\n      0xc5e51b9e\n      eq\n      tag_13\n      jumpi\n      dup1\n      0xc87b56dd\n      eq\n      tag_14\n      jumpi\n      dup1\n      0xe985e9c5\n      eq\n      tag_15\n      jumpi\n      jump(tag_2)\n    tag_17:\n      dup1\n      0x6352211e\n      eq\n      tag_9\n      jumpi\n      dup1\n      0x70a08231\n      eq\n      tag_10\n      jumpi\n      dup1\n      0x95d89b41\n      eq\n      tag_11\n      jumpi\n      jump(tag_2)\n    tag_16:\n      dup1\n      0x01ffc9a7\n      eq\n      tag_3\n      jumpi\n      dup1\n      0x06fdde03\n      eq\n      tag_4\n      jumpi\n      dup1\n      0x081812fc\n      eq\n      tag_5\n      jumpi\n      dup1\n      0x095ea7b3\n      eq\n      tag_6\n      jumpi\n      dup1\n      0x23b872dd\n      eq\n      tag_7\n      jumpi\n      dup1\n      0x42842e0e\n      eq\n      tag_8\n      jumpi\n    tag_2:\n      0x00\n      dup1\n      revert\n        /* \"Chain Paper/liberty/ERC721.sol\":817:1096  function supportsInterface(bytes4 interfaceId) external pure override returns(bool)  {\r... */\n    tag_3:\n      tag_18\n      0x04\n      dup1\n      calldatasize\n      sub\n      dup2\n      add\n      swap1\n      tag_19\n      swap2\n      swap1\n      tag_20\n      jump\t// in\n    tag_19:\n      tag_21\n      jump\t// in\n    tag_18:\n      mload(0x40)\n      tag_22\n      swap2\n      swap1\n      tag_23\n      jump\t// in\n    tag_22:\n      mload(0x40)\n      dup1\n      swap2\n      sub\n      swap1\n      return\n        /* \"Chain Paper/liberty/ERC721.sol\":390:417  string public override name */\n    tag_4:\n      tag_24\n      tag_25\n      jump\t// in\n    tag_24:\n      mload(0x40)\n      tag_26\n      swap2\n      swap1\n      tag_27\n      jump\t// in\n    tag_26:\n      mload(0x40)\n      dup1\n      swap2\n      sub\n      swap1\n      return\n        /* \"Chain Paper/liberty/ERC721.sol\":1844:2039  function getApproved(uint tokenId)external view override returns(address){\r... */\n    tag_5:\n      tag_28\n      0x04\n      dup1\n      calldatasize\n      sub\n      dup2\n      add\n      swap1\n      tag_29\n      swap2\n      swap1\n      tag_30\n      jump\t// in\n    tag_29:\n      tag_31\n      jump\t// in\n    tag_28:\n      mload(0x40)\n      tag_32\n      swap2\n      swap1\n      tag_33\n      jump\t// in\n    tag_32:\n      mload(0x40)\n      dup1\n      swap2\n      sub\n      swap1\n      return\n        /* \"Chain Paper/liberty/ERC721.sol\":2210:2474  function approve(address to , uint tokenId)external override {\r... */\n    tag_6:\n      tag_34\n      0x04\n      dup1\n      calldatasize\n      sub\n      dup2\n      add\n      swap1\n      tag_35\n      swap2\n      swap1\n      tag_36\n      jump\t// in\n    tag_35:\n      tag_37\n      jump\t// in\n    tag_34:\n      stop\n        /* \"Chain Paper/liberty/ERC721.sol\":3143:3390  function transferFrom(address from , address to , uint tokenId ) external override {\r... */\n    tag_7:\n      tag_38\n      0x04\n      dup1\n      calldatasize\n      sub\n      dup2\n      add\n      swap1\n      tag_39\n      swap2\n      swap1\n      tag_40\n      jump\t// in\n    tag_39:\n      tag_41\n      jump\t// in\n    tag_38:\n      stop\n        /* \"Chain Paper/liberty/ERC721.sol\":3955:4140  function safeTransferFrom(address from , address to ,uint tokenId )external override{\r... */\n    tag_8:\n      tag_42\n      0x04\n      dup1\n      calldatasize\n      sub\n      dup2\n      add\n      swap1\n      tag_43\n      swap2\n      swap1\n      tag_40\n      jump\t// in\n    tag_43:\n      tag_44\n      jump\t// in\n    tag_42:\n      stop\n        /* \"Chain Paper/liberty/ERC721.sol\":1282:1459  function ownerOf(uint tokenId)public view override returns(address owner){\r... */\n    tag_9:\n      tag_45\n      0x04\n      dup1\n      calldatasize\n      sub\n      dup2\n      add\n      swap1\n      tag_46\n      swap2\n      swap1\n      tag_30\n      jump\t// in\n    tag_46:\n      tag_47\n      jump\t// in\n    tag_45:\n      mload(0x40)\n      tag_48\n      swap2\n      swap1\n      tag_33\n      jump\t// in\n    tag_48:\n      mload(0x40)\n      dup1\n      swap2\n      sub\n      swap1\n      return\n        /* \"Chain Paper/liberty/ERC721.sol\":1104:1274  function balanceOf(address owner)external view override returns(uint){\r... */\n    tag_10:\n      tag_49\n      0x04\n      dup1\n      calldatasize\n      sub\n      dup2\n      add\n      swap1\n      tag_50\n      swap2\n      swap1\n      tag_51\n      jump\t// in\n    tag_50:\n      tag_52\n      jump\t// in\n    tag_49:\n      mload(0x40)\n      tag_53\n      swap2\n      swap1\n      tag_54\n      jump\t// in\n    tag_53:\n      mload(0x40)\n      dup1\n      swap2\n      sub\n      swap1\n      return\n        /* \"Chain Paper/liberty/ERC721.sol\":424:453  string public override symbol */\n    tag_11:\n      tag_55\n      tag_56\n      jump\t// in\n    tag_55:\n      mload(0x40)\n      tag_57\n      swap2\n      swap1\n      tag_27\n      jump\t// in\n    tag_57:\n      mload(0x40)\n      dup1\n      swap2\n      sub\n      swap1\n      return\n        /* \"Chain Paper/liberty/ERC721.sol\":3651:3947  function safeTransferFrom(address from , address to ,uint tokenId , bytes memory _data)public  override{\r... */\n    tag_12:\n      tag_58\n      0x04\n      dup1\n      calldatasize\n      sub\n      dup2\n      add\n      swap1\n      tag_59\n      swap2\n      swap1\n      tag_60\n      jump\t// in\n    tag_59:\n      tag_61\n      jump\t// in\n    tag_58:\n      stop\n        /* \"Chain Paper/liberty/ERC721.sol\":1631:1836  function approvalForAll(address operator,bool approved)external override{\r... */\n    tag_13:\n      tag_62\n      0x04\n      dup1\n      calldatasize\n      sub\n      dup2\n      add\n      swap1\n      tag_63\n      swap2\n      swap1\n      tag_64\n      jump\t// in\n    tag_63:\n      tag_65\n      jump\t// in\n    tag_62:\n      stop\n        /* \"Chain Paper/liberty/ERC721.sol\":5303:5612  function tokenURI(uint tokenId) public override virtual view returns(string memory){\r... */\n    tag_14:\n      tag_66\n      0x04\n      dup1\n      calldatasize\n      sub\n      dup2\n      add\n      swap1\n      tag_67\n      swap2\n      swap1\n      tag_30\n      jump\t// in\n    tag_67:\n      tag_68\n      jump\t// in\n    tag_66:\n      mload(0x40)\n      tag_69\n      swap2\n      swap1\n      tag_27\n      jump\t// in\n    tag_69:\n      mload(0x40)\n      dup1\n      swap2\n      sub\n      swap1\n      return\n        /* \"Chain Paper/liberty/ERC721.sol\":1469:1623  function isApprovedForAll(address owner,address operator)external view override returns(bool){\r... */\n    tag_15:\n      tag_70\n      0x04\n      dup1\n      calldatasize\n      sub\n      dup2\n      add\n      swap1\n      tag_71\n      swap2\n      swap1\n      tag_72\n      jump\t// in\n    tag_71:\n      tag_73\n      jump\t// in\n    tag_70:\n      mload(0x40)\n      tag_74\n      swap2\n      swap1\n      tag_23\n      jump\t// in\n    tag_74:\n      mload(0x40)\n      dup1\n      swap2\n      sub\n      swap1\n      return\n        /* \"Chain Paper/liberty/ERC721.sol\":817:1096  function supportsInterface(bytes4 interfaceId) external pure override returns(bool)  {\r... */\n    tag_21:\n        /* \"Chain Paper/liberty/ERC721.sol\":895:899  bool */\n      0x00\n        /* \"Chain Paper/liberty/ERC721.sol\":935:960  type(IERC721).interfaceId */\n      0xe765f73600000000000000000000000000000000000000000000000000000000\n        /* \"Chain Paper/liberty/ERC721.sol\":920:960  interfaceId == type(IERC721).interfaceId */\n      not(0xffffffffffffffffffffffffffffffffffffffffffffffffffffffff)\n      and\n        /* \"Chain Paper/liberty/ERC721.sol\":920:931  interfaceId */\n      dup3\n        /* \"Chain Paper/liberty/ERC721.sol\":920:960  interfaceId == type(IERC721).interfaceId */\n      not(0xffffffffffffffffffffffffffffffffffffffffffffffffffffffff)\n      and\n      eq\n        /* \"Chain Paper/liberty/ERC721.sol\":920:1020  interfaceId == type(IERC721).interfaceId ||\r... */\n      dup1\n      tag_76\n      jumpi\n      pop\n        /* \"Chain Paper/liberty/ERC721.sol\":995:1020  type(IERC165).interfaceId */\n      0x01ffc9a700000000000000000000000000000000000000000000000000000000\n        /* \"Chain Paper/liberty/ERC721.sol\":980:1020  interfaceId == type(IERC165).interfaceId */\n      not(0xffffffffffffffffffffffffffffffffffffffffffffffffffffffff)\n      and\n        /* \"Chain Paper/liberty/ERC721.sol\":980:991  interfaceId */\n      dup3\n        /* \"Chain Paper/liberty/ERC721.sol\":980:1020  interfaceId == type(IERC165).interfaceId */\n      not(0xffffffffffffffffffffffffffffffffffffffffffffffffffffffff)\n      and\n      eq\n        /* \"Chain Paper/liberty/ERC721.sol\":920:1020  interfaceId == type(IERC721).interfaceId ||\r... */\n    tag_76:\n        /* \"Chain Paper/liberty/ERC721.sol\":920:1088  interfaceId == type(IERC721).interfaceId ||\r... */\n      dup1\n      tag_77\n      jumpi\n      pop\n        /* \"Chain Paper/liberty/ERC721.sol\":1055:1088  type(IERC721Metadata).interfaceId */\n      0x5b5e139f00000000000000000000000000000000000000000000000000000000\n        /* \"Chain Paper/liberty/ERC721.sol\":1040:1088  interfaceId == type(IERC721Metadata).interfaceId */\n      not(0xffffffffffffffffffffffffffffffffffffffffffffffffffffffff)\n      and\n        /* \"Chain Paper/liberty/ERC721.sol\":1040:1051  interfaceId */\n      dup3\n        /* \"Chain Paper/liberty/ERC721.sol\":1040:1088  interfaceId == type(IERC721Metadata).interfaceId */\n      not(0xffffffffffffffffffffffffffffffffffffffffffffffffffffffff)\n      and\n      eq\n        /* \"Chain Paper/liberty/ERC721.sol\":920:1088  interfaceId == type(IERC721).interfaceId ||\r... */\n    tag_77:\n        /* \"Chain Paper/liberty/ERC721.sol\":913:1088  return interfaceId == type(IERC721).interfaceId ||\r... */\n      swap1\n      pop\n        /* \"Chain Paper/liberty/ERC721.sol\":817:1096  function supportsInterface(bytes4 interfaceId) external pure override returns(bool)  {\r... */\n      swap2\n      swap1\n      pop\n      jump\t// out\n        /* \"Chain Paper/liberty/ERC721.sol\":390:417  string public override name */\n    tag_25:\n      0x00\n      dup1\n      sload\n      tag_78\n      swap1\n      tag_79\n      jump\t// in\n    tag_78:\n      dup1\n      0x1f\n      add\n      0x20\n      dup1\n      swap2\n      div\n      mul\n      0x20\n      add\n      mload(0x40)\n      swap1\n      dup2\n      add\n      0x40\n      mstore\n      dup1\n      swap3\n      swap2\n      swap1\n      dup2\n      dup2\n      mstore\n      0x20\n      add\n      dup3\n      dup1\n      sload\n      tag_80\n      swap1\n      tag_79\n      jump\t// in\n    tag_80:\n      dup1\n      iszero\n      tag_81\n      jumpi\n      dup1\n      0x1f\n      lt\n      tag_82\n      jumpi\n      0x0100\n      dup1\n      dup4\n      sload\n      div\n      mul\n      dup4\n      mstore\n      swap2\n      0x20\n      add\n      swap2\n      jump(tag_81)\n    tag_82:\n      dup3\n      add\n      swap2\n      swap1\n      0x00\n      mstore\n      keccak256(0x00, 0x20)\n      swap1\n    tag_83:\n      dup2\n      sload\n      dup2\n      mstore\n      swap1\n      0x01\n      add\n      swap1\n      0x20\n      add\n      dup1\n      dup4\n      gt\n      tag_83\n      jumpi\n      dup3\n      swap1\n      sub\n      0x1f\n      and\n      dup3\n      add\n      swap2\n    tag_81:\n      pop\n      pop\n      pop\n      pop\n      pop\n      dup2\n      jump\t// out\n        /* \"Chain Paper/liberty/ERC721.sol\":1844:2039  function getApproved(uint tokenId)external view override returns(address){\r... */\n    tag_31:\n        /* \"Chain Paper/liberty/ERC721.sol\":1909:1916  address */\n      0x00\n        /* \"Chain Paper/liberty/ERC721.sol\":1964:1965  0 */\n      dup1\n        /* \"Chain Paper/liberty/ERC721.sol\":1936:1966  _owners[tokenId] != address(0) */\n      0xffffffffffffffffffffffffffffffffffffffff\n      and\n        /* \"Chain Paper/liberty/ERC721.sol\":1936:1943  _owners */\n      0x02\n        /* \"Chain Paper/liberty/ERC721.sol\":1936:1952  _owners[tokenId] */\n      0x00\n        /* \"Chain Paper/liberty/ERC721.sol\":1944:1951  tokenId */\n      dup5\n        /* \"Chain Paper/liberty/ERC721.sol\":1936:1952  _owners[tokenId] */\n      dup2\n      mstore\n      0x20\n      add\n      swap1\n      dup2\n      mstore\n      0x20\n      add\n      0x00\n      keccak256\n      0x00\n      swap1\n      sload\n      swap1\n      0x0100\n      exp\n      swap1\n      div\n      0xffffffffffffffffffffffffffffffffffffffff\n      and\n        /* \"Chain Paper/liberty/ERC721.sol\":1936:1966  _owners[tokenId] != address(0) */\n      0xffffffffffffffffffffffffffffffffffffffff\n      and\n      eq\n      iszero\n        /* \"Chain Paper/liberty/ERC721.sol\":1928:1989  require(_owners[tokenId] != address(0),\"token doesn't exist\") */\n      tag_85\n      jumpi\n      mload(0x40)\n      0x08c379a000000000000000000000000000000000000000000000000000000000\n      dup2\n      mstore\n      0x04\n      add\n      tag_86\n      swap1\n      tag_87\n      jump\t// in\n    tag_86:\n      mload(0x40)\n      dup1\n      swap2\n      sub\n      swap1\n      revert\n    tag_85:\n        /* \"Chain Paper/liberty/ERC721.sol\":2007:2022  _tokenApprovals */\n      0x04\n        /* \"Chain Paper/liberty/ERC721.sol\":2007:2031  _tokenApprovals[tokenId] */\n      0x00\n        /* \"Chain Paper/liberty/ERC721.sol\":2023:2030  tokenId */\n      dup4\n        /* \"Chain Paper/liberty/ERC721.sol\":2007:2031  _tokenApprovals[tokenId] */\n      dup2\n      mstore\n      0x20\n      add\n      swap1\n      dup2\n      mstore\n      0x20\n      add\n      0x00\n      keccak256\n      0x00\n      swap1\n      sload\n      swap1\n      0x0100\n      exp\n      swap1\n      div\n      0xffffffffffffffffffffffffffffffffffffffff\n      and\n        /* \"Chain Paper/liberty/ERC721.sol\":2000:2031  return _tokenApprovals[tokenId] */\n      swap1\n      pop\n        /* \"Chain Paper/liberty/ERC721.sol\":1844:2039  function getApproved(uint tokenId)external view override returns(address){\r... */\n      swap2\n      swap1\n      pop\n      jump\t// out\n        /* \"Chain Paper/liberty/ERC721.sol\":2210:2474  function approve(address to , uint tokenId)external override {\r... */\n    tag_37:\n        /* \"Chain Paper/liberty/ERC721.sol\":2282:2295  address owner */\n      0x00\n        /* \"Chain Paper/liberty/ERC721.sol\":2298:2305  _owners */\n      0x02\n        /* \"Chain Paper/liberty/ERC721.sol\":2298:2314  _owners[tokenId] */\n      0x00\n        /* \"Chain Paper/liberty/ERC721.sol\":2306:2313  tokenId */\n      dup4\n        /* \"Chain Paper/liberty/ERC721.sol\":2298:2314  _owners[tokenId] */\n      dup2\n      mstore\n      0x20\n      add\n      swap1\n      dup2\n      mstore\n      0x20\n      add\n      0x00\n      keccak256\n      0x00\n      swap1\n      sload\n      swap1\n      0x0100\n      exp\n      swap1\n      div\n      0xffffffffffffffffffffffffffffffffffffffff\n      and\n        /* \"Chain Paper/liberty/ERC721.sol\":2282:2314  address owner = _owners[tokenId] */\n      swap1\n      pop\n        /* \"Chain Paper/liberty/ERC721.sol\":2347:2352  owner */\n      dup1\n        /* \"Chain Paper/liberty/ERC721.sol\":2333:2352  msg.sender == owner */\n      0xffffffffffffffffffffffffffffffffffffffff\n      and\n        /* \"Chain Paper/liberty/ERC721.sol\":2333:2343  msg.sender */\n      caller\n        /* \"Chain Paper/liberty/ERC721.sol\":2333:2352  msg.sender == owner */\n      0xffffffffffffffffffffffffffffffffffffffff\n      and\n      eq\n        /* \"Chain Paper/liberty/ERC721.sol\":2333:2393  msg.sender == owner || _operatorApprovals[owner][msg.sender] */\n      dup1\n      tag_89\n      jumpi\n      pop\n        /* \"Chain Paper/liberty/ERC721.sol\":2356:2374  _operatorApprovals */\n      0x05\n        /* \"Chain Paper/liberty/ERC721.sol\":2356:2381  _operatorApprovals[owner] */\n      0x00\n        /* \"Chain Paper/liberty/ERC721.sol\":2375:2380  owner */\n      dup3\n        /* \"Chain Paper/liberty/ERC721.sol\":2356:2381  _operatorApprovals[owner] */\n      0xffffffffffffffffffffffffffffffffffffffff\n      and\n      0xffffffffffffffffffffffffffffffffffffffff\n      and\n      dup2\n      mstore\n      0x20\n      add\n      swap1\n      dup2\n      mstore\n      0x20\n      add\n      0x00\n      keccak256\n        /* \"Chain Paper/liberty/ERC721.sol\":2356:2393  _operatorApprovals[owner][msg.sender] */\n      0x00\n        /* \"Chain Paper/liberty/ERC721.sol\":2382:2392  msg.sender */\n      caller\n        /* \"Chain Paper/liberty/ERC721.sol\":2356:2393  _operatorApprovals[owner][msg.sender] */\n      0xffffffffffffffffffffffffffffffffffffffff\n      and\n      0xffffffffffffffffffffffffffffffffffffffff\n      and\n      dup2\n      mstore\n      0x20\n      add\n      swap1\n      dup2\n      mstore\n      0x20\n      add\n      0x00\n      keccak256\n      0x00\n      swap1\n      sload\n      swap1\n      0x0100\n      exp\n      swap1\n      div\n      0xff\n      and\n        /* \"Chain Paper/liberty/ERC721.sol\":2333:2393  msg.sender == owner || _operatorApprovals[owner][msg.sender] */\n    tag_89:\n        /* \"Chain Paper/liberty/ERC721.sol\":2325:2426  require(msg.sender == owner || _operatorApprovals[owner][msg.sender],\"not owner or approved for all\") */\n      tag_90\n      jumpi\n      mload(0x40)\n      0x08c379a000000000000000000000000000000000000000000000000000000000\n      dup2\n      mstore\n      0x04\n      add\n      tag_91\n      swap1\n      tag_92\n      jump\t// in\n    tag_91:\n      mload(0x40)\n      dup1\n      swap2\n      sub\n      swap1\n      revert\n    tag_90:\n        /* \"Chain Paper/liberty/ERC721.sol\":2437:2466  _approve(owner, to , tokenId) */\n      tag_93\n        /* \"Chain Paper/liberty/ERC721.sol\":2446:2451  owner */\n      dup2\n        /* \"Chain Paper/liberty/ERC721.sol\":2453:2455  to */\n      dup5\n        /* \"Chain Paper/liberty/ERC721.sol\":2458:2465  tokenId */\n      dup5\n        /* \"Chain Paper/liberty/ERC721.sol\":2437:2445  _approve */\n      tag_94\n        /* \"Chain Paper/liberty/ERC721.sol\":2437:2466  _approve(owner, to , tokenId) */\n      jump\t// in\n    tag_93:\n        /* \"Chain Paper/liberty/ERC721.sol\":2210:2474  function approve(address to , uint tokenId)external override {\r... */\n      pop\n      pop\n      pop\n      jump\t// out\n        /* \"Chain Paper/liberty/ERC721.sol\":3143:3390  function transferFrom(address from , address to , uint tokenId ) external override {\r... */\n    tag_41:\n        /* \"Chain Paper/liberty/ERC721.sol\":3237:3250  address owner */\n      0x00\n        /* \"Chain Paper/liberty/ERC721.sol\":3253:3269  ownerOf(tokenId) */\n      tag_96\n        /* \"Chain Paper/liberty/ERC721.sol\":3261:3268  tokenId */\n      dup3\n        /* \"Chain Paper/liberty/ERC721.sol\":3253:3260  ownerOf */\n      tag_47\n        /* \"Chain Paper/liberty/ERC721.sol\":3253:3269  ownerOf(tokenId) */\n      jump\t// in\n    tag_96:\n        /* \"Chain Paper/liberty/ERC721.sol\":3237:3269  address owner = ownerOf(tokenId) */\n      swap1\n      pop\n        /* \"Chain Paper/liberty/ERC721.sol\":3289:3335  _isApprovedOrOwner(owner , msg.sender,tokenId) */\n      tag_97\n        /* \"Chain Paper/liberty/ERC721.sol\":3308:3313  owner */\n      dup2\n        /* \"Chain Paper/liberty/ERC721.sol\":3316:3326  msg.sender */\n      caller\n        /* \"Chain Paper/liberty/ERC721.sol\":3327:3334  tokenId */\n      dup5\n        /* \"Chain Paper/liberty/ERC721.sol\":3289:3307  _isApprovedOrOwner */\n      tag_98\n        /* \"Chain Paper/liberty/ERC721.sol\":3289:3335  _isApprovedOrOwner(owner , msg.sender,tokenId) */\n      jump\t// in\n    tag_97:\n        /* \"Chain Paper/liberty/ERC721.sol\":3280:3336  require( _isApprovedOrOwner(owner , msg.sender,tokenId)) */\n      tag_99\n      jumpi\n      0x00\n      dup1\n      revert\n    tag_99:\n        /* \"Chain Paper/liberty/ERC721.sol\":3350:3382  _transfer(owner,from,to,tokenId) */\n      tag_100\n        /* \"Chain Paper/liberty/ERC721.sol\":3360:3365  owner */\n      dup2\n        /* \"Chain Paper/liberty/ERC721.sol\":3366:3370  from */\n      dup6\n        /* \"Chain Paper/liberty/ERC721.sol\":3371:3373  to */\n      dup6\n        /* \"Chain Paper/liberty/ERC721.sol\":3374:3381  tokenId */\n      dup6\n        /* \"Chain Paper/liberty/ERC721.sol\":3350:3359  _transfer */\n      tag_101\n        /* \"Chain Paper/liberty/ERC721.sol\":3350:3382  _transfer(owner,from,to,tokenId) */\n      jump\t// in\n    tag_100:\n        /* \"Chain Paper/liberty/ERC721.sol\":3143:3390  function transferFrom(address from , address to , uint tokenId ) external override {\r... */\n      pop\n      pop\n      pop\n      pop\n      jump\t// out\n        /* \"Chain Paper/liberty/ERC721.sol\":3955:4140  function safeTransferFrom(address from , address to ,uint tokenId )external override{\r... */\n    tag_44:\n        /* \"Chain Paper/liberty/ERC721.sol\":4050:4063  address owner */\n      0x00\n        /* \"Chain Paper/liberty/ERC721.sol\":4066:4082  ownerOf(tokenId) */\n      tag_103\n        /* \"Chain Paper/liberty/ERC721.sol\":4074:4081  tokenId */\n      dup3\n        /* \"Chain Paper/liberty/ERC721.sol\":4066:4073  ownerOf */\n      tag_47\n        /* \"Chain Paper/liberty/ERC721.sol\":4066:4082  ownerOf(tokenId) */\n      jump\t// in\n    tag_103:\n        /* \"Chain Paper/liberty/ERC721.sol\":4050:4082  address owner = ownerOf(tokenId) */\n      swap1\n      pop\n        /* \"Chain Paper/liberty/ERC721.sol\":4093:4132  _safeTransfer(owner,from,to,tokenId,\"\") */\n      tag_104\n        /* \"Chain Paper/liberty/ERC721.sol\":4107:4112  owner */\n      dup2\n        /* \"Chain Paper/liberty/ERC721.sol\":4113:4117  from */\n      dup6\n        /* \"Chain Paper/liberty/ERC721.sol\":4118:4120  to */\n      dup6\n        /* \"Chain Paper/liberty/ERC721.sol\":4121:4128  tokenId */\n      dup6\n        /* \"Chain Paper/liberty/ERC721.sol\":4093:4132  _safeTransfer(owner,from,to,tokenId,\"\") */\n      mload(0x40)\n      dup1\n      0x20\n      add\n      0x40\n      mstore\n      dup1\n      0x00\n      dup2\n      mstore\n      pop\n        /* \"Chain Paper/liberty/ERC721.sol\":4093:4106  _safeTransfer */\n      tag_105\n        /* \"Chain Paper/liberty/ERC721.sol\":4093:4132  _safeTransfer(owner,from,to,tokenId,\"\") */\n      jump\t// in\n    tag_104:\n        /* \"Chain Paper/liberty/ERC721.sol\":3955:4140  function safeTransferFrom(address from , address to ,uint tokenId )external override{\r... */\n      pop\n      pop\n      pop\n      pop\n      jump\t// out\n        /* \"Chain Paper/liberty/ERC721.sol\":1282:1459  function ownerOf(uint tokenId)public view override returns(address owner){\r... */\n    tag_47:\n        /* \"Chain Paper/liberty/ERC721.sol\":1341:1354  address owner */\n      0x00\n        /* \"Chain Paper/liberty/ERC721.sol\":1374:1381  _owners */\n      0x02\n        /* \"Chain Paper/liberty/ERC721.sol\":1374:1390  _owners[tokenId] */\n      0x00\n        /* \"Chain Paper/liberty/ERC721.sol\":1382:1389  tokenId */\n      dup4\n        /* \"Chain Paper/liberty/ERC721.sol\":1374:1390  _owners[tokenId] */\n      dup2\n      mstore\n      0x20\n      add\n      swap1\n      dup2\n      mstore\n      0x20\n      add\n      0x00\n      keccak256\n      0x00\n      swap1\n      sload\n      swap1\n      0x0100\n      exp\n      swap1\n      div\n      0xffffffffffffffffffffffffffffffffffffffff\n      and\n        /* \"Chain Paper/liberty/ERC721.sol\":1366:1390  owner = _owners[tokenId] */\n      swap1\n      pop\n        /* \"Chain Paper/liberty/ERC721.sol\":1426:1427  0 */\n      0x00\n        /* \"Chain Paper/liberty/ERC721.sol\":1409:1428  owner != address(0) */\n      0xffffffffffffffffffffffffffffffffffffffff\n      and\n        /* \"Chain Paper/liberty/ERC721.sol\":1409:1414  owner */\n      dup2\n        /* \"Chain Paper/liberty/ERC721.sol\":1409:1428  owner != address(0) */\n      0xffffffffffffffffffffffffffffffffffffffff\n      and\n      eq\n      iszero\n        /* \"Chain Paper/liberty/ERC721.sol\":1401:1451  require(owner != address(0),\"token doesn't exist\") */\n      tag_107\n      jumpi\n      mload(0x40)\n      0x08c379a000000000000000000000000000000000000000000000000000000000\n      dup2\n      mstore\n      0x04\n      add\n      tag_108\n      swap1\n      tag_87\n      jump\t// in\n    tag_108:\n      mload(0x40)\n      dup1\n      swap2\n      sub\n      swap1\n      revert\n    tag_107:\n        /* \"Chain Paper/liberty/ERC721.sol\":1282:1459  function ownerOf(uint tokenId)public view override returns(address owner){\r... */\n      swap2\n      swap1\n      pop\n      jump\t// out\n        /* \"Chain Paper/liberty/ERC721.sol\":1104:1274  function balanceOf(address owner)external view override returns(uint){\r... */\n    tag_52:\n        /* \"Chain Paper/liberty/ERC721.sol\":1168:1172  uint */\n      0x00\n        /* \"Chain Paper/liberty/ERC721.sol\":1209:1210  0 */\n      dup1\n        /* \"Chain Paper/liberty/ERC721.sol\":1192:1211  owner != address(0) */\n      0xffffffffffffffffffffffffffffffffffffffff\n      and\n        /* \"Chain Paper/liberty/ERC721.sol\":1192:1197  owner */\n      dup3\n        /* \"Chain Paper/liberty/ERC721.sol\":1192:1211  owner != address(0) */\n      0xffffffffffffffffffffffffffffffffffffffff\n      and\n      eq\n      iszero\n        /* \"Chain Paper/liberty/ERC721.sol\":1184:1232  require(owner != address(0),\"owner = 0 address\") */\n      tag_110\n      jumpi\n      mload(0x40)\n      0x08c379a000000000000000000000000000000000000000000000000000000000\n      dup2\n      mstore\n      0x04\n      add\n      tag_111\n      swap1\n      tag_112\n      jump\t// in\n    tag_111:\n      mload(0x40)\n      dup1\n      swap2\n      sub\n      swap1\n      revert\n    tag_110:\n        /* \"Chain Paper/liberty/ERC721.sol\":1250:1259  _balances */\n      0x03\n        /* \"Chain Paper/liberty/ERC721.sol\":1250:1266  _balances[owner] */\n      0x00\n        /* \"Chain Paper/liberty/ERC721.sol\":1260:1265  owner */\n      dup4\n        /* \"Chain Paper/liberty/ERC721.sol\":1250:1266  _balances[owner] */\n      0xffffffffffffffffffffffffffffffffffffffff\n      and\n      0xffffffffffffffffffffffffffffffffffffffff\n      and\n      dup2\n      mstore\n      0x20\n      add\n      swap1\n      dup2\n      mstore\n      0x20\n      add\n      0x00\n      keccak256\n      sload\n        /* \"Chain Paper/liberty/ERC721.sol\":1243:1266  return _balances[owner] */\n      swap1\n      pop\n        /* \"Chain Paper/liberty/ERC721.sol\":1104:1274  function balanceOf(address owner)external view override returns(uint){\r... */\n      swap2\n      swap1\n      pop\n      jump\t// out\n        /* \"Chain Paper/liberty/ERC721.sol\":424:453  string public override symbol */\n    tag_56:\n      0x01\n      dup1\n      sload\n      tag_113\n      swap1\n      tag_79\n      jump\t// in\n    tag_113:\n      dup1\n      0x1f\n      add\n      0x20\n      dup1\n      swap2\n      div\n      mul\n      0x20\n      add\n      mload(0x40)\n      swap1\n      dup2\n      add\n      0x40\n      mstore\n      dup1\n      swap3\n      swap2\n      swap1\n      dup2\n      dup2\n      mstore\n      0x20\n      add\n      dup3\n      dup1\n      sload\n      tag_114\n      swap1\n      tag_79\n      jump\t// in\n    tag_114:\n      dup1\n      iszero\n      tag_115\n      jumpi\n      dup1\n      0x1f\n      lt\n      tag_116\n      jumpi\n      0x0100\n      dup1\n      dup4\n      sload\n      div\n      mul\n      dup4\n      mstore\n      swap2\n      0x20\n      add\n      swap2\n      jump(tag_115)\n    tag_116:\n      dup3\n      add\n      swap2\n      swap1\n      0x00\n      mstore\n      keccak256(0x00, 0x20)\n      swap1\n    tag_117:\n      dup2\n      sload\n      dup2\n      mstore\n      swap1\n      0x01\n      add\n      swap1\n      0x20\n      add\n      dup1\n      dup4\n      gt\n      tag_117\n      jumpi\n      dup3\n      swap1\n      sub\n      0x1f\n      and\n      dup3\n      add\n      swap2\n    tag_115:\n      pop\n      pop\n      pop\n      pop\n      pop\n      dup2\n      jump\t// out\n        /* \"Chain Paper/liberty/ERC721.sol\":3651:3947  function safeTransferFrom(address from , address to ,uint tokenId , bytes memory _data)public  override{\r... */\n    tag_61:\n        /* \"Chain Paper/liberty/ERC721.sol\":3765:3778  address owner */\n      0x00\n        /* \"Chain Paper/liberty/ERC721.sol\":3781:3797  ownerOf(tokenId) */\n      tag_119\n        /* \"Chain Paper/liberty/ERC721.sol\":3789:3796  tokenId */\n      dup4\n        /* \"Chain Paper/liberty/ERC721.sol\":3781:3788  ownerOf */\n      tag_47\n        /* \"Chain Paper/liberty/ERC721.sol\":3781:3797  ownerOf(tokenId) */\n      jump\t// in\n    tag_119:\n        /* \"Chain Paper/liberty/ERC721.sol\":3765:3797  address owner = ownerOf(tokenId) */\n      swap1\n      pop\n        /* \"Chain Paper/liberty/ERC721.sol\":3816:3860  _isApprovedOrOwner(owner,msg.sender,tokenId) */\n      tag_120\n        /* \"Chain Paper/liberty/ERC721.sol\":3835:3840  owner */\n      dup2\n        /* \"Chain Paper/liberty/ERC721.sol\":3841:3851  msg.sender */\n      caller\n        /* \"Chain Paper/liberty/ERC721.sol\":3852:3859  tokenId */\n      dup6\n        /* \"Chain Paper/liberty/ERC721.sol\":3816:3834  _isApprovedOrOwner */\n      tag_98\n        /* \"Chain Paper/liberty/ERC721.sol\":3816:3860  _isApprovedOrOwner(owner,msg.sender,tokenId) */\n      jump\t// in\n    tag_120:\n        /* \"Chain Paper/liberty/ERC721.sol\":3808:3886  require(_isApprovedOrOwner(owner,msg.sender,tokenId),\"not owner nor approved\") */\n      tag_121\n      jumpi\n      mload(0x40)\n      0x08c379a000000000000000000000000000000000000000000000000000000000\n      dup2\n      mstore\n      0x04\n      add\n      tag_122\n      swap1\n      tag_123\n      jump\t// in\n    tag_122:\n      mload(0x40)\n      dup1\n      swap2\n      sub\n      swap1\n      revert\n    tag_121:\n        /* \"Chain Paper/liberty/ERC721.sol\":3897:3939  _safeTransfer(owner,from,to,tokenId,_data) */\n      tag_124\n        /* \"Chain Paper/liberty/ERC721.sol\":3911:3916  owner */\n      dup2\n        /* \"Chain Paper/liberty/ERC721.sol\":3917:3921  from */\n      dup7\n        /* \"Chain Paper/liberty/ERC721.sol\":3922:3924  to */\n      dup7\n        /* \"Chain Paper/liberty/ERC721.sol\":3925:3932  tokenId */\n      dup7\n        /* \"Chain Paper/liberty/ERC721.sol\":3933:3938  _data */\n      dup7\n        /* \"Chain Paper/liberty/ERC721.sol\":3897:3910  _safeTransfer */\n      tag_105\n        /* \"Chain Paper/liberty/ERC721.sol\":3897:3939  _safeTransfer(owner,from,to,tokenId,_data) */\n      jump\t// in\n    tag_124:\n        /* \"Chain Paper/liberty/ERC721.sol\":3651:3947  function safeTransferFrom(address from , address to ,uint tokenId , bytes memory _data)public  override{\r... */\n      pop\n      pop\n      pop\n      pop\n      pop\n      jump\t// out\n        /* \"Chain Paper/liberty/ERC721.sol\":1631:1836  function approvalForAll(address operator,bool approved)external override{\r... */\n    tag_65:\n        /* \"Chain Paper/liberty/ERC721.sol\":1757:1765  approved */\n      dup1\n        /* \"Chain Paper/liberty/ERC721.sol\":1714:1732  _operatorApprovals */\n      0x05\n        /* \"Chain Paper/liberty/ERC721.sol\":1714:1744  _operatorApprovals[msg.sender] */\n      0x00\n        /* \"Chain Paper/liberty/ERC721.sol\":1733:1743  msg.sender */\n      caller\n        /* \"Chain Paper/liberty/ERC721.sol\":1714:1744  _operatorApprovals[msg.sender] */\n      0xffffffffffffffffffffffffffffffffffffffff\n      and\n      0xffffffffffffffffffffffffffffffffffffffff\n      and\n      dup2\n      mstore\n      0x20\n      add\n      swap1\n      dup2\n      mstore\n      0x20\n      add\n      0x00\n      keccak256\n        /* \"Chain Paper/liberty/ERC721.sol\":1714:1754  _operatorApprovals[msg.sender][operator] */\n      0x00\n        /* \"Chain Paper/liberty/ERC721.sol\":1745:1753  operator */\n      dup5\n        /* \"Chain Paper/liberty/ERC721.sol\":1714:1754  _operatorApprovals[msg.sender][operator] */\n      0xffffffffffffffffffffffffffffffffffffffff\n      and\n      0xffffffffffffffffffffffffffffffffffffffff\n      and\n      dup2\n      mstore\n      0x20\n      add\n      swap1\n      dup2\n      mstore\n      0x20\n      add\n      0x00\n      keccak256\n      0x00\n        /* \"Chain Paper/liberty/ERC721.sol\":1714:1765  _operatorApprovals[msg.sender][operator] = approved */\n      0x0100\n      exp\n      dup2\n      sload\n      dup2\n      0xff\n      mul\n      not\n      and\n      swap1\n      dup4\n      iszero\n      iszero\n      mul\n      or\n      swap1\n      sstore\n      pop\n        /* \"Chain Paper/liberty/ERC721.sol\":1781:1828  ApprovalForALl(msg.sender , operator, approved) */\n      0x6e58f42f8934de1bf5b284476ba8126ee2d334c7aacf1ac87c6d4ebdb6ffb683\n        /* \"Chain Paper/liberty/ERC721.sol\":1796:1806  msg.sender */\n      caller\n        /* \"Chain Paper/liberty/ERC721.sol\":1809:1817  operator */\n      dup4\n        /* \"Chain Paper/liberty/ERC721.sol\":1819:1827  approved */\n      dup4\n        /* \"Chain Paper/liberty/ERC721.sol\":1781:1828  ApprovalForALl(msg.sender , operator, approved) */\n      mload(0x40)\n      tag_126\n      swap4\n      swap3\n      swap2\n      swap1\n      tag_127\n      jump\t// in\n    tag_126:\n      mload(0x40)\n      dup1\n      swap2\n      sub\n      swap1\n      log1\n        /* \"Chain Paper/liberty/ERC721.sol\":1631:1836  function approvalForAll(address operator,bool approved)external override{\r... */\n      pop\n      pop\n      jump\t// out\n        /* \"Chain Paper/liberty/ERC721.sol\":5303:5612  function tokenURI(uint tokenId) public override virtual view returns(string memory){\r... */\n    tag_68:\n        /* \"Chain Paper/liberty/ERC721.sol\":5372:5385  string memory */\n      0x60\n        /* \"Chain Paper/liberty/ERC721.sol\":5433:5434  0 */\n      0x00\n        /* \"Chain Paper/liberty/ERC721.sol\":5405:5435  _owners[tokenId] != address(0) */\n      0xffffffffffffffffffffffffffffffffffffffff\n      and\n        /* \"Chain Paper/liberty/ERC721.sol\":5405:5412  _owners */\n      0x02\n        /* \"Chain Paper/liberty/ERC721.sol\":5405:5421  _owners[tokenId] */\n      0x00\n        /* \"Chain Paper/liberty/ERC721.sol\":5413:5420  tokenId */\n      dup5\n        /* \"Chain Paper/liberty/ERC721.sol\":5405:5421  _owners[tokenId] */\n      dup2\n      mstore\n      0x20\n      add\n      swap1\n      dup2\n      mstore\n      0x20\n      add\n      0x00\n      keccak256\n      0x00\n      swap1\n      sload\n      swap1\n      0x0100\n      exp\n      swap1\n      div\n      0xffffffffffffffffffffffffffffffffffffffff\n      and\n        /* \"Chain Paper/liberty/ERC721.sol\":5405:5435  _owners[tokenId] != address(0) */\n      0xffffffffffffffffffffffffffffffffffffffff\n      and\n      eq\n      iszero\n        /* \"Chain Paper/liberty/ERC721.sol\":5397:5454  require(_owners[tokenId] != address(0),\"Token not exist\") */\n      tag_129\n      jumpi\n      mload(0x40)\n      0x08c379a000000000000000000000000000000000000000000000000000000000\n      dup2\n      mstore\n      0x04\n      add\n      tag_130\n      swap1\n      tag_131\n      jump\t// in\n    tag_130:\n      mload(0x40)\n      dup1\n      swap2\n      sub\n      swap1\n      revert\n    tag_129:\n        /* \"Chain Paper/liberty/ERC721.sol\":5467:5488  string memory baseURI */\n      0x00\n        /* \"Chain Paper/liberty/ERC721.sol\":5491:5501  _baseURI() */\n      tag_132\n        /* \"Chain Paper/liberty/ERC721.sol\":5491:5499  _baseURI */\n      tag_133\n        /* \"Chain Paper/liberty/ERC721.sol\":5491:5501  _baseURI() */\n      jump\t// in\n    tag_132:\n        /* \"Chain Paper/liberty/ERC721.sol\":5467:5501  string memory baseURI = _baseURI() */\n      swap1\n      pop\n        /* \"Chain Paper/liberty/ERC721.sol\":5542:5543  0 */\n      0x00\n        /* \"Chain Paper/liberty/ERC721.sol\":5525:5532  baseURI */\n      dup2\n        /* \"Chain Paper/liberty/ERC721.sol\":5519:5540  bytes(baseURI).length */\n      mload\n        /* \"Chain Paper/liberty/ERC721.sol\":5519:5543  bytes(baseURI).length >0 */\n      gt\n        /* \"Chain Paper/liberty/ERC721.sol\":5519:5602  bytes(baseURI).length >0 ? string(abi.encodePacked(baseURI,tokenId.toString())) :\"\" */\n      tag_134\n      jumpi\n      mload(0x40)\n      dup1\n      0x20\n      add\n      0x40\n      mstore\n      dup1\n      0x00\n      dup2\n      mstore\n      pop\n      jump(tag_135)\n    tag_134:\n        /* \"Chain Paper/liberty/ERC721.sol\":5570:5577  baseURI */\n      dup1\n        /* \"Chain Paper/liberty/ERC721.sol\":5578:5596  tokenId.toString() */\n      tag_136\n        /* \"Chain Paper/liberty/ERC721.sol\":5578:5585  tokenId */\n      dup5\n        /* \"Chain Paper/liberty/ERC721.sol\":5578:5594  tokenId.toString */\n      tag_137\n        /* \"Chain Paper/liberty/ERC721.sol\":5578:5596  tokenId.toString() */\n      jump\t// in\n    tag_136:\n        /* \"Chain Paper/liberty/ERC721.sol\":5553:5597  abi.encodePacked(baseURI,tokenId.toString()) */\n      add(0x20, mload(0x40))\n      tag_138\n      swap3\n      swap2\n      swap1\n      tag_139\n      jump\t// in\n    tag_138:\n      mload(0x40)\n      0x20\n      dup2\n      dup4\n      sub\n      sub\n      dup2\n      mstore\n      swap1\n      0x40\n      mstore\n        /* \"Chain Paper/liberty/ERC721.sol\":5519:5602  bytes(baseURI).length >0 ? string(abi.encodePacked(baseURI,tokenId.toString())) :\"\" */\n    tag_135:\n        /* \"Chain Paper/liberty/ERC721.sol\":5512:5602  return bytes(baseURI).length >0 ? string(abi.encodePacked(baseURI,tokenId.toString())) :\"\" */\n      swap2\n      pop\n      pop\n        /* \"Chain Paper/liberty/ERC721.sol\":5303:5612  function tokenURI(uint tokenId) public override virtual view returns(string memory){\r... */\n      swap2\n      swap1\n      pop\n      jump\t// out\n        /* \"Chain Paper/liberty/ERC721.sol\":1469:1623  function isApprovedForAll(address owner,address operator)external view override returns(bool){\r... */\n    tag_73:\n        /* \"Chain Paper/liberty/ERC721.sol\":1557:1561  bool */\n      0x00\n        /* \"Chain Paper/liberty/ERC721.sol\":1580:1598  _operatorApprovals */\n      0x05\n        /* \"Chain Paper/liberty/ERC721.sol\":1580:1605  _operatorApprovals[owner] */\n      0x00\n        /* \"Chain Paper/liberty/ERC721.sol\":1599:1604  owner */\n      dup5\n        /* \"Chain Paper/liberty/ERC721.sol\":1580:1605  _operatorApprovals[owner] */\n      0xffffffffffffffffffffffffffffffffffffffff\n      and\n      0xffffffffffffffffffffffffffffffffffffffff\n      and\n      dup2\n      mstore\n      0x20\n      add\n      swap1\n      dup2\n      mstore\n      0x20\n      add\n      0x00\n      keccak256\n        /* \"Chain Paper/liberty/ERC721.sol\":1580:1615  _operatorApprovals[owner][operator] */\n      0x00\n        /* \"Chain Paper/liberty/ERC721.sol\":1606:1614  operator */\n      dup4\n        /* \"Chain Paper/liberty/ERC721.sol\":1580:1615  _operatorApprovals[owner][operator] */\n      0xffffffffffffffffffffffffffffffffffffffff\n      and\n      0xffffffffffffffffffffffffffffffffffffffff\n      and\n      dup2\n      mstore\n      0x20\n      add\n      swap1\n      dup2\n      mstore\n      0x20\n      add\n      0x00\n      keccak256\n      0x00\n      swap1\n      sload\n      swap1\n      0x0100\n      exp\n      swap1\n      div\n      0xff\n      and\n        /* \"Chain Paper/liberty/ERC721.sol\":1573:1615  return _operatorApprovals[owner][operator] */\n      swap1\n      pop\n        /* \"Chain Paper/liberty/ERC721.sol\":1469:1623  function isApprovedForAll(address owner,address operator)external view override returns(bool){\r... */\n      swap3\n      swap2\n      pop\n      pop\n      jump\t// out\n        /* \"Chain Paper/liberty/ERC721.sol\":2047:2202  function _approve(address owner,address to , uint tokenId) private{\r... */\n    tag_94:\n        /* \"Chain Paper/liberty/ERC721.sol\":2151:2153  to */\n      dup2\n        /* \"Chain Paper/liberty/ERC721.sol\":2124:2139  _tokenApprovals */\n      0x04\n        /* \"Chain Paper/liberty/ERC721.sol\":2124:2148  _tokenApprovals[tokenId] */\n      0x00\n        /* \"Chain Paper/liberty/ERC721.sol\":2140:2147  tokenId */\n      dup4\n        /* \"Chain Paper/liberty/ERC721.sol\":2124:2148  _tokenApprovals[tokenId] */\n      dup2\n      mstore\n      0x20\n      add\n      swap1\n      dup2\n      mstore\n      0x20\n      add\n      0x00\n      keccak256\n      0x00\n        /* \"Chain Paper/liberty/ERC721.sol\":2124:2153  _tokenApprovals[tokenId] = to */\n      0x0100\n      exp\n      dup2\n      sload\n      dup2\n      0xffffffffffffffffffffffffffffffffffffffff\n      mul\n      not\n      and\n      swap1\n      dup4\n      0xffffffffffffffffffffffffffffffffffffffff\n      and\n      mul\n      or\n      swap1\n      sstore\n      pop\n        /* \"Chain Paper/liberty/ERC721.sol\":2169:2194  Approve(owner,to,tokenId) */\n      0x6e11fb1b7f119e3f2fa29896ef5fdf8b8a2d0d4df6fe90ba8668e7d8b2ffa25e\n        /* \"Chain Paper/liberty/ERC721.sol\":2177:2182  owner */\n      dup4\n        /* \"Chain Paper/liberty/ERC721.sol\":2183:2185  to */\n      dup4\n        /* \"Chain Paper/liberty/ERC721.sol\":2186:2193  tokenId */\n      dup4\n        /* \"Chain Paper/liberty/ERC721.sol\":2169:2194  Approve(owner,to,tokenId) */\n      mload(0x40)\n      tag_142\n      swap4\n      swap3\n      swap2\n      swap1\n      tag_143\n      jump\t// in\n    tag_142:\n      mload(0x40)\n      dup1\n      swap2\n      sub\n      swap1\n      log1\n        /* \"Chain Paper/liberty/ERC721.sol\":2047:2202  function _approve(address owner,address to , uint tokenId) private{\r... */\n      pop\n      pop\n      pop\n      jump\t// out\n        /* \"Chain Paper/liberty/ERC721.sol\":2482:2735  function _isApprovedOrOwner(address owner , address spender,uint tokenId)private view returns(bool){\r... */\n    tag_98:\n        /* \"Chain Paper/liberty/ERC721.sol\":2576:2580  bool */\n      0x00\n        /* \"Chain Paper/liberty/ERC721.sol\":2611:2616  owner */\n      dup4\n        /* \"Chain Paper/liberty/ERC721.sol\":2600:2616  spender == owner */\n      0xffffffffffffffffffffffffffffffffffffffff\n      and\n        /* \"Chain Paper/liberty/ERC721.sol\":2600:2607  spender */\n      dup4\n        /* \"Chain Paper/liberty/ERC721.sol\":2600:2616  spender == owner */\n      0xffffffffffffffffffffffffffffffffffffffff\n      and\n      eq\n        /* \"Chain Paper/liberty/ERC721.sol\":2600:2672  spender == owner ||\r... */\n      dup1\n      tag_145\n      jumpi\n      pop\n        /* \"Chain Paper/liberty/ERC721.sol\":2665:2672  spender */\n      dup3\n        /* \"Chain Paper/liberty/ERC721.sol\":2637:2672  _tokenApprovals[tokenId] == spender */\n      0xffffffffffffffffffffffffffffffffffffffff\n      and\n        /* \"Chain Paper/liberty/ERC721.sol\":2637:2652  _tokenApprovals */\n      0x04\n        /* \"Chain Paper/liberty/ERC721.sol\":2637:2661  _tokenApprovals[tokenId] */\n      0x00\n        /* \"Chain Paper/liberty/ERC721.sol\":2653:2660  tokenId */\n      dup5\n        /* \"Chain Paper/liberty/ERC721.sol\":2637:2661  _tokenApprovals[tokenId] */\n      dup2\n      mstore\n      0x20\n      add\n      swap1\n      dup2\n      mstore\n      0x20\n      add\n      0x00\n      keccak256\n      0x00\n      swap1\n      sload\n      swap1\n      0x0100\n      exp\n      swap1\n      div\n      0xffffffffffffffffffffffffffffffffffffffff\n      and\n        /* \"Chain Paper/liberty/ERC721.sol\":2637:2672  _tokenApprovals[tokenId] == spender */\n      0xffffffffffffffffffffffffffffffffffffffff\n      and\n      eq\n        /* \"Chain Paper/liberty/ERC721.sol\":2600:2672  spender == owner ||\r... */\n    tag_145:\n        /* \"Chain Paper/liberty/ERC721.sol\":2600:2727  spender == owner ||\r... */\n      dup1\n      tag_146\n      jumpi\n      pop\n        /* \"Chain Paper/liberty/ERC721.sol\":2693:2711  _operatorApprovals */\n      0x05\n        /* \"Chain Paper/liberty/ERC721.sol\":2693:2718  _operatorApprovals[owner] */\n      0x00\n        /* \"Chain Paper/liberty/ERC721.sol\":2712:2717  owner */\n      dup6\n        /* \"Chain Paper/liberty/ERC721.sol\":2693:2718  _operatorApprovals[owner] */\n      0xffffffffffffffffffffffffffffffffffffffff\n      and\n      0xffffffffffffffffffffffffffffffffffffffff\n      and\n      dup2\n      mstore\n      0x20\n      add\n      swap1\n      dup2\n      mstore\n      0x20\n      add\n      0x00\n      keccak256\n        /* \"Chain Paper/liberty/ERC721.sol\":2693:2727  _operatorApprovals[owner][spender] */\n      0x00\n        /* \"Chain Paper/liberty/ERC721.sol\":2719:2726  spender */\n      dup5\n        /* \"Chain Paper/liberty/ERC721.sol\":2693:2727  _operatorApprovals[owner][spender] */\n      0xffffffffffffffffffffffffffffffffffffffff\n      and\n      0xffffffffffffffffffffffffffffffffffffffff\n      and\n      dup2\n      mstore\n      0x20\n      add\n      swap1\n      dup2\n      mstore\n      0x20\n      add\n      0x00\n      keccak256\n      0x00\n      swap1\n      sload\n      swap1\n      0x0100\n      exp\n      swap1\n      div\n      0xff\n      and\n        /* \"Chain Paper/liberty/ERC721.sol\":2600:2727  spender == owner ||\r... */\n    tag_146:\n        /* \"Chain Paper/liberty/ERC721.sol\":2592:2727  return  spender == owner ||\r... */\n      swap1\n      pop\n        /* \"Chain Paper/liberty/ERC721.sol\":2482:2735  function _isApprovedOrOwner(address owner , address spender,uint tokenId)private view returns(bool){\r... */\n      swap4\n      swap3\n      pop\n      pop\n      pop\n      jump\t// out\n        /* \"Chain Paper/liberty/ERC721.sol\":2743:3135  function _transfer(address owner,address from , address to , uint tokenId)private {\r... */\n    tag_101:\n        /* \"Chain Paper/liberty/ERC721.sol\":2852:2857  owner */\n      dup4\n        /* \"Chain Paper/liberty/ERC721.sol\":2844:2857  from == owner */\n      0xffffffffffffffffffffffffffffffffffffffff\n      and\n        /* \"Chain Paper/liberty/ERC721.sol\":2844:2848  from */\n      dup4\n        /* \"Chain Paper/liberty/ERC721.sol\":2844:2857  from == owner */\n      0xffffffffffffffffffffffffffffffffffffffff\n      and\n      eq\n        /* \"Chain Paper/liberty/ERC721.sol\":2836:2870  require(from == owner,\"not owner\") */\n      tag_148\n      jumpi\n      mload(0x40)\n      0x08c379a000000000000000000000000000000000000000000000000000000000\n      dup2\n      mstore\n      0x04\n      add\n      tag_149\n      swap1\n      tag_150\n      jump\t// in\n    tag_149:\n      mload(0x40)\n      dup1\n      swap2\n      sub\n      swap1\n      revert\n    tag_148:\n        /* \"Chain Paper/liberty/ERC721.sol\":2903:2904  0 */\n      0x00\n        /* \"Chain Paper/liberty/ERC721.sol\":2889:2905  to != address(0) */\n      0xffffffffffffffffffffffffffffffffffffffff\n      and\n        /* \"Chain Paper/liberty/ERC721.sol\":2889:2891  to */\n      dup3\n        /* \"Chain Paper/liberty/ERC721.sol\":2889:2905  to != address(0) */\n      0xffffffffffffffffffffffffffffffffffffffff\n      and\n      eq\n      iszero\n        /* \"Chain Paper/liberty/ERC721.sol\":2881:2924  require(to != address(0),\"to is 0 address\") */\n      tag_151\n      jumpi\n      mload(0x40)\n      0x08c379a000000000000000000000000000000000000000000000000000000000\n      dup2\n      mstore\n      0x04\n      add\n      tag_152\n      swap1\n      tag_153\n      jump\t// in\n    tag_152:\n      mload(0x40)\n      dup1\n      swap2\n      sub\n      swap1\n      revert\n    tag_151:\n        /* \"Chain Paper/liberty/ERC721.sol\":2937:2973  _approve(owner, address(0), tokenId) */\n      tag_154\n        /* \"Chain Paper/liberty/ERC721.sol\":2946:2951  owner */\n      dup5\n        /* \"Chain Paper/liberty/ERC721.sol\":2961:2962  0 */\n      0x00\n        /* \"Chain Paper/liberty/ERC721.sol\":2965:2972  tokenId */\n      dup4\n        /* \"Chain Paper/liberty/ERC721.sol\":2937:2945  _approve */\n      tag_94\n        /* \"Chain Paper/liberty/ERC721.sol\":2937:2973  _approve(owner, address(0), tokenId) */\n      jump\t// in\n    tag_154:\n        /* \"Chain Paper/liberty/ERC721.sol\":3020:3021  1 */\n      0x01\n        /* \"Chain Paper/liberty/ERC721.sol\":3002:3011  _balances */\n      0x03\n        /* \"Chain Paper/liberty/ERC721.sol\":3002:3017  _balances[from] */\n      0x00\n        /* \"Chain Paper/liberty/ERC721.sol\":3012:3016  from */\n      dup6\n        /* \"Chain Paper/liberty/ERC721.sol\":3002:3017  _balances[from] */\n      0xffffffffffffffffffffffffffffffffffffffff\n      and\n      0xffffffffffffffffffffffffffffffffffffffff\n      and\n      dup2\n      mstore\n      0x20\n      add\n      swap1\n      dup2\n      mstore\n      0x20\n      add\n      0x00\n      keccak256\n      0x00\n        /* \"Chain Paper/liberty/ERC721.sol\":3002:3021  _balances[from] -=1 */\n      dup3\n      dup3\n      sload\n      tag_155\n      swap2\n      swap1\n      tag_156\n      jump\t// in\n    tag_155:\n      swap3\n      pop\n      pop\n      dup2\n      swap1\n      sstore\n      pop\n        /* \"Chain Paper/liberty/ERC721.sol\":3048:3049  1 */\n      0x01\n        /* \"Chain Paper/liberty/ERC721.sol\":3032:3041  _balances */\n      0x03\n        /* \"Chain Paper/liberty/ERC721.sol\":3032:3045  _balances[to] */\n      0x00\n        /* \"Chain Paper/liberty/ERC721.sol\":3042:3044  to */\n      dup5\n        /* \"Chain Paper/liberty/ERC721.sol\":3032:3045  _balances[to] */\n      0xffffffffffffffffffffffffffffffffffffffff\n      and\n      0xffffffffffffffffffffffffffffffffffffffff\n      and\n      dup2\n      mstore\n      0x20\n      add\n      swap1\n      dup2\n      mstore\n      0x20\n      add\n      0x00\n      keccak256\n      0x00\n        /* \"Chain Paper/liberty/ERC721.sol\":3032:3049  _balances[to] +=1 */\n      dup3\n      dup3\n      sload\n      tag_157\n      swap2\n      swap1\n      tag_158\n      jump\t// in\n    tag_157:\n      swap3\n      pop\n      pop\n      dup2\n      swap1\n      sstore\n      pop\n        /* \"Chain Paper/liberty/ERC721.sol\":3079:3081  to */\n      dup2\n        /* \"Chain Paper/liberty/ERC721.sol\":3060:3067  _owners */\n      0x02\n        /* \"Chain Paper/liberty/ERC721.sol\":3060:3076  _owners[tokenId] */\n      0x00\n        /* \"Chain Paper/liberty/ERC721.sol\":3068:3075  tokenId */\n      dup4\n        /* \"Chain Paper/liberty/ERC721.sol\":3060:3076  _owners[tokenId] */\n      dup2\n      mstore\n      0x20\n      add\n      swap1\n      dup2\n      mstore\n      0x20\n      add\n      0x00\n      keccak256\n      0x00\n        /* \"Chain Paper/liberty/ERC721.sol\":3060:3081  _owners[tokenId] = to */\n      0x0100\n      exp\n      dup2\n      sload\n      dup2\n      0xffffffffffffffffffffffffffffffffffffffff\n      mul\n      not\n      and\n      swap1\n      dup4\n      0xffffffffffffffffffffffffffffffffffffffff\n      and\n      mul\n      or\n      swap1\n      sstore\n      pop\n        /* \"Chain Paper/liberty/ERC721.sol\":3099:3127  Transfer(from , to ,tokenId) */\n      0xddf252ad1be2c89b69c2b068fc378daa952ba7f163c4a11628f55a4df523b3ef\n        /* \"Chain Paper/liberty/ERC721.sol\":3108:3112  from */\n      dup4\n        /* \"Chain Paper/liberty/ERC721.sol\":3115:3117  to */\n      dup4\n        /* \"Chain Paper/liberty/ERC721.sol\":3119:3126  tokenId */\n      dup4\n        /* \"Chain Paper/liberty/ERC721.sol\":3099:3127  Transfer(from , to ,tokenId) */\n      mload(0x40)\n      tag_159\n      swap4\n      swap3\n      swap2\n      swap1\n      tag_143\n      jump\t// in\n    tag_159:\n      mload(0x40)\n      dup1\n      swap2\n      sub\n      swap1\n      log1\n        /* \"Chain Paper/liberty/ERC721.sol\":2743:3135  function _transfer(address owner,address from , address to , uint tokenId)private {\r... */\n      pop\n      pop\n      pop\n      pop\n      jump\t// out\n        /* \"Chain Paper/liberty/ERC721.sol\":3398:3643  function _safeTransfer(address owner,address from, address to ,uint tokenId , bytes memory _data) private{\r... */\n    tag_105:\n        /* \"Chain Paper/liberty/ERC721.sol\":3514:3549  _transfer(owner,from , to ,tokenId) */\n      tag_161\n        /* \"Chain Paper/liberty/ERC721.sol\":3524:3529  owner */\n      dup6\n        /* \"Chain Paper/liberty/ERC721.sol\":3530:3534  from */\n      dup6\n        /* \"Chain Paper/liberty/ERC721.sol\":3537:3539  to */\n      dup6\n        /* \"Chain Paper/liberty/ERC721.sol\":3541:3548  tokenId */\n      dup6\n        /* \"Chain Paper/liberty/ERC721.sol\":3514:3523  _transfer */\n      tag_101\n        /* \"Chain Paper/liberty/ERC721.sol\":3514:3549  _transfer(owner,from , to ,tokenId) */\n      jump\t// in\n    tag_161:\n        /* \"Chain Paper/liberty/ERC721.sol\":3568:3613  _checkOnERC721Received(from,to,tokenId,_data) */\n      tag_162\n        /* \"Chain Paper/liberty/ERC721.sol\":3591:3595  from */\n      dup5\n        /* \"Chain Paper/liberty/ERC721.sol\":3596:3598  to */\n      dup5\n        /* \"Chain Paper/liberty/ERC721.sol\":3599:3606  tokenId */\n      dup5\n        /* \"Chain Paper/liberty/ERC721.sol\":3607:3612  _data */\n      dup5\n        /* \"Chain Paper/liberty/ERC721.sol\":3568:3590  _checkOnERC721Received */\n      tag_163\n        /* \"Chain Paper/liberty/ERC721.sol\":3568:3613  _checkOnERC721Received(from,to,tokenId,_data) */\n      jump\t// in\n    tag_162:\n        /* \"Chain Paper/liberty/ERC721.sol\":3560:3635  require(_checkOnERC721Received(from,to,tokenId,_data),\"not ERC721Receiver\") */\n      tag_164\n      jumpi\n      mload(0x40)\n      0x08c379a000000000000000000000000000000000000000000000000000000000\n      dup2\n      mstore\n      0x04\n      add\n      tag_165\n      swap1\n      tag_166\n      jump\t// in\n    tag_165:\n      mload(0x40)\n      dup1\n      swap2\n      sub\n      swap1\n      revert\n    tag_164:\n        /* \"Chain Paper/liberty/ERC721.sol\":3398:3643  function _safeTransfer(address owner,address from, address to ,uint tokenId , bytes memory _data) private{\r... */\n      pop\n      pop\n      pop\n      pop\n      pop\n      jump\t// out\n        /* \"Chain Paper/liberty/ERC721.sol\":5620:5713  function _baseURI() internal view virtual returns (string memory){\r... */\n    tag_133:\n        /* \"Chain Paper/liberty/ERC721.sol\":5671:5684  string memory */\n      0x60\n        /* \"Chain Paper/liberty/ERC721.sol\":5696:5705  return \"\" */\n      mload(0x40)\n      dup1\n      0x20\n      add\n      0x40\n      mstore\n      dup1\n      0x00\n      dup2\n      mstore\n      pop\n      swap1\n      pop\n        /* \"Chain Paper/liberty/ERC721.sol\":5620:5713  function _baseURI() internal view virtual returns (string memory){\r... */\n      swap1\n      jump\t// out\n        /* \"Chain Paper/other/Strings.sol\":407:1130  function toString(uint256 value) internal pure returns (string memory) {\r... */\n    tag_137:\n        /* \"Chain Paper/other/Strings.sol\":463:476  string memory */\n      0x60\n        /* \"Chain Paper/other/Strings.sol\":693:694  0 */\n      0x00\n        /* \"Chain Paper/other/Strings.sol\":684:689  value */\n      dup3\n        /* \"Chain Paper/other/Strings.sol\":684:694  value == 0 */\n      eq\n        /* \"Chain Paper/other/Strings.sol\":680:733  if (value == 0) {\r... */\n      iszero\n      tag_169\n      jumpi\n        /* \"Chain Paper/other/Strings.sol\":711:721  return \"0\" */\n      mload(0x40)\n      dup1\n      0x40\n      add\n      0x40\n      mstore\n      dup1\n      0x01\n      dup2\n      mstore\n      0x20\n      add\n      0x3000000000000000000000000000000000000000000000000000000000000000\n      dup2\n      mstore\n      pop\n      swap1\n      pop\n      jump(tag_168)\n        /* \"Chain Paper/other/Strings.sol\":680:733  if (value == 0) {\r... */\n    tag_169:\n        /* \"Chain Paper/other/Strings.sol\":743:755  uint256 temp */\n      0x00\n        /* \"Chain Paper/other/Strings.sol\":758:763  value */\n      dup3\n        /* \"Chain Paper/other/Strings.sol\":743:763  uint256 temp = value */\n      swap1\n      pop\n        /* \"Chain Paper/other/Strings.sol\":774:788  uint256 digits */\n      0x00\n        /* \"Chain Paper/other/Strings.sol\":799:877  while (temp != 0) {\r... */\n    tag_170:\n        /* \"Chain Paper/other/Strings.sol\":814:815  0 */\n      0x00\n        /* \"Chain Paper/other/Strings.sol\":806:810  temp */\n      dup3\n        /* \"Chain Paper/other/Strings.sol\":806:815  temp != 0 */\n      eq\n        /* \"Chain Paper/other/Strings.sol\":799:877  while (temp != 0) {\r... */\n      tag_171\n      jumpi\n        /* \"Chain Paper/other/Strings.sol\":832:840  digits++ */\n      dup1\n      dup1\n      tag_172\n      swap1\n      tag_173\n      jump\t// in\n    tag_172:\n      swap2\n      pop\n      pop\n        /* \"Chain Paper/other/Strings.sol\":863:865  10 */\n      0x0a\n        /* \"Chain Paper/other/Strings.sol\":855:865  temp /= 10 */\n      dup3\n      tag_174\n      swap2\n      swap1\n      tag_175\n      jump\t// in\n    tag_174:\n      swap2\n      pop\n        /* \"Chain Paper/other/Strings.sol\":799:877  while (temp != 0) {\r... */\n      jump(tag_170)\n    tag_171:\n        /* \"Chain Paper/other/Strings.sol\":887:906  bytes memory buffer */\n      0x00\n        /* \"Chain Paper/other/Strings.sol\":919:925  digits */\n      dup2\n        /* \"Chain Paper/other/Strings.sol\":909:926  new bytes(digits) */\n      0xffffffffffffffff\n      dup2\n      gt\n      iszero\n      tag_176\n      jumpi\n      mstore(0x00, 0x4e487b7100000000000000000000000000000000000000000000000000000000)\n      mstore(0x04, 0x41)\n      revert(0x00, 0x24)\n    tag_176:\n      mload(0x40)\n      swap1\n      dup1\n      dup3\n      mstore\n      dup1\n      0x1f\n      add\n      not(0x1f)\n      and\n      0x20\n      add\n      dup3\n      add\n      0x40\n      mstore\n      dup1\n      iszero\n      tag_177\n      jumpi\n      dup2\n      0x20\n      add\n      0x01\n      dup3\n      mul\n      dup1\n      calldatasize\n      dup4\n      calldatacopy\n      dup1\n      dup3\n      add\n      swap2\n      pop\n      pop\n      swap1\n      pop\n    tag_177:\n      pop\n        /* \"Chain Paper/other/Strings.sol\":887:926  bytes memory buffer = new bytes(digits) */\n      swap1\n      pop\n        /* \"Chain Paper/other/Strings.sol\":937:1091  while (value != 0) {\r... */\n    tag_178:\n        /* \"Chain Paper/other/Strings.sol\":953:954  0 */\n      0x00\n        /* \"Chain Paper/other/Strings.sol\":944:949  value */\n      dup6\n        /* \"Chain Paper/other/Strings.sol\":944:954  value != 0 */\n      eq\n        /* \"Chain Paper/other/Strings.sol\":937:1091  while (value != 0) {\r... */\n      tag_179\n      jumpi\n        /* \"Chain Paper/other/Strings.sol\":981:982  1 */\n      0x01\n        /* \"Chain Paper/other/Strings.sol\":971:982  digits -= 1 */\n      dup3\n      tag_180\n      swap2\n      swap1\n      tag_156\n      jump\t// in\n    tag_180:\n      swap2\n      pop\n        /* \"Chain Paper/other/Strings.sol\":1048:1050  10 */\n      0x0a\n        /* \"Chain Paper/other/Strings.sol\":1040:1045  value */\n      dup6\n        /* \"Chain Paper/other/Strings.sol\":1040:1050  value % 10 */\n      tag_181\n      swap2\n      swap1\n      tag_182\n      jump\t// in\n    tag_181:\n        /* \"Chain Paper/other/Strings.sol\":1027:1029  48 */\n      0x30\n        /* \"Chain Paper/other/Strings.sol\":1027:1051  48 + uint256(value % 10) */\n      tag_183\n      swap2\n      swap1\n      tag_158\n      jump\t// in\n    tag_183:\n        /* \"Chain Paper/other/Strings.sol\":1014:1053  bytes1(uint8(48 + uint256(value % 10))) */\n      0xf8\n      shl\n        /* \"Chain Paper/other/Strings.sol\":997:1003  buffer */\n      dup2\n        /* \"Chain Paper/other/Strings.sol\":1004:1010  digits */\n      dup4\n        /* \"Chain Paper/other/Strings.sol\":997:1011  buffer[digits] */\n      dup2\n      mload\n      dup2\n      lt\n      tag_184\n      jumpi\n      mstore(0x00, 0x4e487b7100000000000000000000000000000000000000000000000000000000)\n      mstore(0x04, 0x32)\n      revert(0x00, 0x24)\n    tag_184:\n      0x20\n      add\n      add\n        /* \"Chain Paper/other/Strings.sol\":997:1053  buffer[digits] = bytes1(uint8(48 + uint256(value % 10))) */\n      swap1\n      not(0xffffffffffffffffffffffffffffffffffffffffffffffffffffffffffffff)\n      and\n      swap1\n      dup2\n      0x00\n      byte\n      swap1\n      mstore8\n      pop\n        /* \"Chain Paper/other/Strings.sol\":1077:1079  10 */\n      0x0a\n        /* \"Chain Paper/other/Strings.sol\":1068:1079  value /= 10 */\n      dup6\n      tag_185\n      swap2\n      swap1\n      tag_175\n      jump\t// in\n    tag_185:\n      swap5\n      pop\n        /* \"Chain Paper/other/Strings.sol\":937:1091  while (value != 0) {\r... */\n      jump(tag_178)\n    tag_179:\n        /* \"Chain Paper/other/Strings.sol\":1115:1121  buffer */\n      dup1\n        /* \"Chain Paper/other/Strings.sol\":1101:1122  return string(buffer) */\n      swap4\n      pop\n      pop\n      pop\n      pop\n        /* \"Chain Paper/other/Strings.sol\":407:1130  function toString(uint256 value) internal pure returns (string memory) {\r... */\n    tag_168:\n      swap2\n      swap1\n      pop\n      jump\t// out\n        /* \"Chain Paper/liberty/ERC721.sol\":4785:5295  function _checkOnERC721Received(\r... */\n    tag_163:\n        /* \"Chain Paper/liberty/ERC721.sol\":4937:4941  bool */\n      0x00\n        /* \"Chain Paper/liberty/ERC721.sol\":4958:4973  to.isContract() */\n      tag_187\n        /* \"Chain Paper/liberty/ERC721.sol\":4958:4960  to */\n      dup5\n        /* \"Chain Paper/liberty/ERC721.sol\":4958:4971  to.isContract */\n      0xffffffffffffffffffffffffffffffffffffffff\n      and\n      tag_188\n        /* \"Chain Paper/liberty/ERC721.sol\":4958:4973  to.isContract() */\n      jump\t// in\n    tag_187:\n        /* \"Chain Paper/liberty/ERC721.sol\":4954:5288  if (to.isContract()) {\r... */\n      iszero\n      tag_189\n      jumpi\n        /* \"Chain Paper/liberty/ERC721.sol\":5191:5232  IERC721Receiver.onERC721Received.selector */\n      shl(0xe0, 0x150b7a02)\n        /* \"Chain Paper/liberty/ERC721.sol\":5014:5232  IERC721Receiver(to).onERC721Received(\r... */\n      not(0xffffffffffffffffffffffffffffffffffffffffffffffffffffffff)\n      and\n        /* \"Chain Paper/liberty/ERC721.sol\":5030:5032  to */\n      dup5\n        /* \"Chain Paper/liberty/ERC721.sol\":5014:5050  IERC721Receiver(to).onERC721Received */\n      0xffffffffffffffffffffffffffffffffffffffff\n      and\n      0x150b7a02\n        /* \"Chain Paper/liberty/ERC721.sol\":5073:5083  msg.sender */\n      caller\n        /* \"Chain Paper/liberty/ERC721.sol\":5106:5110  from */\n      dup9\n        /* \"Chain Paper/liberty/ERC721.sol\":5133:5140  tokenId */\n      dup8\n        /* \"Chain Paper/liberty/ERC721.sol\":5163:5168  _data */\n      dup8\n        /* \"Chain Paper/liberty/ERC721.sol\":5014:5187  IERC721Receiver(to).onERC721Received(\r... */\n      mload(0x40)\n      dup6\n      0xffffffff\n      and\n      0xe0\n      shl\n      dup2\n      mstore\n      0x04\n      add\n      tag_190\n      swap5\n      swap4\n      swap3\n      swap2\n      swap1\n      tag_191\n      jump\t// in\n    tag_190:\n      0x20\n      mload(0x40)\n      dup1\n      dup4\n      sub\n      dup2\n      0x00\n      dup8\n      dup1\n      extcodesize\n      iszero\n      dup1\n      iszero\n      tag_192\n      jumpi\n      0x00\n      dup1\n      revert\n    tag_192:\n      pop\n      gas\n      call\n      iszero\n      dup1\n      iszero\n      tag_194\n      jumpi\n      returndatasize\n      0x00\n      dup1\n      returndatacopy\n      revert(0x00, returndatasize)\n    tag_194:\n      pop\n      pop\n      pop\n      pop\n      mload(0x40)\n      returndatasize\n      not(0x1f)\n      0x1f\n      dup3\n      add\n      and\n      dup3\n      add\n      dup1\n      0x40\n      mstore\n      pop\n      dup2\n      add\n      swap1\n      tag_195\n      swap2\n      swap1\n      tag_196\n      jump\t// in\n    tag_195:\n        /* \"Chain Paper/liberty/ERC721.sol\":5014:5232  IERC721Receiver(to).onERC721Received(\r... */\n      not(0xffffffffffffffffffffffffffffffffffffffffffffffffffffffff)\n      and\n      eq\n        /* \"Chain Paper/liberty/ERC721.sol\":4990:5232  return\r... */\n      swap1\n      pop\n      jump(tag_186)\n        /* \"Chain Paper/liberty/ERC721.sol\":4954:5288  if (to.isContract()) {\r... */\n    tag_189:\n        /* \"Chain Paper/liberty/ERC721.sol\":5272:5276  true */\n      0x01\n        /* \"Chain Paper/liberty/ERC721.sol\":5265:5276  return true */\n      swap1\n      pop\n        /* \"Chain Paper/liberty/ERC721.sol\":4785:5295  function _checkOnERC721Received(\r... */\n    tag_186:\n      swap5\n      swap4\n      pop\n      pop\n      pop\n      pop\n      jump\t// out\n        /* \"Chain Paper/other/Address.sol\":163:356  function isContract(address account) internal view returns (bool) {\r... */\n    tag_188:\n        /* \"Chain Paper/other/Address.sol\":223:227  bool */\n      0x00\n        /* \"Chain Paper/other/Address.sol\":240:249  uint size */\n      dup1\n        /* \"Chain Paper/other/Address.sol\":304:311  account */\n      dup3\n        /* \"Chain Paper/other/Address.sol\":292:312  extcodesize(account) */\n      extcodesize\n        /* \"Chain Paper/other/Address.sol\":284:312  size := extcodesize(account) */\n      swap1\n      pop\n        /* \"Chain Paper/other/Address.sol\":347:348  0 */\n      0x00\n        /* \"Chain Paper/other/Address.sol\":340:344  size */\n      dup2\n        /* \"Chain Paper/other/Address.sol\":340:348  size > 0 */\n      gt\n        /* \"Chain Paper/other/Address.sol\":333:348  return size > 0 */\n      swap2\n      pop\n      pop\n        /* \"Chain Paper/other/Address.sol\":163:356  function isContract(address account) internal view returns (bool) {\r... */\n      swap2\n      swap1\n      pop\n      jump\t// out\n        /* \"#utility.yul\":7:349   */\n    tag_200:\n      0x00\n        /* \"#utility.yul\":109:173   */\n      tag_202\n        /* \"#utility.yul\":124:172   */\n      tag_203\n        /* \"#utility.yul\":165:171   */\n      dup5\n        /* \"#utility.yul\":124:172   */\n      tag_204\n      jump\t// in\n    tag_203:\n        /* \"#utility.yul\":109:173   */\n      tag_205\n      jump\t// in\n    tag_202:\n        /* \"#utility.yul\":100:173   */\n      swap1\n      pop\n        /* \"#utility.yul\":196:202   */\n      dup3\n        /* \"#utility.yul\":189:194   */\n      dup2\n        /* \"#utility.yul\":182:203   */\n      mstore\n        /* \"#utility.yul\":234:238   */\n      0x20\n        /* \"#utility.yul\":227:232   */\n      dup2\n        /* \"#utility.yul\":223:239   */\n      add\n        /* \"#utility.yul\":272:275   */\n      dup5\n        /* \"#utility.yul\":263:269   */\n      dup5\n        /* \"#utility.yul\":258:261   */\n      dup5\n        /* \"#utility.yul\":254:270   */\n      add\n        /* \"#utility.yul\":251:276   */\n      gt\n        /* \"#utility.yul\":248:250   */\n      iszero\n      tag_206\n      jumpi\n        /* \"#utility.yul\":289:290   */\n      0x00\n        /* \"#utility.yul\":286:287   */\n      dup1\n        /* \"#utility.yul\":279:291   */\n      revert\n        /* \"#utility.yul\":248:250   */\n    tag_206:\n        /* \"#utility.yul\":302:343   */\n      tag_207\n        /* \"#utility.yul\":336:342   */\n      dup5\n        /* \"#utility.yul\":331:334   */\n      dup3\n        /* \"#utility.yul\":326:329   */\n      dup6\n        /* \"#utility.yul\":302:343   */\n      tag_208\n      jump\t// in\n    tag_207:\n        /* \"#utility.yul\":90:349   */\n      pop\n      swap4\n      swap3\n      pop\n      pop\n      pop\n      jump\t// out\n        /* \"#utility.yul\":355:494   */\n    tag_209:\n      0x00\n        /* \"#utility.yul\":439:445   */\n      dup2\n        /* \"#utility.yul\":426:446   */\n      calldataload\n        /* \"#utility.yul\":417:446   */\n      swap1\n      pop\n        /* \"#utility.yul\":455:488   */\n      tag_211\n        /* \"#utility.yul\":482:487   */\n      dup2\n        /* \"#utility.yul\":455:488   */\n      tag_212\n      jump\t// in\n    tag_211:\n        /* \"#utility.yul\":407:494   */\n      swap3\n      swap2\n      pop\n      pop\n      jump\t// out\n        /* \"#utility.yul\":500:633   */\n    tag_213:\n      0x00\n        /* \"#utility.yul\":581:587   */\n      dup2\n        /* \"#utility.yul\":568:588   */\n      calldataload\n        /* \"#utility.yul\":559:588   */\n      swap1\n      pop\n        /* \"#utility.yul\":597:627   */\n      tag_215\n        /* \"#utility.yul\":621:626   */\n      dup2\n        /* \"#utility.yul\":597:627   */\n      tag_216\n      jump\t// in\n    tag_215:\n        /* \"#utility.yul\":549:633   */\n      swap3\n      swap2\n      pop\n      pop\n      jump\t// out\n        /* \"#utility.yul\":639:776   */\n    tag_217:\n      0x00\n        /* \"#utility.yul\":722:728   */\n      dup2\n        /* \"#utility.yul\":709:729   */\n      calldataload\n        /* \"#utility.yul\":700:729   */\n      swap1\n      pop\n        /* \"#utility.yul\":738:770   */\n      tag_219\n        /* \"#utility.yul\":764:769   */\n      dup2\n        /* \"#utility.yul\":738:770   */\n      tag_220\n      jump\t// in\n    tag_219:\n        /* \"#utility.yul\":690:776   */\n      swap3\n      swap2\n      pop\n      pop\n      jump\t// out\n        /* \"#utility.yul\":782:923   */\n    tag_221:\n      0x00\n        /* \"#utility.yul\":869:875   */\n      dup2\n        /* \"#utility.yul\":863:876   */\n      mload\n        /* \"#utility.yul\":854:876   */\n      swap1\n      pop\n        /* \"#utility.yul\":885:917   */\n      tag_223\n        /* \"#utility.yul\":911:916   */\n      dup2\n        /* \"#utility.yul\":885:917   */\n      tag_220\n      jump\t// in\n    tag_223:\n        /* \"#utility.yul\":844:923   */\n      swap3\n      swap2\n      pop\n      pop\n      jump\t// out\n        /* \"#utility.yul\":942:1213   */\n    tag_224:\n      0x00\n        /* \"#utility.yul\":1046:1049   */\n      dup3\n        /* \"#utility.yul\":1039:1043   */\n      0x1f\n        /* \"#utility.yul\":1031:1037   */\n      dup4\n        /* \"#utility.yul\":1027:1044   */\n      add\n        /* \"#utility.yul\":1023:1050   */\n      slt\n        /* \"#utility.yul\":1013:1015   */\n      tag_226\n      jumpi\n        /* \"#utility.yul\":1064:1065   */\n      0x00\n        /* \"#utility.yul\":1061:1062   */\n      dup1\n        /* \"#utility.yul\":1054:1066   */\n      revert\n        /* \"#utility.yul\":1013:1015   */\n    tag_226:\n        /* \"#utility.yul\":1104:1110   */\n      dup2\n        /* \"#utility.yul\":1091:1111   */\n      calldataload\n        /* \"#utility.yul\":1129:1207   */\n      tag_227\n        /* \"#utility.yul\":1203:1206   */\n      dup5\n        /* \"#utility.yul\":1195:1201   */\n      dup3\n        /* \"#utility.yul\":1188:1192   */\n      0x20\n        /* \"#utility.yul\":1180:1186   */\n      dup7\n        /* \"#utility.yul\":1176:1193   */\n      add\n        /* \"#utility.yul\":1129:1207   */\n      tag_200\n      jump\t// in\n    tag_227:\n        /* \"#utility.yul\":1120:1207   */\n      swap2\n      pop\n        /* \"#utility.yul\":1003:1213   */\n      pop\n      swap3\n      swap2\n      pop\n      pop\n      jump\t// out\n        /* \"#utility.yul\":1219:1358   */\n    tag_228:\n      0x00\n        /* \"#utility.yul\":1303:1309   */\n      dup2\n        /* \"#utility.yul\":1290:1310   */\n      calldataload\n        /* \"#utility.yul\":1281:1310   */\n      swap1\n      pop\n        /* \"#utility.yul\":1319:1352   */\n      tag_230\n        /* \"#utility.yul\":1346:1351   */\n      dup2\n        /* \"#utility.yul\":1319:1352   */\n      tag_231\n      jump\t// in\n    tag_230:\n        /* \"#utility.yul\":1271:1358   */\n      swap3\n      swap2\n      pop\n      pop\n      jump\t// out\n        /* \"#utility.yul\":1364:1626   */\n    tag_51:\n      0x00\n        /* \"#utility.yul\":1472:1474   */\n      0x20\n        /* \"#utility.yul\":1460:1469   */\n      dup3\n        /* \"#utility.yul\":1451:1458   */\n      dup5\n        /* \"#utility.yul\":1447:1470   */\n      sub\n        /* \"#utility.yul\":1443:1475   */\n      slt\n        /* \"#utility.yul\":1440:1442   */\n      iszero\n      tag_233\n      jumpi\n        /* \"#utility.yul\":1488:1489   */\n      0x00\n        /* \"#utility.yul\":1485:1486   */\n      dup1\n        /* \"#utility.yul\":1478:1490   */\n      revert\n        /* \"#utility.yul\":1440:1442   */\n    tag_233:\n        /* \"#utility.yul\":1531:1532   */\n      0x00\n        /* \"#utility.yul\":1556:1609   */\n      tag_234\n        /* \"#utility.yul\":1601:1608   */\n      dup5\n        /* \"#utility.yul\":1592:1598   */\n      dup3\n        /* \"#utility.yul\":1581:1590   */\n      dup6\n        /* \"#utility.yul\":1577:1599   */\n      add\n        /* \"#utility.yul\":1556:1609   */\n      tag_209\n      jump\t// in\n    tag_234:\n        /* \"#utility.yul\":1546:1609   */\n      swap2\n      pop\n        /* \"#utility.yul\":1502:1619   */\n      pop\n        /* \"#utility.yul\":1430:1626   */\n      swap3\n      swap2\n      pop\n      pop\n      jump\t// out\n        /* \"#utility.yul\":1632:2039   */\n    tag_72:\n      0x00\n      dup1\n        /* \"#utility.yul\":1757:1759   */\n      0x40\n        /* \"#utility.yul\":1745:1754   */\n      dup4\n        /* \"#utility.yul\":1736:1743   */\n      dup6\n        /* \"#utility.yul\":1732:1755   */\n      sub\n        /* \"#utility.yul\":1728:1760   */\n      slt\n        /* \"#utility.yul\":1725:1727   */\n      iszero\n      tag_236\n      jumpi\n        /* \"#utility.yul\":1773:1774   */\n      0x00\n        /* \"#utility.yul\":1770:1771   */\n      dup1\n        /* \"#utility.yul\":1763:1775   */\n      revert\n        /* \"#utility.yul\":1725:1727   */\n    tag_236:\n        /* \"#utility.yul\":1816:1817   */\n      0x00\n        /* \"#utility.yul\":1841:1894   */\n      tag_237\n        /* \"#utility.yul\":1886:1893   */\n      dup6\n        /* \"#utility.yul\":1877:1883   */\n      dup3\n        /* \"#utility.yul\":1866:1875   */\n      dup7\n        /* \"#utility.yul\":1862:1884   */\n      add\n        /* \"#utility.yul\":1841:1894   */\n      tag_209\n      jump\t// in\n    tag_237:\n        /* \"#utility.yul\":1831:1894   */\n      swap3\n      pop\n        /* \"#utility.yul\":1787:1904   */\n      pop\n        /* \"#utility.yul\":1943:1945   */\n      0x20\n        /* \"#utility.yul\":1969:2022   */\n      tag_238\n        /* \"#utility.yul\":2014:2021   */\n      dup6\n        /* \"#utility.yul\":2005:2011   */\n      dup3\n        /* \"#utility.yul\":1994:2003   */\n      dup7\n        /* \"#utility.yul\":1990:2012   */\n      add\n        /* \"#utility.yul\":1969:2022   */\n      tag_209\n      jump\t// in\n    tag_238:\n        /* \"#utility.yul\":1959:2022   */\n      swap2\n      pop\n        /* \"#utility.yul\":1914:2032   */\n      pop\n        /* \"#utility.yul\":1715:2039   */\n      swap3\n      pop\n      swap3\n      swap1\n      pop\n      jump\t// out\n        /* \"#utility.yul\":2045:2597   */\n    tag_40:\n      0x00\n      dup1\n      0x00\n        /* \"#utility.yul\":2187:2189   */\n      0x60\n        /* \"#utility.yul\":2175:2184   */\n      dup5\n        /* \"#utility.yul\":2166:2173   */\n      dup7\n        /* \"#utility.yul\":2162:2185   */\n      sub\n        /* \"#utility.yul\":2158:2190   */\n      slt\n        /* \"#utility.yul\":2155:2157   */\n      iszero\n      tag_240\n      jumpi\n        /* \"#utility.yul\":2203:2204   */\n      0x00\n        /* \"#utility.yul\":2200:2201   */\n      dup1\n        /* \"#utility.yul\":2193:2205   */\n      revert\n        /* \"#utility.yul\":2155:2157   */\n    tag_240:\n        /* \"#utility.yul\":2246:2247   */\n      0x00\n        /* \"#utility.yul\":2271:2324   */\n      tag_241\n        /* \"#utility.yul\":2316:2323   */\n      dup7\n        /* \"#utility.yul\":2307:2313   */\n      dup3\n        /* \"#utility.yul\":2296:2305   */\n      dup8\n        /* \"#utility.yul\":2292:2314   */\n      add\n        /* \"#utility.yul\":2271:2324   */\n      tag_209\n      jump\t// in\n    tag_241:\n        /* \"#utility.yul\":2261:2324   */\n      swap4\n      pop\n        /* \"#utility.yul\":2217:2334   */\n      pop\n        /* \"#utility.yul\":2373:2375   */\n      0x20\n        /* \"#utility.yul\":2399:2452   */\n      tag_242\n        /* \"#utility.yul\":2444:2451   */\n      dup7\n        /* \"#utility.yul\":2435:2441   */\n      dup3\n        /* \"#utility.yul\":2424:2433   */\n      dup8\n        /* \"#utility.yul\":2420:2442   */\n      add\n        /* \"#utility.yul\":2399:2452   */\n      tag_209\n      jump\t// in\n    tag_242:\n        /* \"#utility.yul\":2389:2452   */\n      swap3\n      pop\n        /* \"#utility.yul\":2344:2462   */\n      pop\n        /* \"#utility.yul\":2501:2503   */\n      0x40\n        /* \"#utility.yul\":2527:2580   */\n      tag_243\n        /* \"#utility.yul\":2572:2579   */\n      dup7\n        /* \"#utility.yul\":2563:2569   */\n      dup3\n        /* \"#utility.yul\":2552:2561   */\n      dup8\n        /* \"#utility.yul\":2548:2570   */\n      add\n        /* \"#utility.yul\":2527:2580   */\n      tag_228\n      jump\t// in\n    tag_243:\n        /* \"#utility.yul\":2517:2580   */\n      swap2\n      pop\n        /* \"#utility.yul\":2472:2590   */\n      pop\n        /* \"#utility.yul\":2145:2597   */\n      swap3\n      pop\n      swap3\n      pop\n      swap3\n      jump\t// out\n        /* \"#utility.yul\":2603:3412   */\n    tag_60:\n      0x00\n      dup1\n      0x00\n      dup1\n        /* \"#utility.yul\":2771:2774   */\n      0x80\n        /* \"#utility.yul\":2759:2768   */\n      dup6\n        /* \"#utility.yul\":2750:2757   */\n      dup8\n        /* \"#utility.yul\":2746:2769   */\n      sub\n        /* \"#utility.yul\":2742:2775   */\n      slt\n        /* \"#utility.yul\":2739:2741   */\n      iszero\n      tag_245\n      jumpi\n        /* \"#utility.yul\":2788:2789   */\n      0x00\n        /* \"#utility.yul\":2785:2786   */\n      dup1\n        /* \"#utility.yul\":2778:2790   */\n      revert\n        /* \"#utility.yul\":2739:2741   */\n    tag_245:\n        /* \"#utility.yul\":2831:2832   */\n      0x00\n        /* \"#utility.yul\":2856:2909   */\n      tag_246\n        /* \"#utility.yul\":2901:2908   */\n      dup8\n        /* \"#utility.yul\":2892:2898   */\n      dup3\n        /* \"#utility.yul\":2881:2890   */\n      dup9\n        /* \"#utility.yul\":2877:2899   */\n      add\n        /* \"#utility.yul\":2856:2909   */\n      tag_209\n      jump\t// in\n    tag_246:\n        /* \"#utility.yul\":2846:2909   */\n      swap5\n      pop\n        /* \"#utility.yul\":2802:2919   */\n      pop\n        /* \"#utility.yul\":2958:2960   */\n      0x20\n        /* \"#utility.yul\":2984:3037   */\n      tag_247\n        /* \"#utility.yul\":3029:3036   */\n      dup8\n        /* \"#utility.yul\":3020:3026   */\n      dup3\n        /* \"#utility.yul\":3009:3018   */\n      dup9\n        /* \"#utility.yul\":3005:3027   */\n      add\n        /* \"#utility.yul\":2984:3037   */\n      tag_209\n      jump\t// in\n    tag_247:\n        /* \"#utility.yul\":2974:3037   */\n      swap4\n      pop\n        /* \"#utility.yul\":2929:3047   */\n      pop\n        /* \"#utility.yul\":3086:3088   */\n      0x40\n        /* \"#utility.yul\":3112:3165   */\n      tag_248\n        /* \"#utility.yul\":3157:3164   */\n      dup8\n        /* \"#utility.yul\":3148:3154   */\n      dup3\n        /* \"#utility.yul\":3137:3146   */\n      dup9\n        /* \"#utility.yul\":3133:3155   */\n      add\n        /* \"#utility.yul\":3112:3165   */\n      tag_228\n      jump\t// in\n    tag_248:\n        /* \"#utility.yul\":3102:3165   */\n      swap3\n      pop\n        /* \"#utility.yul\":3057:3175   */\n      pop\n        /* \"#utility.yul\":3242:3244   */\n      0x60\n        /* \"#utility.yul\":3231:3240   */\n      dup6\n        /* \"#utility.yul\":3227:3245   */\n      add\n        /* \"#utility.yul\":3214:3246   */\n      calldataload\n        /* \"#utility.yul\":3273:3291   */\n      0xffffffffffffffff\n        /* \"#utility.yul\":3265:3271   */\n      dup2\n        /* \"#utility.yul\":3262:3292   */\n      gt\n        /* \"#utility.yul\":3259:3261   */\n      iszero\n      tag_249\n      jumpi\n        /* \"#utility.yul\":3305:3306   */\n      0x00\n        /* \"#utility.yul\":3302:3303   */\n      dup1\n        /* \"#utility.yul\":3295:3307   */\n      revert\n        /* \"#utility.yul\":3259:3261   */\n    tag_249:\n        /* \"#utility.yul\":3333:3395   */\n      tag_250\n        /* \"#utility.yul\":3387:3394   */\n      dup8\n        /* \"#utility.yul\":3378:3384   */\n      dup3\n        /* \"#utility.yul\":3367:3376   */\n      dup9\n        /* \"#utility.yul\":3363:3385   */\n      add\n        /* \"#utility.yul\":3333:3395   */\n      tag_224\n      jump\t// in\n    tag_250:\n        /* \"#utility.yul\":3323:3395   */\n      swap2\n      pop\n        /* \"#utility.yul\":3185:3405   */\n      pop\n        /* \"#utility.yul\":2729:3412   */\n      swap3\n      swap6\n      swap2\n      swap5\n      pop\n      swap3\n      pop\n      jump\t// out\n        /* \"#utility.yul\":3418:3819   */\n    tag_64:\n      0x00\n      dup1\n        /* \"#utility.yul\":3540:3542   */\n      0x40\n        /* \"#utility.yul\":3528:3537   */\n      dup4\n        /* \"#utility.yul\":3519:3526   */\n      dup6\n        /* \"#utility.yul\":3515:3538   */\n      sub\n        /* \"#utility.yul\":3511:3543   */\n      slt\n        /* \"#utility.yul\":3508:3510   */\n      iszero\n      tag_252\n      jumpi\n        /* \"#utility.yul\":3556:3557   */\n      0x00\n        /* \"#utility.yul\":3553:3554   */\n      dup1\n        /* \"#utility.yul\":3546:3558   */\n      revert\n        /* \"#utility.yul\":3508:3510   */\n    tag_252:\n        /* \"#utility.yul\":3599:3600   */\n      0x00\n        /* \"#utility.yul\":3624:3677   */\n      tag_253\n        /* \"#utility.yul\":3669:3676   */\n      dup6\n        /* \"#utility.yul\":3660:3666   */\n      dup3\n        /* \"#utility.yul\":3649:3658   */\n      dup7\n        /* \"#utility.yul\":3645:3667   */\n      add\n        /* \"#utility.yul\":3624:3677   */\n      tag_209\n      jump\t// in\n    tag_253:\n        /* \"#utility.yul\":3614:3677   */\n      swap3\n      pop\n        /* \"#utility.yul\":3570:3687   */\n      pop\n        /* \"#utility.yul\":3726:3728   */\n      0x20\n        /* \"#utility.yul\":3752:3802   */\n      tag_254\n        /* \"#utility.yul\":3794:3801   */\n      dup6\n        /* \"#utility.yul\":3785:3791   */\n      dup3\n        /* \"#utility.yul\":3774:3783   */\n      dup7\n        /* \"#utility.yul\":3770:3792   */\n      add\n        /* \"#utility.yul\":3752:3802   */\n      tag_213\n      jump\t// in\n    tag_254:\n        /* \"#utility.yul\":3742:3802   */\n      swap2\n      pop\n        /* \"#utility.yul\":3697:3812   */\n      pop\n        /* \"#utility.yul\":3498:3819   */\n      swap3\n      pop\n      swap3\n      swap1\n      pop\n      jump\t// out\n        /* \"#utility.yul\":3825:4232   */\n    tag_36:\n      0x00\n      dup1\n        /* \"#utility.yul\":3950:3952   */\n      0x40\n        /* \"#utility.yul\":3938:3947   */\n      dup4\n        /* \"#utility.yul\":3929:3936   */\n      dup6\n        /* \"#utility.yul\":3925:3948   */\n      sub\n        /* \"#utility.yul\":3921:3953   */\n      slt\n        /* \"#utility.yul\":3918:3920   */\n      iszero\n      tag_256\n      jumpi\n        /* \"#utility.yul\":3966:3967   */\n      0x00\n        /* \"#utility.yul\":3963:3964   */\n      dup1\n        /* \"#utility.yul\":3956:3968   */\n      revert\n        /* \"#utility.yul\":3918:3920   */\n    tag_256:\n        /* \"#utility.yul\":4009:4010   */\n      0x00\n        /* \"#utility.yul\":4034:4087   */\n      tag_257\n        /* \"#utility.yul\":4079:4086   */\n      dup6\n        /* \"#utility.yul\":4070:4076   */\n      dup3\n        /* \"#utility.yul\":4059:4068   */\n      dup7\n        /* \"#utility.yul\":4055:4077   */\n      add\n        /* \"#utility.yul\":4034:4087   */\n      tag_209\n      jump\t// in\n    tag_257:\n        /* \"#utility.yul\":4024:4087   */\n      swap3\n      pop\n        /* \"#utility.yul\":3980:4097   */\n      pop\n        /* \"#utility.yul\":4136:4138   */\n      0x20\n        /* \"#utility.yul\":4162:4215   */\n      tag_258\n        /* \"#utility.yul\":4207:4214   */\n      dup6\n        /* \"#utility.yul\":4198:4204   */\n      dup3\n        /* \"#utility.yul\":4187:4196   */\n      dup7\n        /* \"#utility.yul\":4183:4205   */\n      add\n        /* \"#utility.yul\":4162:4215   */\n      tag_228\n      jump\t// in\n    tag_258:\n        /* \"#utility.yul\":4152:4215   */\n      swap2\n      pop\n        /* \"#utility.yul\":4107:4225   */\n      pop\n        /* \"#utility.yul\":3908:4232   */\n      swap3\n      pop\n      swap3\n      swap1\n      pop\n      jump\t// out\n        /* \"#utility.yul\":4238:4498   */\n    tag_20:\n      0x00\n        /* \"#utility.yul\":4345:4347   */\n      0x20\n        /* \"#utility.yul\":4333:4342   */\n      dup3\n        /* \"#utility.yul\":4324:4331   */\n      dup5\n        /* \"#utility.yul\":4320:4343   */\n      sub\n        /* \"#utility.yul\":4316:4348   */\n      slt\n        /* \"#utility.yul\":4313:4315   */\n      iszero\n      tag_260\n      jumpi\n        /* \"#utility.yul\":4361:4362   */\n      0x00\n        /* \"#utility.yul\":4358:4359   */\n      dup1\n        /* \"#utility.yul\":4351:4363   */\n      revert\n        /* \"#utility.yul\":4313:4315   */\n    tag_260:\n        /* \"#utility.yul\":4404:4405   */\n      0x00\n        /* \"#utility.yul\":4429:4481   */\n      tag_261\n        /* \"#utility.yul\":4473:4480   */\n      dup5\n        /* \"#utility.yul\":4464:4470   */\n      dup3\n        /* \"#utility.yul\":4453:4462   */\n      dup6\n        /* \"#utility.yul\":4449:4471   */\n      add\n        /* \"#utility.yul\":4429:4481   */\n      tag_217\n      jump\t// in\n    tag_261:\n        /* \"#utility.yul\":4419:4481   */\n      swap2\n      pop\n        /* \"#utility.yul\":4375:4491   */\n      pop\n        /* \"#utility.yul\":4303:4498   */\n      swap3\n      swap2\n      pop\n      pop\n      jump\t// out\n        /* \"#utility.yul\":4504:4786   */\n    tag_196:\n      0x00\n        /* \"#utility.yul\":4622:4624   */\n      0x20\n        /* \"#utility.yul\":4610:4619   */\n      dup3\n        /* \"#utility.yul\":4601:4608   */\n      dup5\n        /* \"#utility.yul\":4597:4620   */\n      sub\n        /* \"#utility.yul\":4593:4625   */\n      slt\n        /* \"#utility.yul\":4590:4592   */\n      iszero\n      tag_263\n      jumpi\n        /* \"#utility.yul\":4638:4639   */\n      0x00\n        /* \"#utility.yul\":4635:4636   */\n      dup1\n        /* \"#utility.yul\":4628:4640   */\n      revert\n        /* \"#utility.yul\":4590:4592   */\n    tag_263:\n        /* \"#utility.yul\":4681:4682   */\n      0x00\n        /* \"#utility.yul\":4706:4769   */\n      tag_264\n        /* \"#utility.yul\":4761:4768   */\n      dup5\n        /* \"#utility.yul\":4752:4758   */\n      dup3\n        /* \"#utility.yul\":4741:4750   */\n      dup6\n        /* \"#utility.yul\":4737:4759   */\n      add\n        /* \"#utility.yul\":4706:4769   */\n      tag_221\n      jump\t// in\n    tag_264:\n        /* \"#utility.yul\":4696:4769   */\n      swap2\n      pop\n        /* \"#utility.yul\":4652:4779   */\n      pop\n        /* \"#utility.yul\":4580:4786   */\n      swap3\n      swap2\n      pop\n      pop\n      jump\t// out\n        /* \"#utility.yul\":4792:5054   */\n    tag_30:\n      0x00\n        /* \"#utility.yul\":4900:4902   */\n      0x20\n        /* \"#utility.yul\":4888:4897   */\n      dup3\n        /* \"#utility.yul\":4879:4886   */\n      dup5\n        /* \"#utility.yul\":4875:4898   */\n      sub\n        /* \"#utility.yul\":4871:4903   */\n      slt\n        /* \"#utility.yul\":4868:4870   */\n      iszero\n      tag_266\n      jumpi\n        /* \"#utility.yul\":4916:4917   */\n      0x00\n        /* \"#utility.yul\":4913:4914   */\n      dup1\n        /* \"#utility.yul\":4906:4918   */\n      revert\n        /* \"#utility.yul\":4868:4870   */\n    tag_266:\n        /* \"#utility.yul\":4959:4960   */\n      0x00\n        /* \"#utility.yul\":4984:5037   */\n      tag_267\n        /* \"#utility.yul\":5029:5036   */\n      dup5\n        /* \"#utility.yul\":5020:5026   */\n      dup3\n        /* \"#utility.yul\":5009:5018   */\n      dup6\n        /* \"#utility.yul\":5005:5027   */\n      add\n        /* \"#utility.yul\":4984:5037   */\n      tag_228\n      jump\t// in\n    tag_267:\n        /* \"#utility.yul\":4974:5037   */\n      swap2\n      pop\n        /* \"#utility.yul\":4930:5047   */\n      pop\n        /* \"#utility.yul\":4858:5054   */\n      swap3\n      swap2\n      pop\n      pop\n      jump\t// out\n        /* \"#utility.yul\":5060:5178   */\n    tag_268:\n        /* \"#utility.yul\":5147:5171   */\n      tag_270\n        /* \"#utility.yul\":5165:5170   */\n      dup2\n        /* \"#utility.yul\":5147:5171   */\n      tag_271\n      jump\t// in\n    tag_270:\n        /* \"#utility.yul\":5142:5145   */\n      dup3\n        /* \"#utility.yul\":5135:5172   */\n      mstore\n        /* \"#utility.yul\":5125:5178   */\n      pop\n      pop\n      jump\t// out\n        /* \"#utility.yul\":5184:5293   */\n    tag_272:\n        /* \"#utility.yul\":5265:5286   */\n      tag_274\n        /* \"#utility.yul\":5280:5285   */\n      dup2\n        /* \"#utility.yul\":5265:5286   */\n      tag_275\n      jump\t// in\n    tag_274:\n        /* \"#utility.yul\":5260:5263   */\n      dup3\n        /* \"#utility.yul\":5253:5287   */\n      mstore\n        /* \"#utility.yul\":5243:5293   */\n      pop\n      pop\n      jump\t// out\n        /* \"#utility.yul\":5299:5659   */\n    tag_276:\n      0x00\n        /* \"#utility.yul\":5413:5451   */\n      tag_278\n        /* \"#utility.yul\":5445:5450   */\n      dup3\n        /* \"#utility.yul\":5413:5451   */\n      tag_279\n      jump\t// in\n    tag_278:\n        /* \"#utility.yul\":5467:5537   */\n      tag_280\n        /* \"#utility.yul\":5530:5536   */\n      dup2\n        /* \"#utility.yul\":5525:5528   */\n      dup6\n        /* \"#utility.yul\":5467:5537   */\n      tag_281\n      jump\t// in\n    tag_280:\n        /* \"#utility.yul\":5460:5537   */\n      swap4\n      pop\n        /* \"#utility.yul\":5546:5598   */\n      tag_282\n        /* \"#utility.yul\":5591:5597   */\n      dup2\n        /* \"#utility.yul\":5586:5589   */\n      dup6\n        /* \"#utility.yul\":5579:5583   */\n      0x20\n        /* \"#utility.yul\":5572:5577   */\n      dup7\n        /* \"#utility.yul\":5568:5584   */\n      add\n        /* \"#utility.yul\":5546:5598   */\n      tag_283\n      jump\t// in\n    tag_282:\n        /* \"#utility.yul\":5623:5652   */\n      tag_284\n        /* \"#utility.yul\":5645:5651   */\n      dup2\n        /* \"#utility.yul\":5623:5652   */\n      tag_285\n      jump\t// in\n    tag_284:\n        /* \"#utility.yul\":5618:5621   */\n      dup5\n        /* \"#utility.yul\":5614:5653   */\n      add\n        /* \"#utility.yul\":5607:5653   */\n      swap2\n      pop\n        /* \"#utility.yul\":5389:5659   */\n      pop\n      swap3\n      swap2\n      pop\n      pop\n      jump\t// out\n        /* \"#utility.yul\":5665:6029   */\n    tag_286:\n      0x00\n        /* \"#utility.yul\":5781:5820   */\n      tag_288\n        /* \"#utility.yul\":5814:5819   */\n      dup3\n        /* \"#utility.yul\":5781:5820   */\n      tag_289\n      jump\t// in\n    tag_288:\n        /* \"#utility.yul\":5836:5907   */\n      tag_290\n        /* \"#utility.yul\":5900:5906   */\n      dup2\n        /* \"#utility.yul\":5895:5898   */\n      dup6\n        /* \"#utility.yul\":5836:5907   */\n      tag_291\n      jump\t// in\n    tag_290:\n        /* \"#utility.yul\":5829:5907   */\n      swap4\n      pop\n        /* \"#utility.yul\":5916:5968   */\n      tag_292\n        /* \"#utility.yul\":5961:5967   */\n      dup2\n        /* \"#utility.yul\":5956:5959   */\n      dup6\n        /* \"#utility.yul\":5949:5953   */\n      0x20\n        /* \"#utility.yul\":5942:5947   */\n      dup7\n        /* \"#utility.yul\":5938:5954   */\n      add\n        /* \"#utility.yul\":5916:5968   */\n      tag_283\n      jump\t// in\n    tag_292:\n        /* \"#utility.yul\":5993:6022   */\n      tag_293\n        /* \"#utility.yul\":6015:6021   */\n      dup2\n        /* \"#utility.yul\":5993:6022   */\n      tag_285\n      jump\t// in\n    tag_293:\n        /* \"#utility.yul\":5988:5991   */\n      dup5\n        /* \"#utility.yul\":5984:6023   */\n      add\n        /* \"#utility.yul\":5977:6023   */\n      swap2\n      pop\n        /* \"#utility.yul\":5757:6029   */\n      pop\n      swap3\n      swap2\n      pop\n      pop\n      jump\t// out\n        /* \"#utility.yul\":6035:6412   */\n    tag_294:\n      0x00\n        /* \"#utility.yul\":6169:6208   */\n      tag_296\n        /* \"#utility.yul\":6202:6207   */\n      dup3\n        /* \"#utility.yul\":6169:6208   */\n      tag_289\n      jump\t// in\n    tag_296:\n        /* \"#utility.yul\":6224:6313   */\n      tag_297\n        /* \"#utility.yul\":6306:6312   */\n      dup2\n        /* \"#utility.yul\":6301:6304   */\n      dup6\n        /* \"#utility.yul\":6224:6313   */\n      tag_298\n      jump\t// in\n    tag_297:\n        /* \"#utility.yul\":6217:6313   */\n      swap4\n      pop\n        /* \"#utility.yul\":6322:6374   */\n      tag_299\n        /* \"#utility.yul\":6367:6373   */\n      dup2\n        /* \"#utility.yul\":6362:6365   */\n      dup6\n        /* \"#utility.yul\":6355:6359   */\n      0x20\n        /* \"#utility.yul\":6348:6353   */\n      dup7\n        /* \"#utility.yul\":6344:6360   */\n      add\n        /* \"#utility.yul\":6322:6374   */\n      tag_283\n      jump\t// in\n    tag_299:\n        /* \"#utility.yul\":6399:6405   */\n      dup1\n        /* \"#utility.yul\":6394:6397   */\n      dup5\n        /* \"#utility.yul\":6390:6406   */\n      add\n        /* \"#utility.yul\":6383:6406   */\n      swap2\n      pop\n        /* \"#utility.yul\":6145:6412   */\n      pop\n      swap3\n      swap2\n      pop\n      pop\n      jump\t// out\n        /* \"#utility.yul\":6418:6745   */\n    tag_300:\n      0x00\n        /* \"#utility.yul\":6581:6648   */\n      tag_302\n        /* \"#utility.yul\":6645:6647   */\n      0x1d\n        /* \"#utility.yul\":6640:6643   */\n      dup4\n        /* \"#utility.yul\":6581:6648   */\n      tag_291\n      jump\t// in\n    tag_302:\n        /* \"#utility.yul\":6574:6648   */\n      swap2\n      pop\n        /* \"#utility.yul\":6678:6709   */\n      0x6e6f74206f776e6572206f7220617070726f76656420666f7220616c6c000000\n        /* \"#utility.yul\":6674:6675   */\n      0x00\n        /* \"#utility.yul\":6669:6672   */\n      dup4\n        /* \"#utility.yul\":6665:6676   */\n      add\n        /* \"#utility.yul\":6658:6710   */\n      mstore\n        /* \"#utility.yul\":6736:6738   */\n      0x20\n        /* \"#utility.yul\":6731:6734   */\n      dup3\n        /* \"#utility.yul\":6727:6739   */\n      add\n        /* \"#utility.yul\":6720:6739   */\n      swap1\n      pop\n        /* \"#utility.yul\":6564:6745   */\n      swap2\n      swap1\n      pop\n      jump\t// out\n        /* \"#utility.yul\":6751:7064   */\n    tag_303:\n      0x00\n        /* \"#utility.yul\":6914:6981   */\n      tag_305\n        /* \"#utility.yul\":6978:6980   */\n      0x0f\n        /* \"#utility.yul\":6973:6976   */\n      dup4\n        /* \"#utility.yul\":6914:6981   */\n      tag_291\n      jump\t// in\n    tag_305:\n        /* \"#utility.yul\":6907:6981   */\n      swap2\n      pop\n        /* \"#utility.yul\":7011:7028   */\n      0x746f206973203020616464726573730000000000000000000000000000000000\n        /* \"#utility.yul\":7007:7008   */\n      0x00\n        /* \"#utility.yul\":7002:7005   */\n      dup4\n        /* \"#utility.yul\":6998:7009   */\n      add\n        /* \"#utility.yul\":6991:7029   */\n      mstore\n        /* \"#utility.yul\":7055:7057   */\n      0x20\n        /* \"#utility.yul\":7050:7053   */\n      dup3\n        /* \"#utility.yul\":7046:7058   */\n      add\n        /* \"#utility.yul\":7039:7058   */\n      swap1\n      pop\n        /* \"#utility.yul\":6897:7064   */\n      swap2\n      swap1\n      pop\n      jump\t// out\n        /* \"#utility.yul\":7070:7390   */\n    tag_306:\n      0x00\n        /* \"#utility.yul\":7233:7300   */\n      tag_308\n        /* \"#utility.yul\":7297:7299   */\n      0x16\n        /* \"#utility.yul\":7292:7295   */\n      dup4\n        /* \"#utility.yul\":7233:7300   */\n      tag_291\n      jump\t// in\n    tag_308:\n        /* \"#utility.yul\":7226:7300   */\n      swap2\n      pop\n        /* \"#utility.yul\":7330:7354   */\n      0x6e6f74206f776e6572206e6f7220617070726f76656400000000000000000000\n        /* \"#utility.yul\":7326:7327   */\n      0x00\n        /* \"#utility.yul\":7321:7324   */\n      dup4\n        /* \"#utility.yul\":7317:7328   */\n      add\n        /* \"#utility.yul\":7310:7355   */\n      mstore\n        /* \"#utility.yul\":7381:7383   */\n      0x20\n        /* \"#utility.yul\":7376:7379   */\n      dup3\n        /* \"#utility.yul\":7372:7384   */\n      add\n        /* \"#utility.yul\":7365:7384   */\n      swap1\n      pop\n        /* \"#utility.yul\":7216:7390   */\n      swap2\n      swap1\n      pop\n      jump\t// out\n        /* \"#utility.yul\":7396:7713   */\n    tag_309:\n      0x00\n        /* \"#utility.yul\":7559:7626   */\n      tag_311\n        /* \"#utility.yul\":7623:7625   */\n      0x13\n        /* \"#utility.yul\":7618:7621   */\n      dup4\n        /* \"#utility.yul\":7559:7626   */\n      tag_291\n      jump\t// in\n    tag_311:\n        /* \"#utility.yul\":7552:7626   */\n      swap2\n      pop\n        /* \"#utility.yul\":7656:7677   */\n      0x746f6b656e20646f65736e277420657869737400000000000000000000000000\n        /* \"#utility.yul\":7652:7653   */\n      0x00\n        /* \"#utility.yul\":7647:7650   */\n      dup4\n        /* \"#utility.yul\":7643:7654   */\n      add\n        /* \"#utility.yul\":7636:7678   */\n      mstore\n        /* \"#utility.yul\":7704:7706   */\n      0x20\n        /* \"#utility.yul\":7699:7702   */\n      dup3\n        /* \"#utility.yul\":7695:7707   */\n      add\n        /* \"#utility.yul\":7688:7707   */\n      swap1\n      pop\n        /* \"#utility.yul\":7542:7713   */\n      swap2\n      swap1\n      pop\n      jump\t// out\n        /* \"#utility.yul\":7719:8034   */\n    tag_312:\n      0x00\n        /* \"#utility.yul\":7882:7949   */\n      tag_314\n        /* \"#utility.yul\":7946:7948   */\n      0x11\n        /* \"#utility.yul\":7941:7944   */\n      dup4\n        /* \"#utility.yul\":7882:7949   */\n      tag_291\n      jump\t// in\n    tag_314:\n        /* \"#utility.yul\":7875:7949   */\n      swap2\n      pop\n        /* \"#utility.yul\":7979:7998   */\n      0x6f776e6572203d20302061646472657373000000000000000000000000000000\n        /* \"#utility.yul\":7975:7976   */\n      0x00\n        /* \"#utility.yul\":7970:7973   */\n      dup4\n        /* \"#utility.yul\":7966:7977   */\n      add\n        /* \"#utility.yul\":7959:7999   */\n      mstore\n        /* \"#utility.yul\":8025:8027   */\n      0x20\n        /* \"#utility.yul\":8020:8023   */\n      dup3\n        /* \"#utility.yul\":8016:8028   */\n      add\n        /* \"#utility.yul\":8009:8028   */\n      swap1\n      pop\n        /* \"#utility.yul\":7865:8034   */\n      swap2\n      swap1\n      pop\n      jump\t// out\n        /* \"#utility.yul\":8040:8353   */\n    tag_315:\n      0x00\n        /* \"#utility.yul\":8203:8270   */\n      tag_317\n        /* \"#utility.yul\":8267:8269   */\n      0x0f\n        /* \"#utility.yul\":8262:8265   */\n      dup4\n        /* \"#utility.yul\":8203:8270   */\n      tag_291\n      jump\t// in\n    tag_317:\n        /* \"#utility.yul\":8196:8270   */\n      swap2\n      pop\n        /* \"#utility.yul\":8300:8317   */\n      0x546f6b656e206e6f742065786973740000000000000000000000000000000000\n        /* \"#utility.yul\":8296:8297   */\n      0x00\n        /* \"#utility.yul\":8291:8294   */\n      dup4\n        /* \"#utility.yul\":8287:8298   */\n      add\n        /* \"#utility.yul\":8280:8318   */\n      mstore\n        /* \"#utility.yul\":8344:8346   */\n      0x20\n        /* \"#utility.yul\":8339:8342   */\n      dup3\n        /* \"#utility.yul\":8335:8347   */\n      add\n        /* \"#utility.yul\":8328:8347   */\n      swap1\n      pop\n        /* \"#utility.yul\":8186:8353   */\n      swap2\n      swap1\n      pop\n      jump\t// out\n        /* \"#utility.yul\":8359:8675   */\n    tag_318:\n      0x00\n        /* \"#utility.yul\":8522:8589   */\n      tag_320\n        /* \"#utility.yul\":8586:8588   */\n      0x12\n        /* \"#utility.yul\":8581:8584   */\n      dup4\n        /* \"#utility.yul\":8522:8589   */\n      tag_291\n      jump\t// in\n    tag_320:\n        /* \"#utility.yul\":8515:8589   */\n      swap2\n      pop\n        /* \"#utility.yul\":8619:8639   */\n      0x6e6f742045524337323152656365697665720000000000000000000000000000\n        /* \"#utility.yul\":8615:8616   */\n      0x00\n        /* \"#utility.yul\":8610:8613   */\n      dup4\n        /* \"#utility.yul\":8606:8617   */\n      add\n        /* \"#utility.yul\":8599:8640   */\n      mstore\n        /* \"#utility.yul\":8666:8668   */\n      0x20\n        /* \"#utility.yul\":8661:8664   */\n      dup3\n        /* \"#utility.yul\":8657:8669   */\n      add\n        /* \"#utility.yul\":8650:8669   */\n      swap1\n      pop\n        /* \"#utility.yul\":8505:8675   */\n      swap2\n      swap1\n      pop\n      jump\t// out\n        /* \"#utility.yul\":8681:8987   */\n    tag_321:\n      0x00\n        /* \"#utility.yul\":8844:8910   */\n      tag_323\n        /* \"#utility.yul\":8908:8909   */\n      0x09\n        /* \"#utility.yul\":8903:8906   */\n      dup4\n        /* \"#utility.yul\":8844:8910   */\n      tag_291\n      jump\t// in\n    tag_323:\n        /* \"#utility.yul\":8837:8910   */\n      swap2\n      pop\n        /* \"#utility.yul\":8940:8951   */\n      0x6e6f74206f776e65720000000000000000000000000000000000000000000000\n        /* \"#utility.yul\":8936:8937   */\n      0x00\n        /* \"#utility.yul\":8931:8934   */\n      dup4\n        /* \"#utility.yul\":8927:8938   */\n      add\n        /* \"#utility.yul\":8920:8952   */\n      mstore\n        /* \"#utility.yul\":8978:8980   */\n      0x20\n        /* \"#utility.yul\":8973:8976   */\n      dup3\n        /* \"#utility.yul\":8969:8981   */\n      add\n        /* \"#utility.yul\":8962:8981   */\n      swap1\n      pop\n        /* \"#utility.yul\":8827:8987   */\n      swap2\n      swap1\n      pop\n      jump\t// out\n        /* \"#utility.yul\":8993:9111   */\n    tag_324:\n        /* \"#utility.yul\":9080:9104   */\n      tag_326\n        /* \"#utility.yul\":9098:9103   */\n      dup2\n        /* \"#utility.yul\":9080:9104   */\n      tag_327\n      jump\t// in\n    tag_326:\n        /* \"#utility.yul\":9075:9078   */\n      dup3\n        /* \"#utility.yul\":9068:9105   */\n      mstore\n        /* \"#utility.yul\":9058:9111   */\n      pop\n      pop\n      jump\t// out\n        /* \"#utility.yul\":9117:9552   */\n    tag_139:\n      0x00\n        /* \"#utility.yul\":9319:9414   */\n      tag_329\n        /* \"#utility.yul\":9410:9413   */\n      dup3\n        /* \"#utility.yul\":9401:9407   */\n      dup6\n        /* \"#utility.yul\":9319:9414   */\n      tag_294\n      jump\t// in\n    tag_329:\n        /* \"#utility.yul\":9312:9414   */\n      swap2\n      pop\n        /* \"#utility.yul\":9431:9526   */\n      tag_330\n        /* \"#utility.yul\":9522:9525   */\n      dup3\n        /* \"#utility.yul\":9513:9519   */\n      dup5\n        /* \"#utility.yul\":9431:9526   */\n      tag_294\n      jump\t// in\n    tag_330:\n        /* \"#utility.yul\":9424:9526   */\n      swap2\n      pop\n        /* \"#utility.yul\":9543:9546   */\n      dup2\n        /* \"#utility.yul\":9536:9546   */\n      swap1\n      pop\n        /* \"#utility.yul\":9301:9552   */\n      swap4\n      swap3\n      pop\n      pop\n      pop\n      jump\t// out\n        /* \"#utility.yul\":9558:9780   */\n    tag_33:\n      0x00\n        /* \"#utility.yul\":9689:9691   */\n      0x20\n        /* \"#utility.yul\":9678:9687   */\n      dup3\n        /* \"#utility.yul\":9674:9692   */\n      add\n        /* \"#utility.yul\":9666:9692   */\n      swap1\n      pop\n        /* \"#utility.yul\":9702:9773   */\n      tag_332\n        /* \"#utility.yul\":9770:9771   */\n      0x00\n        /* \"#utility.yul\":9759:9768   */\n      dup4\n        /* \"#utility.yul\":9755:9772   */\n      add\n        /* \"#utility.yul\":9746:9752   */\n      dup5\n        /* \"#utility.yul\":9702:9773   */\n      tag_268\n      jump\t// in\n    tag_332:\n        /* \"#utility.yul\":9656:9780   */\n      swap3\n      swap2\n      pop\n      pop\n      jump\t// out\n        /* \"#utility.yul\":9786:10216   */\n    tag_127:\n      0x00\n        /* \"#utility.yul\":9967:9969   */\n      0x60\n        /* \"#utility.yul\":9956:9965   */\n      dup3\n        /* \"#utility.yul\":9952:9970   */\n      add\n        /* \"#utility.yul\":9944:9970   */\n      swap1\n      pop\n        /* \"#utility.yul\":9980:10051   */\n      tag_334\n        /* \"#utility.yul\":10048:10049   */\n      0x00\n        /* \"#utility.yul\":10037:10046   */\n      dup4\n        /* \"#utility.yul\":10033:10050   */\n      add\n        /* \"#utility.yul\":10024:10030   */\n      dup7\n        /* \"#utility.yul\":9980:10051   */\n      tag_268\n      jump\t// in\n    tag_334:\n        /* \"#utility.yul\":10061:10133   */\n      tag_335\n        /* \"#utility.yul\":10129:10131   */\n      0x20\n        /* \"#utility.yul\":10118:10127   */\n      dup4\n        /* \"#utility.yul\":10114:10132   */\n      add\n        /* \"#utility.yul\":10105:10111   */\n      dup6\n        /* \"#utility.yul\":10061:10133   */\n      tag_268\n      jump\t// in\n    tag_335:\n        /* \"#utility.yul\":10143:10209   */\n      tag_336\n        /* \"#utility.yul\":10205:10207   */\n      0x40\n        /* \"#utility.yul\":10194:10203   */\n      dup4\n        /* \"#utility.yul\":10190:10208   */\n      add\n        /* \"#utility.yul\":10181:10187   */\n      dup5\n        /* \"#utility.yul\":10143:10209   */\n      tag_272\n      jump\t// in\n    tag_336:\n        /* \"#utility.yul\":9934:10216   */\n      swap5\n      swap4\n      pop\n      pop\n      pop\n      pop\n      jump\t// out\n        /* \"#utility.yul\":10222:10664   */\n    tag_143:\n      0x00\n        /* \"#utility.yul\":10409:10411   */\n      0x60\n        /* \"#utility.yul\":10398:10407   */\n      dup3\n        /* \"#utility.yul\":10394:10412   */\n      add\n        /* \"#utility.yul\":10386:10412   */\n      swap1\n      pop\n        /* \"#utility.yul\":10422:10493   */\n      tag_338\n        /* \"#utility.yul\":10490:10491   */\n      0x00\n        /* \"#utility.yul\":10479:10488   */\n      dup4\n        /* \"#utility.yul\":10475:10492   */\n      add\n        /* \"#utility.yul\":10466:10472   */\n      dup7\n        /* \"#utility.yul\":10422:10493   */\n      tag_268\n      jump\t// in\n    tag_338:\n        /* \"#utility.yul\":10503:10575   */\n      tag_339\n        /* \"#utility.yul\":10571:10573   */\n      0x20\n        /* \"#utility.yul\":10560:10569   */\n      dup4\n        /* \"#utility.yul\":10556:10574   */\n      add\n        /* \"#utility.yul\":10547:10553   */\n      dup6\n        /* \"#utility.yul\":10503:10575   */\n      tag_268\n      jump\t// in\n    tag_339:\n        /* \"#utility.yul\":10585:10657   */\n      tag_340\n        /* \"#utility.yul\":10653:10655   */\n      0x40\n        /* \"#utility.yul\":10642:10651   */\n      dup4\n        /* \"#utility.yul\":10638:10656   */\n      add\n        /* \"#utility.yul\":10629:10635   */\n      dup5\n        /* \"#utility.yul\":10585:10657   */\n      tag_324\n      jump\t// in\n    tag_340:\n        /* \"#utility.yul\":10376:10664   */\n      swap5\n      swap4\n      pop\n      pop\n      pop\n      pop\n      jump\t// out\n        /* \"#utility.yul\":10670:11310   */\n    tag_191:\n      0x00\n        /* \"#utility.yul\":10903:10906   */\n      0x80\n        /* \"#utility.yul\":10892:10901   */\n      dup3\n        /* \"#utility.yul\":10888:10907   */\n      add\n        /* \"#utility.yul\":10880:10907   */\n      swap1\n      pop\n        /* \"#utility.yul\":10917:10988   */\n      tag_342\n        /* \"#utility.yul\":10985:10986   */\n      0x00\n        /* \"#utility.yul\":10974:10983   */\n      dup4\n        /* \"#utility.yul\":10970:10987   */\n      add\n        /* \"#utility.yul\":10961:10967   */\n      dup8\n        /* \"#utility.yul\":10917:10988   */\n      tag_268\n      jump\t// in\n    tag_342:\n        /* \"#utility.yul\":10998:11070   */\n      tag_343\n        /* \"#utility.yul\":11066:11068   */\n      0x20\n        /* \"#utility.yul\":11055:11064   */\n      dup4\n        /* \"#utility.yul\":11051:11069   */\n      add\n        /* \"#utility.yul\":11042:11048   */\n      dup7\n        /* \"#utility.yul\":10998:11070   */\n      tag_268\n      jump\t// in\n    tag_343:\n        /* \"#utility.yul\":11080:11152   */\n      tag_344\n        /* \"#utility.yul\":11148:11150   */\n      0x40\n        /* \"#utility.yul\":11137:11146   */\n      dup4\n        /* \"#utility.yul\":11133:11151   */\n      add\n        /* \"#utility.yul\":11124:11130   */\n      dup6\n        /* \"#utility.yul\":11080:11152   */\n      tag_324\n      jump\t// in\n    tag_344:\n        /* \"#utility.yul\":11199:11208   */\n      dup2\n        /* \"#utility.yul\":11193:11197   */\n      dup2\n        /* \"#utility.yul\":11189:11209   */\n      sub\n        /* \"#utility.yul\":11184:11186   */\n      0x60\n        /* \"#utility.yul\":11173:11182   */\n      dup4\n        /* \"#utility.yul\":11169:11187   */\n      add\n        /* \"#utility.yul\":11162:11210   */\n      mstore\n        /* \"#utility.yul\":11227:11303   */\n      tag_345\n        /* \"#utility.yul\":11298:11302   */\n      dup2\n        /* \"#utility.yul\":11289:11295   */\n      dup5\n        /* \"#utility.yul\":11227:11303   */\n      tag_276\n      jump\t// in\n    tag_345:\n        /* \"#utility.yul\":11219:11303   */\n      swap1\n      pop\n        /* \"#utility.yul\":10870:11310   */\n      swap6\n      swap5\n      pop\n      pop\n      pop\n      pop\n      pop\n      jump\t// out\n        /* \"#utility.yul\":11316:11526   */\n    tag_23:\n      0x00\n        /* \"#utility.yul\":11441:11443   */\n      0x20\n        /* \"#utility.yul\":11430:11439   */\n      dup3\n        /* \"#utility.yul\":11426:11444   */\n      add\n        /* \"#utility.yul\":11418:11444   */\n      swap1\n      pop\n        /* \"#utility.yul\":11454:11519   */\n      tag_347\n        /* \"#utility.yul\":11516:11517   */\n      0x00\n        /* \"#utility.yul\":11505:11514   */\n      dup4\n        /* \"#utility.yul\":11501:11518   */\n      add\n        /* \"#utility.yul\":11492:11498   */\n      dup5\n        /* \"#utility.yul\":11454:11519   */\n      tag_272\n      jump\t// in\n    tag_347:\n        /* \"#utility.yul\":11408:11526   */\n      swap3\n      swap2\n      pop\n      pop\n      jump\t// out\n        /* \"#utility.yul\":11532:11845   */\n    tag_27:\n      0x00\n        /* \"#utility.yul\":11683:11685   */\n      0x20\n        /* \"#utility.yul\":11672:11681   */\n      dup3\n        /* \"#utility.yul\":11668:11686   */\n      add\n        /* \"#utility.yul\":11660:11686   */\n      swap1\n      pop\n        /* \"#utility.yul\":11732:11741   */\n      dup2\n        /* \"#utility.yul\":11726:11730   */\n      dup2\n        /* \"#utility.yul\":11722:11742   */\n      sub\n        /* \"#utility.yul\":11718:11719   */\n      0x00\n        /* \"#utility.yul\":11707:11716   */\n      dup4\n        /* \"#utility.yul\":11703:11720   */\n      add\n        /* \"#utility.yul\":11696:11743   */\n      mstore\n        /* \"#utility.yul\":11760:11838   */\n      tag_349\n        /* \"#utility.yul\":11833:11837   */\n      dup2\n        /* \"#utility.yul\":11824:11830   */\n      dup5\n        /* \"#utility.yul\":11760:11838   */\n      tag_286\n      jump\t// in\n    tag_349:\n        /* \"#utility.yul\":11752:11838   */\n      swap1\n      pop\n        /* \"#utility.yul\":11650:11845   */\n      swap3\n      swap2\n      pop\n      pop\n      jump\t// out\n        /* \"#utility.yul\":11851:12270   */\n    tag_92:\n      0x00\n        /* \"#utility.yul\":12055:12057   */\n      0x20\n        /* \"#utility.yul\":12044:12053   */\n      dup3\n        /* \"#utility.yul\":12040:12058   */\n      add\n        /* \"#utility.yul\":12032:12058   */\n      swap1\n      pop\n        /* \"#utility.yul\":12104:12113   */\n      dup2\n        /* \"#utility.yul\":12098:12102   */\n      dup2\n        /* \"#utility.yul\":12094:12114   */\n      sub\n        /* \"#utility.yul\":12090:12091   */\n      0x00\n        /* \"#utility.yul\":12079:12088   */\n      dup4\n        /* \"#utility.yul\":12075:12092   */\n      add\n        /* \"#utility.yul\":12068:12115   */\n      mstore\n        /* \"#utility.yul\":12132:12263   */\n      tag_351\n        /* \"#utility.yul\":12258:12262   */\n      dup2\n        /* \"#utility.yul\":12132:12263   */\n      tag_300\n      jump\t// in\n    tag_351:\n        /* \"#utility.yul\":12124:12263   */\n      swap1\n      pop\n        /* \"#utility.yul\":12022:12270   */\n      swap2\n      swap1\n      pop\n      jump\t// out\n        /* \"#utility.yul\":12276:12695   */\n    tag_153:\n      0x00\n        /* \"#utility.yul\":12480:12482   */\n      0x20\n        /* \"#utility.yul\":12469:12478   */\n      dup3\n        /* \"#utility.yul\":12465:12483   */\n      add\n        /* \"#utility.yul\":12457:12483   */\n      swap1\n      pop\n        /* \"#utility.yul\":12529:12538   */\n      dup2\n        /* \"#utility.yul\":12523:12527   */\n      dup2\n        /* \"#utility.yul\":12519:12539   */\n      sub\n        /* \"#utility.yul\":12515:12516   */\n      0x00\n        /* \"#utility.yul\":12504:12513   */\n      dup4\n        /* \"#utility.yul\":12500:12517   */\n      add\n        /* \"#utility.yul\":12493:12540   */\n      mstore\n        /* \"#utility.yul\":12557:12688   */\n      tag_353\n        /* \"#utility.yul\":12683:12687   */\n      dup2\n        /* \"#utility.yul\":12557:12688   */\n      tag_303\n      jump\t// in\n    tag_353:\n        /* \"#utility.yul\":12549:12688   */\n      swap1\n      pop\n        /* \"#utility.yul\":12447:12695   */\n      swap2\n      swap1\n      pop\n      jump\t// out\n        /* \"#utility.yul\":12701:13120   */\n    tag_123:\n      0x00\n        /* \"#utility.yul\":12905:12907   */\n      0x20\n        /* \"#utility.yul\":12894:12903   */\n      dup3\n        /* \"#utility.yul\":12890:12908   */\n      add\n        /* \"#utility.yul\":12882:12908   */\n      swap1\n      pop\n        /* \"#utility.yul\":12954:12963   */\n      dup2\n        /* \"#utility.yul\":12948:12952   */\n      dup2\n        /* \"#utility.yul\":12944:12964   */\n      sub\n        /* \"#utility.yul\":12940:12941   */\n      0x00\n        /* \"#utility.yul\":12929:12938   */\n      dup4\n        /* \"#utility.yul\":12925:12942   */\n      add\n        /* \"#utility.yul\":12918:12965   */\n      mstore\n        /* \"#utility.yul\":12982:13113   */\n      tag_355\n        /* \"#utility.yul\":13108:13112   */\n      dup2\n        /* \"#utility.yul\":12982:13113   */\n      tag_306\n      jump\t// in\n    tag_355:\n        /* \"#utility.yul\":12974:13113   */\n      swap1\n      pop\n        /* \"#utility.yul\":12872:13120   */\n      swap2\n      swap1\n      pop\n      jump\t// out\n        /* \"#utility.yul\":13126:13545   */\n    tag_87:\n      0x00\n        /* \"#utility.yul\":13330:13332   */\n      0x20\n        /* \"#utility.yul\":13319:13328   */\n      dup3\n        /* \"#utility.yul\":13315:13333   */\n      add\n        /* \"#utility.yul\":13307:13333   */\n      swap1\n      pop\n        /* \"#utility.yul\":13379:13388   */\n      dup2\n        /* \"#utility.yul\":13373:13377   */\n      dup2\n        /* \"#utility.yul\":13369:13389   */\n      sub\n        /* \"#utility.yul\":13365:13366   */\n      0x00\n        /* \"#utility.yul\":13354:13363   */\n      dup4\n        /* \"#utility.yul\":13350:13367   */\n      add\n        /* \"#utility.yul\":13343:13390   */\n      mstore\n        /* \"#utility.yul\":13407:13538   */\n      tag_357\n        /* \"#utility.yul\":13533:13537   */\n      dup2\n        /* \"#utility.yul\":13407:13538   */\n      tag_309\n      jump\t// in\n    tag_357:\n        /* \"#utility.yul\":13399:13538   */\n      swap1\n      pop\n        /* \"#utility.yul\":13297:13545   */\n      swap2\n      swap1\n      pop\n      jump\t// out\n        /* \"#utility.yul\":13551:13970   */\n    tag_112:\n      0x00\n        /* \"#utility.yul\":13755:13757   */\n      0x20\n        /* \"#utility.yul\":13744:13753   */\n      dup3\n        /* \"#utility.yul\":13740:13758   */\n      add\n        /* \"#utility.yul\":13732:13758   */\n      swap1\n      pop\n        /* \"#utility.yul\":13804:13813   */\n      dup2\n        /* \"#utility.yul\":13798:13802   */\n      dup2\n        /* \"#utility.yul\":13794:13814   */\n      sub\n        /* \"#utility.yul\":13790:13791   */\n      0x00\n        /* \"#utility.yul\":13779:13788   */\n      dup4\n        /* \"#utility.yul\":13775:13792   */\n      add\n        /* \"#utility.yul\":13768:13815   */\n      mstore\n        /* \"#utility.yul\":13832:13963   */\n      tag_359\n        /* \"#utility.yul\":13958:13962   */\n      dup2\n        /* \"#utility.yul\":13832:13963   */\n      tag_312\n      jump\t// in\n    tag_359:\n        /* \"#utility.yul\":13824:13963   */\n      swap1\n      pop\n        /* \"#utility.yul\":13722:13970   */\n      swap2\n      swap1\n      pop\n      jump\t// out\n        /* \"#utility.yul\":13976:14395   */\n    tag_131:\n      0x00\n        /* \"#utility.yul\":14180:14182   */\n      0x20\n        /* \"#utility.yul\":14169:14178   */\n      dup3\n        /* \"#utility.yul\":14165:14183   */\n      add\n        /* \"#utility.yul\":14157:14183   */\n      swap1\n      pop\n        /* \"#utility.yul\":14229:14238   */\n      dup2\n        /* \"#utility.yul\":14223:14227   */\n      dup2\n        /* \"#utility.yul\":14219:14239   */\n      sub\n        /* \"#utility.yul\":14215:14216   */\n      0x00\n        /* \"#utility.yul\":14204:14213   */\n      dup4\n        /* \"#utility.yul\":14200:14217   */\n      add\n        /* \"#utility.yul\":14193:14240   */\n      mstore\n        /* \"#utility.yul\":14257:14388   */\n      tag_361\n        /* \"#utility.yul\":14383:14387   */\n      dup2\n        /* \"#utility.yul\":14257:14388   */\n      tag_315\n      jump\t// in\n    tag_361:\n        /* \"#utility.yul\":14249:14388   */\n      swap1\n      pop\n        /* \"#utility.yul\":14147:14395   */\n      swap2\n      swap1\n      pop\n      jump\t// out\n        /* \"#utility.yul\":14401:14820   */\n    tag_166:\n      0x00\n        /* \"#utility.yul\":14605:14607   */\n      0x20\n        /* \"#utility.yul\":14594:14603   */\n      dup3\n        /* \"#utility.yul\":14590:14608   */\n      add\n        /* \"#utility.yul\":14582:14608   */\n      swap1\n      pop\n        /* \"#utility.yul\":14654:14663   */\n      dup2\n        /* \"#utility.yul\":14648:14652   */\n      dup2\n        /* \"#utility.yul\":14644:14664   */\n      sub\n        /* \"#utility.yul\":14640:14641   */\n      0x00\n        /* \"#utility.yul\":14629:14638   */\n      dup4\n        /* \"#utility.yul\":14625:14642   */\n      add\n        /* \"#utility.yul\":14618:14665   */\n      mstore\n        /* \"#utility.yul\":14682:14813   */\n      tag_363\n        /* \"#utility.yul\":14808:14812   */\n      dup2\n        /* \"#utility.yul\":14682:14813   */\n      tag_318\n      jump\t// in\n    tag_363:\n        /* \"#utility.yul\":14674:14813   */\n      swap1\n      pop\n        /* \"#utility.yul\":14572:14820   */\n      swap2\n      swap1\n      pop\n      jump\t// out\n        /* \"#utility.yul\":14826:15245   */\n    tag_150:\n      0x00\n        /* \"#utility.yul\":15030:15032   */\n      0x20\n        /* \"#utility.yul\":15019:15028   */\n      dup3\n        /* \"#utility.yul\":15015:15033   */\n      add\n        /* \"#utility.yul\":15007:15033   */\n      swap1\n      pop\n        /* \"#utility.yul\":15079:15088   */\n      dup2\n        /* \"#utility.yul\":15073:15077   */\n      dup2\n        /* \"#utility.yul\":15069:15089   */\n      sub\n        /* \"#utility.yul\":15065:15066   */\n      0x00\n        /* \"#utility.yul\":15054:15063   */\n      dup4\n        /* \"#utility.yul\":15050:15067   */\n      add\n        /* \"#utility.yul\":15043:15090   */\n      mstore\n        /* \"#utility.yul\":15107:15238   */\n      tag_365\n        /* \"#utility.yul\":15233:15237   */\n      dup2\n        /* \"#utility.yul\":15107:15238   */\n      tag_321\n      jump\t// in\n    tag_365:\n        /* \"#utility.yul\":15099:15238   */\n      swap1\n      pop\n        /* \"#utility.yul\":14997:15245   */\n      swap2\n      swap1\n      pop\n      jump\t// out\n        /* \"#utility.yul\":15251:15473   */\n    tag_54:\n      0x00\n        /* \"#utility.yul\":15382:15384   */\n      0x20\n        /* \"#utility.yul\":15371:15380   */\n      dup3\n        /* \"#utility.yul\":15367:15385   */\n      add\n        /* \"#utility.yul\":15359:15385   */\n      swap1\n      pop\n        /* \"#utility.yul\":15395:15466   */\n      tag_367\n        /* \"#utility.yul\":15463:15464   */\n      0x00\n        /* \"#utility.yul\":15452:15461   */\n      dup4\n        /* \"#utility.yul\":15448:15465   */\n      add\n        /* \"#utility.yul\":15439:15445   */\n      dup5\n        /* \"#utility.yul\":15395:15466   */\n      tag_324\n      jump\t// in\n    tag_367:\n        /* \"#utility.yul\":15349:15473   */\n      swap3\n      swap2\n      pop\n      pop\n      jump\t// out\n        /* \"#utility.yul\":15479:15762   */\n    tag_205:\n      0x00\n        /* \"#utility.yul\":15545:15547   */\n      0x40\n        /* \"#utility.yul\":15539:15548   */\n      mload\n        /* \"#utility.yul\":15529:15548   */\n      swap1\n      pop\n        /* \"#utility.yul\":15587:15591   */\n      dup2\n        /* \"#utility.yul\":15579:15585   */\n      dup2\n        /* \"#utility.yul\":15575:15592   */\n      add\n        /* \"#utility.yul\":15694:15700   */\n      dup2\n        /* \"#utility.yul\":15682:15692   */\n      dup2\n        /* \"#utility.yul\":15679:15701   */\n      lt\n        /* \"#utility.yul\":15658:15676   */\n      0xffffffffffffffff\n        /* \"#utility.yul\":15646:15656   */\n      dup3\n        /* \"#utility.yul\":15643:15677   */\n      gt\n        /* \"#utility.yul\":15640:15702   */\n      or\n        /* \"#utility.yul\":15637:15639   */\n      iszero\n      tag_369\n      jumpi\n        /* \"#utility.yul\":15705:15723   */\n      tag_370\n      tag_371\n      jump\t// in\n    tag_370:\n        /* \"#utility.yul\":15637:15639   */\n    tag_369:\n        /* \"#utility.yul\":15745:15755   */\n      dup1\n        /* \"#utility.yul\":15741:15743   */\n      0x40\n        /* \"#utility.yul\":15734:15756   */\n      mstore\n        /* \"#utility.yul\":15519:15762   */\n      pop\n      swap2\n      swap1\n      pop\n      jump\t// out\n        /* \"#utility.yul\":15768:16099   */\n    tag_204:\n      0x00\n        /* \"#utility.yul\":15919:15937   */\n      0xffffffffffffffff\n        /* \"#utility.yul\":15911:15917   */\n      dup3\n        /* \"#utility.yul\":15908:15938   */\n      gt\n        /* \"#utility.yul\":15905:15907   */\n      iszero\n      tag_373\n      jumpi\n        /* \"#utility.yul\":15941:15959   */\n      tag_374\n      tag_371\n      jump\t// in\n    tag_374:\n        /* \"#utility.yul\":15905:15907   */\n    tag_373:\n        /* \"#utility.yul\":16026:16030   */\n      0x1f\n        /* \"#utility.yul\":16022:16031   */\n      not\n        /* \"#utility.yul\":16015:16019   */\n      0x1f\n        /* \"#utility.yul\":16007:16013   */\n      dup4\n        /* \"#utility.yul\":16003:16020   */\n      add\n        /* \"#utility.yul\":15999:16032   */\n      and\n        /* \"#utility.yul\":15991:16032   */\n      swap1\n      pop\n        /* \"#utility.yul\":16087:16091   */\n      0x20\n        /* \"#utility.yul\":16081:16085   */\n      dup2\n        /* \"#utility.yul\":16077:16092   */\n      add\n        /* \"#utility.yul\":16069:16092   */\n      swap1\n      pop\n        /* \"#utility.yul\":15834:16099   */\n      swap2\n      swap1\n      pop\n      jump\t// out\n        /* \"#utility.yul\":16105:16203   */\n    tag_279:\n      0x00\n        /* \"#utility.yul\":16190:16195   */\n      dup2\n        /* \"#utility.yul\":16184:16196   */\n      mload\n        /* \"#utility.yul\":16174:16196   */\n      swap1\n      pop\n        /* \"#utility.yul\":16163:16203   */\n      swap2\n      swap1\n      pop\n      jump\t// out\n        /* \"#utility.yul\":16209:16308   */\n    tag_289:\n      0x00\n        /* \"#utility.yul\":16295:16300   */\n      dup2\n        /* \"#utility.yul\":16289:16301   */\n      mload\n        /* \"#utility.yul\":16279:16301   */\n      swap1\n      pop\n        /* \"#utility.yul\":16268:16308   */\n      swap2\n      swap1\n      pop\n      jump\t// out\n        /* \"#utility.yul\":16314:16482   */\n    tag_281:\n      0x00\n        /* \"#utility.yul\":16431:16437   */\n      dup3\n        /* \"#utility.yul\":16426:16429   */\n      dup3\n        /* \"#utility.yul\":16419:16438   */\n      mstore\n        /* \"#utility.yul\":16471:16475   */\n      0x20\n        /* \"#utility.yul\":16466:16469   */\n      dup3\n        /* \"#utility.yul\":16462:16476   */\n      add\n        /* \"#utility.yul\":16447:16476   */\n      swap1\n      pop\n        /* \"#utility.yul\":16409:16482   */\n      swap3\n      swap2\n      pop\n      pop\n      jump\t// out\n        /* \"#utility.yul\":16488:16657   */\n    tag_291:\n      0x00\n        /* \"#utility.yul\":16606:16612   */\n      dup3\n        /* \"#utility.yul\":16601:16604   */\n      dup3\n        /* \"#utility.yul\":16594:16613   */\n      mstore\n        /* \"#utility.yul\":16646:16650   */\n      0x20\n        /* \"#utility.yul\":16641:16644   */\n      dup3\n        /* \"#utility.yul\":16637:16651   */\n      add\n        /* \"#utility.yul\":16622:16651   */\n      swap1\n      pop\n        /* \"#utility.yul\":16584:16657   */\n      swap3\n      swap2\n      pop\n      pop\n      jump\t// out\n        /* \"#utility.yul\":16663:16811   */\n    tag_298:\n      0x00\n        /* \"#utility.yul\":16802:16805   */\n      dup2\n        /* \"#utility.yul\":16787:16805   */\n      swap1\n      pop\n        /* \"#utility.yul\":16777:16811   */\n      swap3\n      swap2\n      pop\n      pop\n      jump\t// out\n        /* \"#utility.yul\":16817:17122   */\n    tag_158:\n      0x00\n        /* \"#utility.yul\":16876:16896   */\n      tag_381\n        /* \"#utility.yul\":16894:16895   */\n      dup3\n        /* \"#utility.yul\":16876:16896   */\n      tag_327\n      jump\t// in\n    tag_381:\n        /* \"#utility.yul\":16871:16896   */\n      swap2\n      pop\n        /* \"#utility.yul\":16910:16930   */\n      tag_382\n        /* \"#utility.yul\":16928:16929   */\n      dup4\n        /* \"#utility.yul\":16910:16930   */\n      tag_327\n      jump\t// in\n    tag_382:\n        /* \"#utility.yul\":16905:16930   */\n      swap3\n      pop\n        /* \"#utility.yul\":17064:17065   */\n      dup3\n        /* \"#utility.yul\":16996:17062   */\n      0xffffffffffffffffffffffffffffffffffffffffffffffffffffffffffffffff\n        /* \"#utility.yul\":16992:17066   */\n      sub\n        /* \"#utility.yul\":16989:16990   */\n      dup3\n        /* \"#utility.yul\":16986:17067   */\n      gt\n        /* \"#utility.yul\":16983:16985   */\n      iszero\n      tag_383\n      jumpi\n        /* \"#utility.yul\":17070:17088   */\n      tag_384\n      tag_385\n      jump\t// in\n    tag_384:\n        /* \"#utility.yul\":16983:16985   */\n    tag_383:\n        /* \"#utility.yul\":17114:17115   */\n      dup3\n        /* \"#utility.yul\":17111:17112   */\n      dup3\n        /* \"#utility.yul\":17107:17116   */\n      add\n        /* \"#utility.yul\":17100:17116   */\n      swap1\n      pop\n        /* \"#utility.yul\":16861:17122   */\n      swap3\n      swap2\n      pop\n      pop\n      jump\t// out\n        /* \"#utility.yul\":17128:17313   */\n    tag_175:\n      0x00\n        /* \"#utility.yul\":17185:17205   */\n      tag_387\n        /* \"#utility.yul\":17203:17204   */\n      dup3\n        /* \"#utility.yul\":17185:17205   */\n      tag_327\n      jump\t// in\n    tag_387:\n        /* \"#utility.yul\":17180:17205   */\n      swap2\n      pop\n        /* \"#utility.yul\":17219:17239   */\n      tag_388\n        /* \"#utility.yul\":17237:17238   */\n      dup4\n        /* \"#utility.yul\":17219:17239   */\n      tag_327\n      jump\t// in\n    tag_388:\n        /* \"#utility.yul\":17214:17239   */\n      swap3\n      pop\n        /* \"#utility.yul\":17258:17259   */\n      dup3\n        /* \"#utility.yul\":17248:17250   */\n      tag_389\n      jumpi\n        /* \"#utility.yul\":17263:17281   */\n      tag_390\n      tag_391\n      jump\t// in\n    tag_390:\n        /* \"#utility.yul\":17248:17250   */\n    tag_389:\n        /* \"#utility.yul\":17305:17306   */\n      dup3\n        /* \"#utility.yul\":17302:17303   */\n      dup3\n        /* \"#utility.yul\":17298:17307   */\n      div\n        /* \"#utility.yul\":17293:17307   */\n      swap1\n      pop\n        /* \"#utility.yul\":17170:17313   */\n      swap3\n      swap2\n      pop\n      pop\n      jump\t// out\n        /* \"#utility.yul\":17319:17510   */\n    tag_156:\n      0x00\n        /* \"#utility.yul\":17379:17399   */\n      tag_393\n        /* \"#utility.yul\":17397:17398   */\n      dup3\n        /* \"#utility.yul\":17379:17399   */\n      tag_327\n      jump\t// in\n    tag_393:\n        /* \"#utility.yul\":17374:17399   */\n      swap2\n      pop\n        /* \"#utility.yul\":17413:17433   */\n      tag_394\n        /* \"#utility.yul\":17431:17432   */\n      dup4\n        /* \"#utility.yul\":17413:17433   */\n      tag_327\n      jump\t// in\n    tag_394:\n        /* \"#utility.yul\":17408:17433   */\n      swap3\n      pop\n        /* \"#utility.yul\":17452:17453   */\n      dup3\n        /* \"#utility.yul\":17449:17450   */\n      dup3\n        /* \"#utility.yul\":17446:17454   */\n      lt\n        /* \"#utility.yul\":17443:17445   */\n      iszero\n      tag_395\n      jumpi\n        /* \"#utility.yul\":17457:17475   */\n      tag_396\n      tag_385\n      jump\t// in\n    tag_396:\n        /* \"#utility.yul\":17443:17445   */\n    tag_395:\n        /* \"#utility.yul\":17502:17503   */\n      dup3\n        /* \"#utility.yul\":17499:17500   */\n      dup3\n        /* \"#utility.yul\":17495:17504   */\n      sub\n        /* \"#utility.yul\":17487:17504   */\n      swap1\n      pop\n        /* \"#utility.yul\":17364:17510   */\n      swap3\n      swap2\n      pop\n      pop\n      jump\t// out\n        /* \"#utility.yul\":17516:17612   */\n    tag_271:\n      0x00\n        /* \"#utility.yul\":17582:17606   */\n      tag_398\n        /* \"#utility.yul\":17600:17605   */\n      dup3\n        /* \"#utility.yul\":17582:17606   */\n      tag_399\n      jump\t// in\n    tag_398:\n        /* \"#utility.yul\":17571:17606   */\n      swap1\n      pop\n        /* \"#utility.yul\":17561:17612   */\n      swap2\n      swap1\n      pop\n      jump\t// out\n        /* \"#utility.yul\":17618:17708   */\n    tag_275:\n      0x00\n        /* \"#utility.yul\":17695:17700   */\n      dup2\n        /* \"#utility.yul\":17688:17701   */\n      iszero\n        /* \"#utility.yul\":17681:17702   */\n      iszero\n        /* \"#utility.yul\":17670:17702   */\n      swap1\n      pop\n        /* \"#utility.yul\":17660:17708   */\n      swap2\n      swap1\n      pop\n      jump\t// out\n        /* \"#utility.yul\":17714:17863   */\n    tag_401:\n      0x00\n        /* \"#utility.yul\":17790:17856   */\n      0xffffffff00000000000000000000000000000000000000000000000000000000\n        /* \"#utility.yul\":17783:17788   */\n      dup3\n        /* \"#utility.yul\":17779:17857   */\n      and\n        /* \"#utility.yul\":17768:17857   */\n      swap1\n      pop\n        /* \"#utility.yul\":17758:17863   */\n      swap2\n      swap1\n      pop\n      jump\t// out\n        /* \"#utility.yul\":17869:17995   */\n    tag_399:\n      0x00\n        /* \"#utility.yul\":17946:17988   */\n      0xffffffffffffffffffffffffffffffffffffffff\n        /* \"#utility.yul\":17939:17944   */\n      dup3\n        /* \"#utility.yul\":17935:17989   */\n      and\n        /* \"#utility.yul\":17924:17989   */\n      swap1\n      pop\n        /* \"#utility.yul\":17914:17995   */\n      swap2\n      swap1\n      pop\n      jump\t// out\n        /* \"#utility.yul\":18001:18078   */\n    tag_327:\n      0x00\n        /* \"#utility.yul\":18067:18072   */\n      dup2\n        /* \"#utility.yul\":18056:18072   */\n      swap1\n      pop\n        /* \"#utility.yul\":18046:18078   */\n      swap2\n      swap1\n      pop\n      jump\t// out\n        /* \"#utility.yul\":18084:18238   */\n    tag_208:\n        /* \"#utility.yul\":18168:18174   */\n      dup3\n        /* \"#utility.yul\":18163:18166   */\n      dup2\n        /* \"#utility.yul\":18158:18161   */\n      dup4\n        /* \"#utility.yul\":18145:18175   */\n      calldatacopy\n        /* \"#utility.yul\":18230:18231   */\n      0x00\n        /* \"#utility.yul\":18221:18227   */\n      dup4\n        /* \"#utility.yul\":18216:18219   */\n      dup4\n        /* \"#utility.yul\":18212:18228   */\n      add\n        /* \"#utility.yul\":18205:18232   */\n      mstore\n        /* \"#utility.yul\":18135:18238   */\n      pop\n      pop\n      pop\n      jump\t// out\n        /* \"#utility.yul\":18244:18551   */\n    tag_283:\n        /* \"#utility.yul\":18312:18313   */\n      0x00\n        /* \"#utility.yul\":18322:18435   */\n    tag_407:\n        /* \"#utility.yul\":18336:18342   */\n      dup4\n        /* \"#utility.yul\":18333:18334   */\n      dup2\n        /* \"#utility.yul\":18330:18343   */\n      lt\n        /* \"#utility.yul\":18322:18435   */\n      iszero\n      tag_409\n      jumpi\n        /* \"#utility.yul\":18421:18422   */\n      dup1\n        /* \"#utility.yul\":18416:18419   */\n      dup3\n        /* \"#utility.yul\":18412:18423   */\n      add\n        /* \"#utility.yul\":18406:18424   */\n      mload\n        /* \"#utility.yul\":18402:18403   */\n      dup2\n        /* \"#utility.yul\":18397:18400   */\n      dup5\n        /* \"#utility.yul\":18393:18404   */\n      add\n        /* \"#utility.yul\":18386:18425   */\n      mstore\n        /* \"#utility.yul\":18358:18360   */\n      0x20\n        /* \"#utility.yul\":18355:18356   */\n      dup2\n        /* \"#utility.yul\":18351:18361   */\n      add\n        /* \"#utility.yul\":18346:18361   */\n      swap1\n      pop\n        /* \"#utility.yul\":18322:18435   */\n      jump(tag_407)\n    tag_409:\n        /* \"#utility.yul\":18453:18459   */\n      dup4\n        /* \"#utility.yul\":18450:18451   */\n      dup2\n        /* \"#utility.yul\":18447:18460   */\n      gt\n        /* \"#utility.yul\":18444:18446   */\n      iszero\n      tag_410\n      jumpi\n        /* \"#utility.yul\":18533:18534   */\n      0x00\n        /* \"#utility.yul\":18524:18530   */\n      dup5\n        /* \"#utility.yul\":18519:18522   */\n      dup5\n        /* \"#utility.yul\":18515:18531   */\n      add\n        /* \"#utility.yul\":18508:18535   */\n      mstore\n        /* \"#utility.yul\":18444:18446   */\n    tag_410:\n        /* \"#utility.yul\":18293:18551   */\n      pop\n      pop\n      pop\n      pop\n      jump\t// out\n        /* \"#utility.yul\":18557:18877   */\n    tag_79:\n      0x00\n        /* \"#utility.yul\":18638:18639   */\n      0x02\n        /* \"#utility.yul\":18632:18636   */\n      dup3\n        /* \"#utility.yul\":18628:18640   */\n      div\n        /* \"#utility.yul\":18618:18640   */\n      swap1\n      pop\n        /* \"#utility.yul\":18685:18686   */\n      0x01\n        /* \"#utility.yul\":18679:18683   */\n      dup3\n        /* \"#utility.yul\":18675:18687   */\n      and\n        /* \"#utility.yul\":18706:18724   */\n      dup1\n        /* \"#utility.yul\":18696:18698   */\n      tag_412\n      jumpi\n        /* \"#utility.yul\":18762:18766   */\n      0x7f\n        /* \"#utility.yul\":18754:18760   */\n      dup3\n        /* \"#utility.yul\":18750:18767   */\n      and\n        /* \"#utility.yul\":18740:18767   */\n      swap2\n      pop\n        /* \"#utility.yul\":18696:18698   */\n    tag_412:\n        /* \"#utility.yul\":18824:18826   */\n      0x20\n        /* \"#utility.yul\":18816:18822   */\n      dup3\n        /* \"#utility.yul\":18813:18827   */\n      lt\n        /* \"#utility.yul\":18793:18811   */\n      dup2\n        /* \"#utility.yul\":18790:18828   */\n      eq\n        /* \"#utility.yul\":18787:18789   */\n      iszero\n      tag_413\n      jumpi\n        /* \"#utility.yul\":18843:18861   */\n      tag_414\n      tag_415\n      jump\t// in\n    tag_414:\n        /* \"#utility.yul\":18787:18789   */\n    tag_413:\n        /* \"#utility.yul\":18608:18877   */\n      pop\n      swap2\n      swap1\n      pop\n      jump\t// out\n        /* \"#utility.yul\":18883:19116   */\n    tag_173:\n      0x00\n        /* \"#utility.yul\":18945:18969   */\n      tag_417\n        /* \"#utility.yul\":18963:18968   */\n      dup3\n        /* \"#utility.yul\":18945:18969   */\n      tag_327\n      jump\t// in\n    tag_417:\n        /* \"#utility.yul\":18936:18969   */\n      swap2\n      pop\n        /* \"#utility.yul\":18991:19057   */\n      0xffffffffffffffffffffffffffffffffffffffffffffffffffffffffffffffff\n        /* \"#utility.yul\":18984:18989   */\n      dup3\n        /* \"#utility.yul\":18981:19058   */\n      eq\n        /* \"#utility.yul\":18978:18980   */\n      iszero\n      tag_418\n      jumpi\n        /* \"#utility.yul\":19061:19079   */\n      tag_419\n      tag_385\n      jump\t// in\n    tag_419:\n        /* \"#utility.yul\":18978:18980   */\n    tag_418:\n        /* \"#utility.yul\":19108:19109   */\n      0x01\n        /* \"#utility.yul\":19101:19106   */\n      dup3\n        /* \"#utility.yul\":19097:19110   */\n      add\n        /* \"#utility.yul\":19090:19110   */\n      swap1\n      pop\n        /* \"#utility.yul\":18926:19116   */\n      swap2\n      swap1\n      pop\n      jump\t// out\n        /* \"#utility.yul\":19122:19298   */\n    tag_182:\n      0x00\n        /* \"#utility.yul\":19171:19191   */\n      tag_421\n        /* \"#utility.yul\":19189:19190   */\n      dup3\n        /* \"#utility.yul\":19171:19191   */\n      tag_327\n      jump\t// in\n    tag_421:\n        /* \"#utility.yul\":19166:19191   */\n      swap2\n      pop\n        /* \"#utility.yul\":19205:19225   */\n      tag_422\n        /* \"#utility.yul\":19223:19224   */\n      dup4\n        /* \"#utility.yul\":19205:19225   */\n      tag_327\n      jump\t// in\n    tag_422:\n        /* \"#utility.yul\":19200:19225   */\n      swap3\n      pop\n        /* \"#utility.yul\":19244:19245   */\n      dup3\n        /* \"#utility.yul\":19234:19236   */\n      tag_423\n      jumpi\n        /* \"#utility.yul\":19249:19267   */\n      tag_424\n      tag_391\n      jump\t// in\n    tag_424:\n        /* \"#utility.yul\":19234:19236   */\n    tag_423:\n        /* \"#utility.yul\":19290:19291   */\n      dup3\n        /* \"#utility.yul\":19287:19288   */\n      dup3\n        /* \"#utility.yul\":19283:19292   */\n      mod\n        /* \"#utility.yul\":19278:19292   */\n      swap1\n      pop\n        /* \"#utility.yul\":19156:19298   */\n      swap3\n      swap2\n      pop\n      pop\n      jump\t// out\n        /* \"#utility.yul\":19304:19484   */\n    tag_385:\n        /* \"#utility.yul\":19352:19429   */\n      0x4e487b7100000000000000000000000000000000000000000000000000000000\n        /* \"#utility.yul\":19349:19350   */\n      0x00\n        /* \"#utility.yul\":19342:19430   */\n      mstore\n        /* \"#utility.yul\":19449:19453   */\n      0x11\n        /* \"#utility.yul\":19446:19447   */\n      0x04\n        /* \"#utility.yul\":19439:19454   */\n      mstore\n        /* \"#utility.yul\":19473:19477   */\n      0x24\n        /* \"#utility.yul\":19470:19471   */\n      0x00\n        /* \"#utility.yul\":19463:19478   */\n      revert\n        /* \"#utility.yul\":19490:19670   */\n    tag_391:\n        /* \"#utility.yul\":19538:19615   */\n      0x4e487b7100000000000000000000000000000000000000000000000000000000\n        /* \"#utility.yul\":19535:19536   */\n      0x00\n        /* \"#utility.yul\":19528:19616   */\n      mstore\n        /* \"#utility.yul\":19635:19639   */\n      0x12\n        /* \"#utility.yul\":19632:19633   */\n      0x04\n        /* \"#utility.yul\":19625:19640   */\n      mstore\n        /* \"#utility.yul\":19659:19663   */\n      0x24\n        /* \"#utility.yul\":19656:19657   */\n      0x00\n        /* \"#utility.yul\":19649:19664   */\n      revert\n        /* \"#utility.yul\":19676:19856   */\n    tag_415:\n        /* \"#utility.yul\":19724:19801   */\n      0x4e487b7100000000000000000000000000000000000000000000000000000000\n        /* \"#utility.yul\":19721:19722   */\n      0x00\n        /* \"#utility.yul\":19714:19802   */\n      mstore\n        /* \"#utility.yul\":19821:19825   */\n      0x22\n        /* \"#utility.yul\":19818:19819   */\n      0x04\n        /* \"#utility.yul\":19811:19826   */\n      mstore\n        /* \"#utility.yul\":19845:19849   */\n      0x24\n        /* \"#utility.yul\":19842:19843   */\n      0x00\n        /* \"#utility.yul\":19835:19850   */\n      revert\n        /* \"#utility.yul\":19862:20042   */\n    tag_371:\n        /* \"#utility.yul\":19910:19987   */\n      0x4e487b7100000000000000000000000000000000000000000000000000000000\n        /* \"#utility.yul\":19907:19908   */\n      0x00\n        /* \"#utility.yul\":19900:19988   */\n      mstore\n        /* \"#utility.yul\":20007:20011   */\n      0x41\n        /* \"#utility.yul\":20004:20005   */\n      0x04\n        /* \"#utility.yul\":19997:20012   */\n      mstore\n        /* \"#utility.yul\":20031:20035   */\n      0x24\n        /* \"#utility.yul\":20028:20029   */\n      0x00\n        /* \"#utility.yul\":20021:20036   */\n      revert\n        /* \"#utility.yul\":20048:20150   */\n    tag_285:\n      0x00\n        /* \"#utility.yul\":20140:20142   */\n      0x1f\n        /* \"#utility.yul\":20136:20143   */\n      not\n        /* \"#utility.yul\":20131:20133   */\n      0x1f\n        /* \"#utility.yul\":20124:20129   */\n      dup4\n        /* \"#utility.yul\":20120:20134   */\n      add\n        /* \"#utility.yul\":20116:20144   */\n      and\n        /* \"#utility.yul\":20106:20144   */\n      swap1\n      pop\n        /* \"#utility.yul\":20096:20150   */\n      swap2\n      swap1\n      pop\n      jump\t// out\n        /* \"#utility.yul\":20156:20278   */\n    tag_212:\n        /* \"#utility.yul\":20229:20253   */\n      tag_431\n        /* \"#utility.yul\":20247:20252   */\n      dup2\n        /* \"#utility.yul\":20229:20253   */\n      tag_271\n      jump\t// in\n    tag_431:\n        /* \"#utility.yul\":20222:20227   */\n      dup2\n        /* \"#utility.yul\":20219:20254   */\n      eq\n        /* \"#utility.yul\":20209:20211   */\n      tag_432\n      jumpi\n        /* \"#utility.yul\":20268:20269   */\n      0x00\n        /* \"#utility.yul\":20265:20266   */\n      dup1\n        /* \"#utility.yul\":20258:20270   */\n      revert\n        /* \"#utility.yul\":20209:20211   */\n    tag_432:\n        /* \"#utility.yul\":20199:20278   */\n      pop\n      jump\t// out\n        /* \"#utility.yul\":20284:20400   */\n    tag_216:\n        /* \"#utility.yul\":20354:20375   */\n      tag_434\n        /* \"#utility.yul\":20369:20374   */\n      dup2\n        /* \"#utility.yul\":20354:20375   */\n      tag_275\n      jump\t// in\n    tag_434:\n        /* \"#utility.yul\":20347:20352   */\n      dup2\n        /* \"#utility.yul\":20344:20376   */\n      eq\n        /* \"#utility.yul\":20334:20336   */\n      tag_435\n      jumpi\n        /* \"#utility.yul\":20390:20391   */\n      0x00\n        /* \"#utility.yul\":20387:20388   */\n      dup1\n        /* \"#utility.yul\":20380:20392   */\n      revert\n        /* \"#utility.yul\":20334:20336   */\n    tag_435:\n        /* \"#utility.yul\":20324:20400   */\n      pop\n      jump\t// out\n        /* \"#utility.yul\":20406:20526   */\n    tag_220:\n        /* \"#utility.yul\":20478:20501   */\n      tag_437\n        /* \"#utility.yul\":20495:20500   */\n      dup2\n        /* \"#utility.yul\":20478:20501   */\n      tag_401\n      jump\t// in\n    tag_437:\n        /* \"#utility.yul\":20471:20476   */\n      dup2\n        /* \"#utility.yul\":20468:20502   */\n      eq\n        /* \"#utility.yul\":20458:20460   */\n      tag_438\n      jumpi\n        /* \"#utility.yul\":20516:20517   */\n      0x00\n        /* \"#utility.yul\":20513:20514   */\n      dup1\n        /* \"#utility.yul\":20506:20518   */\n      revert\n        /* \"#utility.yul\":20458:20460   */\n    tag_438:\n        /* \"#utility.yul\":20448:20526   */\n      pop\n      jump\t// out\n        /* \"#utility.yul\":20532:20654   */\n    tag_231:\n        /* \"#utility.yul\":20605:20629   */\n      tag_440\n        /* \"#utility.yul\":20623:20628   */\n      dup2\n        /* \"#utility.yul\":20605:20629   */\n      tag_327\n      jump\t// in\n    tag_440:\n        /* \"#utility.yul\":20598:20603   */\n      dup2\n        /* \"#utility.yul\":20595:20630   */\n      eq\n        /* \"#utility.yul\":20585:20587   */\n      tag_441\n      jumpi\n        /* \"#utility.yul\":20644:20645   */\n      0x00\n        /* \"#utility.yul\":20641:20642   */\n      dup1\n        /* \"#utility.yul\":20634:20646   */\n      revert\n        /* \"#utility.yul\":20585:20587   */\n    tag_441:\n        /* \"#utility.yul\":20575:20654   */\n      pop\n      jump\t// out\n\n    auxdata: 0xa264697066735822122087309a284dcb73b70aac485a5bc5baa966dff675b9fce316d82def76acafb7c064736f6c63430008000033\n}\n",
				"bytecode": {
					"linkReferences": {},
					"object": "60806040523480156200001157600080fd5b506040516200228638038062002286833981810160405281019062000037919062000193565b81600090805190602001906200004f92919062000071565b5080600190805190602001906200006892919062000071565b50505062000337565b8280546200007f90620002a3565b90600052602060002090601f016020900481019282620000a35760008555620000ef565b82601f10620000be57805160ff1916838001178555620000ef565b82800160010185558215620000ef579182015b82811115620000ee578251825591602001919060010190620000d1565b5b509050620000fe919062000102565b5090565b5b808211156200011d57600081600090555060010162000103565b5090565b60006200013862000132846200023a565b62000206565b9050828152602081018484840111156200015157600080fd5b6200015e8482856200026d565b509392505050565b600082601f8301126200017857600080fd5b81516200018a84826020860162000121565b91505092915050565b60008060408385031215620001a757600080fd5b600083015167ffffffffffffffff811115620001c257600080fd5b620001d08582860162000166565b925050602083015167ffffffffffffffff811115620001ee57600080fd5b620001fc8582860162000166565b9150509250929050565b6000604051905081810181811067ffffffffffffffff8211171562000230576200022f62000308565b5b8060405250919050565b600067ffffffffffffffff82111562000258576200025762000308565b5b601f19601f8301169050602081019050919050565b60005b838110156200028d57808201518184015260208101905062000270565b838111156200029d576000848401525b50505050565b60006002820490506001821680620002bc57607f821691505b60208210811415620002d357620002d2620002d9565b5b50919050565b7f4e487b7100000000000000000000000000000000000000000000000000000000600052602260045260246000fd5b7f4e487b7100000000000000000000000000000000000000000000000000000000600052604160045260246000fd5b611f3f80620003476000396000f3fe608060405234801561001057600080fd5b50600436106100cf5760003560e01c80636352211e1161008c578063b88d4fde11610066578063b88d4fde14610224578063c5e51b9e14610240578063c87b56dd1461025c578063e985e9c51461028c576100cf565b80636352211e146101a657806370a08231146101d657806395d89b4114610206576100cf565b806301ffc9a7146100d457806306fdde0314610104578063081812fc14610122578063095ea7b31461015257806323b872dd1461016e57806342842e0e1461018a575b600080fd5b6100ee60048036038101906100e99190611583565b6102bc565b6040516100fb91906119c7565b60405180910390f35b61010c6103f6565b60405161011991906119e2565b60405180910390f35b61013c600480360381019061013791906115d5565b610484565b60405161014991906118f2565b60405180910390f35b61016c60048036038101906101679190611547565b610563565b005b61018860048036038101906101839190611441565b6106aa565b005b6101a4600480360381019061019f9190611441565b6106dd565b005b6101c060048036038101906101bb91906115d5565b61070c565b6040516101cd91906118f2565b60405180910390f35b6101f060048036038101906101eb91906113dc565b6107b9565b6040516101fd9190611b04565b60405180910390f35b61020e610871565b60405161021b91906119e2565b60405180910390f35b61023e60048036038101906102399190611490565b6108ff565b005b61025a6004803603810190610255919061150b565b61096a565b005b610276600480360381019061027191906115d5565b610a3d565b60405161028391906119e2565b60405180910390f35b6102a660048036038101906102a19190611405565b610b3f565b6040516102b391906119c7565b60405180910390f35b60007fe765f736000000000000000000000000000000000000000000000000000000007bffffffffffffffffffffffffffffffffffffffffffffffffffffffff1916827bffffffffffffffffffffffffffffffffffffffffffffffffffffffff1916148061038757507f01ffc9a7000000000000000000000000000000000000000000000000000000007bffffffffffffffffffffffffffffffffffffffffffffffffffffffff1916827bffffffffffffffffffffffffffffffffffffffffffffffffffffffff1916145b806103ef57507f5b5e139f000000000000000000000000000000000000000000000000000000007bffffffffffffffffffffffffffffffffffffffffffffffffffffffff1916827bffffffffffffffffffffffffffffffffffffffffffffffffffffffff1916145b9050919050565b6000805461040390611d34565b80601f016020809104026020016040519081016040528092919081815260200182805461042f90611d34565b801561047c5780601f106104515761010080835404028352916020019161047c565b820191906000526020600020905b81548152906001019060200180831161045f57829003601f168201915b505050505081565b60008073ffffffffffffffffffffffffffffffffffffffff166002600084815260200190815260200160002060009054906101000a900473ffffffffffffffffffffffffffffffffffffffff1673ffffffffffffffffffffffffffffffffffffffff161415610528576040517f08c379a000000000000000000000000000000000000000000000000000000000815260040161051f90611a64565b60405180910390fd5b6004600083815260200190815260200160002060009054906101000a900473ffffffffffffffffffffffffffffffffffffffff169050919050565b60006002600083815260200190815260200160002060009054906101000a900473ffffffffffffffffffffffffffffffffffffffff1690508073ffffffffffffffffffffffffffffffffffffffff163373ffffffffffffffffffffffffffffffffffffffff16148061065b5750600560008273ffffffffffffffffffffffffffffffffffffffff1673ffffffffffffffffffffffffffffffffffffffff16815260200190815260200160002060003373ffffffffffffffffffffffffffffffffffffffff1673ffffffffffffffffffffffffffffffffffffffff16815260200190815260200160002060009054906101000a900460ff165b61069a576040517f08c379a000000000000000000000000000000000000000000000000000000000815260040161069190611a04565b60405180910390fd5b6106a5818484610bd3565b505050565b60006106b58261070c565b90506106c2813384610c65565b6106cb57600080fd5b6106d781858585610d99565b50505050565b60006106e88261070c565b90506107068185858560405180602001604052806000815250610fc4565b50505050565b60006002600083815260200190815260200160002060009054906101000a900473ffffffffffffffffffffffffffffffffffffffff169050600073ffffffffffffffffffffffffffffffffffffffff168173ffffffffffffffffffffffffffffffffffffffff1614156107b4576040517f08c379a00000000000000000000000000000000000000000000000000000000081526004016107ab90611a64565b60405180910390fd5b919050565b60008073ffffffffffffffffffffffffffffffffffffffff168273ffffffffffffffffffffffffffffffffffffffff16141561082a576040517f08c379a000000000000000000000000000000000000000000000000000000000815260040161082190611a84565b60405180910390fd5b600360008373ffffffffffffffffffffffffffffffffffffffff1673ffffffffffffffffffffffffffffffffffffffff168152602001908152602001600020549050919050565b6001805461087e90611d34565b80601f01602080910402602001604051908101604052809291908181526020018280546108aa90611d34565b80156108f75780601f106108cc576101008083540402835291602001916108f7565b820191906000526020600020905b8154815290600101906020018083116108da57829003601f168201915b505050505081565b600061090a8361070c565b9050610917813385610c65565b610956576040517f08c379a000000000000000000000000000000000000000000000000000000000815260040161094d90611a44565b60405180910390fd5b6109638186868686610fc4565b5050505050565b80600560003373ffffffffffffffffffffffffffffffffffffffff1673ffffffffffffffffffffffffffffffffffffffff16815260200190815260200160002060008473ffffffffffffffffffffffffffffffffffffffff1673ffffffffffffffffffffffffffffffffffffffff16815260200190815260200160002060006101000a81548160ff0219169083151502179055507f6e58f42f8934de1bf5b284476ba8126ee2d334c7aacf1ac87c6d4ebdb6ffb683338383604051610a319392919061190d565b60405180910390a15050565b6060600073ffffffffffffffffffffffffffffffffffffffff166002600084815260200190815260200160002060009054906101000a900473ffffffffffffffffffffffffffffffffffffffff1673ffffffffffffffffffffffffffffffffffffffff161415610ae2576040517f08c379a0000000000000000000000000000000000000000000000000000000008152600401610ad990611aa4565b60405180910390fd5b6000610aec611022565b90506000815111610b0c5760405180602001604052806000815250610b37565b80610b1684611039565b604051602001610b279291906118ce565b6040516020818303038152906040525b915050919050565b6000600560008473ffffffffffffffffffffffffffffffffffffffff1673ffffffffffffffffffffffffffffffffffffffff16815260200190815260200160002060008373ffffffffffffffffffffffffffffffffffffffff1673ffffffffffffffffffffffffffffffffffffffff16815260200190815260200160002060009054906101000a900460ff16905092915050565b816004600083815260200190815260200160002060006101000a81548173ffffffffffffffffffffffffffffffffffffffff021916908373ffffffffffffffffffffffffffffffffffffffff1602179055507f6e11fb1b7f119e3f2fa29896ef5fdf8b8a2d0d4df6fe90ba8668e7d8b2ffa25e838383604051610c5893929190611944565b60405180910390a1505050565b60008373ffffffffffffffffffffffffffffffffffffffff168373ffffffffffffffffffffffffffffffffffffffff161480610cff57508273ffffffffffffffffffffffffffffffffffffffff166004600084815260200190815260200160002060009054906101000a900473ffffffffffffffffffffffffffffffffffffffff1673ffffffffffffffffffffffffffffffffffffffff16145b80610d905750600560008573ffffffffffffffffffffffffffffffffffffffff1673ffffffffffffffffffffffffffffffffffffffff16815260200190815260200160002060008473ffffffffffffffffffffffffffffffffffffffff1673ffffffffffffffffffffffffffffffffffffffff16815260200190815260200160002060009054906101000a900460ff165b90509392505050565b8373ffffffffffffffffffffffffffffffffffffffff168373ffffffffffffffffffffffffffffffffffffffff1614610e07576040517f08c379a0000000000000000000000000000000000000000000000000000000008152600401610dfe90611ae4565b60405180910390fd5b600073ffffffffffffffffffffffffffffffffffffffff168273ffffffffffffffffffffffffffffffffffffffff161415610e77576040517f08c379a0000000000000000000000000000000000000000000000000000000008152600401610e6e90611a24565b60405180910390fd5b610e8384600083610bd3565b6001600360008573ffffffffffffffffffffffffffffffffffffffff1673ffffffffffffffffffffffffffffffffffffffff1681526020019081526020016000206000828254610ed39190611c4a565b925050819055506001600360008473ffffffffffffffffffffffffffffffffffffffff1673ffffffffffffffffffffffffffffffffffffffff1681526020019081526020016000206000828254610f2a9190611bc3565b92505081905550816002600083815260200190815260200160002060006101000a81548173ffffffffffffffffffffffffffffffffffffffff021916908373ffffffffffffffffffffffffffffffffffffffff1602179055507fddf252ad1be2c89b69c2b068fc378daa952ba7f163c4a11628f55a4df523b3ef838383604051610fb693929190611944565b60405180910390a150505050565b610fd085858585610d99565b610fdc848484846111e6565b61101b576040517f08c379a000000000000000000000000000000000000000000000000000000000815260040161101290611ac4565b60405180910390fd5b5050505050565b606060405180602001604052806000815250905090565b60606000821415611081576040518060400160405280600181526020017f300000000000000000000000000000000000000000000000000000000000000081525090506111e1565b600082905060005b600082146110b357808061109c90611d66565b915050600a826110ac9190611c19565b9150611089565b60008167ffffffffffffffff8111156110f5577f4e487b7100000000000000000000000000000000000000000000000000000000600052604160045260246000fd5b6040519080825280601f01601f1916602001820160405280156111275781602001600182028036833780820191505090505b5090505b600085146111da576001826111409190611c4a565b9150600a8561114f9190611daf565b603061115b9190611bc3565b60f81b818381518110611197577f4e487b7100000000000000000000000000000000000000000000000000000000600052603260045260246000fd5b60200101907effffffffffffffffffffffffffffffffffffffffffffffffffffffffffffff1916908160001a905350600a856111d39190611c19565b945061112b565b8093505050505b919050565b60006112078473ffffffffffffffffffffffffffffffffffffffff166112f8565b156112eb5763150b7a0260e01b7bffffffffffffffffffffffffffffffffffffffffffffffffffffffff19168473ffffffffffffffffffffffffffffffffffffffff1663150b7a02338887876040518563ffffffff1660e01b8152600401611272949392919061197b565b602060405180830381600087803b15801561128c57600080fd5b505af11580156112a0573d6000803e3d6000fd5b505050506040513d601f19601f820116820180604052508101906112c491906115ac565b7bffffffffffffffffffffffffffffffffffffffffffffffffffffffff19161490506112f0565b600190505b949350505050565b600080823b905060008111915050919050565b600061131e61131984611b50565b611b1f565b90508281526020810184848401111561133657600080fd5b611341848285611cf2565b509392505050565b60008135905061135881611ead565b92915050565b60008135905061136d81611ec4565b92915050565b60008135905061138281611edb565b92915050565b60008151905061139781611edb565b92915050565b600082601f8301126113ae57600080fd5b81356113be84826020860161130b565b91505092915050565b6000813590506113d681611ef2565b92915050565b6000602082840312156113ee57600080fd5b60006113fc84828501611349565b91505092915050565b6000806040838503121561141857600080fd5b600061142685828601611349565b925050602061143785828601611349565b9150509250929050565b60008060006060848603121561145657600080fd5b600061146486828701611349565b935050602061147586828701611349565b9250506040611486868287016113c7565b9150509250925092565b600080600080608085870312156114a657600080fd5b60006114b487828801611349565b94505060206114c587828801611349565b93505060406114d6878288016113c7565b925050606085013567ffffffffffffffff8111156114f357600080fd5b6114ff8782880161139d565b91505092959194509250565b6000806040838503121561151e57600080fd5b600061152c85828601611349565b925050602061153d8582860161135e565b9150509250929050565b6000806040838503121561155a57600080fd5b600061156885828601611349565b9250506020611579858286016113c7565b9150509250929050565b60006020828403121561159557600080fd5b60006115a384828501611373565b91505092915050565b6000602082840312156115be57600080fd5b60006115cc84828501611388565b91505092915050565b6000602082840312156115e757600080fd5b60006115f5848285016113c7565b91505092915050565b61160781611c7e565b82525050565b61161681611c90565b82525050565b600061162782611b80565b6116318185611b96565b9350611641818560208601611d01565b61164a81611e9c565b840191505092915050565b600061166082611b8b565b61166a8185611ba7565b935061167a818560208601611d01565b61168381611e9c565b840191505092915050565b600061169982611b8b565b6116a38185611bb8565b93506116b3818560208601611d01565b80840191505092915050565b60006116cc601d83611ba7565b91507f6e6f74206f776e6572206f7220617070726f76656420666f7220616c6c0000006000830152602082019050919050565b600061170c600f83611ba7565b91507f746f2069732030206164647265737300000000000000000000000000000000006000830152602082019050919050565b600061174c601683611ba7565b91507f6e6f74206f776e6572206e6f7220617070726f766564000000000000000000006000830152602082019050919050565b600061178c601383611ba7565b91507f746f6b656e20646f65736e2774206578697374000000000000000000000000006000830152602082019050919050565b60006117cc601183611ba7565b91507f6f776e6572203d203020616464726573730000000000000000000000000000006000830152602082019050919050565b600061180c600f83611ba7565b91507f546f6b656e206e6f7420657869737400000000000000000000000000000000006000830152602082019050919050565b600061184c601283611ba7565b91507f6e6f7420455243373231526563656976657200000000000000000000000000006000830152602082019050919050565b600061188c600983611ba7565b91507f6e6f74206f776e657200000000000000000000000000000000000000000000006000830152602082019050919050565b6118c881611ce8565b82525050565b60006118da828561168e565b91506118e6828461168e565b91508190509392505050565b600060208201905061190760008301846115fe565b92915050565b600060608201905061192260008301866115fe565b61192f60208301856115fe565b61193c604083018461160d565b949350505050565b600060608201905061195960008301866115fe565b61196660208301856115fe565b61197360408301846118bf565b949350505050565b600060808201905061199060008301876115fe565b61199d60208301866115fe565b6119aa60408301856118bf565b81810360608301526119bc818461161c565b905095945050505050565b60006020820190506119dc600083018461160d565b92915050565b600060208201905081810360008301526119fc8184611655565b905092915050565b60006020820190508181036000830152611a1d816116bf565b9050919050565b60006020820190508181036000830152611a3d816116ff565b9050919050565b60006020820190508181036000830152611a5d8161173f565b9050919050565b60006020820190508181036000830152611a7d8161177f565b9050919050565b60006020820190508181036000830152611a9d816117bf565b9050919050565b60006020820190508181036000830152611abd816117ff565b9050919050565b60006020820190508181036000830152611add8161183f565b9050919050565b60006020820190508181036000830152611afd8161187f565b9050919050565b6000602082019050611b1960008301846118bf565b92915050565b6000604051905081810181811067ffffffffffffffff82111715611b4657611b45611e6d565b5b8060405250919050565b600067ffffffffffffffff821115611b6b57611b6a611e6d565b5b601f19601f8301169050602081019050919050565b600081519050919050565b600081519050919050565b600082825260208201905092915050565b600082825260208201905092915050565b600081905092915050565b6000611bce82611ce8565b9150611bd983611ce8565b9250827fffffffffffffffffffffffffffffffffffffffffffffffffffffffffffffffff03821115611c0e57611c0d611de0565b5b828201905092915050565b6000611c2482611ce8565b9150611c2f83611ce8565b925082611c3f57611c3e611e0f565b5b828204905092915050565b6000611c5582611ce8565b9150611c6083611ce8565b925082821015611c7357611c72611de0565b5b828203905092915050565b6000611c8982611cc8565b9050919050565b60008115159050919050565b60007fffffffff0000000000000000000000000000000000000000000000000000000082169050919050565b600073ffffffffffffffffffffffffffffffffffffffff82169050919050565b6000819050919050565b82818337600083830152505050565b60005b83811015611d1f578082015181840152602081019050611d04565b83811115611d2e576000848401525b50505050565b60006002820490506001821680611d4c57607f821691505b60208210811415611d6057611d5f611e3e565b5b50919050565b6000611d7182611ce8565b91507fffffffffffffffffffffffffffffffffffffffffffffffffffffffffffffffff821415611da457611da3611de0565b5b600182019050919050565b6000611dba82611ce8565b9150611dc583611ce8565b925082611dd557611dd4611e0f565b5b828206905092915050565b7f4e487b7100000000000000000000000000000000000000000000000000000000600052601160045260246000fd5b7f4e487b7100000000000000000000000000000000000000000000000000000000600052601260045260246000fd5b7f4e487b7100000000000000000000000000000000000000000000000000000000600052602260045260246000fd5b7f4e487b7100000000000000000000000000000000000000000000000000000000600052604160045260246000fd5b6000601f19601f8301169050919050565b611eb681611c7e565b8114611ec157600080fd5b50565b611ecd81611c90565b8114611ed857600080fd5b50565b611ee481611c9c565b8114611eef57600080fd5b50565b611efb81611ce8565b8114611f0657600080fd5b5056fea264697066735822122087309a284dcb73b70aac485a5bc5baa966dff675b9fce316d82def76acafb7c064736f6c63430008000033",
					"opcodes": "PUSH1 0x80 PUSH1 0x40 MSTORE CALLVALUE DUP1 ISZERO PUSH3 0x11 JUMPI PUSH1 0x0 DUP1 REVERT JUMPDEST POP PUSH1 0x40 MLOAD PUSH3 0x2286 CODESIZE SUB DUP1 PUSH3 0x2286 DUP4 CODECOPY DUP2 DUP2 ADD PUSH1 0x40 MSTORE DUP2 ADD SWAP1 PUSH3 0x37 SWAP2 SWAP1 PUSH3 0x193 JUMP JUMPDEST DUP2 PUSH1 0x0 SWAP1 DUP1 MLOAD SWAP1 PUSH1 0x20 ADD SWAP1 PUSH3 0x4F SWAP3 SWAP2 SWAP1 PUSH3 0x71 JUMP JUMPDEST POP DUP1 PUSH1 0x1 SWAP1 DUP1 MLOAD SWAP1 PUSH1 0x20 ADD SWAP1 PUSH3 0x68 SWAP3 SWAP2 SWAP1 PUSH3 0x71 JUMP JUMPDEST POP POP POP PUSH3 0x337 JUMP JUMPDEST DUP3 DUP1 SLOAD PUSH3 0x7F SWAP1 PUSH3 0x2A3 JUMP JUMPDEST SWAP1 PUSH1 0x0 MSTORE PUSH1 0x20 PUSH1 0x0 KECCAK256 SWAP1 PUSH1 0x1F ADD PUSH1 0x20 SWAP1 DIV DUP2 ADD SWAP3 DUP3 PUSH3 0xA3 JUMPI PUSH1 0x0 DUP6 SSTORE PUSH3 0xEF JUMP JUMPDEST DUP3 PUSH1 0x1F LT PUSH3 0xBE JUMPI DUP1 MLOAD PUSH1 0xFF NOT AND DUP4 DUP1 ADD OR DUP6 SSTORE PUSH3 0xEF JUMP JUMPDEST DUP3 DUP1 ADD PUSH1 0x1 ADD DUP6 SSTORE DUP3 ISZERO PUSH3 0xEF JUMPI SWAP2 DUP3 ADD JUMPDEST DUP3 DUP2 GT ISZERO PUSH3 0xEE JUMPI DUP3 MLOAD DUP3 SSTORE SWAP2 PUSH1 0x20 ADD SWAP2 SWAP1 PUSH1 0x1 ADD SWAP1 PUSH3 0xD1 JUMP JUMPDEST JUMPDEST POP SWAP1 POP PUSH3 0xFE SWAP2 SWAP1 PUSH3 0x102 JUMP JUMPDEST POP SWAP1 JUMP JUMPDEST JUMPDEST DUP1 DUP3 GT ISZERO PUSH3 0x11D JUMPI PUSH1 0x0 DUP2 PUSH1 0x0 SWAP1 SSTORE POP PUSH1 0x1 ADD PUSH3 0x103 JUMP JUMPDEST POP SWAP1 JUMP JUMPDEST PUSH1 0x0 PUSH3 0x138 PUSH3 0x132 DUP5 PUSH3 0x23A JUMP JUMPDEST PUSH3 0x206 JUMP JUMPDEST SWAP1 POP DUP3 DUP2 MSTORE PUSH1 0x20 DUP2 ADD DUP5 DUP5 DUP5 ADD GT ISZERO PUSH3 0x151 JUMPI PUSH1 0x0 DUP1 REVERT JUMPDEST PUSH3 0x15E DUP5 DUP3 DUP6 PUSH3 0x26D JUMP JUMPDEST POP SWAP4 SWAP3 POP POP POP JUMP JUMPDEST PUSH1 0x0 DUP3 PUSH1 0x1F DUP4 ADD SLT PUSH3 0x178 JUMPI PUSH1 0x0 DUP1 REVERT JUMPDEST DUP2 MLOAD PUSH3 0x18A DUP5 DUP3 PUSH1 0x20 DUP7 ADD PUSH3 0x121 JUMP JUMPDEST SWAP2 POP POP SWAP3 SWAP2 POP POP JUMP JUMPDEST PUSH1 0x0 DUP1 PUSH1 0x40 DUP4 DUP6 SUB SLT ISZERO PUSH3 0x1A7 JUMPI PUSH1 0x0 DUP1 REVERT JUMPDEST PUSH1 0x0 DUP4 ADD MLOAD PUSH8 0xFFFFFFFFFFFFFFFF DUP2 GT ISZERO PUSH3 0x1C2 JUMPI PUSH1 0x0 DUP1 REVERT JUMPDEST PUSH3 0x1D0 DUP6 DUP3 DUP7 ADD PUSH3 0x166 JUMP JUMPDEST SWAP3 POP POP PUSH1 0x20 DUP4 ADD MLOAD PUSH8 0xFFFFFFFFFFFFFFFF DUP2 GT ISZERO PUSH3 0x1EE JUMPI PUSH1 0x0 DUP1 REVERT JUMPDEST PUSH3 0x1FC DUP6 DUP3 DUP7 ADD PUSH3 0x166 JUMP JUMPDEST SWAP2 POP POP SWAP3 POP SWAP3 SWAP1 POP JUMP JUMPDEST PUSH1 0x0 PUSH1 0x40 MLOAD SWAP1 POP DUP2 DUP2 ADD DUP2 DUP2 LT PUSH8 0xFFFFFFFFFFFFFFFF DUP3 GT OR ISZERO PUSH3 0x230 JUMPI PUSH3 0x22F PUSH3 0x308 JUMP JUMPDEST JUMPDEST DUP1 PUSH1 0x40 MSTORE POP SWAP2 SWAP1 POP JUMP JUMPDEST PUSH1 0x0 PUSH8 0xFFFFFFFFFFFFFFFF DUP3 GT ISZERO PUSH3 0x258 JUMPI PUSH3 0x257 PUSH3 0x308 JUMP JUMPDEST JUMPDEST PUSH1 0x1F NOT PUSH1 0x1F DUP4 ADD AND SWAP1 POP PUSH1 0x20 DUP2 ADD SWAP1 POP SWAP2 SWAP1 POP JUMP JUMPDEST PUSH1 0x0 JUMPDEST DUP4 DUP2 LT ISZERO PUSH3 0x28D JUMPI DUP1 DUP3 ADD MLOAD DUP2 DUP5 ADD MSTORE PUSH1 0x20 DUP2 ADD SWAP1 POP PUSH3 0x270 JUMP JUMPDEST DUP4 DUP2 GT ISZERO PUSH3 0x29D JUMPI PUSH1 0x0 DUP5 DUP5 ADD MSTORE JUMPDEST POP POP POP POP JUMP JUMPDEST PUSH1 0x0 PUSH1 0x2 DUP3 DIV SWAP1 POP PUSH1 0x1 DUP3 AND DUP1 PUSH3 0x2BC JUMPI PUSH1 0x7F DUP3 AND SWAP2 POP JUMPDEST PUSH1 0x20 DUP3 LT DUP2 EQ ISZERO PUSH3 0x2D3 JUMPI PUSH3 0x2D2 PUSH3 0x2D9 JUMP JUMPDEST JUMPDEST POP SWAP2 SWAP1 POP JUMP JUMPDEST PUSH32 0x4E487B7100000000000000000000000000000000000000000000000000000000 PUSH1 0x0 MSTORE PUSH1 0x22 PUSH1 0x4 MSTORE PUSH1 0x24 PUSH1 0x0 REVERT JUMPDEST PUSH32 0x4E487B7100000000000000000000000000000000000000000000000000000000 PUSH1 0x0 MSTORE PUSH1 0x41 PUSH1 0x4 MSTORE PUSH1 0x24 PUSH1 0x0 REVERT JUMPDEST PUSH2 0x1F3F DUP1 PUSH3 0x347 PUSH1 0x0 CODECOPY PUSH1 0x0 RETURN INVALID PUSH1 0x80 PUSH1 0x40 MSTORE CALLVALUE DUP1 ISZERO PUSH2 0x10 JUMPI PUSH1 0x0 DUP1 REVERT JUMPDEST POP PUSH1 0x4 CALLDATASIZE LT PUSH2 0xCF JUMPI PUSH1 0x0 CALLDATALOAD PUSH1 0xE0 SHR DUP1 PUSH4 0x6352211E GT PUSH2 0x8C JUMPI DUP1 PUSH4 0xB88D4FDE GT PUSH2 0x66 JUMPI DUP1 PUSH4 0xB88D4FDE EQ PUSH2 0x224 JUMPI DUP1 PUSH4 0xC5E51B9E EQ PUSH2 0x240 JUMPI DUP1 PUSH4 0xC87B56DD EQ PUSH2 0x25C JUMPI DUP1 PUSH4 0xE985E9C5 EQ PUSH2 0x28C JUMPI PUSH2 0xCF JUMP JUMPDEST DUP1 PUSH4 0x6352211E EQ PUSH2 0x1A6 JUMPI DUP1 PUSH4 0x70A08231 EQ PUSH2 0x1D6 JUMPI DUP1 PUSH4 0x95D89B41 EQ PUSH2 0x206 JUMPI PUSH2 0xCF JUMP JUMPDEST DUP1 PUSH4 0x1FFC9A7 EQ PUSH2 0xD4 JUMPI DUP1 PUSH4 0x6FDDE03 EQ PUSH2 0x104 JUMPI DUP1 PUSH4 0x81812FC EQ PUSH2 0x122 JUMPI DUP1 PUSH4 0x95EA7B3 EQ PUSH2 0x152 JUMPI DUP1 PUSH4 0x23B872DD EQ PUSH2 0x16E JUMPI DUP1 PUSH4 0x42842E0E EQ PUSH2 0x18A JUMPI JUMPDEST PUSH1 0x0 DUP1 REVERT JUMPDEST PUSH2 0xEE PUSH1 0x4 DUP1 CALLDATASIZE SUB DUP2 ADD SWAP1 PUSH2 0xE9 SWAP2 SWAP1 PUSH2 0x1583 JUMP JUMPDEST PUSH2 0x2BC JUMP JUMPDEST PUSH1 0x40 MLOAD PUSH2 0xFB SWAP2 SWAP1 PUSH2 0x19C7 JUMP JUMPDEST PUSH1 0x40 MLOAD DUP1 SWAP2 SUB SWAP1 RETURN JUMPDEST PUSH2 0x10C PUSH2 0x3F6 JUMP JUMPDEST PUSH1 0x40 MLOAD PUSH2 0x119 SWAP2 SWAP1 PUSH2 0x19E2 JUMP JUMPDEST PUSH1 0x40 MLOAD DUP1 SWAP2 SUB SWAP1 RETURN JUMPDEST PUSH2 0x13C PUSH1 0x4 DUP1 CALLDATASIZE SUB DUP2 ADD SWAP1 PUSH2 0x137 SWAP2 SWAP1 PUSH2 0x15D5 JUMP JUMPDEST PUSH2 0x484 JUMP JUMPDEST PUSH1 0x40 MLOAD PUSH2 0x149 SWAP2 SWAP1 PUSH2 0x18F2 JUMP JUMPDEST PUSH1 0x40 MLOAD DUP1 SWAP2 SUB SWAP1 RETURN JUMPDEST PUSH2 0x16C PUSH1 0x4 DUP1 CALLDATASIZE SUB DUP2 ADD SWAP1 PUSH2 0x167 SWAP2 SWAP1 PUSH2 0x1547 JUMP JUMPDEST PUSH2 0x563 JUMP JUMPDEST STOP JUMPDEST PUSH2 0x188 PUSH1 0x4 DUP1 CALLDATASIZE SUB DUP2 ADD SWAP1 PUSH2 0x183 SWAP2 SWAP1 PUSH2 0x1441 JUMP JUMPDEST PUSH2 0x6AA JUMP JUMPDEST STOP JUMPDEST PUSH2 0x1A4 PUSH1 0x4 DUP1 CALLDATASIZE SUB DUP2 ADD SWAP1 PUSH2 0x19F SWAP2 SWAP1 PUSH2 0x1441 JUMP JUMPDEST PUSH2 0x6DD JUMP JUMPDEST STOP JUMPDEST PUSH2 0x1C0 PUSH1 0x4 DUP1 CALLDATASIZE SUB DUP2 ADD SWAP1 PUSH2 0x1BB SWAP2 SWAP1 PUSH2 0x15D5 JUMP JUMPDEST PUSH2 0x70C JUMP JUMPDEST PUSH1 0x40 MLOAD PUSH2 0x1CD SWAP2 SWAP1 PUSH2 0x18F2 JUMP JUMPDEST PUSH1 0x40 MLOAD DUP1 SWAP2 SUB SWAP1 RETURN JUMPDEST PUSH2 0x1F0 PUSH1 0x4 DUP1 CALLDATASIZE SUB DUP2 ADD SWAP1 PUSH2 0x1EB SWAP2 SWAP1 PUSH2 0x13DC JUMP JUMPDEST PUSH2 0x7B9 JUMP JUMPDEST PUSH1 0x40 MLOAD PUSH2 0x1FD SWAP2 SWAP1 PUSH2 0x1B04 JUMP JUMPDEST PUSH1 0x40 MLOAD DUP1 SWAP2 SUB SWAP1 RETURN JUMPDEST PUSH2 0x20E PUSH2 0x871 JUMP JUMPDEST PUSH1 0x40 MLOAD PUSH2 0x21B SWAP2 SWAP1 PUSH2 0x19E2 JUMP JUMPDEST PUSH1 0x40 MLOAD DUP1 SWAP2 SUB SWAP1 RETURN JUMPDEST PUSH2 0x23E PUSH1 0x4 DUP1 CALLDATASIZE SUB DUP2 ADD SWAP1 PUSH2 0x239 SWAP2 SWAP1 PUSH2 0x1490 JUMP JUMPDEST PUSH2 0x8FF JUMP JUMPDEST STOP JUMPDEST PUSH2 0x25A PUSH1 0x4 DUP1 CALLDATASIZE SUB DUP2 ADD SWAP1 PUSH2 0x255 SWAP2 SWAP1 PUSH2 0x150B JUMP JUMPDEST PUSH2 0x96A JUMP JUMPDEST STOP JUMPDEST PUSH2 0x276 PUSH1 0x4 DUP1 CALLDATASIZE SUB DUP2 ADD SWAP1 PUSH2 0x271 SWAP2 SWAP1 PUSH2 0x15D5 JUMP JUMPDEST PUSH2 0xA3D JUMP JUMPDEST PUSH1 0x40 MLOAD PUSH2 0x283 SWAP2 SWAP1 PUSH2 0x19E2 JUMP JUMPDEST PUSH1 0x40 MLOAD DUP1 SWAP2 SUB SWAP1 RETURN JUMPDEST PUSH2 0x2A6 PUSH1 0x4 DUP1 CALLDATASIZE SUB DUP2 ADD SWAP1 PUSH2 0x2A1 SWAP2 SWAP1 PUSH2 0x1405 JUMP JUMPDEST PUSH2 0xB3F JUMP JUMPDEST PUSH1 0x40 MLOAD PUSH2 0x2B3 SWAP2 SWAP1 PUSH2 0x19C7 JUMP JUMPDEST PUSH1 0x40 MLOAD DUP1 SWAP2 SUB SWAP1 RETURN JUMPDEST PUSH1 0x0 PUSH32 0xE765F73600000000000000000000000000000000000000000000000000000000 PUSH28 0xFFFFFFFFFFFFFFFFFFFFFFFFFFFFFFFFFFFFFFFFFFFFFFFFFFFFFFFF NOT AND DUP3 PUSH28 0xFFFFFFFFFFFFFFFFFFFFFFFFFFFFFFFFFFFFFFFFFFFFFFFFFFFFFFFF NOT AND EQ DUP1 PUSH2 0x387 JUMPI POP PUSH32 0x1FFC9A700000000000000000000000000000000000000000000000000000000 PUSH28 0xFFFFFFFFFFFFFFFFFFFFFFFFFFFFFFFFFFFFFFFFFFFFFFFFFFFFFFFF NOT AND DUP3 PUSH28 0xFFFFFFFFFFFFFFFFFFFFFFFFFFFFFFFFFFFFFFFFFFFFFFFFFFFFFFFF NOT AND EQ JUMPDEST DUP1 PUSH2 0x3EF JUMPI POP PUSH32 0x5B5E139F00000000000000000000000000000000000000000000000000000000 PUSH28 0xFFFFFFFFFFFFFFFFFFFFFFFFFFFFFFFFFFFFFFFFFFFFFFFFFFFFFFFF NOT AND DUP3 PUSH28 0xFFFFFFFFFFFFFFFFFFFFFFFFFFFFFFFFFFFFFFFFFFFFFFFFFFFFFFFF NOT AND EQ JUMPDEST SWAP1 POP SWAP2 SWAP1 POP JUMP JUMPDEST PUSH1 0x0 DUP1 SLOAD PUSH2 0x403 SWAP1 PUSH2 0x1D34 JUMP JUMPDEST DUP1 PUSH1 0x1F ADD PUSH1 0x20 DUP1 SWAP2 DIV MUL PUSH1 0x20 ADD PUSH1 0x40 MLOAD SWAP1 DUP2 ADD PUSH1 0x40 MSTORE DUP1 SWAP3 SWAP2 SWAP1 DUP2 DUP2 MSTORE PUSH1 0x20 ADD DUP3 DUP1 SLOAD PUSH2 0x42F SWAP1 PUSH2 0x1D34 JUMP JUMPDEST DUP1 ISZERO PUSH2 0x47C JUMPI DUP1 PUSH1 0x1F LT PUSH2 0x451 JUMPI PUSH2 0x100 DUP1 DUP4 SLOAD DIV MUL DUP4 MSTORE SWAP2 PUSH1 0x20 ADD SWAP2 PUSH2 0x47C JUMP JUMPDEST DUP3 ADD SWAP2 SWAP1 PUSH1 0x0 MSTORE PUSH1 0x20 PUSH1 0x0 KECCAK256 SWAP1 JUMPDEST DUP2 SLOAD DUP2 MSTORE SWAP1 PUSH1 0x1 ADD SWAP1 PUSH1 0x20 ADD DUP1 DUP4 GT PUSH2 0x45F JUMPI DUP3 SWAP1 SUB PUSH1 0x1F AND DUP3 ADD SWAP2 JUMPDEST POP POP POP POP POP DUP2 JUMP JUMPDEST PUSH1 0x0 DUP1 PUSH20 0xFFFFFFFFFFFFFFFFFFFFFFFFFFFFFFFFFFFFFFFF AND PUSH1 0x2 PUSH1 0x0 DUP5 DUP2 MSTORE PUSH1 0x20 ADD SWAP1 DUP2 MSTORE PUSH1 0x20 ADD PUSH1 0x0 KECCAK256 PUSH1 0x0 SWAP1 SLOAD SWAP1 PUSH2 0x100 EXP SWAP1 DIV PUSH20 0xFFFFFFFFFFFFFFFFFFFFFFFFFFFFFFFFFFFFFFFF AND PUSH20 0xFFFFFFFFFFFFFFFFFFFFFFFFFFFFFFFFFFFFFFFF AND EQ ISZERO PUSH2 0x528 JUMPI PUSH1 0x40 MLOAD PUSH32 0x8C379A000000000000000000000000000000000000000000000000000000000 DUP2 MSTORE PUSH1 0x4 ADD PUSH2 0x51F SWAP1 PUSH2 0x1A64 JUMP JUMPDEST PUSH1 0x40 MLOAD DUP1 SWAP2 SUB SWAP1 REVERT JUMPDEST PUSH1 0x4 PUSH1 0x0 DUP4 DUP2 MSTORE PUSH1 0x20 ADD SWAP1 DUP2 MSTORE PUSH1 0x20 ADD PUSH1 0x0 KECCAK256 PUSH1 0x0 SWAP1 SLOAD SWAP1 PUSH2 0x100 EXP SWAP1 DIV PUSH20 0xFFFFFFFFFFFFFFFFFFFFFFFFFFFFFFFFFFFFFFFF AND SWAP1 POP SWAP2 SWAP1 POP JUMP JUMPDEST PUSH1 0x0 PUSH1 0x2 PUSH1 0x0 DUP4 DUP2 MSTORE PUSH1 0x20 ADD SWAP1 DUP2 MSTORE PUSH1 0x20 ADD PUSH1 0x0 KECCAK256 PUSH1 0x0 SWAP1 SLOAD SWAP1 PUSH2 0x100 EXP SWAP1 DIV PUSH20 0xFFFFFFFFFFFFFFFFFFFFFFFFFFFFFFFFFFFFFFFF AND SWAP1 POP DUP1 PUSH20 0xFFFFFFFFFFFFFFFFFFFFFFFFFFFFFFFFFFFFFFFF AND CALLER PUSH20 0xFFFFFFFFFFFFFFFFFFFFFFFFFFFFFFFFFFFFFFFF AND EQ DUP1 PUSH2 0x65B JUMPI POP PUSH1 0x5 PUSH1 0x0 DUP3 PUSH20 0xFFFFFFFFFFFFFFFFFFFFFFFFFFFFFFFFFFFFFFFF AND PUSH20 0xFFFFFFFFFFFFFFFFFFFFFFFFFFFFFFFFFFFFFFFF AND DUP2 MSTORE PUSH1 0x20 ADD SWAP1 DUP2 MSTORE PUSH1 0x20 ADD PUSH1 0x0 KECCAK256 PUSH1 0x0 CALLER PUSH20 0xFFFFFFFFFFFFFFFFFFFFFFFFFFFFFFFFFFFFFFFF AND PUSH20 0xFFFFFFFFFFFFFFFFFFFFFFFFFFFFFFFFFFFFFFFF AND DUP2 MSTORE PUSH1 0x20 ADD SWAP1 DUP2 MSTORE PUSH1 0x20 ADD PUSH1 0x0 KECCAK256 PUSH1 0x0 SWAP1 SLOAD SWAP1 PUSH2 0x100 EXP SWAP1 DIV PUSH1 0xFF AND JUMPDEST PUSH2 0x69A JUMPI PUSH1 0x40 MLOAD PUSH32 0x8C379A000000000000000000000000000000000000000000000000000000000 DUP2 MSTORE PUSH1 0x4 ADD PUSH2 0x691 SWAP1 PUSH2 0x1A04 JUMP JUMPDEST PUSH1 0x40 MLOAD DUP1 SWAP2 SUB SWAP1 REVERT JUMPDEST PUSH2 0x6A5 DUP2 DUP5 DUP5 PUSH2 0xBD3 JUMP JUMPDEST POP POP POP JUMP JUMPDEST PUSH1 0x0 PUSH2 0x6B5 DUP3 PUSH2 0x70C JUMP JUMPDEST SWAP1 POP PUSH2 0x6C2 DUP2 CALLER DUP5 PUSH2 0xC65 JUMP JUMPDEST PUSH2 0x6CB JUMPI PUSH1 0x0 DUP1 REVERT JUMPDEST PUSH2 0x6D7 DUP2 DUP6 DUP6 DUP6 PUSH2 0xD99 JUMP JUMPDEST POP POP POP POP JUMP JUMPDEST PUSH1 0x0 PUSH2 0x6E8 DUP3 PUSH2 0x70C JUMP JUMPDEST SWAP1 POP PUSH2 0x706 DUP2 DUP6 DUP6 DUP6 PUSH1 0x40 MLOAD DUP1 PUSH1 0x20 ADD PUSH1 0x40 MSTORE DUP1 PUSH1 0x0 DUP2 MSTORE POP PUSH2 0xFC4 JUMP JUMPDEST POP POP POP POP JUMP JUMPDEST PUSH1 0x0 PUSH1 0x2 PUSH1 0x0 DUP4 DUP2 MSTORE PUSH1 0x20 ADD SWAP1 DUP2 MSTORE PUSH1 0x20 ADD PUSH1 0x0 KECCAK256 PUSH1 0x0 SWAP1 SLOAD SWAP1 PUSH2 0x100 EXP SWAP1 DIV PUSH20 0xFFFFFFFFFFFFFFFFFFFFFFFFFFFFFFFFFFFFFFFF AND SWAP1 POP PUSH1 0x0 PUSH20 0xFFFFFFFFFFFFFFFFFFFFFFFFFFFFFFFFFFFFFFFF AND DUP2 PUSH20 0xFFFFFFFFFFFFFFFFFFFFFFFFFFFFFFFFFFFFFFFF AND EQ ISZERO PUSH2 0x7B4 JUMPI PUSH1 0x40 MLOAD PUSH32 0x8C379A000000000000000000000000000000000000000000000000000000000 DUP2 MSTORE PUSH1 0x4 ADD PUSH2 0x7AB SWAP1 PUSH2 0x1A64 JUMP JUMPDEST PUSH1 0x40 MLOAD DUP1 SWAP2 SUB SWAP1 REVERT JUMPDEST SWAP2 SWAP1 POP JUMP JUMPDEST PUSH1 0x0 DUP1 PUSH20 0xFFFFFFFFFFFFFFFFFFFFFFFFFFFFFFFFFFFFFFFF AND DUP3 PUSH20 0xFFFFFFFFFFFFFFFFFFFFFFFFFFFFFFFFFFFFFFFF AND EQ ISZERO PUSH2 0x82A JUMPI PUSH1 0x40 MLOAD PUSH32 0x8C379A000000000000000000000000000000000000000000000000000000000 DUP2 MSTORE PUSH1 0x4 ADD PUSH2 0x821 SWAP1 PUSH2 0x1A84 JUMP JUMPDEST PUSH1 0x40 MLOAD DUP1 SWAP2 SUB SWAP1 REVERT JUMPDEST PUSH1 0x3 PUSH1 0x0 DUP4 PUSH20 0xFFFFFFFFFFFFFFFFFFFFFFFFFFFFFFFFFFFFFFFF AND PUSH20 0xFFFFFFFFFFFFFFFFFFFFFFFFFFFFFFFFFFFFFFFF AND DUP2 MSTORE PUSH1 0x20 ADD SWAP1 DUP2 MSTORE PUSH1 0x20 ADD PUSH1 0x0 KECCAK256 SLOAD SWAP1 POP SWAP2 SWAP1 POP JUMP JUMPDEST PUSH1 0x1 DUP1 SLOAD PUSH2 0x87E SWAP1 PUSH2 0x1D34 JUMP JUMPDEST DUP1 PUSH1 0x1F ADD PUSH1 0x20 DUP1 SWAP2 DIV MUL PUSH1 0x20 ADD PUSH1 0x40 MLOAD SWAP1 DUP2 ADD PUSH1 0x40 MSTORE DUP1 SWAP3 SWAP2 SWAP1 DUP2 DUP2 MSTORE PUSH1 0x20 ADD DUP3 DUP1 SLOAD PUSH2 0x8AA SWAP1 PUSH2 0x1D34 JUMP JUMPDEST DUP1 ISZERO PUSH2 0x8F7 JUMPI DUP1 PUSH1 0x1F LT PUSH2 0x8CC JUMPI PUSH2 0x100 DUP1 DUP4 SLOAD DIV MUL DUP4 MSTORE SWAP2 PUSH1 0x20 ADD SWAP2 PUSH2 0x8F7 JUMP JUMPDEST DUP3 ADD SWAP2 SWAP1 PUSH1 0x0 MSTORE PUSH1 0x20 PUSH1 0x0 KECCAK256 SWAP1 JUMPDEST DUP2 SLOAD DUP2 MSTORE SWAP1 PUSH1 0x1 ADD SWAP1 PUSH1 0x20 ADD DUP1 DUP4 GT PUSH2 0x8DA JUMPI DUP3 SWAP1 SUB PUSH1 0x1F AND DUP3 ADD SWAP2 JUMPDEST POP POP POP POP POP DUP2 JUMP JUMPDEST PUSH1 0x0 PUSH2 0x90A DUP4 PUSH2 0x70C JUMP JUMPDEST SWAP1 POP PUSH2 0x917 DUP2 CALLER DUP6 PUSH2 0xC65 JUMP JUMPDEST PUSH2 0x956 JUMPI PUSH1 0x40 MLOAD PUSH32 0x8C379A000000000000000000000000000000000000000000000000000000000 DUP2 MSTORE PUSH1 0x4 ADD PUSH2 0x94D SWAP1 PUSH2 0x1A44 JUMP JUMPDEST PUSH1 0x40 MLOAD DUP1 SWAP2 SUB SWAP1 REVERT JUMPDEST PUSH2 0x963 DUP2 DUP7 DUP7 DUP7 DUP7 PUSH2 0xFC4 JUMP JUMPDEST POP POP POP POP POP JUMP JUMPDEST DUP1 PUSH1 0x5 PUSH1 0x0 CALLER PUSH20 0xFFFFFFFFFFFFFFFFFFFFFFFFFFFFFFFFFFFFFFFF AND PUSH20 0xFFFFFFFFFFFFFFFFFFFFFFFFFFFFFFFFFFFFFFFF AND DUP2 MSTORE PUSH1 0x20 ADD SWAP1 DUP2 MSTORE PUSH1 0x20 ADD PUSH1 0x0 KECCAK256 PUSH1 0x0 DUP5 PUSH20 0xFFFFFFFFFFFFFFFFFFFFFFFFFFFFFFFFFFFFFFFF AND PUSH20 0xFFFFFFFFFFFFFFFFFFFFFFFFFFFFFFFFFFFFFFFF AND DUP2 MSTORE PUSH1 0x20 ADD SWAP1 DUP2 MSTORE PUSH1 0x20 ADD PUSH1 0x0 KECCAK256 PUSH1 0x0 PUSH2 0x100 EXP DUP2 SLOAD DUP2 PUSH1 0xFF MUL NOT AND SWAP1 DUP4 ISZERO ISZERO MUL OR SWAP1 SSTORE POP PUSH32 0x6E58F42F8934DE1BF5B284476BA8126EE2D334C7AACF1AC87C6D4EBDB6FFB683 CALLER DUP4 DUP4 PUSH1 0x40 MLOAD PUSH2 0xA31 SWAP4 SWAP3 SWAP2 SWAP1 PUSH2 0x190D JUMP JUMPDEST PUSH1 0x40 MLOAD DUP1 SWAP2 SUB SWAP1 LOG1 POP POP JUMP JUMPDEST PUSH1 0x60 PUSH1 0x0 PUSH20 0xFFFFFFFFFFFFFFFFFFFFFFFFFFFFFFFFFFFFFFFF AND PUSH1 0x2 PUSH1 0x0 DUP5 DUP2 MSTORE PUSH1 0x20 ADD SWAP1 DUP2 MSTORE PUSH1 0x20 ADD PUSH1 0x0 KECCAK256 PUSH1 0x0 SWAP1 SLOAD SWAP1 PUSH2 0x100 EXP SWAP1 DIV PUSH20 0xFFFFFFFFFFFFFFFFFFFFFFFFFFFFFFFFFFFFFFFF AND PUSH20 0xFFFFFFFFFFFFFFFFFFFFFFFFFFFFFFFFFFFFFFFF AND EQ ISZERO PUSH2 0xAE2 JUMPI PUSH1 0x40 MLOAD PUSH32 0x8C379A000000000000000000000000000000000000000000000000000000000 DUP2 MSTORE PUSH1 0x4 ADD PUSH2 0xAD9 SWAP1 PUSH2 0x1AA4 JUMP JUMPDEST PUSH1 0x40 MLOAD DUP1 SWAP2 SUB SWAP1 REVERT JUMPDEST PUSH1 0x0 PUSH2 0xAEC PUSH2 0x1022 JUMP JUMPDEST SWAP1 POP PUSH1 0x0 DUP2 MLOAD GT PUSH2 0xB0C JUMPI PUSH1 0x40 MLOAD DUP1 PUSH1 0x20 ADD PUSH1 0x40 MSTORE DUP1 PUSH1 0x0 DUP2 MSTORE POP PUSH2 0xB37 JUMP JUMPDEST DUP1 PUSH2 0xB16 DUP5 PUSH2 0x1039 JUMP JUMPDEST PUSH1 0x40 MLOAD PUSH1 0x20 ADD PUSH2 0xB27 SWAP3 SWAP2 SWAP1 PUSH2 0x18CE JUMP JUMPDEST PUSH1 0x40 MLOAD PUSH1 0x20 DUP2 DUP4 SUB SUB DUP2 MSTORE SWAP1 PUSH1 0x40 MSTORE JUMPDEST SWAP2 POP POP SWAP2 SWAP1 POP JUMP JUMPDEST PUSH1 0x0 PUSH1 0x5 PUSH1 0x0 DUP5 PUSH20 0xFFFFFFFFFFFFFFFFFFFFFFFFFFFFFFFFFFFFFFFF AND PUSH20 0xFFFFFFFFFFFFFFFFFFFFFFFFFFFFFFFFFFFFFFFF AND DUP2 MSTORE PUSH1 0x20 ADD SWAP1 DUP2 MSTORE PUSH1 0x20 ADD PUSH1 0x0 KECCAK256 PUSH1 0x0 DUP4 PUSH20 0xFFFFFFFFFFFFFFFFFFFFFFFFFFFFFFFFFFFFFFFF AND PUSH20 0xFFFFFFFFFFFFFFFFFFFFFFFFFFFFFFFFFFFFFFFF AND DUP2 MSTORE PUSH1 0x20 ADD SWAP1 DUP2 MSTORE PUSH1 0x20 ADD PUSH1 0x0 KECCAK256 PUSH1 0x0 SWAP1 SLOAD SWAP1 PUSH2 0x100 EXP SWAP1 DIV PUSH1 0xFF AND SWAP1 POP SWAP3 SWAP2 POP POP JUMP JUMPDEST DUP2 PUSH1 0x4 PUSH1 0x0 DUP4 DUP2 MSTORE PUSH1 0x20 ADD SWAP1 DUP2 MSTORE PUSH1 0x20 ADD PUSH1 0x0 KECCAK256 PUSH1 0x0 PUSH2 0x100 EXP DUP2 SLOAD DUP2 PUSH20 0xFFFFFFFFFFFFFFFFFFFFFFFFFFFFFFFFFFFFFFFF MUL NOT AND SWAP1 DUP4 PUSH20 0xFFFFFFFFFFFFFFFFFFFFFFFFFFFFFFFFFFFFFFFF AND MUL OR SWAP1 SSTORE POP PUSH32 0x6E11FB1B7F119E3F2FA29896EF5FDF8B8A2D0D4DF6FE90BA8668E7D8B2FFA25E DUP4 DUP4 DUP4 PUSH1 0x40 MLOAD PUSH2 0xC58 SWAP4 SWAP3 SWAP2 SWAP1 PUSH2 0x1944 JUMP JUMPDEST PUSH1 0x40 MLOAD DUP1 SWAP2 SUB SWAP1 LOG1 POP POP POP JUMP JUMPDEST PUSH1 0x0 DUP4 PUSH20 0xFFFFFFFFFFFFFFFFFFFFFFFFFFFFFFFFFFFFFFFF AND DUP4 PUSH20 0xFFFFFFFFFFFFFFFFFFFFFFFFFFFFFFFFFFFFFFFF AND EQ DUP1 PUSH2 0xCFF JUMPI POP DUP3 PUSH20 0xFFFFFFFFFFFFFFFFFFFFFFFFFFFFFFFFFFFFFFFF AND PUSH1 0x4 PUSH1 0x0 DUP5 DUP2 MSTORE PUSH1 0x20 ADD SWAP1 DUP2 MSTORE PUSH1 0x20 ADD PUSH1 0x0 KECCAK256 PUSH1 0x0 SWAP1 SLOAD SWAP1 PUSH2 0x100 EXP SWAP1 DIV PUSH20 0xFFFFFFFFFFFFFFFFFFFFFFFFFFFFFFFFFFFFFFFF AND PUSH20 0xFFFFFFFFFFFFFFFFFFFFFFFFFFFFFFFFFFFFFFFF AND EQ JUMPDEST DUP1 PUSH2 0xD90 JUMPI POP PUSH1 0x5 PUSH1 0x0 DUP6 PUSH20 0xFFFFFFFFFFFFFFFFFFFFFFFFFFFFFFFFFFFFFFFF AND PUSH20 0xFFFFFFFFFFFFFFFFFFFFFFFFFFFFFFFFFFFFFFFF AND DUP2 MSTORE PUSH1 0x20 ADD SWAP1 DUP2 MSTORE PUSH1 0x20 ADD PUSH1 0x0 KECCAK256 PUSH1 0x0 DUP5 PUSH20 0xFFFFFFFFFFFFFFFFFFFFFFFFFFFFFFFFFFFFFFFF AND PUSH20 0xFFFFFFFFFFFFFFFFFFFFFFFFFFFFFFFFFFFFFFFF AND DUP2 MSTORE PUSH1 0x20 ADD SWAP1 DUP2 MSTORE PUSH1 0x20 ADD PUSH1 0x0 KECCAK256 PUSH1 0x0 SWAP1 SLOAD SWAP1 PUSH2 0x100 EXP SWAP1 DIV PUSH1 0xFF AND JUMPDEST SWAP1 POP SWAP4 SWAP3 POP POP POP JUMP JUMPDEST DUP4 PUSH20 0xFFFFFFFFFFFFFFFFFFFFFFFFFFFFFFFFFFFFFFFF AND DUP4 PUSH20 0xFFFFFFFFFFFFFFFFFFFFFFFFFFFFFFFFFFFFFFFF AND EQ PUSH2 0xE07 JUMPI PUSH1 0x40 MLOAD PUSH32 0x8C379A000000000000000000000000000000000000000000000000000000000 DUP2 MSTORE PUSH1 0x4 ADD PUSH2 0xDFE SWAP1 PUSH2 0x1AE4 JUMP JUMPDEST PUSH1 0x40 MLOAD DUP1 SWAP2 SUB SWAP1 REVERT JUMPDEST PUSH1 0x0 PUSH20 0xFFFFFFFFFFFFFFFFFFFFFFFFFFFFFFFFFFFFFFFF AND DUP3 PUSH20 0xFFFFFFFFFFFFFFFFFFFFFFFFFFFFFFFFFFFFFFFF AND EQ ISZERO PUSH2 0xE77 JUMPI PUSH1 0x40 MLOAD PUSH32 0x8C379A000000000000000000000000000000000000000000000000000000000 DUP2 MSTORE PUSH1 0x4 ADD PUSH2 0xE6E SWAP1 PUSH2 0x1A24 JUMP JUMPDEST PUSH1 0x40 MLOAD DUP1 SWAP2 SUB SWAP1 REVERT JUMPDEST PUSH2 0xE83 DUP5 PUSH1 0x0 DUP4 PUSH2 0xBD3 JUMP JUMPDEST PUSH1 0x1 PUSH1 0x3 PUSH1 0x0 DUP6 PUSH20 0xFFFFFFFFFFFFFFFFFFFFFFFFFFFFFFFFFFFFFFFF AND PUSH20 0xFFFFFFFFFFFFFFFFFFFFFFFFFFFFFFFFFFFFFFFF AND DUP2 MSTORE PUSH1 0x20 ADD SWAP1 DUP2 MSTORE PUSH1 0x20 ADD PUSH1 0x0 KECCAK256 PUSH1 0x0 DUP3 DUP3 SLOAD PUSH2 0xED3 SWAP2 SWAP1 PUSH2 0x1C4A JUMP JUMPDEST SWAP3 POP POP DUP2 SWAP1 SSTORE POP PUSH1 0x1 PUSH1 0x3 PUSH1 0x0 DUP5 PUSH20 0xFFFFFFFFFFFFFFFFFFFFFFFFFFFFFFFFFFFFFFFF AND PUSH20 0xFFFFFFFFFFFFFFFFFFFFFFFFFFFFFFFFFFFFFFFF AND DUP2 MSTORE PUSH1 0x20 ADD SWAP1 DUP2 MSTORE PUSH1 0x20 ADD PUSH1 0x0 KECCAK256 PUSH1 0x0 DUP3 DUP3 SLOAD PUSH2 0xF2A SWAP2 SWAP1 PUSH2 0x1BC3 JUMP JUMPDEST SWAP3 POP POP DUP2 SWAP1 SSTORE POP DUP2 PUSH1 0x2 PUSH1 0x0 DUP4 DUP2 MSTORE PUSH1 0x20 ADD SWAP1 DUP2 MSTORE PUSH1 0x20 ADD PUSH1 0x0 KECCAK256 PUSH1 0x0 PUSH2 0x100 EXP DUP2 SLOAD DUP2 PUSH20 0xFFFFFFFFFFFFFFFFFFFFFFFFFFFFFFFFFFFFFFFF MUL NOT AND SWAP1 DUP4 PUSH20 0xFFFFFFFFFFFFFFFFFFFFFFFFFFFFFFFFFFFFFFFF AND MUL OR SWAP1 SSTORE POP PUSH32 0xDDF252AD1BE2C89B69C2B068FC378DAA952BA7F163C4A11628F55A4DF523B3EF DUP4 DUP4 DUP4 PUSH1 0x40 MLOAD PUSH2 0xFB6 SWAP4 SWAP3 SWAP2 SWAP1 PUSH2 0x1944 JUMP JUMPDEST PUSH1 0x40 MLOAD DUP1 SWAP2 SUB SWAP1 LOG1 POP POP POP POP JUMP JUMPDEST PUSH2 0xFD0 DUP6 DUP6 DUP6 DUP6 PUSH2 0xD99 JUMP JUMPDEST PUSH2 0xFDC DUP5 DUP5 DUP5 DUP5 PUSH2 0x11E6 JUMP JUMPDEST PUSH2 0x101B JUMPI PUSH1 0x40 MLOAD PUSH32 0x8C379A000000000000000000000000000000000000000000000000000000000 DUP2 MSTORE PUSH1 0x4 ADD PUSH2 0x1012 SWAP1 PUSH2 0x1AC4 JUMP JUMPDEST PUSH1 0x40 MLOAD DUP1 SWAP2 SUB SWAP1 REVERT JUMPDEST POP POP POP POP POP JUMP JUMPDEST PUSH1 0x60 PUSH1 0x40 MLOAD DUP1 PUSH1 0x20 ADD PUSH1 0x40 MSTORE DUP1 PUSH1 0x0 DUP2 MSTORE POP SWAP1 POP SWAP1 JUMP JUMPDEST PUSH1 0x60 PUSH1 0x0 DUP3 EQ ISZERO PUSH2 0x1081 JUMPI PUSH1 0x40 MLOAD DUP1 PUSH1 0x40 ADD PUSH1 0x40 MSTORE DUP1 PUSH1 0x1 DUP2 MSTORE PUSH1 0x20 ADD PUSH32 0x3000000000000000000000000000000000000000000000000000000000000000 DUP2 MSTORE POP SWAP1 POP PUSH2 0x11E1 JUMP JUMPDEST PUSH1 0x0 DUP3 SWAP1 POP PUSH1 0x0 JUMPDEST PUSH1 0x0 DUP3 EQ PUSH2 0x10B3 JUMPI DUP1 DUP1 PUSH2 0x109C SWAP1 PUSH2 0x1D66 JUMP JUMPDEST SWAP2 POP POP PUSH1 0xA DUP3 PUSH2 0x10AC SWAP2 SWAP1 PUSH2 0x1C19 JUMP JUMPDEST SWAP2 POP PUSH2 0x1089 JUMP JUMPDEST PUSH1 0x0 DUP2 PUSH8 0xFFFFFFFFFFFFFFFF DUP2 GT ISZERO PUSH2 0x10F5 JUMPI PUSH32 0x4E487B7100000000000000000000000000000000000000000000000000000000 PUSH1 0x0 MSTORE PUSH1 0x41 PUSH1 0x4 MSTORE PUSH1 0x24 PUSH1 0x0 REVERT JUMPDEST PUSH1 0x40 MLOAD SWAP1 DUP1 DUP3 MSTORE DUP1 PUSH1 0x1F ADD PUSH1 0x1F NOT AND PUSH1 0x20 ADD DUP3 ADD PUSH1 0x40 MSTORE DUP1 ISZERO PUSH2 0x1127 JUMPI DUP2 PUSH1 0x20 ADD PUSH1 0x1 DUP3 MUL DUP1 CALLDATASIZE DUP4 CALLDATACOPY DUP1 DUP3 ADD SWAP2 POP POP SWAP1 POP JUMPDEST POP SWAP1 POP JUMPDEST PUSH1 0x0 DUP6 EQ PUSH2 0x11DA JUMPI PUSH1 0x1 DUP3 PUSH2 0x1140 SWAP2 SWAP1 PUSH2 0x1C4A JUMP JUMPDEST SWAP2 POP PUSH1 0xA DUP6 PUSH2 0x114F SWAP2 SWAP1 PUSH2 0x1DAF JUMP JUMPDEST PUSH1 0x30 PUSH2 0x115B SWAP2 SWAP1 PUSH2 0x1BC3 JUMP JUMPDEST PUSH1 0xF8 SHL DUP2 DUP4 DUP2 MLOAD DUP2 LT PUSH2 0x1197 JUMPI PUSH32 0x4E487B7100000000000000000000000000000000000000000000000000000000 PUSH1 0x0 MSTORE PUSH1 0x32 PUSH1 0x4 MSTORE PUSH1 0x24 PUSH1 0x0 REVERT JUMPDEST PUSH1 0x20 ADD ADD SWAP1 PUSH31 0xFFFFFFFFFFFFFFFFFFFFFFFFFFFFFFFFFFFFFFFFFFFFFFFFFFFFFFFFFFFFFF NOT AND SWAP1 DUP2 PUSH1 0x0 BYTE SWAP1 MSTORE8 POP PUSH1 0xA DUP6 PUSH2 0x11D3 SWAP2 SWAP1 PUSH2 0x1C19 JUMP JUMPDEST SWAP5 POP PUSH2 0x112B JUMP JUMPDEST DUP1 SWAP4 POP POP POP POP JUMPDEST SWAP2 SWAP1 POP JUMP JUMPDEST PUSH1 0x0 PUSH2 0x1207 DUP5 PUSH20 0xFFFFFFFFFFFFFFFFFFFFFFFFFFFFFFFFFFFFFFFF AND PUSH2 0x12F8 JUMP JUMPDEST ISZERO PUSH2 0x12EB JUMPI PUSH4 0x150B7A02 PUSH1 0xE0 SHL PUSH28 0xFFFFFFFFFFFFFFFFFFFFFFFFFFFFFFFFFFFFFFFFFFFFFFFFFFFFFFFF NOT AND DUP5 PUSH20 0xFFFFFFFFFFFFFFFFFFFFFFFFFFFFFFFFFFFFFFFF AND PUSH4 0x150B7A02 CALLER DUP9 DUP8 DUP8 PUSH1 0x40 MLOAD DUP6 PUSH4 0xFFFFFFFF AND PUSH1 0xE0 SHL DUP2 MSTORE PUSH1 0x4 ADD PUSH2 0x1272 SWAP5 SWAP4 SWAP3 SWAP2 SWAP1 PUSH2 0x197B JUMP JUMPDEST PUSH1 0x20 PUSH1 0x40 MLOAD DUP1 DUP4 SUB DUP2 PUSH1 0x0 DUP8 DUP1 EXTCODESIZE ISZERO DUP1 ISZERO PUSH2 0x128C JUMPI PUSH1 0x0 DUP1 REVERT JUMPDEST POP GAS CALL ISZERO DUP1 ISZERO PUSH2 0x12A0 JUMPI RETURNDATASIZE PUSH1 0x0 DUP1 RETURNDATACOPY RETURNDATASIZE PUSH1 0x0 REVERT JUMPDEST POP POP POP POP PUSH1 0x40 MLOAD RETURNDATASIZE PUSH1 0x1F NOT PUSH1 0x1F DUP3 ADD AND DUP3 ADD DUP1 PUSH1 0x40 MSTORE POP DUP2 ADD SWAP1 PUSH2 0x12C4 SWAP2 SWAP1 PUSH2 0x15AC JUMP JUMPDEST PUSH28 0xFFFFFFFFFFFFFFFFFFFFFFFFFFFFFFFFFFFFFFFFFFFFFFFFFFFFFFFF NOT AND EQ SWAP1 POP PUSH2 0x12F0 JUMP JUMPDEST PUSH1 0x1 SWAP1 POP JUMPDEST SWAP5 SWAP4 POP POP POP POP JUMP JUMPDEST PUSH1 0x0 DUP1 DUP3 EXTCODESIZE SWAP1 POP PUSH1 0x0 DUP2 GT SWAP2 POP POP SWAP2 SWAP1 POP JUMP JUMPDEST PUSH1 0x0 PUSH2 0x131E PUSH2 0x1319 DUP5 PUSH2 0x1B50 JUMP JUMPDEST PUSH2 0x1B1F JUMP JUMPDEST SWAP1 POP DUP3 DUP2 MSTORE PUSH1 0x20 DUP2 ADD DUP5 DUP5 DUP5 ADD GT ISZERO PUSH2 0x1336 JUMPI PUSH1 0x0 DUP1 REVERT JUMPDEST PUSH2 0x1341 DUP5 DUP3 DUP6 PUSH2 0x1CF2 JUMP JUMPDEST POP SWAP4 SWAP3 POP POP POP JUMP JUMPDEST PUSH1 0x0 DUP2 CALLDATALOAD SWAP1 POP PUSH2 0x1358 DUP2 PUSH2 0x1EAD JUMP JUMPDEST SWAP3 SWAP2 POP POP JUMP JUMPDEST PUSH1 0x0 DUP2 CALLDATALOAD SWAP1 POP PUSH2 0x136D DUP2 PUSH2 0x1EC4 JUMP JUMPDEST SWAP3 SWAP2 POP POP JUMP JUMPDEST PUSH1 0x0 DUP2 CALLDATALOAD SWAP1 POP PUSH2 0x1382 DUP2 PUSH2 0x1EDB JUMP JUMPDEST SWAP3 SWAP2 POP POP JUMP JUMPDEST PUSH1 0x0 DUP2 MLOAD SWAP1 POP PUSH2 0x1397 DUP2 PUSH2 0x1EDB JUMP JUMPDEST SWAP3 SWAP2 POP POP JUMP JUMPDEST PUSH1 0x0 DUP3 PUSH1 0x1F DUP4 ADD SLT PUSH2 0x13AE JUMPI PUSH1 0x0 DUP1 REVERT JUMPDEST DUP2 CALLDATALOAD PUSH2 0x13BE DUP5 DUP3 PUSH1 0x20 DUP7 ADD PUSH2 0x130B JUMP JUMPDEST SWAP2 POP POP SWAP3 SWAP2 POP POP JUMP JUMPDEST PUSH1 0x0 DUP2 CALLDATALOAD SWAP1 POP PUSH2 0x13D6 DUP2 PUSH2 0x1EF2 JUMP JUMPDEST SWAP3 SWAP2 POP POP JUMP JUMPDEST PUSH1 0x0 PUSH1 0x20 DUP3 DUP5 SUB SLT ISZERO PUSH2 0x13EE JUMPI PUSH1 0x0 DUP1 REVERT JUMPDEST PUSH1 0x0 PUSH2 0x13FC DUP5 DUP3 DUP6 ADD PUSH2 0x1349 JUMP JUMPDEST SWAP2 POP POP SWAP3 SWAP2 POP POP JUMP JUMPDEST PUSH1 0x0 DUP1 PUSH1 0x40 DUP4 DUP6 SUB SLT ISZERO PUSH2 0x1418 JUMPI PUSH1 0x0 DUP1 REVERT JUMPDEST PUSH1 0x0 PUSH2 0x1426 DUP6 DUP3 DUP7 ADD PUSH2 0x1349 JUMP JUMPDEST SWAP3 POP POP PUSH1 0x20 PUSH2 0x1437 DUP6 DUP3 DUP7 ADD PUSH2 0x1349 JUMP JUMPDEST SWAP2 POP POP SWAP3 POP SWAP3 SWAP1 POP JUMP JUMPDEST PUSH1 0x0 DUP1 PUSH1 0x0 PUSH1 0x60 DUP5 DUP7 SUB SLT ISZERO PUSH2 0x1456 JUMPI PUSH1 0x0 DUP1 REVERT JUMPDEST PUSH1 0x0 PUSH2 0x1464 DUP7 DUP3 DUP8 ADD PUSH2 0x1349 JUMP JUMPDEST SWAP4 POP POP PUSH1 0x20 PUSH2 0x1475 DUP7 DUP3 DUP8 ADD PUSH2 0x1349 JUMP JUMPDEST SWAP3 POP POP PUSH1 0x40 PUSH2 0x1486 DUP7 DUP3 DUP8 ADD PUSH2 0x13C7 JUMP JUMPDEST SWAP2 POP POP SWAP3 POP SWAP3 POP SWAP3 JUMP JUMPDEST PUSH1 0x0 DUP1 PUSH1 0x0 DUP1 PUSH1 0x80 DUP6 DUP8 SUB SLT ISZERO PUSH2 0x14A6 JUMPI PUSH1 0x0 DUP1 REVERT JUMPDEST PUSH1 0x0 PUSH2 0x14B4 DUP8 DUP3 DUP9 ADD PUSH2 0x1349 JUMP JUMPDEST SWAP5 POP POP PUSH1 0x20 PUSH2 0x14C5 DUP8 DUP3 DUP9 ADD PUSH2 0x1349 JUMP JUMPDEST SWAP4 POP POP PUSH1 0x40 PUSH2 0x14D6 DUP8 DUP3 DUP9 ADD PUSH2 0x13C7 JUMP JUMPDEST SWAP3 POP POP PUSH1 0x60 DUP6 ADD CALLDATALOAD PUSH8 0xFFFFFFFFFFFFFFFF DUP2 GT ISZERO PUSH2 0x14F3 JUMPI PUSH1 0x0 DUP1 REVERT JUMPDEST PUSH2 0x14FF DUP8 DUP3 DUP9 ADD PUSH2 0x139D JUMP JUMPDEST SWAP2 POP POP SWAP3 SWAP6 SWAP2 SWAP5 POP SWAP3 POP JUMP JUMPDEST PUSH1 0x0 DUP1 PUSH1 0x40 DUP4 DUP6 SUB SLT ISZERO PUSH2 0x151E JUMPI PUSH1 0x0 DUP1 REVERT JUMPDEST PUSH1 0x0 PUSH2 0x152C DUP6 DUP3 DUP7 ADD PUSH2 0x1349 JUMP JUMPDEST SWAP3 POP POP PUSH1 0x20 PUSH2 0x153D DUP6 DUP3 DUP7 ADD PUSH2 0x135E JUMP JUMPDEST SWAP2 POP POP SWAP3 POP SWAP3 SWAP1 POP JUMP JUMPDEST PUSH1 0x0 DUP1 PUSH1 0x40 DUP4 DUP6 SUB SLT ISZERO PUSH2 0x155A JUMPI PUSH1 0x0 DUP1 REVERT JUMPDEST PUSH1 0x0 PUSH2 0x1568 DUP6 DUP3 DUP7 ADD PUSH2 0x1349 JUMP JUMPDEST SWAP3 POP POP PUSH1 0x20 PUSH2 0x1579 DUP6 DUP3 DUP7 ADD PUSH2 0x13C7 JUMP JUMPDEST SWAP2 POP POP SWAP3 POP SWAP3 SWAP1 POP JUMP JUMPDEST PUSH1 0x0 PUSH1 0x20 DUP3 DUP5 SUB SLT ISZERO PUSH2 0x1595 JUMPI PUSH1 0x0 DUP1 REVERT JUMPDEST PUSH1 0x0 PUSH2 0x15A3 DUP5 DUP3 DUP6 ADD PUSH2 0x1373 JUMP JUMPDEST SWAP2 POP POP SWAP3 SWAP2 POP POP JUMP JUMPDEST PUSH1 0x0 PUSH1 0x20 DUP3 DUP5 SUB SLT ISZERO PUSH2 0x15BE JUMPI PUSH1 0x0 DUP1 REVERT JUMPDEST PUSH1 0x0 PUSH2 0x15CC DUP5 DUP3 DUP6 ADD PUSH2 0x1388 JUMP JUMPDEST SWAP2 POP POP SWAP3 SWAP2 POP POP JUMP JUMPDEST PUSH1 0x0 PUSH1 0x20 DUP3 DUP5 SUB SLT ISZERO PUSH2 0x15E7 JUMPI PUSH1 0x0 DUP1 REVERT JUMPDEST PUSH1 0x0 PUSH2 0x15F5 DUP5 DUP3 DUP6 ADD PUSH2 0x13C7 JUMP JUMPDEST SWAP2 POP POP SWAP3 SWAP2 POP POP JUMP JUMPDEST PUSH2 0x1607 DUP2 PUSH2 0x1C7E JUMP JUMPDEST DUP3 MSTORE POP POP JUMP JUMPDEST PUSH2 0x1616 DUP2 PUSH2 0x1C90 JUMP JUMPDEST DUP3 MSTORE POP POP JUMP JUMPDEST PUSH1 0x0 PUSH2 0x1627 DUP3 PUSH2 0x1B80 JUMP JUMPDEST PUSH2 0x1631 DUP2 DUP6 PUSH2 0x1B96 JUMP JUMPDEST SWAP4 POP PUSH2 0x1641 DUP2 DUP6 PUSH1 0x20 DUP7 ADD PUSH2 0x1D01 JUMP JUMPDEST PUSH2 0x164A DUP2 PUSH2 0x1E9C JUMP JUMPDEST DUP5 ADD SWAP2 POP POP SWAP3 SWAP2 POP POP JUMP JUMPDEST PUSH1 0x0 PUSH2 0x1660 DUP3 PUSH2 0x1B8B JUMP JUMPDEST PUSH2 0x166A DUP2 DUP6 PUSH2 0x1BA7 JUMP JUMPDEST SWAP4 POP PUSH2 0x167A DUP2 DUP6 PUSH1 0x20 DUP7 ADD PUSH2 0x1D01 JUMP JUMPDEST PUSH2 0x1683 DUP2 PUSH2 0x1E9C JUMP JUMPDEST DUP5 ADD SWAP2 POP POP SWAP3 SWAP2 POP POP JUMP JUMPDEST PUSH1 0x0 PUSH2 0x1699 DUP3 PUSH2 0x1B8B JUMP JUMPDEST PUSH2 0x16A3 DUP2 DUP6 PUSH2 0x1BB8 JUMP JUMPDEST SWAP4 POP PUSH2 0x16B3 DUP2 DUP6 PUSH1 0x20 DUP7 ADD PUSH2 0x1D01 JUMP JUMPDEST DUP1 DUP5 ADD SWAP2 POP POP SWAP3 SWAP2 POP POP JUMP JUMPDEST PUSH1 0x0 PUSH2 0x16CC PUSH1 0x1D DUP4 PUSH2 0x1BA7 JUMP JUMPDEST SWAP2 POP PUSH32 0x6E6F74206F776E6572206F7220617070726F76656420666F7220616C6C000000 PUSH1 0x0 DUP4 ADD MSTORE PUSH1 0x20 DUP3 ADD SWAP1 POP SWAP2 SWAP1 POP JUMP JUMPDEST PUSH1 0x0 PUSH2 0x170C PUSH1 0xF DUP4 PUSH2 0x1BA7 JUMP JUMPDEST SWAP2 POP PUSH32 0x746F206973203020616464726573730000000000000000000000000000000000 PUSH1 0x0 DUP4 ADD MSTORE PUSH1 0x20 DUP3 ADD SWAP1 POP SWAP2 SWAP1 POP JUMP JUMPDEST PUSH1 0x0 PUSH2 0x174C PUSH1 0x16 DUP4 PUSH2 0x1BA7 JUMP JUMPDEST SWAP2 POP PUSH32 0x6E6F74206F776E6572206E6F7220617070726F76656400000000000000000000 PUSH1 0x0 DUP4 ADD MSTORE PUSH1 0x20 DUP3 ADD SWAP1 POP SWAP2 SWAP1 POP JUMP JUMPDEST PUSH1 0x0 PUSH2 0x178C PUSH1 0x13 DUP4 PUSH2 0x1BA7 JUMP JUMPDEST SWAP2 POP PUSH32 0x746F6B656E20646F65736E277420657869737400000000000000000000000000 PUSH1 0x0 DUP4 ADD MSTORE PUSH1 0x20 DUP3 ADD SWAP1 POP SWAP2 SWAP1 POP JUMP JUMPDEST PUSH1 0x0 PUSH2 0x17CC PUSH1 0x11 DUP4 PUSH2 0x1BA7 JUMP JUMPDEST SWAP2 POP PUSH32 0x6F776E6572203D20302061646472657373000000000000000000000000000000 PUSH1 0x0 DUP4 ADD MSTORE PUSH1 0x20 DUP3 ADD SWAP1 POP SWAP2 SWAP1 POP JUMP JUMPDEST PUSH1 0x0 PUSH2 0x180C PUSH1 0xF DUP4 PUSH2 0x1BA7 JUMP JUMPDEST SWAP2 POP PUSH32 0x546F6B656E206E6F742065786973740000000000000000000000000000000000 PUSH1 0x0 DUP4 ADD MSTORE PUSH1 0x20 DUP3 ADD SWAP1 POP SWAP2 SWAP1 POP JUMP JUMPDEST PUSH1 0x0 PUSH2 0x184C PUSH1 0x12 DUP4 PUSH2 0x1BA7 JUMP JUMPDEST SWAP2 POP PUSH32 0x6E6F742045524337323152656365697665720000000000000000000000000000 PUSH1 0x0 DUP4 ADD MSTORE PUSH1 0x20 DUP3 ADD SWAP1 POP SWAP2 SWAP1 POP JUMP JUMPDEST PUSH1 0x0 PUSH2 0x188C PUSH1 0x9 DUP4 PUSH2 0x1BA7 JUMP JUMPDEST SWAP2 POP PUSH32 0x6E6F74206F776E65720000000000000000000000000000000000000000000000 PUSH1 0x0 DUP4 ADD MSTORE PUSH1 0x20 DUP3 ADD SWAP1 POP SWAP2 SWAP1 POP JUMP JUMPDEST PUSH2 0x18C8 DUP2 PUSH2 0x1CE8 JUMP JUMPDEST DUP3 MSTORE POP POP JUMP JUMPDEST PUSH1 0x0 PUSH2 0x18DA DUP3 DUP6 PUSH2 0x168E JUMP JUMPDEST SWAP2 POP PUSH2 0x18E6 DUP3 DUP5 PUSH2 0x168E JUMP JUMPDEST SWAP2 POP DUP2 SWAP1 POP SWAP4 SWAP3 POP POP POP JUMP JUMPDEST PUSH1 0x0 PUSH1 0x20 DUP3 ADD SWAP1 POP PUSH2 0x1907 PUSH1 0x0 DUP4 ADD DUP5 PUSH2 0x15FE JUMP JUMPDEST SWAP3 SWAP2 POP POP JUMP JUMPDEST PUSH1 0x0 PUSH1 0x60 DUP3 ADD SWAP1 POP PUSH2 0x1922 PUSH1 0x0 DUP4 ADD DUP7 PUSH2 0x15FE JUMP JUMPDEST PUSH2 0x192F PUSH1 0x20 DUP4 ADD DUP6 PUSH2 0x15FE JUMP JUMPDEST PUSH2 0x193C PUSH1 0x40 DUP4 ADD DUP5 PUSH2 0x160D JUMP JUMPDEST SWAP5 SWAP4 POP POP POP POP JUMP JUMPDEST PUSH1 0x0 PUSH1 0x60 DUP3 ADD SWAP1 POP PUSH2 0x1959 PUSH1 0x0 DUP4 ADD DUP7 PUSH2 0x15FE JUMP JUMPDEST PUSH2 0x1966 PUSH1 0x20 DUP4 ADD DUP6 PUSH2 0x15FE JUMP JUMPDEST PUSH2 0x1973 PUSH1 0x40 DUP4 ADD DUP5 PUSH2 0x18BF JUMP JUMPDEST SWAP5 SWAP4 POP POP POP POP JUMP JUMPDEST PUSH1 0x0 PUSH1 0x80 DUP3 ADD SWAP1 POP PUSH2 0x1990 PUSH1 0x0 DUP4 ADD DUP8 PUSH2 0x15FE JUMP JUMPDEST PUSH2 0x199D PUSH1 0x20 DUP4 ADD DUP7 PUSH2 0x15FE JUMP JUMPDEST PUSH2 0x19AA PUSH1 0x40 DUP4 ADD DUP6 PUSH2 0x18BF JUMP JUMPDEST DUP2 DUP2 SUB PUSH1 0x60 DUP4 ADD MSTORE PUSH2 0x19BC DUP2 DUP5 PUSH2 0x161C JUMP JUMPDEST SWAP1 POP SWAP6 SWAP5 POP POP POP POP POP JUMP JUMPDEST PUSH1 0x0 PUSH1 0x20 DUP3 ADD SWAP1 POP PUSH2 0x19DC PUSH1 0x0 DUP4 ADD DUP5 PUSH2 0x160D JUMP JUMPDEST SWAP3 SWAP2 POP POP JUMP JUMPDEST PUSH1 0x0 PUSH1 0x20 DUP3 ADD SWAP1 POP DUP2 DUP2 SUB PUSH1 0x0 DUP4 ADD MSTORE PUSH2 0x19FC DUP2 DUP5 PUSH2 0x1655 JUMP JUMPDEST SWAP1 POP SWAP3 SWAP2 POP POP JUMP JUMPDEST PUSH1 0x0 PUSH1 0x20 DUP3 ADD SWAP1 POP DUP2 DUP2 SUB PUSH1 0x0 DUP4 ADD MSTORE PUSH2 0x1A1D DUP2 PUSH2 0x16BF JUMP JUMPDEST SWAP1 POP SWAP2 SWAP1 POP JUMP JUMPDEST PUSH1 0x0 PUSH1 0x20 DUP3 ADD SWAP1 POP DUP2 DUP2 SUB PUSH1 0x0 DUP4 ADD MSTORE PUSH2 0x1A3D DUP2 PUSH2 0x16FF JUMP JUMPDEST SWAP1 POP SWAP2 SWAP1 POP JUMP JUMPDEST PUSH1 0x0 PUSH1 0x20 DUP3 ADD SWAP1 POP DUP2 DUP2 SUB PUSH1 0x0 DUP4 ADD MSTORE PUSH2 0x1A5D DUP2 PUSH2 0x173F JUMP JUMPDEST SWAP1 POP SWAP2 SWAP1 POP JUMP JUMPDEST PUSH1 0x0 PUSH1 0x20 DUP3 ADD SWAP1 POP DUP2 DUP2 SUB PUSH1 0x0 DUP4 ADD MSTORE PUSH2 0x1A7D DUP2 PUSH2 0x177F JUMP JUMPDEST SWAP1 POP SWAP2 SWAP1 POP JUMP JUMPDEST PUSH1 0x0 PUSH1 0x20 DUP3 ADD SWAP1 POP DUP2 DUP2 SUB PUSH1 0x0 DUP4 ADD MSTORE PUSH2 0x1A9D DUP2 PUSH2 0x17BF JUMP JUMPDEST SWAP1 POP SWAP2 SWAP1 POP JUMP JUMPDEST PUSH1 0x0 PUSH1 0x20 DUP3 ADD SWAP1 POP DUP2 DUP2 SUB PUSH1 0x0 DUP4 ADD MSTORE PUSH2 0x1ABD DUP2 PUSH2 0x17FF JUMP JUMPDEST SWAP1 POP SWAP2 SWAP1 POP JUMP JUMPDEST PUSH1 0x0 PUSH1 0x20 DUP3 ADD SWAP1 POP DUP2 DUP2 SUB PUSH1 0x0 DUP4 ADD MSTORE PUSH2 0x1ADD DUP2 PUSH2 0x183F JUMP JUMPDEST SWAP1 POP SWAP2 SWAP1 POP JUMP JUMPDEST PUSH1 0x0 PUSH1 0x20 DUP3 ADD SWAP1 POP DUP2 DUP2 SUB PUSH1 0x0 DUP4 ADD MSTORE PUSH2 0x1AFD DUP2 PUSH2 0x187F JUMP JUMPDEST SWAP1 POP SWAP2 SWAP1 POP JUMP JUMPDEST PUSH1 0x0 PUSH1 0x20 DUP3 ADD SWAP1 POP PUSH2 0x1B19 PUSH1 0x0 DUP4 ADD DUP5 PUSH2 0x18BF JUMP JUMPDEST SWAP3 SWAP2 POP POP JUMP JUMPDEST PUSH1 0x0 PUSH1 0x40 MLOAD SWAP1 POP DUP2 DUP2 ADD DUP2 DUP2 LT PUSH8 0xFFFFFFFFFFFFFFFF DUP3 GT OR ISZERO PUSH2 0x1B46 JUMPI PUSH2 0x1B45 PUSH2 0x1E6D JUMP JUMPDEST JUMPDEST DUP1 PUSH1 0x40 MSTORE POP SWAP2 SWAP1 POP JUMP JUMPDEST PUSH1 0x0 PUSH8 0xFFFFFFFFFFFFFFFF DUP3 GT ISZERO PUSH2 0x1B6B JUMPI PUSH2 0x1B6A PUSH2 0x1E6D JUMP JUMPDEST JUMPDEST PUSH1 0x1F NOT PUSH1 0x1F DUP4 ADD AND SWAP1 POP PUSH1 0x20 DUP2 ADD SWAP1 POP SWAP2 SWAP1 POP JUMP JUMPDEST PUSH1 0x0 DUP2 MLOAD SWAP1 POP SWAP2 SWAP1 POP JUMP JUMPDEST PUSH1 0x0 DUP2 MLOAD SWAP1 POP SWAP2 SWAP1 POP JUMP JUMPDEST PUSH1 0x0 DUP3 DUP3 MSTORE PUSH1 0x20 DUP3 ADD SWAP1 POP SWAP3 SWAP2 POP POP JUMP JUMPDEST PUSH1 0x0 DUP3 DUP3 MSTORE PUSH1 0x20 DUP3 ADD SWAP1 POP SWAP3 SWAP2 POP POP JUMP JUMPDEST PUSH1 0x0 DUP2 SWAP1 POP SWAP3 SWAP2 POP POP JUMP JUMPDEST PUSH1 0x0 PUSH2 0x1BCE DUP3 PUSH2 0x1CE8 JUMP JUMPDEST SWAP2 POP PUSH2 0x1BD9 DUP4 PUSH2 0x1CE8 JUMP JUMPDEST SWAP3 POP DUP3 PUSH32 0xFFFFFFFFFFFFFFFFFFFFFFFFFFFFFFFFFFFFFFFFFFFFFFFFFFFFFFFFFFFFFFFF SUB DUP3 GT ISZERO PUSH2 0x1C0E JUMPI PUSH2 0x1C0D PUSH2 0x1DE0 JUMP JUMPDEST JUMPDEST DUP3 DUP3 ADD SWAP1 POP SWAP3 SWAP2 POP POP JUMP JUMPDEST PUSH1 0x0 PUSH2 0x1C24 DUP3 PUSH2 0x1CE8 JUMP JUMPDEST SWAP2 POP PUSH2 0x1C2F DUP4 PUSH2 0x1CE8 JUMP JUMPDEST SWAP3 POP DUP3 PUSH2 0x1C3F JUMPI PUSH2 0x1C3E PUSH2 0x1E0F JUMP JUMPDEST JUMPDEST DUP3 DUP3 DIV SWAP1 POP SWAP3 SWAP2 POP POP JUMP JUMPDEST PUSH1 0x0 PUSH2 0x1C55 DUP3 PUSH2 0x1CE8 JUMP JUMPDEST SWAP2 POP PUSH2 0x1C60 DUP4 PUSH2 0x1CE8 JUMP JUMPDEST SWAP3 POP DUP3 DUP3 LT ISZERO PUSH2 0x1C73 JUMPI PUSH2 0x1C72 PUSH2 0x1DE0 JUMP JUMPDEST JUMPDEST DUP3 DUP3 SUB SWAP1 POP SWAP3 SWAP2 POP POP JUMP JUMPDEST PUSH1 0x0 PUSH2 0x1C89 DUP3 PUSH2 0x1CC8 JUMP JUMPDEST SWAP1 POP SWAP2 SWAP1 POP JUMP JUMPDEST PUSH1 0x0 DUP2 ISZERO ISZERO SWAP1 POP SWAP2 SWAP1 POP JUMP JUMPDEST PUSH1 0x0 PUSH32 0xFFFFFFFF00000000000000000000000000000000000000000000000000000000 DUP3 AND SWAP1 POP SWAP2 SWAP1 POP JUMP JUMPDEST PUSH1 0x0 PUSH20 0xFFFFFFFFFFFFFFFFFFFFFFFFFFFFFFFFFFFFFFFF DUP3 AND SWAP1 POP SWAP2 SWAP1 POP JUMP JUMPDEST PUSH1 0x0 DUP2 SWAP1 POP SWAP2 SWAP1 POP JUMP JUMPDEST DUP3 DUP2 DUP4 CALLDATACOPY PUSH1 0x0 DUP4 DUP4 ADD MSTORE POP POP POP JUMP JUMPDEST PUSH1 0x0 JUMPDEST DUP4 DUP2 LT ISZERO PUSH2 0x1D1F JUMPI DUP1 DUP3 ADD MLOAD DUP2 DUP5 ADD MSTORE PUSH1 0x20 DUP2 ADD SWAP1 POP PUSH2 0x1D04 JUMP JUMPDEST DUP4 DUP2 GT ISZERO PUSH2 0x1D2E JUMPI PUSH1 0x0 DUP5 DUP5 ADD MSTORE JUMPDEST POP POP POP POP JUMP JUMPDEST PUSH1 0x0 PUSH1 0x2 DUP3 DIV SWAP1 POP PUSH1 0x1 DUP3 AND DUP1 PUSH2 0x1D4C JUMPI PUSH1 0x7F DUP3 AND SWAP2 POP JUMPDEST PUSH1 0x20 DUP3 LT DUP2 EQ ISZERO PUSH2 0x1D60 JUMPI PUSH2 0x1D5F PUSH2 0x1E3E JUMP JUMPDEST JUMPDEST POP SWAP2 SWAP1 POP JUMP JUMPDEST PUSH1 0x0 PUSH2 0x1D71 DUP3 PUSH2 0x1CE8 JUMP JUMPDEST SWAP2 POP PUSH32 0xFFFFFFFFFFFFFFFFFFFFFFFFFFFFFFFFFFFFFFFFFFFFFFFFFFFFFFFFFFFFFFFF DUP3 EQ ISZERO PUSH2 0x1DA4 JUMPI PUSH2 0x1DA3 PUSH2 0x1DE0 JUMP JUMPDEST JUMPDEST PUSH1 0x1 DUP3 ADD SWAP1 POP SWAP2 SWAP1 POP JUMP JUMPDEST PUSH1 0x0 PUSH2 0x1DBA DUP3 PUSH2 0x1CE8 JUMP JUMPDEST SWAP2 POP PUSH2 0x1DC5 DUP4 PUSH2 0x1CE8 JUMP JUMPDEST SWAP3 POP DUP3 PUSH2 0x1DD5 JUMPI PUSH2 0x1DD4 PUSH2 0x1E0F JUMP JUMPDEST JUMPDEST DUP3 DUP3 MOD SWAP1 POP SWAP3 SWAP2 POP POP JUMP JUMPDEST PUSH32 0x4E487B7100000000000000000000000000000000000000000000000000000000 PUSH1 0x0 MSTORE PUSH1 0x11 PUSH1 0x4 MSTORE PUSH1 0x24 PUSH1 0x0 REVERT JUMPDEST PUSH32 0x4E487B7100000000000000000000000000000000000000000000000000000000 PUSH1 0x0 MSTORE PUSH1 0x12 PUSH1 0x4 MSTORE PUSH1 0x24 PUSH1 0x0 REVERT JUMPDEST PUSH32 0x4E487B7100000000000000000000000000000000000000000000000000000000 PUSH1 0x0 MSTORE PUSH1 0x22 PUSH1 0x4 MSTORE PUSH1 0x24 PUSH1 0x0 REVERT JUMPDEST PUSH32 0x4E487B7100000000000000000000000000000000000000000000000000000000 PUSH1 0x0 MSTORE PUSH1 0x41 PUSH1 0x4 MSTORE PUSH1 0x24 PUSH1 0x0 REVERT JUMPDEST PUSH1 0x0 PUSH1 0x1F NOT PUSH1 0x1F DUP4 ADD AND SWAP1 POP SWAP2 SWAP1 POP JUMP JUMPDEST PUSH2 0x1EB6 DUP2 PUSH2 0x1C7E JUMP JUMPDEST DUP2 EQ PUSH2 0x1EC1 JUMPI PUSH1 0x0 DUP1 REVERT JUMPDEST POP JUMP JUMPDEST PUSH2 0x1ECD DUP2 PUSH2 0x1C90 JUMP JUMPDEST DUP2 EQ PUSH2 0x1ED8 JUMPI PUSH1 0x0 DUP1 REVERT JUMPDEST POP JUMP JUMPDEST PUSH2 0x1EE4 DUP2 PUSH2 0x1C9C JUMP JUMPDEST DUP2 EQ PUSH2 0x1EEF JUMPI PUSH1 0x0 DUP1 REVERT JUMPDEST POP JUMP JUMPDEST PUSH2 0x1EFB DUP2 PUSH2 0x1CE8 JUMP JUMPDEST DUP2 EQ PUSH2 0x1F06 JUMPI PUSH1 0x0 DUP1 REVERT JUMPDEST POP JUMP INVALID LOG2 PUSH5 0x6970667358 0x22 SLT KECCAK256 DUP8 ADDRESS SWAP11 0x28 0x4D 0xCB PUSH20 0xB70AAC485A5BC5BAA966DFF675B9FCE316D82DEF PUSH23 0xACAFB7C064736F6C634300080000330000000000000000 "
				},
				"gasEstimates": {
					"creation": {
						"codeDepositCost": "1599800",
						"executionCost": "infinite",
						"totalCost": "infinite"
					},
					"external": {
						"approvalForAll(address,bool)": "infinite",
						"approve(address,uint256)": "infinite",
						"balanceOf(address)": "1624",
						"getApproved(uint256)": "2562",
						"isApprovedForAll(address,address)": "infinite",
						"name()": "infinite",
						"ownerOf(uint256)": "1650",
						"safeTransferFrom(address,address,uint256)": "infinite",
						"safeTransferFrom(address,address,uint256,bytes)": "infinite",
						"supportsInterface(bytes4)": "731",
						"symbol()": "infinite",
						"tokenURI(uint256)": "2052",
						"transferFrom(address,address,uint256)": "infinite"
					},
					"internal": {
						"_approve(address,address,uint256)": "infinite",
						"_baseURI()": "infinite",
						"_burn(uint256)": "infinite",
						"_checkOnERC721Received(address,address,uint256,bytes memory)": "infinite",
						"_isApprovedOrOwner(address,address,uint256)": "2048",
						"_mint(address,uint256)": "infinite",
						"_safeTransfer(address,address,address,uint256,bytes memory)": "infinite",
						"_transfer(address,address,address,uint256)": "infinite"
					}
				},
				"methodIdentifiers": {
					"approvalForAll(address,bool)": "c5e51b9e",
					"approve(address,uint256)": "095ea7b3",
					"balanceOf(address)": "70a08231",
					"getApproved(uint256)": "081812fc",
					"isApprovedForAll(address,address)": "e985e9c5",
					"name()": "06fdde03",
					"ownerOf(uint256)": "6352211e",
					"safeTransferFrom(address,address,uint256)": "42842e0e",
					"safeTransferFrom(address,address,uint256,bytes)": "b88d4fde",
					"supportsInterface(bytes4)": "01ffc9a7",
					"symbol()": "95d89b41",
					"tokenURI(uint256)": "c87b56dd",
					"transferFrom(address,address,uint256)": "23b872dd"
				}
			},
			"storageLayout": {
				"storage": [
					{
						"astId": 413,
						"contract": "Chain Paper/liberty/ERC721.sol:ERC721",
						"label": "name",
						"offset": 0,
						"slot": "0",
						"type": "t_string_storage"
					},
					{
						"astId": 416,
						"contract": "Chain Paper/liberty/ERC721.sol:ERC721",
						"label": "symbol",
						"offset": 0,
						"slot": "1",
						"type": "t_string_storage"
					},
					{
						"astId": 420,
						"contract": "Chain Paper/liberty/ERC721.sol:ERC721",
						"label": "_owners",
						"offset": 0,
						"slot": "2",
						"type": "t_mapping(t_uint256,t_address)"
					},
					{
						"astId": 424,
						"contract": "Chain Paper/liberty/ERC721.sol:ERC721",
						"label": "_balances",
						"offset": 0,
						"slot": "3",
						"type": "t_mapping(t_address,t_uint256)"
					},
					{
						"astId": 428,
						"contract": "Chain Paper/liberty/ERC721.sol:ERC721",
						"label": "_tokenApprovals",
						"offset": 0,
						"slot": "4",
						"type": "t_mapping(t_uint256,t_address)"
					},
					{
						"astId": 434,
						"contract": "Chain Paper/liberty/ERC721.sol:ERC721",
						"label": "_operatorApprovals",
						"offset": 0,
						"slot": "5",
						"type": "t_mapping(t_address,t_mapping(t_address,t_bool))"
					}
				],
				"types": {
					"t_address": {
						"encoding": "inplace",
						"label": "address",
						"numberOfBytes": "20"
					},
					"t_bool": {
						"encoding": "inplace",
						"label": "bool",
						"numberOfBytes": "1"
					},
					"t_mapping(t_address,t_bool)": {
						"encoding": "mapping",
						"key": "t_address",
						"label": "mapping(address => bool)",
						"numberOfBytes": "32",
						"value": "t_bool"
					},
					"t_mapping(t_address,t_mapping(t_address,t_bool))": {
						"encoding": "mapping",
						"key": "t_address",
						"label": "mapping(address => mapping(address => bool))",
						"numberOfBytes": "32",
						"value": "t_mapping(t_address,t_bool)"
					},
					"t_mapping(t_address,t_uint256)": {
						"encoding": "mapping",
						"key": "t_address",
						"label": "mapping(address => uint256)",
						"numberOfBytes": "32",
						"value": "t_uint256"
					},
					"t_mapping(t_uint256,t_address)": {
						"encoding": "mapping",
						"key": "t_uint256",
						"label": "mapping(uint256 => address)",
						"numberOfBytes": "32",
						"value": "t_address"
					},
					"t_string_storage": {
						"encoding": "bytes",
						"label": "string",
						"numberOfBytes": "32"
					},
					"t_uint256": {
						"encoding": "inplace",
						"label": "uint256",
						"numberOfBytes": "32"
					}
				}
			},
			"userdoc": {
				"kind": "user",
				"methods": {},
				"version": 1
			}
		}
	}
}