{
	"Chain Paper/CP.sol": {
		"CP": {
			"abi": [
				{
					"inputs": [
						{
							"internalType": "string",
							"name": "name_",
							"type": "string"
						},
						{
							"internalType": "string",
							"name": "symbol_",
							"type": "string"
						}
					],
					"stateMutability": "nonpayable",
					"type": "constructor"
				},
				{
					"anonymous": false,
					"inputs": [
						{
							"indexed": false,
							"internalType": "address",
							"name": "owner",
							"type": "address"
						},
						{
							"indexed": false,
							"internalType": "address",
							"name": "operator",
							"type": "address"
						},
						{
							"indexed": false,
							"internalType": "bool",
							"name": "approved",
							"type": "bool"
						}
					],
					"name": "ApprovalForALl",
					"type": "event"
				},
				{
					"anonymous": false,
					"inputs": [
						{
							"indexed": false,
							"internalType": "address",
							"name": "owner",
							"type": "address"
						},
						{
							"indexed": false,
							"internalType": "address",
							"name": "approved",
							"type": "address"
						},
						{
							"indexed": false,
							"internalType": "uint256",
							"name": "tokenId",
							"type": "uint256"
						}
					],
					"name": "Approve",
					"type": "event"
				},
				{
					"anonymous": false,
					"inputs": [
						{
							"indexed": true,
							"internalType": "address",
							"name": "previousOwner",
							"type": "address"
						},
						{
							"indexed": true,
							"internalType": "address",
							"name": "newOwner",
							"type": "address"
						}
					],
					"name": "OwnershipTransferred",
					"type": "event"
				},
				{
					"anonymous": false,
					"inputs": [
						{
							"indexed": false,
							"internalType": "address",
							"name": "from",
							"type": "address"
						},
						{
							"indexed": false,
							"internalType": "address",
							"name": "to",
							"type": "address"
						},
						{
							"indexed": false,
							"internalType": "uint256",
							"name": "tokenId",
							"type": "uint256"
						}
					],
					"name": "Transfer",
					"type": "event"
				},
				{
					"inputs": [],
					"name": "DROP_INTERVAL",
					"outputs": [
						{
							"internalType": "uint256",
							"name": "",
							"type": "uint256"
						}
					],
					"stateMutability": "view",
					"type": "function"
				},
				{
					"inputs": [],
					"name": "DROP_PER_STEP",
					"outputs": [
						{
							"internalType": "uint256",
							"name": "",
							"type": "uint256"
						}
					],
					"stateMutability": "view",
					"type": "function"
				},
				{
					"inputs": [],
					"name": "END_PRICE",
					"outputs": [
						{
							"internalType": "uint256",
							"name": "",
							"type": "uint256"
						}
					],
					"stateMutability": "view",
					"type": "function"
				},
				{
					"inputs": [],
					"name": "MAX_CPS",
					"outputs": [
						{
							"internalType": "uint256",
							"name": "",
							"type": "uint256"
						}
					],
					"stateMutability": "view",
					"type": "function"
				},
				{
					"inputs": [],
					"name": "START_PRICE",
					"outputs": [
						{
							"internalType": "uint256",
							"name": "",
							"type": "uint256"
						}
					],
					"stateMutability": "view",
					"type": "function"
				},
				{
					"inputs": [],
					"name": "TIME",
					"outputs": [
						{
							"internalType": "uint256",
							"name": "",
							"type": "uint256"
						}
					],
					"stateMutability": "view",
					"type": "function"
				},
				{
					"inputs": [
						{
							"internalType": "address",
							"name": "operator",
							"type": "address"
						},
						{
							"internalType": "bool",
							"name": "approved",
							"type": "bool"
						}
					],
					"name": "approvalForAll",
					"outputs": [],
					"stateMutability": "nonpayable",
					"type": "function"
				},
				{
					"inputs": [
						{
							"internalType": "address",
							"name": "to",
							"type": "address"
						},
						{
							"internalType": "uint256",
							"name": "tokenId",
							"type": "uint256"
						}
					],
					"name": "approve",
					"outputs": [],
					"stateMutability": "nonpayable",
					"type": "function"
				},
				{
					"inputs": [
						{
							"internalType": "uint256",
							"name": "tokenId",
							"type": "uint256"
						}
					],
					"name": "auctionMint",
					"outputs": [],
					"stateMutability": "payable",
					"type": "function"
				},
				{
					"inputs": [
						{
							"internalType": "address",
							"name": "owner",
							"type": "address"
						}
					],
					"name": "balanceOf",
					"outputs": [
						{
							"internalType": "uint256",
							"name": "",
							"type": "uint256"
						}
					],
					"stateMutability": "view",
					"type": "function"
				},
				{
					"inputs": [
						{
							"internalType": "uint256",
							"name": "tokenId",
							"type": "uint256"
						}
					],
					"name": "getApproved",
					"outputs": [
						{
							"internalType": "address",
							"name": "",
							"type": "address"
						}
					],
					"stateMutability": "view",
					"type": "function"
				},
				{
					"inputs": [
						{
							"internalType": "uint256",
							"name": "_startTime",
							"type": "uint256"
						}
					],
					"name": "getPrice",
					"outputs": [
						{
							"internalType": "uint256",
							"name": "",
							"type": "uint256"
						}
					],
					"stateMutability": "view",
					"type": "function"
				},
				{
					"inputs": [
						{
							"internalType": "address",
							"name": "owner",
							"type": "address"
						},
						{
							"internalType": "address",
							"name": "operator",
							"type": "address"
						}
					],
					"name": "isApprovedForAll",
					"outputs": [
						{
							"internalType": "bool",
							"name": "",
							"type": "bool"
						}
					],
					"stateMutability": "view",
					"type": "function"
				},
				{
					"inputs": [],
					"name": "name",
					"outputs": [
						{
							"internalType": "string",
							"name": "",
							"type": "string"
						}
					],
					"stateMutability": "view",
					"type": "function"
				},
				{
					"inputs": [],
					"name": "owner",
					"outputs": [
						{
							"internalType": "address",
							"name": "",
							"type": "address"
						}
					],
					"stateMutability": "view",
					"type": "function"
				},
				{
					"inputs": [
						{
							"internalType": "uint256",
							"name": "tokenId",
							"type": "uint256"
						}
					],
					"name": "ownerOf",
					"outputs": [
						{
							"internalType": "address",
							"name": "owner",
							"type": "address"
						}
					],
					"stateMutability": "view",
					"type": "function"
				},
				{
					"inputs": [],
					"name": "renounceOwnership",
					"outputs": [],
					"stateMutability": "nonpayable",
					"type": "function"
				},
				{
					"inputs": [
						{
							"internalType": "address",
							"name": "from",
							"type": "address"
						},
						{
							"internalType": "address",
							"name": "to",
							"type": "address"
						},
						{
							"internalType": "uint256",
							"name": "tokenId",
							"type": "uint256"
						}
					],
					"name": "safeTransferFrom",
					"outputs": [],
					"stateMutability": "nonpayable",
					"type": "function"
				},
				{
					"inputs": [
						{
							"internalType": "address",
							"name": "from",
							"type": "address"
						},
						{
							"internalType": "address",
							"name": "to",
							"type": "address"
						},
						{
							"internalType": "uint256",
							"name": "tokenId",
							"type": "uint256"
						},
						{
							"internalType": "bytes",
							"name": "_data",
							"type": "bytes"
						}
					],
					"name": "safeTransferFrom",
					"outputs": [],
					"stateMutability": "nonpayable",
					"type": "function"
				},
				{
					"inputs": [
						{
							"internalType": "string",
							"name": "baseURI",
							"type": "string"
						}
					],
					"name": "setBaseURI",
					"outputs": [],
					"stateMutability": "nonpayable",
					"type": "function"
				},
				{
					"inputs": [
						{
							"internalType": "uint256",
							"name": "_timestamp",
							"type": "uint256"
						}
					],
					"name": "setStartTime",
					"outputs": [],
					"stateMutability": "nonpayable",
					"type": "function"
				},
				{
					"inputs": [],
					"name": "startTime",
					"outputs": [
						{
							"internalType": "uint256",
							"name": "",
							"type": "uint256"
						}
					],
					"stateMutability": "view",
					"type": "function"
				},
				{
					"inputs": [
						{
							"internalType": "bytes4",
							"name": "interfaceId",
							"type": "bytes4"
						}
					],
					"name": "supportsInterface",
					"outputs": [
						{
							"internalType": "bool",
							"name": "",
							"type": "bool"
						}
					],
					"stateMutability": "pure",
					"type": "function"
				},
				{
					"inputs": [],
					"name": "symbol",
					"outputs": [
						{
							"internalType": "string",
							"name": "",
							"type": "string"
						}
					],
					"stateMutability": "view",
					"type": "function"
				},
				{
					"inputs": [
						{
							"internalType": "uint256",
							"name": "tokenId",
							"type": "uint256"
						}
					],
					"name": "tokenURI",
					"outputs": [
						{
							"internalType": "string",
							"name": "",
							"type": "string"
						}
					],
					"stateMutability": "view",
					"type": "function"
				},
				{
					"inputs": [],
					"name": "totalSupply",
					"outputs": [
						{
							"internalType": "uint256",
							"name": "",
							"type": "uint256"
						}
					],
					"stateMutability": "view",
					"type": "function"
				},
				{
					"inputs": [
						{
							"internalType": "address",
							"name": "from",
							"type": "address"
						},
						{
							"internalType": "address",
							"name": "to",
							"type": "address"
						},
						{
							"internalType": "uint256",
							"name": "tokenId",
							"type": "uint256"
						}
					],
					"name": "transferFrom",
					"outputs": [],
					"stateMutability": "nonpayable",
					"type": "function"
				},
				{
					"inputs": [
						{
							"internalType": "address",
							"name": "newOwner",
							"type": "address"
						}
					],
					"name": "transferOwnership",
					"outputs": [],
					"stateMutability": "nonpayable",
					"type": "function"
				},
				{
					"inputs": [],
					"name": "withdrawMoney",
					"outputs": [],
					"stateMutability": "nonpayable",
					"type": "function"
				}
			],
			"devdoc": {
				"kind": "dev",
				"methods": {
					"owner()": {
						"details": "Returns the address of the current owner."
					},
					"renounceOwnership()": {
						"details": "Leaves the contract without owner. It will not be possible to call `onlyOwner` functions anymore. Can only be called by the current owner. NOTE: Renouncing ownership will leave the contract without an owner, thereby removing any functionality that is only available to the owner."
					},
					"transferOwnership(address)": {
						"details": "Transfers ownership of the contract to a new account (`newOwner`). Can only be called by the current owner."
					}
				},
				"version": 1
			},
			"evm": {
				"assembly": "    /* \"Chain Paper/CP.sol\":148:3095  contract CP is Ownable, ERC721 {\r... */\n  mstore(0x40, 0x80)\n    /* \"Chain Paper/CP.sol\":671:796  constructor(string memory name_ , string memory symbol_) ERC721(name_, symbol_){\r... */\n  callvalue\n  dup1\n  iszero\n  tag_1\n  jumpi\n  0x00\n  dup1\n  revert\ntag_1:\n  pop\n  mload(0x40)\n  sub(codesize, bytecodeSize)\n  dup1\n  bytecodeSize\n  dup4\n  codecopy\n  dup2\n  dup2\n  add\n  0x40\n  mstore\n  dup2\n  add\n  swap1\n  tag_2\n  swap2\n  swap1\n  tag_3\n  jump\t// in\ntag_2:\n    /* \"Chain Paper/CP.sol\":735:740  name_ */\n  dup2\n    /* \"Chain Paper/CP.sol\":742:749  symbol_ */\n  dup2\n    /* \"@openzeppelin/contracts/access/Ownable.sol\":936:968  _transferOwnership(_msgSender()) */\n  tag_8\n    /* \"@openzeppelin/contracts/access/Ownable.sol\":955:967  _msgSender() */\n  tag_9\n    /* \"@openzeppelin/contracts/access/Ownable.sol\":955:965  _msgSender */\n  shl(0x20, tag_10)\n    /* \"@openzeppelin/contracts/access/Ownable.sol\":955:967  _msgSender() */\n  0x20\n  shr\n  jump\t// in\ntag_9:\n    /* \"@openzeppelin/contracts/access/Ownable.sol\":936:954  _transferOwnership */\n  shl(0x20, tag_11)\n    /* \"@openzeppelin/contracts/access/Ownable.sol\":936:968  _transferOwnership(_msgSender()) */\n  0x20\n  shr\n  jump\t// in\ntag_8:\n    /* \"Chain Paper/liberty/ERC721.sol\":769:774  name_ */\n  dup2\n    /* \"Chain Paper/liberty/ERC721.sol\":762:766  name */\n  0x01\n    /* \"Chain Paper/liberty/ERC721.sol\":762:774  name = name_ */\n  swap1\n  dup1\n  mload\n  swap1\n  0x20\n  add\n  swap1\n  tag_13\n  swap3\n  swap2\n  swap1\n  tag_14\n  jump\t// in\ntag_13:\n  pop\n    /* \"Chain Paper/liberty/ERC721.sol\":794:801  symbol_ */\n  dup1\n    /* \"Chain Paper/liberty/ERC721.sol\":785:791  symbol */\n  0x02\n    /* \"Chain Paper/liberty/ERC721.sol\":785:801  symbol = symbol_ */\n  swap1\n  dup1\n  mload\n  swap1\n  0x20\n  add\n  swap1\n  tag_15\n  swap3\n  swap2\n  swap1\n  tag_14\n  jump\t// in\ntag_15:\n  pop\n    /* \"Chain Paper/liberty/ERC721.sol\":695:809  constructor(string memory name_, string memory symbol_) {\r... */\n  pop\n  pop\n    /* \"Chain Paper/CP.sol\":773:788  block.timestamp */\n  timestamp\n    /* \"Chain Paper/CP.sol\":761:770  startTime */\n  0x07\n    /* \"Chain Paper/CP.sol\":761:788  startTime = block.timestamp */\n  dup2\n  swap1\n  sstore\n  pop\n    /* \"Chain Paper/CP.sol\":671:796  constructor(string memory name_ , string memory symbol_) ERC721(name_, symbol_){\r... */\n  pop\n  pop\n    /* \"Chain Paper/CP.sol\":148:3095  contract CP is Ownable, ERC721 {\r... */\n  jump(tag_17)\n    /* \"@openzeppelin/contracts/utils/Context.sol\":640:736  function _msgSender() internal view virtual returns (address) {... */\ntag_10:\n    /* \"@openzeppelin/contracts/utils/Context.sol\":693:700  address */\n  0x00\n    /* \"@openzeppelin/contracts/utils/Context.sol\":719:729  msg.sender */\n  caller\n    /* \"@openzeppelin/contracts/utils/Context.sol\":712:729  return msg.sender */\n  swap1\n  pop\n    /* \"@openzeppelin/contracts/utils/Context.sol\":640:736  function _msgSender() internal view virtual returns (address) {... */\n  swap1\n  jump\t// out\n    /* \"@openzeppelin/contracts/access/Ownable.sol\":2433:2620  function _transferOwnership(address newOwner) internal virtual {... */\ntag_11:\n    /* \"@openzeppelin/contracts/access/Ownable.sol\":2506:2522  address oldOwner */\n  0x00\n    /* \"@openzeppelin/contracts/access/Ownable.sol\":2525:2531  _owner */\n  dup1\n  0x00\n  swap1\n  sload\n  swap1\n  0x0100\n  exp\n  swap1\n  div\n  0xffffffffffffffffffffffffffffffffffffffff\n  and\n    /* \"@openzeppelin/contracts/access/Ownable.sol\":2506:2531  address oldOwner = _owner */\n  swap1\n  pop\n    /* \"@openzeppelin/contracts/access/Ownable.sol\":2550:2558  newOwner */\n  dup2\n    /* \"@openzeppelin/contracts/access/Ownable.sol\":2541:2547  _owner */\n  0x00\n  dup1\n    /* \"@openzeppelin/contracts/access/Ownable.sol\":2541:2558  _owner = newOwner */\n  0x0100\n  exp\n  dup2\n  sload\n  dup2\n  0xffffffffffffffffffffffffffffffffffffffff\n  mul\n  not\n  and\n  swap1\n  dup4\n  0xffffffffffffffffffffffffffffffffffffffff\n  and\n  mul\n  or\n  swap1\n  sstore\n  pop\n    /* \"@openzeppelin/contracts/access/Ownable.sol\":2604:2612  newOwner */\n  dup2\n    /* \"@openzeppelin/contracts/access/Ownable.sol\":2573:2613  OwnershipTransferred(oldOwner, newOwner) */\n  0xffffffffffffffffffffffffffffffffffffffff\n  and\n    /* \"@openzeppelin/contracts/access/Ownable.sol\":2594:2602  oldOwner */\n  dup2\n    /* \"@openzeppelin/contracts/access/Ownable.sol\":2573:2613  OwnershipTransferred(oldOwner, newOwner) */\n  0xffffffffffffffffffffffffffffffffffffffff\n  and\n  0x8be0079c531659141344cd1fd0a4f28419497f9722a3daafe3b4186f6b6457e0\n  mload(0x40)\n  mload(0x40)\n  dup1\n  swap2\n  sub\n  swap1\n  log3\n    /* \"@openzeppelin/contracts/access/Ownable.sol\":2433:2620  function _transferOwnership(address newOwner) internal virtual {... */\n  pop\n  pop\n  jump\t// out\n    /* \"Chain Paper/CP.sol\":148:3095  contract CP is Ownable, ERC721 {\r... */\ntag_14:\n  dup3\n  dup1\n  sload\n  tag_20\n  swap1\n  tag_21\n  jump\t// in\ntag_20:\n  swap1\n  0x00\n  mstore\n  keccak256(0x00, 0x20)\n  swap1\n  0x1f\n  add\n  0x20\n  swap1\n  div\n  dup2\n  add\n  swap3\n  dup3\n  tag_23\n  jumpi\n  0x00\n  dup6\n  sstore\n  jump(tag_22)\ntag_23:\n  dup3\n  0x1f\n  lt\n  tag_24\n  jumpi\n  dup1\n  mload\n  not(0xff)\n  and\n  dup4\n  dup1\n  add\n  or\n  dup6\n  sstore\n  jump(tag_22)\ntag_24:\n  dup3\n  dup1\n  add\n  0x01\n  add\n  dup6\n  sstore\n  dup3\n  iszero\n  tag_22\n  jumpi\n  swap2\n  dup3\n  add\ntag_25:\n  dup3\n  dup2\n  gt\n  iszero\n  tag_26\n  jumpi\n  dup3\n  mload\n  dup3\n  sstore\n  swap2\n  0x20\n  add\n  swap2\n  swap1\n  0x01\n  add\n  swap1\n  jump(tag_25)\ntag_26:\ntag_22:\n  pop\n  swap1\n  pop\n  tag_27\n  swap2\n  swap1\n  tag_28\n  jump\t// in\ntag_27:\n  pop\n  swap1\n  jump\t// out\ntag_28:\ntag_29:\n  dup1\n  dup3\n  gt\n  iszero\n  tag_30\n  jumpi\n  0x00\n  dup2\n  0x00\n  swap1\n  sstore\n  pop\n  0x01\n  add\n  jump(tag_29)\ntag_30:\n  pop\n  swap1\n  jump\t// out\n    /* \"#utility.yul\":7:360   */\ntag_32:\n  0x00\n    /* \"#utility.yul\":121:186   */\n  tag_34\n    /* \"#utility.yul\":136:185   */\n  tag_35\n    /* \"#utility.yul\":178:184   */\n  dup5\n    /* \"#utility.yul\":136:185   */\n  tag_36\n  jump\t// in\ntag_35:\n    /* \"#utility.yul\":121:186   */\n  tag_37\n  jump\t// in\ntag_34:\n    /* \"#utility.yul\":112:186   */\n  swap1\n  pop\n    /* \"#utility.yul\":209:215   */\n  dup3\n    /* \"#utility.yul\":202:207   */\n  dup2\n    /* \"#utility.yul\":195:216   */\n  mstore\n    /* \"#utility.yul\":247:251   */\n  0x20\n    /* \"#utility.yul\":240:245   */\n  dup2\n    /* \"#utility.yul\":236:252   */\n  add\n    /* \"#utility.yul\":285:288   */\n  dup5\n    /* \"#utility.yul\":276:282   */\n  dup5\n    /* \"#utility.yul\":271:274   */\n  dup5\n    /* \"#utility.yul\":267:283   */\n  add\n    /* \"#utility.yul\":264:289   */\n  gt\n    /* \"#utility.yul\":261:263   */\n  iszero\n  tag_38\n  jumpi\n    /* \"#utility.yul\":302:303   */\n  0x00\n    /* \"#utility.yul\":299:300   */\n  dup1\n    /* \"#utility.yul\":292:304   */\n  revert\n    /* \"#utility.yul\":261:263   */\ntag_38:\n    /* \"#utility.yul\":315:354   */\n  tag_39\n    /* \"#utility.yul\":347:353   */\n  dup5\n    /* \"#utility.yul\":342:345   */\n  dup3\n    /* \"#utility.yul\":337:340   */\n  dup6\n    /* \"#utility.yul\":315:354   */\n  tag_40\n  jump\t// in\ntag_39:\n    /* \"#utility.yul\":102:360   */\n  pop\n  swap4\n  swap3\n  pop\n  pop\n  pop\n  jump\t// out\n    /* \"#utility.yul\":380:668   */\ntag_41:\n  0x00\n    /* \"#utility.yul\":496:499   */\n  dup3\n    /* \"#utility.yul\":489:493   */\n  0x1f\n    /* \"#utility.yul\":481:487   */\n  dup4\n    /* \"#utility.yul\":477:494   */\n  add\n    /* \"#utility.yul\":473:500   */\n  slt\n    /* \"#utility.yul\":463:465   */\n  tag_43\n  jumpi\n    /* \"#utility.yul\":514:515   */\n  0x00\n    /* \"#utility.yul\":511:512   */\n  dup1\n    /* \"#utility.yul\":504:516   */\n  revert\n    /* \"#utility.yul\":463:465   */\ntag_43:\n    /* \"#utility.yul\":547:553   */\n  dup2\n    /* \"#utility.yul\":541:554   */\n  mload\n    /* \"#utility.yul\":572:662   */\n  tag_44\n    /* \"#utility.yul\":658:661   */\n  dup5\n    /* \"#utility.yul\":650:656   */\n  dup3\n    /* \"#utility.yul\":643:647   */\n  0x20\n    /* \"#utility.yul\":635:641   */\n  dup7\n    /* \"#utility.yul\":631:648   */\n  add\n    /* \"#utility.yul\":572:662   */\n  tag_32\n  jump\t// in\ntag_44:\n    /* \"#utility.yul\":563:662   */\n  swap2\n  pop\n    /* \"#utility.yul\":453:668   */\n  pop\n  swap3\n  swap2\n  pop\n  pop\n  jump\t// out\n    /* \"#utility.yul\":674:1326   */\ntag_3:\n  0x00\n  dup1\n    /* \"#utility.yul\":830:832   */\n  0x40\n    /* \"#utility.yul\":818:827   */\n  dup4\n    /* \"#utility.yul\":809:816   */\n  dup6\n    /* \"#utility.yul\":805:828   */\n  sub\n    /* \"#utility.yul\":801:833   */\n  slt\n    /* \"#utility.yul\":798:800   */\n  iszero\n  tag_46\n  jumpi\n    /* \"#utility.yul\":846:847   */\n  0x00\n    /* \"#utility.yul\":843:844   */\n  dup1\n    /* \"#utility.yul\":836:848   */\n  revert\n    /* \"#utility.yul\":798:800   */\ntag_46:\n    /* \"#utility.yul\":910:911   */\n  0x00\n    /* \"#utility.yul\":899:908   */\n  dup4\n    /* \"#utility.yul\":895:912   */\n  add\n    /* \"#utility.yul\":889:913   */\n  mload\n    /* \"#utility.yul\":940:958   */\n  0xffffffffffffffff\n    /* \"#utility.yul\":932:938   */\n  dup2\n    /* \"#utility.yul\":929:959   */\n  gt\n    /* \"#utility.yul\":926:928   */\n  iszero\n  tag_47\n  jumpi\n    /* \"#utility.yul\":972:973   */\n  0x00\n    /* \"#utility.yul\":969:970   */\n  dup1\n    /* \"#utility.yul\":962:974   */\n  revert\n    /* \"#utility.yul\":926:928   */\ntag_47:\n    /* \"#utility.yul\":1000:1074   */\n  tag_48\n    /* \"#utility.yul\":1066:1073   */\n  dup6\n    /* \"#utility.yul\":1057:1063   */\n  dup3\n    /* \"#utility.yul\":1046:1055   */\n  dup7\n    /* \"#utility.yul\":1042:1064   */\n  add\n    /* \"#utility.yul\":1000:1074   */\n  tag_41\n  jump\t// in\ntag_48:\n    /* \"#utility.yul\":990:1074   */\n  swap3\n  pop\n    /* \"#utility.yul\":860:1084   */\n  pop\n    /* \"#utility.yul\":1144:1146   */\n  0x20\n    /* \"#utility.yul\":1133:1142   */\n  dup4\n    /* \"#utility.yul\":1129:1147   */\n  add\n    /* \"#utility.yul\":1123:1148   */\n  mload\n    /* \"#utility.yul\":1175:1193   */\n  0xffffffffffffffff\n    /* \"#utility.yul\":1167:1173   */\n  dup2\n    /* \"#utility.yul\":1164:1194   */\n  gt\n    /* \"#utility.yul\":1161:1163   */\n  iszero\n  tag_49\n  jumpi\n    /* \"#utility.yul\":1207:1208   */\n  0x00\n    /* \"#utility.yul\":1204:1205   */\n  dup1\n    /* \"#utility.yul\":1197:1209   */\n  revert\n    /* \"#utility.yul\":1161:1163   */\ntag_49:\n    /* \"#utility.yul\":1235:1309   */\n  tag_50\n    /* \"#utility.yul\":1301:1308   */\n  dup6\n    /* \"#utility.yul\":1292:1298   */\n  dup3\n    /* \"#utility.yul\":1281:1290   */\n  dup7\n    /* \"#utility.yul\":1277:1299   */\n  add\n    /* \"#utility.yul\":1235:1309   */\n  tag_41\n  jump\t// in\ntag_50:\n    /* \"#utility.yul\":1225:1309   */\n  swap2\n  pop\n    /* \"#utility.yul\":1094:1319   */\n  pop\n    /* \"#utility.yul\":788:1326   */\n  swap3\n  pop\n  swap3\n  swap1\n  pop\n  jump\t// out\n    /* \"#utility.yul\":1332:1615   */\ntag_37:\n  0x00\n    /* \"#utility.yul\":1398:1400   */\n  0x40\n    /* \"#utility.yul\":1392:1401   */\n  mload\n    /* \"#utility.yul\":1382:1401   */\n  swap1\n  pop\n    /* \"#utility.yul\":1440:1444   */\n  dup2\n    /* \"#utility.yul\":1432:1438   */\n  dup2\n    /* \"#utility.yul\":1428:1445   */\n  add\n    /* \"#utility.yul\":1547:1553   */\n  dup2\n    /* \"#utility.yul\":1535:1545   */\n  dup2\n    /* \"#utility.yul\":1532:1554   */\n  lt\n    /* \"#utility.yul\":1511:1529   */\n  0xffffffffffffffff\n    /* \"#utility.yul\":1499:1509   */\n  dup3\n    /* \"#utility.yul\":1496:1530   */\n  gt\n    /* \"#utility.yul\":1493:1555   */\n  or\n    /* \"#utility.yul\":1490:1492   */\n  iszero\n  tag_52\n  jumpi\n    /* \"#utility.yul\":1558:1576   */\n  tag_53\n  tag_54\n  jump\t// in\ntag_53:\n    /* \"#utility.yul\":1490:1492   */\ntag_52:\n    /* \"#utility.yul\":1598:1608   */\n  dup1\n    /* \"#utility.yul\":1594:1596   */\n  0x40\n    /* \"#utility.yul\":1587:1609   */\n  mstore\n    /* \"#utility.yul\":1372:1615   */\n  pop\n  swap2\n  swap1\n  pop\n  jump\t// out\n    /* \"#utility.yul\":1621:1953   */\ntag_36:\n  0x00\n    /* \"#utility.yul\":1773:1791   */\n  0xffffffffffffffff\n    /* \"#utility.yul\":1765:1771   */\n  dup3\n    /* \"#utility.yul\":1762:1792   */\n  gt\n    /* \"#utility.yul\":1759:1761   */\n  iszero\n  tag_56\n  jumpi\n    /* \"#utility.yul\":1795:1813   */\n  tag_57\n  tag_54\n  jump\t// in\ntag_57:\n    /* \"#utility.yul\":1759:1761   */\ntag_56:\n    /* \"#utility.yul\":1880:1884   */\n  0x1f\n    /* \"#utility.yul\":1876:1885   */\n  not\n    /* \"#utility.yul\":1869:1873   */\n  0x1f\n    /* \"#utility.yul\":1861:1867   */\n  dup4\n    /* \"#utility.yul\":1857:1874   */\n  add\n    /* \"#utility.yul\":1853:1886   */\n  and\n    /* \"#utility.yul\":1845:1886   */\n  swap1\n  pop\n    /* \"#utility.yul\":1941:1945   */\n  0x20\n    /* \"#utility.yul\":1935:1939   */\n  dup2\n    /* \"#utility.yul\":1931:1946   */\n  add\n    /* \"#utility.yul\":1923:1946   */\n  swap1\n  pop\n    /* \"#utility.yul\":1688:1953   */\n  swap2\n  swap1\n  pop\n  jump\t// out\n    /* \"#utility.yul\":1959:2266   */\ntag_40:\n    /* \"#utility.yul\":2027:2028   */\n  0x00\n    /* \"#utility.yul\":2037:2150   */\ntag_59:\n    /* \"#utility.yul\":2051:2057   */\n  dup4\n    /* \"#utility.yul\":2048:2049   */\n  dup2\n    /* \"#utility.yul\":2045:2058   */\n  lt\n    /* \"#utility.yul\":2037:2150   */\n  iszero\n  tag_61\n  jumpi\n    /* \"#utility.yul\":2136:2137   */\n  dup1\n    /* \"#utility.yul\":2131:2134   */\n  dup3\n    /* \"#utility.yul\":2127:2138   */\n  add\n    /* \"#utility.yul\":2121:2139   */\n  mload\n    /* \"#utility.yul\":2117:2118   */\n  dup2\n    /* \"#utility.yul\":2112:2115   */\n  dup5\n    /* \"#utility.yul\":2108:2119   */\n  add\n    /* \"#utility.yul\":2101:2140   */\n  mstore\n    /* \"#utility.yul\":2073:2075   */\n  0x20\n    /* \"#utility.yul\":2070:2071   */\n  dup2\n    /* \"#utility.yul\":2066:2076   */\n  add\n    /* \"#utility.yul\":2061:2076   */\n  swap1\n  pop\n    /* \"#utility.yul\":2037:2150   */\n  jump(tag_59)\ntag_61:\n    /* \"#utility.yul\":2168:2174   */\n  dup4\n    /* \"#utility.yul\":2165:2166   */\n  dup2\n    /* \"#utility.yul\":2162:2175   */\n  gt\n    /* \"#utility.yul\":2159:2161   */\n  iszero\n  tag_62\n  jumpi\n    /* \"#utility.yul\":2248:2249   */\n  0x00\n    /* \"#utility.yul\":2239:2245   */\n  dup5\n    /* \"#utility.yul\":2234:2237   */\n  dup5\n    /* \"#utility.yul\":2230:2246   */\n  add\n    /* \"#utility.yul\":2223:2250   */\n  mstore\n    /* \"#utility.yul\":2159:2161   */\ntag_62:\n    /* \"#utility.yul\":2008:2266   */\n  pop\n  pop\n  pop\n  pop\n  jump\t// out\n    /* \"#utility.yul\":2272:2592   */\ntag_21:\n  0x00\n    /* \"#utility.yul\":2353:2354   */\n  0x02\n    /* \"#utility.yul\":2347:2351   */\n  dup3\n    /* \"#utility.yul\":2343:2355   */\n  div\n    /* \"#utility.yul\":2333:2355   */\n  swap1\n  pop\n    /* \"#utility.yul\":2400:2401   */\n  0x01\n    /* \"#utility.yul\":2394:2398   */\n  dup3\n    /* \"#utility.yul\":2390:2402   */\n  and\n    /* \"#utility.yul\":2421:2439   */\n  dup1\n    /* \"#utility.yul\":2411:2413   */\n  tag_64\n  jumpi\n    /* \"#utility.yul\":2477:2481   */\n  0x7f\n    /* \"#utility.yul\":2469:2475   */\n  dup3\n    /* \"#utility.yul\":2465:2482   */\n  and\n    /* \"#utility.yul\":2455:2482   */\n  swap2\n  pop\n    /* \"#utility.yul\":2411:2413   */\ntag_64:\n    /* \"#utility.yul\":2539:2541   */\n  0x20\n    /* \"#utility.yul\":2531:2537   */\n  dup3\n    /* \"#utility.yul\":2528:2542   */\n  lt\n    /* \"#utility.yul\":2508:2526   */\n  dup2\n    /* \"#utility.yul\":2505:2543   */\n  eq\n    /* \"#utility.yul\":2502:2504   */\n  iszero\n  tag_65\n  jumpi\n    /* \"#utility.yul\":2558:2576   */\n  tag_66\n  tag_67\n  jump\t// in\ntag_66:\n    /* \"#utility.yul\":2502:2504   */\ntag_65:\n    /* \"#utility.yul\":2323:2592   */\n  pop\n  swap2\n  swap1\n  pop\n  jump\t// out\n    /* \"#utility.yul\":2598:2778   */\ntag_67:\n    /* \"#utility.yul\":2646:2723   */\n  0x4e487b7100000000000000000000000000000000000000000000000000000000\n    /* \"#utility.yul\":2643:2644   */\n  0x00\n    /* \"#utility.yul\":2636:2724   */\n  mstore\n    /* \"#utility.yul\":2743:2747   */\n  0x22\n    /* \"#utility.yul\":2740:2741   */\n  0x04\n    /* \"#utility.yul\":2733:2748   */\n  mstore\n    /* \"#utility.yul\":2767:2771   */\n  0x24\n    /* \"#utility.yul\":2764:2765   */\n  0x00\n    /* \"#utility.yul\":2757:2772   */\n  revert\n    /* \"#utility.yul\":2784:2964   */\ntag_54:\n    /* \"#utility.yul\":2832:2909   */\n  0x4e487b7100000000000000000000000000000000000000000000000000000000\n    /* \"#utility.yul\":2829:2830   */\n  0x00\n    /* \"#utility.yul\":2822:2910   */\n  mstore\n    /* \"#utility.yul\":2929:2933   */\n  0x41\n    /* \"#utility.yul\":2926:2927   */\n  0x04\n    /* \"#utility.yul\":2919:2934   */\n  mstore\n    /* \"#utility.yul\":2953:2957   */\n  0x24\n    /* \"#utility.yul\":2950:2951   */\n  0x00\n    /* \"#utility.yul\":2943:2958   */\n  revert\n    /* \"Chain Paper/CP.sol\":148:3095  contract CP is Ownable, ERC721 {\r... */\ntag_17:\n  dataSize(sub_0)\n  dup1\n  dataOffset(sub_0)\n  0x00\n  codecopy\n  0x00\n  return\nstop\n\nsub_0: assembly {\n        /* \"Chain Paper/CP.sol\":148:3095  contract CP is Ownable, ERC721 {\r... */\n      mstore(0x40, 0x80)\n      jumpi(tag_1, lt(calldatasize, 0x04))\n      shr(0xe0, calldataload(0x00))\n      dup1\n      0x6352211e\n      gt\n      tag_31\n      jumpi\n      dup1\n      0xb88d4fde\n      gt\n      tag_32\n      jumpi\n      dup1\n      0xda460977\n      gt\n      tag_33\n      jumpi\n      dup1\n      0xda460977\n      eq\n      tag_27\n      jumpi\n      dup1\n      0xe7572230\n      eq\n      tag_28\n      jumpi\n      dup1\n      0xe985e9c5\n      eq\n      tag_29\n      jumpi\n      dup1\n      0xf2fde38b\n      eq\n      tag_30\n      jumpi\n      jump(tag_1)\n    tag_33:\n      dup1\n      0xb88d4fde\n      eq\n      tag_23\n      jumpi\n      dup1\n      0xbeae6637\n      eq\n      tag_24\n      jumpi\n      dup1\n      0xc5e51b9e\n      eq\n      tag_25\n      jumpi\n      dup1\n      0xc87b56dd\n      eq\n      tag_26\n      jumpi\n      jump(tag_1)\n    tag_32:\n      dup1\n      0x78e97925\n      gt\n      tag_34\n      jumpi\n      dup1\n      0x78e97925\n      eq\n      tag_19\n      jumpi\n      dup1\n      0x8da5cb5b\n      eq\n      tag_20\n      jumpi\n      dup1\n      0x95d89b41\n      eq\n      tag_21\n      jumpi\n      dup1\n      0xac446002\n      eq\n      tag_22\n      jumpi\n      jump(tag_1)\n    tag_34:\n      dup1\n      0x6352211e\n      eq\n      tag_16\n      jumpi\n      dup1\n      0x70a08231\n      eq\n      tag_17\n      jumpi\n      dup1\n      0x715018a6\n      eq\n      tag_18\n      jumpi\n      jump(tag_1)\n    tag_31:\n      dup1\n      0x3609ac8f\n      gt\n      tag_35\n      jumpi\n      dup1\n      0x42842e0e\n      gt\n      tag_36\n      jumpi\n      dup1\n      0x42842e0e\n      eq\n      tag_12\n      jumpi\n      dup1\n      0x4d3554c3\n      eq\n      tag_13\n      jumpi\n      dup1\n      0x538f1672\n      eq\n      tag_14\n      jumpi\n      dup1\n      0x55f804b3\n      eq\n      tag_15\n      jumpi\n      jump(tag_1)\n    tag_36:\n      dup1\n      0x3609ac8f\n      eq\n      tag_9\n      jumpi\n      dup1\n      0x3badcb56\n      eq\n      tag_10\n      jumpi\n      dup1\n      0x3e0a322d\n      eq\n      tag_11\n      jumpi\n      jump(tag_1)\n    tag_35:\n      dup1\n      0x095ea7b3\n      gt\n      tag_37\n      jumpi\n      dup1\n      0x095ea7b3\n      eq\n      tag_5\n      jumpi\n      dup1\n      0x096dc66f\n      eq\n      tag_6\n      jumpi\n      dup1\n      0x18160ddd\n      eq\n      tag_7\n      jumpi\n      dup1\n      0x23b872dd\n      eq\n      tag_8\n      jumpi\n      jump(tag_1)\n    tag_37:\n      dup1\n      0x01ffc9a7\n      eq\n      tag_2\n      jumpi\n      dup1\n      0x06fdde03\n      eq\n      tag_3\n      jumpi\n      dup1\n      0x081812fc\n      eq\n      tag_4\n      jumpi\n    tag_1:\n      0x00\n      dup1\n      revert\n        /* \"Chain Paper/liberty/ERC721.sol\":817:1096  function supportsInterface(bytes4 interfaceId) external pure override returns(bool)  {\r... */\n    tag_2:\n      callvalue\n      dup1\n      iszero\n      tag_38\n      jumpi\n      0x00\n      dup1\n      revert\n    tag_38:\n      pop\n      tag_39\n      0x04\n      dup1\n      calldatasize\n      sub\n      dup2\n      add\n      swap1\n      tag_40\n      swap2\n      swap1\n      tag_41\n      jump\t// in\n    tag_40:\n      tag_42\n      jump\t// in\n    tag_39:\n      mload(0x40)\n      tag_43\n      swap2\n      swap1\n      tag_44\n      jump\t// in\n    tag_43:\n      mload(0x40)\n      dup1\n      swap2\n      sub\n      swap1\n      return\n        /* \"Chain Paper/liberty/ERC721.sol\":390:417  string public override name */\n    tag_3:\n      callvalue\n      dup1\n      iszero\n      tag_45\n      jumpi\n      0x00\n      dup1\n      revert\n    tag_45:\n      pop\n      tag_46\n      tag_47\n      jump\t// in\n    tag_46:\n      mload(0x40)\n      tag_48\n      swap2\n      swap1\n      tag_49\n      jump\t// in\n    tag_48:\n      mload(0x40)\n      dup1\n      swap2\n      sub\n      swap1\n      return\n        /* \"Chain Paper/liberty/ERC721.sol\":1844:2039  function getApproved(uint tokenId)external view override returns(address){\r... */\n    tag_4:\n      callvalue\n      dup1\n      iszero\n      tag_50\n      jumpi\n      0x00\n      dup1\n      revert\n    tag_50:\n      pop\n      tag_51\n      0x04\n      dup1\n      calldatasize\n      sub\n      dup2\n      add\n      swap1\n      tag_52\n      swap2\n      swap1\n      tag_53\n      jump\t// in\n    tag_52:\n      tag_54\n      jump\t// in\n    tag_51:\n      mload(0x40)\n      tag_55\n      swap2\n      swap1\n      tag_56\n      jump\t// in\n    tag_55:\n      mload(0x40)\n      dup1\n      swap2\n      sub\n      swap1\n      return\n        /* \"Chain Paper/liberty/ERC721.sol\":2210:2474  function approve(address to , uint tokenId)external override {\r... */\n    tag_5:\n      callvalue\n      dup1\n      iszero\n      tag_57\n      jumpi\n      0x00\n      dup1\n      revert\n    tag_57:\n      pop\n      tag_58\n      0x04\n      dup1\n      calldatasize\n      sub\n      dup2\n      add\n      swap1\n      tag_59\n      swap2\n      swap1\n      tag_60\n      jump\t// in\n    tag_59:\n      tag_61\n      jump\t// in\n    tag_58:\n      stop\n        /* \"Chain Paper/CP.sol\":388:434  uint public constant DROP_INTERVAL = 1 minutes */\n    tag_6:\n      callvalue\n      dup1\n      iszero\n      tag_62\n      jumpi\n      0x00\n      dup1\n      revert\n    tag_62:\n      pop\n      tag_63\n      tag_64\n      jump\t// in\n    tag_63:\n      mload(0x40)\n      tag_65\n      swap2\n      swap1\n      tag_66\n      jump\t// in\n    tag_65:\n      mload(0x40)\n      dup1\n      swap2\n      sub\n      swap1\n      return\n        /* \"Chain Paper/CP.sol\":945:1043  function totalSupply()public view virtual returns(uint){\r... */\n    tag_7:\n      callvalue\n      dup1\n      iszero\n      tag_67\n      jumpi\n      0x00\n      dup1\n      revert\n    tag_67:\n      pop\n      tag_68\n      tag_69\n      jump\t// in\n    tag_68:\n      mload(0x40)\n      tag_70\n      swap2\n      swap1\n      tag_66\n      jump\t// in\n    tag_70:\n      mload(0x40)\n      dup1\n      swap2\n      sub\n      swap1\n      return\n        /* \"Chain Paper/liberty/ERC721.sol\":3143:3390  function transferFrom(address from , address to , uint tokenId ) external override {\r... */\n    tag_8:\n      callvalue\n      dup1\n      iszero\n      tag_71\n      jumpi\n      0x00\n      dup1\n      revert\n    tag_71:\n      pop\n      tag_72\n      0x04\n      dup1\n      calldatasize\n      sub\n      dup2\n      add\n      swap1\n      tag_73\n      swap2\n      swap1\n      tag_74\n      jump\t// in\n    tag_73:\n      tag_75\n      jump\t// in\n    tag_72:\n      stop\n        /* \"Chain Paper/CP.sol\":229:271  uint public constant START_PRICE = 1 ether */\n    tag_9:\n      callvalue\n      dup1\n      iszero\n      tag_76\n      jumpi\n      0x00\n      dup1\n      revert\n    tag_76:\n      pop\n      tag_77\n      tag_78\n      jump\t// in\n    tag_77:\n      mload(0x40)\n      tag_79\n      swap2\n      swap1\n      tag_66\n      jump\t// in\n    tag_79:\n      mload(0x40)\n      dup1\n      swap2\n      sub\n      swap1\n      return\n        /* \"Chain Paper/CP.sol\":453:536  uint public constant DROP_PER_STEP = (START_PRICE - END_PRICE)/(TIME/DROP_INTERVAL) */\n    tag_10:\n      callvalue\n      dup1\n      iszero\n      tag_80\n      jumpi\n      0x00\n      dup1\n      revert\n    tag_80:\n      pop\n      tag_81\n      tag_82\n      jump\t// in\n    tag_81:\n      mload(0x40)\n      tag_83\n      swap2\n      swap1\n      tag_66\n      jump\t// in\n    tag_83:\n      mload(0x40)\n      dup1\n      swap2\n      sub\n      swap1\n      return\n        /* \"Chain Paper/CP.sol\":839:937  function setStartTime(uint _timestamp) external onlyOwner{\r... */\n    tag_11:\n      callvalue\n      dup1\n      iszero\n      tag_84\n      jumpi\n      0x00\n      dup1\n      revert\n    tag_84:\n      pop\n      tag_85\n      0x04\n      dup1\n      calldatasize\n      sub\n      dup2\n      add\n      swap1\n      tag_86\n      swap2\n      swap1\n      tag_53\n      jump\t// in\n    tag_86:\n      tag_87\n      jump\t// in\n    tag_85:\n      stop\n        /* \"Chain Paper/liberty/ERC721.sol\":3955:4140  function safeTransferFrom(address from , address to ,uint tokenId )external override{\r... */\n    tag_12:\n      callvalue\n      dup1\n      iszero\n      tag_88\n      jumpi\n      0x00\n      dup1\n      revert\n    tag_88:\n      pop\n      tag_89\n      0x04\n      dup1\n      calldatasize\n      sub\n      dup2\n      add\n      swap1\n      tag_90\n      swap2\n      swap1\n      tag_74\n      jump\t// in\n    tag_90:\n      tag_91\n      jump\t// in\n    tag_89:\n      stop\n        /* \"Chain Paper/CP.sol\":1732:2582  function auctionMint(uint tokenId)external payable{\r... */\n    tag_13:\n      tag_92\n      0x04\n      dup1\n      calldatasize\n      sub\n      dup2\n      add\n      swap1\n      tag_93\n      swap2\n      swap1\n      tag_53\n      jump\t// in\n    tag_93:\n      tag_94\n      jump\t// in\n    tag_92:\n      stop\n        /* \"Chain Paper/CP.sol\":186:222  uint public constant MAX_CPS = 10000 */\n    tag_14:\n      callvalue\n      dup1\n      iszero\n      tag_95\n      jumpi\n      0x00\n      dup1\n      revert\n    tag_95:\n      pop\n      tag_96\n      tag_97\n      jump\t// in\n    tag_96:\n      mload(0x40)\n      tag_98\n      swap2\n      swap1\n      tag_66\n      jump\t// in\n    tag_98:\n      mload(0x40)\n      dup1\n      swap2\n      sub\n      swap1\n      return\n        /* \"Chain Paper/CP.sol\":2787:2891  function setBaseURI(string calldata baseURI)external onlyOwner{\r... */\n    tag_15:\n      callvalue\n      dup1\n      iszero\n      tag_99\n      jumpi\n      0x00\n      dup1\n      revert\n    tag_99:\n      pop\n      tag_100\n      0x04\n      dup1\n      calldatasize\n      sub\n      dup2\n      add\n      swap1\n      tag_101\n      swap2\n      swap1\n      tag_102\n      jump\t// in\n    tag_101:\n      tag_103\n      jump\t// in\n    tag_100:\n      stop\n        /* \"Chain Paper/liberty/ERC721.sol\":1282:1459  function ownerOf(uint tokenId)public view override returns(address owner){\r... */\n    tag_16:\n      callvalue\n      dup1\n      iszero\n      tag_104\n      jumpi\n      0x00\n      dup1\n      revert\n    tag_104:\n      pop\n      tag_105\n      0x04\n      dup1\n      calldatasize\n      sub\n      dup2\n      add\n      swap1\n      tag_106\n      swap2\n      swap1\n      tag_53\n      jump\t// in\n    tag_106:\n      tag_107\n      jump\t// in\n    tag_105:\n      mload(0x40)\n      tag_108\n      swap2\n      swap1\n      tag_56\n      jump\t// in\n    tag_108:\n      mload(0x40)\n      dup1\n      swap2\n      sub\n      swap1\n      return\n        /* \"Chain Paper/liberty/ERC721.sol\":1104:1274  function balanceOf(address owner)external view override returns(uint){\r... */\n    tag_17:\n      callvalue\n      dup1\n      iszero\n      tag_109\n      jumpi\n      0x00\n      dup1\n      revert\n    tag_109:\n      pop\n      tag_110\n      0x04\n      dup1\n      calldatasize\n      sub\n      dup2\n      add\n      swap1\n      tag_111\n      swap2\n      swap1\n      tag_112\n      jump\t// in\n    tag_111:\n      tag_113\n      jump\t// in\n    tag_110:\n      mload(0x40)\n      tag_114\n      swap2\n      swap1\n      tag_66\n      jump\t// in\n    tag_114:\n      mload(0x40)\n      dup1\n      swap2\n      sub\n      swap1\n      return\n        /* \"@openzeppelin/contracts/access/Ownable.sol\":1831:1932  function renounceOwnership() public virtual onlyOwner {... */\n    tag_18:\n      callvalue\n      dup1\n      iszero\n      tag_115\n      jumpi\n      0x00\n      dup1\n      revert\n    tag_115:\n      pop\n      tag_116\n      tag_117\n      jump\t// in\n    tag_116:\n      stop\n        /* \"Chain Paper/CP.sol\":572:593  uint public startTime */\n    tag_19:\n      callvalue\n      dup1\n      iszero\n      tag_118\n      jumpi\n      0x00\n      dup1\n      revert\n    tag_118:\n      pop\n      tag_119\n      tag_120\n      jump\t// in\n    tag_119:\n      mload(0x40)\n      tag_121\n      swap2\n      swap1\n      tag_66\n      jump\t// in\n    tag_121:\n      mload(0x40)\n      dup1\n      swap2\n      sub\n      swap1\n      return\n        /* \"@openzeppelin/contracts/access/Ownable.sol\":1201:1286  function owner() public view virtual returns (address) {... */\n    tag_20:\n      callvalue\n      dup1\n      iszero\n      tag_122\n      jumpi\n      0x00\n      dup1\n      revert\n    tag_122:\n      pop\n      tag_123\n      tag_124\n      jump\t// in\n    tag_123:\n      mload(0x40)\n      tag_125\n      swap2\n      swap1\n      tag_56\n      jump\t// in\n    tag_125:\n      mload(0x40)\n      dup1\n      swap2\n      sub\n      swap1\n      return\n        /* \"Chain Paper/liberty/ERC721.sol\":424:453  string public override symbol */\n    tag_21:\n      callvalue\n      dup1\n      iszero\n      tag_126\n      jumpi\n      0x00\n      dup1\n      revert\n    tag_126:\n      pop\n      tag_127\n      tag_128\n      jump\t// in\n    tag_127:\n      mload(0x40)\n      tag_129\n      swap2\n      swap1\n      tag_49\n      jump\t// in\n    tag_129:\n      mload(0x40)\n      dup1\n      swap2\n      sub\n      swap1\n      return\n        /* \"Chain Paper/CP.sol\":2914:3088  function withdrawMoney()external onlyOwner{\r... */\n    tag_22:\n      callvalue\n      dup1\n      iszero\n      tag_130\n      jumpi\n      0x00\n      dup1\n      revert\n    tag_130:\n      pop\n      tag_131\n      tag_132\n      jump\t// in\n    tag_131:\n      stop\n        /* \"Chain Paper/liberty/ERC721.sol\":3651:3947  function safeTransferFrom(address from , address to ,uint tokenId , bytes memory _data)public  override{\r... */\n    tag_23:\n      callvalue\n      dup1\n      iszero\n      tag_133\n      jumpi\n      0x00\n      dup1\n      revert\n    tag_133:\n      pop\n      tag_134\n      0x04\n      dup1\n      calldatasize\n      sub\n      dup2\n      add\n      swap1\n      tag_135\n      swap2\n      swap1\n      tag_136\n      jump\t// in\n    tag_135:\n      tag_137\n      jump\t// in\n    tag_134:\n      stop\n        /* \"Chain Paper/CP.sol\":327:365  uint public constant TIME = 10 minutes */\n    tag_24:\n      callvalue\n      dup1\n      iszero\n      tag_138\n      jumpi\n      0x00\n      dup1\n      revert\n    tag_138:\n      pop\n      tag_139\n      tag_140\n      jump\t// in\n    tag_139:\n      mload(0x40)\n      tag_141\n      swap2\n      swap1\n      tag_66\n      jump\t// in\n    tag_141:\n      mload(0x40)\n      dup1\n      swap2\n      sub\n      swap1\n      return\n        /* \"Chain Paper/liberty/ERC721.sol\":1631:1836  function approvalForAll(address operator,bool approved)external override{\r... */\n    tag_25:\n      callvalue\n      dup1\n      iszero\n      tag_142\n      jumpi\n      0x00\n      dup1\n      revert\n    tag_142:\n      pop\n      tag_143\n      0x04\n      dup1\n      calldatasize\n      sub\n      dup2\n      add\n      swap1\n      tag_144\n      swap2\n      swap1\n      tag_145\n      jump\t// in\n    tag_144:\n      tag_146\n      jump\t// in\n    tag_143:\n      stop\n        /* \"Chain Paper/liberty/ERC721.sol\":5303:5612  function tokenURI(uint tokenId) public override virtual view returns(string memory){\r... */\n    tag_26:\n      callvalue\n      dup1\n      iszero\n      tag_147\n      jumpi\n      0x00\n      dup1\n      revert\n    tag_147:\n      pop\n      tag_148\n      0x04\n      dup1\n      calldatasize\n      sub\n      dup2\n      add\n      swap1\n      tag_149\n      swap2\n      swap1\n      tag_53\n      jump\t// in\n    tag_149:\n      tag_150\n      jump\t// in\n    tag_148:\n      mload(0x40)\n      tag_151\n      swap2\n      swap1\n      tag_49\n      jump\t// in\n    tag_151:\n      mload(0x40)\n      dup1\n      swap2\n      sub\n      swap1\n      return\n        /* \"Chain Paper/CP.sol\":278:320  uint public constant END_PRICE = 0.1 ether */\n    tag_27:\n      callvalue\n      dup1\n      iszero\n      tag_152\n      jumpi\n      0x00\n      dup1\n      revert\n    tag_152:\n      pop\n      tag_153\n      tag_154\n      jump\t// in\n    tag_153:\n      mload(0x40)\n      tag_155\n      swap2\n      swap1\n      tag_66\n      jump\t// in\n    tag_155:\n      mload(0x40)\n      dup1\n      swap2\n      sub\n      swap1\n      return\n        /* \"Chain Paper/CP.sol\":1227:1700  function getPrice(uint _startTime)public view returns(uint){\r... */\n    tag_28:\n      callvalue\n      dup1\n      iszero\n      tag_156\n      jumpi\n      0x00\n      dup1\n      revert\n    tag_156:\n      pop\n      tag_157\n      0x04\n      dup1\n      calldatasize\n      sub\n      dup2\n      add\n      swap1\n      tag_158\n      swap2\n      swap1\n      tag_53\n      jump\t// in\n    tag_158:\n      tag_159\n      jump\t// in\n    tag_157:\n      mload(0x40)\n      tag_160\n      swap2\n      swap1\n      tag_66\n      jump\t// in\n    tag_160:\n      mload(0x40)\n      dup1\n      swap2\n      sub\n      swap1\n      return\n        /* \"Chain Paper/liberty/ERC721.sol\":1469:1623  function isApprovedForAll(address owner,address operator)external view override returns(bool){\r... */\n    tag_29:\n      callvalue\n      dup1\n      iszero\n      tag_161\n      jumpi\n      0x00\n      dup1\n      revert\n    tag_161:\n      pop\n      tag_162\n      0x04\n      dup1\n      calldatasize\n      sub\n      dup2\n      add\n      swap1\n      tag_163\n      swap2\n      swap1\n      tag_164\n      jump\t// in\n    tag_163:\n      tag_165\n      jump\t// in\n    tag_162:\n      mload(0x40)\n      tag_166\n      swap2\n      swap1\n      tag_44\n      jump\t// in\n    tag_166:\n      mload(0x40)\n      dup1\n      swap2\n      sub\n      swap1\n      return\n        /* \"@openzeppelin/contracts/access/Ownable.sol\":2081:2279  function transferOwnership(address newOwner) public virtual onlyOwner {... */\n    tag_30:\n      callvalue\n      dup1\n      iszero\n      tag_167\n      jumpi\n      0x00\n      dup1\n      revert\n    tag_167:\n      pop\n      tag_168\n      0x04\n      dup1\n      calldatasize\n      sub\n      dup2\n      add\n      swap1\n      tag_169\n      swap2\n      swap1\n      tag_112\n      jump\t// in\n    tag_169:\n      tag_170\n      jump\t// in\n    tag_168:\n      stop\n        /* \"Chain Paper/liberty/ERC721.sol\":817:1096  function supportsInterface(bytes4 interfaceId) external pure override returns(bool)  {\r... */\n    tag_42:\n        /* \"Chain Paper/liberty/ERC721.sol\":895:899  bool */\n      0x00\n        /* \"Chain Paper/liberty/ERC721.sol\":935:960  type(IERC721).interfaceId */\n      0xe765f73600000000000000000000000000000000000000000000000000000000\n        /* \"Chain Paper/liberty/ERC721.sol\":920:960  interfaceId == type(IERC721).interfaceId */\n      not(0xffffffffffffffffffffffffffffffffffffffffffffffffffffffff)\n      and\n        /* \"Chain Paper/liberty/ERC721.sol\":920:931  interfaceId */\n      dup3\n        /* \"Chain Paper/liberty/ERC721.sol\":920:960  interfaceId == type(IERC721).interfaceId */\n      not(0xffffffffffffffffffffffffffffffffffffffffffffffffffffffff)\n      and\n      eq\n        /* \"Chain Paper/liberty/ERC721.sol\":920:1020  interfaceId == type(IERC721).interfaceId ||\r... */\n      dup1\n      tag_172\n      jumpi\n      pop\n        /* \"Chain Paper/liberty/ERC721.sol\":995:1020  type(IERC165).interfaceId */\n      0x01ffc9a700000000000000000000000000000000000000000000000000000000\n        /* \"Chain Paper/liberty/ERC721.sol\":980:1020  interfaceId == type(IERC165).interfaceId */\n      not(0xffffffffffffffffffffffffffffffffffffffffffffffffffffffff)\n      and\n        /* \"Chain Paper/liberty/ERC721.sol\":980:991  interfaceId */\n      dup3\n        /* \"Chain Paper/liberty/ERC721.sol\":980:1020  interfaceId == type(IERC165).interfaceId */\n      not(0xffffffffffffffffffffffffffffffffffffffffffffffffffffffff)\n      and\n      eq\n        /* \"Chain Paper/liberty/ERC721.sol\":920:1020  interfaceId == type(IERC721).interfaceId ||\r... */\n    tag_172:\n        /* \"Chain Paper/liberty/ERC721.sol\":920:1088  interfaceId == type(IERC721).interfaceId ||\r... */\n      dup1\n      tag_173\n      jumpi\n      pop\n        /* \"Chain Paper/liberty/ERC721.sol\":1055:1088  type(IERC721Metadata).interfaceId */\n      0x5b5e139f00000000000000000000000000000000000000000000000000000000\n        /* \"Chain Paper/liberty/ERC721.sol\":1040:1088  interfaceId == type(IERC721Metadata).interfaceId */\n      not(0xffffffffffffffffffffffffffffffffffffffffffffffffffffffff)\n      and\n        /* \"Chain Paper/liberty/ERC721.sol\":1040:1051  interfaceId */\n      dup3\n        /* \"Chain Paper/liberty/ERC721.sol\":1040:1088  interfaceId == type(IERC721Metadata).interfaceId */\n      not(0xffffffffffffffffffffffffffffffffffffffffffffffffffffffff)\n      and\n      eq\n        /* \"Chain Paper/liberty/ERC721.sol\":920:1088  interfaceId == type(IERC721).interfaceId ||\r... */\n    tag_173:\n        /* \"Chain Paper/liberty/ERC721.sol\":913:1088  return interfaceId == type(IERC721).interfaceId ||\r... */\n      swap1\n      pop\n        /* \"Chain Paper/liberty/ERC721.sol\":817:1096  function supportsInterface(bytes4 interfaceId) external pure override returns(bool)  {\r... */\n      swap2\n      swap1\n      pop\n      jump\t// out\n        /* \"Chain Paper/liberty/ERC721.sol\":390:417  string public override name */\n    tag_47:\n      0x01\n      dup1\n      sload\n      tag_174\n      swap1\n      tag_175\n      jump\t// in\n    tag_174:\n      dup1\n      0x1f\n      add\n      0x20\n      dup1\n      swap2\n      div\n      mul\n      0x20\n      add\n      mload(0x40)\n      swap1\n      dup2\n      add\n      0x40\n      mstore\n      dup1\n      swap3\n      swap2\n      swap1\n      dup2\n      dup2\n      mstore\n      0x20\n      add\n      dup3\n      dup1\n      sload\n      tag_176\n      swap1\n      tag_175\n      jump\t// in\n    tag_176:\n      dup1\n      iszero\n      tag_177\n      jumpi\n      dup1\n      0x1f\n      lt\n      tag_178\n      jumpi\n      0x0100\n      dup1\n      dup4\n      sload\n      div\n      mul\n      dup4\n      mstore\n      swap2\n      0x20\n      add\n      swap2\n      jump(tag_177)\n    tag_178:\n      dup3\n      add\n      swap2\n      swap1\n      0x00\n      mstore\n      keccak256(0x00, 0x20)\n      swap1\n    tag_179:\n      dup2\n      sload\n      dup2\n      mstore\n      swap1\n      0x01\n      add\n      swap1\n      0x20\n      add\n      dup1\n      dup4\n      gt\n      tag_179\n      jumpi\n      dup3\n      swap1\n      sub\n      0x1f\n      and\n      dup3\n      add\n      swap2\n    tag_177:\n      pop\n      pop\n      pop\n      pop\n      pop\n      dup2\n      jump\t// out\n        /* \"Chain Paper/liberty/ERC721.sol\":1844:2039  function getApproved(uint tokenId)external view override returns(address){\r... */\n    tag_54:\n        /* \"Chain Paper/liberty/ERC721.sol\":1909:1916  address */\n      0x00\n        /* \"Chain Paper/liberty/ERC721.sol\":1964:1965  0 */\n      dup1\n        /* \"Chain Paper/liberty/ERC721.sol\":1936:1966  _owners[tokenId] != address(0) */\n      0xffffffffffffffffffffffffffffffffffffffff\n      and\n        /* \"Chain Paper/liberty/ERC721.sol\":1936:1943  _owners */\n      0x03\n        /* \"Chain Paper/liberty/ERC721.sol\":1936:1952  _owners[tokenId] */\n      0x00\n        /* \"Chain Paper/liberty/ERC721.sol\":1944:1951  tokenId */\n      dup5\n        /* \"Chain Paper/liberty/ERC721.sol\":1936:1952  _owners[tokenId] */\n      dup2\n      mstore\n      0x20\n      add\n      swap1\n      dup2\n      mstore\n      0x20\n      add\n      0x00\n      keccak256\n      0x00\n      swap1\n      sload\n      swap1\n      0x0100\n      exp\n      swap1\n      div\n      0xffffffffffffffffffffffffffffffffffffffff\n      and\n        /* \"Chain Paper/liberty/ERC721.sol\":1936:1966  _owners[tokenId] != address(0) */\n      0xffffffffffffffffffffffffffffffffffffffff\n      and\n      eq\n      iszero\n        /* \"Chain Paper/liberty/ERC721.sol\":1928:1989  require(_owners[tokenId] != address(0),\"token doesn't exist\") */\n      tag_181\n      jumpi\n      mload(0x40)\n      0x08c379a000000000000000000000000000000000000000000000000000000000\n      dup2\n      mstore\n      0x04\n      add\n      tag_182\n      swap1\n      tag_183\n      jump\t// in\n    tag_182:\n      mload(0x40)\n      dup1\n      swap2\n      sub\n      swap1\n      revert\n    tag_181:\n        /* \"Chain Paper/liberty/ERC721.sol\":2007:2022  _tokenApprovals */\n      0x05\n        /* \"Chain Paper/liberty/ERC721.sol\":2007:2031  _tokenApprovals[tokenId] */\n      0x00\n        /* \"Chain Paper/liberty/ERC721.sol\":2023:2030  tokenId */\n      dup4\n        /* \"Chain Paper/liberty/ERC721.sol\":2007:2031  _tokenApprovals[tokenId] */\n      dup2\n      mstore\n      0x20\n      add\n      swap1\n      dup2\n      mstore\n      0x20\n      add\n      0x00\n      keccak256\n      0x00\n      swap1\n      sload\n      swap1\n      0x0100\n      exp\n      swap1\n      div\n      0xffffffffffffffffffffffffffffffffffffffff\n      and\n        /* \"Chain Paper/liberty/ERC721.sol\":2000:2031  return _tokenApprovals[tokenId] */\n      swap1\n      pop\n        /* \"Chain Paper/liberty/ERC721.sol\":1844:2039  function getApproved(uint tokenId)external view override returns(address){\r... */\n      swap2\n      swap1\n      pop\n      jump\t// out\n        /* \"Chain Paper/liberty/ERC721.sol\":2210:2474  function approve(address to , uint tokenId)external override {\r... */\n    tag_61:\n        /* \"Chain Paper/liberty/ERC721.sol\":2282:2295  address owner */\n      0x00\n        /* \"Chain Paper/liberty/ERC721.sol\":2298:2305  _owners */\n      0x03\n        /* \"Chain Paper/liberty/ERC721.sol\":2298:2314  _owners[tokenId] */\n      0x00\n        /* \"Chain Paper/liberty/ERC721.sol\":2306:2313  tokenId */\n      dup4\n        /* \"Chain Paper/liberty/ERC721.sol\":2298:2314  _owners[tokenId] */\n      dup2\n      mstore\n      0x20\n      add\n      swap1\n      dup2\n      mstore\n      0x20\n      add\n      0x00\n      keccak256\n      0x00\n      swap1\n      sload\n      swap1\n      0x0100\n      exp\n      swap1\n      div\n      0xffffffffffffffffffffffffffffffffffffffff\n      and\n        /* \"Chain Paper/liberty/ERC721.sol\":2282:2314  address owner = _owners[tokenId] */\n      swap1\n      pop\n        /* \"Chain Paper/liberty/ERC721.sol\":2347:2352  owner */\n      dup1\n        /* \"Chain Paper/liberty/ERC721.sol\":2333:2352  msg.sender == owner */\n      0xffffffffffffffffffffffffffffffffffffffff\n      and\n        /* \"Chain Paper/liberty/ERC721.sol\":2333:2343  msg.sender */\n      caller\n        /* \"Chain Paper/liberty/ERC721.sol\":2333:2352  msg.sender == owner */\n      0xffffffffffffffffffffffffffffffffffffffff\n      and\n      eq\n        /* \"Chain Paper/liberty/ERC721.sol\":2333:2393  msg.sender == owner || _operatorApprovals[owner][msg.sender] */\n      dup1\n      tag_185\n      jumpi\n      pop\n        /* \"Chain Paper/liberty/ERC721.sol\":2356:2374  _operatorApprovals */\n      0x06\n        /* \"Chain Paper/liberty/ERC721.sol\":2356:2381  _operatorApprovals[owner] */\n      0x00\n        /* \"Chain Paper/liberty/ERC721.sol\":2375:2380  owner */\n      dup3\n        /* \"Chain Paper/liberty/ERC721.sol\":2356:2381  _operatorApprovals[owner] */\n      0xffffffffffffffffffffffffffffffffffffffff\n      and\n      0xffffffffffffffffffffffffffffffffffffffff\n      and\n      dup2\n      mstore\n      0x20\n      add\n      swap1\n      dup2\n      mstore\n      0x20\n      add\n      0x00\n      keccak256\n        /* \"Chain Paper/liberty/ERC721.sol\":2356:2393  _operatorApprovals[owner][msg.sender] */\n      0x00\n        /* \"Chain Paper/liberty/ERC721.sol\":2382:2392  msg.sender */\n      caller\n        /* \"Chain Paper/liberty/ERC721.sol\":2356:2393  _operatorApprovals[owner][msg.sender] */\n      0xffffffffffffffffffffffffffffffffffffffff\n      and\n      0xffffffffffffffffffffffffffffffffffffffff\n      and\n      dup2\n      mstore\n      0x20\n      add\n      swap1\n      dup2\n      mstore\n      0x20\n      add\n      0x00\n      keccak256\n      0x00\n      swap1\n      sload\n      swap1\n      0x0100\n      exp\n      swap1\n      div\n      0xff\n      and\n        /* \"Chain Paper/liberty/ERC721.sol\":2333:2393  msg.sender == owner || _operatorApprovals[owner][msg.sender] */\n    tag_185:\n        /* \"Chain Paper/liberty/ERC721.sol\":2325:2426  require(msg.sender == owner || _operatorApprovals[owner][msg.sender],\"not owner or approved for all\") */\n      tag_186\n      jumpi\n      mload(0x40)\n      0x08c379a000000000000000000000000000000000000000000000000000000000\n      dup2\n      mstore\n      0x04\n      add\n      tag_187\n      swap1\n      tag_188\n      jump\t// in\n    tag_187:\n      mload(0x40)\n      dup1\n      swap2\n      sub\n      swap1\n      revert\n    tag_186:\n        /* \"Chain Paper/liberty/ERC721.sol\":2437:2466  _approve(owner, to , tokenId) */\n      tag_189\n        /* \"Chain Paper/liberty/ERC721.sol\":2446:2451  owner */\n      dup2\n        /* \"Chain Paper/liberty/ERC721.sol\":2453:2455  to */\n      dup5\n        /* \"Chain Paper/liberty/ERC721.sol\":2458:2465  tokenId */\n      dup5\n        /* \"Chain Paper/liberty/ERC721.sol\":2437:2445  _approve */\n      tag_190\n        /* \"Chain Paper/liberty/ERC721.sol\":2437:2466  _approve(owner, to , tokenId) */\n      jump\t// in\n    tag_189:\n        /* \"Chain Paper/liberty/ERC721.sol\":2210:2474  function approve(address to , uint tokenId)external override {\r... */\n      pop\n      pop\n      pop\n      jump\t// out\n        /* \"Chain Paper/CP.sol\":388:434  uint public constant DROP_INTERVAL = 1 minutes */\n    tag_64:\n        /* \"Chain Paper/CP.sol\":425:434  1 minutes */\n      0x3c\n        /* \"Chain Paper/CP.sol\":388:434  uint public constant DROP_INTERVAL = 1 minutes */\n      dup2\n      jump\t// out\n        /* \"Chain Paper/CP.sol\":945:1043  function totalSupply()public view virtual returns(uint){\r... */\n    tag_69:\n        /* \"Chain Paper/CP.sol\":995:999  uint */\n      0x00\n        /* \"Chain Paper/CP.sol\":1018:1028  _allTokens */\n      0x09\n        /* \"Chain Paper/CP.sol\":1018:1035  _allTokens.length */\n      dup1\n      sload\n      swap1\n      pop\n        /* \"Chain Paper/CP.sol\":1011:1035  return _allTokens.length */\n      swap1\n      pop\n        /* \"Chain Paper/CP.sol\":945:1043  function totalSupply()public view virtual returns(uint){\r... */\n      swap1\n      jump\t// out\n        /* \"Chain Paper/liberty/ERC721.sol\":3143:3390  function transferFrom(address from , address to , uint tokenId ) external override {\r... */\n    tag_75:\n        /* \"Chain Paper/liberty/ERC721.sol\":3237:3250  address owner */\n      0x00\n        /* \"Chain Paper/liberty/ERC721.sol\":3253:3269  ownerOf(tokenId) */\n      tag_193\n        /* \"Chain Paper/liberty/ERC721.sol\":3261:3268  tokenId */\n      dup3\n        /* \"Chain Paper/liberty/ERC721.sol\":3253:3260  ownerOf */\n      tag_107\n        /* \"Chain Paper/liberty/ERC721.sol\":3253:3269  ownerOf(tokenId) */\n      jump\t// in\n    tag_193:\n        /* \"Chain Paper/liberty/ERC721.sol\":3237:3269  address owner = ownerOf(tokenId) */\n      swap1\n      pop\n        /* \"Chain Paper/liberty/ERC721.sol\":3289:3335  _isApprovedOrOwner(owner , msg.sender,tokenId) */\n      tag_194\n        /* \"Chain Paper/liberty/ERC721.sol\":3308:3313  owner */\n      dup2\n        /* \"Chain Paper/liberty/ERC721.sol\":3316:3326  msg.sender */\n      caller\n        /* \"Chain Paper/liberty/ERC721.sol\":3327:3334  tokenId */\n      dup5\n        /* \"Chain Paper/liberty/ERC721.sol\":3289:3307  _isApprovedOrOwner */\n      tag_195\n        /* \"Chain Paper/liberty/ERC721.sol\":3289:3335  _isApprovedOrOwner(owner , msg.sender,tokenId) */\n      jump\t// in\n    tag_194:\n        /* \"Chain Paper/liberty/ERC721.sol\":3280:3336  require( _isApprovedOrOwner(owner , msg.sender,tokenId)) */\n      tag_196\n      jumpi\n      0x00\n      dup1\n      revert\n    tag_196:\n        /* \"Chain Paper/liberty/ERC721.sol\":3350:3382  _transfer(owner,from,to,tokenId) */\n      tag_197\n        /* \"Chain Paper/liberty/ERC721.sol\":3360:3365  owner */\n      dup2\n        /* \"Chain Paper/liberty/ERC721.sol\":3366:3370  from */\n      dup6\n        /* \"Chain Paper/liberty/ERC721.sol\":3371:3373  to */\n      dup6\n        /* \"Chain Paper/liberty/ERC721.sol\":3374:3381  tokenId */\n      dup6\n        /* \"Chain Paper/liberty/ERC721.sol\":3350:3359  _transfer */\n      tag_198\n        /* \"Chain Paper/liberty/ERC721.sol\":3350:3382  _transfer(owner,from,to,tokenId) */\n      jump\t// in\n    tag_197:\n        /* \"Chain Paper/liberty/ERC721.sol\":3143:3390  function transferFrom(address from , address to , uint tokenId ) external override {\r... */\n      pop\n      pop\n      pop\n      pop\n      jump\t// out\n        /* \"Chain Paper/CP.sol\":229:271  uint public constant START_PRICE = 1 ether */\n    tag_78:\n        /* \"Chain Paper/CP.sol\":264:271  1 ether */\n      0x0de0b6b3a7640000\n        /* \"Chain Paper/CP.sol\":229:271  uint public constant START_PRICE = 1 ether */\n      dup2\n      jump\t// out\n        /* \"Chain Paper/CP.sol\":453:536  uint public constant DROP_PER_STEP = (START_PRICE - END_PRICE)/(TIME/DROP_INTERVAL) */\n    tag_82:\n        /* \"Chain Paper/CP.sol\":425:434  1 minutes */\n      0x3c\n        /* \"Chain Paper/CP.sol\":355:365  10 minutes */\n      0x0258\n        /* \"Chain Paper/CP.sol\":517:535  TIME/DROP_INTERVAL */\n      tag_199\n      swap2\n      swap1\n      tag_200\n      jump\t// in\n    tag_199:\n        /* \"Chain Paper/CP.sol\":311:320  0.1 ether */\n      0x016345785d8a0000\n        /* \"Chain Paper/CP.sol\":264:271  1 ether */\n      0x0de0b6b3a7640000\n        /* \"Chain Paper/CP.sol\":491:514  START_PRICE - END_PRICE */\n      tag_201\n      swap2\n      swap1\n      tag_202\n      jump\t// in\n    tag_201:\n        /* \"Chain Paper/CP.sol\":490:536  (START_PRICE - END_PRICE)/(TIME/DROP_INTERVAL) */\n      tag_203\n      swap2\n      swap1\n      tag_200\n      jump\t// in\n    tag_203:\n        /* \"Chain Paper/CP.sol\":453:536  uint public constant DROP_PER_STEP = (START_PRICE - END_PRICE)/(TIME/DROP_INTERVAL) */\n      dup2\n      jump\t// out\n        /* \"Chain Paper/CP.sol\":839:937  function setStartTime(uint _timestamp) external onlyOwner{\r... */\n    tag_87:\n        /* \"@openzeppelin/contracts/access/Ownable.sol\":1094:1107  _checkOwner() */\n      tag_205\n        /* \"@openzeppelin/contracts/access/Ownable.sol\":1094:1105  _checkOwner */\n      tag_206\n        /* \"@openzeppelin/contracts/access/Ownable.sol\":1094:1107  _checkOwner() */\n      jump\t// in\n    tag_205:\n        /* \"Chain Paper/CP.sol\":919:929  _timestamp */\n      dup1\n        /* \"Chain Paper/CP.sol\":907:916  startTime */\n      0x07\n        /* \"Chain Paper/CP.sol\":907:929  startTime = _timestamp */\n      dup2\n      swap1\n      sstore\n      pop\n        /* \"Chain Paper/CP.sol\":839:937  function setStartTime(uint _timestamp) external onlyOwner{\r... */\n      pop\n      jump\t// out\n        /* \"Chain Paper/liberty/ERC721.sol\":3955:4140  function safeTransferFrom(address from , address to ,uint tokenId )external override{\r... */\n    tag_91:\n        /* \"Chain Paper/liberty/ERC721.sol\":4050:4063  address owner */\n      0x00\n        /* \"Chain Paper/liberty/ERC721.sol\":4066:4082  ownerOf(tokenId) */\n      tag_209\n        /* \"Chain Paper/liberty/ERC721.sol\":4074:4081  tokenId */\n      dup3\n        /* \"Chain Paper/liberty/ERC721.sol\":4066:4073  ownerOf */\n      tag_107\n        /* \"Chain Paper/liberty/ERC721.sol\":4066:4082  ownerOf(tokenId) */\n      jump\t// in\n    tag_209:\n        /* \"Chain Paper/liberty/ERC721.sol\":4050:4082  address owner = ownerOf(tokenId) */\n      swap1\n      pop\n        /* \"Chain Paper/liberty/ERC721.sol\":4093:4132  _safeTransfer(owner,from,to,tokenId,\"\") */\n      tag_210\n        /* \"Chain Paper/liberty/ERC721.sol\":4107:4112  owner */\n      dup2\n        /* \"Chain Paper/liberty/ERC721.sol\":4113:4117  from */\n      dup6\n        /* \"Chain Paper/liberty/ERC721.sol\":4118:4120  to */\n      dup6\n        /* \"Chain Paper/liberty/ERC721.sol\":4121:4128  tokenId */\n      dup6\n        /* \"Chain Paper/liberty/ERC721.sol\":4093:4132  _safeTransfer(owner,from,to,tokenId,\"\") */\n      mload(0x40)\n      dup1\n      0x20\n      add\n      0x40\n      mstore\n      dup1\n      0x00\n      dup2\n      mstore\n      pop\n        /* \"Chain Paper/liberty/ERC721.sol\":4093:4106  _safeTransfer */\n      tag_211\n        /* \"Chain Paper/liberty/ERC721.sol\":4093:4132  _safeTransfer(owner,from,to,tokenId,\"\") */\n      jump\t// in\n    tag_210:\n        /* \"Chain Paper/liberty/ERC721.sol\":3955:4140  function safeTransferFrom(address from , address to ,uint tokenId )external override{\r... */\n      pop\n      pop\n      pop\n      pop\n      jump\t// out\n        /* \"Chain Paper/CP.sol\":1732:2582  function auctionMint(uint tokenId)external payable{\r... */\n    tag_94:\n        /* \"Chain Paper/CP.sol\":1795:1810  uint _startTime */\n      0x00\n        /* \"Chain Paper/CP.sol\":1818:1827  startTime */\n      sload(0x07)\n        /* \"Chain Paper/CP.sol\":1795:1828  uint _startTime = uint(startTime) */\n      swap1\n      pop\n        /* \"Chain Paper/CP.sol\":1895:1896  0 */\n      0x00\n        /* \"Chain Paper/CP.sol\":1881:1891  _startTime */\n      dup2\n        /* \"Chain Paper/CP.sol\":1881:1896  _startTime != 0 */\n      eq\n      iszero\n        /* \"Chain Paper/CP.sol\":1881:1929  _startTime != 0 && block.timestamp >= _startTime */\n      dup1\n      iszero\n      tag_213\n      jumpi\n      pop\n        /* \"Chain Paper/CP.sol\":1919:1929  _startTime */\n      dup1\n        /* \"Chain Paper/CP.sol\":1900:1915  block.timestamp */\n      timestamp\n        /* \"Chain Paper/CP.sol\":1900:1929  block.timestamp >= _startTime */\n      lt\n      iszero\n        /* \"Chain Paper/CP.sol\":1881:1929  _startTime != 0 && block.timestamp >= _startTime */\n    tag_213:\n        /* \"Chain Paper/CP.sol\":1873:1957  require(_startTime != 0 && block.timestamp >= _startTime,\"sale has not started yet\") */\n      tag_214\n      jumpi\n      mload(0x40)\n      0x08c379a000000000000000000000000000000000000000000000000000000000\n      dup2\n      mstore\n      0x04\n      add\n      tag_215\n      swap1\n      tag_216\n      jump\t// in\n    tag_215:\n      mload(0x40)\n      dup1\n      swap2\n      sub\n      swap1\n      revert\n    tag_214:\n        /* \"Chain Paper/CP.sol\":217:222  10000 */\n      0x2710\n        /* \"Chain Paper/CP.sol\":2021:2022  1 */\n      0x01\n        /* \"Chain Paper/CP.sol\":2005:2018  totalSupply() */\n      tag_217\n        /* \"Chain Paper/CP.sol\":2005:2016  totalSupply */\n      tag_69\n        /* \"Chain Paper/CP.sol\":2005:2018  totalSupply() */\n      jump\t// in\n    tag_217:\n        /* \"Chain Paper/CP.sol\":2005:2022  totalSupply() + 1 */\n      tag_218\n      swap2\n      swap1\n      tag_219\n      jump\t// in\n    tag_218:\n        /* \"Chain Paper/CP.sol\":2005:2033  totalSupply() + 1 <= MAX_CPS */\n      gt\n      iszero\n        /* \"Chain Paper/CP.sol\":1997:2109  require(totalSupply() + 1 <= MAX_CPS,\"not enough remaining reserved for auction to support desired mint amount\") */\n      tag_220\n      jumpi\n      mload(0x40)\n      0x08c379a000000000000000000000000000000000000000000000000000000000\n      dup2\n      mstore\n      0x04\n      add\n      tag_221\n      swap1\n      tag_222\n      jump\t// in\n    tag_221:\n      mload(0x40)\n      dup1\n      swap2\n      sub\n      swap1\n      revert\n    tag_220:\n        /* \"Chain Paper/CP.sol\":2153:2162  uint cost */\n      0x00\n        /* \"Chain Paper/CP.sol\":2165:2185  getPrice(_startTime) */\n      tag_223\n        /* \"Chain Paper/CP.sol\":2174:2184  _startTime */\n      dup3\n        /* \"Chain Paper/CP.sol\":2165:2173  getPrice */\n      tag_159\n        /* \"Chain Paper/CP.sol\":2165:2185  getPrice(_startTime) */\n      jump\t// in\n    tag_223:\n        /* \"Chain Paper/CP.sol\":2153:2185  uint cost = getPrice(_startTime) */\n      swap1\n      pop\n        /* \"Chain Paper/CP.sol\":2278:2282  cost */\n      dup1\n        /* \"Chain Paper/CP.sol\":2265:2274  msg.value */\n      callvalue\n        /* \"Chain Paper/CP.sol\":2265:2282  msg.value >= cost */\n      lt\n      iszero\n        /* \"Chain Paper/CP.sol\":2257:2309  require(msg.value >= cost, \"Need to send more ETH.\") */\n      tag_224\n      jumpi\n      mload(0x40)\n      0x08c379a000000000000000000000000000000000000000000000000000000000\n      dup2\n      mstore\n      0x04\n      add\n      tag_225\n      swap1\n      tag_226\n      jump\t// in\n    tag_225:\n      mload(0x40)\n      dup1\n      swap2\n      sub\n      swap1\n      revert\n    tag_224:\n        /* \"Chain Paper/CP.sol\":2357:2382  _mint(msg.sender,tokenId) */\n      tag_227\n        /* \"Chain Paper/CP.sol\":2363:2373  msg.sender */\n      caller\n        /* \"Chain Paper/CP.sol\":2374:2381  tokenId */\n      dup5\n        /* \"Chain Paper/CP.sol\":2357:2362  _mint */\n      tag_228\n        /* \"Chain Paper/CP.sol\":2357:2382  _mint(msg.sender,tokenId) */\n      jump\t// in\n    tag_227:\n        /* \"Chain Paper/CP.sol\":2393:2433  _addTokenToAllTokensEnumeration(tokenId) */\n      tag_229\n        /* \"Chain Paper/CP.sol\":2425:2432  tokenId */\n      dup4\n        /* \"Chain Paper/CP.sol\":2393:2424  _addTokenToAllTokensEnumeration */\n      tag_230\n        /* \"Chain Paper/CP.sol\":2393:2433  _addTokenToAllTokensEnumeration(tokenId) */\n      jump\t// in\n    tag_229:\n        /* \"Chain Paper/CP.sol\":2494:2498  cost */\n      dup1\n        /* \"Chain Paper/CP.sol\":2482:2491  msg.value */\n      callvalue\n        /* \"Chain Paper/CP.sol\":2482:2498  msg.value > cost */\n      gt\n        /* \"Chain Paper/CP.sol\":2478:2573  if (msg.value > cost) {\r... */\n      iszero\n      tag_231\n      jumpi\n        /* \"Chain Paper/CP.sol\":2523:2533  msg.sender */\n      caller\n        /* \"Chain Paper/CP.sol\":2515:2543  payable(msg.sender).transfer */\n      0xffffffffffffffffffffffffffffffffffffffff\n      and\n        /* \"Chain Paper/CP.sol\":2515:2561  payable(msg.sender).transfer(msg.value - cost) */\n      0x08fc\n        /* \"Chain Paper/CP.sol\":2556:2560  cost */\n      dup3\n        /* \"Chain Paper/CP.sol\":2544:2553  msg.value */\n      callvalue\n        /* \"Chain Paper/CP.sol\":2544:2560  msg.value - cost */\n      tag_232\n      swap2\n      swap1\n      tag_202\n      jump\t// in\n    tag_232:\n        /* \"Chain Paper/CP.sol\":2515:2561  payable(msg.sender).transfer(msg.value - cost) */\n      swap1\n      dup2\n      iszero\n      mul\n      swap1\n      mload(0x40)\n      0x00\n      mload(0x40)\n      dup1\n      dup4\n      sub\n      dup2\n      dup6\n      dup9\n      dup9\n      call\n      swap4\n      pop\n      pop\n      pop\n      pop\n      iszero\n      dup1\n      iszero\n      tag_234\n      jumpi\n      returndatasize\n      0x00\n      dup1\n      returndatacopy\n      revert(0x00, returndatasize)\n    tag_234:\n      pop\n        /* \"Chain Paper/CP.sol\":2478:2573  if (msg.value > cost) {\r... */\n    tag_231:\n        /* \"Chain Paper/CP.sol\":1732:2582  function auctionMint(uint tokenId)external payable{\r... */\n      pop\n      pop\n      pop\n      jump\t// out\n        /* \"Chain Paper/CP.sol\":186:222  uint public constant MAX_CPS = 10000 */\n    tag_97:\n        /* \"Chain Paper/CP.sol\":217:222  10000 */\n      0x2710\n        /* \"Chain Paper/CP.sol\":186:222  uint public constant MAX_CPS = 10000 */\n      dup2\n      jump\t// out\n        /* \"Chain Paper/CP.sol\":2787:2891  function setBaseURI(string calldata baseURI)external onlyOwner{\r... */\n    tag_103:\n        /* \"@openzeppelin/contracts/access/Ownable.sol\":1094:1107  _checkOwner() */\n      tag_236\n        /* \"@openzeppelin/contracts/access/Ownable.sol\":1094:1105  _checkOwner */\n      tag_206\n        /* \"@openzeppelin/contracts/access/Ownable.sol\":1094:1107  _checkOwner() */\n      jump\t// in\n    tag_236:\n        /* \"Chain Paper/CP.sol\":2876:2883  baseURI */\n      dup2\n      dup2\n        /* \"Chain Paper/CP.sol\":2860:2873  _baseTokenURI */\n      0x08\n        /* \"Chain Paper/CP.sol\":2860:2883  _baseTokenURI = baseURI */\n      swap2\n      swap1\n      tag_238\n      swap3\n      swap2\n      swap1\n      tag_239\n      jump\t// in\n    tag_238:\n      pop\n        /* \"Chain Paper/CP.sol\":2787:2891  function setBaseURI(string calldata baseURI)external onlyOwner{\r... */\n      pop\n      pop\n      jump\t// out\n        /* \"Chain Paper/liberty/ERC721.sol\":1282:1459  function ownerOf(uint tokenId)public view override returns(address owner){\r... */\n    tag_107:\n        /* \"Chain Paper/liberty/ERC721.sol\":1341:1354  address owner */\n      0x00\n        /* \"Chain Paper/liberty/ERC721.sol\":1374:1381  _owners */\n      0x03\n        /* \"Chain Paper/liberty/ERC721.sol\":1374:1390  _owners[tokenId] */\n      0x00\n        /* \"Chain Paper/liberty/ERC721.sol\":1382:1389  tokenId */\n      dup4\n        /* \"Chain Paper/liberty/ERC721.sol\":1374:1390  _owners[tokenId] */\n      dup2\n      mstore\n      0x20\n      add\n      swap1\n      dup2\n      mstore\n      0x20\n      add\n      0x00\n      keccak256\n      0x00\n      swap1\n      sload\n      swap1\n      0x0100\n      exp\n      swap1\n      div\n      0xffffffffffffffffffffffffffffffffffffffff\n      and\n        /* \"Chain Paper/liberty/ERC721.sol\":1366:1390  owner = _owners[tokenId] */\n      swap1\n      pop\n        /* \"Chain Paper/liberty/ERC721.sol\":1426:1427  0 */\n      0x00\n        /* \"Chain Paper/liberty/ERC721.sol\":1409:1428  owner != address(0) */\n      0xffffffffffffffffffffffffffffffffffffffff\n      and\n        /* \"Chain Paper/liberty/ERC721.sol\":1409:1414  owner */\n      dup2\n        /* \"Chain Paper/liberty/ERC721.sol\":1409:1428  owner != address(0) */\n      0xffffffffffffffffffffffffffffffffffffffff\n      and\n      eq\n      iszero\n        /* \"Chain Paper/liberty/ERC721.sol\":1401:1451  require(owner != address(0),\"token doesn't exist\") */\n      tag_241\n      jumpi\n      mload(0x40)\n      0x08c379a000000000000000000000000000000000000000000000000000000000\n      dup2\n      mstore\n      0x04\n      add\n      tag_242\n      swap1\n      tag_183\n      jump\t// in\n    tag_242:\n      mload(0x40)\n      dup1\n      swap2\n      sub\n      swap1\n      revert\n    tag_241:\n        /* \"Chain Paper/liberty/ERC721.sol\":1282:1459  function ownerOf(uint tokenId)public view override returns(address owner){\r... */\n      swap2\n      swap1\n      pop\n      jump\t// out\n        /* \"Chain Paper/liberty/ERC721.sol\":1104:1274  function balanceOf(address owner)external view override returns(uint){\r... */\n    tag_113:\n        /* \"Chain Paper/liberty/ERC721.sol\":1168:1172  uint */\n      0x00\n        /* \"Chain Paper/liberty/ERC721.sol\":1209:1210  0 */\n      dup1\n        /* \"Chain Paper/liberty/ERC721.sol\":1192:1211  owner != address(0) */\n      0xffffffffffffffffffffffffffffffffffffffff\n      and\n        /* \"Chain Paper/liberty/ERC721.sol\":1192:1197  owner */\n      dup3\n        /* \"Chain Paper/liberty/ERC721.sol\":1192:1211  owner != address(0) */\n      0xffffffffffffffffffffffffffffffffffffffff\n      and\n      eq\n      iszero\n        /* \"Chain Paper/liberty/ERC721.sol\":1184:1232  require(owner != address(0),\"owner = 0 address\") */\n      tag_244\n      jumpi\n      mload(0x40)\n      0x08c379a000000000000000000000000000000000000000000000000000000000\n      dup2\n      mstore\n      0x04\n      add\n      tag_245\n      swap1\n      tag_246\n      jump\t// in\n    tag_245:\n      mload(0x40)\n      dup1\n      swap2\n      sub\n      swap1\n      revert\n    tag_244:\n        /* \"Chain Paper/liberty/ERC721.sol\":1250:1259  _balances */\n      0x04\n        /* \"Chain Paper/liberty/ERC721.sol\":1250:1266  _balances[owner] */\n      0x00\n        /* \"Chain Paper/liberty/ERC721.sol\":1260:1265  owner */\n      dup4\n        /* \"Chain Paper/liberty/ERC721.sol\":1250:1266  _balances[owner] */\n      0xffffffffffffffffffffffffffffffffffffffff\n      and\n      0xffffffffffffffffffffffffffffffffffffffff\n      and\n      dup2\n      mstore\n      0x20\n      add\n      swap1\n      dup2\n      mstore\n      0x20\n      add\n      0x00\n      keccak256\n      sload\n        /* \"Chain Paper/liberty/ERC721.sol\":1243:1266  return _balances[owner] */\n      swap1\n      pop\n        /* \"Chain Paper/liberty/ERC721.sol\":1104:1274  function balanceOf(address owner)external view override returns(uint){\r... */\n      swap2\n      swap1\n      pop\n      jump\t// out\n        /* \"@openzeppelin/contracts/access/Ownable.sol\":1831:1932  function renounceOwnership() public virtual onlyOwner {... */\n    tag_117:\n        /* \"@openzeppelin/contracts/access/Ownable.sol\":1094:1107  _checkOwner() */\n      tag_248\n        /* \"@openzeppelin/contracts/access/Ownable.sol\":1094:1105  _checkOwner */\n      tag_206\n        /* \"@openzeppelin/contracts/access/Ownable.sol\":1094:1107  _checkOwner() */\n      jump\t// in\n    tag_248:\n        /* \"@openzeppelin/contracts/access/Ownable.sol\":1895:1925  _transferOwnership(address(0)) */\n      tag_250\n        /* \"@openzeppelin/contracts/access/Ownable.sol\":1922:1923  0 */\n      0x00\n        /* \"@openzeppelin/contracts/access/Ownable.sol\":1895:1913  _transferOwnership */\n      tag_251\n        /* \"@openzeppelin/contracts/access/Ownable.sol\":1895:1925  _transferOwnership(address(0)) */\n      jump\t// in\n    tag_250:\n        /* \"@openzeppelin/contracts/access/Ownable.sol\":1831:1932  function renounceOwnership() public virtual onlyOwner {... */\n      jump\t// out\n        /* \"Chain Paper/CP.sol\":572:593  uint public startTime */\n    tag_120:\n      sload(0x07)\n      dup2\n      jump\t// out\n        /* \"@openzeppelin/contracts/access/Ownable.sol\":1201:1286  function owner() public view virtual returns (address) {... */\n    tag_124:\n        /* \"@openzeppelin/contracts/access/Ownable.sol\":1247:1254  address */\n      0x00\n        /* \"@openzeppelin/contracts/access/Ownable.sol\":1273:1279  _owner */\n      dup1\n      0x00\n      swap1\n      sload\n      swap1\n      0x0100\n      exp\n      swap1\n      div\n      0xffffffffffffffffffffffffffffffffffffffff\n      and\n        /* \"@openzeppelin/contracts/access/Ownable.sol\":1266:1279  return _owner */\n      swap1\n      pop\n        /* \"@openzeppelin/contracts/access/Ownable.sol\":1201:1286  function owner() public view virtual returns (address) {... */\n      swap1\n      jump\t// out\n        /* \"Chain Paper/liberty/ERC721.sol\":424:453  string public override symbol */\n    tag_128:\n      0x02\n      dup1\n      sload\n      tag_253\n      swap1\n      tag_175\n      jump\t// in\n    tag_253:\n      dup1\n      0x1f\n      add\n      0x20\n      dup1\n      swap2\n      div\n      mul\n      0x20\n      add\n      mload(0x40)\n      swap1\n      dup2\n      add\n      0x40\n      mstore\n      dup1\n      swap3\n      swap2\n      swap1\n      dup2\n      dup2\n      mstore\n      0x20\n      add\n      dup3\n      dup1\n      sload\n      tag_254\n      swap1\n      tag_175\n      jump\t// in\n    tag_254:\n      dup1\n      iszero\n      tag_255\n      jumpi\n      dup1\n      0x1f\n      lt\n      tag_256\n      jumpi\n      0x0100\n      dup1\n      dup4\n      sload\n      div\n      mul\n      dup4\n      mstore\n      swap2\n      0x20\n      add\n      swap2\n      jump(tag_255)\n    tag_256:\n      dup3\n      add\n      swap2\n      swap1\n      0x00\n      mstore\n      keccak256(0x00, 0x20)\n      swap1\n    tag_257:\n      dup2\n      sload\n      dup2\n      mstore\n      swap1\n      0x01\n      add\n      swap1\n      0x20\n      add\n      dup1\n      dup4\n      gt\n      tag_257\n      jumpi\n      dup3\n      swap1\n      sub\n      0x1f\n      and\n      dup3\n      add\n      swap2\n    tag_255:\n      pop\n      pop\n      pop\n      pop\n      pop\n      dup2\n      jump\t// out\n        /* \"Chain Paper/CP.sol\":2914:3088  function withdrawMoney()external onlyOwner{\r... */\n    tag_132:\n        /* \"@openzeppelin/contracts/access/Ownable.sol\":1094:1107  _checkOwner() */\n      tag_259\n        /* \"@openzeppelin/contracts/access/Ownable.sol\":1094:1105  _checkOwner */\n      tag_206\n        /* \"@openzeppelin/contracts/access/Ownable.sol\":1094:1107  _checkOwner() */\n      jump\t// in\n    tag_259:\n        /* \"Chain Paper/CP.sol\":2968:2980  bool success */\n      0x00\n        /* \"Chain Paper/CP.sol\":2986:2996  msg.sender */\n      caller\n        /* \"Chain Paper/CP.sol\":2986:3001  msg.sender.call */\n      0xffffffffffffffffffffffffffffffffffffffff\n      and\n        /* \"Chain Paper/CP.sol\":3009:3030  address(this).balance */\n      selfbalance\n        /* \"Chain Paper/CP.sol\":2986:3035  msg.sender.call{value: address(this).balance}(\"\") */\n      mload(0x40)\n      tag_261\n      swap1\n      tag_262\n      jump\t// in\n    tag_261:\n      0x00\n      mload(0x40)\n      dup1\n      dup4\n      sub\n      dup2\n      dup6\n      dup8\n      gas\n      call\n      swap3\n      pop\n      pop\n      pop\n      returndatasize\n      dup1\n      0x00\n      dup2\n      eq\n      tag_265\n      jumpi\n      mload(0x40)\n      swap2\n      pop\n      and(add(returndatasize, 0x3f), not(0x1f))\n      dup3\n      add\n      0x40\n      mstore\n      returndatasize\n      dup3\n      mstore\n      returndatasize\n      0x00\n      0x20\n      dup5\n      add\n      returndatacopy\n      jump(tag_264)\n    tag_265:\n      0x60\n      swap2\n      pop\n    tag_264:\n      pop\n        /* \"Chain Paper/CP.sol\":2967:3035  (bool success, ) = msg.sender.call{value: address(this).balance}(\"\") */\n      pop\n      swap1\n      pop\n        /* \"Chain Paper/CP.sol\":3054:3061  success */\n      dup1\n        /* \"Chain Paper/CP.sol\":3046:3080  require(success,\"Transfer failed\") */\n      tag_266\n      jumpi\n      mload(0x40)\n      0x08c379a000000000000000000000000000000000000000000000000000000000\n      dup2\n      mstore\n      0x04\n      add\n      tag_267\n      swap1\n      tag_268\n      jump\t// in\n    tag_267:\n      mload(0x40)\n      dup1\n      swap2\n      sub\n      swap1\n      revert\n    tag_266:\n        /* \"@openzeppelin/contracts/access/Ownable.sol\":1117:1118  _ */\n      pop\n        /* \"Chain Paper/CP.sol\":2914:3088  function withdrawMoney()external onlyOwner{\r... */\n      jump\t// out\n        /* \"Chain Paper/liberty/ERC721.sol\":3651:3947  function safeTransferFrom(address from , address to ,uint tokenId , bytes memory _data)public  override{\r... */\n    tag_137:\n        /* \"Chain Paper/liberty/ERC721.sol\":3765:3778  address owner */\n      0x00\n        /* \"Chain Paper/liberty/ERC721.sol\":3781:3797  ownerOf(tokenId) */\n      tag_270\n        /* \"Chain Paper/liberty/ERC721.sol\":3789:3796  tokenId */\n      dup4\n        /* \"Chain Paper/liberty/ERC721.sol\":3781:3788  ownerOf */\n      tag_107\n        /* \"Chain Paper/liberty/ERC721.sol\":3781:3797  ownerOf(tokenId) */\n      jump\t// in\n    tag_270:\n        /* \"Chain Paper/liberty/ERC721.sol\":3765:3797  address owner = ownerOf(tokenId) */\n      swap1\n      pop\n        /* \"Chain Paper/liberty/ERC721.sol\":3816:3860  _isApprovedOrOwner(owner,msg.sender,tokenId) */\n      tag_271\n        /* \"Chain Paper/liberty/ERC721.sol\":3835:3840  owner */\n      dup2\n        /* \"Chain Paper/liberty/ERC721.sol\":3841:3851  msg.sender */\n      caller\n        /* \"Chain Paper/liberty/ERC721.sol\":3852:3859  tokenId */\n      dup6\n        /* \"Chain Paper/liberty/ERC721.sol\":3816:3834  _isApprovedOrOwner */\n      tag_195\n        /* \"Chain Paper/liberty/ERC721.sol\":3816:3860  _isApprovedOrOwner(owner,msg.sender,tokenId) */\n      jump\t// in\n    tag_271:\n        /* \"Chain Paper/liberty/ERC721.sol\":3808:3886  require(_isApprovedOrOwner(owner,msg.sender,tokenId),\"not owner nor approved\") */\n      tag_272\n      jumpi\n      mload(0x40)\n      0x08c379a000000000000000000000000000000000000000000000000000000000\n      dup2\n      mstore\n      0x04\n      add\n      tag_273\n      swap1\n      tag_274\n      jump\t// in\n    tag_273:\n      mload(0x40)\n      dup1\n      swap2\n      sub\n      swap1\n      revert\n    tag_272:\n        /* \"Chain Paper/liberty/ERC721.sol\":3897:3939  _safeTransfer(owner,from,to,tokenId,_data) */\n      tag_275\n        /* \"Chain Paper/liberty/ERC721.sol\":3911:3916  owner */\n      dup2\n        /* \"Chain Paper/liberty/ERC721.sol\":3917:3921  from */\n      dup7\n        /* \"Chain Paper/liberty/ERC721.sol\":3922:3924  to */\n      dup7\n        /* \"Chain Paper/liberty/ERC721.sol\":3925:3932  tokenId */\n      dup7\n        /* \"Chain Paper/liberty/ERC721.sol\":3933:3938  _data */\n      dup7\n        /* \"Chain Paper/liberty/ERC721.sol\":3897:3910  _safeTransfer */\n      tag_211\n        /* \"Chain Paper/liberty/ERC721.sol\":3897:3939  _safeTransfer(owner,from,to,tokenId,_data) */\n      jump\t// in\n    tag_275:\n        /* \"Chain Paper/liberty/ERC721.sol\":3651:3947  function safeTransferFrom(address from , address to ,uint tokenId , bytes memory _data)public  override{\r... */\n      pop\n      pop\n      pop\n      pop\n      pop\n      jump\t// out\n        /* \"Chain Paper/CP.sol\":327:365  uint public constant TIME = 10 minutes */\n    tag_140:\n        /* \"Chain Paper/CP.sol\":355:365  10 minutes */\n      0x0258\n        /* \"Chain Paper/CP.sol\":327:365  uint public constant TIME = 10 minutes */\n      dup2\n      jump\t// out\n        /* \"Chain Paper/liberty/ERC721.sol\":1631:1836  function approvalForAll(address operator,bool approved)external override{\r... */\n    tag_146:\n        /* \"Chain Paper/liberty/ERC721.sol\":1757:1765  approved */\n      dup1\n        /* \"Chain Paper/liberty/ERC721.sol\":1714:1732  _operatorApprovals */\n      0x06\n        /* \"Chain Paper/liberty/ERC721.sol\":1714:1744  _operatorApprovals[msg.sender] */\n      0x00\n        /* \"Chain Paper/liberty/ERC721.sol\":1733:1743  msg.sender */\n      caller\n        /* \"Chain Paper/liberty/ERC721.sol\":1714:1744  _operatorApprovals[msg.sender] */\n      0xffffffffffffffffffffffffffffffffffffffff\n      and\n      0xffffffffffffffffffffffffffffffffffffffff\n      and\n      dup2\n      mstore\n      0x20\n      add\n      swap1\n      dup2\n      mstore\n      0x20\n      add\n      0x00\n      keccak256\n        /* \"Chain Paper/liberty/ERC721.sol\":1714:1754  _operatorApprovals[msg.sender][operator] */\n      0x00\n        /* \"Chain Paper/liberty/ERC721.sol\":1745:1753  operator */\n      dup5\n        /* \"Chain Paper/liberty/ERC721.sol\":1714:1754  _operatorApprovals[msg.sender][operator] */\n      0xffffffffffffffffffffffffffffffffffffffff\n      and\n      0xffffffffffffffffffffffffffffffffffffffff\n      and\n      dup2\n      mstore\n      0x20\n      add\n      swap1\n      dup2\n      mstore\n      0x20\n      add\n      0x00\n      keccak256\n      0x00\n        /* \"Chain Paper/liberty/ERC721.sol\":1714:1765  _operatorApprovals[msg.sender][operator] = approved */\n      0x0100\n      exp\n      dup2\n      sload\n      dup2\n      0xff\n      mul\n      not\n      and\n      swap1\n      dup4\n      iszero\n      iszero\n      mul\n      or\n      swap1\n      sstore\n      pop\n        /* \"Chain Paper/liberty/ERC721.sol\":1781:1828  ApprovalForALl(msg.sender , operator, approved) */\n      0x6e58f42f8934de1bf5b284476ba8126ee2d334c7aacf1ac87c6d4ebdb6ffb683\n        /* \"Chain Paper/liberty/ERC721.sol\":1796:1806  msg.sender */\n      caller\n        /* \"Chain Paper/liberty/ERC721.sol\":1809:1817  operator */\n      dup4\n        /* \"Chain Paper/liberty/ERC721.sol\":1819:1827  approved */\n      dup4\n        /* \"Chain Paper/liberty/ERC721.sol\":1781:1828  ApprovalForALl(msg.sender , operator, approved) */\n      mload(0x40)\n      tag_277\n      swap4\n      swap3\n      swap2\n      swap1\n      tag_278\n      jump\t// in\n    tag_277:\n      mload(0x40)\n      dup1\n      swap2\n      sub\n      swap1\n      log1\n        /* \"Chain Paper/liberty/ERC721.sol\":1631:1836  function approvalForAll(address operator,bool approved)external override{\r... */\n      pop\n      pop\n      jump\t// out\n        /* \"Chain Paper/liberty/ERC721.sol\":5303:5612  function tokenURI(uint tokenId) public override virtual view returns(string memory){\r... */\n    tag_150:\n        /* \"Chain Paper/liberty/ERC721.sol\":5372:5385  string memory */\n      0x60\n        /* \"Chain Paper/liberty/ERC721.sol\":5433:5434  0 */\n      0x00\n        /* \"Chain Paper/liberty/ERC721.sol\":5405:5435  _owners[tokenId] != address(0) */\n      0xffffffffffffffffffffffffffffffffffffffff\n      and\n        /* \"Chain Paper/liberty/ERC721.sol\":5405:5412  _owners */\n      0x03\n        /* \"Chain Paper/liberty/ERC721.sol\":5405:5421  _owners[tokenId] */\n      0x00\n        /* \"Chain Paper/liberty/ERC721.sol\":5413:5420  tokenId */\n      dup5\n        /* \"Chain Paper/liberty/ERC721.sol\":5405:5421  _owners[tokenId] */\n      dup2\n      mstore\n      0x20\n      add\n      swap1\n      dup2\n      mstore\n      0x20\n      add\n      0x00\n      keccak256\n      0x00\n      swap1\n      sload\n      swap1\n      0x0100\n      exp\n      swap1\n      div\n      0xffffffffffffffffffffffffffffffffffffffff\n      and\n        /* \"Chain Paper/liberty/ERC721.sol\":5405:5435  _owners[tokenId] != address(0) */\n      0xffffffffffffffffffffffffffffffffffffffff\n      and\n      eq\n      iszero\n        /* \"Chain Paper/liberty/ERC721.sol\":5397:5454  require(_owners[tokenId] != address(0),\"Token not exist\") */\n      tag_280\n      jumpi\n      mload(0x40)\n      0x08c379a000000000000000000000000000000000000000000000000000000000\n      dup2\n      mstore\n      0x04\n      add\n      tag_281\n      swap1\n      tag_282\n      jump\t// in\n    tag_281:\n      mload(0x40)\n      dup1\n      swap2\n      sub\n      swap1\n      revert\n    tag_280:\n        /* \"Chain Paper/liberty/ERC721.sol\":5467:5488  string memory baseURI */\n      0x00\n        /* \"Chain Paper/liberty/ERC721.sol\":5491:5501  _baseURI() */\n      tag_283\n        /* \"Chain Paper/liberty/ERC721.sol\":5491:5499  _baseURI */\n      tag_284\n        /* \"Chain Paper/liberty/ERC721.sol\":5491:5501  _baseURI() */\n      jump\t// in\n    tag_283:\n        /* \"Chain Paper/liberty/ERC721.sol\":5467:5501  string memory baseURI = _baseURI() */\n      swap1\n      pop\n        /* \"Chain Paper/liberty/ERC721.sol\":5542:5543  0 */\n      0x00\n        /* \"Chain Paper/liberty/ERC721.sol\":5525:5532  baseURI */\n      dup2\n        /* \"Chain Paper/liberty/ERC721.sol\":5519:5540  bytes(baseURI).length */\n      mload\n        /* \"Chain Paper/liberty/ERC721.sol\":5519:5543  bytes(baseURI).length >0 */\n      gt\n        /* \"Chain Paper/liberty/ERC721.sol\":5519:5602  bytes(baseURI).length >0 ? string(abi.encodePacked(baseURI,tokenId.toString())) :\"\" */\n      tag_285\n      jumpi\n      mload(0x40)\n      dup1\n      0x20\n      add\n      0x40\n      mstore\n      dup1\n      0x00\n      dup2\n      mstore\n      pop\n      jump(tag_286)\n    tag_285:\n        /* \"Chain Paper/liberty/ERC721.sol\":5570:5577  baseURI */\n      dup1\n        /* \"Chain Paper/liberty/ERC721.sol\":5578:5596  tokenId.toString() */\n      tag_287\n        /* \"Chain Paper/liberty/ERC721.sol\":5578:5585  tokenId */\n      dup5\n        /* \"Chain Paper/liberty/ERC721.sol\":5578:5594  tokenId.toString */\n      tag_288\n        /* \"Chain Paper/liberty/ERC721.sol\":5578:5596  tokenId.toString() */\n      jump\t// in\n    tag_287:\n        /* \"Chain Paper/liberty/ERC721.sol\":5553:5597  abi.encodePacked(baseURI,tokenId.toString()) */\n      add(0x20, mload(0x40))\n      tag_289\n      swap3\n      swap2\n      swap1\n      tag_290\n      jump\t// in\n    tag_289:\n      mload(0x40)\n      0x20\n      dup2\n      dup4\n      sub\n      sub\n      dup2\n      mstore\n      swap1\n      0x40\n      mstore\n        /* \"Chain Paper/liberty/ERC721.sol\":5519:5602  bytes(baseURI).length >0 ? string(abi.encodePacked(baseURI,tokenId.toString())) :\"\" */\n    tag_286:\n        /* \"Chain Paper/liberty/ERC721.sol\":5512:5602  return bytes(baseURI).length >0 ? string(abi.encodePacked(baseURI,tokenId.toString())) :\"\" */\n      swap2\n      pop\n      pop\n        /* \"Chain Paper/liberty/ERC721.sol\":5303:5612  function tokenURI(uint tokenId) public override virtual view returns(string memory){\r... */\n      swap2\n      swap1\n      pop\n      jump\t// out\n        /* \"Chain Paper/CP.sol\":278:320  uint public constant END_PRICE = 0.1 ether */\n    tag_154:\n        /* \"Chain Paper/CP.sol\":311:320  0.1 ether */\n      0x016345785d8a0000\n        /* \"Chain Paper/CP.sol\":278:320  uint public constant END_PRICE = 0.1 ether */\n      dup2\n      jump\t// out\n        /* \"Chain Paper/CP.sol\":1227:1700  function getPrice(uint _startTime)public view returns(uint){\r... */\n    tag_159:\n        /* \"Chain Paper/CP.sol\":1281:1285  uint */\n      0x00\n        /* \"Chain Paper/CP.sol\":1318:1328  _startTime */\n      dup2\n        /* \"Chain Paper/CP.sol\":1300:1315  block.timestamp */\n      timestamp\n        /* \"Chain Paper/CP.sol\":1300:1328  block.timestamp < _startTime */\n      lt\n        /* \"Chain Paper/CP.sol\":1297:1693  if(block.timestamp < _startTime){\r... */\n      iszero\n      tag_292\n      jumpi\n        /* \"Chain Paper/CP.sol\":264:271  1 ether */\n      0x0de0b6b3a7640000\n        /* \"Chain Paper/CP.sol\":1344:1362  return START_PRICE */\n      swap1\n      pop\n      jump(tag_291)\n        /* \"Chain Paper/CP.sol\":1297:1693  if(block.timestamp < _startTime){\r... */\n    tag_292:\n        /* \"Chain Paper/CP.sol\":355:365  10 minutes */\n      0x0258\n        /* \"Chain Paper/CP.sol\":1430:1440  _startTime */\n      dup3\n        /* \"Chain Paper/CP.sol\":1430:1447  _startTime + TIME */\n      tag_294\n      swap2\n      swap1\n      tag_219\n      jump\t// in\n    tag_294:\n        /* \"Chain Paper/CP.sol\":1411:1426  block.timestamp */\n      timestamp\n        /* \"Chain Paper/CP.sol\":1411:1447  block.timestamp >= _startTime + TIME */\n      lt\n        /* \"Chain Paper/CP.sol\":1408:1693  if(block.timestamp >= _startTime + TIME){\r... */\n      tag_295\n      jumpi\n        /* \"Chain Paper/CP.sol\":311:320  0.1 ether */\n      0x016345785d8a0000\n        /* \"Chain Paper/CP.sol\":1463:1479  return END_PRICE */\n      swap1\n      pop\n      jump(tag_291)\n        /* \"Chain Paper/CP.sol\":1408:1693  if(block.timestamp >= _startTime + TIME){\r... */\n    tag_295:\n        /* \"Chain Paper/CP.sol\":1537:1547  uint steps */\n      0x00\n        /* \"Chain Paper/CP.sol\":425:434  1 minutes */\n      0x3c\n        /* \"Chain Paper/CP.sol\":1569:1579  _startTime */\n      dup4\n        /* \"Chain Paper/CP.sol\":1551:1566  block.timestamp */\n      timestamp\n        /* \"Chain Paper/CP.sol\":1551:1579  block.timestamp - _startTime */\n      tag_297\n      swap2\n      swap1\n      tag_202\n      jump\t// in\n    tag_297:\n        /* \"Chain Paper/CP.sol\":1550:1595  (block.timestamp - _startTime) /DROP_INTERVAL */\n      tag_298\n      swap2\n      swap1\n      tag_200\n      jump\t// in\n    tag_298:\n        /* \"Chain Paper/CP.sol\":1537:1595  uint steps = (block.timestamp - _startTime) /DROP_INTERVAL */\n      swap1\n      pop\n        /* \"Chain Paper/CP.sol\":425:434  1 minutes */\n      0x3c\n        /* \"Chain Paper/CP.sol\":355:365  10 minutes */\n      0x0258\n        /* \"Chain Paper/CP.sol\":517:535  TIME/DROP_INTERVAL */\n      tag_299\n      swap2\n      swap1\n      tag_200\n      jump\t// in\n    tag_299:\n        /* \"Chain Paper/CP.sol\":311:320  0.1 ether */\n      0x016345785d8a0000\n        /* \"Chain Paper/CP.sol\":264:271  1 ether */\n      0x0de0b6b3a7640000\n        /* \"Chain Paper/CP.sol\":491:514  START_PRICE - END_PRICE */\n      tag_300\n      swap2\n      swap1\n      tag_202\n      jump\t// in\n    tag_300:\n        /* \"Chain Paper/CP.sol\":490:536  (START_PRICE - END_PRICE)/(TIME/DROP_INTERVAL) */\n      tag_301\n      swap2\n      swap1\n      tag_200\n      jump\t// in\n    tag_301:\n        /* \"Chain Paper/CP.sol\":1661:1666  steps */\n      dup2\n        /* \"Chain Paper/CP.sol\":1661:1680  steps*DROP_PER_STEP */\n      tag_302\n      swap2\n      swap1\n      tag_303\n      jump\t// in\n    tag_302:\n        /* \"Chain Paper/CP.sol\":264:271  1 ether */\n      0x0de0b6b3a7640000\n        /* \"Chain Paper/CP.sol\":1647:1680  START_PRICE - steps*DROP_PER_STEP */\n      tag_304\n      swap2\n      swap1\n      tag_202\n      jump\t// in\n    tag_304:\n        /* \"Chain Paper/CP.sol\":1640:1680  return START_PRICE - steps*DROP_PER_STEP */\n      swap2\n      pop\n      pop\n        /* \"Chain Paper/CP.sol\":1227:1700  function getPrice(uint _startTime)public view returns(uint){\r... */\n    tag_291:\n      swap2\n      swap1\n      pop\n      jump\t// out\n        /* \"Chain Paper/liberty/ERC721.sol\":1469:1623  function isApprovedForAll(address owner,address operator)external view override returns(bool){\r... */\n    tag_165:\n        /* \"Chain Paper/liberty/ERC721.sol\":1557:1561  bool */\n      0x00\n        /* \"Chain Paper/liberty/ERC721.sol\":1580:1598  _operatorApprovals */\n      0x06\n        /* \"Chain Paper/liberty/ERC721.sol\":1580:1605  _operatorApprovals[owner] */\n      0x00\n        /* \"Chain Paper/liberty/ERC721.sol\":1599:1604  owner */\n      dup5\n        /* \"Chain Paper/liberty/ERC721.sol\":1580:1605  _operatorApprovals[owner] */\n      0xffffffffffffffffffffffffffffffffffffffff\n      and\n      0xffffffffffffffffffffffffffffffffffffffff\n      and\n      dup2\n      mstore\n      0x20\n      add\n      swap1\n      dup2\n      mstore\n      0x20\n      add\n      0x00\n      keccak256\n        /* \"Chain Paper/liberty/ERC721.sol\":1580:1615  _operatorApprovals[owner][operator] */\n      0x00\n        /* \"Chain Paper/liberty/ERC721.sol\":1606:1614  operator */\n      dup4\n        /* \"Chain Paper/liberty/ERC721.sol\":1580:1615  _operatorApprovals[owner][operator] */\n      0xffffffffffffffffffffffffffffffffffffffff\n      and\n      0xffffffffffffffffffffffffffffffffffffffff\n      and\n      dup2\n      mstore\n      0x20\n      add\n      swap1\n      dup2\n      mstore\n      0x20\n      add\n      0x00\n      keccak256\n      0x00\n      swap1\n      sload\n      swap1\n      0x0100\n      exp\n      swap1\n      div\n      0xff\n      and\n        /* \"Chain Paper/liberty/ERC721.sol\":1573:1615  return _operatorApprovals[owner][operator] */\n      swap1\n      pop\n        /* \"Chain Paper/liberty/ERC721.sol\":1469:1623  function isApprovedForAll(address owner,address operator)external view override returns(bool){\r... */\n      swap3\n      swap2\n      pop\n      pop\n      jump\t// out\n        /* \"@openzeppelin/contracts/access/Ownable.sol\":2081:2279  function transferOwnership(address newOwner) public virtual onlyOwner {... */\n    tag_170:\n        /* \"@openzeppelin/contracts/access/Ownable.sol\":1094:1107  _checkOwner() */\n      tag_307\n        /* \"@openzeppelin/contracts/access/Ownable.sol\":1094:1105  _checkOwner */\n      tag_206\n        /* \"@openzeppelin/contracts/access/Ownable.sol\":1094:1107  _checkOwner() */\n      jump\t// in\n    tag_307:\n        /* \"@openzeppelin/contracts/access/Ownable.sol\":2189:2190  0 */\n      0x00\n        /* \"@openzeppelin/contracts/access/Ownable.sol\":2169:2191  newOwner != address(0) */\n      0xffffffffffffffffffffffffffffffffffffffff\n      and\n        /* \"@openzeppelin/contracts/access/Ownable.sol\":2169:2177  newOwner */\n      dup2\n        /* \"@openzeppelin/contracts/access/Ownable.sol\":2169:2191  newOwner != address(0) */\n      0xffffffffffffffffffffffffffffffffffffffff\n      and\n      eq\n      iszero\n        /* \"@openzeppelin/contracts/access/Ownable.sol\":2161:2234  require(newOwner != address(0), \"Ownable: new owner is the zero address\") */\n      tag_309\n      jumpi\n      mload(0x40)\n      0x08c379a000000000000000000000000000000000000000000000000000000000\n      dup2\n      mstore\n      0x04\n      add\n      tag_310\n      swap1\n      tag_311\n      jump\t// in\n    tag_310:\n      mload(0x40)\n      dup1\n      swap2\n      sub\n      swap1\n      revert\n    tag_309:\n        /* \"@openzeppelin/contracts/access/Ownable.sol\":2244:2272  _transferOwnership(newOwner) */\n      tag_312\n        /* \"@openzeppelin/contracts/access/Ownable.sol\":2263:2271  newOwner */\n      dup2\n        /* \"@openzeppelin/contracts/access/Ownable.sol\":2244:2262  _transferOwnership */\n      tag_251\n        /* \"@openzeppelin/contracts/access/Ownable.sol\":2244:2272  _transferOwnership(newOwner) */\n      jump\t// in\n    tag_312:\n        /* \"@openzeppelin/contracts/access/Ownable.sol\":2081:2279  function transferOwnership(address newOwner) public virtual onlyOwner {... */\n      pop\n      jump\t// out\n        /* \"Chain Paper/liberty/ERC721.sol\":2047:2202  function _approve(address owner,address to , uint tokenId) private{\r... */\n    tag_190:\n        /* \"Chain Paper/liberty/ERC721.sol\":2151:2153  to */\n      dup2\n        /* \"Chain Paper/liberty/ERC721.sol\":2124:2139  _tokenApprovals */\n      0x05\n        /* \"Chain Paper/liberty/ERC721.sol\":2124:2148  _tokenApprovals[tokenId] */\n      0x00\n        /* \"Chain Paper/liberty/ERC721.sol\":2140:2147  tokenId */\n      dup4\n        /* \"Chain Paper/liberty/ERC721.sol\":2124:2148  _tokenApprovals[tokenId] */\n      dup2\n      mstore\n      0x20\n      add\n      swap1\n      dup2\n      mstore\n      0x20\n      add\n      0x00\n      keccak256\n      0x00\n        /* \"Chain Paper/liberty/ERC721.sol\":2124:2153  _tokenApprovals[tokenId] = to */\n      0x0100\n      exp\n      dup2\n      sload\n      dup2\n      0xffffffffffffffffffffffffffffffffffffffff\n      mul\n      not\n      and\n      swap1\n      dup4\n      0xffffffffffffffffffffffffffffffffffffffff\n      and\n      mul\n      or\n      swap1\n      sstore\n      pop\n        /* \"Chain Paper/liberty/ERC721.sol\":2169:2194  Approve(owner,to,tokenId) */\n      0x6e11fb1b7f119e3f2fa29896ef5fdf8b8a2d0d4df6fe90ba8668e7d8b2ffa25e\n        /* \"Chain Paper/liberty/ERC721.sol\":2177:2182  owner */\n      dup4\n        /* \"Chain Paper/liberty/ERC721.sol\":2183:2185  to */\n      dup4\n        /* \"Chain Paper/liberty/ERC721.sol\":2186:2193  tokenId */\n      dup4\n        /* \"Chain Paper/liberty/ERC721.sol\":2169:2194  Approve(owner,to,tokenId) */\n      mload(0x40)\n      tag_314\n      swap4\n      swap3\n      swap2\n      swap1\n      tag_315\n      jump\t// in\n    tag_314:\n      mload(0x40)\n      dup1\n      swap2\n      sub\n      swap1\n      log1\n        /* \"Chain Paper/liberty/ERC721.sol\":2047:2202  function _approve(address owner,address to , uint tokenId) private{\r... */\n      pop\n      pop\n      pop\n      jump\t// out\n        /* \"Chain Paper/liberty/ERC721.sol\":2482:2735  function _isApprovedOrOwner(address owner , address spender,uint tokenId)private view returns(bool){\r... */\n    tag_195:\n        /* \"Chain Paper/liberty/ERC721.sol\":2576:2580  bool */\n      0x00\n        /* \"Chain Paper/liberty/ERC721.sol\":2611:2616  owner */\n      dup4\n        /* \"Chain Paper/liberty/ERC721.sol\":2600:2616  spender == owner */\n      0xffffffffffffffffffffffffffffffffffffffff\n      and\n        /* \"Chain Paper/liberty/ERC721.sol\":2600:2607  spender */\n      dup4\n        /* \"Chain Paper/liberty/ERC721.sol\":2600:2616  spender == owner */\n      0xffffffffffffffffffffffffffffffffffffffff\n      and\n      eq\n        /* \"Chain Paper/liberty/ERC721.sol\":2600:2672  spender == owner ||\r... */\n      dup1\n      tag_317\n      jumpi\n      pop\n        /* \"Chain Paper/liberty/ERC721.sol\":2665:2672  spender */\n      dup3\n        /* \"Chain Paper/liberty/ERC721.sol\":2637:2672  _tokenApprovals[tokenId] == spender */\n      0xffffffffffffffffffffffffffffffffffffffff\n      and\n        /* \"Chain Paper/liberty/ERC721.sol\":2637:2652  _tokenApprovals */\n      0x05\n        /* \"Chain Paper/liberty/ERC721.sol\":2637:2661  _tokenApprovals[tokenId] */\n      0x00\n        /* \"Chain Paper/liberty/ERC721.sol\":2653:2660  tokenId */\n      dup5\n        /* \"Chain Paper/liberty/ERC721.sol\":2637:2661  _tokenApprovals[tokenId] */\n      dup2\n      mstore\n      0x20\n      add\n      swap1\n      dup2\n      mstore\n      0x20\n      add\n      0x00\n      keccak256\n      0x00\n      swap1\n      sload\n      swap1\n      0x0100\n      exp\n      swap1\n      div\n      0xffffffffffffffffffffffffffffffffffffffff\n      and\n        /* \"Chain Paper/liberty/ERC721.sol\":2637:2672  _tokenApprovals[tokenId] == spender */\n      0xffffffffffffffffffffffffffffffffffffffff\n      and\n      eq\n        /* \"Chain Paper/liberty/ERC721.sol\":2600:2672  spender == owner ||\r... */\n    tag_317:\n        /* \"Chain Paper/liberty/ERC721.sol\":2600:2727  spender == owner ||\r... */\n      dup1\n      tag_318\n      jumpi\n      pop\n        /* \"Chain Paper/liberty/ERC721.sol\":2693:2711  _operatorApprovals */\n      0x06\n        /* \"Chain Paper/liberty/ERC721.sol\":2693:2718  _operatorApprovals[owner] */\n      0x00\n        /* \"Chain Paper/liberty/ERC721.sol\":2712:2717  owner */\n      dup6\n        /* \"Chain Paper/liberty/ERC721.sol\":2693:2718  _operatorApprovals[owner] */\n      0xffffffffffffffffffffffffffffffffffffffff\n      and\n      0xffffffffffffffffffffffffffffffffffffffff\n      and\n      dup2\n      mstore\n      0x20\n      add\n      swap1\n      dup2\n      mstore\n      0x20\n      add\n      0x00\n      keccak256\n        /* \"Chain Paper/liberty/ERC721.sol\":2693:2727  _operatorApprovals[owner][spender] */\n      0x00\n        /* \"Chain Paper/liberty/ERC721.sol\":2719:2726  spender */\n      dup5\n        /* \"Chain Paper/liberty/ERC721.sol\":2693:2727  _operatorApprovals[owner][spender] */\n      0xffffffffffffffffffffffffffffffffffffffff\n      and\n      0xffffffffffffffffffffffffffffffffffffffff\n      and\n      dup2\n      mstore\n      0x20\n      add\n      swap1\n      dup2\n      mstore\n      0x20\n      add\n      0x00\n      keccak256\n      0x00\n      swap1\n      sload\n      swap1\n      0x0100\n      exp\n      swap1\n      div\n      0xff\n      and\n        /* \"Chain Paper/liberty/ERC721.sol\":2600:2727  spender == owner ||\r... */\n    tag_318:\n        /* \"Chain Paper/liberty/ERC721.sol\":2592:2727  return  spender == owner ||\r... */\n      swap1\n      pop\n        /* \"Chain Paper/liberty/ERC721.sol\":2482:2735  function _isApprovedOrOwner(address owner , address spender,uint tokenId)private view returns(bool){\r... */\n      swap4\n      swap3\n      pop\n      pop\n      pop\n      jump\t// out\n        /* \"Chain Paper/liberty/ERC721.sol\":2743:3135  function _transfer(address owner,address from , address to , uint tokenId)private {\r... */\n    tag_198:\n        /* \"Chain Paper/liberty/ERC721.sol\":2852:2857  owner */\n      dup4\n        /* \"Chain Paper/liberty/ERC721.sol\":2844:2857  from == owner */\n      0xffffffffffffffffffffffffffffffffffffffff\n      and\n        /* \"Chain Paper/liberty/ERC721.sol\":2844:2848  from */\n      dup4\n        /* \"Chain Paper/liberty/ERC721.sol\":2844:2857  from == owner */\n      0xffffffffffffffffffffffffffffffffffffffff\n      and\n      eq\n        /* \"Chain Paper/liberty/ERC721.sol\":2836:2870  require(from == owner,\"not owner\") */\n      tag_320\n      jumpi\n      mload(0x40)\n      0x08c379a000000000000000000000000000000000000000000000000000000000\n      dup2\n      mstore\n      0x04\n      add\n      tag_321\n      swap1\n      tag_322\n      jump\t// in\n    tag_321:\n      mload(0x40)\n      dup1\n      swap2\n      sub\n      swap1\n      revert\n    tag_320:\n        /* \"Chain Paper/liberty/ERC721.sol\":2903:2904  0 */\n      0x00\n        /* \"Chain Paper/liberty/ERC721.sol\":2889:2905  to != address(0) */\n      0xffffffffffffffffffffffffffffffffffffffff\n      and\n        /* \"Chain Paper/liberty/ERC721.sol\":2889:2891  to */\n      dup3\n        /* \"Chain Paper/liberty/ERC721.sol\":2889:2905  to != address(0) */\n      0xffffffffffffffffffffffffffffffffffffffff\n      and\n      eq\n      iszero\n        /* \"Chain Paper/liberty/ERC721.sol\":2881:2924  require(to != address(0),\"to is 0 address\") */\n      tag_323\n      jumpi\n      mload(0x40)\n      0x08c379a000000000000000000000000000000000000000000000000000000000\n      dup2\n      mstore\n      0x04\n      add\n      tag_324\n      swap1\n      tag_325\n      jump\t// in\n    tag_324:\n      mload(0x40)\n      dup1\n      swap2\n      sub\n      swap1\n      revert\n    tag_323:\n        /* \"Chain Paper/liberty/ERC721.sol\":2937:2973  _approve(owner, address(0), tokenId) */\n      tag_326\n        /* \"Chain Paper/liberty/ERC721.sol\":2946:2951  owner */\n      dup5\n        /* \"Chain Paper/liberty/ERC721.sol\":2961:2962  0 */\n      0x00\n        /* \"Chain Paper/liberty/ERC721.sol\":2965:2972  tokenId */\n      dup4\n        /* \"Chain Paper/liberty/ERC721.sol\":2937:2945  _approve */\n      tag_190\n        /* \"Chain Paper/liberty/ERC721.sol\":2937:2973  _approve(owner, address(0), tokenId) */\n      jump\t// in\n    tag_326:\n        /* \"Chain Paper/liberty/ERC721.sol\":3020:3021  1 */\n      0x01\n        /* \"Chain Paper/liberty/ERC721.sol\":3002:3011  _balances */\n      0x04\n        /* \"Chain Paper/liberty/ERC721.sol\":3002:3017  _balances[from] */\n      0x00\n        /* \"Chain Paper/liberty/ERC721.sol\":3012:3016  from */\n      dup6\n        /* \"Chain Paper/liberty/ERC721.sol\":3002:3017  _balances[from] */\n      0xffffffffffffffffffffffffffffffffffffffff\n      and\n      0xffffffffffffffffffffffffffffffffffffffff\n      and\n      dup2\n      mstore\n      0x20\n      add\n      swap1\n      dup2\n      mstore\n      0x20\n      add\n      0x00\n      keccak256\n      0x00\n        /* \"Chain Paper/liberty/ERC721.sol\":3002:3021  _balances[from] -=1 */\n      dup3\n      dup3\n      sload\n      tag_327\n      swap2\n      swap1\n      tag_202\n      jump\t// in\n    tag_327:\n      swap3\n      pop\n      pop\n      dup2\n      swap1\n      sstore\n      pop\n        /* \"Chain Paper/liberty/ERC721.sol\":3048:3049  1 */\n      0x01\n        /* \"Chain Paper/liberty/ERC721.sol\":3032:3041  _balances */\n      0x04\n        /* \"Chain Paper/liberty/ERC721.sol\":3032:3045  _balances[to] */\n      0x00\n        /* \"Chain Paper/liberty/ERC721.sol\":3042:3044  to */\n      dup5\n        /* \"Chain Paper/liberty/ERC721.sol\":3032:3045  _balances[to] */\n      0xffffffffffffffffffffffffffffffffffffffff\n      and\n      0xffffffffffffffffffffffffffffffffffffffff\n      and\n      dup2\n      mstore\n      0x20\n      add\n      swap1\n      dup2\n      mstore\n      0x20\n      add\n      0x00\n      keccak256\n      0x00\n        /* \"Chain Paper/liberty/ERC721.sol\":3032:3049  _balances[to] +=1 */\n      dup3\n      dup3\n      sload\n      tag_328\n      swap2\n      swap1\n      tag_219\n      jump\t// in\n    tag_328:\n      swap3\n      pop\n      pop\n      dup2\n      swap1\n      sstore\n      pop\n        /* \"Chain Paper/liberty/ERC721.sol\":3079:3081  to */\n      dup2\n        /* \"Chain Paper/liberty/ERC721.sol\":3060:3067  _owners */\n      0x03\n        /* \"Chain Paper/liberty/ERC721.sol\":3060:3076  _owners[tokenId] */\n      0x00\n        /* \"Chain Paper/liberty/ERC721.sol\":3068:3075  tokenId */\n      dup4\n        /* \"Chain Paper/liberty/ERC721.sol\":3060:3076  _owners[tokenId] */\n      dup2\n      mstore\n      0x20\n      add\n      swap1\n      dup2\n      mstore\n      0x20\n      add\n      0x00\n      keccak256\n      0x00\n        /* \"Chain Paper/liberty/ERC721.sol\":3060:3081  _owners[tokenId] = to */\n      0x0100\n      exp\n      dup2\n      sload\n      dup2\n      0xffffffffffffffffffffffffffffffffffffffff\n      mul\n      not\n      and\n      swap1\n      dup4\n      0xffffffffffffffffffffffffffffffffffffffff\n      and\n      mul\n      or\n      swap1\n      sstore\n      pop\n        /* \"Chain Paper/liberty/ERC721.sol\":3099:3127  Transfer(from , to ,tokenId) */\n      0xddf252ad1be2c89b69c2b068fc378daa952ba7f163c4a11628f55a4df523b3ef\n        /* \"Chain Paper/liberty/ERC721.sol\":3108:3112  from */\n      dup4\n        /* \"Chain Paper/liberty/ERC721.sol\":3115:3117  to */\n      dup4\n        /* \"Chain Paper/liberty/ERC721.sol\":3119:3126  tokenId */\n      dup4\n        /* \"Chain Paper/liberty/ERC721.sol\":3099:3127  Transfer(from , to ,tokenId) */\n      mload(0x40)\n      tag_329\n      swap4\n      swap3\n      swap2\n      swap1\n      tag_315\n      jump\t// in\n    tag_329:\n      mload(0x40)\n      dup1\n      swap2\n      sub\n      swap1\n      log1\n        /* \"Chain Paper/liberty/ERC721.sol\":2743:3135  function _transfer(address owner,address from , address to , uint tokenId)private {\r... */\n      pop\n      pop\n      pop\n      pop\n      jump\t// out\n        /* \"@openzeppelin/contracts/access/Ownable.sol\":1359:1489  function _checkOwner() internal view virtual {... */\n    tag_206:\n        /* \"@openzeppelin/contracts/access/Ownable.sol\":1433:1445  _msgSender() */\n      tag_331\n        /* \"@openzeppelin/contracts/access/Ownable.sol\":1433:1443  _msgSender */\n      tag_332\n        /* \"@openzeppelin/contracts/access/Ownable.sol\":1433:1445  _msgSender() */\n      jump\t// in\n    tag_331:\n        /* \"@openzeppelin/contracts/access/Ownable.sol\":1422:1445  owner() == _msgSender() */\n      0xffffffffffffffffffffffffffffffffffffffff\n      and\n        /* \"@openzeppelin/contracts/access/Ownable.sol\":1422:1429  owner() */\n      tag_333\n        /* \"@openzeppelin/contracts/access/Ownable.sol\":1422:1427  owner */\n      tag_124\n        /* \"@openzeppelin/contracts/access/Ownable.sol\":1422:1429  owner() */\n      jump\t// in\n    tag_333:\n        /* \"@openzeppelin/contracts/access/Ownable.sol\":1422:1445  owner() == _msgSender() */\n      0xffffffffffffffffffffffffffffffffffffffff\n      and\n      eq\n        /* \"@openzeppelin/contracts/access/Ownable.sol\":1414:1482  require(owner() == _msgSender(), \"Ownable: caller is not the owner\") */\n      tag_334\n      jumpi\n      mload(0x40)\n      0x08c379a000000000000000000000000000000000000000000000000000000000\n      dup2\n      mstore\n      0x04\n      add\n      tag_335\n      swap1\n      tag_336\n      jump\t// in\n    tag_335:\n      mload(0x40)\n      dup1\n      swap2\n      sub\n      swap1\n      revert\n    tag_334:\n        /* \"@openzeppelin/contracts/access/Ownable.sol\":1359:1489  function _checkOwner() internal view virtual {... */\n      jump\t// out\n        /* \"Chain Paper/liberty/ERC721.sol\":3398:3643  function _safeTransfer(address owner,address from, address to ,uint tokenId , bytes memory _data) private{\r... */\n    tag_211:\n        /* \"Chain Paper/liberty/ERC721.sol\":3514:3549  _transfer(owner,from , to ,tokenId) */\n      tag_338\n        /* \"Chain Paper/liberty/ERC721.sol\":3524:3529  owner */\n      dup6\n        /* \"Chain Paper/liberty/ERC721.sol\":3530:3534  from */\n      dup6\n        /* \"Chain Paper/liberty/ERC721.sol\":3537:3539  to */\n      dup6\n        /* \"Chain Paper/liberty/ERC721.sol\":3541:3548  tokenId */\n      dup6\n        /* \"Chain Paper/liberty/ERC721.sol\":3514:3523  _transfer */\n      tag_198\n        /* \"Chain Paper/liberty/ERC721.sol\":3514:3549  _transfer(owner,from , to ,tokenId) */\n      jump\t// in\n    tag_338:\n        /* \"Chain Paper/liberty/ERC721.sol\":3568:3613  _checkOnERC721Received(from,to,tokenId,_data) */\n      tag_339\n        /* \"Chain Paper/liberty/ERC721.sol\":3591:3595  from */\n      dup5\n        /* \"Chain Paper/liberty/ERC721.sol\":3596:3598  to */\n      dup5\n        /* \"Chain Paper/liberty/ERC721.sol\":3599:3606  tokenId */\n      dup5\n        /* \"Chain Paper/liberty/ERC721.sol\":3607:3612  _data */\n      dup5\n        /* \"Chain Paper/liberty/ERC721.sol\":3568:3590  _checkOnERC721Received */\n      tag_340\n        /* \"Chain Paper/liberty/ERC721.sol\":3568:3613  _checkOnERC721Received(from,to,tokenId,_data) */\n      jump\t// in\n    tag_339:\n        /* \"Chain Paper/liberty/ERC721.sol\":3560:3635  require(_checkOnERC721Received(from,to,tokenId,_data),\"not ERC721Receiver\") */\n      tag_341\n      jumpi\n      mload(0x40)\n      0x08c379a000000000000000000000000000000000000000000000000000000000\n      dup2\n      mstore\n      0x04\n      add\n      tag_342\n      swap1\n      tag_343\n      jump\t// in\n    tag_342:\n      mload(0x40)\n      dup1\n      swap2\n      sub\n      swap1\n      revert\n    tag_341:\n        /* \"Chain Paper/liberty/ERC721.sol\":3398:3643  function _safeTransfer(address owner,address from, address to ,uint tokenId , bytes memory _data) private{\r... */\n      pop\n      pop\n      pop\n      pop\n      pop\n      jump\t// out\n        /* \"Chain Paper/liberty/ERC721.sol\":4148:4457  function _mint(address to ,uint tokenId)internal virtual {\r... */\n    tag_228:\n        /* \"Chain Paper/liberty/ERC721.sol\":4238:4239  0 */\n      0x00\n        /* \"Chain Paper/liberty/ERC721.sol\":4224:4240  to != address(0) */\n      0xffffffffffffffffffffffffffffffffffffffff\n      and\n        /* \"Chain Paper/liberty/ERC721.sol\":4224:4226  to */\n      dup3\n        /* \"Chain Paper/liberty/ERC721.sol\":4224:4240  to != address(0) */\n      0xffffffffffffffffffffffffffffffffffffffff\n      and\n      eq\n      iszero\n        /* \"Chain Paper/liberty/ERC721.sol\":4216:4259  require(to != address(0),\"to is 0 address\") */\n      tag_345\n      jumpi\n      mload(0x40)\n      0x08c379a000000000000000000000000000000000000000000000000000000000\n      dup2\n      mstore\n      0x04\n      add\n      tag_346\n      swap1\n      tag_325\n      jump\t// in\n    tag_346:\n      mload(0x40)\n      dup1\n      swap2\n      sub\n      swap1\n      revert\n    tag_345:\n        /* \"Chain Paper/liberty/ERC721.sol\":4306:4307  0 */\n      0x00\n        /* \"Chain Paper/liberty/ERC721.sol\":4278:4308  _owners[tokenId] == address(0) */\n      0xffffffffffffffffffffffffffffffffffffffff\n      and\n        /* \"Chain Paper/liberty/ERC721.sol\":4278:4285  _owners */\n      0x03\n        /* \"Chain Paper/liberty/ERC721.sol\":4278:4294  _owners[tokenId] */\n      0x00\n        /* \"Chain Paper/liberty/ERC721.sol\":4286:4293  tokenId */\n      dup4\n        /* \"Chain Paper/liberty/ERC721.sol\":4278:4294  _owners[tokenId] */\n      dup2\n      mstore\n      0x20\n      add\n      swap1\n      dup2\n      mstore\n      0x20\n      add\n      0x00\n      keccak256\n      0x00\n      swap1\n      sload\n      swap1\n      0x0100\n      exp\n      swap1\n      div\n      0xffffffffffffffffffffffffffffffffffffffff\n      and\n        /* \"Chain Paper/liberty/ERC721.sol\":4278:4308  _owners[tokenId] == address(0) */\n      0xffffffffffffffffffffffffffffffffffffffff\n      and\n      eq\n        /* \"Chain Paper/liberty/ERC721.sol\":4270:4332  require(_owners[tokenId] == address(0),\"token already minted\") */\n      tag_347\n      jumpi\n      mload(0x40)\n      0x08c379a000000000000000000000000000000000000000000000000000000000\n      dup2\n      mstore\n      0x04\n      add\n      tag_348\n      swap1\n      tag_349\n      jump\t// in\n    tag_348:\n      mload(0x40)\n      dup1\n      swap2\n      sub\n      swap1\n      revert\n    tag_347:\n        /* \"Chain Paper/liberty/ERC721.sol\":4359:4360  1 */\n      0x01\n        /* \"Chain Paper/liberty/ERC721.sol\":4343:4352  _balances */\n      0x04\n        /* \"Chain Paper/liberty/ERC721.sol\":4343:4356  _balances[to] */\n      0x00\n        /* \"Chain Paper/liberty/ERC721.sol\":4353:4355  to */\n      dup5\n        /* \"Chain Paper/liberty/ERC721.sol\":4343:4356  _balances[to] */\n      0xffffffffffffffffffffffffffffffffffffffff\n      and\n      0xffffffffffffffffffffffffffffffffffffffff\n      and\n      dup2\n      mstore\n      0x20\n      add\n      swap1\n      dup2\n      mstore\n      0x20\n      add\n      0x00\n      keccak256\n      0x00\n        /* \"Chain Paper/liberty/ERC721.sol\":4343:4360  _balances[to] +=1 */\n      dup3\n      dup3\n      sload\n      tag_350\n      swap2\n      swap1\n      tag_219\n      jump\t// in\n    tag_350:\n      swap3\n      pop\n      pop\n      dup2\n      swap1\n      sstore\n      pop\n        /* \"Chain Paper/liberty/ERC721.sol\":4390:4392  to */\n      dup2\n        /* \"Chain Paper/liberty/ERC721.sol\":4371:4378  _owners */\n      0x03\n        /* \"Chain Paper/liberty/ERC721.sol\":4371:4387  _owners[tokenId] */\n      0x00\n        /* \"Chain Paper/liberty/ERC721.sol\":4379:4386  tokenId */\n      dup4\n        /* \"Chain Paper/liberty/ERC721.sol\":4371:4387  _owners[tokenId] */\n      dup2\n      mstore\n      0x20\n      add\n      swap1\n      dup2\n      mstore\n      0x20\n      add\n      0x00\n      keccak256\n      0x00\n        /* \"Chain Paper/liberty/ERC721.sol\":4371:4392  _owners[tokenId] = to */\n      0x0100\n      exp\n      dup2\n      sload\n      dup2\n      0xffffffffffffffffffffffffffffffffffffffff\n      mul\n      not\n      and\n      swap1\n      dup4\n      0xffffffffffffffffffffffffffffffffffffffff\n      and\n      mul\n      or\n      swap1\n      sstore\n      pop\n        /* \"Chain Paper/liberty/ERC721.sol\":4418:4449  Transfer(address(0),to,tokenId) */\n      0xddf252ad1be2c89b69c2b068fc378daa952ba7f163c4a11628f55a4df523b3ef\n        /* \"Chain Paper/liberty/ERC721.sol\":4435:4436  0 */\n      0x00\n        /* \"Chain Paper/liberty/ERC721.sol\":4438:4440  to */\n      dup4\n        /* \"Chain Paper/liberty/ERC721.sol\":4441:4448  tokenId */\n      dup4\n        /* \"Chain Paper/liberty/ERC721.sol\":4418:4449  Transfer(address(0),to,tokenId) */\n      mload(0x40)\n      tag_351\n      swap4\n      swap3\n      swap2\n      swap1\n      tag_315\n      jump\t// in\n    tag_351:\n      mload(0x40)\n      dup1\n      swap2\n      sub\n      swap1\n      log1\n        /* \"Chain Paper/liberty/ERC721.sol\":4148:4457  function _mint(address to ,uint tokenId)internal virtual {\r... */\n      pop\n      pop\n      jump\t// out\n        /* \"Chain Paper/CP.sol\":1083:1187  function _addTokenToAllTokensEnumeration(uint tokenId)private{\r... */\n    tag_230:\n        /* \"Chain Paper/CP.sol\":1155:1165  _allTokens */\n      0x09\n        /* \"Chain Paper/CP.sol\":1171:1178  tokenId */\n      dup2\n        /* \"Chain Paper/CP.sol\":1155:1179  _allTokens.push(tokenId) */\n      swap1\n      dup1\n      0x01\n      dup2\n      sload\n      add\n      dup1\n      dup3\n      sstore\n      dup1\n      swap2\n      pop\n      pop\n      0x01\n      swap1\n      sub\n      swap1\n      0x00\n      mstore\n      keccak256(0x00, 0x20)\n      add\n      0x00\n      swap1\n      swap2\n      swap1\n      swap2\n      swap1\n      swap2\n      pop\n      sstore\n        /* \"Chain Paper/CP.sol\":1083:1187  function _addTokenToAllTokensEnumeration(uint tokenId)private{\r... */\n      pop\n      jump\t// out\n        /* \"@openzeppelin/contracts/access/Ownable.sol\":2433:2620  function _transferOwnership(address newOwner) internal virtual {... */\n    tag_251:\n        /* \"@openzeppelin/contracts/access/Ownable.sol\":2506:2522  address oldOwner */\n      0x00\n        /* \"@openzeppelin/contracts/access/Ownable.sol\":2525:2531  _owner */\n      dup1\n      0x00\n      swap1\n      sload\n      swap1\n      0x0100\n      exp\n      swap1\n      div\n      0xffffffffffffffffffffffffffffffffffffffff\n      and\n        /* \"@openzeppelin/contracts/access/Ownable.sol\":2506:2531  address oldOwner = _owner */\n      swap1\n      pop\n        /* \"@openzeppelin/contracts/access/Ownable.sol\":2550:2558  newOwner */\n      dup2\n        /* \"@openzeppelin/contracts/access/Ownable.sol\":2541:2547  _owner */\n      0x00\n      dup1\n        /* \"@openzeppelin/contracts/access/Ownable.sol\":2541:2558  _owner = newOwner */\n      0x0100\n      exp\n      dup2\n      sload\n      dup2\n      0xffffffffffffffffffffffffffffffffffffffff\n      mul\n      not\n      and\n      swap1\n      dup4\n      0xffffffffffffffffffffffffffffffffffffffff\n      and\n      mul\n      or\n      swap1\n      sstore\n      pop\n        /* \"@openzeppelin/contracts/access/Ownable.sol\":2604:2612  newOwner */\n      dup2\n        /* \"@openzeppelin/contracts/access/Ownable.sol\":2573:2613  OwnershipTransferred(oldOwner, newOwner) */\n      0xffffffffffffffffffffffffffffffffffffffff\n      and\n        /* \"@openzeppelin/contracts/access/Ownable.sol\":2594:2602  oldOwner */\n      dup2\n        /* \"@openzeppelin/contracts/access/Ownable.sol\":2573:2613  OwnershipTransferred(oldOwner, newOwner) */\n      0xffffffffffffffffffffffffffffffffffffffff\n      and\n      0x8be0079c531659141344cd1fd0a4f28419497f9722a3daafe3b4186f6b6457e0\n      mload(0x40)\n      mload(0x40)\n      dup1\n      swap2\n      sub\n      swap1\n      log3\n        /* \"@openzeppelin/contracts/access/Ownable.sol\":2433:2620  function _transferOwnership(address newOwner) internal virtual {... */\n      pop\n      pop\n      jump\t// out\n        /* \"Chain Paper/CP.sol\":2590:2779  function _baseURI() internal view virtual override returns(string memory){\r... */\n    tag_284:\n        /* \"Chain Paper/CP.sol\":2649:2662  string memory */\n      0x60\n        /* \"Chain Paper/CP.sol\":2758:2771  _baseTokenURI */\n      0x08\n        /* \"Chain Paper/CP.sol\":2751:2771  return _baseTokenURI */\n      dup1\n      sload\n      tag_356\n      swap1\n      tag_175\n      jump\t// in\n    tag_356:\n      dup1\n      0x1f\n      add\n      0x20\n      dup1\n      swap2\n      div\n      mul\n      0x20\n      add\n      mload(0x40)\n      swap1\n      dup2\n      add\n      0x40\n      mstore\n      dup1\n      swap3\n      swap2\n      swap1\n      dup2\n      dup2\n      mstore\n      0x20\n      add\n      dup3\n      dup1\n      sload\n      tag_357\n      swap1\n      tag_175\n      jump\t// in\n    tag_357:\n      dup1\n      iszero\n      tag_358\n      jumpi\n      dup1\n      0x1f\n      lt\n      tag_359\n      jumpi\n      0x0100\n      dup1\n      dup4\n      sload\n      div\n      mul\n      dup4\n      mstore\n      swap2\n      0x20\n      add\n      swap2\n      jump(tag_358)\n    tag_359:\n      dup3\n      add\n      swap2\n      swap1\n      0x00\n      mstore\n      keccak256(0x00, 0x20)\n      swap1\n    tag_360:\n      dup2\n      sload\n      dup2\n      mstore\n      swap1\n      0x01\n      add\n      swap1\n      0x20\n      add\n      dup1\n      dup4\n      gt\n      tag_360\n      jumpi\n      dup3\n      swap1\n      sub\n      0x1f\n      and\n      dup3\n      add\n      swap2\n    tag_358:\n      pop\n      pop\n      pop\n      pop\n      pop\n      swap1\n      pop\n        /* \"Chain Paper/CP.sol\":2590:2779  function _baseURI() internal view virtual override returns(string memory){\r... */\n      swap1\n      jump\t// out\n        /* \"Chain Paper/other/Strings.sol\":407:1130  function toString(uint256 value) internal pure returns (string memory) {\r... */\n    tag_288:\n        /* \"Chain Paper/other/Strings.sol\":463:476  string memory */\n      0x60\n        /* \"Chain Paper/other/Strings.sol\":693:694  0 */\n      0x00\n        /* \"Chain Paper/other/Strings.sol\":684:689  value */\n      dup3\n        /* \"Chain Paper/other/Strings.sol\":684:694  value == 0 */\n      eq\n        /* \"Chain Paper/other/Strings.sol\":680:733  if (value == 0) {\r... */\n      iszero\n      tag_362\n      jumpi\n        /* \"Chain Paper/other/Strings.sol\":711:721  return \"0\" */\n      mload(0x40)\n      dup1\n      0x40\n      add\n      0x40\n      mstore\n      dup1\n      0x01\n      dup2\n      mstore\n      0x20\n      add\n      0x3000000000000000000000000000000000000000000000000000000000000000\n      dup2\n      mstore\n      pop\n      swap1\n      pop\n      jump(tag_361)\n        /* \"Chain Paper/other/Strings.sol\":680:733  if (value == 0) {\r... */\n    tag_362:\n        /* \"Chain Paper/other/Strings.sol\":743:755  uint256 temp */\n      0x00\n        /* \"Chain Paper/other/Strings.sol\":758:763  value */\n      dup3\n        /* \"Chain Paper/other/Strings.sol\":743:763  uint256 temp = value */\n      swap1\n      pop\n        /* \"Chain Paper/other/Strings.sol\":774:788  uint256 digits */\n      0x00\n        /* \"Chain Paper/other/Strings.sol\":799:877  while (temp != 0) {\r... */\n    tag_363:\n        /* \"Chain Paper/other/Strings.sol\":814:815  0 */\n      0x00\n        /* \"Chain Paper/other/Strings.sol\":806:810  temp */\n      dup3\n        /* \"Chain Paper/other/Strings.sol\":806:815  temp != 0 */\n      eq\n        /* \"Chain Paper/other/Strings.sol\":799:877  while (temp != 0) {\r... */\n      tag_364\n      jumpi\n        /* \"Chain Paper/other/Strings.sol\":832:840  digits++ */\n      dup1\n      dup1\n      tag_365\n      swap1\n      tag_366\n      jump\t// in\n    tag_365:\n      swap2\n      pop\n      pop\n        /* \"Chain Paper/other/Strings.sol\":863:865  10 */\n      0x0a\n        /* \"Chain Paper/other/Strings.sol\":855:865  temp /= 10 */\n      dup3\n      tag_367\n      swap2\n      swap1\n      tag_200\n      jump\t// in\n    tag_367:\n      swap2\n      pop\n        /* \"Chain Paper/other/Strings.sol\":799:877  while (temp != 0) {\r... */\n      jump(tag_363)\n    tag_364:\n        /* \"Chain Paper/other/Strings.sol\":887:906  bytes memory buffer */\n      0x00\n        /* \"Chain Paper/other/Strings.sol\":919:925  digits */\n      dup2\n        /* \"Chain Paper/other/Strings.sol\":909:926  new bytes(digits) */\n      0xffffffffffffffff\n      dup2\n      gt\n      iszero\n      tag_368\n      jumpi\n      mstore(0x00, 0x4e487b7100000000000000000000000000000000000000000000000000000000)\n      mstore(0x04, 0x41)\n      revert(0x00, 0x24)\n    tag_368:\n      mload(0x40)\n      swap1\n      dup1\n      dup3\n      mstore\n      dup1\n      0x1f\n      add\n      not(0x1f)\n      and\n      0x20\n      add\n      dup3\n      add\n      0x40\n      mstore\n      dup1\n      iszero\n      tag_369\n      jumpi\n      dup2\n      0x20\n      add\n      0x01\n      dup3\n      mul\n      dup1\n      calldatasize\n      dup4\n      calldatacopy\n      dup1\n      dup3\n      add\n      swap2\n      pop\n      pop\n      swap1\n      pop\n    tag_369:\n      pop\n        /* \"Chain Paper/other/Strings.sol\":887:926  bytes memory buffer = new bytes(digits) */\n      swap1\n      pop\n        /* \"Chain Paper/other/Strings.sol\":937:1091  while (value != 0) {\r... */\n    tag_370:\n        /* \"Chain Paper/other/Strings.sol\":953:954  0 */\n      0x00\n        /* \"Chain Paper/other/Strings.sol\":944:949  value */\n      dup6\n        /* \"Chain Paper/other/Strings.sol\":944:954  value != 0 */\n      eq\n        /* \"Chain Paper/other/Strings.sol\":937:1091  while (value != 0) {\r... */\n      tag_371\n      jumpi\n        /* \"Chain Paper/other/Strings.sol\":981:982  1 */\n      0x01\n        /* \"Chain Paper/other/Strings.sol\":971:982  digits -= 1 */\n      dup3\n      tag_372\n      swap2\n      swap1\n      tag_202\n      jump\t// in\n    tag_372:\n      swap2\n      pop\n        /* \"Chain Paper/other/Strings.sol\":1048:1050  10 */\n      0x0a\n        /* \"Chain Paper/other/Strings.sol\":1040:1045  value */\n      dup6\n        /* \"Chain Paper/other/Strings.sol\":1040:1050  value % 10 */\n      tag_373\n      swap2\n      swap1\n      tag_374\n      jump\t// in\n    tag_373:\n        /* \"Chain Paper/other/Strings.sol\":1027:1029  48 */\n      0x30\n        /* \"Chain Paper/other/Strings.sol\":1027:1051  48 + uint256(value % 10) */\n      tag_375\n      swap2\n      swap1\n      tag_219\n      jump\t// in\n    tag_375:\n        /* \"Chain Paper/other/Strings.sol\":1014:1053  bytes1(uint8(48 + uint256(value % 10))) */\n      0xf8\n      shl\n        /* \"Chain Paper/other/Strings.sol\":997:1003  buffer */\n      dup2\n        /* \"Chain Paper/other/Strings.sol\":1004:1010  digits */\n      dup4\n        /* \"Chain Paper/other/Strings.sol\":997:1011  buffer[digits] */\n      dup2\n      mload\n      dup2\n      lt\n      tag_376\n      jumpi\n      mstore(0x00, 0x4e487b7100000000000000000000000000000000000000000000000000000000)\n      mstore(0x04, 0x32)\n      revert(0x00, 0x24)\n    tag_376:\n      0x20\n      add\n      add\n        /* \"Chain Paper/other/Strings.sol\":997:1053  buffer[digits] = bytes1(uint8(48 + uint256(value % 10))) */\n      swap1\n      not(0xffffffffffffffffffffffffffffffffffffffffffffffffffffffffffffff)\n      and\n      swap1\n      dup2\n      0x00\n      byte\n      swap1\n      mstore8\n      pop\n        /* \"Chain Paper/other/Strings.sol\":1077:1079  10 */\n      0x0a\n        /* \"Chain Paper/other/Strings.sol\":1068:1079  value /= 10 */\n      dup6\n      tag_377\n      swap2\n      swap1\n      tag_200\n      jump\t// in\n    tag_377:\n      swap5\n      pop\n        /* \"Chain Paper/other/Strings.sol\":937:1091  while (value != 0) {\r... */\n      jump(tag_370)\n    tag_371:\n        /* \"Chain Paper/other/Strings.sol\":1115:1121  buffer */\n      dup1\n        /* \"Chain Paper/other/Strings.sol\":1101:1122  return string(buffer) */\n      swap4\n      pop\n      pop\n      pop\n      pop\n        /* \"Chain Paper/other/Strings.sol\":407:1130  function toString(uint256 value) internal pure returns (string memory) {\r... */\n    tag_361:\n      swap2\n      swap1\n      pop\n      jump\t// out\n        /* \"@openzeppelin/contracts/utils/Context.sol\":640:736  function _msgSender() internal view virtual returns (address) {... */\n    tag_332:\n        /* \"@openzeppelin/contracts/utils/Context.sol\":693:700  address */\n      0x00\n        /* \"@openzeppelin/contracts/utils/Context.sol\":719:729  msg.sender */\n      caller\n        /* \"@openzeppelin/contracts/utils/Context.sol\":712:729  return msg.sender */\n      swap1\n      pop\n        /* \"@openzeppelin/contracts/utils/Context.sol\":640:736  function _msgSender() internal view virtual returns (address) {... */\n      swap1\n      jump\t// out\n        /* \"Chain Paper/liberty/ERC721.sol\":4785:5295  function _checkOnERC721Received(\r... */\n    tag_340:\n        /* \"Chain Paper/liberty/ERC721.sol\":4937:4941  bool */\n      0x00\n        /* \"Chain Paper/liberty/ERC721.sol\":4958:4973  to.isContract() */\n      tag_380\n        /* \"Chain Paper/liberty/ERC721.sol\":4958:4960  to */\n      dup5\n        /* \"Chain Paper/liberty/ERC721.sol\":4958:4971  to.isContract */\n      0xffffffffffffffffffffffffffffffffffffffff\n      and\n      tag_381\n        /* \"Chain Paper/liberty/ERC721.sol\":4958:4973  to.isContract() */\n      jump\t// in\n    tag_380:\n        /* \"Chain Paper/liberty/ERC721.sol\":4954:5288  if (to.isContract()) {\r... */\n      iszero\n      tag_382\n      jumpi\n        /* \"Chain Paper/liberty/ERC721.sol\":5191:5232  IERC721Receiver.onERC721Received.selector */\n      shl(0xe0, 0x150b7a02)\n        /* \"Chain Paper/liberty/ERC721.sol\":5014:5232  IERC721Receiver(to).onERC721Received(\r... */\n      not(0xffffffffffffffffffffffffffffffffffffffffffffffffffffffff)\n      and\n        /* \"Chain Paper/liberty/ERC721.sol\":5030:5032  to */\n      dup5\n        /* \"Chain Paper/liberty/ERC721.sol\":5014:5050  IERC721Receiver(to).onERC721Received */\n      0xffffffffffffffffffffffffffffffffffffffff\n      and\n      0x150b7a02\n        /* \"Chain Paper/liberty/ERC721.sol\":5073:5083  msg.sender */\n      caller\n        /* \"Chain Paper/liberty/ERC721.sol\":5106:5110  from */\n      dup9\n        /* \"Chain Paper/liberty/ERC721.sol\":5133:5140  tokenId */\n      dup8\n        /* \"Chain Paper/liberty/ERC721.sol\":5163:5168  _data */\n      dup8\n        /* \"Chain Paper/liberty/ERC721.sol\":5014:5187  IERC721Receiver(to).onERC721Received(\r... */\n      mload(0x40)\n      dup6\n      0xffffffff\n      and\n      0xe0\n      shl\n      dup2\n      mstore\n      0x04\n      add\n      tag_383\n      swap5\n      swap4\n      swap3\n      swap2\n      swap1\n      tag_384\n      jump\t// in\n    tag_383:\n      0x20\n      mload(0x40)\n      dup1\n      dup4\n      sub\n      dup2\n      0x00\n      dup8\n      dup1\n      extcodesize\n      iszero\n      dup1\n      iszero\n      tag_385\n      jumpi\n      0x00\n      dup1\n      revert\n    tag_385:\n      pop\n      gas\n      call\n      iszero\n      dup1\n      iszero\n      tag_387\n      jumpi\n      returndatasize\n      0x00\n      dup1\n      returndatacopy\n      revert(0x00, returndatasize)\n    tag_387:\n      pop\n      pop\n      pop\n      pop\n      mload(0x40)\n      returndatasize\n      not(0x1f)\n      0x1f\n      dup3\n      add\n      and\n      dup3\n      add\n      dup1\n      0x40\n      mstore\n      pop\n      dup2\n      add\n      swap1\n      tag_388\n      swap2\n      swap1\n      tag_389\n      jump\t// in\n    tag_388:\n        /* \"Chain Paper/liberty/ERC721.sol\":5014:5232  IERC721Receiver(to).onERC721Received(\r... */\n      not(0xffffffffffffffffffffffffffffffffffffffffffffffffffffffff)\n      and\n      eq\n        /* \"Chain Paper/liberty/ERC721.sol\":4990:5232  return\r... */\n      swap1\n      pop\n      jump(tag_379)\n        /* \"Chain Paper/liberty/ERC721.sol\":4954:5288  if (to.isContract()) {\r... */\n    tag_382:\n        /* \"Chain Paper/liberty/ERC721.sol\":5272:5276  true */\n      0x01\n        /* \"Chain Paper/liberty/ERC721.sol\":5265:5276  return true */\n      swap1\n      pop\n        /* \"Chain Paper/liberty/ERC721.sol\":4785:5295  function _checkOnERC721Received(\r... */\n    tag_379:\n      swap5\n      swap4\n      pop\n      pop\n      pop\n      pop\n      jump\t// out\n        /* \"Chain Paper/other/Address.sol\":163:356  function isContract(address account) internal view returns (bool) {\r... */\n    tag_381:\n        /* \"Chain Paper/other/Address.sol\":223:227  bool */\n      0x00\n        /* \"Chain Paper/other/Address.sol\":240:249  uint size */\n      dup1\n        /* \"Chain Paper/other/Address.sol\":304:311  account */\n      dup3\n        /* \"Chain Paper/other/Address.sol\":292:312  extcodesize(account) */\n      extcodesize\n        /* \"Chain Paper/other/Address.sol\":284:312  size := extcodesize(account) */\n      swap1\n      pop\n        /* \"Chain Paper/other/Address.sol\":347:348  0 */\n      0x00\n        /* \"Chain Paper/other/Address.sol\":340:344  size */\n      dup2\n        /* \"Chain Paper/other/Address.sol\":340:348  size > 0 */\n      gt\n        /* \"Chain Paper/other/Address.sol\":333:348  return size > 0 */\n      swap2\n      pop\n      pop\n        /* \"Chain Paper/other/Address.sol\":163:356  function isContract(address account) internal view returns (bool) {\r... */\n      swap2\n      swap1\n      pop\n      jump\t// out\n    tag_239:\n      dup3\n      dup1\n      sload\n      tag_392\n      swap1\n      tag_175\n      jump\t// in\n    tag_392:\n      swap1\n      0x00\n      mstore\n      keccak256(0x00, 0x20)\n      swap1\n      0x1f\n      add\n      0x20\n      swap1\n      div\n      dup2\n      add\n      swap3\n      dup3\n      tag_394\n      jumpi\n      0x00\n      dup6\n      sstore\n      jump(tag_393)\n    tag_394:\n      dup3\n      0x1f\n      lt\n      tag_395\n      jumpi\n      dup1\n      calldataload\n      not(0xff)\n      and\n      dup4\n      dup1\n      add\n      or\n      dup6\n      sstore\n      jump(tag_393)\n    tag_395:\n      dup3\n      dup1\n      add\n      0x01\n      add\n      dup6\n      sstore\n      dup3\n      iszero\n      tag_393\n      jumpi\n      swap2\n      dup3\n      add\n    tag_396:\n      dup3\n      dup2\n      gt\n      iszero\n      tag_397\n      jumpi\n      dup3\n      calldataload\n      dup3\n      sstore\n      swap2\n      0x20\n      add\n      swap2\n      swap1\n      0x01\n      add\n      swap1\n      jump(tag_396)\n    tag_397:\n    tag_393:\n      pop\n      swap1\n      pop\n      tag_398\n      swap2\n      swap1\n      tag_399\n      jump\t// in\n    tag_398:\n      pop\n      swap1\n      jump\t// out\n    tag_399:\n    tag_400:\n      dup1\n      dup3\n      gt\n      iszero\n      tag_401\n      jumpi\n      0x00\n      dup2\n      0x00\n      swap1\n      sstore\n      pop\n      0x01\n      add\n      jump(tag_400)\n    tag_401:\n      pop\n      swap1\n      jump\t// out\n        /* \"#utility.yul\":7:349   */\n    tag_403:\n      0x00\n        /* \"#utility.yul\":109:173   */\n      tag_405\n        /* \"#utility.yul\":124:172   */\n      tag_406\n        /* \"#utility.yul\":165:171   */\n      dup5\n        /* \"#utility.yul\":124:172   */\n      tag_407\n      jump\t// in\n    tag_406:\n        /* \"#utility.yul\":109:173   */\n      tag_408\n      jump\t// in\n    tag_405:\n        /* \"#utility.yul\":100:173   */\n      swap1\n      pop\n        /* \"#utility.yul\":196:202   */\n      dup3\n        /* \"#utility.yul\":189:194   */\n      dup2\n        /* \"#utility.yul\":182:203   */\n      mstore\n        /* \"#utility.yul\":234:238   */\n      0x20\n        /* \"#utility.yul\":227:232   */\n      dup2\n        /* \"#utility.yul\":223:239   */\n      add\n        /* \"#utility.yul\":272:275   */\n      dup5\n        /* \"#utility.yul\":263:269   */\n      dup5\n        /* \"#utility.yul\":258:261   */\n      dup5\n        /* \"#utility.yul\":254:270   */\n      add\n        /* \"#utility.yul\":251:276   */\n      gt\n        /* \"#utility.yul\":248:250   */\n      iszero\n      tag_409\n      jumpi\n        /* \"#utility.yul\":289:290   */\n      0x00\n        /* \"#utility.yul\":286:287   */\n      dup1\n        /* \"#utility.yul\":279:291   */\n      revert\n        /* \"#utility.yul\":248:250   */\n    tag_409:\n        /* \"#utility.yul\":302:343   */\n      tag_410\n        /* \"#utility.yul\":336:342   */\n      dup5\n        /* \"#utility.yul\":331:334   */\n      dup3\n        /* \"#utility.yul\":326:329   */\n      dup6\n        /* \"#utility.yul\":302:343   */\n      tag_411\n      jump\t// in\n    tag_410:\n        /* \"#utility.yul\":90:349   */\n      pop\n      swap4\n      swap3\n      pop\n      pop\n      pop\n      jump\t// out\n        /* \"#utility.yul\":355:494   */\n    tag_412:\n      0x00\n        /* \"#utility.yul\":439:445   */\n      dup2\n        /* \"#utility.yul\":426:446   */\n      calldataload\n        /* \"#utility.yul\":417:446   */\n      swap1\n      pop\n        /* \"#utility.yul\":455:488   */\n      tag_414\n        /* \"#utility.yul\":482:487   */\n      dup2\n        /* \"#utility.yul\":455:488   */\n      tag_415\n      jump\t// in\n    tag_414:\n        /* \"#utility.yul\":407:494   */\n      swap3\n      swap2\n      pop\n      pop\n      jump\t// out\n        /* \"#utility.yul\":500:633   */\n    tag_416:\n      0x00\n        /* \"#utility.yul\":581:587   */\n      dup2\n        /* \"#utility.yul\":568:588   */\n      calldataload\n        /* \"#utility.yul\":559:588   */\n      swap1\n      pop\n        /* \"#utility.yul\":597:627   */\n      tag_418\n        /* \"#utility.yul\":621:626   */\n      dup2\n        /* \"#utility.yul\":597:627   */\n      tag_419\n      jump\t// in\n    tag_418:\n        /* \"#utility.yul\":549:633   */\n      swap3\n      swap2\n      pop\n      pop\n      jump\t// out\n        /* \"#utility.yul\":639:776   */\n    tag_420:\n      0x00\n        /* \"#utility.yul\":722:728   */\n      dup2\n        /* \"#utility.yul\":709:729   */\n      calldataload\n        /* \"#utility.yul\":700:729   */\n      swap1\n      pop\n        /* \"#utility.yul\":738:770   */\n      tag_422\n        /* \"#utility.yul\":764:769   */\n      dup2\n        /* \"#utility.yul\":738:770   */\n      tag_423\n      jump\t// in\n    tag_422:\n        /* \"#utility.yul\":690:776   */\n      swap3\n      swap2\n      pop\n      pop\n      jump\t// out\n        /* \"#utility.yul\":782:923   */\n    tag_424:\n      0x00\n        /* \"#utility.yul\":869:875   */\n      dup2\n        /* \"#utility.yul\":863:876   */\n      mload\n        /* \"#utility.yul\":854:876   */\n      swap1\n      pop\n        /* \"#utility.yul\":885:917   */\n      tag_426\n        /* \"#utility.yul\":911:916   */\n      dup2\n        /* \"#utility.yul\":885:917   */\n      tag_423\n      jump\t// in\n    tag_426:\n        /* \"#utility.yul\":844:923   */\n      swap3\n      swap2\n      pop\n      pop\n      jump\t// out\n        /* \"#utility.yul\":942:1213   */\n    tag_427:\n      0x00\n        /* \"#utility.yul\":1046:1049   */\n      dup3\n        /* \"#utility.yul\":1039:1043   */\n      0x1f\n        /* \"#utility.yul\":1031:1037   */\n      dup4\n        /* \"#utility.yul\":1027:1044   */\n      add\n        /* \"#utility.yul\":1023:1050   */\n      slt\n        /* \"#utility.yul\":1013:1015   */\n      tag_429\n      jumpi\n        /* \"#utility.yul\":1064:1065   */\n      0x00\n        /* \"#utility.yul\":1061:1062   */\n      dup1\n        /* \"#utility.yul\":1054:1066   */\n      revert\n        /* \"#utility.yul\":1013:1015   */\n    tag_429:\n        /* \"#utility.yul\":1104:1110   */\n      dup2\n        /* \"#utility.yul\":1091:1111   */\n      calldataload\n        /* \"#utility.yul\":1129:1207   */\n      tag_430\n        /* \"#utility.yul\":1203:1206   */\n      dup5\n        /* \"#utility.yul\":1195:1201   */\n      dup3\n        /* \"#utility.yul\":1188:1192   */\n      0x20\n        /* \"#utility.yul\":1180:1186   */\n      dup7\n        /* \"#utility.yul\":1176:1193   */\n      add\n        /* \"#utility.yul\":1129:1207   */\n      tag_403\n      jump\t// in\n    tag_430:\n        /* \"#utility.yul\":1120:1207   */\n      swap2\n      pop\n        /* \"#utility.yul\":1003:1213   */\n      pop\n      swap3\n      swap2\n      pop\n      pop\n      jump\t// out\n        /* \"#utility.yul\":1233:1585   */\n    tag_431:\n      0x00\n      dup1\n        /* \"#utility.yul\":1351:1354   */\n      dup4\n        /* \"#utility.yul\":1344:1348   */\n      0x1f\n        /* \"#utility.yul\":1336:1342   */\n      dup5\n        /* \"#utility.yul\":1332:1349   */\n      add\n        /* \"#utility.yul\":1328:1355   */\n      slt\n        /* \"#utility.yul\":1318:1320   */\n      tag_433\n      jumpi\n        /* \"#utility.yul\":1369:1370   */\n      0x00\n        /* \"#utility.yul\":1366:1367   */\n      dup1\n        /* \"#utility.yul\":1359:1371   */\n      revert\n        /* \"#utility.yul\":1318:1320   */\n    tag_433:\n        /* \"#utility.yul\":1405:1411   */\n      dup3\n        /* \"#utility.yul\":1392:1412   */\n      calldataload\n        /* \"#utility.yul\":1382:1412   */\n      swap1\n      pop\n        /* \"#utility.yul\":1435:1453   */\n      0xffffffffffffffff\n        /* \"#utility.yul\":1427:1433   */\n      dup2\n        /* \"#utility.yul\":1424:1454   */\n      gt\n        /* \"#utility.yul\":1421:1423   */\n      iszero\n      tag_434\n      jumpi\n        /* \"#utility.yul\":1467:1468   */\n      0x00\n        /* \"#utility.yul\":1464:1465   */\n      dup1\n        /* \"#utility.yul\":1457:1469   */\n      revert\n        /* \"#utility.yul\":1421:1423   */\n    tag_434:\n        /* \"#utility.yul\":1504:1508   */\n      0x20\n        /* \"#utility.yul\":1496:1502   */\n      dup4\n        /* \"#utility.yul\":1492:1509   */\n      add\n        /* \"#utility.yul\":1480:1509   */\n      swap2\n      pop\n        /* \"#utility.yul\":1558:1561   */\n      dup4\n        /* \"#utility.yul\":1550:1554   */\n      0x01\n        /* \"#utility.yul\":1542:1548   */\n      dup3\n        /* \"#utility.yul\":1538:1555   */\n      mul\n        /* \"#utility.yul\":1528:1536   */\n      dup4\n        /* \"#utility.yul\":1524:1556   */\n      add\n        /* \"#utility.yul\":1521:1562   */\n      gt\n        /* \"#utility.yul\":1518:1520   */\n      iszero\n      tag_435\n      jumpi\n        /* \"#utility.yul\":1575:1576   */\n      0x00\n        /* \"#utility.yul\":1572:1573   */\n      dup1\n        /* \"#utility.yul\":1565:1577   */\n      revert\n        /* \"#utility.yul\":1518:1520   */\n    tag_435:\n        /* \"#utility.yul\":1308:1585   */\n      swap3\n      pop\n      swap3\n      swap1\n      pop\n      jump\t// out\n        /* \"#utility.yul\":1591:1730   */\n    tag_436:\n      0x00\n        /* \"#utility.yul\":1675:1681   */\n      dup2\n        /* \"#utility.yul\":1662:1682   */\n      calldataload\n        /* \"#utility.yul\":1653:1682   */\n      swap1\n      pop\n        /* \"#utility.yul\":1691:1724   */\n      tag_438\n        /* \"#utility.yul\":1718:1723   */\n      dup2\n        /* \"#utility.yul\":1691:1724   */\n      tag_439\n      jump\t// in\n    tag_438:\n        /* \"#utility.yul\":1643:1730   */\n      swap3\n      swap2\n      pop\n      pop\n      jump\t// out\n        /* \"#utility.yul\":1736:1998   */\n    tag_112:\n      0x00\n        /* \"#utility.yul\":1844:1846   */\n      0x20\n        /* \"#utility.yul\":1832:1841   */\n      dup3\n        /* \"#utility.yul\":1823:1830   */\n      dup5\n        /* \"#utility.yul\":1819:1842   */\n      sub\n        /* \"#utility.yul\":1815:1847   */\n      slt\n        /* \"#utility.yul\":1812:1814   */\n      iszero\n      tag_441\n      jumpi\n        /* \"#utility.yul\":1860:1861   */\n      0x00\n        /* \"#utility.yul\":1857:1858   */\n      dup1\n        /* \"#utility.yul\":1850:1862   */\n      revert\n        /* \"#utility.yul\":1812:1814   */\n    tag_441:\n        /* \"#utility.yul\":1903:1904   */\n      0x00\n        /* \"#utility.yul\":1928:1981   */\n      tag_442\n        /* \"#utility.yul\":1973:1980   */\n      dup5\n        /* \"#utility.yul\":1964:1970   */\n      dup3\n        /* \"#utility.yul\":1953:1962   */\n      dup6\n        /* \"#utility.yul\":1949:1971   */\n      add\n        /* \"#utility.yul\":1928:1981   */\n      tag_412\n      jump\t// in\n    tag_442:\n        /* \"#utility.yul\":1918:1981   */\n      swap2\n      pop\n        /* \"#utility.yul\":1874:1991   */\n      pop\n        /* \"#utility.yul\":1802:1998   */\n      swap3\n      swap2\n      pop\n      pop\n      jump\t// out\n        /* \"#utility.yul\":2004:2411   */\n    tag_164:\n      0x00\n      dup1\n        /* \"#utility.yul\":2129:2131   */\n      0x40\n        /* \"#utility.yul\":2117:2126   */\n      dup4\n        /* \"#utility.yul\":2108:2115   */\n      dup6\n        /* \"#utility.yul\":2104:2127   */\n      sub\n        /* \"#utility.yul\":2100:2132   */\n      slt\n        /* \"#utility.yul\":2097:2099   */\n      iszero\n      tag_444\n      jumpi\n        /* \"#utility.yul\":2145:2146   */\n      0x00\n        /* \"#utility.yul\":2142:2143   */\n      dup1\n        /* \"#utility.yul\":2135:2147   */\n      revert\n        /* \"#utility.yul\":2097:2099   */\n    tag_444:\n        /* \"#utility.yul\":2188:2189   */\n      0x00\n        /* \"#utility.yul\":2213:2266   */\n      tag_445\n        /* \"#utility.yul\":2258:2265   */\n      dup6\n        /* \"#utility.yul\":2249:2255   */\n      dup3\n        /* \"#utility.yul\":2238:2247   */\n      dup7\n        /* \"#utility.yul\":2234:2256   */\n      add\n        /* \"#utility.yul\":2213:2266   */\n      tag_412\n      jump\t// in\n    tag_445:\n        /* \"#utility.yul\":2203:2266   */\n      swap3\n      pop\n        /* \"#utility.yul\":2159:2276   */\n      pop\n        /* \"#utility.yul\":2315:2317   */\n      0x20\n        /* \"#utility.yul\":2341:2394   */\n      tag_446\n        /* \"#utility.yul\":2386:2393   */\n      dup6\n        /* \"#utility.yul\":2377:2383   */\n      dup3\n        /* \"#utility.yul\":2366:2375   */\n      dup7\n        /* \"#utility.yul\":2362:2384   */\n      add\n        /* \"#utility.yul\":2341:2394   */\n      tag_412\n      jump\t// in\n    tag_446:\n        /* \"#utility.yul\":2331:2394   */\n      swap2\n      pop\n        /* \"#utility.yul\":2286:2404   */\n      pop\n        /* \"#utility.yul\":2087:2411   */\n      swap3\n      pop\n      swap3\n      swap1\n      pop\n      jump\t// out\n        /* \"#utility.yul\":2417:2969   */\n    tag_74:\n      0x00\n      dup1\n      0x00\n        /* \"#utility.yul\":2559:2561   */\n      0x60\n        /* \"#utility.yul\":2547:2556   */\n      dup5\n        /* \"#utility.yul\":2538:2545   */\n      dup7\n        /* \"#utility.yul\":2534:2557   */\n      sub\n        /* \"#utility.yul\":2530:2562   */\n      slt\n        /* \"#utility.yul\":2527:2529   */\n      iszero\n      tag_448\n      jumpi\n        /* \"#utility.yul\":2575:2576   */\n      0x00\n        /* \"#utility.yul\":2572:2573   */\n      dup1\n        /* \"#utility.yul\":2565:2577   */\n      revert\n        /* \"#utility.yul\":2527:2529   */\n    tag_448:\n        /* \"#utility.yul\":2618:2619   */\n      0x00\n        /* \"#utility.yul\":2643:2696   */\n      tag_449\n        /* \"#utility.yul\":2688:2695   */\n      dup7\n        /* \"#utility.yul\":2679:2685   */\n      dup3\n        /* \"#utility.yul\":2668:2677   */\n      dup8\n        /* \"#utility.yul\":2664:2686   */\n      add\n        /* \"#utility.yul\":2643:2696   */\n      tag_412\n      jump\t// in\n    tag_449:\n        /* \"#utility.yul\":2633:2696   */\n      swap4\n      pop\n        /* \"#utility.yul\":2589:2706   */\n      pop\n        /* \"#utility.yul\":2745:2747   */\n      0x20\n        /* \"#utility.yul\":2771:2824   */\n      tag_450\n        /* \"#utility.yul\":2816:2823   */\n      dup7\n        /* \"#utility.yul\":2807:2813   */\n      dup3\n        /* \"#utility.yul\":2796:2805   */\n      dup8\n        /* \"#utility.yul\":2792:2814   */\n      add\n        /* \"#utility.yul\":2771:2824   */\n      tag_412\n      jump\t// in\n    tag_450:\n        /* \"#utility.yul\":2761:2824   */\n      swap3\n      pop\n        /* \"#utility.yul\":2716:2834   */\n      pop\n        /* \"#utility.yul\":2873:2875   */\n      0x40\n        /* \"#utility.yul\":2899:2952   */\n      tag_451\n        /* \"#utility.yul\":2944:2951   */\n      dup7\n        /* \"#utility.yul\":2935:2941   */\n      dup3\n        /* \"#utility.yul\":2924:2933   */\n      dup8\n        /* \"#utility.yul\":2920:2942   */\n      add\n        /* \"#utility.yul\":2899:2952   */\n      tag_436\n      jump\t// in\n    tag_451:\n        /* \"#utility.yul\":2889:2952   */\n      swap2\n      pop\n        /* \"#utility.yul\":2844:2962   */\n      pop\n        /* \"#utility.yul\":2517:2969   */\n      swap3\n      pop\n      swap3\n      pop\n      swap3\n      jump\t// out\n        /* \"#utility.yul\":2975:3784   */\n    tag_136:\n      0x00\n      dup1\n      0x00\n      dup1\n        /* \"#utility.yul\":3143:3146   */\n      0x80\n        /* \"#utility.yul\":3131:3140   */\n      dup6\n        /* \"#utility.yul\":3122:3129   */\n      dup8\n        /* \"#utility.yul\":3118:3141   */\n      sub\n        /* \"#utility.yul\":3114:3147   */\n      slt\n        /* \"#utility.yul\":3111:3113   */\n      iszero\n      tag_453\n      jumpi\n        /* \"#utility.yul\":3160:3161   */\n      0x00\n        /* \"#utility.yul\":3157:3158   */\n      dup1\n        /* \"#utility.yul\":3150:3162   */\n      revert\n        /* \"#utility.yul\":3111:3113   */\n    tag_453:\n        /* \"#utility.yul\":3203:3204   */\n      0x00\n        /* \"#utility.yul\":3228:3281   */\n      tag_454\n        /* \"#utility.yul\":3273:3280   */\n      dup8\n        /* \"#utility.yul\":3264:3270   */\n      dup3\n        /* \"#utility.yul\":3253:3262   */\n      dup9\n        /* \"#utility.yul\":3249:3271   */\n      add\n        /* \"#utility.yul\":3228:3281   */\n      tag_412\n      jump\t// in\n    tag_454:\n        /* \"#utility.yul\":3218:3281   */\n      swap5\n      pop\n        /* \"#utility.yul\":3174:3291   */\n      pop\n        /* \"#utility.yul\":3330:3332   */\n      0x20\n        /* \"#utility.yul\":3356:3409   */\n      tag_455\n        /* \"#utility.yul\":3401:3408   */\n      dup8\n        /* \"#utility.yul\":3392:3398   */\n      dup3\n        /* \"#utility.yul\":3381:3390   */\n      dup9\n        /* \"#utility.yul\":3377:3399   */\n      add\n        /* \"#utility.yul\":3356:3409   */\n      tag_412\n      jump\t// in\n    tag_455:\n        /* \"#utility.yul\":3346:3409   */\n      swap4\n      pop\n        /* \"#utility.yul\":3301:3419   */\n      pop\n        /* \"#utility.yul\":3458:3460   */\n      0x40\n        /* \"#utility.yul\":3484:3537   */\n      tag_456\n        /* \"#utility.yul\":3529:3536   */\n      dup8\n        /* \"#utility.yul\":3520:3526   */\n      dup3\n        /* \"#utility.yul\":3509:3518   */\n      dup9\n        /* \"#utility.yul\":3505:3527   */\n      add\n        /* \"#utility.yul\":3484:3537   */\n      tag_436\n      jump\t// in\n    tag_456:\n        /* \"#utility.yul\":3474:3537   */\n      swap3\n      pop\n        /* \"#utility.yul\":3429:3547   */\n      pop\n        /* \"#utility.yul\":3614:3616   */\n      0x60\n        /* \"#utility.yul\":3603:3612   */\n      dup6\n        /* \"#utility.yul\":3599:3617   */\n      add\n        /* \"#utility.yul\":3586:3618   */\n      calldataload\n        /* \"#utility.yul\":3645:3663   */\n      0xffffffffffffffff\n        /* \"#utility.yul\":3637:3643   */\n      dup2\n        /* \"#utility.yul\":3634:3664   */\n      gt\n        /* \"#utility.yul\":3631:3633   */\n      iszero\n      tag_457\n      jumpi\n        /* \"#utility.yul\":3677:3678   */\n      0x00\n        /* \"#utility.yul\":3674:3675   */\n      dup1\n        /* \"#utility.yul\":3667:3679   */\n      revert\n        /* \"#utility.yul\":3631:3633   */\n    tag_457:\n        /* \"#utility.yul\":3705:3767   */\n      tag_458\n        /* \"#utility.yul\":3759:3766   */\n      dup8\n        /* \"#utility.yul\":3750:3756   */\n      dup3\n        /* \"#utility.yul\":3739:3748   */\n      dup9\n        /* \"#utility.yul\":3735:3757   */\n      add\n        /* \"#utility.yul\":3705:3767   */\n      tag_427\n      jump\t// in\n    tag_458:\n        /* \"#utility.yul\":3695:3767   */\n      swap2\n      pop\n        /* \"#utility.yul\":3557:3777   */\n      pop\n        /* \"#utility.yul\":3101:3784   */\n      swap3\n      swap6\n      swap2\n      swap5\n      pop\n      swap3\n      pop\n      jump\t// out\n        /* \"#utility.yul\":3790:4191   */\n    tag_145:\n      0x00\n      dup1\n        /* \"#utility.yul\":3912:3914   */\n      0x40\n        /* \"#utility.yul\":3900:3909   */\n      dup4\n        /* \"#utility.yul\":3891:3898   */\n      dup6\n        /* \"#utility.yul\":3887:3910   */\n      sub\n        /* \"#utility.yul\":3883:3915   */\n      slt\n        /* \"#utility.yul\":3880:3882   */\n      iszero\n      tag_460\n      jumpi\n        /* \"#utility.yul\":3928:3929   */\n      0x00\n        /* \"#utility.yul\":3925:3926   */\n      dup1\n        /* \"#utility.yul\":3918:3930   */\n      revert\n        /* \"#utility.yul\":3880:3882   */\n    tag_460:\n        /* \"#utility.yul\":3971:3972   */\n      0x00\n        /* \"#utility.yul\":3996:4049   */\n      tag_461\n        /* \"#utility.yul\":4041:4048   */\n      dup6\n        /* \"#utility.yul\":4032:4038   */\n      dup3\n        /* \"#utility.yul\":4021:4030   */\n      dup7\n        /* \"#utility.yul\":4017:4039   */\n      add\n        /* \"#utility.yul\":3996:4049   */\n      tag_412\n      jump\t// in\n    tag_461:\n        /* \"#utility.yul\":3986:4049   */\n      swap3\n      pop\n        /* \"#utility.yul\":3942:4059   */\n      pop\n        /* \"#utility.yul\":4098:4100   */\n      0x20\n        /* \"#utility.yul\":4124:4174   */\n      tag_462\n        /* \"#utility.yul\":4166:4173   */\n      dup6\n        /* \"#utility.yul\":4157:4163   */\n      dup3\n        /* \"#utility.yul\":4146:4155   */\n      dup7\n        /* \"#utility.yul\":4142:4164   */\n      add\n        /* \"#utility.yul\":4124:4174   */\n      tag_416\n      jump\t// in\n    tag_462:\n        /* \"#utility.yul\":4114:4174   */\n      swap2\n      pop\n        /* \"#utility.yul\":4069:4184   */\n      pop\n        /* \"#utility.yul\":3870:4191   */\n      swap3\n      pop\n      swap3\n      swap1\n      pop\n      jump\t// out\n        /* \"#utility.yul\":4197:4604   */\n    tag_60:\n      0x00\n      dup1\n        /* \"#utility.yul\":4322:4324   */\n      0x40\n        /* \"#utility.yul\":4310:4319   */\n      dup4\n        /* \"#utility.yul\":4301:4308   */\n      dup6\n        /* \"#utility.yul\":4297:4320   */\n      sub\n        /* \"#utility.yul\":4293:4325   */\n      slt\n        /* \"#utility.yul\":4290:4292   */\n      iszero\n      tag_464\n      jumpi\n        /* \"#utility.yul\":4338:4339   */\n      0x00\n        /* \"#utility.yul\":4335:4336   */\n      dup1\n        /* \"#utility.yul\":4328:4340   */\n      revert\n        /* \"#utility.yul\":4290:4292   */\n    tag_464:\n        /* \"#utility.yul\":4381:4382   */\n      0x00\n        /* \"#utility.yul\":4406:4459   */\n      tag_465\n        /* \"#utility.yul\":4451:4458   */\n      dup6\n        /* \"#utility.yul\":4442:4448   */\n      dup3\n        /* \"#utility.yul\":4431:4440   */\n      dup7\n        /* \"#utility.yul\":4427:4449   */\n      add\n        /* \"#utility.yul\":4406:4459   */\n      tag_412\n      jump\t// in\n    tag_465:\n        /* \"#utility.yul\":4396:4459   */\n      swap3\n      pop\n        /* \"#utility.yul\":4352:4469   */\n      pop\n        /* \"#utility.yul\":4508:4510   */\n      0x20\n        /* \"#utility.yul\":4534:4587   */\n      tag_466\n        /* \"#utility.yul\":4579:4586   */\n      dup6\n        /* \"#utility.yul\":4570:4576   */\n      dup3\n        /* \"#utility.yul\":4559:4568   */\n      dup7\n        /* \"#utility.yul\":4555:4577   */\n      add\n        /* \"#utility.yul\":4534:4587   */\n      tag_436\n      jump\t// in\n    tag_466:\n        /* \"#utility.yul\":4524:4587   */\n      swap2\n      pop\n        /* \"#utility.yul\":4479:4597   */\n      pop\n        /* \"#utility.yul\":4280:4604   */\n      swap3\n      pop\n      swap3\n      swap1\n      pop\n      jump\t// out\n        /* \"#utility.yul\":4610:4870   */\n    tag_41:\n      0x00\n        /* \"#utility.yul\":4717:4719   */\n      0x20\n        /* \"#utility.yul\":4705:4714   */\n      dup3\n        /* \"#utility.yul\":4696:4703   */\n      dup5\n        /* \"#utility.yul\":4692:4715   */\n      sub\n        /* \"#utility.yul\":4688:4720   */\n      slt\n        /* \"#utility.yul\":4685:4687   */\n      iszero\n      tag_468\n      jumpi\n        /* \"#utility.yul\":4733:4734   */\n      0x00\n        /* \"#utility.yul\":4730:4731   */\n      dup1\n        /* \"#utility.yul\":4723:4735   */\n      revert\n        /* \"#utility.yul\":4685:4687   */\n    tag_468:\n        /* \"#utility.yul\":4776:4777   */\n      0x00\n        /* \"#utility.yul\":4801:4853   */\n      tag_469\n        /* \"#utility.yul\":4845:4852   */\n      dup5\n        /* \"#utility.yul\":4836:4842   */\n      dup3\n        /* \"#utility.yul\":4825:4834   */\n      dup6\n        /* \"#utility.yul\":4821:4843   */\n      add\n        /* \"#utility.yul\":4801:4853   */\n      tag_420\n      jump\t// in\n    tag_469:\n        /* \"#utility.yul\":4791:4853   */\n      swap2\n      pop\n        /* \"#utility.yul\":4747:4863   */\n      pop\n        /* \"#utility.yul\":4675:4870   */\n      swap3\n      swap2\n      pop\n      pop\n      jump\t// out\n        /* \"#utility.yul\":4876:5158   */\n    tag_389:\n      0x00\n        /* \"#utility.yul\":4994:4996   */\n      0x20\n        /* \"#utility.yul\":4982:4991   */\n      dup3\n        /* \"#utility.yul\":4973:4980   */\n      dup5\n        /* \"#utility.yul\":4969:4992   */\n      sub\n        /* \"#utility.yul\":4965:4997   */\n      slt\n        /* \"#utility.yul\":4962:4964   */\n      iszero\n      tag_471\n      jumpi\n        /* \"#utility.yul\":5010:5011   */\n      0x00\n        /* \"#utility.yul\":5007:5008   */\n      dup1\n        /* \"#utility.yul\":5000:5012   */\n      revert\n        /* \"#utility.yul\":4962:4964   */\n    tag_471:\n        /* \"#utility.yul\":5053:5054   */\n      0x00\n        /* \"#utility.yul\":5078:5141   */\n      tag_472\n        /* \"#utility.yul\":5133:5140   */\n      dup5\n        /* \"#utility.yul\":5124:5130   */\n      dup3\n        /* \"#utility.yul\":5113:5122   */\n      dup6\n        /* \"#utility.yul\":5109:5131   */\n      add\n        /* \"#utility.yul\":5078:5141   */\n      tag_424\n      jump\t// in\n    tag_472:\n        /* \"#utility.yul\":5068:5141   */\n      swap2\n      pop\n        /* \"#utility.yul\":5024:5151   */\n      pop\n        /* \"#utility.yul\":4952:5158   */\n      swap3\n      swap2\n      pop\n      pop\n      jump\t// out\n        /* \"#utility.yul\":5164:5559   */\n    tag_102:\n      0x00\n      dup1\n        /* \"#utility.yul\":5292:5294   */\n      0x20\n        /* \"#utility.yul\":5280:5289   */\n      dup4\n        /* \"#utility.yul\":5271:5278   */\n      dup6\n        /* \"#utility.yul\":5267:5290   */\n      sub\n        /* \"#utility.yul\":5263:5295   */\n      slt\n        /* \"#utility.yul\":5260:5262   */\n      iszero\n      tag_474\n      jumpi\n        /* \"#utility.yul\":5308:5309   */\n      0x00\n        /* \"#utility.yul\":5305:5306   */\n      dup1\n        /* \"#utility.yul\":5298:5310   */\n      revert\n        /* \"#utility.yul\":5260:5262   */\n    tag_474:\n        /* \"#utility.yul\":5379:5380   */\n      0x00\n        /* \"#utility.yul\":5368:5377   */\n      dup4\n        /* \"#utility.yul\":5364:5381   */\n      add\n        /* \"#utility.yul\":5351:5382   */\n      calldataload\n        /* \"#utility.yul\":5409:5427   */\n      0xffffffffffffffff\n        /* \"#utility.yul\":5401:5407   */\n      dup2\n        /* \"#utility.yul\":5398:5428   */\n      gt\n        /* \"#utility.yul\":5395:5397   */\n      iszero\n      tag_475\n      jumpi\n        /* \"#utility.yul\":5441:5442   */\n      0x00\n        /* \"#utility.yul\":5438:5439   */\n      dup1\n        /* \"#utility.yul\":5431:5443   */\n      revert\n        /* \"#utility.yul\":5395:5397   */\n    tag_475:\n        /* \"#utility.yul\":5477:5542   */\n      tag_476\n        /* \"#utility.yul\":5534:5541   */\n      dup6\n        /* \"#utility.yul\":5525:5531   */\n      dup3\n        /* \"#utility.yul\":5514:5523   */\n      dup7\n        /* \"#utility.yul\":5510:5532   */\n      add\n        /* \"#utility.yul\":5477:5542   */\n      tag_431\n      jump\t// in\n    tag_476:\n        /* \"#utility.yul\":5459:5542   */\n      swap3\n      pop\n      swap3\n      pop\n        /* \"#utility.yul\":5322:5552   */\n      pop\n        /* \"#utility.yul\":5250:5559   */\n      swap3\n      pop\n      swap3\n      swap1\n      pop\n      jump\t// out\n        /* \"#utility.yul\":5565:5827   */\n    tag_53:\n      0x00\n        /* \"#utility.yul\":5673:5675   */\n      0x20\n        /* \"#utility.yul\":5661:5670   */\n      dup3\n        /* \"#utility.yul\":5652:5659   */\n      dup5\n        /* \"#utility.yul\":5648:5671   */\n      sub\n        /* \"#utility.yul\":5644:5676   */\n      slt\n        /* \"#utility.yul\":5641:5643   */\n      iszero\n      tag_478\n      jumpi\n        /* \"#utility.yul\":5689:5690   */\n      0x00\n        /* \"#utility.yul\":5686:5687   */\n      dup1\n        /* \"#utility.yul\":5679:5691   */\n      revert\n        /* \"#utility.yul\":5641:5643   */\n    tag_478:\n        /* \"#utility.yul\":5732:5733   */\n      0x00\n        /* \"#utility.yul\":5757:5810   */\n      tag_479\n        /* \"#utility.yul\":5802:5809   */\n      dup5\n        /* \"#utility.yul\":5793:5799   */\n      dup3\n        /* \"#utility.yul\":5782:5791   */\n      dup6\n        /* \"#utility.yul\":5778:5800   */\n      add\n        /* \"#utility.yul\":5757:5810   */\n      tag_436\n      jump\t// in\n    tag_479:\n        /* \"#utility.yul\":5747:5810   */\n      swap2\n      pop\n        /* \"#utility.yul\":5703:5820   */\n      pop\n        /* \"#utility.yul\":5631:5827   */\n      swap3\n      swap2\n      pop\n      pop\n      jump\t// out\n        /* \"#utility.yul\":5833:5951   */\n    tag_480:\n        /* \"#utility.yul\":5920:5944   */\n      tag_482\n        /* \"#utility.yul\":5938:5943   */\n      dup2\n        /* \"#utility.yul\":5920:5944   */\n      tag_483\n      jump\t// in\n    tag_482:\n        /* \"#utility.yul\":5915:5918   */\n      dup3\n        /* \"#utility.yul\":5908:5945   */\n      mstore\n        /* \"#utility.yul\":5898:5951   */\n      pop\n      pop\n      jump\t// out\n        /* \"#utility.yul\":5957:6066   */\n    tag_484:\n        /* \"#utility.yul\":6038:6059   */\n      tag_486\n        /* \"#utility.yul\":6053:6058   */\n      dup2\n        /* \"#utility.yul\":6038:6059   */\n      tag_487\n      jump\t// in\n    tag_486:\n        /* \"#utility.yul\":6033:6036   */\n      dup3\n        /* \"#utility.yul\":6026:6060   */\n      mstore\n        /* \"#utility.yul\":6016:6066   */\n      pop\n      pop\n      jump\t// out\n        /* \"#utility.yul\":6072:6432   */\n    tag_488:\n      0x00\n        /* \"#utility.yul\":6186:6224   */\n      tag_490\n        /* \"#utility.yul\":6218:6223   */\n      dup3\n        /* \"#utility.yul\":6186:6224   */\n      tag_491\n      jump\t// in\n    tag_490:\n        /* \"#utility.yul\":6240:6310   */\n      tag_492\n        /* \"#utility.yul\":6303:6309   */\n      dup2\n        /* \"#utility.yul\":6298:6301   */\n      dup6\n        /* \"#utility.yul\":6240:6310   */\n      tag_493\n      jump\t// in\n    tag_492:\n        /* \"#utility.yul\":6233:6310   */\n      swap4\n      pop\n        /* \"#utility.yul\":6319:6371   */\n      tag_494\n        /* \"#utility.yul\":6364:6370   */\n      dup2\n        /* \"#utility.yul\":6359:6362   */\n      dup6\n        /* \"#utility.yul\":6352:6356   */\n      0x20\n        /* \"#utility.yul\":6345:6350   */\n      dup7\n        /* \"#utility.yul\":6341:6357   */\n      add\n        /* \"#utility.yul\":6319:6371   */\n      tag_495\n      jump\t// in\n    tag_494:\n        /* \"#utility.yul\":6396:6425   */\n      tag_496\n        /* \"#utility.yul\":6418:6424   */\n      dup2\n        /* \"#utility.yul\":6396:6425   */\n      tag_497\n      jump\t// in\n    tag_496:\n        /* \"#utility.yul\":6391:6394   */\n      dup5\n        /* \"#utility.yul\":6387:6426   */\n      add\n        /* \"#utility.yul\":6380:6426   */\n      swap2\n      pop\n        /* \"#utility.yul\":6162:6432   */\n      pop\n      swap3\n      swap2\n      pop\n      pop\n      jump\t// out\n        /* \"#utility.yul\":6438:6802   */\n    tag_498:\n      0x00\n        /* \"#utility.yul\":6554:6593   */\n      tag_500\n        /* \"#utility.yul\":6587:6592   */\n      dup3\n        /* \"#utility.yul\":6554:6593   */\n      tag_501\n      jump\t// in\n    tag_500:\n        /* \"#utility.yul\":6609:6680   */\n      tag_502\n        /* \"#utility.yul\":6673:6679   */\n      dup2\n        /* \"#utility.yul\":6668:6671   */\n      dup6\n        /* \"#utility.yul\":6609:6680   */\n      tag_503\n      jump\t// in\n    tag_502:\n        /* \"#utility.yul\":6602:6680   */\n      swap4\n      pop\n        /* \"#utility.yul\":6689:6741   */\n      tag_504\n        /* \"#utility.yul\":6734:6740   */\n      dup2\n        /* \"#utility.yul\":6729:6732   */\n      dup6\n        /* \"#utility.yul\":6722:6726   */\n      0x20\n        /* \"#utility.yul\":6715:6720   */\n      dup7\n        /* \"#utility.yul\":6711:6727   */\n      add\n        /* \"#utility.yul\":6689:6741   */\n      tag_495\n      jump\t// in\n    tag_504:\n        /* \"#utility.yul\":6766:6795   */\n      tag_505\n        /* \"#utility.yul\":6788:6794   */\n      dup2\n        /* \"#utility.yul\":6766:6795   */\n      tag_497\n      jump\t// in\n    tag_505:\n        /* \"#utility.yul\":6761:6764   */\n      dup5\n        /* \"#utility.yul\":6757:6796   */\n      add\n        /* \"#utility.yul\":6750:6796   */\n      swap2\n      pop\n        /* \"#utility.yul\":6530:6802   */\n      pop\n      swap3\n      swap2\n      pop\n      pop\n      jump\t// out\n        /* \"#utility.yul\":6808:7185   */\n    tag_506:\n      0x00\n        /* \"#utility.yul\":6942:6981   */\n      tag_508\n        /* \"#utility.yul\":6975:6980   */\n      dup3\n        /* \"#utility.yul\":6942:6981   */\n      tag_501\n      jump\t// in\n    tag_508:\n        /* \"#utility.yul\":6997:7086   */\n      tag_509\n        /* \"#utility.yul\":7079:7085   */\n      dup2\n        /* \"#utility.yul\":7074:7077   */\n      dup6\n        /* \"#utility.yul\":6997:7086   */\n      tag_510\n      jump\t// in\n    tag_509:\n        /* \"#utility.yul\":6990:7086   */\n      swap4\n      pop\n        /* \"#utility.yul\":7095:7147   */\n      tag_511\n        /* \"#utility.yul\":7140:7146   */\n      dup2\n        /* \"#utility.yul\":7135:7138   */\n      dup6\n        /* \"#utility.yul\":7128:7132   */\n      0x20\n        /* \"#utility.yul\":7121:7126   */\n      dup7\n        /* \"#utility.yul\":7117:7133   */\n      add\n        /* \"#utility.yul\":7095:7147   */\n      tag_495\n      jump\t// in\n    tag_511:\n        /* \"#utility.yul\":7172:7178   */\n      dup1\n        /* \"#utility.yul\":7167:7170   */\n      dup5\n        /* \"#utility.yul\":7163:7179   */\n      add\n        /* \"#utility.yul\":7156:7179   */\n      swap2\n      pop\n        /* \"#utility.yul\":6918:7185   */\n      pop\n      swap3\n      swap2\n      pop\n      pop\n      jump\t// out\n        /* \"#utility.yul\":7191:7518   */\n    tag_512:\n      0x00\n        /* \"#utility.yul\":7354:7421   */\n      tag_514\n        /* \"#utility.yul\":7418:7420   */\n      0x1d\n        /* \"#utility.yul\":7413:7416   */\n      dup4\n        /* \"#utility.yul\":7354:7421   */\n      tag_503\n      jump\t// in\n    tag_514:\n        /* \"#utility.yul\":7347:7421   */\n      swap2\n      pop\n        /* \"#utility.yul\":7451:7482   */\n      0x6e6f74206f776e6572206f7220617070726f76656420666f7220616c6c000000\n        /* \"#utility.yul\":7447:7448   */\n      0x00\n        /* \"#utility.yul\":7442:7445   */\n      dup4\n        /* \"#utility.yul\":7438:7449   */\n      add\n        /* \"#utility.yul\":7431:7483   */\n      mstore\n        /* \"#utility.yul\":7509:7511   */\n      0x20\n        /* \"#utility.yul\":7504:7507   */\n      dup3\n        /* \"#utility.yul\":7500:7512   */\n      add\n        /* \"#utility.yul\":7493:7512   */\n      swap1\n      pop\n        /* \"#utility.yul\":7337:7518   */\n      swap2\n      swap1\n      pop\n      jump\t// out\n        /* \"#utility.yul\":7524:7837   */\n    tag_515:\n      0x00\n        /* \"#utility.yul\":7687:7754   */\n      tag_517\n        /* \"#utility.yul\":7751:7753   */\n      0x0f\n        /* \"#utility.yul\":7746:7749   */\n      dup4\n        /* \"#utility.yul\":7687:7754   */\n      tag_503\n      jump\t// in\n    tag_517:\n        /* \"#utility.yul\":7680:7754   */\n      swap2\n      pop\n        /* \"#utility.yul\":7784:7801   */\n      0x746f206973203020616464726573730000000000000000000000000000000000\n        /* \"#utility.yul\":7780:7781   */\n      0x00\n        /* \"#utility.yul\":7775:7778   */\n      dup4\n        /* \"#utility.yul\":7771:7782   */\n      add\n        /* \"#utility.yul\":7764:7802   */\n      mstore\n        /* \"#utility.yul\":7828:7830   */\n      0x20\n        /* \"#utility.yul\":7823:7826   */\n      dup3\n        /* \"#utility.yul\":7819:7831   */\n      add\n        /* \"#utility.yul\":7812:7831   */\n      swap1\n      pop\n        /* \"#utility.yul\":7670:7837   */\n      swap2\n      swap1\n      pop\n      jump\t// out\n        /* \"#utility.yul\":7843:8163   */\n    tag_518:\n      0x00\n        /* \"#utility.yul\":8006:8073   */\n      tag_520\n        /* \"#utility.yul\":8070:8072   */\n      0x16\n        /* \"#utility.yul\":8065:8068   */\n      dup4\n        /* \"#utility.yul\":8006:8073   */\n      tag_503\n      jump\t// in\n    tag_520:\n        /* \"#utility.yul\":7999:8073   */\n      swap2\n      pop\n        /* \"#utility.yul\":8103:8127   */\n      0x6e6f74206f776e6572206e6f7220617070726f76656400000000000000000000\n        /* \"#utility.yul\":8099:8100   */\n      0x00\n        /* \"#utility.yul\":8094:8097   */\n      dup4\n        /* \"#utility.yul\":8090:8101   */\n      add\n        /* \"#utility.yul\":8083:8128   */\n      mstore\n        /* \"#utility.yul\":8154:8156   */\n      0x20\n        /* \"#utility.yul\":8149:8152   */\n      dup3\n        /* \"#utility.yul\":8145:8157   */\n      add\n        /* \"#utility.yul\":8138:8157   */\n      swap1\n      pop\n        /* \"#utility.yul\":7989:8163   */\n      swap2\n      swap1\n      pop\n      jump\t// out\n        /* \"#utility.yul\":8169:8539   */\n    tag_521:\n      0x00\n        /* \"#utility.yul\":8332:8399   */\n      tag_523\n        /* \"#utility.yul\":8396:8398   */\n      0x26\n        /* \"#utility.yul\":8391:8394   */\n      dup4\n        /* \"#utility.yul\":8332:8399   */\n      tag_503\n      jump\t// in\n    tag_523:\n        /* \"#utility.yul\":8325:8399   */\n      swap2\n      pop\n        /* \"#utility.yul\":8429:8463   */\n      0x4f776e61626c653a206e6577206f776e657220697320746865207a65726f2061\n        /* \"#utility.yul\":8425:8426   */\n      0x00\n        /* \"#utility.yul\":8420:8423   */\n      dup4\n        /* \"#utility.yul\":8416:8427   */\n      add\n        /* \"#utility.yul\":8409:8464   */\n      mstore\n        /* \"#utility.yul\":8495:8503   */\n      0x6464726573730000000000000000000000000000000000000000000000000000\n        /* \"#utility.yul\":8490:8492   */\n      0x20\n        /* \"#utility.yul\":8485:8488   */\n      dup4\n        /* \"#utility.yul\":8481:8493   */\n      add\n        /* \"#utility.yul\":8474:8504   */\n      mstore\n        /* \"#utility.yul\":8530:8532   */\n      0x40\n        /* \"#utility.yul\":8525:8528   */\n      dup3\n        /* \"#utility.yul\":8521:8533   */\n      add\n        /* \"#utility.yul\":8514:8533   */\n      swap1\n      pop\n        /* \"#utility.yul\":8315:8539   */\n      swap2\n      swap1\n      pop\n      jump\t// out\n        /* \"#utility.yul\":8545:8858   */\n    tag_524:\n      0x00\n        /* \"#utility.yul\":8708:8775   */\n      tag_526\n        /* \"#utility.yul\":8772:8774   */\n      0x0f\n        /* \"#utility.yul\":8767:8770   */\n      dup4\n        /* \"#utility.yul\":8708:8775   */\n      tag_503\n      jump\t// in\n    tag_526:\n        /* \"#utility.yul\":8701:8775   */\n      swap2\n      pop\n        /* \"#utility.yul\":8805:8822   */\n      0x5472616e73666572206661696c65640000000000000000000000000000000000\n        /* \"#utility.yul\":8801:8802   */\n      0x00\n        /* \"#utility.yul\":8796:8799   */\n      dup4\n        /* \"#utility.yul\":8792:8803   */\n      add\n        /* \"#utility.yul\":8785:8823   */\n      mstore\n        /* \"#utility.yul\":8849:8851   */\n      0x20\n        /* \"#utility.yul\":8844:8847   */\n      dup3\n        /* \"#utility.yul\":8840:8852   */\n      add\n        /* \"#utility.yul\":8833:8852   */\n      swap1\n      pop\n        /* \"#utility.yul\":8691:8858   */\n      swap2\n      swap1\n      pop\n      jump\t// out\n        /* \"#utility.yul\":8864:9186   */\n    tag_527:\n      0x00\n        /* \"#utility.yul\":9027:9094   */\n      tag_529\n        /* \"#utility.yul\":9091:9093   */\n      0x18\n        /* \"#utility.yul\":9086:9089   */\n      dup4\n        /* \"#utility.yul\":9027:9094   */\n      tag_503\n      jump\t// in\n    tag_529:\n        /* \"#utility.yul\":9020:9094   */\n      swap2\n      pop\n        /* \"#utility.yul\":9124:9150   */\n      0x73616c6520686173206e6f742073746172746564207965740000000000000000\n        /* \"#utility.yul\":9120:9121   */\n      0x00\n        /* \"#utility.yul\":9115:9118   */\n      dup4\n        /* \"#utility.yul\":9111:9122   */\n      add\n        /* \"#utility.yul\":9104:9151   */\n      mstore\n        /* \"#utility.yul\":9177:9179   */\n      0x20\n        /* \"#utility.yul\":9172:9175   */\n      dup3\n        /* \"#utility.yul\":9168:9180   */\n      add\n        /* \"#utility.yul\":9161:9180   */\n      swap1\n      pop\n        /* \"#utility.yul\":9010:9186   */\n      swap2\n      swap1\n      pop\n      jump\t// out\n        /* \"#utility.yul\":9192:9509   */\n    tag_530:\n      0x00\n        /* \"#utility.yul\":9355:9422   */\n      tag_532\n        /* \"#utility.yul\":9419:9421   */\n      0x13\n        /* \"#utility.yul\":9414:9417   */\n      dup4\n        /* \"#utility.yul\":9355:9422   */\n      tag_503\n      jump\t// in\n    tag_532:\n        /* \"#utility.yul\":9348:9422   */\n      swap2\n      pop\n        /* \"#utility.yul\":9452:9473   */\n      0x746f6b656e20646f65736e277420657869737400000000000000000000000000\n        /* \"#utility.yul\":9448:9449   */\n      0x00\n        /* \"#utility.yul\":9443:9446   */\n      dup4\n        /* \"#utility.yul\":9439:9450   */\n      add\n        /* \"#utility.yul\":9432:9474   */\n      mstore\n        /* \"#utility.yul\":9500:9502   */\n      0x20\n        /* \"#utility.yul\":9495:9498   */\n      dup3\n        /* \"#utility.yul\":9491:9503   */\n      add\n        /* \"#utility.yul\":9484:9503   */\n      swap1\n      pop\n        /* \"#utility.yul\":9338:9509   */\n      swap2\n      swap1\n      pop\n      jump\t// out\n        /* \"#utility.yul\":9515:9845   */\n    tag_533:\n      0x00\n        /* \"#utility.yul\":9678:9745   */\n      tag_535\n        /* \"#utility.yul\":9742:9744   */\n      0x20\n        /* \"#utility.yul\":9737:9740   */\n      dup4\n        /* \"#utility.yul\":9678:9745   */\n      tag_503\n      jump\t// in\n    tag_535:\n        /* \"#utility.yul\":9671:9745   */\n      swap2\n      pop\n        /* \"#utility.yul\":9775:9809   */\n      0x4f776e61626c653a2063616c6c6572206973206e6f7420746865206f776e6572\n        /* \"#utility.yul\":9771:9772   */\n      0x00\n        /* \"#utility.yul\":9766:9769   */\n      dup4\n        /* \"#utility.yul\":9762:9773   */\n      add\n        /* \"#utility.yul\":9755:9810   */\n      mstore\n        /* \"#utility.yul\":9836:9838   */\n      0x20\n        /* \"#utility.yul\":9831:9834   */\n      dup3\n        /* \"#utility.yul\":9827:9839   */\n      add\n        /* \"#utility.yul\":9820:9839   */\n      swap1\n      pop\n        /* \"#utility.yul\":9661:9845   */\n      swap2\n      swap1\n      pop\n      jump\t// out\n        /* \"#utility.yul\":9851:10169   */\n    tag_536:\n      0x00\n        /* \"#utility.yul\":10014:10081   */\n      tag_538\n        /* \"#utility.yul\":10078:10080   */\n      0x14\n        /* \"#utility.yul\":10073:10076   */\n      dup4\n        /* \"#utility.yul\":10014:10081   */\n      tag_503\n      jump\t// in\n    tag_538:\n        /* \"#utility.yul\":10007:10081   */\n      swap2\n      pop\n        /* \"#utility.yul\":10111:10133   */\n      0x746f6b656e20616c7265616479206d696e746564000000000000000000000000\n        /* \"#utility.yul\":10107:10108   */\n      0x00\n        /* \"#utility.yul\":10102:10105   */\n      dup4\n        /* \"#utility.yul\":10098:10109   */\n      add\n        /* \"#utility.yul\":10091:10134   */\n      mstore\n        /* \"#utility.yul\":10160:10162   */\n      0x20\n        /* \"#utility.yul\":10155:10158   */\n      dup3\n        /* \"#utility.yul\":10151:10163   */\n      add\n        /* \"#utility.yul\":10144:10163   */\n      swap1\n      pop\n        /* \"#utility.yul\":9997:10169   */\n      swap2\n      swap1\n      pop\n      jump\t// out\n        /* \"#utility.yul\":10175:10490   */\n    tag_539:\n      0x00\n        /* \"#utility.yul\":10338:10405   */\n      tag_541\n        /* \"#utility.yul\":10402:10404   */\n      0x11\n        /* \"#utility.yul\":10397:10400   */\n      dup4\n        /* \"#utility.yul\":10338:10405   */\n      tag_503\n      jump\t// in\n    tag_541:\n        /* \"#utility.yul\":10331:10405   */\n      swap2\n      pop\n        /* \"#utility.yul\":10435:10454   */\n      0x6f776e6572203d20302061646472657373000000000000000000000000000000\n        /* \"#utility.yul\":10431:10432   */\n      0x00\n        /* \"#utility.yul\":10426:10429   */\n      dup4\n        /* \"#utility.yul\":10422:10433   */\n      add\n        /* \"#utility.yul\":10415:10455   */\n      mstore\n        /* \"#utility.yul\":10481:10483   */\n      0x20\n        /* \"#utility.yul\":10476:10479   */\n      dup3\n        /* \"#utility.yul\":10472:10484   */\n      add\n        /* \"#utility.yul\":10465:10484   */\n      swap1\n      pop\n        /* \"#utility.yul\":10321:10490   */\n      swap2\n      swap1\n      pop\n      jump\t// out\n        /* \"#utility.yul\":10496:10793   */\n    tag_542:\n      0x00\n        /* \"#utility.yul\":10676:10759   */\n      tag_544\n        /* \"#utility.yul\":10757:10758   */\n      0x00\n        /* \"#utility.yul\":10752:10755   */\n      dup4\n        /* \"#utility.yul\":10676:10759   */\n      tag_545\n      jump\t// in\n    tag_544:\n        /* \"#utility.yul\":10669:10759   */\n      swap2\n      pop\n        /* \"#utility.yul\":10785:10786   */\n      0x00\n        /* \"#utility.yul\":10780:10783   */\n      dup3\n        /* \"#utility.yul\":10776:10787   */\n      add\n        /* \"#utility.yul\":10769:10787   */\n      swap1\n      pop\n        /* \"#utility.yul\":10659:10793   */\n      swap2\n      swap1\n      pop\n      jump\t// out\n        /* \"#utility.yul\":10799:11119   */\n    tag_546:\n      0x00\n        /* \"#utility.yul\":10962:11029   */\n      tag_548\n        /* \"#utility.yul\":11026:11028   */\n      0x16\n        /* \"#utility.yul\":11021:11024   */\n      dup4\n        /* \"#utility.yul\":10962:11029   */\n      tag_503\n      jump\t// in\n    tag_548:\n        /* \"#utility.yul\":10955:11029   */\n      swap2\n      pop\n        /* \"#utility.yul\":11059:11083   */\n      0x4e65656420746f2073656e64206d6f7265204554482e00000000000000000000\n        /* \"#utility.yul\":11055:11056   */\n      0x00\n        /* \"#utility.yul\":11050:11053   */\n      dup4\n        /* \"#utility.yul\":11046:11057   */\n      add\n        /* \"#utility.yul\":11039:11084   */\n      mstore\n        /* \"#utility.yul\":11110:11112   */\n      0x20\n        /* \"#utility.yul\":11105:11108   */\n      dup3\n        /* \"#utility.yul\":11101:11113   */\n      add\n        /* \"#utility.yul\":11094:11113   */\n      swap1\n      pop\n        /* \"#utility.yul\":10945:11119   */\n      swap2\n      swap1\n      pop\n      jump\t// out\n        /* \"#utility.yul\":11125:11438   */\n    tag_549:\n      0x00\n        /* \"#utility.yul\":11288:11355   */\n      tag_551\n        /* \"#utility.yul\":11352:11354   */\n      0x0f\n        /* \"#utility.yul\":11347:11350   */\n      dup4\n        /* \"#utility.yul\":11288:11355   */\n      tag_503\n      jump\t// in\n    tag_551:\n        /* \"#utility.yul\":11281:11355   */\n      swap2\n      pop\n        /* \"#utility.yul\":11385:11402   */\n      0x546f6b656e206e6f742065786973740000000000000000000000000000000000\n        /* \"#utility.yul\":11381:11382   */\n      0x00\n        /* \"#utility.yul\":11376:11379   */\n      dup4\n        /* \"#utility.yul\":11372:11383   */\n      add\n        /* \"#utility.yul\":11365:11403   */\n      mstore\n        /* \"#utility.yul\":11429:11431   */\n      0x20\n        /* \"#utility.yul\":11424:11427   */\n      dup3\n        /* \"#utility.yul\":11420:11432   */\n      add\n        /* \"#utility.yul\":11413:11432   */\n      swap1\n      pop\n        /* \"#utility.yul\":11271:11438   */\n      swap2\n      swap1\n      pop\n      jump\t// out\n        /* \"#utility.yul\":11444:11760   */\n    tag_552:\n      0x00\n        /* \"#utility.yul\":11607:11674   */\n      tag_554\n        /* \"#utility.yul\":11671:11673   */\n      0x12\n        /* \"#utility.yul\":11666:11669   */\n      dup4\n        /* \"#utility.yul\":11607:11674   */\n      tag_503\n      jump\t// in\n    tag_554:\n        /* \"#utility.yul\":11600:11674   */\n      swap2\n      pop\n        /* \"#utility.yul\":11704:11724   */\n      0x6e6f742045524337323152656365697665720000000000000000000000000000\n        /* \"#utility.yul\":11700:11701   */\n      0x00\n        /* \"#utility.yul\":11695:11698   */\n      dup4\n        /* \"#utility.yul\":11691:11702   */\n      add\n        /* \"#utility.yul\":11684:11725   */\n      mstore\n        /* \"#utility.yul\":11751:11753   */\n      0x20\n        /* \"#utility.yul\":11746:11749   */\n      dup3\n        /* \"#utility.yul\":11742:11754   */\n      add\n        /* \"#utility.yul\":11735:11754   */\n      swap1\n      pop\n        /* \"#utility.yul\":11590:11760   */\n      swap2\n      swap1\n      pop\n      jump\t// out\n        /* \"#utility.yul\":11766:12204   */\n    tag_555:\n      0x00\n        /* \"#utility.yul\":11929:11996   */\n      tag_557\n        /* \"#utility.yul\":11993:11995   */\n      0x48\n        /* \"#utility.yul\":11988:11991   */\n      dup4\n        /* \"#utility.yul\":11929:11996   */\n      tag_503\n      jump\t// in\n    tag_557:\n        /* \"#utility.yul\":11922:11996   */\n      swap2\n      pop\n        /* \"#utility.yul\":12026:12060   */\n      0x6e6f7420656e6f7567682072656d61696e696e6720726573657276656420666f\n        /* \"#utility.yul\":12022:12023   */\n      0x00\n        /* \"#utility.yul\":12017:12020   */\n      dup4\n        /* \"#utility.yul\":12013:12024   */\n      add\n        /* \"#utility.yul\":12006:12061   */\n      mstore\n        /* \"#utility.yul\":12092:12126   */\n      0x722061756374696f6e20746f20737570706f72742064657369726564206d696e\n        /* \"#utility.yul\":12087:12089   */\n      0x20\n        /* \"#utility.yul\":12082:12085   */\n      dup4\n        /* \"#utility.yul\":12078:12090   */\n      add\n        /* \"#utility.yul\":12071:12127   */\n      mstore\n        /* \"#utility.yul\":12158:12168   */\n      0x7420616d6f756e74000000000000000000000000000000000000000000000000\n        /* \"#utility.yul\":12153:12155   */\n      0x40\n        /* \"#utility.yul\":12148:12151   */\n      dup4\n        /* \"#utility.yul\":12144:12156   */\n      add\n        /* \"#utility.yul\":12137:12169   */\n      mstore\n        /* \"#utility.yul\":12195:12197   */\n      0x60\n        /* \"#utility.yul\":12190:12193   */\n      dup3\n        /* \"#utility.yul\":12186:12198   */\n      add\n        /* \"#utility.yul\":12179:12198   */\n      swap1\n      pop\n        /* \"#utility.yul\":11912:12204   */\n      swap2\n      swap1\n      pop\n      jump\t// out\n        /* \"#utility.yul\":12210:12516   */\n    tag_558:\n      0x00\n        /* \"#utility.yul\":12373:12439   */\n      tag_560\n        /* \"#utility.yul\":12437:12438   */\n      0x09\n        /* \"#utility.yul\":12432:12435   */\n      dup4\n        /* \"#utility.yul\":12373:12439   */\n      tag_503\n      jump\t// in\n    tag_560:\n        /* \"#utility.yul\":12366:12439   */\n      swap2\n      pop\n        /* \"#utility.yul\":12469:12480   */\n      0x6e6f74206f776e65720000000000000000000000000000000000000000000000\n        /* \"#utility.yul\":12465:12466   */\n      0x00\n        /* \"#utility.yul\":12460:12463   */\n      dup4\n        /* \"#utility.yul\":12456:12467   */\n      add\n        /* \"#utility.yul\":12449:12481   */\n      mstore\n        /* \"#utility.yul\":12507:12509   */\n      0x20\n        /* \"#utility.yul\":12502:12505   */\n      dup3\n        /* \"#utility.yul\":12498:12510   */\n      add\n        /* \"#utility.yul\":12491:12510   */\n      swap1\n      pop\n        /* \"#utility.yul\":12356:12516   */\n      swap2\n      swap1\n      pop\n      jump\t// out\n        /* \"#utility.yul\":12522:12640   */\n    tag_561:\n        /* \"#utility.yul\":12609:12633   */\n      tag_563\n        /* \"#utility.yul\":12627:12632   */\n      dup2\n        /* \"#utility.yul\":12609:12633   */\n      tag_564\n      jump\t// in\n    tag_563:\n        /* \"#utility.yul\":12604:12607   */\n      dup3\n        /* \"#utility.yul\":12597:12634   */\n      mstore\n        /* \"#utility.yul\":12587:12640   */\n      pop\n      pop\n      jump\t// out\n        /* \"#utility.yul\":12646:13081   */\n    tag_290:\n      0x00\n        /* \"#utility.yul\":12848:12943   */\n      tag_566\n        /* \"#utility.yul\":12939:12942   */\n      dup3\n        /* \"#utility.yul\":12930:12936   */\n      dup6\n        /* \"#utility.yul\":12848:12943   */\n      tag_506\n      jump\t// in\n    tag_566:\n        /* \"#utility.yul\":12841:12943   */\n      swap2\n      pop\n        /* \"#utility.yul\":12960:13055   */\n      tag_567\n        /* \"#utility.yul\":13051:13054   */\n      dup3\n        /* \"#utility.yul\":13042:13048   */\n      dup5\n        /* \"#utility.yul\":12960:13055   */\n      tag_506\n      jump\t// in\n    tag_567:\n        /* \"#utility.yul\":12953:13055   */\n      swap2\n      pop\n        /* \"#utility.yul\":13072:13075   */\n      dup2\n        /* \"#utility.yul\":13065:13075   */\n      swap1\n      pop\n        /* \"#utility.yul\":12830:13081   */\n      swap4\n      swap3\n      pop\n      pop\n      pop\n      jump\t// out\n        /* \"#utility.yul\":13087:13466   */\n    tag_262:\n      0x00\n        /* \"#utility.yul\":13293:13440   */\n      tag_569\n        /* \"#utility.yul\":13436:13439   */\n      dup3\n        /* \"#utility.yul\":13293:13440   */\n      tag_542\n      jump\t// in\n    tag_569:\n        /* \"#utility.yul\":13286:13440   */\n      swap2\n      pop\n        /* \"#utility.yul\":13457:13460   */\n      dup2\n        /* \"#utility.yul\":13450:13460   */\n      swap1\n      pop\n        /* \"#utility.yul\":13275:13466   */\n      swap2\n      swap1\n      pop\n      jump\t// out\n        /* \"#utility.yul\":13472:13694   */\n    tag_56:\n      0x00\n        /* \"#utility.yul\":13603:13605   */\n      0x20\n        /* \"#utility.yul\":13592:13601   */\n      dup3\n        /* \"#utility.yul\":13588:13606   */\n      add\n        /* \"#utility.yul\":13580:13606   */\n      swap1\n      pop\n        /* \"#utility.yul\":13616:13687   */\n      tag_571\n        /* \"#utility.yul\":13684:13685   */\n      0x00\n        /* \"#utility.yul\":13673:13682   */\n      dup4\n        /* \"#utility.yul\":13669:13686   */\n      add\n        /* \"#utility.yul\":13660:13666   */\n      dup5\n        /* \"#utility.yul\":13616:13687   */\n      tag_480\n      jump\t// in\n    tag_571:\n        /* \"#utility.yul\":13570:13694   */\n      swap3\n      swap2\n      pop\n      pop\n      jump\t// out\n        /* \"#utility.yul\":13700:14130   */\n    tag_278:\n      0x00\n        /* \"#utility.yul\":13881:13883   */\n      0x60\n        /* \"#utility.yul\":13870:13879   */\n      dup3\n        /* \"#utility.yul\":13866:13884   */\n      add\n        /* \"#utility.yul\":13858:13884   */\n      swap1\n      pop\n        /* \"#utility.yul\":13894:13965   */\n      tag_573\n        /* \"#utility.yul\":13962:13963   */\n      0x00\n        /* \"#utility.yul\":13951:13960   */\n      dup4\n        /* \"#utility.yul\":13947:13964   */\n      add\n        /* \"#utility.yul\":13938:13944   */\n      dup7\n        /* \"#utility.yul\":13894:13965   */\n      tag_480\n      jump\t// in\n    tag_573:\n        /* \"#utility.yul\":13975:14047   */\n      tag_574\n        /* \"#utility.yul\":14043:14045   */\n      0x20\n        /* \"#utility.yul\":14032:14041   */\n      dup4\n        /* \"#utility.yul\":14028:14046   */\n      add\n        /* \"#utility.yul\":14019:14025   */\n      dup6\n        /* \"#utility.yul\":13975:14047   */\n      tag_480\n      jump\t// in\n    tag_574:\n        /* \"#utility.yul\":14057:14123   */\n      tag_575\n        /* \"#utility.yul\":14119:14121   */\n      0x40\n        /* \"#utility.yul\":14108:14117   */\n      dup4\n        /* \"#utility.yul\":14104:14122   */\n      add\n        /* \"#utility.yul\":14095:14101   */\n      dup5\n        /* \"#utility.yul\":14057:14123   */\n      tag_484\n      jump\t// in\n    tag_575:\n        /* \"#utility.yul\":13848:14130   */\n      swap5\n      swap4\n      pop\n      pop\n      pop\n      pop\n      jump\t// out\n        /* \"#utility.yul\":14136:14578   */\n    tag_315:\n      0x00\n        /* \"#utility.yul\":14323:14325   */\n      0x60\n        /* \"#utility.yul\":14312:14321   */\n      dup3\n        /* \"#utility.yul\":14308:14326   */\n      add\n        /* \"#utility.yul\":14300:14326   */\n      swap1\n      pop\n        /* \"#utility.yul\":14336:14407   */\n      tag_577\n        /* \"#utility.yul\":14404:14405   */\n      0x00\n        /* \"#utility.yul\":14393:14402   */\n      dup4\n        /* \"#utility.yul\":14389:14406   */\n      add\n        /* \"#utility.yul\":14380:14386   */\n      dup7\n        /* \"#utility.yul\":14336:14407   */\n      tag_480\n      jump\t// in\n    tag_577:\n        /* \"#utility.yul\":14417:14489   */\n      tag_578\n        /* \"#utility.yul\":14485:14487   */\n      0x20\n        /* \"#utility.yul\":14474:14483   */\n      dup4\n        /* \"#utility.yul\":14470:14488   */\n      add\n        /* \"#utility.yul\":14461:14467   */\n      dup6\n        /* \"#utility.yul\":14417:14489   */\n      tag_480\n      jump\t// in\n    tag_578:\n        /* \"#utility.yul\":14499:14571   */\n      tag_579\n        /* \"#utility.yul\":14567:14569   */\n      0x40\n        /* \"#utility.yul\":14556:14565   */\n      dup4\n        /* \"#utility.yul\":14552:14570   */\n      add\n        /* \"#utility.yul\":14543:14549   */\n      dup5\n        /* \"#utility.yul\":14499:14571   */\n      tag_561\n      jump\t// in\n    tag_579:\n        /* \"#utility.yul\":14290:14578   */\n      swap5\n      swap4\n      pop\n      pop\n      pop\n      pop\n      jump\t// out\n        /* \"#utility.yul\":14584:15224   */\n    tag_384:\n      0x00\n        /* \"#utility.yul\":14817:14820   */\n      0x80\n        /* \"#utility.yul\":14806:14815   */\n      dup3\n        /* \"#utility.yul\":14802:14821   */\n      add\n        /* \"#utility.yul\":14794:14821   */\n      swap1\n      pop\n        /* \"#utility.yul\":14831:14902   */\n      tag_581\n        /* \"#utility.yul\":14899:14900   */\n      0x00\n        /* \"#utility.yul\":14888:14897   */\n      dup4\n        /* \"#utility.yul\":14884:14901   */\n      add\n        /* \"#utility.yul\":14875:14881   */\n      dup8\n        /* \"#utility.yul\":14831:14902   */\n      tag_480\n      jump\t// in\n    tag_581:\n        /* \"#utility.yul\":14912:14984   */\n      tag_582\n        /* \"#utility.yul\":14980:14982   */\n      0x20\n        /* \"#utility.yul\":14969:14978   */\n      dup4\n        /* \"#utility.yul\":14965:14983   */\n      add\n        /* \"#utility.yul\":14956:14962   */\n      dup7\n        /* \"#utility.yul\":14912:14984   */\n      tag_480\n      jump\t// in\n    tag_582:\n        /* \"#utility.yul\":14994:15066   */\n      tag_583\n        /* \"#utility.yul\":15062:15064   */\n      0x40\n        /* \"#utility.yul\":15051:15060   */\n      dup4\n        /* \"#utility.yul\":15047:15065   */\n      add\n        /* \"#utility.yul\":15038:15044   */\n      dup6\n        /* \"#utility.yul\":14994:15066   */\n      tag_561\n      jump\t// in\n    tag_583:\n        /* \"#utility.yul\":15113:15122   */\n      dup2\n        /* \"#utility.yul\":15107:15111   */\n      dup2\n        /* \"#utility.yul\":15103:15123   */\n      sub\n        /* \"#utility.yul\":15098:15100   */\n      0x60\n        /* \"#utility.yul\":15087:15096   */\n      dup4\n        /* \"#utility.yul\":15083:15101   */\n      add\n        /* \"#utility.yul\":15076:15124   */\n      mstore\n        /* \"#utility.yul\":15141:15217   */\n      tag_584\n        /* \"#utility.yul\":15212:15216   */\n      dup2\n        /* \"#utility.yul\":15203:15209   */\n      dup5\n        /* \"#utility.yul\":15141:15217   */\n      tag_488\n      jump\t// in\n    tag_584:\n        /* \"#utility.yul\":15133:15217   */\n      swap1\n      pop\n        /* \"#utility.yul\":14784:15224   */\n      swap6\n      swap5\n      pop\n      pop\n      pop\n      pop\n      pop\n      jump\t// out\n        /* \"#utility.yul\":15230:15440   */\n    tag_44:\n      0x00\n        /* \"#utility.yul\":15355:15357   */\n      0x20\n        /* \"#utility.yul\":15344:15353   */\n      dup3\n        /* \"#utility.yul\":15340:15358   */\n      add\n        /* \"#utility.yul\":15332:15358   */\n      swap1\n      pop\n        /* \"#utility.yul\":15368:15433   */\n      tag_586\n        /* \"#utility.yul\":15430:15431   */\n      0x00\n        /* \"#utility.yul\":15419:15428   */\n      dup4\n        /* \"#utility.yul\":15415:15432   */\n      add\n        /* \"#utility.yul\":15406:15412   */\n      dup5\n        /* \"#utility.yul\":15368:15433   */\n      tag_484\n      jump\t// in\n    tag_586:\n        /* \"#utility.yul\":15322:15440   */\n      swap3\n      swap2\n      pop\n      pop\n      jump\t// out\n        /* \"#utility.yul\":15446:15759   */\n    tag_49:\n      0x00\n        /* \"#utility.yul\":15597:15599   */\n      0x20\n        /* \"#utility.yul\":15586:15595   */\n      dup3\n        /* \"#utility.yul\":15582:15600   */\n      add\n        /* \"#utility.yul\":15574:15600   */\n      swap1\n      pop\n        /* \"#utility.yul\":15646:15655   */\n      dup2\n        /* \"#utility.yul\":15640:15644   */\n      dup2\n        /* \"#utility.yul\":15636:15656   */\n      sub\n        /* \"#utility.yul\":15632:15633   */\n      0x00\n        /* \"#utility.yul\":15621:15630   */\n      dup4\n        /* \"#utility.yul\":15617:15634   */\n      add\n        /* \"#utility.yul\":15610:15657   */\n      mstore\n        /* \"#utility.yul\":15674:15752   */\n      tag_588\n        /* \"#utility.yul\":15747:15751   */\n      dup2\n        /* \"#utility.yul\":15738:15744   */\n      dup5\n        /* \"#utility.yul\":15674:15752   */\n      tag_498\n      jump\t// in\n    tag_588:\n        /* \"#utility.yul\":15666:15752   */\n      swap1\n      pop\n        /* \"#utility.yul\":15564:15759   */\n      swap3\n      swap2\n      pop\n      pop\n      jump\t// out\n        /* \"#utility.yul\":15765:16184   */\n    tag_188:\n      0x00\n        /* \"#utility.yul\":15969:15971   */\n      0x20\n        /* \"#utility.yul\":15958:15967   */\n      dup3\n        /* \"#utility.yul\":15954:15972   */\n      add\n        /* \"#utility.yul\":15946:15972   */\n      swap1\n      pop\n        /* \"#utility.yul\":16018:16027   */\n      dup2\n        /* \"#utility.yul\":16012:16016   */\n      dup2\n        /* \"#utility.yul\":16008:16028   */\n      sub\n        /* \"#utility.yul\":16004:16005   */\n      0x00\n        /* \"#utility.yul\":15993:16002   */\n      dup4\n        /* \"#utility.yul\":15989:16006   */\n      add\n        /* \"#utility.yul\":15982:16029   */\n      mstore\n        /* \"#utility.yul\":16046:16177   */\n      tag_590\n        /* \"#utility.yul\":16172:16176   */\n      dup2\n        /* \"#utility.yul\":16046:16177   */\n      tag_512\n      jump\t// in\n    tag_590:\n        /* \"#utility.yul\":16038:16177   */\n      swap1\n      pop\n        /* \"#utility.yul\":15936:16184   */\n      swap2\n      swap1\n      pop\n      jump\t// out\n        /* \"#utility.yul\":16190:16609   */\n    tag_325:\n      0x00\n        /* \"#utility.yul\":16394:16396   */\n      0x20\n        /* \"#utility.yul\":16383:16392   */\n      dup3\n        /* \"#utility.yul\":16379:16397   */\n      add\n        /* \"#utility.yul\":16371:16397   */\n      swap1\n      pop\n        /* \"#utility.yul\":16443:16452   */\n      dup2\n        /* \"#utility.yul\":16437:16441   */\n      dup2\n        /* \"#utility.yul\":16433:16453   */\n      sub\n        /* \"#utility.yul\":16429:16430   */\n      0x00\n        /* \"#utility.yul\":16418:16427   */\n      dup4\n        /* \"#utility.yul\":16414:16431   */\n      add\n        /* \"#utility.yul\":16407:16454   */\n      mstore\n        /* \"#utility.yul\":16471:16602   */\n      tag_592\n        /* \"#utility.yul\":16597:16601   */\n      dup2\n        /* \"#utility.yul\":16471:16602   */\n      tag_515\n      jump\t// in\n    tag_592:\n        /* \"#utility.yul\":16463:16602   */\n      swap1\n      pop\n        /* \"#utility.yul\":16361:16609   */\n      swap2\n      swap1\n      pop\n      jump\t// out\n        /* \"#utility.yul\":16615:17034   */\n    tag_274:\n      0x00\n        /* \"#utility.yul\":16819:16821   */\n      0x20\n        /* \"#utility.yul\":16808:16817   */\n      dup3\n        /* \"#utility.yul\":16804:16822   */\n      add\n        /* \"#utility.yul\":16796:16822   */\n      swap1\n      pop\n        /* \"#utility.yul\":16868:16877   */\n      dup2\n        /* \"#utility.yul\":16862:16866   */\n      dup2\n        /* \"#utility.yul\":16858:16878   */\n      sub\n        /* \"#utility.yul\":16854:16855   */\n      0x00\n        /* \"#utility.yul\":16843:16852   */\n      dup4\n        /* \"#utility.yul\":16839:16856   */\n      add\n        /* \"#utility.yul\":16832:16879   */\n      mstore\n        /* \"#utility.yul\":16896:17027   */\n      tag_594\n        /* \"#utility.yul\":17022:17026   */\n      dup2\n        /* \"#utility.yul\":16896:17027   */\n      tag_518\n      jump\t// in\n    tag_594:\n        /* \"#utility.yul\":16888:17027   */\n      swap1\n      pop\n        /* \"#utility.yul\":16786:17034   */\n      swap2\n      swap1\n      pop\n      jump\t// out\n        /* \"#utility.yul\":17040:17459   */\n    tag_311:\n      0x00\n        /* \"#utility.yul\":17244:17246   */\n      0x20\n        /* \"#utility.yul\":17233:17242   */\n      dup3\n        /* \"#utility.yul\":17229:17247   */\n      add\n        /* \"#utility.yul\":17221:17247   */\n      swap1\n      pop\n        /* \"#utility.yul\":17293:17302   */\n      dup2\n        /* \"#utility.yul\":17287:17291   */\n      dup2\n        /* \"#utility.yul\":17283:17303   */\n      sub\n        /* \"#utility.yul\":17279:17280   */\n      0x00\n        /* \"#utility.yul\":17268:17277   */\n      dup4\n        /* \"#utility.yul\":17264:17281   */\n      add\n        /* \"#utility.yul\":17257:17304   */\n      mstore\n        /* \"#utility.yul\":17321:17452   */\n      tag_596\n        /* \"#utility.yul\":17447:17451   */\n      dup2\n        /* \"#utility.yul\":17321:17452   */\n      tag_521\n      jump\t// in\n    tag_596:\n        /* \"#utility.yul\":17313:17452   */\n      swap1\n      pop\n        /* \"#utility.yul\":17211:17459   */\n      swap2\n      swap1\n      pop\n      jump\t// out\n        /* \"#utility.yul\":17465:17884   */\n    tag_268:\n      0x00\n        /* \"#utility.yul\":17669:17671   */\n      0x20\n        /* \"#utility.yul\":17658:17667   */\n      dup3\n        /* \"#utility.yul\":17654:17672   */\n      add\n        /* \"#utility.yul\":17646:17672   */\n      swap1\n      pop\n        /* \"#utility.yul\":17718:17727   */\n      dup2\n        /* \"#utility.yul\":17712:17716   */\n      dup2\n        /* \"#utility.yul\":17708:17728   */\n      sub\n        /* \"#utility.yul\":17704:17705   */\n      0x00\n        /* \"#utility.yul\":17693:17702   */\n      dup4\n        /* \"#utility.yul\":17689:17706   */\n      add\n        /* \"#utility.yul\":17682:17729   */\n      mstore\n        /* \"#utility.yul\":17746:17877   */\n      tag_598\n        /* \"#utility.yul\":17872:17876   */\n      dup2\n        /* \"#utility.yul\":17746:17877   */\n      tag_524\n      jump\t// in\n    tag_598:\n        /* \"#utility.yul\":17738:17877   */\n      swap1\n      pop\n        /* \"#utility.yul\":17636:17884   */\n      swap2\n      swap1\n      pop\n      jump\t// out\n        /* \"#utility.yul\":17890:18309   */\n    tag_216:\n      0x00\n        /* \"#utility.yul\":18094:18096   */\n      0x20\n        /* \"#utility.yul\":18083:18092   */\n      dup3\n        /* \"#utility.yul\":18079:18097   */\n      add\n        /* \"#utility.yul\":18071:18097   */\n      swap1\n      pop\n        /* \"#utility.yul\":18143:18152   */\n      dup2\n        /* \"#utility.yul\":18137:18141   */\n      dup2\n        /* \"#utility.yul\":18133:18153   */\n      sub\n        /* \"#utility.yul\":18129:18130   */\n      0x00\n        /* \"#utility.yul\":18118:18127   */\n      dup4\n        /* \"#utility.yul\":18114:18131   */\n      add\n        /* \"#utility.yul\":18107:18154   */\n      mstore\n        /* \"#utility.yul\":18171:18302   */\n      tag_600\n        /* \"#utility.yul\":18297:18301   */\n      dup2\n        /* \"#utility.yul\":18171:18302   */\n      tag_527\n      jump\t// in\n    tag_600:\n        /* \"#utility.yul\":18163:18302   */\n      swap1\n      pop\n        /* \"#utility.yul\":18061:18309   */\n      swap2\n      swap1\n      pop\n      jump\t// out\n        /* \"#utility.yul\":18315:18734   */\n    tag_183:\n      0x00\n        /* \"#utility.yul\":18519:18521   */\n      0x20\n        /* \"#utility.yul\":18508:18517   */\n      dup3\n        /* \"#utility.yul\":18504:18522   */\n      add\n        /* \"#utility.yul\":18496:18522   */\n      swap1\n      pop\n        /* \"#utility.yul\":18568:18577   */\n      dup2\n        /* \"#utility.yul\":18562:18566   */\n      dup2\n        /* \"#utility.yul\":18558:18578   */\n      sub\n        /* \"#utility.yul\":18554:18555   */\n      0x00\n        /* \"#utility.yul\":18543:18552   */\n      dup4\n        /* \"#utility.yul\":18539:18556   */\n      add\n        /* \"#utility.yul\":18532:18579   */\n      mstore\n        /* \"#utility.yul\":18596:18727   */\n      tag_602\n        /* \"#utility.yul\":18722:18726   */\n      dup2\n        /* \"#utility.yul\":18596:18727   */\n      tag_530\n      jump\t// in\n    tag_602:\n        /* \"#utility.yul\":18588:18727   */\n      swap1\n      pop\n        /* \"#utility.yul\":18486:18734   */\n      swap2\n      swap1\n      pop\n      jump\t// out\n        /* \"#utility.yul\":18740:19159   */\n    tag_336:\n      0x00\n        /* \"#utility.yul\":18944:18946   */\n      0x20\n        /* \"#utility.yul\":18933:18942   */\n      dup3\n        /* \"#utility.yul\":18929:18947   */\n      add\n        /* \"#utility.yul\":18921:18947   */\n      swap1\n      pop\n        /* \"#utility.yul\":18993:19002   */\n      dup2\n        /* \"#utility.yul\":18987:18991   */\n      dup2\n        /* \"#utility.yul\":18983:19003   */\n      sub\n        /* \"#utility.yul\":18979:18980   */\n      0x00\n        /* \"#utility.yul\":18968:18977   */\n      dup4\n        /* \"#utility.yul\":18964:18981   */\n      add\n        /* \"#utility.yul\":18957:19004   */\n      mstore\n        /* \"#utility.yul\":19021:19152   */\n      tag_604\n        /* \"#utility.yul\":19147:19151   */\n      dup2\n        /* \"#utility.yul\":19021:19152   */\n      tag_533\n      jump\t// in\n    tag_604:\n        /* \"#utility.yul\":19013:19152   */\n      swap1\n      pop\n        /* \"#utility.yul\":18911:19159   */\n      swap2\n      swap1\n      pop\n      jump\t// out\n        /* \"#utility.yul\":19165:19584   */\n    tag_349:\n      0x00\n        /* \"#utility.yul\":19369:19371   */\n      0x20\n        /* \"#utility.yul\":19358:19367   */\n      dup3\n        /* \"#utility.yul\":19354:19372   */\n      add\n        /* \"#utility.yul\":19346:19372   */\n      swap1\n      pop\n        /* \"#utility.yul\":19418:19427   */\n      dup2\n        /* \"#utility.yul\":19412:19416   */\n      dup2\n        /* \"#utility.yul\":19408:19428   */\n      sub\n        /* \"#utility.yul\":19404:19405   */\n      0x00\n        /* \"#utility.yul\":19393:19402   */\n      dup4\n        /* \"#utility.yul\":19389:19406   */\n      add\n        /* \"#utility.yul\":19382:19429   */\n      mstore\n        /* \"#utility.yul\":19446:19577   */\n      tag_606\n        /* \"#utility.yul\":19572:19576   */\n      dup2\n        /* \"#utility.yul\":19446:19577   */\n      tag_536\n      jump\t// in\n    tag_606:\n        /* \"#utility.yul\":19438:19577   */\n      swap1\n      pop\n        /* \"#utility.yul\":19336:19584   */\n      swap2\n      swap1\n      pop\n      jump\t// out\n        /* \"#utility.yul\":19590:20009   */\n    tag_246:\n      0x00\n        /* \"#utility.yul\":19794:19796   */\n      0x20\n        /* \"#utility.yul\":19783:19792   */\n      dup3\n        /* \"#utility.yul\":19779:19797   */\n      add\n        /* \"#utility.yul\":19771:19797   */\n      swap1\n      pop\n        /* \"#utility.yul\":19843:19852   */\n      dup2\n        /* \"#utility.yul\":19837:19841   */\n      dup2\n        /* \"#utility.yul\":19833:19853   */\n      sub\n        /* \"#utility.yul\":19829:19830   */\n      0x00\n        /* \"#utility.yul\":19818:19827   */\n      dup4\n        /* \"#utility.yul\":19814:19831   */\n      add\n        /* \"#utility.yul\":19807:19854   */\n      mstore\n        /* \"#utility.yul\":19871:20002   */\n      tag_608\n        /* \"#utility.yul\":19997:20001   */\n      dup2\n        /* \"#utility.yul\":19871:20002   */\n      tag_539\n      jump\t// in\n    tag_608:\n        /* \"#utility.yul\":19863:20002   */\n      swap1\n      pop\n        /* \"#utility.yul\":19761:20009   */\n      swap2\n      swap1\n      pop\n      jump\t// out\n        /* \"#utility.yul\":20015:20434   */\n    tag_226:\n      0x00\n        /* \"#utility.yul\":20219:20221   */\n      0x20\n        /* \"#utility.yul\":20208:20217   */\n      dup3\n        /* \"#utility.yul\":20204:20222   */\n      add\n        /* \"#utility.yul\":20196:20222   */\n      swap1\n      pop\n        /* \"#utility.yul\":20268:20277   */\n      dup2\n        /* \"#utility.yul\":20262:20266   */\n      dup2\n        /* \"#utility.yul\":20258:20278   */\n      sub\n        /* \"#utility.yul\":20254:20255   */\n      0x00\n        /* \"#utility.yul\":20243:20252   */\n      dup4\n        /* \"#utility.yul\":20239:20256   */\n      add\n        /* \"#utility.yul\":20232:20279   */\n      mstore\n        /* \"#utility.yul\":20296:20427   */\n      tag_610\n        /* \"#utility.yul\":20422:20426   */\n      dup2\n        /* \"#utility.yul\":20296:20427   */\n      tag_546\n      jump\t// in\n    tag_610:\n        /* \"#utility.yul\":20288:20427   */\n      swap1\n      pop\n        /* \"#utility.yul\":20186:20434   */\n      swap2\n      swap1\n      pop\n      jump\t// out\n        /* \"#utility.yul\":20440:20859   */\n    tag_282:\n      0x00\n        /* \"#utility.yul\":20644:20646   */\n      0x20\n        /* \"#utility.yul\":20633:20642   */\n      dup3\n        /* \"#utility.yul\":20629:20647   */\n      add\n        /* \"#utility.yul\":20621:20647   */\n      swap1\n      pop\n        /* \"#utility.yul\":20693:20702   */\n      dup2\n        /* \"#utility.yul\":20687:20691   */\n      dup2\n        /* \"#utility.yul\":20683:20703   */\n      sub\n        /* \"#utility.yul\":20679:20680   */\n      0x00\n        /* \"#utility.yul\":20668:20677   */\n      dup4\n        /* \"#utility.yul\":20664:20681   */\n      add\n        /* \"#utility.yul\":20657:20704   */\n      mstore\n        /* \"#utility.yul\":20721:20852   */\n      tag_612\n        /* \"#utility.yul\":20847:20851   */\n      dup2\n        /* \"#utility.yul\":20721:20852   */\n      tag_549\n      jump\t// in\n    tag_612:\n        /* \"#utility.yul\":20713:20852   */\n      swap1\n      pop\n        /* \"#utility.yul\":20611:20859   */\n      swap2\n      swap1\n      pop\n      jump\t// out\n        /* \"#utility.yul\":20865:21284   */\n    tag_343:\n      0x00\n        /* \"#utility.yul\":21069:21071   */\n      0x20\n        /* \"#utility.yul\":21058:21067   */\n      dup3\n        /* \"#utility.yul\":21054:21072   */\n      add\n        /* \"#utility.yul\":21046:21072   */\n      swap1\n      pop\n        /* \"#utility.yul\":21118:21127   */\n      dup2\n        /* \"#utility.yul\":21112:21116   */\n      dup2\n        /* \"#utility.yul\":21108:21128   */\n      sub\n        /* \"#utility.yul\":21104:21105   */\n      0x00\n        /* \"#utility.yul\":21093:21102   */\n      dup4\n        /* \"#utility.yul\":21089:21106   */\n      add\n        /* \"#utility.yul\":21082:21129   */\n      mstore\n        /* \"#utility.yul\":21146:21277   */\n      tag_614\n        /* \"#utility.yul\":21272:21276   */\n      dup2\n        /* \"#utility.yul\":21146:21277   */\n      tag_552\n      jump\t// in\n    tag_614:\n        /* \"#utility.yul\":21138:21277   */\n      swap1\n      pop\n        /* \"#utility.yul\":21036:21284   */\n      swap2\n      swap1\n      pop\n      jump\t// out\n        /* \"#utility.yul\":21290:21709   */\n    tag_222:\n      0x00\n        /* \"#utility.yul\":21494:21496   */\n      0x20\n        /* \"#utility.yul\":21483:21492   */\n      dup3\n        /* \"#utility.yul\":21479:21497   */\n      add\n        /* \"#utility.yul\":21471:21497   */\n      swap1\n      pop\n        /* \"#utility.yul\":21543:21552   */\n      dup2\n        /* \"#utility.yul\":21537:21541   */\n      dup2\n        /* \"#utility.yul\":21533:21553   */\n      sub\n        /* \"#utility.yul\":21529:21530   */\n      0x00\n        /* \"#utility.yul\":21518:21527   */\n      dup4\n        /* \"#utility.yul\":21514:21531   */\n      add\n        /* \"#utility.yul\":21507:21554   */\n      mstore\n        /* \"#utility.yul\":21571:21702   */\n      tag_616\n        /* \"#utility.yul\":21697:21701   */\n      dup2\n        /* \"#utility.yul\":21571:21702   */\n      tag_555\n      jump\t// in\n    tag_616:\n        /* \"#utility.yul\":21563:21702   */\n      swap1\n      pop\n        /* \"#utility.yul\":21461:21709   */\n      swap2\n      swap1\n      pop\n      jump\t// out\n        /* \"#utility.yul\":21715:22134   */\n    tag_322:\n      0x00\n        /* \"#utility.yul\":21919:21921   */\n      0x20\n        /* \"#utility.yul\":21908:21917   */\n      dup3\n        /* \"#utility.yul\":21904:21922   */\n      add\n        /* \"#utility.yul\":21896:21922   */\n      swap1\n      pop\n        /* \"#utility.yul\":21968:21977   */\n      dup2\n        /* \"#utility.yul\":21962:21966   */\n      dup2\n        /* \"#utility.yul\":21958:21978   */\n      sub\n        /* \"#utility.yul\":21954:21955   */\n      0x00\n        /* \"#utility.yul\":21943:21952   */\n      dup4\n        /* \"#utility.yul\":21939:21956   */\n      add\n        /* \"#utility.yul\":21932:21979   */\n      mstore\n        /* \"#utility.yul\":21996:22127   */\n      tag_618\n        /* \"#utility.yul\":22122:22126   */\n      dup2\n        /* \"#utility.yul\":21996:22127   */\n      tag_558\n      jump\t// in\n    tag_618:\n        /* \"#utility.yul\":21988:22127   */\n      swap1\n      pop\n        /* \"#utility.yul\":21886:22134   */\n      swap2\n      swap1\n      pop\n      jump\t// out\n        /* \"#utility.yul\":22140:22362   */\n    tag_66:\n      0x00\n        /* \"#utility.yul\":22271:22273   */\n      0x20\n        /* \"#utility.yul\":22260:22269   */\n      dup3\n        /* \"#utility.yul\":22256:22274   */\n      add\n        /* \"#utility.yul\":22248:22274   */\n      swap1\n      pop\n        /* \"#utility.yul\":22284:22355   */\n      tag_620\n        /* \"#utility.yul\":22352:22353   */\n      0x00\n        /* \"#utility.yul\":22341:22350   */\n      dup4\n        /* \"#utility.yul\":22337:22354   */\n      add\n        /* \"#utility.yul\":22328:22334   */\n      dup5\n        /* \"#utility.yul\":22284:22355   */\n      tag_561\n      jump\t// in\n    tag_620:\n        /* \"#utility.yul\":22238:22362   */\n      swap3\n      swap2\n      pop\n      pop\n      jump\t// out\n        /* \"#utility.yul\":22368:22651   */\n    tag_408:\n      0x00\n        /* \"#utility.yul\":22434:22436   */\n      0x40\n        /* \"#utility.yul\":22428:22437   */\n      mload\n        /* \"#utility.yul\":22418:22437   */\n      swap1\n      pop\n        /* \"#utility.yul\":22476:22480   */\n      dup2\n        /* \"#utility.yul\":22468:22474   */\n      dup2\n        /* \"#utility.yul\":22464:22481   */\n      add\n        /* \"#utility.yul\":22583:22589   */\n      dup2\n        /* \"#utility.yul\":22571:22581   */\n      dup2\n        /* \"#utility.yul\":22568:22590   */\n      lt\n        /* \"#utility.yul\":22547:22565   */\n      0xffffffffffffffff\n        /* \"#utility.yul\":22535:22545   */\n      dup3\n        /* \"#utility.yul\":22532:22566   */\n      gt\n        /* \"#utility.yul\":22529:22591   */\n      or\n        /* \"#utility.yul\":22526:22528   */\n      iszero\n      tag_622\n      jumpi\n        /* \"#utility.yul\":22594:22612   */\n      tag_623\n      tag_624\n      jump\t// in\n    tag_623:\n        /* \"#utility.yul\":22526:22528   */\n    tag_622:\n        /* \"#utility.yul\":22634:22644   */\n      dup1\n        /* \"#utility.yul\":22630:22632   */\n      0x40\n        /* \"#utility.yul\":22623:22645   */\n      mstore\n        /* \"#utility.yul\":22408:22651   */\n      pop\n      swap2\n      swap1\n      pop\n      jump\t// out\n        /* \"#utility.yul\":22657:22988   */\n    tag_407:\n      0x00\n        /* \"#utility.yul\":22808:22826   */\n      0xffffffffffffffff\n        /* \"#utility.yul\":22800:22806   */\n      dup3\n        /* \"#utility.yul\":22797:22827   */\n      gt\n        /* \"#utility.yul\":22794:22796   */\n      iszero\n      tag_626\n      jumpi\n        /* \"#utility.yul\":22830:22848   */\n      tag_627\n      tag_624\n      jump\t// in\n    tag_627:\n        /* \"#utility.yul\":22794:22796   */\n    tag_626:\n        /* \"#utility.yul\":22915:22919   */\n      0x1f\n        /* \"#utility.yul\":22911:22920   */\n      not\n        /* \"#utility.yul\":22904:22908   */\n      0x1f\n        /* \"#utility.yul\":22896:22902   */\n      dup4\n        /* \"#utility.yul\":22892:22909   */\n      add\n        /* \"#utility.yul\":22888:22921   */\n      and\n        /* \"#utility.yul\":22880:22921   */\n      swap1\n      pop\n        /* \"#utility.yul\":22976:22980   */\n      0x20\n        /* \"#utility.yul\":22970:22974   */\n      dup2\n        /* \"#utility.yul\":22966:22981   */\n      add\n        /* \"#utility.yul\":22958:22981   */\n      swap1\n      pop\n        /* \"#utility.yul\":22723:22988   */\n      swap2\n      swap1\n      pop\n      jump\t// out\n        /* \"#utility.yul\":22994:23092   */\n    tag_491:\n      0x00\n        /* \"#utility.yul\":23079:23084   */\n      dup2\n        /* \"#utility.yul\":23073:23085   */\n      mload\n        /* \"#utility.yul\":23063:23085   */\n      swap1\n      pop\n        /* \"#utility.yul\":23052:23092   */\n      swap2\n      swap1\n      pop\n      jump\t// out\n        /* \"#utility.yul\":23098:23197   */\n    tag_501:\n      0x00\n        /* \"#utility.yul\":23184:23189   */\n      dup2\n        /* \"#utility.yul\":23178:23190   */\n      mload\n        /* \"#utility.yul\":23168:23190   */\n      swap1\n      pop\n        /* \"#utility.yul\":23157:23197   */\n      swap2\n      swap1\n      pop\n      jump\t// out\n        /* \"#utility.yul\":23203:23371   */\n    tag_493:\n      0x00\n        /* \"#utility.yul\":23320:23326   */\n      dup3\n        /* \"#utility.yul\":23315:23318   */\n      dup3\n        /* \"#utility.yul\":23308:23327   */\n      mstore\n        /* \"#utility.yul\":23360:23364   */\n      0x20\n        /* \"#utility.yul\":23355:23358   */\n      dup3\n        /* \"#utility.yul\":23351:23365   */\n      add\n        /* \"#utility.yul\":23336:23365   */\n      swap1\n      pop\n        /* \"#utility.yul\":23298:23371   */\n      swap3\n      swap2\n      pop\n      pop\n      jump\t// out\n        /* \"#utility.yul\":23377:23524   */\n    tag_545:\n      0x00\n        /* \"#utility.yul\":23515:23518   */\n      dup2\n        /* \"#utility.yul\":23500:23518   */\n      swap1\n      pop\n        /* \"#utility.yul\":23490:23524   */\n      swap3\n      swap2\n      pop\n      pop\n      jump\t// out\n        /* \"#utility.yul\":23530:23699   */\n    tag_503:\n      0x00\n        /* \"#utility.yul\":23648:23654   */\n      dup3\n        /* \"#utility.yul\":23643:23646   */\n      dup3\n        /* \"#utility.yul\":23636:23655   */\n      mstore\n        /* \"#utility.yul\":23688:23692   */\n      0x20\n        /* \"#utility.yul\":23683:23686   */\n      dup3\n        /* \"#utility.yul\":23679:23693   */\n      add\n        /* \"#utility.yul\":23664:23693   */\n      swap1\n      pop\n        /* \"#utility.yul\":23626:23699   */\n      swap3\n      swap2\n      pop\n      pop\n      jump\t// out\n        /* \"#utility.yul\":23705:23853   */\n    tag_510:\n      0x00\n        /* \"#utility.yul\":23844:23847   */\n      dup2\n        /* \"#utility.yul\":23829:23847   */\n      swap1\n      pop\n        /* \"#utility.yul\":23819:23853   */\n      swap3\n      swap2\n      pop\n      pop\n      jump\t// out\n        /* \"#utility.yul\":23859:24164   */\n    tag_219:\n      0x00\n        /* \"#utility.yul\":23918:23938   */\n      tag_635\n        /* \"#utility.yul\":23936:23937   */\n      dup3\n        /* \"#utility.yul\":23918:23938   */\n      tag_564\n      jump\t// in\n    tag_635:\n        /* \"#utility.yul\":23913:23938   */\n      swap2\n      pop\n        /* \"#utility.yul\":23952:23972   */\n      tag_636\n        /* \"#utility.yul\":23970:23971   */\n      dup4\n        /* \"#utility.yul\":23952:23972   */\n      tag_564\n      jump\t// in\n    tag_636:\n        /* \"#utility.yul\":23947:23972   */\n      swap3\n      pop\n        /* \"#utility.yul\":24106:24107   */\n      dup3\n        /* \"#utility.yul\":24038:24104   */\n      0xffffffffffffffffffffffffffffffffffffffffffffffffffffffffffffffff\n        /* \"#utility.yul\":24034:24108   */\n      sub\n        /* \"#utility.yul\":24031:24032   */\n      dup3\n        /* \"#utility.yul\":24028:24109   */\n      gt\n        /* \"#utility.yul\":24025:24027   */\n      iszero\n      tag_637\n      jumpi\n        /* \"#utility.yul\":24112:24130   */\n      tag_638\n      tag_639\n      jump\t// in\n    tag_638:\n        /* \"#utility.yul\":24025:24027   */\n    tag_637:\n        /* \"#utility.yul\":24156:24157   */\n      dup3\n        /* \"#utility.yul\":24153:24154   */\n      dup3\n        /* \"#utility.yul\":24149:24158   */\n      add\n        /* \"#utility.yul\":24142:24158   */\n      swap1\n      pop\n        /* \"#utility.yul\":23903:24164   */\n      swap3\n      swap2\n      pop\n      pop\n      jump\t// out\n        /* \"#utility.yul\":24170:24355   */\n    tag_200:\n      0x00\n        /* \"#utility.yul\":24227:24247   */\n      tag_641\n        /* \"#utility.yul\":24245:24246   */\n      dup3\n        /* \"#utility.yul\":24227:24247   */\n      tag_564\n      jump\t// in\n    tag_641:\n        /* \"#utility.yul\":24222:24247   */\n      swap2\n      pop\n        /* \"#utility.yul\":24261:24281   */\n      tag_642\n        /* \"#utility.yul\":24279:24280   */\n      dup4\n        /* \"#utility.yul\":24261:24281   */\n      tag_564\n      jump\t// in\n    tag_642:\n        /* \"#utility.yul\":24256:24281   */\n      swap3\n      pop\n        /* \"#utility.yul\":24300:24301   */\n      dup3\n        /* \"#utility.yul\":24290:24292   */\n      tag_643\n      jumpi\n        /* \"#utility.yul\":24305:24323   */\n      tag_644\n      tag_645\n      jump\t// in\n    tag_644:\n        /* \"#utility.yul\":24290:24292   */\n    tag_643:\n        /* \"#utility.yul\":24347:24348   */\n      dup3\n        /* \"#utility.yul\":24344:24345   */\n      dup3\n        /* \"#utility.yul\":24340:24349   */\n      div\n        /* \"#utility.yul\":24335:24349   */\n      swap1\n      pop\n        /* \"#utility.yul\":24212:24355   */\n      swap3\n      swap2\n      pop\n      pop\n      jump\t// out\n        /* \"#utility.yul\":24361:24709   */\n    tag_303:\n      0x00\n        /* \"#utility.yul\":24424:24444   */\n      tag_647\n        /* \"#utility.yul\":24442:24443   */\n      dup3\n        /* \"#utility.yul\":24424:24444   */\n      tag_564\n      jump\t// in\n    tag_647:\n        /* \"#utility.yul\":24419:24444   */\n      swap2\n      pop\n        /* \"#utility.yul\":24458:24478   */\n      tag_648\n        /* \"#utility.yul\":24476:24477   */\n      dup4\n        /* \"#utility.yul\":24458:24478   */\n      tag_564\n      jump\t// in\n    tag_648:\n        /* \"#utility.yul\":24453:24478   */\n      swap3\n      pop\n        /* \"#utility.yul\":24646:24647   */\n      dup2\n        /* \"#utility.yul\":24578:24644   */\n      0xffffffffffffffffffffffffffffffffffffffffffffffffffffffffffffffff\n        /* \"#utility.yul\":24574:24648   */\n      div\n        /* \"#utility.yul\":24571:24572   */\n      dup4\n        /* \"#utility.yul\":24568:24649   */\n      gt\n        /* \"#utility.yul\":24563:24564   */\n      dup3\n        /* \"#utility.yul\":24556:24565   */\n      iszero\n        /* \"#utility.yul\":24549:24566   */\n      iszero\n        /* \"#utility.yul\":24545:24650   */\n      and\n        /* \"#utility.yul\":24542:24544   */\n      iszero\n      tag_649\n      jumpi\n        /* \"#utility.yul\":24653:24671   */\n      tag_650\n      tag_639\n      jump\t// in\n    tag_650:\n        /* \"#utility.yul\":24542:24544   */\n    tag_649:\n        /* \"#utility.yul\":24701:24702   */\n      dup3\n        /* \"#utility.yul\":24698:24699   */\n      dup3\n        /* \"#utility.yul\":24694:24703   */\n      mul\n        /* \"#utility.yul\":24683:24703   */\n      swap1\n      pop\n        /* \"#utility.yul\":24409:24709   */\n      swap3\n      swap2\n      pop\n      pop\n      jump\t// out\n        /* \"#utility.yul\":24715:24906   */\n    tag_202:\n      0x00\n        /* \"#utility.yul\":24775:24795   */\n      tag_652\n        /* \"#utility.yul\":24793:24794   */\n      dup3\n        /* \"#utility.yul\":24775:24795   */\n      tag_564\n      jump\t// in\n    tag_652:\n        /* \"#utility.yul\":24770:24795   */\n      swap2\n      pop\n        /* \"#utility.yul\":24809:24829   */\n      tag_653\n        /* \"#utility.yul\":24827:24828   */\n      dup4\n        /* \"#utility.yul\":24809:24829   */\n      tag_564\n      jump\t// in\n    tag_653:\n        /* \"#utility.yul\":24804:24829   */\n      swap3\n      pop\n        /* \"#utility.yul\":24848:24849   */\n      dup3\n        /* \"#utility.yul\":24845:24846   */\n      dup3\n        /* \"#utility.yul\":24842:24850   */\n      lt\n        /* \"#utility.yul\":24839:24841   */\n      iszero\n      tag_654\n      jumpi\n        /* \"#utility.yul\":24853:24871   */\n      tag_655\n      tag_639\n      jump\t// in\n    tag_655:\n        /* \"#utility.yul\":24839:24841   */\n    tag_654:\n        /* \"#utility.yul\":24898:24899   */\n      dup3\n        /* \"#utility.yul\":24895:24896   */\n      dup3\n        /* \"#utility.yul\":24891:24900   */\n      sub\n        /* \"#utility.yul\":24883:24900   */\n      swap1\n      pop\n        /* \"#utility.yul\":24760:24906   */\n      swap3\n      swap2\n      pop\n      pop\n      jump\t// out\n        /* \"#utility.yul\":24912:25008   */\n    tag_483:\n      0x00\n        /* \"#utility.yul\":24978:25002   */\n      tag_657\n        /* \"#utility.yul\":24996:25001   */\n      dup3\n        /* \"#utility.yul\":24978:25002   */\n      tag_658\n      jump\t// in\n    tag_657:\n        /* \"#utility.yul\":24967:25002   */\n      swap1\n      pop\n        /* \"#utility.yul\":24957:25008   */\n      swap2\n      swap1\n      pop\n      jump\t// out\n        /* \"#utility.yul\":25014:25104   */\n    tag_487:\n      0x00\n        /* \"#utility.yul\":25091:25096   */\n      dup2\n        /* \"#utility.yul\":25084:25097   */\n      iszero\n        /* \"#utility.yul\":25077:25098   */\n      iszero\n        /* \"#utility.yul\":25066:25098   */\n      swap1\n      pop\n        /* \"#utility.yul\":25056:25104   */\n      swap2\n      swap1\n      pop\n      jump\t// out\n        /* \"#utility.yul\":25110:25259   */\n    tag_660:\n      0x00\n        /* \"#utility.yul\":25186:25252   */\n      0xffffffff00000000000000000000000000000000000000000000000000000000\n        /* \"#utility.yul\":25179:25184   */\n      dup3\n        /* \"#utility.yul\":25175:25253   */\n      and\n        /* \"#utility.yul\":25164:25253   */\n      swap1\n      pop\n        /* \"#utility.yul\":25154:25259   */\n      swap2\n      swap1\n      pop\n      jump\t// out\n        /* \"#utility.yul\":25265:25391   */\n    tag_658:\n      0x00\n        /* \"#utility.yul\":25342:25384   */\n      0xffffffffffffffffffffffffffffffffffffffff\n        /* \"#utility.yul\":25335:25340   */\n      dup3\n        /* \"#utility.yul\":25331:25385   */\n      and\n        /* \"#utility.yul\":25320:25385   */\n      swap1\n      pop\n        /* \"#utility.yul\":25310:25391   */\n      swap2\n      swap1\n      pop\n      jump\t// out\n        /* \"#utility.yul\":25397:25474   */\n    tag_564:\n      0x00\n        /* \"#utility.yul\":25463:25468   */\n      dup2\n        /* \"#utility.yul\":25452:25468   */\n      swap1\n      pop\n        /* \"#utility.yul\":25442:25474   */\n      swap2\n      swap1\n      pop\n      jump\t// out\n        /* \"#utility.yul\":25480:25634   */\n    tag_411:\n        /* \"#utility.yul\":25564:25570   */\n      dup3\n        /* \"#utility.yul\":25559:25562   */\n      dup2\n        /* \"#utility.yul\":25554:25557   */\n      dup4\n        /* \"#utility.yul\":25541:25571   */\n      calldatacopy\n        /* \"#utility.yul\":25626:25627   */\n      0x00\n        /* \"#utility.yul\":25617:25623   */\n      dup4\n        /* \"#utility.yul\":25612:25615   */\n      dup4\n        /* \"#utility.yul\":25608:25624   */\n      add\n        /* \"#utility.yul\":25601:25628   */\n      mstore\n        /* \"#utility.yul\":25531:25634   */\n      pop\n      pop\n      pop\n      jump\t// out\n        /* \"#utility.yul\":25640:25947   */\n    tag_495:\n        /* \"#utility.yul\":25708:25709   */\n      0x00\n        /* \"#utility.yul\":25718:25831   */\n    tag_666:\n        /* \"#utility.yul\":25732:25738   */\n      dup4\n        /* \"#utility.yul\":25729:25730   */\n      dup2\n        /* \"#utility.yul\":25726:25739   */\n      lt\n        /* \"#utility.yul\":25718:25831   */\n      iszero\n      tag_668\n      jumpi\n        /* \"#utility.yul\":25817:25818   */\n      dup1\n        /* \"#utility.yul\":25812:25815   */\n      dup3\n        /* \"#utility.yul\":25808:25819   */\n      add\n        /* \"#utility.yul\":25802:25820   */\n      mload\n        /* \"#utility.yul\":25798:25799   */\n      dup2\n        /* \"#utility.yul\":25793:25796   */\n      dup5\n        /* \"#utility.yul\":25789:25800   */\n      add\n        /* \"#utility.yul\":25782:25821   */\n      mstore\n        /* \"#utility.yul\":25754:25756   */\n      0x20\n        /* \"#utility.yul\":25751:25752   */\n      dup2\n        /* \"#utility.yul\":25747:25757   */\n      add\n        /* \"#utility.yul\":25742:25757   */\n      swap1\n      pop\n        /* \"#utility.yul\":25718:25831   */\n      jump(tag_666)\n    tag_668:\n        /* \"#utility.yul\":25849:25855   */\n      dup4\n        /* \"#utility.yul\":25846:25847   */\n      dup2\n        /* \"#utility.yul\":25843:25856   */\n      gt\n        /* \"#utility.yul\":25840:25842   */\n      iszero\n      tag_669\n      jumpi\n        /* \"#utility.yul\":25929:25930   */\n      0x00\n        /* \"#utility.yul\":25920:25926   */\n      dup5\n        /* \"#utility.yul\":25915:25918   */\n      dup5\n        /* \"#utility.yul\":25911:25927   */\n      add\n        /* \"#utility.yul\":25904:25931   */\n      mstore\n        /* \"#utility.yul\":25840:25842   */\n    tag_669:\n        /* \"#utility.yul\":25689:25947   */\n      pop\n      pop\n      pop\n      pop\n      jump\t// out\n        /* \"#utility.yul\":25953:26273   */\n    tag_175:\n      0x00\n        /* \"#utility.yul\":26034:26035   */\n      0x02\n        /* \"#utility.yul\":26028:26032   */\n      dup3\n        /* \"#utility.yul\":26024:26036   */\n      div\n        /* \"#utility.yul\":26014:26036   */\n      swap1\n      pop\n        /* \"#utility.yul\":26081:26082   */\n      0x01\n        /* \"#utility.yul\":26075:26079   */\n      dup3\n        /* \"#utility.yul\":26071:26083   */\n      and\n        /* \"#utility.yul\":26102:26120   */\n      dup1\n        /* \"#utility.yul\":26092:26094   */\n      tag_671\n      jumpi\n        /* \"#utility.yul\":26158:26162   */\n      0x7f\n        /* \"#utility.yul\":26150:26156   */\n      dup3\n        /* \"#utility.yul\":26146:26163   */\n      and\n        /* \"#utility.yul\":26136:26163   */\n      swap2\n      pop\n        /* \"#utility.yul\":26092:26094   */\n    tag_671:\n        /* \"#utility.yul\":26220:26222   */\n      0x20\n        /* \"#utility.yul\":26212:26218   */\n      dup3\n        /* \"#utility.yul\":26209:26223   */\n      lt\n        /* \"#utility.yul\":26189:26207   */\n      dup2\n        /* \"#utility.yul\":26186:26224   */\n      eq\n        /* \"#utility.yul\":26183:26185   */\n      iszero\n      tag_672\n      jumpi\n        /* \"#utility.yul\":26239:26257   */\n      tag_673\n      tag_674\n      jump\t// in\n    tag_673:\n        /* \"#utility.yul\":26183:26185   */\n    tag_672:\n        /* \"#utility.yul\":26004:26273   */\n      pop\n      swap2\n      swap1\n      pop\n      jump\t// out\n        /* \"#utility.yul\":26279:26512   */\n    tag_366:\n      0x00\n        /* \"#utility.yul\":26341:26365   */\n      tag_676\n        /* \"#utility.yul\":26359:26364   */\n      dup3\n        /* \"#utility.yul\":26341:26365   */\n      tag_564\n      jump\t// in\n    tag_676:\n        /* \"#utility.yul\":26332:26365   */\n      swap2\n      pop\n        /* \"#utility.yul\":26387:26453   */\n      0xffffffffffffffffffffffffffffffffffffffffffffffffffffffffffffffff\n        /* \"#utility.yul\":26380:26385   */\n      dup3\n        /* \"#utility.yul\":26377:26454   */\n      eq\n        /* \"#utility.yul\":26374:26376   */\n      iszero\n      tag_677\n      jumpi\n        /* \"#utility.yul\":26457:26475   */\n      tag_678\n      tag_639\n      jump\t// in\n    tag_678:\n        /* \"#utility.yul\":26374:26376   */\n    tag_677:\n        /* \"#utility.yul\":26504:26505   */\n      0x01\n        /* \"#utility.yul\":26497:26502   */\n      dup3\n        /* \"#utility.yul\":26493:26506   */\n      add\n        /* \"#utility.yul\":26486:26506   */\n      swap1\n      pop\n        /* \"#utility.yul\":26322:26512   */\n      swap2\n      swap1\n      pop\n      jump\t// out\n        /* \"#utility.yul\":26518:26694   */\n    tag_374:\n      0x00\n        /* \"#utility.yul\":26567:26587   */\n      tag_680\n        /* \"#utility.yul\":26585:26586   */\n      dup3\n        /* \"#utility.yul\":26567:26587   */\n      tag_564\n      jump\t// in\n    tag_680:\n        /* \"#utility.yul\":26562:26587   */\n      swap2\n      pop\n        /* \"#utility.yul\":26601:26621   */\n      tag_681\n        /* \"#utility.yul\":26619:26620   */\n      dup4\n        /* \"#utility.yul\":26601:26621   */\n      tag_564\n      jump\t// in\n    tag_681:\n        /* \"#utility.yul\":26596:26621   */\n      swap3\n      pop\n        /* \"#utility.yul\":26640:26641   */\n      dup3\n        /* \"#utility.yul\":26630:26632   */\n      tag_682\n      jumpi\n        /* \"#utility.yul\":26645:26663   */\n      tag_683\n      tag_645\n      jump\t// in\n    tag_683:\n        /* \"#utility.yul\":26630:26632   */\n    tag_682:\n        /* \"#utility.yul\":26686:26687   */\n      dup3\n        /* \"#utility.yul\":26683:26684   */\n      dup3\n        /* \"#utility.yul\":26679:26688   */\n      mod\n        /* \"#utility.yul\":26674:26688   */\n      swap1\n      pop\n        /* \"#utility.yul\":26552:26694   */\n      swap3\n      swap2\n      pop\n      pop\n      jump\t// out\n        /* \"#utility.yul\":26700:26880   */\n    tag_639:\n        /* \"#utility.yul\":26748:26825   */\n      0x4e487b7100000000000000000000000000000000000000000000000000000000\n        /* \"#utility.yul\":26745:26746   */\n      0x00\n        /* \"#utility.yul\":26738:26826   */\n      mstore\n        /* \"#utility.yul\":26845:26849   */\n      0x11\n        /* \"#utility.yul\":26842:26843   */\n      0x04\n        /* \"#utility.yul\":26835:26850   */\n      mstore\n        /* \"#utility.yul\":26869:26873   */\n      0x24\n        /* \"#utility.yul\":26866:26867   */\n      0x00\n        /* \"#utility.yul\":26859:26874   */\n      revert\n        /* \"#utility.yul\":26886:27066   */\n    tag_645:\n        /* \"#utility.yul\":26934:27011   */\n      0x4e487b7100000000000000000000000000000000000000000000000000000000\n        /* \"#utility.yul\":26931:26932   */\n      0x00\n        /* \"#utility.yul\":26924:27012   */\n      mstore\n        /* \"#utility.yul\":27031:27035   */\n      0x12\n        /* \"#utility.yul\":27028:27029   */\n      0x04\n        /* \"#utility.yul\":27021:27036   */\n      mstore\n        /* \"#utility.yul\":27055:27059   */\n      0x24\n        /* \"#utility.yul\":27052:27053   */\n      0x00\n        /* \"#utility.yul\":27045:27060   */\n      revert\n        /* \"#utility.yul\":27072:27252   */\n    tag_674:\n        /* \"#utility.yul\":27120:27197   */\n      0x4e487b7100000000000000000000000000000000000000000000000000000000\n        /* \"#utility.yul\":27117:27118   */\n      0x00\n        /* \"#utility.yul\":27110:27198   */\n      mstore\n        /* \"#utility.yul\":27217:27221   */\n      0x22\n        /* \"#utility.yul\":27214:27215   */\n      0x04\n        /* \"#utility.yul\":27207:27222   */\n      mstore\n        /* \"#utility.yul\":27241:27245   */\n      0x24\n        /* \"#utility.yul\":27238:27239   */\n      0x00\n        /* \"#utility.yul\":27231:27246   */\n      revert\n        /* \"#utility.yul\":27258:27438   */\n    tag_624:\n        /* \"#utility.yul\":27306:27383   */\n      0x4e487b7100000000000000000000000000000000000000000000000000000000\n        /* \"#utility.yul\":27303:27304   */\n      0x00\n        /* \"#utility.yul\":27296:27384   */\n      mstore\n        /* \"#utility.yul\":27403:27407   */\n      0x41\n        /* \"#utility.yul\":27400:27401   */\n      0x04\n        /* \"#utility.yul\":27393:27408   */\n      mstore\n        /* \"#utility.yul\":27427:27431   */\n      0x24\n        /* \"#utility.yul\":27424:27425   */\n      0x00\n        /* \"#utility.yul\":27417:27432   */\n      revert\n        /* \"#utility.yul\":27444:27546   */\n    tag_497:\n      0x00\n        /* \"#utility.yul\":27536:27538   */\n      0x1f\n        /* \"#utility.yul\":27532:27539   */\n      not\n        /* \"#utility.yul\":27527:27529   */\n      0x1f\n        /* \"#utility.yul\":27520:27525   */\n      dup4\n        /* \"#utility.yul\":27516:27530   */\n      add\n        /* \"#utility.yul\":27512:27540   */\n      and\n        /* \"#utility.yul\":27502:27540   */\n      swap1\n      pop\n        /* \"#utility.yul\":27492:27546   */\n      swap2\n      swap1\n      pop\n      jump\t// out\n        /* \"#utility.yul\":27552:27674   */\n    tag_415:\n        /* \"#utility.yul\":27625:27649   */\n      tag_690\n        /* \"#utility.yul\":27643:27648   */\n      dup2\n        /* \"#utility.yul\":27625:27649   */\n      tag_483\n      jump\t// in\n    tag_690:\n        /* \"#utility.yul\":27618:27623   */\n      dup2\n        /* \"#utility.yul\":27615:27650   */\n      eq\n        /* \"#utility.yul\":27605:27607   */\n      tag_691\n      jumpi\n        /* \"#utility.yul\":27664:27665   */\n      0x00\n        /* \"#utility.yul\":27661:27662   */\n      dup1\n        /* \"#utility.yul\":27654:27666   */\n      revert\n        /* \"#utility.yul\":27605:27607   */\n    tag_691:\n        /* \"#utility.yul\":27595:27674   */\n      pop\n      jump\t// out\n        /* \"#utility.yul\":27680:27796   */\n    tag_419:\n        /* \"#utility.yul\":27750:27771   */\n      tag_693\n        /* \"#utility.yul\":27765:27770   */\n      dup2\n        /* \"#utility.yul\":27750:27771   */\n      tag_487\n      jump\t// in\n    tag_693:\n        /* \"#utility.yul\":27743:27748   */\n      dup2\n        /* \"#utility.yul\":27740:27772   */\n      eq\n        /* \"#utility.yul\":27730:27732   */\n      tag_694\n      jumpi\n        /* \"#utility.yul\":27786:27787   */\n      0x00\n        /* \"#utility.yul\":27783:27784   */\n      dup1\n        /* \"#utility.yul\":27776:27788   */\n      revert\n        /* \"#utility.yul\":27730:27732   */\n    tag_694:\n        /* \"#utility.yul\":27720:27796   */\n      pop\n      jump\t// out\n        /* \"#utility.yul\":27802:27922   */\n    tag_423:\n        /* \"#utility.yul\":27874:27897   */\n      tag_696\n        /* \"#utility.yul\":27891:27896   */\n      dup2\n        /* \"#utility.yul\":27874:27897   */\n      tag_660\n      jump\t// in\n    tag_696:\n        /* \"#utility.yul\":27867:27872   */\n      dup2\n        /* \"#utility.yul\":27864:27898   */\n      eq\n        /* \"#utility.yul\":27854:27856   */\n      tag_697\n      jumpi\n        /* \"#utility.yul\":27912:27913   */\n      0x00\n        /* \"#utility.yul\":27909:27910   */\n      dup1\n        /* \"#utility.yul\":27902:27914   */\n      revert\n        /* \"#utility.yul\":27854:27856   */\n    tag_697:\n        /* \"#utility.yul\":27844:27922   */\n      pop\n      jump\t// out\n        /* \"#utility.yul\":27928:28050   */\n    tag_439:\n        /* \"#utility.yul\":28001:28025   */\n      tag_699\n        /* \"#utility.yul\":28019:28024   */\n      dup2\n        /* \"#utility.yul\":28001:28025   */\n      tag_564\n      jump\t// in\n    tag_699:\n        /* \"#utility.yul\":27994:27999   */\n      dup2\n        /* \"#utility.yul\":27991:28026   */\n      eq\n        /* \"#utility.yul\":27981:27983   */\n      tag_700\n      jumpi\n        /* \"#utility.yul\":28040:28041   */\n      0x00\n        /* \"#utility.yul\":28037:28038   */\n      dup1\n        /* \"#utility.yul\":28030:28042   */\n      revert\n        /* \"#utility.yul\":27981:27983   */\n    tag_700:\n        /* \"#utility.yul\":27971:28050   */\n      pop\n      jump\t// out\n\n    auxdata: 0xa2646970667358221220a0f9bc892b50d3b00826979728faf536bd8161418b721e137e074a8d0cffe7fc64736f6c63430008000033\n}\n",
				"bytecode": {
					"linkReferences": {},
					"object": "60806040523480156200001157600080fd5b50604051620034a6380380620034a683398181016040528101906200003791906200028a565b8181620000596200004d6200009c60201b60201c565b620000a460201b60201c565b81600190805190602001906200007192919062000168565b5080600290805190602001906200008a92919062000168565b5050504260078190555050506200042e565b600033905090565b60008060009054906101000a900473ffffffffffffffffffffffffffffffffffffffff169050816000806101000a81548173ffffffffffffffffffffffffffffffffffffffff021916908373ffffffffffffffffffffffffffffffffffffffff1602179055508173ffffffffffffffffffffffffffffffffffffffff168173ffffffffffffffffffffffffffffffffffffffff167f8be0079c531659141344cd1fd0a4f28419497f9722a3daafe3b4186f6b6457e060405160405180910390a35050565b82805462000176906200039a565b90600052602060002090601f0160209004810192826200019a5760008555620001e6565b82601f10620001b557805160ff1916838001178555620001e6565b82800160010185558215620001e6579182015b82811115620001e5578251825591602001919060010190620001c8565b5b509050620001f59190620001f9565b5090565b5b8082111562000214576000816000905550600101620001fa565b5090565b60006200022f620002298462000331565b620002fd565b9050828152602081018484840111156200024857600080fd5b6200025584828562000364565b509392505050565b600082601f8301126200026f57600080fd5b81516200028184826020860162000218565b91505092915050565b600080604083850312156200029e57600080fd5b600083015167ffffffffffffffff811115620002b957600080fd5b620002c7858286016200025d565b925050602083015167ffffffffffffffff811115620002e557600080fd5b620002f3858286016200025d565b9150509250929050565b6000604051905081810181811067ffffffffffffffff82111715620003275762000326620003ff565b5b8060405250919050565b600067ffffffffffffffff8211156200034f576200034e620003ff565b5b601f19601f8301169050602081019050919050565b60005b838110156200038457808201518184015260208101905062000367565b8381111562000394576000848401525b50505050565b60006002820490506001821680620003b357607f821691505b60208210811415620003ca57620003c9620003d0565b5b50919050565b7f4e487b7100000000000000000000000000000000000000000000000000000000600052602260045260246000fd5b7f4e487b7100000000000000000000000000000000000000000000000000000000600052604160045260246000fd5b613068806200043e6000396000f3fe6080604052600436106101c25760003560e01c80636352211e116100f7578063b88d4fde11610095578063da46097711610064578063da4609771461060f578063e75722301461063a578063e985e9c514610677578063f2fde38b146106b4576101c2565b8063b88d4fde14610555578063beae66371461057e578063c5e51b9e146105a9578063c87b56dd146105d2576101c2565b806378e97925116100d157806378e97925146104bd5780638da5cb5b146104e857806395d89b4114610513578063ac4460021461053e576101c2565b80636352211e1461042c57806370a0823114610469578063715018a6146104a6576101c2565b80633609ac8f1161016457806342842e0e1161013e57806342842e0e146103935780634d3554c3146103bc578063538f1672146103d857806355f804b314610403576101c2565b80633609ac8f146103145780633badcb561461033f5780633e0a322d1461036a576101c2565b8063095ea7b3116101a0578063095ea7b31461026c578063096dc66f1461029557806318160ddd146102c057806323b872dd146102eb576101c2565b806301ffc9a7146101c757806306fdde0314610204578063081812fc1461022f575b600080fd5b3480156101d357600080fd5b506101ee60048036038101906101e991906122c1565b6106dd565b6040516101fb91906129ab565b60405180910390f35b34801561021057600080fd5b50610219610817565b60405161022691906129c6565b60405180910390f35b34801561023b57600080fd5b5061025660048036038101906102519190612358565b6108a5565b60405161026391906128d6565b60405180910390f35b34801561027857600080fd5b50610293600480360381019061028e9190612285565b610984565b005b3480156102a157600080fd5b506102aa610acb565b6040516102b79190612bc8565b60405180910390f35b3480156102cc57600080fd5b506102d5610ad0565b6040516102e29190612bc8565b60405180910390f35b3480156102f757600080fd5b50610312600480360381019061030d919061217f565b610add565b005b34801561032057600080fd5b50610329610b10565b6040516103369190612bc8565b60405180910390f35b34801561034b57600080fd5b50610354610b1c565b6040516103619190612bc8565b60405180910390f35b34801561037657600080fd5b50610391600480360381019061038c9190612358565b610b54565b005b34801561039f57600080fd5b506103ba60048036038101906103b5919061217f565b610b66565b005b6103d660048036038101906103d19190612358565b610b95565b005b3480156103e457600080fd5b506103ed610d07565b6040516103fa9190612bc8565b60405180910390f35b34801561040f57600080fd5b5061042a60048036038101906104259190612313565b610d0d565b005b34801561043857600080fd5b50610453600480360381019061044e9190612358565b610d2b565b60405161046091906128d6565b60405180910390f35b34801561047557600080fd5b50610490600480360381019061048b919061211a565b610dd8565b60405161049d9190612bc8565b60405180910390f35b3480156104b257600080fd5b506104bb610e90565b005b3480156104c957600080fd5b506104d2610ea4565b6040516104df9190612bc8565b60405180910390f35b3480156104f457600080fd5b506104fd610eaa565b60405161050a91906128d6565b60405180910390f35b34801561051f57600080fd5b50610528610ed3565b60405161053591906129c6565b60405180910390f35b34801561054a57600080fd5b50610553610f61565b005b34801561056157600080fd5b5061057c600480360381019061057791906121ce565b611018565b005b34801561058a57600080fd5b50610593611083565b6040516105a09190612bc8565b60405180910390f35b3480156105b557600080fd5b506105d060048036038101906105cb9190612249565b611089565b005b3480156105de57600080fd5b506105f960048036038101906105f49190612358565b61115c565b60405161060691906129c6565b60405180910390f35b34801561061b57600080fd5b5061062461125e565b6040516106319190612bc8565b60405180910390f35b34801561064657600080fd5b50610661600480360381019061065c9190612358565b61126a565b60405161066e9190612bc8565b60405180910390f35b34801561068357600080fd5b5061069e60048036038101906106999190612143565b611320565b6040516106ab91906129ab565b60405180910390f35b3480156106c057600080fd5b506106db60048036038101906106d6919061211a565b6113b4565b005b60007fe765f736000000000000000000000000000000000000000000000000000000007bffffffffffffffffffffffffffffffffffffffffffffffffffffffff1916827bffffffffffffffffffffffffffffffffffffffffffffffffffffffff191614806107a857507f01ffc9a7000000000000000000000000000000000000000000000000000000007bffffffffffffffffffffffffffffffffffffffffffffffffffffffff1916827bffffffffffffffffffffffffffffffffffffffffffffffffffffffff1916145b8061081057507f5b5e139f000000000000000000000000000000000000000000000000000000007bffffffffffffffffffffffffffffffffffffffffffffffffffffffff1916827bffffffffffffffffffffffffffffffffffffffffffffffffffffffff1916145b9050919050565b6001805461082490612e5d565b80601f016020809104026020016040519081016040528092919081815260200182805461085090612e5d565b801561089d5780601f106108725761010080835404028352916020019161089d565b820191906000526020600020905b81548152906001019060200180831161088057829003601f168201915b505050505081565b60008073ffffffffffffffffffffffffffffffffffffffff166003600084815260200190815260200160002060009054906101000a900473ffffffffffffffffffffffffffffffffffffffff1673ffffffffffffffffffffffffffffffffffffffff161415610949576040517f08c379a000000000000000000000000000000000000000000000000000000000815260040161094090612aa8565b60405180910390fd5b6005600083815260200190815260200160002060009054906101000a900473ffffffffffffffffffffffffffffffffffffffff169050919050565b60006003600083815260200190815260200160002060009054906101000a900473ffffffffffffffffffffffffffffffffffffffff1690508073ffffffffffffffffffffffffffffffffffffffff163373ffffffffffffffffffffffffffffffffffffffff161480610a7c5750600660008273ffffffffffffffffffffffffffffffffffffffff1673ffffffffffffffffffffffffffffffffffffffff16815260200190815260200160002060003373ffffffffffffffffffffffffffffffffffffffff1673ffffffffffffffffffffffffffffffffffffffff16815260200190815260200160002060009054906101000a900460ff165b610abb576040517f08c379a0000000000000000000000000000000000000000000000000000000008152600401610ab2906129e8565b60405180910390fd5b610ac6818484611438565b505050565b603c81565b6000600980549050905090565b6000610ae882610d2b565b9050610af58133846114ca565b610afe57600080fd5b610b0a818585856115fe565b50505050565b670de0b6b3a764000081565b603c610258610b2b9190612ce8565b67016345785d8a0000670de0b6b3a7640000610b479190612d73565b610b519190612ce8565b81565b610b5c611829565b8060078190555050565b6000610b7182610d2b565b9050610b8f81858585604051806020016040528060008152506118a7565b50505050565b6000600754905060008114158015610bad5750804210155b610bec576040517f08c379a0000000000000000000000000000000000000000000000000000000008152600401610be390612a88565b60405180910390fd5b6127106001610bf9610ad0565b610c039190612c92565b1115610c44576040517f08c379a0000000000000000000000000000000000000000000000000000000008152600401610c3b90612b88565b60405180910390fd5b6000610c4f8261126a565b905080341015610c94576040517f08c379a0000000000000000000000000000000000000000000000000000000008152600401610c8b90612b28565b60405180910390fd5b610c9e3384611905565b610ca783611b00565b80341115610d02573373ffffffffffffffffffffffffffffffffffffffff166108fc8234610cd59190612d73565b9081150290604051600060405180830381858888f19350505050158015610d00573d6000803e3d6000fd5b505b505050565b61271081565b610d15611829565b818160089190610d26929190611f5c565b505050565b60006003600083815260200190815260200160002060009054906101000a900473ffffffffffffffffffffffffffffffffffffffff169050600073ffffffffffffffffffffffffffffffffffffffff168173ffffffffffffffffffffffffffffffffffffffff161415610dd3576040517f08c379a0000000000000000000000000000000000000000000000000000000008152600401610dca90612aa8565b60405180910390fd5b919050565b60008073ffffffffffffffffffffffffffffffffffffffff168273ffffffffffffffffffffffffffffffffffffffff161415610e49576040517f08c379a0000000000000000000000000000000000000000000000000000000008152600401610e4090612b08565b60405180910390fd5b600460008373ffffffffffffffffffffffffffffffffffffffff1673ffffffffffffffffffffffffffffffffffffffff168152602001908152602001600020549050919050565b610e98611829565b610ea26000611b2c565b565b60075481565b60008060009054906101000a900473ffffffffffffffffffffffffffffffffffffffff16905090565b60028054610ee090612e5d565b80601f0160208091040260200160405190810160405280929190818152602001828054610f0c90612e5d565b8015610f595780601f10610f2e57610100808354040283529160200191610f59565b820191906000526020600020905b815481529060010190602001808311610f3c57829003601f168201915b505050505081565b610f69611829565b60003373ffffffffffffffffffffffffffffffffffffffff1647604051610f8f906128c1565b60006040518083038185875af1925050503d8060008114610fcc576040519150601f19603f3d011682016040523d82523d6000602084013e610fd1565b606091505b5050905080611015576040517f08c379a000000000000000000000000000000000000000000000000000000000815260040161100c90612a68565b60405180910390fd5b50565b600061102383610d2b565b90506110308133856114ca565b61106f576040517f08c379a000000000000000000000000000000000000000000000000000000000815260040161106690612a28565b60405180910390fd5b61107c81868686866118a7565b5050505050565b61025881565b80600660003373ffffffffffffffffffffffffffffffffffffffff1673ffffffffffffffffffffffffffffffffffffffff16815260200190815260200160002060008473ffffffffffffffffffffffffffffffffffffffff1673ffffffffffffffffffffffffffffffffffffffff16815260200190815260200160002060006101000a81548160ff0219169083151502179055507f6e58f42f8934de1bf5b284476ba8126ee2d334c7aacf1ac87c6d4ebdb6ffb683338383604051611150939291906128f1565b60405180910390a15050565b6060600073ffffffffffffffffffffffffffffffffffffffff166003600084815260200190815260200160002060009054906101000a900473ffffffffffffffffffffffffffffffffffffffff1673ffffffffffffffffffffffffffffffffffffffff161415611201576040517f08c379a00000000000000000000000000000000000000000000000000000000081526004016111f890612b48565b60405180910390fd5b600061120b611bf0565b9050600081511161122b5760405180602001604052806000815250611256565b8061123584611c82565b60405160200161124692919061289d565b6040516020818303038152906040525b915050919050565b67016345785d8a000081565b60008142101561128457670de0b6b3a7640000905061131b565b610258826112929190612c92565b42106112a85767016345785d8a0000905061131b565b6000603c83426112b89190612d73565b6112c29190612ce8565b9050603c6102586112d39190612ce8565b67016345785d8a0000670de0b6b3a76400006112ef9190612d73565b6112f99190612ce8565b816113049190612d19565b670de0b6b3a76400006113179190612d73565b9150505b919050565b6000600660008473ffffffffffffffffffffffffffffffffffffffff1673ffffffffffffffffffffffffffffffffffffffff16815260200190815260200160002060008373ffffffffffffffffffffffffffffffffffffffff1673ffffffffffffffffffffffffffffffffffffffff16815260200190815260200160002060009054906101000a900460ff16905092915050565b6113bc611829565b600073ffffffffffffffffffffffffffffffffffffffff168173ffffffffffffffffffffffffffffffffffffffff16141561142c576040517f08c379a000000000000000000000000000000000000000000000000000000000815260040161142390612a48565b60405180910390fd5b61143581611b2c565b50565b816005600083815260200190815260200160002060006101000a81548173ffffffffffffffffffffffffffffffffffffffff021916908373ffffffffffffffffffffffffffffffffffffffff1602179055507f6e11fb1b7f119e3f2fa29896ef5fdf8b8a2d0d4df6fe90ba8668e7d8b2ffa25e8383836040516114bd93929190612928565b60405180910390a1505050565b60008373ffffffffffffffffffffffffffffffffffffffff168373ffffffffffffffffffffffffffffffffffffffff16148061156457508273ffffffffffffffffffffffffffffffffffffffff166005600084815260200190815260200160002060009054906101000a900473ffffffffffffffffffffffffffffffffffffffff1673ffffffffffffffffffffffffffffffffffffffff16145b806115f55750600660008573ffffffffffffffffffffffffffffffffffffffff1673ffffffffffffffffffffffffffffffffffffffff16815260200190815260200160002060008473ffffffffffffffffffffffffffffffffffffffff1673ffffffffffffffffffffffffffffffffffffffff16815260200190815260200160002060009054906101000a900460ff165b90509392505050565b8373ffffffffffffffffffffffffffffffffffffffff168373ffffffffffffffffffffffffffffffffffffffff161461166c576040517f08c379a000000000000000000000000000000000000000000000000000000000815260040161166390612ba8565b60405180910390fd5b600073ffffffffffffffffffffffffffffffffffffffff168273ffffffffffffffffffffffffffffffffffffffff1614156116dc576040517f08c379a00000000000000000000000000000000000000000000000000000000081526004016116d390612a08565b60405180910390fd5b6116e884600083611438565b6001600460008573ffffffffffffffffffffffffffffffffffffffff1673ffffffffffffffffffffffffffffffffffffffff16815260200190815260200160002060008282546117389190612d73565b925050819055506001600460008473ffffffffffffffffffffffffffffffffffffffff1673ffffffffffffffffffffffffffffffffffffffff168152602001908152602001600020600082825461178f9190612c92565b92505081905550816003600083815260200190815260200160002060006101000a81548173ffffffffffffffffffffffffffffffffffffffff021916908373ffffffffffffffffffffffffffffffffffffffff1602179055507fddf252ad1be2c89b69c2b068fc378daa952ba7f163c4a11628f55a4df523b3ef83838360405161181b93929190612928565b60405180910390a150505050565b611831611e2f565b73ffffffffffffffffffffffffffffffffffffffff1661184f610eaa565b73ffffffffffffffffffffffffffffffffffffffff16146118a5576040517f08c379a000000000000000000000000000000000000000000000000000000000815260040161189c90612ac8565b60405180910390fd5b565b6118b3858585856115fe565b6118bf84848484611e37565b6118fe576040517f08c379a00000000000000000000000000000000000000000000000000000000081526004016118f590612b68565b60405180910390fd5b5050505050565b600073ffffffffffffffffffffffffffffffffffffffff168273ffffffffffffffffffffffffffffffffffffffff161415611975576040517f08c379a000000000000000000000000000000000000000000000000000000000815260040161196c90612a08565b60405180910390fd5b600073ffffffffffffffffffffffffffffffffffffffff166003600083815260200190815260200160002060009054906101000a900473ffffffffffffffffffffffffffffffffffffffff1673ffffffffffffffffffffffffffffffffffffffff1614611a17576040517f08c379a0000000000000000000000000000000000000000000000000000000008152600401611a0e90612ae8565b60405180910390fd5b6001600460008473ffffffffffffffffffffffffffffffffffffffff1673ffffffffffffffffffffffffffffffffffffffff1681526020019081526020016000206000828254611a679190612c92565b92505081905550816003600083815260200190815260200160002060006101000a81548173ffffffffffffffffffffffffffffffffffffffff021916908373ffffffffffffffffffffffffffffffffffffffff1602179055507fddf252ad1be2c89b69c2b068fc378daa952ba7f163c4a11628f55a4df523b3ef60008383604051611af493929190612928565b60405180910390a15050565b600981908060018154018082558091505060019003906000526020600020016000909190919091505550565b60008060009054906101000a900473ffffffffffffffffffffffffffffffffffffffff169050816000806101000a81548173ffffffffffffffffffffffffffffffffffffffff021916908373ffffffffffffffffffffffffffffffffffffffff1602179055508173ffffffffffffffffffffffffffffffffffffffff168173ffffffffffffffffffffffffffffffffffffffff167f8be0079c531659141344cd1fd0a4f28419497f9722a3daafe3b4186f6b6457e060405160405180910390a35050565b606060088054611bff90612e5d565b80601f0160208091040260200160405190810160405280929190818152602001828054611c2b90612e5d565b8015611c785780601f10611c4d57610100808354040283529160200191611c78565b820191906000526020600020905b815481529060010190602001808311611c5b57829003601f168201915b5050505050905090565b60606000821415611cca576040518060400160405280600181526020017f30000000000000000000000000000000000000000000000000000000000000008152509050611e2a565b600082905060005b60008214611cfc578080611ce590612e8f565b915050600a82611cf59190612ce8565b9150611cd2565b60008167ffffffffffffffff811115611d3e577f4e487b7100000000000000000000000000000000000000000000000000000000600052604160045260246000fd5b6040519080825280601f01601f191660200182016040528015611d705781602001600182028036833780820191505090505b5090505b60008514611e2357600182611d899190612d73565b9150600a85611d989190612ed8565b6030611da49190612c92565b60f81b818381518110611de0577f4e487b7100000000000000000000000000000000000000000000000000000000600052603260045260246000fd5b60200101907effffffffffffffffffffffffffffffffffffffffffffffffffffffffffffff1916908160001a905350600a85611e1c9190612ce8565b9450611d74565b8093505050505b919050565b600033905090565b6000611e588473ffffffffffffffffffffffffffffffffffffffff16611f49565b15611f3c5763150b7a0260e01b7bffffffffffffffffffffffffffffffffffffffffffffffffffffffff19168473ffffffffffffffffffffffffffffffffffffffff1663150b7a02338887876040518563ffffffff1660e01b8152600401611ec3949392919061295f565b602060405180830381600087803b158015611edd57600080fd5b505af1158015611ef1573d6000803e3d6000fd5b505050506040513d601f19601f82011682018060405250810190611f1591906122ea565b7bffffffffffffffffffffffffffffffffffffffffffffffffffffffff1916149050611f41565b600190505b949350505050565b600080823b905060008111915050919050565b828054611f6890612e5d565b90600052602060002090601f016020900481019282611f8a5760008555611fd1565b82601f10611fa357803560ff1916838001178555611fd1565b82800160010185558215611fd1579182015b82811115611fd0578235825591602001919060010190611fb5565b5b509050611fde9190611fe2565b5090565b5b80821115611ffb576000816000905550600101611fe3565b5090565b600061201261200d84612c14565b612be3565b90508281526020810184848401111561202a57600080fd5b612035848285612e1b565b509392505050565b60008135905061204c81612fd6565b92915050565b60008135905061206181612fed565b92915050565b60008135905061207681613004565b92915050565b60008151905061208b81613004565b92915050565b600082601f8301126120a257600080fd5b81356120b2848260208601611fff565b91505092915050565b60008083601f8401126120cd57600080fd5b8235905067ffffffffffffffff8111156120e657600080fd5b6020830191508360018202830111156120fe57600080fd5b9250929050565b6000813590506121148161301b565b92915050565b60006020828403121561212c57600080fd5b600061213a8482850161203d565b91505092915050565b6000806040838503121561215657600080fd5b60006121648582860161203d565b92505060206121758582860161203d565b9150509250929050565b60008060006060848603121561219457600080fd5b60006121a28682870161203d565b93505060206121b38682870161203d565b92505060406121c486828701612105565b9150509250925092565b600080600080608085870312156121e457600080fd5b60006121f28782880161203d565b94505060206122038782880161203d565b935050604061221487828801612105565b925050606085013567ffffffffffffffff81111561223157600080fd5b61223d87828801612091565b91505092959194509250565b6000806040838503121561225c57600080fd5b600061226a8582860161203d565b925050602061227b85828601612052565b9150509250929050565b6000806040838503121561229857600080fd5b60006122a68582860161203d565b92505060206122b785828601612105565b9150509250929050565b6000602082840312156122d357600080fd5b60006122e184828501612067565b91505092915050565b6000602082840312156122fc57600080fd5b600061230a8482850161207c565b91505092915050565b6000806020838503121561232657600080fd5b600083013567ffffffffffffffff81111561234057600080fd5b61234c858286016120bb565b92509250509250929050565b60006020828403121561236a57600080fd5b600061237884828501612105565b91505092915050565b61238a81612da7565b82525050565b61239981612db9565b82525050565b60006123aa82612c44565b6123b48185612c5a565b93506123c4818560208601612e2a565b6123cd81612fc5565b840191505092915050565b60006123e382612c4f565b6123ed8185612c76565b93506123fd818560208601612e2a565b61240681612fc5565b840191505092915050565b600061241c82612c4f565b6124268185612c87565b9350612436818560208601612e2a565b80840191505092915050565b600061244f601d83612c76565b91507f6e6f74206f776e6572206f7220617070726f76656420666f7220616c6c0000006000830152602082019050919050565b600061248f600f83612c76565b91507f746f2069732030206164647265737300000000000000000000000000000000006000830152602082019050919050565b60006124cf601683612c76565b91507f6e6f74206f776e6572206e6f7220617070726f766564000000000000000000006000830152602082019050919050565b600061250f602683612c76565b91507f4f776e61626c653a206e6577206f776e657220697320746865207a65726f206160008301527f64647265737300000000000000000000000000000000000000000000000000006020830152604082019050919050565b6000612575600f83612c76565b91507f5472616e73666572206661696c656400000000000000000000000000000000006000830152602082019050919050565b60006125b5601883612c76565b91507f73616c6520686173206e6f7420737461727465642079657400000000000000006000830152602082019050919050565b60006125f5601383612c76565b91507f746f6b656e20646f65736e2774206578697374000000000000000000000000006000830152602082019050919050565b6000612635602083612c76565b91507f4f776e61626c653a2063616c6c6572206973206e6f7420746865206f776e65726000830152602082019050919050565b6000612675601483612c76565b91507f746f6b656e20616c7265616479206d696e7465640000000000000000000000006000830152602082019050919050565b60006126b5601183612c76565b91507f6f776e6572203d203020616464726573730000000000000000000000000000006000830152602082019050919050565b60006126f5600083612c6b565b9150600082019050919050565b600061270f601683612c76565b91507f4e65656420746f2073656e64206d6f7265204554482e000000000000000000006000830152602082019050919050565b600061274f600f83612c76565b91507f546f6b656e206e6f7420657869737400000000000000000000000000000000006000830152602082019050919050565b600061278f601283612c76565b91507f6e6f7420455243373231526563656976657200000000000000000000000000006000830152602082019050919050565b60006127cf604883612c76565b91507f6e6f7420656e6f7567682072656d61696e696e6720726573657276656420666f60008301527f722061756374696f6e20746f20737570706f72742064657369726564206d696e60208301527f7420616d6f756e740000000000000000000000000000000000000000000000006040830152606082019050919050565b600061285b600983612c76565b91507f6e6f74206f776e657200000000000000000000000000000000000000000000006000830152602082019050919050565b61289781612e11565b82525050565b60006128a98285612411565b91506128b58284612411565b91508190509392505050565b60006128cc826126e8565b9150819050919050565b60006020820190506128eb6000830184612381565b92915050565b60006060820190506129066000830186612381565b6129136020830185612381565b6129206040830184612390565b949350505050565b600060608201905061293d6000830186612381565b61294a6020830185612381565b612957604083018461288e565b949350505050565b60006080820190506129746000830187612381565b6129816020830186612381565b61298e604083018561288e565b81810360608301526129a0818461239f565b905095945050505050565b60006020820190506129c06000830184612390565b92915050565b600060208201905081810360008301526129e081846123d8565b905092915050565b60006020820190508181036000830152612a0181612442565b9050919050565b60006020820190508181036000830152612a2181612482565b9050919050565b60006020820190508181036000830152612a41816124c2565b9050919050565b60006020820190508181036000830152612a6181612502565b9050919050565b60006020820190508181036000830152612a8181612568565b9050919050565b60006020820190508181036000830152612aa1816125a8565b9050919050565b60006020820190508181036000830152612ac1816125e8565b9050919050565b60006020820190508181036000830152612ae181612628565b9050919050565b60006020820190508181036000830152612b0181612668565b9050919050565b60006020820190508181036000830152612b21816126a8565b9050919050565b60006020820190508181036000830152612b4181612702565b9050919050565b60006020820190508181036000830152612b6181612742565b9050919050565b60006020820190508181036000830152612b8181612782565b9050919050565b60006020820190508181036000830152612ba1816127c2565b9050919050565b60006020820190508181036000830152612bc18161284e565b9050919050565b6000602082019050612bdd600083018461288e565b92915050565b6000604051905081810181811067ffffffffffffffff82111715612c0a57612c09612f96565b5b8060405250919050565b600067ffffffffffffffff821115612c2f57612c2e612f96565b5b601f19601f8301169050602081019050919050565b600081519050919050565b600081519050919050565b600082825260208201905092915050565b600081905092915050565b600082825260208201905092915050565b600081905092915050565b6000612c9d82612e11565b9150612ca883612e11565b9250827fffffffffffffffffffffffffffffffffffffffffffffffffffffffffffffffff03821115612cdd57612cdc612f09565b5b828201905092915050565b6000612cf382612e11565b9150612cfe83612e11565b925082612d0e57612d0d612f38565b5b828204905092915050565b6000612d2482612e11565b9150612d2f83612e11565b9250817fffffffffffffffffffffffffffffffffffffffffffffffffffffffffffffffff0483118215151615612d6857612d67612f09565b5b828202905092915050565b6000612d7e82612e11565b9150612d8983612e11565b925082821015612d9c57612d9b612f09565b5b828203905092915050565b6000612db282612df1565b9050919050565b60008115159050919050565b60007fffffffff0000000000000000000000000000000000000000000000000000000082169050919050565b600073ffffffffffffffffffffffffffffffffffffffff82169050919050565b6000819050919050565b82818337600083830152505050565b60005b83811015612e48578082015181840152602081019050612e2d565b83811115612e57576000848401525b50505050565b60006002820490506001821680612e7557607f821691505b60208210811415612e8957612e88612f67565b5b50919050565b6000612e9a82612e11565b91507fffffffffffffffffffffffffffffffffffffffffffffffffffffffffffffffff821415612ecd57612ecc612f09565b5b600182019050919050565b6000612ee382612e11565b9150612eee83612e11565b925082612efe57612efd612f38565b5b828206905092915050565b7f4e487b7100000000000000000000000000000000000000000000000000000000600052601160045260246000fd5b7f4e487b7100000000000000000000000000000000000000000000000000000000600052601260045260246000fd5b7f4e487b7100000000000000000000000000000000000000000000000000000000600052602260045260246000fd5b7f4e487b7100000000000000000000000000000000000000000000000000000000600052604160045260246000fd5b6000601f19601f8301169050919050565b612fdf81612da7565b8114612fea57600080fd5b50565b612ff681612db9565b811461300157600080fd5b50565b61300d81612dc5565b811461301857600080fd5b50565b61302481612e11565b811461302f57600080fd5b5056fea2646970667358221220a0f9bc892b50d3b00826979728faf536bd8161418b721e137e074a8d0cffe7fc64736f6c63430008000033",
					"opcodes": "PUSH1 0x80 PUSH1 0x40 MSTORE CALLVALUE DUP1 ISZERO PUSH3 0x11 JUMPI PUSH1 0x0 DUP1 REVERT JUMPDEST POP PUSH1 0x40 MLOAD PUSH3 0x34A6 CODESIZE SUB DUP1 PUSH3 0x34A6 DUP4 CODECOPY DUP2 DUP2 ADD PUSH1 0x40 MSTORE DUP2 ADD SWAP1 PUSH3 0x37 SWAP2 SWAP1 PUSH3 0x28A JUMP JUMPDEST DUP2 DUP2 PUSH3 0x59 PUSH3 0x4D PUSH3 0x9C PUSH1 0x20 SHL PUSH1 0x20 SHR JUMP JUMPDEST PUSH3 0xA4 PUSH1 0x20 SHL PUSH1 0x20 SHR JUMP JUMPDEST DUP2 PUSH1 0x1 SWAP1 DUP1 MLOAD SWAP1 PUSH1 0x20 ADD SWAP1 PUSH3 0x71 SWAP3 SWAP2 SWAP1 PUSH3 0x168 JUMP JUMPDEST POP DUP1 PUSH1 0x2 SWAP1 DUP1 MLOAD SWAP1 PUSH1 0x20 ADD SWAP1 PUSH3 0x8A SWAP3 SWAP2 SWAP1 PUSH3 0x168 JUMP JUMPDEST POP POP POP TIMESTAMP PUSH1 0x7 DUP2 SWAP1 SSTORE POP POP POP PUSH3 0x42E JUMP JUMPDEST PUSH1 0x0 CALLER SWAP1 POP SWAP1 JUMP JUMPDEST PUSH1 0x0 DUP1 PUSH1 0x0 SWAP1 SLOAD SWAP1 PUSH2 0x100 EXP SWAP1 DIV PUSH20 0xFFFFFFFFFFFFFFFFFFFFFFFFFFFFFFFFFFFFFFFF AND SWAP1 POP DUP2 PUSH1 0x0 DUP1 PUSH2 0x100 EXP DUP2 SLOAD DUP2 PUSH20 0xFFFFFFFFFFFFFFFFFFFFFFFFFFFFFFFFFFFFFFFF MUL NOT AND SWAP1 DUP4 PUSH20 0xFFFFFFFFFFFFFFFFFFFFFFFFFFFFFFFFFFFFFFFF AND MUL OR SWAP1 SSTORE POP DUP2 PUSH20 0xFFFFFFFFFFFFFFFFFFFFFFFFFFFFFFFFFFFFFFFF AND DUP2 PUSH20 0xFFFFFFFFFFFFFFFFFFFFFFFFFFFFFFFFFFFFFFFF AND PUSH32 0x8BE0079C531659141344CD1FD0A4F28419497F9722A3DAAFE3B4186F6B6457E0 PUSH1 0x40 MLOAD PUSH1 0x40 MLOAD DUP1 SWAP2 SUB SWAP1 LOG3 POP POP JUMP JUMPDEST DUP3 DUP1 SLOAD PUSH3 0x176 SWAP1 PUSH3 0x39A JUMP JUMPDEST SWAP1 PUSH1 0x0 MSTORE PUSH1 0x20 PUSH1 0x0 KECCAK256 SWAP1 PUSH1 0x1F ADD PUSH1 0x20 SWAP1 DIV DUP2 ADD SWAP3 DUP3 PUSH3 0x19A JUMPI PUSH1 0x0 DUP6 SSTORE PUSH3 0x1E6 JUMP JUMPDEST DUP3 PUSH1 0x1F LT PUSH3 0x1B5 JUMPI DUP1 MLOAD PUSH1 0xFF NOT AND DUP4 DUP1 ADD OR DUP6 SSTORE PUSH3 0x1E6 JUMP JUMPDEST DUP3 DUP1 ADD PUSH1 0x1 ADD DUP6 SSTORE DUP3 ISZERO PUSH3 0x1E6 JUMPI SWAP2 DUP3 ADD JUMPDEST DUP3 DUP2 GT ISZERO PUSH3 0x1E5 JUMPI DUP3 MLOAD DUP3 SSTORE SWAP2 PUSH1 0x20 ADD SWAP2 SWAP1 PUSH1 0x1 ADD SWAP1 PUSH3 0x1C8 JUMP JUMPDEST JUMPDEST POP SWAP1 POP PUSH3 0x1F5 SWAP2 SWAP1 PUSH3 0x1F9 JUMP JUMPDEST POP SWAP1 JUMP JUMPDEST JUMPDEST DUP1 DUP3 GT ISZERO PUSH3 0x214 JUMPI PUSH1 0x0 DUP2 PUSH1 0x0 SWAP1 SSTORE POP PUSH1 0x1 ADD PUSH3 0x1FA JUMP JUMPDEST POP SWAP1 JUMP JUMPDEST PUSH1 0x0 PUSH3 0x22F PUSH3 0x229 DUP5 PUSH3 0x331 JUMP JUMPDEST PUSH3 0x2FD JUMP JUMPDEST SWAP1 POP DUP3 DUP2 MSTORE PUSH1 0x20 DUP2 ADD DUP5 DUP5 DUP5 ADD GT ISZERO PUSH3 0x248 JUMPI PUSH1 0x0 DUP1 REVERT JUMPDEST PUSH3 0x255 DUP5 DUP3 DUP6 PUSH3 0x364 JUMP JUMPDEST POP SWAP4 SWAP3 POP POP POP JUMP JUMPDEST PUSH1 0x0 DUP3 PUSH1 0x1F DUP4 ADD SLT PUSH3 0x26F JUMPI PUSH1 0x0 DUP1 REVERT JUMPDEST DUP2 MLOAD PUSH3 0x281 DUP5 DUP3 PUSH1 0x20 DUP7 ADD PUSH3 0x218 JUMP JUMPDEST SWAP2 POP POP SWAP3 SWAP2 POP POP JUMP JUMPDEST PUSH1 0x0 DUP1 PUSH1 0x40 DUP4 DUP6 SUB SLT ISZERO PUSH3 0x29E JUMPI PUSH1 0x0 DUP1 REVERT JUMPDEST PUSH1 0x0 DUP4 ADD MLOAD PUSH8 0xFFFFFFFFFFFFFFFF DUP2 GT ISZERO PUSH3 0x2B9 JUMPI PUSH1 0x0 DUP1 REVERT JUMPDEST PUSH3 0x2C7 DUP6 DUP3 DUP7 ADD PUSH3 0x25D JUMP JUMPDEST SWAP3 POP POP PUSH1 0x20 DUP4 ADD MLOAD PUSH8 0xFFFFFFFFFFFFFFFF DUP2 GT ISZERO PUSH3 0x2E5 JUMPI PUSH1 0x0 DUP1 REVERT JUMPDEST PUSH3 0x2F3 DUP6 DUP3 DUP7 ADD PUSH3 0x25D JUMP JUMPDEST SWAP2 POP POP SWAP3 POP SWAP3 SWAP1 POP JUMP JUMPDEST PUSH1 0x0 PUSH1 0x40 MLOAD SWAP1 POP DUP2 DUP2 ADD DUP2 DUP2 LT PUSH8 0xFFFFFFFFFFFFFFFF DUP3 GT OR ISZERO PUSH3 0x327 JUMPI PUSH3 0x326 PUSH3 0x3FF JUMP JUMPDEST JUMPDEST DUP1 PUSH1 0x40 MSTORE POP SWAP2 SWAP1 POP JUMP JUMPDEST PUSH1 0x0 PUSH8 0xFFFFFFFFFFFFFFFF DUP3 GT ISZERO PUSH3 0x34F JUMPI PUSH3 0x34E PUSH3 0x3FF JUMP JUMPDEST JUMPDEST PUSH1 0x1F NOT PUSH1 0x1F DUP4 ADD AND SWAP1 POP PUSH1 0x20 DUP2 ADD SWAP1 POP SWAP2 SWAP1 POP JUMP JUMPDEST PUSH1 0x0 JUMPDEST DUP4 DUP2 LT ISZERO PUSH3 0x384 JUMPI DUP1 DUP3 ADD MLOAD DUP2 DUP5 ADD MSTORE PUSH1 0x20 DUP2 ADD SWAP1 POP PUSH3 0x367 JUMP JUMPDEST DUP4 DUP2 GT ISZERO PUSH3 0x394 JUMPI PUSH1 0x0 DUP5 DUP5 ADD MSTORE JUMPDEST POP POP POP POP JUMP JUMPDEST PUSH1 0x0 PUSH1 0x2 DUP3 DIV SWAP1 POP PUSH1 0x1 DUP3 AND DUP1 PUSH3 0x3B3 JUMPI PUSH1 0x7F DUP3 AND SWAP2 POP JUMPDEST PUSH1 0x20 DUP3 LT DUP2 EQ ISZERO PUSH3 0x3CA JUMPI PUSH3 0x3C9 PUSH3 0x3D0 JUMP JUMPDEST JUMPDEST POP SWAP2 SWAP1 POP JUMP JUMPDEST PUSH32 0x4E487B7100000000000000000000000000000000000000000000000000000000 PUSH1 0x0 MSTORE PUSH1 0x22 PUSH1 0x4 MSTORE PUSH1 0x24 PUSH1 0x0 REVERT JUMPDEST PUSH32 0x4E487B7100000000000000000000000000000000000000000000000000000000 PUSH1 0x0 MSTORE PUSH1 0x41 PUSH1 0x4 MSTORE PUSH1 0x24 PUSH1 0x0 REVERT JUMPDEST PUSH2 0x3068 DUP1 PUSH3 0x43E PUSH1 0x0 CODECOPY PUSH1 0x0 RETURN INVALID PUSH1 0x80 PUSH1 0x40 MSTORE PUSH1 0x4 CALLDATASIZE LT PUSH2 0x1C2 JUMPI PUSH1 0x0 CALLDATALOAD PUSH1 0xE0 SHR DUP1 PUSH4 0x6352211E GT PUSH2 0xF7 JUMPI DUP1 PUSH4 0xB88D4FDE GT PUSH2 0x95 JUMPI DUP1 PUSH4 0xDA460977 GT PUSH2 0x64 JUMPI DUP1 PUSH4 0xDA460977 EQ PUSH2 0x60F JUMPI DUP1 PUSH4 0xE7572230 EQ PUSH2 0x63A JUMPI DUP1 PUSH4 0xE985E9C5 EQ PUSH2 0x677 JUMPI DUP1 PUSH4 0xF2FDE38B EQ PUSH2 0x6B4 JUMPI PUSH2 0x1C2 JUMP JUMPDEST DUP1 PUSH4 0xB88D4FDE EQ PUSH2 0x555 JUMPI DUP1 PUSH4 0xBEAE6637 EQ PUSH2 0x57E JUMPI DUP1 PUSH4 0xC5E51B9E EQ PUSH2 0x5A9 JUMPI DUP1 PUSH4 0xC87B56DD EQ PUSH2 0x5D2 JUMPI PUSH2 0x1C2 JUMP JUMPDEST DUP1 PUSH4 0x78E97925 GT PUSH2 0xD1 JUMPI DUP1 PUSH4 0x78E97925 EQ PUSH2 0x4BD JUMPI DUP1 PUSH4 0x8DA5CB5B EQ PUSH2 0x4E8 JUMPI DUP1 PUSH4 0x95D89B41 EQ PUSH2 0x513 JUMPI DUP1 PUSH4 0xAC446002 EQ PUSH2 0x53E JUMPI PUSH2 0x1C2 JUMP JUMPDEST DUP1 PUSH4 0x6352211E EQ PUSH2 0x42C JUMPI DUP1 PUSH4 0x70A08231 EQ PUSH2 0x469 JUMPI DUP1 PUSH4 0x715018A6 EQ PUSH2 0x4A6 JUMPI PUSH2 0x1C2 JUMP JUMPDEST DUP1 PUSH4 0x3609AC8F GT PUSH2 0x164 JUMPI DUP1 PUSH4 0x42842E0E GT PUSH2 0x13E JUMPI DUP1 PUSH4 0x42842E0E EQ PUSH2 0x393 JUMPI DUP1 PUSH4 0x4D3554C3 EQ PUSH2 0x3BC JUMPI DUP1 PUSH4 0x538F1672 EQ PUSH2 0x3D8 JUMPI DUP1 PUSH4 0x55F804B3 EQ PUSH2 0x403 JUMPI PUSH2 0x1C2 JUMP JUMPDEST DUP1 PUSH4 0x3609AC8F EQ PUSH2 0x314 JUMPI DUP1 PUSH4 0x3BADCB56 EQ PUSH2 0x33F JUMPI DUP1 PUSH4 0x3E0A322D EQ PUSH2 0x36A JUMPI PUSH2 0x1C2 JUMP JUMPDEST DUP1 PUSH4 0x95EA7B3 GT PUSH2 0x1A0 JUMPI DUP1 PUSH4 0x95EA7B3 EQ PUSH2 0x26C JUMPI DUP1 PUSH4 0x96DC66F EQ PUSH2 0x295 JUMPI DUP1 PUSH4 0x18160DDD EQ PUSH2 0x2C0 JUMPI DUP1 PUSH4 0x23B872DD EQ PUSH2 0x2EB JUMPI PUSH2 0x1C2 JUMP JUMPDEST DUP1 PUSH4 0x1FFC9A7 EQ PUSH2 0x1C7 JUMPI DUP1 PUSH4 0x6FDDE03 EQ PUSH2 0x204 JUMPI DUP1 PUSH4 0x81812FC EQ PUSH2 0x22F JUMPI JUMPDEST PUSH1 0x0 DUP1 REVERT JUMPDEST CALLVALUE DUP1 ISZERO PUSH2 0x1D3 JUMPI PUSH1 0x0 DUP1 REVERT JUMPDEST POP PUSH2 0x1EE PUSH1 0x4 DUP1 CALLDATASIZE SUB DUP2 ADD SWAP1 PUSH2 0x1E9 SWAP2 SWAP1 PUSH2 0x22C1 JUMP JUMPDEST PUSH2 0x6DD JUMP JUMPDEST PUSH1 0x40 MLOAD PUSH2 0x1FB SWAP2 SWAP1 PUSH2 0x29AB JUMP JUMPDEST PUSH1 0x40 MLOAD DUP1 SWAP2 SUB SWAP1 RETURN JUMPDEST CALLVALUE DUP1 ISZERO PUSH2 0x210 JUMPI PUSH1 0x0 DUP1 REVERT JUMPDEST POP PUSH2 0x219 PUSH2 0x817 JUMP JUMPDEST PUSH1 0x40 MLOAD PUSH2 0x226 SWAP2 SWAP1 PUSH2 0x29C6 JUMP JUMPDEST PUSH1 0x40 MLOAD DUP1 SWAP2 SUB SWAP1 RETURN JUMPDEST CALLVALUE DUP1 ISZERO PUSH2 0x23B JUMPI PUSH1 0x0 DUP1 REVERT JUMPDEST POP PUSH2 0x256 PUSH1 0x4 DUP1 CALLDATASIZE SUB DUP2 ADD SWAP1 PUSH2 0x251 SWAP2 SWAP1 PUSH2 0x2358 JUMP JUMPDEST PUSH2 0x8A5 JUMP JUMPDEST PUSH1 0x40 MLOAD PUSH2 0x263 SWAP2 SWAP1 PUSH2 0x28D6 JUMP JUMPDEST PUSH1 0x40 MLOAD DUP1 SWAP2 SUB SWAP1 RETURN JUMPDEST CALLVALUE DUP1 ISZERO PUSH2 0x278 JUMPI PUSH1 0x0 DUP1 REVERT JUMPDEST POP PUSH2 0x293 PUSH1 0x4 DUP1 CALLDATASIZE SUB DUP2 ADD SWAP1 PUSH2 0x28E SWAP2 SWAP1 PUSH2 0x2285 JUMP JUMPDEST PUSH2 0x984 JUMP JUMPDEST STOP JUMPDEST CALLVALUE DUP1 ISZERO PUSH2 0x2A1 JUMPI PUSH1 0x0 DUP1 REVERT JUMPDEST POP PUSH2 0x2AA PUSH2 0xACB JUMP JUMPDEST PUSH1 0x40 MLOAD PUSH2 0x2B7 SWAP2 SWAP1 PUSH2 0x2BC8 JUMP JUMPDEST PUSH1 0x40 MLOAD DUP1 SWAP2 SUB SWAP1 RETURN JUMPDEST CALLVALUE DUP1 ISZERO PUSH2 0x2CC JUMPI PUSH1 0x0 DUP1 REVERT JUMPDEST POP PUSH2 0x2D5 PUSH2 0xAD0 JUMP JUMPDEST PUSH1 0x40 MLOAD PUSH2 0x2E2 SWAP2 SWAP1 PUSH2 0x2BC8 JUMP JUMPDEST PUSH1 0x40 MLOAD DUP1 SWAP2 SUB SWAP1 RETURN JUMPDEST CALLVALUE DUP1 ISZERO PUSH2 0x2F7 JUMPI PUSH1 0x0 DUP1 REVERT JUMPDEST POP PUSH2 0x312 PUSH1 0x4 DUP1 CALLDATASIZE SUB DUP2 ADD SWAP1 PUSH2 0x30D SWAP2 SWAP1 PUSH2 0x217F JUMP JUMPDEST PUSH2 0xADD JUMP JUMPDEST STOP JUMPDEST CALLVALUE DUP1 ISZERO PUSH2 0x320 JUMPI PUSH1 0x0 DUP1 REVERT JUMPDEST POP PUSH2 0x329 PUSH2 0xB10 JUMP JUMPDEST PUSH1 0x40 MLOAD PUSH2 0x336 SWAP2 SWAP1 PUSH2 0x2BC8 JUMP JUMPDEST PUSH1 0x40 MLOAD DUP1 SWAP2 SUB SWAP1 RETURN JUMPDEST CALLVALUE DUP1 ISZERO PUSH2 0x34B JUMPI PUSH1 0x0 DUP1 REVERT JUMPDEST POP PUSH2 0x354 PUSH2 0xB1C JUMP JUMPDEST PUSH1 0x40 MLOAD PUSH2 0x361 SWAP2 SWAP1 PUSH2 0x2BC8 JUMP JUMPDEST PUSH1 0x40 MLOAD DUP1 SWAP2 SUB SWAP1 RETURN JUMPDEST CALLVALUE DUP1 ISZERO PUSH2 0x376 JUMPI PUSH1 0x0 DUP1 REVERT JUMPDEST POP PUSH2 0x391 PUSH1 0x4 DUP1 CALLDATASIZE SUB DUP2 ADD SWAP1 PUSH2 0x38C SWAP2 SWAP1 PUSH2 0x2358 JUMP JUMPDEST PUSH2 0xB54 JUMP JUMPDEST STOP JUMPDEST CALLVALUE DUP1 ISZERO PUSH2 0x39F JUMPI PUSH1 0x0 DUP1 REVERT JUMPDEST POP PUSH2 0x3BA PUSH1 0x4 DUP1 CALLDATASIZE SUB DUP2 ADD SWAP1 PUSH2 0x3B5 SWAP2 SWAP1 PUSH2 0x217F JUMP JUMPDEST PUSH2 0xB66 JUMP JUMPDEST STOP JUMPDEST PUSH2 0x3D6 PUSH1 0x4 DUP1 CALLDATASIZE SUB DUP2 ADD SWAP1 PUSH2 0x3D1 SWAP2 SWAP1 PUSH2 0x2358 JUMP JUMPDEST PUSH2 0xB95 JUMP JUMPDEST STOP JUMPDEST CALLVALUE DUP1 ISZERO PUSH2 0x3E4 JUMPI PUSH1 0x0 DUP1 REVERT JUMPDEST POP PUSH2 0x3ED PUSH2 0xD07 JUMP JUMPDEST PUSH1 0x40 MLOAD PUSH2 0x3FA SWAP2 SWAP1 PUSH2 0x2BC8 JUMP JUMPDEST PUSH1 0x40 MLOAD DUP1 SWAP2 SUB SWAP1 RETURN JUMPDEST CALLVALUE DUP1 ISZERO PUSH2 0x40F JUMPI PUSH1 0x0 DUP1 REVERT JUMPDEST POP PUSH2 0x42A PUSH1 0x4 DUP1 CALLDATASIZE SUB DUP2 ADD SWAP1 PUSH2 0x425 SWAP2 SWAP1 PUSH2 0x2313 JUMP JUMPDEST PUSH2 0xD0D JUMP JUMPDEST STOP JUMPDEST CALLVALUE DUP1 ISZERO PUSH2 0x438 JUMPI PUSH1 0x0 DUP1 REVERT JUMPDEST POP PUSH2 0x453 PUSH1 0x4 DUP1 CALLDATASIZE SUB DUP2 ADD SWAP1 PUSH2 0x44E SWAP2 SWAP1 PUSH2 0x2358 JUMP JUMPDEST PUSH2 0xD2B JUMP JUMPDEST PUSH1 0x40 MLOAD PUSH2 0x460 SWAP2 SWAP1 PUSH2 0x28D6 JUMP JUMPDEST PUSH1 0x40 MLOAD DUP1 SWAP2 SUB SWAP1 RETURN JUMPDEST CALLVALUE DUP1 ISZERO PUSH2 0x475 JUMPI PUSH1 0x0 DUP1 REVERT JUMPDEST POP PUSH2 0x490 PUSH1 0x4 DUP1 CALLDATASIZE SUB DUP2 ADD SWAP1 PUSH2 0x48B SWAP2 SWAP1 PUSH2 0x211A JUMP JUMPDEST PUSH2 0xDD8 JUMP JUMPDEST PUSH1 0x40 MLOAD PUSH2 0x49D SWAP2 SWAP1 PUSH2 0x2BC8 JUMP JUMPDEST PUSH1 0x40 MLOAD DUP1 SWAP2 SUB SWAP1 RETURN JUMPDEST CALLVALUE DUP1 ISZERO PUSH2 0x4B2 JUMPI PUSH1 0x0 DUP1 REVERT JUMPDEST POP PUSH2 0x4BB PUSH2 0xE90 JUMP JUMPDEST STOP JUMPDEST CALLVALUE DUP1 ISZERO PUSH2 0x4C9 JUMPI PUSH1 0x0 DUP1 REVERT JUMPDEST POP PUSH2 0x4D2 PUSH2 0xEA4 JUMP JUMPDEST PUSH1 0x40 MLOAD PUSH2 0x4DF SWAP2 SWAP1 PUSH2 0x2BC8 JUMP JUMPDEST PUSH1 0x40 MLOAD DUP1 SWAP2 SUB SWAP1 RETURN JUMPDEST CALLVALUE DUP1 ISZERO PUSH2 0x4F4 JUMPI PUSH1 0x0 DUP1 REVERT JUMPDEST POP PUSH2 0x4FD PUSH2 0xEAA JUMP JUMPDEST PUSH1 0x40 MLOAD PUSH2 0x50A SWAP2 SWAP1 PUSH2 0x28D6 JUMP JUMPDEST PUSH1 0x40 MLOAD DUP1 SWAP2 SUB SWAP1 RETURN JUMPDEST CALLVALUE DUP1 ISZERO PUSH2 0x51F JUMPI PUSH1 0x0 DUP1 REVERT JUMPDEST POP PUSH2 0x528 PUSH2 0xED3 JUMP JUMPDEST PUSH1 0x40 MLOAD PUSH2 0x535 SWAP2 SWAP1 PUSH2 0x29C6 JUMP JUMPDEST PUSH1 0x40 MLOAD DUP1 SWAP2 SUB SWAP1 RETURN JUMPDEST CALLVALUE DUP1 ISZERO PUSH2 0x54A JUMPI PUSH1 0x0 DUP1 REVERT JUMPDEST POP PUSH2 0x553 PUSH2 0xF61 JUMP JUMPDEST STOP JUMPDEST CALLVALUE DUP1 ISZERO PUSH2 0x561 JUMPI PUSH1 0x0 DUP1 REVERT JUMPDEST POP PUSH2 0x57C PUSH1 0x4 DUP1 CALLDATASIZE SUB DUP2 ADD SWAP1 PUSH2 0x577 SWAP2 SWAP1 PUSH2 0x21CE JUMP JUMPDEST PUSH2 0x1018 JUMP JUMPDEST STOP JUMPDEST CALLVALUE DUP1 ISZERO PUSH2 0x58A JUMPI PUSH1 0x0 DUP1 REVERT JUMPDEST POP PUSH2 0x593 PUSH2 0x1083 JUMP JUMPDEST PUSH1 0x40 MLOAD PUSH2 0x5A0 SWAP2 SWAP1 PUSH2 0x2BC8 JUMP JUMPDEST PUSH1 0x40 MLOAD DUP1 SWAP2 SUB SWAP1 RETURN JUMPDEST CALLVALUE DUP1 ISZERO PUSH2 0x5B5 JUMPI PUSH1 0x0 DUP1 REVERT JUMPDEST POP PUSH2 0x5D0 PUSH1 0x4 DUP1 CALLDATASIZE SUB DUP2 ADD SWAP1 PUSH2 0x5CB SWAP2 SWAP1 PUSH2 0x2249 JUMP JUMPDEST PUSH2 0x1089 JUMP JUMPDEST STOP JUMPDEST CALLVALUE DUP1 ISZERO PUSH2 0x5DE JUMPI PUSH1 0x0 DUP1 REVERT JUMPDEST POP PUSH2 0x5F9 PUSH1 0x4 DUP1 CALLDATASIZE SUB DUP2 ADD SWAP1 PUSH2 0x5F4 SWAP2 SWAP1 PUSH2 0x2358 JUMP JUMPDEST PUSH2 0x115C JUMP JUMPDEST PUSH1 0x40 MLOAD PUSH2 0x606 SWAP2 SWAP1 PUSH2 0x29C6 JUMP JUMPDEST PUSH1 0x40 MLOAD DUP1 SWAP2 SUB SWAP1 RETURN JUMPDEST CALLVALUE DUP1 ISZERO PUSH2 0x61B JUMPI PUSH1 0x0 DUP1 REVERT JUMPDEST POP PUSH2 0x624 PUSH2 0x125E JUMP JUMPDEST PUSH1 0x40 MLOAD PUSH2 0x631 SWAP2 SWAP1 PUSH2 0x2BC8 JUMP JUMPDEST PUSH1 0x40 MLOAD DUP1 SWAP2 SUB SWAP1 RETURN JUMPDEST CALLVALUE DUP1 ISZERO PUSH2 0x646 JUMPI PUSH1 0x0 DUP1 REVERT JUMPDEST POP PUSH2 0x661 PUSH1 0x4 DUP1 CALLDATASIZE SUB DUP2 ADD SWAP1 PUSH2 0x65C SWAP2 SWAP1 PUSH2 0x2358 JUMP JUMPDEST PUSH2 0x126A JUMP JUMPDEST PUSH1 0x40 MLOAD PUSH2 0x66E SWAP2 SWAP1 PUSH2 0x2BC8 JUMP JUMPDEST PUSH1 0x40 MLOAD DUP1 SWAP2 SUB SWAP1 RETURN JUMPDEST CALLVALUE DUP1 ISZERO PUSH2 0x683 JUMPI PUSH1 0x0 DUP1 REVERT JUMPDEST POP PUSH2 0x69E PUSH1 0x4 DUP1 CALLDATASIZE SUB DUP2 ADD SWAP1 PUSH2 0x699 SWAP2 SWAP1 PUSH2 0x2143 JUMP JUMPDEST PUSH2 0x1320 JUMP JUMPDEST PUSH1 0x40 MLOAD PUSH2 0x6AB SWAP2 SWAP1 PUSH2 0x29AB JUMP JUMPDEST PUSH1 0x40 MLOAD DUP1 SWAP2 SUB SWAP1 RETURN JUMPDEST CALLVALUE DUP1 ISZERO PUSH2 0x6C0 JUMPI PUSH1 0x0 DUP1 REVERT JUMPDEST POP PUSH2 0x6DB PUSH1 0x4 DUP1 CALLDATASIZE SUB DUP2 ADD SWAP1 PUSH2 0x6D6 SWAP2 SWAP1 PUSH2 0x211A JUMP JUMPDEST PUSH2 0x13B4 JUMP JUMPDEST STOP JUMPDEST PUSH1 0x0 PUSH32 0xE765F73600000000000000000000000000000000000000000000000000000000 PUSH28 0xFFFFFFFFFFFFFFFFFFFFFFFFFFFFFFFFFFFFFFFFFFFFFFFFFFFFFFFF NOT AND DUP3 PUSH28 0xFFFFFFFFFFFFFFFFFFFFFFFFFFFFFFFFFFFFFFFFFFFFFFFFFFFFFFFF NOT AND EQ DUP1 PUSH2 0x7A8 JUMPI POP PUSH32 0x1FFC9A700000000000000000000000000000000000000000000000000000000 PUSH28 0xFFFFFFFFFFFFFFFFFFFFFFFFFFFFFFFFFFFFFFFFFFFFFFFFFFFFFFFF NOT AND DUP3 PUSH28 0xFFFFFFFFFFFFFFFFFFFFFFFFFFFFFFFFFFFFFFFFFFFFFFFFFFFFFFFF NOT AND EQ JUMPDEST DUP1 PUSH2 0x810 JUMPI POP PUSH32 0x5B5E139F00000000000000000000000000000000000000000000000000000000 PUSH28 0xFFFFFFFFFFFFFFFFFFFFFFFFFFFFFFFFFFFFFFFFFFFFFFFFFFFFFFFF NOT AND DUP3 PUSH28 0xFFFFFFFFFFFFFFFFFFFFFFFFFFFFFFFFFFFFFFFFFFFFFFFFFFFFFFFF NOT AND EQ JUMPDEST SWAP1 POP SWAP2 SWAP1 POP JUMP JUMPDEST PUSH1 0x1 DUP1 SLOAD PUSH2 0x824 SWAP1 PUSH2 0x2E5D JUMP JUMPDEST DUP1 PUSH1 0x1F ADD PUSH1 0x20 DUP1 SWAP2 DIV MUL PUSH1 0x20 ADD PUSH1 0x40 MLOAD SWAP1 DUP2 ADD PUSH1 0x40 MSTORE DUP1 SWAP3 SWAP2 SWAP1 DUP2 DUP2 MSTORE PUSH1 0x20 ADD DUP3 DUP1 SLOAD PUSH2 0x850 SWAP1 PUSH2 0x2E5D JUMP JUMPDEST DUP1 ISZERO PUSH2 0x89D JUMPI DUP1 PUSH1 0x1F LT PUSH2 0x872 JUMPI PUSH2 0x100 DUP1 DUP4 SLOAD DIV MUL DUP4 MSTORE SWAP2 PUSH1 0x20 ADD SWAP2 PUSH2 0x89D JUMP JUMPDEST DUP3 ADD SWAP2 SWAP1 PUSH1 0x0 MSTORE PUSH1 0x20 PUSH1 0x0 KECCAK256 SWAP1 JUMPDEST DUP2 SLOAD DUP2 MSTORE SWAP1 PUSH1 0x1 ADD SWAP1 PUSH1 0x20 ADD DUP1 DUP4 GT PUSH2 0x880 JUMPI DUP3 SWAP1 SUB PUSH1 0x1F AND DUP3 ADD SWAP2 JUMPDEST POP POP POP POP POP DUP2 JUMP JUMPDEST PUSH1 0x0 DUP1 PUSH20 0xFFFFFFFFFFFFFFFFFFFFFFFFFFFFFFFFFFFFFFFF AND PUSH1 0x3 PUSH1 0x0 DUP5 DUP2 MSTORE PUSH1 0x20 ADD SWAP1 DUP2 MSTORE PUSH1 0x20 ADD PUSH1 0x0 KECCAK256 PUSH1 0x0 SWAP1 SLOAD SWAP1 PUSH2 0x100 EXP SWAP1 DIV PUSH20 0xFFFFFFFFFFFFFFFFFFFFFFFFFFFFFFFFFFFFFFFF AND PUSH20 0xFFFFFFFFFFFFFFFFFFFFFFFFFFFFFFFFFFFFFFFF AND EQ ISZERO PUSH2 0x949 JUMPI PUSH1 0x40 MLOAD PUSH32 0x8C379A000000000000000000000000000000000000000000000000000000000 DUP2 MSTORE PUSH1 0x4 ADD PUSH2 0x940 SWAP1 PUSH2 0x2AA8 JUMP JUMPDEST PUSH1 0x40 MLOAD DUP1 SWAP2 SUB SWAP1 REVERT JUMPDEST PUSH1 0x5 PUSH1 0x0 DUP4 DUP2 MSTORE PUSH1 0x20 ADD SWAP1 DUP2 MSTORE PUSH1 0x20 ADD PUSH1 0x0 KECCAK256 PUSH1 0x0 SWAP1 SLOAD SWAP1 PUSH2 0x100 EXP SWAP1 DIV PUSH20 0xFFFFFFFFFFFFFFFFFFFFFFFFFFFFFFFFFFFFFFFF AND SWAP1 POP SWAP2 SWAP1 POP JUMP JUMPDEST PUSH1 0x0 PUSH1 0x3 PUSH1 0x0 DUP4 DUP2 MSTORE PUSH1 0x20 ADD SWAP1 DUP2 MSTORE PUSH1 0x20 ADD PUSH1 0x0 KECCAK256 PUSH1 0x0 SWAP1 SLOAD SWAP1 PUSH2 0x100 EXP SWAP1 DIV PUSH20 0xFFFFFFFFFFFFFFFFFFFFFFFFFFFFFFFFFFFFFFFF AND SWAP1 POP DUP1 PUSH20 0xFFFFFFFFFFFFFFFFFFFFFFFFFFFFFFFFFFFFFFFF AND CALLER PUSH20 0xFFFFFFFFFFFFFFFFFFFFFFFFFFFFFFFFFFFFFFFF AND EQ DUP1 PUSH2 0xA7C JUMPI POP PUSH1 0x6 PUSH1 0x0 DUP3 PUSH20 0xFFFFFFFFFFFFFFFFFFFFFFFFFFFFFFFFFFFFFFFF AND PUSH20 0xFFFFFFFFFFFFFFFFFFFFFFFFFFFFFFFFFFFFFFFF AND DUP2 MSTORE PUSH1 0x20 ADD SWAP1 DUP2 MSTORE PUSH1 0x20 ADD PUSH1 0x0 KECCAK256 PUSH1 0x0 CALLER PUSH20 0xFFFFFFFFFFFFFFFFFFFFFFFFFFFFFFFFFFFFFFFF AND PUSH20 0xFFFFFFFFFFFFFFFFFFFFFFFFFFFFFFFFFFFFFFFF AND DUP2 MSTORE PUSH1 0x20 ADD SWAP1 DUP2 MSTORE PUSH1 0x20 ADD PUSH1 0x0 KECCAK256 PUSH1 0x0 SWAP1 SLOAD SWAP1 PUSH2 0x100 EXP SWAP1 DIV PUSH1 0xFF AND JUMPDEST PUSH2 0xABB JUMPI PUSH1 0x40 MLOAD PUSH32 0x8C379A000000000000000000000000000000000000000000000000000000000 DUP2 MSTORE PUSH1 0x4 ADD PUSH2 0xAB2 SWAP1 PUSH2 0x29E8 JUMP JUMPDEST PUSH1 0x40 MLOAD DUP1 SWAP2 SUB SWAP1 REVERT JUMPDEST PUSH2 0xAC6 DUP2 DUP5 DUP5 PUSH2 0x1438 JUMP JUMPDEST POP POP POP JUMP JUMPDEST PUSH1 0x3C DUP2 JUMP JUMPDEST PUSH1 0x0 PUSH1 0x9 DUP1 SLOAD SWAP1 POP SWAP1 POP SWAP1 JUMP JUMPDEST PUSH1 0x0 PUSH2 0xAE8 DUP3 PUSH2 0xD2B JUMP JUMPDEST SWAP1 POP PUSH2 0xAF5 DUP2 CALLER DUP5 PUSH2 0x14CA JUMP JUMPDEST PUSH2 0xAFE JUMPI PUSH1 0x0 DUP1 REVERT JUMPDEST PUSH2 0xB0A DUP2 DUP6 DUP6 DUP6 PUSH2 0x15FE JUMP JUMPDEST POP POP POP POP JUMP JUMPDEST PUSH8 0xDE0B6B3A7640000 DUP2 JUMP JUMPDEST PUSH1 0x3C PUSH2 0x258 PUSH2 0xB2B SWAP2 SWAP1 PUSH2 0x2CE8 JUMP JUMPDEST PUSH8 0x16345785D8A0000 PUSH8 0xDE0B6B3A7640000 PUSH2 0xB47 SWAP2 SWAP1 PUSH2 0x2D73 JUMP JUMPDEST PUSH2 0xB51 SWAP2 SWAP1 PUSH2 0x2CE8 JUMP JUMPDEST DUP2 JUMP JUMPDEST PUSH2 0xB5C PUSH2 0x1829 JUMP JUMPDEST DUP1 PUSH1 0x7 DUP2 SWAP1 SSTORE POP POP JUMP JUMPDEST PUSH1 0x0 PUSH2 0xB71 DUP3 PUSH2 0xD2B JUMP JUMPDEST SWAP1 POP PUSH2 0xB8F DUP2 DUP6 DUP6 DUP6 PUSH1 0x40 MLOAD DUP1 PUSH1 0x20 ADD PUSH1 0x40 MSTORE DUP1 PUSH1 0x0 DUP2 MSTORE POP PUSH2 0x18A7 JUMP JUMPDEST POP POP POP POP JUMP JUMPDEST PUSH1 0x0 PUSH1 0x7 SLOAD SWAP1 POP PUSH1 0x0 DUP2 EQ ISZERO DUP1 ISZERO PUSH2 0xBAD JUMPI POP DUP1 TIMESTAMP LT ISZERO JUMPDEST PUSH2 0xBEC JUMPI PUSH1 0x40 MLOAD PUSH32 0x8C379A000000000000000000000000000000000000000000000000000000000 DUP2 MSTORE PUSH1 0x4 ADD PUSH2 0xBE3 SWAP1 PUSH2 0x2A88 JUMP JUMPDEST PUSH1 0x40 MLOAD DUP1 SWAP2 SUB SWAP1 REVERT JUMPDEST PUSH2 0x2710 PUSH1 0x1 PUSH2 0xBF9 PUSH2 0xAD0 JUMP JUMPDEST PUSH2 0xC03 SWAP2 SWAP1 PUSH2 0x2C92 JUMP JUMPDEST GT ISZERO PUSH2 0xC44 JUMPI PUSH1 0x40 MLOAD PUSH32 0x8C379A000000000000000000000000000000000000000000000000000000000 DUP2 MSTORE PUSH1 0x4 ADD PUSH2 0xC3B SWAP1 PUSH2 0x2B88 JUMP JUMPDEST PUSH1 0x40 MLOAD DUP1 SWAP2 SUB SWAP1 REVERT JUMPDEST PUSH1 0x0 PUSH2 0xC4F DUP3 PUSH2 0x126A JUMP JUMPDEST SWAP1 POP DUP1 CALLVALUE LT ISZERO PUSH2 0xC94 JUMPI PUSH1 0x40 MLOAD PUSH32 0x8C379A000000000000000000000000000000000000000000000000000000000 DUP2 MSTORE PUSH1 0x4 ADD PUSH2 0xC8B SWAP1 PUSH2 0x2B28 JUMP JUMPDEST PUSH1 0x40 MLOAD DUP1 SWAP2 SUB SWAP1 REVERT JUMPDEST PUSH2 0xC9E CALLER DUP5 PUSH2 0x1905 JUMP JUMPDEST PUSH2 0xCA7 DUP4 PUSH2 0x1B00 JUMP JUMPDEST DUP1 CALLVALUE GT ISZERO PUSH2 0xD02 JUMPI CALLER PUSH20 0xFFFFFFFFFFFFFFFFFFFFFFFFFFFFFFFFFFFFFFFF AND PUSH2 0x8FC DUP3 CALLVALUE PUSH2 0xCD5 SWAP2 SWAP1 PUSH2 0x2D73 JUMP JUMPDEST SWAP1 DUP2 ISZERO MUL SWAP1 PUSH1 0x40 MLOAD PUSH1 0x0 PUSH1 0x40 MLOAD DUP1 DUP4 SUB DUP2 DUP6 DUP9 DUP9 CALL SWAP4 POP POP POP POP ISZERO DUP1 ISZERO PUSH2 0xD00 JUMPI RETURNDATASIZE PUSH1 0x0 DUP1 RETURNDATACOPY RETURNDATASIZE PUSH1 0x0 REVERT JUMPDEST POP JUMPDEST POP POP POP JUMP JUMPDEST PUSH2 0x2710 DUP2 JUMP JUMPDEST PUSH2 0xD15 PUSH2 0x1829 JUMP JUMPDEST DUP2 DUP2 PUSH1 0x8 SWAP2 SWAP1 PUSH2 0xD26 SWAP3 SWAP2 SWAP1 PUSH2 0x1F5C JUMP JUMPDEST POP POP POP JUMP JUMPDEST PUSH1 0x0 PUSH1 0x3 PUSH1 0x0 DUP4 DUP2 MSTORE PUSH1 0x20 ADD SWAP1 DUP2 MSTORE PUSH1 0x20 ADD PUSH1 0x0 KECCAK256 PUSH1 0x0 SWAP1 SLOAD SWAP1 PUSH2 0x100 EXP SWAP1 DIV PUSH20 0xFFFFFFFFFFFFFFFFFFFFFFFFFFFFFFFFFFFFFFFF AND SWAP1 POP PUSH1 0x0 PUSH20 0xFFFFFFFFFFFFFFFFFFFFFFFFFFFFFFFFFFFFFFFF AND DUP2 PUSH20 0xFFFFFFFFFFFFFFFFFFFFFFFFFFFFFFFFFFFFFFFF AND EQ ISZERO PUSH2 0xDD3 JUMPI PUSH1 0x40 MLOAD PUSH32 0x8C379A000000000000000000000000000000000000000000000000000000000 DUP2 MSTORE PUSH1 0x4 ADD PUSH2 0xDCA SWAP1 PUSH2 0x2AA8 JUMP JUMPDEST PUSH1 0x40 MLOAD DUP1 SWAP2 SUB SWAP1 REVERT JUMPDEST SWAP2 SWAP1 POP JUMP JUMPDEST PUSH1 0x0 DUP1 PUSH20 0xFFFFFFFFFFFFFFFFFFFFFFFFFFFFFFFFFFFFFFFF AND DUP3 PUSH20 0xFFFFFFFFFFFFFFFFFFFFFFFFFFFFFFFFFFFFFFFF AND EQ ISZERO PUSH2 0xE49 JUMPI PUSH1 0x40 MLOAD PUSH32 0x8C379A000000000000000000000000000000000000000000000000000000000 DUP2 MSTORE PUSH1 0x4 ADD PUSH2 0xE40 SWAP1 PUSH2 0x2B08 JUMP JUMPDEST PUSH1 0x40 MLOAD DUP1 SWAP2 SUB SWAP1 REVERT JUMPDEST PUSH1 0x4 PUSH1 0x0 DUP4 PUSH20 0xFFFFFFFFFFFFFFFFFFFFFFFFFFFFFFFFFFFFFFFF AND PUSH20 0xFFFFFFFFFFFFFFFFFFFFFFFFFFFFFFFFFFFFFFFF AND DUP2 MSTORE PUSH1 0x20 ADD SWAP1 DUP2 MSTORE PUSH1 0x20 ADD PUSH1 0x0 KECCAK256 SLOAD SWAP1 POP SWAP2 SWAP1 POP JUMP JUMPDEST PUSH2 0xE98 PUSH2 0x1829 JUMP JUMPDEST PUSH2 0xEA2 PUSH1 0x0 PUSH2 0x1B2C JUMP JUMPDEST JUMP JUMPDEST PUSH1 0x7 SLOAD DUP2 JUMP JUMPDEST PUSH1 0x0 DUP1 PUSH1 0x0 SWAP1 SLOAD SWAP1 PUSH2 0x100 EXP SWAP1 DIV PUSH20 0xFFFFFFFFFFFFFFFFFFFFFFFFFFFFFFFFFFFFFFFF AND SWAP1 POP SWAP1 JUMP JUMPDEST PUSH1 0x2 DUP1 SLOAD PUSH2 0xEE0 SWAP1 PUSH2 0x2E5D JUMP JUMPDEST DUP1 PUSH1 0x1F ADD PUSH1 0x20 DUP1 SWAP2 DIV MUL PUSH1 0x20 ADD PUSH1 0x40 MLOAD SWAP1 DUP2 ADD PUSH1 0x40 MSTORE DUP1 SWAP3 SWAP2 SWAP1 DUP2 DUP2 MSTORE PUSH1 0x20 ADD DUP3 DUP1 SLOAD PUSH2 0xF0C SWAP1 PUSH2 0x2E5D JUMP JUMPDEST DUP1 ISZERO PUSH2 0xF59 JUMPI DUP1 PUSH1 0x1F LT PUSH2 0xF2E JUMPI PUSH2 0x100 DUP1 DUP4 SLOAD DIV MUL DUP4 MSTORE SWAP2 PUSH1 0x20 ADD SWAP2 PUSH2 0xF59 JUMP JUMPDEST DUP3 ADD SWAP2 SWAP1 PUSH1 0x0 MSTORE PUSH1 0x20 PUSH1 0x0 KECCAK256 SWAP1 JUMPDEST DUP2 SLOAD DUP2 MSTORE SWAP1 PUSH1 0x1 ADD SWAP1 PUSH1 0x20 ADD DUP1 DUP4 GT PUSH2 0xF3C JUMPI DUP3 SWAP1 SUB PUSH1 0x1F AND DUP3 ADD SWAP2 JUMPDEST POP POP POP POP POP DUP2 JUMP JUMPDEST PUSH2 0xF69 PUSH2 0x1829 JUMP JUMPDEST PUSH1 0x0 CALLER PUSH20 0xFFFFFFFFFFFFFFFFFFFFFFFFFFFFFFFFFFFFFFFF AND SELFBALANCE PUSH1 0x40 MLOAD PUSH2 0xF8F SWAP1 PUSH2 0x28C1 JUMP JUMPDEST PUSH1 0x0 PUSH1 0x40 MLOAD DUP1 DUP4 SUB DUP2 DUP6 DUP8 GAS CALL SWAP3 POP POP POP RETURNDATASIZE DUP1 PUSH1 0x0 DUP2 EQ PUSH2 0xFCC JUMPI PUSH1 0x40 MLOAD SWAP2 POP PUSH1 0x1F NOT PUSH1 0x3F RETURNDATASIZE ADD AND DUP3 ADD PUSH1 0x40 MSTORE RETURNDATASIZE DUP3 MSTORE RETURNDATASIZE PUSH1 0x0 PUSH1 0x20 DUP5 ADD RETURNDATACOPY PUSH2 0xFD1 JUMP JUMPDEST PUSH1 0x60 SWAP2 POP JUMPDEST POP POP SWAP1 POP DUP1 PUSH2 0x1015 JUMPI PUSH1 0x40 MLOAD PUSH32 0x8C379A000000000000000000000000000000000000000000000000000000000 DUP2 MSTORE PUSH1 0x4 ADD PUSH2 0x100C SWAP1 PUSH2 0x2A68 JUMP JUMPDEST PUSH1 0x40 MLOAD DUP1 SWAP2 SUB SWAP1 REVERT JUMPDEST POP JUMP JUMPDEST PUSH1 0x0 PUSH2 0x1023 DUP4 PUSH2 0xD2B JUMP JUMPDEST SWAP1 POP PUSH2 0x1030 DUP2 CALLER DUP6 PUSH2 0x14CA JUMP JUMPDEST PUSH2 0x106F JUMPI PUSH1 0x40 MLOAD PUSH32 0x8C379A000000000000000000000000000000000000000000000000000000000 DUP2 MSTORE PUSH1 0x4 ADD PUSH2 0x1066 SWAP1 PUSH2 0x2A28 JUMP JUMPDEST PUSH1 0x40 MLOAD DUP1 SWAP2 SUB SWAP1 REVERT JUMPDEST PUSH2 0x107C DUP2 DUP7 DUP7 DUP7 DUP7 PUSH2 0x18A7 JUMP JUMPDEST POP POP POP POP POP JUMP JUMPDEST PUSH2 0x258 DUP2 JUMP JUMPDEST DUP1 PUSH1 0x6 PUSH1 0x0 CALLER PUSH20 0xFFFFFFFFFFFFFFFFFFFFFFFFFFFFFFFFFFFFFFFF AND PUSH20 0xFFFFFFFFFFFFFFFFFFFFFFFFFFFFFFFFFFFFFFFF AND DUP2 MSTORE PUSH1 0x20 ADD SWAP1 DUP2 MSTORE PUSH1 0x20 ADD PUSH1 0x0 KECCAK256 PUSH1 0x0 DUP5 PUSH20 0xFFFFFFFFFFFFFFFFFFFFFFFFFFFFFFFFFFFFFFFF AND PUSH20 0xFFFFFFFFFFFFFFFFFFFFFFFFFFFFFFFFFFFFFFFF AND DUP2 MSTORE PUSH1 0x20 ADD SWAP1 DUP2 MSTORE PUSH1 0x20 ADD PUSH1 0x0 KECCAK256 PUSH1 0x0 PUSH2 0x100 EXP DUP2 SLOAD DUP2 PUSH1 0xFF MUL NOT AND SWAP1 DUP4 ISZERO ISZERO MUL OR SWAP1 SSTORE POP PUSH32 0x6E58F42F8934DE1BF5B284476BA8126EE2D334C7AACF1AC87C6D4EBDB6FFB683 CALLER DUP4 DUP4 PUSH1 0x40 MLOAD PUSH2 0x1150 SWAP4 SWAP3 SWAP2 SWAP1 PUSH2 0x28F1 JUMP JUMPDEST PUSH1 0x40 MLOAD DUP1 SWAP2 SUB SWAP1 LOG1 POP POP JUMP JUMPDEST PUSH1 0x60 PUSH1 0x0 PUSH20 0xFFFFFFFFFFFFFFFFFFFFFFFFFFFFFFFFFFFFFFFF AND PUSH1 0x3 PUSH1 0x0 DUP5 DUP2 MSTORE PUSH1 0x20 ADD SWAP1 DUP2 MSTORE PUSH1 0x20 ADD PUSH1 0x0 KECCAK256 PUSH1 0x0 SWAP1 SLOAD SWAP1 PUSH2 0x100 EXP SWAP1 DIV PUSH20 0xFFFFFFFFFFFFFFFFFFFFFFFFFFFFFFFFFFFFFFFF AND PUSH20 0xFFFFFFFFFFFFFFFFFFFFFFFFFFFFFFFFFFFFFFFF AND EQ ISZERO PUSH2 0x1201 JUMPI PUSH1 0x40 MLOAD PUSH32 0x8C379A000000000000000000000000000000000000000000000000000000000 DUP2 MSTORE PUSH1 0x4 ADD PUSH2 0x11F8 SWAP1 PUSH2 0x2B48 JUMP JUMPDEST PUSH1 0x40 MLOAD DUP1 SWAP2 SUB SWAP1 REVERT JUMPDEST PUSH1 0x0 PUSH2 0x120B PUSH2 0x1BF0 JUMP JUMPDEST SWAP1 POP PUSH1 0x0 DUP2 MLOAD GT PUSH2 0x122B JUMPI PUSH1 0x40 MLOAD DUP1 PUSH1 0x20 ADD PUSH1 0x40 MSTORE DUP1 PUSH1 0x0 DUP2 MSTORE POP PUSH2 0x1256 JUMP JUMPDEST DUP1 PUSH2 0x1235 DUP5 PUSH2 0x1C82 JUMP JUMPDEST PUSH1 0x40 MLOAD PUSH1 0x20 ADD PUSH2 0x1246 SWAP3 SWAP2 SWAP1 PUSH2 0x289D JUMP JUMPDEST PUSH1 0x40 MLOAD PUSH1 0x20 DUP2 DUP4 SUB SUB DUP2 MSTORE SWAP1 PUSH1 0x40 MSTORE JUMPDEST SWAP2 POP POP SWAP2 SWAP1 POP JUMP JUMPDEST PUSH8 0x16345785D8A0000 DUP2 JUMP JUMPDEST PUSH1 0x0 DUP2 TIMESTAMP LT ISZERO PUSH2 0x1284 JUMPI PUSH8 0xDE0B6B3A7640000 SWAP1 POP PUSH2 0x131B JUMP JUMPDEST PUSH2 0x258 DUP3 PUSH2 0x1292 SWAP2 SWAP1 PUSH2 0x2C92 JUMP JUMPDEST TIMESTAMP LT PUSH2 0x12A8 JUMPI PUSH8 0x16345785D8A0000 SWAP1 POP PUSH2 0x131B JUMP JUMPDEST PUSH1 0x0 PUSH1 0x3C DUP4 TIMESTAMP PUSH2 0x12B8 SWAP2 SWAP1 PUSH2 0x2D73 JUMP JUMPDEST PUSH2 0x12C2 SWAP2 SWAP1 PUSH2 0x2CE8 JUMP JUMPDEST SWAP1 POP PUSH1 0x3C PUSH2 0x258 PUSH2 0x12D3 SWAP2 SWAP1 PUSH2 0x2CE8 JUMP JUMPDEST PUSH8 0x16345785D8A0000 PUSH8 0xDE0B6B3A7640000 PUSH2 0x12EF SWAP2 SWAP1 PUSH2 0x2D73 JUMP JUMPDEST PUSH2 0x12F9 SWAP2 SWAP1 PUSH2 0x2CE8 JUMP JUMPDEST DUP2 PUSH2 0x1304 SWAP2 SWAP1 PUSH2 0x2D19 JUMP JUMPDEST PUSH8 0xDE0B6B3A7640000 PUSH2 0x1317 SWAP2 SWAP1 PUSH2 0x2D73 JUMP JUMPDEST SWAP2 POP POP JUMPDEST SWAP2 SWAP1 POP JUMP JUMPDEST PUSH1 0x0 PUSH1 0x6 PUSH1 0x0 DUP5 PUSH20 0xFFFFFFFFFFFFFFFFFFFFFFFFFFFFFFFFFFFFFFFF AND PUSH20 0xFFFFFFFFFFFFFFFFFFFFFFFFFFFFFFFFFFFFFFFF AND DUP2 MSTORE PUSH1 0x20 ADD SWAP1 DUP2 MSTORE PUSH1 0x20 ADD PUSH1 0x0 KECCAK256 PUSH1 0x0 DUP4 PUSH20 0xFFFFFFFFFFFFFFFFFFFFFFFFFFFFFFFFFFFFFFFF AND PUSH20 0xFFFFFFFFFFFFFFFFFFFFFFFFFFFFFFFFFFFFFFFF AND DUP2 MSTORE PUSH1 0x20 ADD SWAP1 DUP2 MSTORE PUSH1 0x20 ADD PUSH1 0x0 KECCAK256 PUSH1 0x0 SWAP1 SLOAD SWAP1 PUSH2 0x100 EXP SWAP1 DIV PUSH1 0xFF AND SWAP1 POP SWAP3 SWAP2 POP POP JUMP JUMPDEST PUSH2 0x13BC PUSH2 0x1829 JUMP JUMPDEST PUSH1 0x0 PUSH20 0xFFFFFFFFFFFFFFFFFFFFFFFFFFFFFFFFFFFFFFFF AND DUP2 PUSH20 0xFFFFFFFFFFFFFFFFFFFFFFFFFFFFFFFFFFFFFFFF AND EQ ISZERO PUSH2 0x142C JUMPI PUSH1 0x40 MLOAD PUSH32 0x8C379A000000000000000000000000000000000000000000000000000000000 DUP2 MSTORE PUSH1 0x4 ADD PUSH2 0x1423 SWAP1 PUSH2 0x2A48 JUMP JUMPDEST PUSH1 0x40 MLOAD DUP1 SWAP2 SUB SWAP1 REVERT JUMPDEST PUSH2 0x1435 DUP2 PUSH2 0x1B2C JUMP JUMPDEST POP JUMP JUMPDEST DUP2 PUSH1 0x5 PUSH1 0x0 DUP4 DUP2 MSTORE PUSH1 0x20 ADD SWAP1 DUP2 MSTORE PUSH1 0x20 ADD PUSH1 0x0 KECCAK256 PUSH1 0x0 PUSH2 0x100 EXP DUP2 SLOAD DUP2 PUSH20 0xFFFFFFFFFFFFFFFFFFFFFFFFFFFFFFFFFFFFFFFF MUL NOT AND SWAP1 DUP4 PUSH20 0xFFFFFFFFFFFFFFFFFFFFFFFFFFFFFFFFFFFFFFFF AND MUL OR SWAP1 SSTORE POP PUSH32 0x6E11FB1B7F119E3F2FA29896EF5FDF8B8A2D0D4DF6FE90BA8668E7D8B2FFA25E DUP4 DUP4 DUP4 PUSH1 0x40 MLOAD PUSH2 0x14BD SWAP4 SWAP3 SWAP2 SWAP1 PUSH2 0x2928 JUMP JUMPDEST PUSH1 0x40 MLOAD DUP1 SWAP2 SUB SWAP1 LOG1 POP POP POP JUMP JUMPDEST PUSH1 0x0 DUP4 PUSH20 0xFFFFFFFFFFFFFFFFFFFFFFFFFFFFFFFFFFFFFFFF AND DUP4 PUSH20 0xFFFFFFFFFFFFFFFFFFFFFFFFFFFFFFFFFFFFFFFF AND EQ DUP1 PUSH2 0x1564 JUMPI POP DUP3 PUSH20 0xFFFFFFFFFFFFFFFFFFFFFFFFFFFFFFFFFFFFFFFF AND PUSH1 0x5 PUSH1 0x0 DUP5 DUP2 MSTORE PUSH1 0x20 ADD SWAP1 DUP2 MSTORE PUSH1 0x20 ADD PUSH1 0x0 KECCAK256 PUSH1 0x0 SWAP1 SLOAD SWAP1 PUSH2 0x100 EXP SWAP1 DIV PUSH20 0xFFFFFFFFFFFFFFFFFFFFFFFFFFFFFFFFFFFFFFFF AND PUSH20 0xFFFFFFFFFFFFFFFFFFFFFFFFFFFFFFFFFFFFFFFF AND EQ JUMPDEST DUP1 PUSH2 0x15F5 JUMPI POP PUSH1 0x6 PUSH1 0x0 DUP6 PUSH20 0xFFFFFFFFFFFFFFFFFFFFFFFFFFFFFFFFFFFFFFFF AND PUSH20 0xFFFFFFFFFFFFFFFFFFFFFFFFFFFFFFFFFFFFFFFF AND DUP2 MSTORE PUSH1 0x20 ADD SWAP1 DUP2 MSTORE PUSH1 0x20 ADD PUSH1 0x0 KECCAK256 PUSH1 0x0 DUP5 PUSH20 0xFFFFFFFFFFFFFFFFFFFFFFFFFFFFFFFFFFFFFFFF AND PUSH20 0xFFFFFFFFFFFFFFFFFFFFFFFFFFFFFFFFFFFFFFFF AND DUP2 MSTORE PUSH1 0x20 ADD SWAP1 DUP2 MSTORE PUSH1 0x20 ADD PUSH1 0x0 KECCAK256 PUSH1 0x0 SWAP1 SLOAD SWAP1 PUSH2 0x100 EXP SWAP1 DIV PUSH1 0xFF AND JUMPDEST SWAP1 POP SWAP4 SWAP3 POP POP POP JUMP JUMPDEST DUP4 PUSH20 0xFFFFFFFFFFFFFFFFFFFFFFFFFFFFFFFFFFFFFFFF AND DUP4 PUSH20 0xFFFFFFFFFFFFFFFFFFFFFFFFFFFFFFFFFFFFFFFF AND EQ PUSH2 0x166C JUMPI PUSH1 0x40 MLOAD PUSH32 0x8C379A000000000000000000000000000000000000000000000000000000000 DUP2 MSTORE PUSH1 0x4 ADD PUSH2 0x1663 SWAP1 PUSH2 0x2BA8 JUMP JUMPDEST PUSH1 0x40 MLOAD DUP1 SWAP2 SUB SWAP1 REVERT JUMPDEST PUSH1 0x0 PUSH20 0xFFFFFFFFFFFFFFFFFFFFFFFFFFFFFFFFFFFFFFFF AND DUP3 PUSH20 0xFFFFFFFFFFFFFFFFFFFFFFFFFFFFFFFFFFFFFFFF AND EQ ISZERO PUSH2 0x16DC JUMPI PUSH1 0x40 MLOAD PUSH32 0x8C379A000000000000000000000000000000000000000000000000000000000 DUP2 MSTORE PUSH1 0x4 ADD PUSH2 0x16D3 SWAP1 PUSH2 0x2A08 JUMP JUMPDEST PUSH1 0x40 MLOAD DUP1 SWAP2 SUB SWAP1 REVERT JUMPDEST PUSH2 0x16E8 DUP5 PUSH1 0x0 DUP4 PUSH2 0x1438 JUMP JUMPDEST PUSH1 0x1 PUSH1 0x4 PUSH1 0x0 DUP6 PUSH20 0xFFFFFFFFFFFFFFFFFFFFFFFFFFFFFFFFFFFFFFFF AND PUSH20 0xFFFFFFFFFFFFFFFFFFFFFFFFFFFFFFFFFFFFFFFF AND DUP2 MSTORE PUSH1 0x20 ADD SWAP1 DUP2 MSTORE PUSH1 0x20 ADD PUSH1 0x0 KECCAK256 PUSH1 0x0 DUP3 DUP3 SLOAD PUSH2 0x1738 SWAP2 SWAP1 PUSH2 0x2D73 JUMP JUMPDEST SWAP3 POP POP DUP2 SWAP1 SSTORE POP PUSH1 0x1 PUSH1 0x4 PUSH1 0x0 DUP5 PUSH20 0xFFFFFFFFFFFFFFFFFFFFFFFFFFFFFFFFFFFFFFFF AND PUSH20 0xFFFFFFFFFFFFFFFFFFFFFFFFFFFFFFFFFFFFFFFF AND DUP2 MSTORE PUSH1 0x20 ADD SWAP1 DUP2 MSTORE PUSH1 0x20 ADD PUSH1 0x0 KECCAK256 PUSH1 0x0 DUP3 DUP3 SLOAD PUSH2 0x178F SWAP2 SWAP1 PUSH2 0x2C92 JUMP JUMPDEST SWAP3 POP POP DUP2 SWAP1 SSTORE POP DUP2 PUSH1 0x3 PUSH1 0x0 DUP4 DUP2 MSTORE PUSH1 0x20 ADD SWAP1 DUP2 MSTORE PUSH1 0x20 ADD PUSH1 0x0 KECCAK256 PUSH1 0x0 PUSH2 0x100 EXP DUP2 SLOAD DUP2 PUSH20 0xFFFFFFFFFFFFFFFFFFFFFFFFFFFFFFFFFFFFFFFF MUL NOT AND SWAP1 DUP4 PUSH20 0xFFFFFFFFFFFFFFFFFFFFFFFFFFFFFFFFFFFFFFFF AND MUL OR SWAP1 SSTORE POP PUSH32 0xDDF252AD1BE2C89B69C2B068FC378DAA952BA7F163C4A11628F55A4DF523B3EF DUP4 DUP4 DUP4 PUSH1 0x40 MLOAD PUSH2 0x181B SWAP4 SWAP3 SWAP2 SWAP1 PUSH2 0x2928 JUMP JUMPDEST PUSH1 0x40 MLOAD DUP1 SWAP2 SUB SWAP1 LOG1 POP POP POP POP JUMP JUMPDEST PUSH2 0x1831 PUSH2 0x1E2F JUMP JUMPDEST PUSH20 0xFFFFFFFFFFFFFFFFFFFFFFFFFFFFFFFFFFFFFFFF AND PUSH2 0x184F PUSH2 0xEAA JUMP JUMPDEST PUSH20 0xFFFFFFFFFFFFFFFFFFFFFFFFFFFFFFFFFFFFFFFF AND EQ PUSH2 0x18A5 JUMPI PUSH1 0x40 MLOAD PUSH32 0x8C379A000000000000000000000000000000000000000000000000000000000 DUP2 MSTORE PUSH1 0x4 ADD PUSH2 0x189C SWAP1 PUSH2 0x2AC8 JUMP JUMPDEST PUSH1 0x40 MLOAD DUP1 SWAP2 SUB SWAP1 REVERT JUMPDEST JUMP JUMPDEST PUSH2 0x18B3 DUP6 DUP6 DUP6 DUP6 PUSH2 0x15FE JUMP JUMPDEST PUSH2 0x18BF DUP5 DUP5 DUP5 DUP5 PUSH2 0x1E37 JUMP JUMPDEST PUSH2 0x18FE JUMPI PUSH1 0x40 MLOAD PUSH32 0x8C379A000000000000000000000000000000000000000000000000000000000 DUP2 MSTORE PUSH1 0x4 ADD PUSH2 0x18F5 SWAP1 PUSH2 0x2B68 JUMP JUMPDEST PUSH1 0x40 MLOAD DUP1 SWAP2 SUB SWAP1 REVERT JUMPDEST POP POP POP POP POP JUMP JUMPDEST PUSH1 0x0 PUSH20 0xFFFFFFFFFFFFFFFFFFFFFFFFFFFFFFFFFFFFFFFF AND DUP3 PUSH20 0xFFFFFFFFFFFFFFFFFFFFFFFFFFFFFFFFFFFFFFFF AND EQ ISZERO PUSH2 0x1975 JUMPI PUSH1 0x40 MLOAD PUSH32 0x8C379A000000000000000000000000000000000000000000000000000000000 DUP2 MSTORE PUSH1 0x4 ADD PUSH2 0x196C SWAP1 PUSH2 0x2A08 JUMP JUMPDEST PUSH1 0x40 MLOAD DUP1 SWAP2 SUB SWAP1 REVERT JUMPDEST PUSH1 0x0 PUSH20 0xFFFFFFFFFFFFFFFFFFFFFFFFFFFFFFFFFFFFFFFF AND PUSH1 0x3 PUSH1 0x0 DUP4 DUP2 MSTORE PUSH1 0x20 ADD SWAP1 DUP2 MSTORE PUSH1 0x20 ADD PUSH1 0x0 KECCAK256 PUSH1 0x0 SWAP1 SLOAD SWAP1 PUSH2 0x100 EXP SWAP1 DIV PUSH20 0xFFFFFFFFFFFFFFFFFFFFFFFFFFFFFFFFFFFFFFFF AND PUSH20 0xFFFFFFFFFFFFFFFFFFFFFFFFFFFFFFFFFFFFFFFF AND EQ PUSH2 0x1A17 JUMPI PUSH1 0x40 MLOAD PUSH32 0x8C379A000000000000000000000000000000000000000000000000000000000 DUP2 MSTORE PUSH1 0x4 ADD PUSH2 0x1A0E SWAP1 PUSH2 0x2AE8 JUMP JUMPDEST PUSH1 0x40 MLOAD DUP1 SWAP2 SUB SWAP1 REVERT JUMPDEST PUSH1 0x1 PUSH1 0x4 PUSH1 0x0 DUP5 PUSH20 0xFFFFFFFFFFFFFFFFFFFFFFFFFFFFFFFFFFFFFFFF AND PUSH20 0xFFFFFFFFFFFFFFFFFFFFFFFFFFFFFFFFFFFFFFFF AND DUP2 MSTORE PUSH1 0x20 ADD SWAP1 DUP2 MSTORE PUSH1 0x20 ADD PUSH1 0x0 KECCAK256 PUSH1 0x0 DUP3 DUP3 SLOAD PUSH2 0x1A67 SWAP2 SWAP1 PUSH2 0x2C92 JUMP JUMPDEST SWAP3 POP POP DUP2 SWAP1 SSTORE POP DUP2 PUSH1 0x3 PUSH1 0x0 DUP4 DUP2 MSTORE PUSH1 0x20 ADD SWAP1 DUP2 MSTORE PUSH1 0x20 ADD PUSH1 0x0 KECCAK256 PUSH1 0x0 PUSH2 0x100 EXP DUP2 SLOAD DUP2 PUSH20 0xFFFFFFFFFFFFFFFFFFFFFFFFFFFFFFFFFFFFFFFF MUL NOT AND SWAP1 DUP4 PUSH20 0xFFFFFFFFFFFFFFFFFFFFFFFFFFFFFFFFFFFFFFFF AND MUL OR SWAP1 SSTORE POP PUSH32 0xDDF252AD1BE2C89B69C2B068FC378DAA952BA7F163C4A11628F55A4DF523B3EF PUSH1 0x0 DUP4 DUP4 PUSH1 0x40 MLOAD PUSH2 0x1AF4 SWAP4 SWAP3 SWAP2 SWAP1 PUSH2 0x2928 JUMP JUMPDEST PUSH1 0x40 MLOAD DUP1 SWAP2 SUB SWAP1 LOG1 POP POP JUMP JUMPDEST PUSH1 0x9 DUP2 SWAP1 DUP1 PUSH1 0x1 DUP2 SLOAD ADD DUP1 DUP3 SSTORE DUP1 SWAP2 POP POP PUSH1 0x1 SWAP1 SUB SWAP1 PUSH1 0x0 MSTORE PUSH1 0x20 PUSH1 0x0 KECCAK256 ADD PUSH1 0x0 SWAP1 SWAP2 SWAP1 SWAP2 SWAP1 SWAP2 POP SSTORE POP JUMP JUMPDEST PUSH1 0x0 DUP1 PUSH1 0x0 SWAP1 SLOAD SWAP1 PUSH2 0x100 EXP SWAP1 DIV PUSH20 0xFFFFFFFFFFFFFFFFFFFFFFFFFFFFFFFFFFFFFFFF AND SWAP1 POP DUP2 PUSH1 0x0 DUP1 PUSH2 0x100 EXP DUP2 SLOAD DUP2 PUSH20 0xFFFFFFFFFFFFFFFFFFFFFFFFFFFFFFFFFFFFFFFF MUL NOT AND SWAP1 DUP4 PUSH20 0xFFFFFFFFFFFFFFFFFFFFFFFFFFFFFFFFFFFFFFFF AND MUL OR SWAP1 SSTORE POP DUP2 PUSH20 0xFFFFFFFFFFFFFFFFFFFFFFFFFFFFFFFFFFFFFFFF AND DUP2 PUSH20 0xFFFFFFFFFFFFFFFFFFFFFFFFFFFFFFFFFFFFFFFF AND PUSH32 0x8BE0079C531659141344CD1FD0A4F28419497F9722A3DAAFE3B4186F6B6457E0 PUSH1 0x40 MLOAD PUSH1 0x40 MLOAD DUP1 SWAP2 SUB SWAP1 LOG3 POP POP JUMP JUMPDEST PUSH1 0x60 PUSH1 0x8 DUP1 SLOAD PUSH2 0x1BFF SWAP1 PUSH2 0x2E5D JUMP JUMPDEST DUP1 PUSH1 0x1F ADD PUSH1 0x20 DUP1 SWAP2 DIV MUL PUSH1 0x20 ADD PUSH1 0x40 MLOAD SWAP1 DUP2 ADD PUSH1 0x40 MSTORE DUP1 SWAP3 SWAP2 SWAP1 DUP2 DUP2 MSTORE PUSH1 0x20 ADD DUP3 DUP1 SLOAD PUSH2 0x1C2B SWAP1 PUSH2 0x2E5D JUMP JUMPDEST DUP1 ISZERO PUSH2 0x1C78 JUMPI DUP1 PUSH1 0x1F LT PUSH2 0x1C4D JUMPI PUSH2 0x100 DUP1 DUP4 SLOAD DIV MUL DUP4 MSTORE SWAP2 PUSH1 0x20 ADD SWAP2 PUSH2 0x1C78 JUMP JUMPDEST DUP3 ADD SWAP2 SWAP1 PUSH1 0x0 MSTORE PUSH1 0x20 PUSH1 0x0 KECCAK256 SWAP1 JUMPDEST DUP2 SLOAD DUP2 MSTORE SWAP1 PUSH1 0x1 ADD SWAP1 PUSH1 0x20 ADD DUP1 DUP4 GT PUSH2 0x1C5B JUMPI DUP3 SWAP1 SUB PUSH1 0x1F AND DUP3 ADD SWAP2 JUMPDEST POP POP POP POP POP SWAP1 POP SWAP1 JUMP JUMPDEST PUSH1 0x60 PUSH1 0x0 DUP3 EQ ISZERO PUSH2 0x1CCA JUMPI PUSH1 0x40 MLOAD DUP1 PUSH1 0x40 ADD PUSH1 0x40 MSTORE DUP1 PUSH1 0x1 DUP2 MSTORE PUSH1 0x20 ADD PUSH32 0x3000000000000000000000000000000000000000000000000000000000000000 DUP2 MSTORE POP SWAP1 POP PUSH2 0x1E2A JUMP JUMPDEST PUSH1 0x0 DUP3 SWAP1 POP PUSH1 0x0 JUMPDEST PUSH1 0x0 DUP3 EQ PUSH2 0x1CFC JUMPI DUP1 DUP1 PUSH2 0x1CE5 SWAP1 PUSH2 0x2E8F JUMP JUMPDEST SWAP2 POP POP PUSH1 0xA DUP3 PUSH2 0x1CF5 SWAP2 SWAP1 PUSH2 0x2CE8 JUMP JUMPDEST SWAP2 POP PUSH2 0x1CD2 JUMP JUMPDEST PUSH1 0x0 DUP2 PUSH8 0xFFFFFFFFFFFFFFFF DUP2 GT ISZERO PUSH2 0x1D3E JUMPI PUSH32 0x4E487B7100000000000000000000000000000000000000000000000000000000 PUSH1 0x0 MSTORE PUSH1 0x41 PUSH1 0x4 MSTORE PUSH1 0x24 PUSH1 0x0 REVERT JUMPDEST PUSH1 0x40 MLOAD SWAP1 DUP1 DUP3 MSTORE DUP1 PUSH1 0x1F ADD PUSH1 0x1F NOT AND PUSH1 0x20 ADD DUP3 ADD PUSH1 0x40 MSTORE DUP1 ISZERO PUSH2 0x1D70 JUMPI DUP2 PUSH1 0x20 ADD PUSH1 0x1 DUP3 MUL DUP1 CALLDATASIZE DUP4 CALLDATACOPY DUP1 DUP3 ADD SWAP2 POP POP SWAP1 POP JUMPDEST POP SWAP1 POP JUMPDEST PUSH1 0x0 DUP6 EQ PUSH2 0x1E23 JUMPI PUSH1 0x1 DUP3 PUSH2 0x1D89 SWAP2 SWAP1 PUSH2 0x2D73 JUMP JUMPDEST SWAP2 POP PUSH1 0xA DUP6 PUSH2 0x1D98 SWAP2 SWAP1 PUSH2 0x2ED8 JUMP JUMPDEST PUSH1 0x30 PUSH2 0x1DA4 SWAP2 SWAP1 PUSH2 0x2C92 JUMP JUMPDEST PUSH1 0xF8 SHL DUP2 DUP4 DUP2 MLOAD DUP2 LT PUSH2 0x1DE0 JUMPI PUSH32 0x4E487B7100000000000000000000000000000000000000000000000000000000 PUSH1 0x0 MSTORE PUSH1 0x32 PUSH1 0x4 MSTORE PUSH1 0x24 PUSH1 0x0 REVERT JUMPDEST PUSH1 0x20 ADD ADD SWAP1 PUSH31 0xFFFFFFFFFFFFFFFFFFFFFFFFFFFFFFFFFFFFFFFFFFFFFFFFFFFFFFFFFFFFFF NOT AND SWAP1 DUP2 PUSH1 0x0 BYTE SWAP1 MSTORE8 POP PUSH1 0xA DUP6 PUSH2 0x1E1C SWAP2 SWAP1 PUSH2 0x2CE8 JUMP JUMPDEST SWAP5 POP PUSH2 0x1D74 JUMP JUMPDEST DUP1 SWAP4 POP POP POP POP JUMPDEST SWAP2 SWAP1 POP JUMP JUMPDEST PUSH1 0x0 CALLER SWAP1 POP SWAP1 JUMP JUMPDEST PUSH1 0x0 PUSH2 0x1E58 DUP5 PUSH20 0xFFFFFFFFFFFFFFFFFFFFFFFFFFFFFFFFFFFFFFFF AND PUSH2 0x1F49 JUMP JUMPDEST ISZERO PUSH2 0x1F3C JUMPI PUSH4 0x150B7A02 PUSH1 0xE0 SHL PUSH28 0xFFFFFFFFFFFFFFFFFFFFFFFFFFFFFFFFFFFFFFFFFFFFFFFFFFFFFFFF NOT AND DUP5 PUSH20 0xFFFFFFFFFFFFFFFFFFFFFFFFFFFFFFFFFFFFFFFF AND PUSH4 0x150B7A02 CALLER DUP9 DUP8 DUP8 PUSH1 0x40 MLOAD DUP6 PUSH4 0xFFFFFFFF AND PUSH1 0xE0 SHL DUP2 MSTORE PUSH1 0x4 ADD PUSH2 0x1EC3 SWAP5 SWAP4 SWAP3 SWAP2 SWAP1 PUSH2 0x295F JUMP JUMPDEST PUSH1 0x20 PUSH1 0x40 MLOAD DUP1 DUP4 SUB DUP2 PUSH1 0x0 DUP8 DUP1 EXTCODESIZE ISZERO DUP1 ISZERO PUSH2 0x1EDD JUMPI PUSH1 0x0 DUP1 REVERT JUMPDEST POP GAS CALL ISZERO DUP1 ISZERO PUSH2 0x1EF1 JUMPI RETURNDATASIZE PUSH1 0x0 DUP1 RETURNDATACOPY RETURNDATASIZE PUSH1 0x0 REVERT JUMPDEST POP POP POP POP PUSH1 0x40 MLOAD RETURNDATASIZE PUSH1 0x1F NOT PUSH1 0x1F DUP3 ADD AND DUP3 ADD DUP1 PUSH1 0x40 MSTORE POP DUP2 ADD SWAP1 PUSH2 0x1F15 SWAP2 SWAP1 PUSH2 0x22EA JUMP JUMPDEST PUSH28 0xFFFFFFFFFFFFFFFFFFFFFFFFFFFFFFFFFFFFFFFFFFFFFFFFFFFFFFFF NOT AND EQ SWAP1 POP PUSH2 0x1F41 JUMP JUMPDEST PUSH1 0x1 SWAP1 POP JUMPDEST SWAP5 SWAP4 POP POP POP POP JUMP JUMPDEST PUSH1 0x0 DUP1 DUP3 EXTCODESIZE SWAP1 POP PUSH1 0x0 DUP2 GT SWAP2 POP POP SWAP2 SWAP1 POP JUMP JUMPDEST DUP3 DUP1 SLOAD PUSH2 0x1F68 SWAP1 PUSH2 0x2E5D JUMP JUMPDEST SWAP1 PUSH1 0x0 MSTORE PUSH1 0x20 PUSH1 0x0 KECCAK256 SWAP1 PUSH1 0x1F ADD PUSH1 0x20 SWAP1 DIV DUP2 ADD SWAP3 DUP3 PUSH2 0x1F8A JUMPI PUSH1 0x0 DUP6 SSTORE PUSH2 0x1FD1 JUMP JUMPDEST DUP3 PUSH1 0x1F LT PUSH2 0x1FA3 JUMPI DUP1 CALLDATALOAD PUSH1 0xFF NOT AND DUP4 DUP1 ADD OR DUP6 SSTORE PUSH2 0x1FD1 JUMP JUMPDEST DUP3 DUP1 ADD PUSH1 0x1 ADD DUP6 SSTORE DUP3 ISZERO PUSH2 0x1FD1 JUMPI SWAP2 DUP3 ADD JUMPDEST DUP3 DUP2 GT ISZERO PUSH2 0x1FD0 JUMPI DUP3 CALLDATALOAD DUP3 SSTORE SWAP2 PUSH1 0x20 ADD SWAP2 SWAP1 PUSH1 0x1 ADD SWAP1 PUSH2 0x1FB5 JUMP JUMPDEST JUMPDEST POP SWAP1 POP PUSH2 0x1FDE SWAP2 SWAP1 PUSH2 0x1FE2 JUMP JUMPDEST POP SWAP1 JUMP JUMPDEST JUMPDEST DUP1 DUP3 GT ISZERO PUSH2 0x1FFB JUMPI PUSH1 0x0 DUP2 PUSH1 0x0 SWAP1 SSTORE POP PUSH1 0x1 ADD PUSH2 0x1FE3 JUMP JUMPDEST POP SWAP1 JUMP JUMPDEST PUSH1 0x0 PUSH2 0x2012 PUSH2 0x200D DUP5 PUSH2 0x2C14 JUMP JUMPDEST PUSH2 0x2BE3 JUMP JUMPDEST SWAP1 POP DUP3 DUP2 MSTORE PUSH1 0x20 DUP2 ADD DUP5 DUP5 DUP5 ADD GT ISZERO PUSH2 0x202A JUMPI PUSH1 0x0 DUP1 REVERT JUMPDEST PUSH2 0x2035 DUP5 DUP3 DUP6 PUSH2 0x2E1B JUMP JUMPDEST POP SWAP4 SWAP3 POP POP POP JUMP JUMPDEST PUSH1 0x0 DUP2 CALLDATALOAD SWAP1 POP PUSH2 0x204C DUP2 PUSH2 0x2FD6 JUMP JUMPDEST SWAP3 SWAP2 POP POP JUMP JUMPDEST PUSH1 0x0 DUP2 CALLDATALOAD SWAP1 POP PUSH2 0x2061 DUP2 PUSH2 0x2FED JUMP JUMPDEST SWAP3 SWAP2 POP POP JUMP JUMPDEST PUSH1 0x0 DUP2 CALLDATALOAD SWAP1 POP PUSH2 0x2076 DUP2 PUSH2 0x3004 JUMP JUMPDEST SWAP3 SWAP2 POP POP JUMP JUMPDEST PUSH1 0x0 DUP2 MLOAD SWAP1 POP PUSH2 0x208B DUP2 PUSH2 0x3004 JUMP JUMPDEST SWAP3 SWAP2 POP POP JUMP JUMPDEST PUSH1 0x0 DUP3 PUSH1 0x1F DUP4 ADD SLT PUSH2 0x20A2 JUMPI PUSH1 0x0 DUP1 REVERT JUMPDEST DUP2 CALLDATALOAD PUSH2 0x20B2 DUP5 DUP3 PUSH1 0x20 DUP7 ADD PUSH2 0x1FFF JUMP JUMPDEST SWAP2 POP POP SWAP3 SWAP2 POP POP JUMP JUMPDEST PUSH1 0x0 DUP1 DUP4 PUSH1 0x1F DUP5 ADD SLT PUSH2 0x20CD JUMPI PUSH1 0x0 DUP1 REVERT JUMPDEST DUP3 CALLDATALOAD SWAP1 POP PUSH8 0xFFFFFFFFFFFFFFFF DUP2 GT ISZERO PUSH2 0x20E6 JUMPI PUSH1 0x0 DUP1 REVERT JUMPDEST PUSH1 0x20 DUP4 ADD SWAP2 POP DUP4 PUSH1 0x1 DUP3 MUL DUP4 ADD GT ISZERO PUSH2 0x20FE JUMPI PUSH1 0x0 DUP1 REVERT JUMPDEST SWAP3 POP SWAP3 SWAP1 POP JUMP JUMPDEST PUSH1 0x0 DUP2 CALLDATALOAD SWAP1 POP PUSH2 0x2114 DUP2 PUSH2 0x301B JUMP JUMPDEST SWAP3 SWAP2 POP POP JUMP JUMPDEST PUSH1 0x0 PUSH1 0x20 DUP3 DUP5 SUB SLT ISZERO PUSH2 0x212C JUMPI PUSH1 0x0 DUP1 REVERT JUMPDEST PUSH1 0x0 PUSH2 0x213A DUP5 DUP3 DUP6 ADD PUSH2 0x203D JUMP JUMPDEST SWAP2 POP POP SWAP3 SWAP2 POP POP JUMP JUMPDEST PUSH1 0x0 DUP1 PUSH1 0x40 DUP4 DUP6 SUB SLT ISZERO PUSH2 0x2156 JUMPI PUSH1 0x0 DUP1 REVERT JUMPDEST PUSH1 0x0 PUSH2 0x2164 DUP6 DUP3 DUP7 ADD PUSH2 0x203D JUMP JUMPDEST SWAP3 POP POP PUSH1 0x20 PUSH2 0x2175 DUP6 DUP3 DUP7 ADD PUSH2 0x203D JUMP JUMPDEST SWAP2 POP POP SWAP3 POP SWAP3 SWAP1 POP JUMP JUMPDEST PUSH1 0x0 DUP1 PUSH1 0x0 PUSH1 0x60 DUP5 DUP7 SUB SLT ISZERO PUSH2 0x2194 JUMPI PUSH1 0x0 DUP1 REVERT JUMPDEST PUSH1 0x0 PUSH2 0x21A2 DUP7 DUP3 DUP8 ADD PUSH2 0x203D JUMP JUMPDEST SWAP4 POP POP PUSH1 0x20 PUSH2 0x21B3 DUP7 DUP3 DUP8 ADD PUSH2 0x203D JUMP JUMPDEST SWAP3 POP POP PUSH1 0x40 PUSH2 0x21C4 DUP7 DUP3 DUP8 ADD PUSH2 0x2105 JUMP JUMPDEST SWAP2 POP POP SWAP3 POP SWAP3 POP SWAP3 JUMP JUMPDEST PUSH1 0x0 DUP1 PUSH1 0x0 DUP1 PUSH1 0x80 DUP6 DUP8 SUB SLT ISZERO PUSH2 0x21E4 JUMPI PUSH1 0x0 DUP1 REVERT JUMPDEST PUSH1 0x0 PUSH2 0x21F2 DUP8 DUP3 DUP9 ADD PUSH2 0x203D JUMP JUMPDEST SWAP5 POP POP PUSH1 0x20 PUSH2 0x2203 DUP8 DUP3 DUP9 ADD PUSH2 0x203D JUMP JUMPDEST SWAP4 POP POP PUSH1 0x40 PUSH2 0x2214 DUP8 DUP3 DUP9 ADD PUSH2 0x2105 JUMP JUMPDEST SWAP3 POP POP PUSH1 0x60 DUP6 ADD CALLDATALOAD PUSH8 0xFFFFFFFFFFFFFFFF DUP2 GT ISZERO PUSH2 0x2231 JUMPI PUSH1 0x0 DUP1 REVERT JUMPDEST PUSH2 0x223D DUP8 DUP3 DUP9 ADD PUSH2 0x2091 JUMP JUMPDEST SWAP2 POP POP SWAP3 SWAP6 SWAP2 SWAP5 POP SWAP3 POP JUMP JUMPDEST PUSH1 0x0 DUP1 PUSH1 0x40 DUP4 DUP6 SUB SLT ISZERO PUSH2 0x225C JUMPI PUSH1 0x0 DUP1 REVERT JUMPDEST PUSH1 0x0 PUSH2 0x226A DUP6 DUP3 DUP7 ADD PUSH2 0x203D JUMP JUMPDEST SWAP3 POP POP PUSH1 0x20 PUSH2 0x227B DUP6 DUP3 DUP7 ADD PUSH2 0x2052 JUMP JUMPDEST SWAP2 POP POP SWAP3 POP SWAP3 SWAP1 POP JUMP JUMPDEST PUSH1 0x0 DUP1 PUSH1 0x40 DUP4 DUP6 SUB SLT ISZERO PUSH2 0x2298 JUMPI PUSH1 0x0 DUP1 REVERT JUMPDEST PUSH1 0x0 PUSH2 0x22A6 DUP6 DUP3 DUP7 ADD PUSH2 0x203D JUMP JUMPDEST SWAP3 POP POP PUSH1 0x20 PUSH2 0x22B7 DUP6 DUP3 DUP7 ADD PUSH2 0x2105 JUMP JUMPDEST SWAP2 POP POP SWAP3 POP SWAP3 SWAP1 POP JUMP JUMPDEST PUSH1 0x0 PUSH1 0x20 DUP3 DUP5 SUB SLT ISZERO PUSH2 0x22D3 JUMPI PUSH1 0x0 DUP1 REVERT JUMPDEST PUSH1 0x0 PUSH2 0x22E1 DUP5 DUP3 DUP6 ADD PUSH2 0x2067 JUMP JUMPDEST SWAP2 POP POP SWAP3 SWAP2 POP POP JUMP JUMPDEST PUSH1 0x0 PUSH1 0x20 DUP3 DUP5 SUB SLT ISZERO PUSH2 0x22FC JUMPI PUSH1 0x0 DUP1 REVERT JUMPDEST PUSH1 0x0 PUSH2 0x230A DUP5 DUP3 DUP6 ADD PUSH2 0x207C JUMP JUMPDEST SWAP2 POP POP SWAP3 SWAP2 POP POP JUMP JUMPDEST PUSH1 0x0 DUP1 PUSH1 0x20 DUP4 DUP6 SUB SLT ISZERO PUSH2 0x2326 JUMPI PUSH1 0x0 DUP1 REVERT JUMPDEST PUSH1 0x0 DUP4 ADD CALLDATALOAD PUSH8 0xFFFFFFFFFFFFFFFF DUP2 GT ISZERO PUSH2 0x2340 JUMPI PUSH1 0x0 DUP1 REVERT JUMPDEST PUSH2 0x234C DUP6 DUP3 DUP7 ADD PUSH2 0x20BB JUMP JUMPDEST SWAP3 POP SWAP3 POP POP SWAP3 POP SWAP3 SWAP1 POP JUMP JUMPDEST PUSH1 0x0 PUSH1 0x20 DUP3 DUP5 SUB SLT ISZERO PUSH2 0x236A JUMPI PUSH1 0x0 DUP1 REVERT JUMPDEST PUSH1 0x0 PUSH2 0x2378 DUP5 DUP3 DUP6 ADD PUSH2 0x2105 JUMP JUMPDEST SWAP2 POP POP SWAP3 SWAP2 POP POP JUMP JUMPDEST PUSH2 0x238A DUP2 PUSH2 0x2DA7 JUMP JUMPDEST DUP3 MSTORE POP POP JUMP JUMPDEST PUSH2 0x2399 DUP2 PUSH2 0x2DB9 JUMP JUMPDEST DUP3 MSTORE POP POP JUMP JUMPDEST PUSH1 0x0 PUSH2 0x23AA DUP3 PUSH2 0x2C44 JUMP JUMPDEST PUSH2 0x23B4 DUP2 DUP6 PUSH2 0x2C5A JUMP JUMPDEST SWAP4 POP PUSH2 0x23C4 DUP2 DUP6 PUSH1 0x20 DUP7 ADD PUSH2 0x2E2A JUMP JUMPDEST PUSH2 0x23CD DUP2 PUSH2 0x2FC5 JUMP JUMPDEST DUP5 ADD SWAP2 POP POP SWAP3 SWAP2 POP POP JUMP JUMPDEST PUSH1 0x0 PUSH2 0x23E3 DUP3 PUSH2 0x2C4F JUMP JUMPDEST PUSH2 0x23ED DUP2 DUP6 PUSH2 0x2C76 JUMP JUMPDEST SWAP4 POP PUSH2 0x23FD DUP2 DUP6 PUSH1 0x20 DUP7 ADD PUSH2 0x2E2A JUMP JUMPDEST PUSH2 0x2406 DUP2 PUSH2 0x2FC5 JUMP JUMPDEST DUP5 ADD SWAP2 POP POP SWAP3 SWAP2 POP POP JUMP JUMPDEST PUSH1 0x0 PUSH2 0x241C DUP3 PUSH2 0x2C4F JUMP JUMPDEST PUSH2 0x2426 DUP2 DUP6 PUSH2 0x2C87 JUMP JUMPDEST SWAP4 POP PUSH2 0x2436 DUP2 DUP6 PUSH1 0x20 DUP7 ADD PUSH2 0x2E2A JUMP JUMPDEST DUP1 DUP5 ADD SWAP2 POP POP SWAP3 SWAP2 POP POP JUMP JUMPDEST PUSH1 0x0 PUSH2 0x244F PUSH1 0x1D DUP4 PUSH2 0x2C76 JUMP JUMPDEST SWAP2 POP PUSH32 0x6E6F74206F776E6572206F7220617070726F76656420666F7220616C6C000000 PUSH1 0x0 DUP4 ADD MSTORE PUSH1 0x20 DUP3 ADD SWAP1 POP SWAP2 SWAP1 POP JUMP JUMPDEST PUSH1 0x0 PUSH2 0x248F PUSH1 0xF DUP4 PUSH2 0x2C76 JUMP JUMPDEST SWAP2 POP PUSH32 0x746F206973203020616464726573730000000000000000000000000000000000 PUSH1 0x0 DUP4 ADD MSTORE PUSH1 0x20 DUP3 ADD SWAP1 POP SWAP2 SWAP1 POP JUMP JUMPDEST PUSH1 0x0 PUSH2 0x24CF PUSH1 0x16 DUP4 PUSH2 0x2C76 JUMP JUMPDEST SWAP2 POP PUSH32 0x6E6F74206F776E6572206E6F7220617070726F76656400000000000000000000 PUSH1 0x0 DUP4 ADD MSTORE PUSH1 0x20 DUP3 ADD SWAP1 POP SWAP2 SWAP1 POP JUMP JUMPDEST PUSH1 0x0 PUSH2 0x250F PUSH1 0x26 DUP4 PUSH2 0x2C76 JUMP JUMPDEST SWAP2 POP PUSH32 0x4F776E61626C653A206E6577206F776E657220697320746865207A65726F2061 PUSH1 0x0 DUP4 ADD MSTORE PUSH32 0x6464726573730000000000000000000000000000000000000000000000000000 PUSH1 0x20 DUP4 ADD MSTORE PUSH1 0x40 DUP3 ADD SWAP1 POP SWAP2 SWAP1 POP JUMP JUMPDEST PUSH1 0x0 PUSH2 0x2575 PUSH1 0xF DUP4 PUSH2 0x2C76 JUMP JUMPDEST SWAP2 POP PUSH32 0x5472616E73666572206661696C65640000000000000000000000000000000000 PUSH1 0x0 DUP4 ADD MSTORE PUSH1 0x20 DUP3 ADD SWAP1 POP SWAP2 SWAP1 POP JUMP JUMPDEST PUSH1 0x0 PUSH2 0x25B5 PUSH1 0x18 DUP4 PUSH2 0x2C76 JUMP JUMPDEST SWAP2 POP PUSH32 0x73616C6520686173206E6F742073746172746564207965740000000000000000 PUSH1 0x0 DUP4 ADD MSTORE PUSH1 0x20 DUP3 ADD SWAP1 POP SWAP2 SWAP1 POP JUMP JUMPDEST PUSH1 0x0 PUSH2 0x25F5 PUSH1 0x13 DUP4 PUSH2 0x2C76 JUMP JUMPDEST SWAP2 POP PUSH32 0x746F6B656E20646F65736E277420657869737400000000000000000000000000 PUSH1 0x0 DUP4 ADD MSTORE PUSH1 0x20 DUP3 ADD SWAP1 POP SWAP2 SWAP1 POP JUMP JUMPDEST PUSH1 0x0 PUSH2 0x2635 PUSH1 0x20 DUP4 PUSH2 0x2C76 JUMP JUMPDEST SWAP2 POP PUSH32 0x4F776E61626C653A2063616C6C6572206973206E6F7420746865206F776E6572 PUSH1 0x0 DUP4 ADD MSTORE PUSH1 0x20 DUP3 ADD SWAP1 POP SWAP2 SWAP1 POP JUMP JUMPDEST PUSH1 0x0 PUSH2 0x2675 PUSH1 0x14 DUP4 PUSH2 0x2C76 JUMP JUMPDEST SWAP2 POP PUSH32 0x746F6B656E20616C7265616479206D696E746564000000000000000000000000 PUSH1 0x0 DUP4 ADD MSTORE PUSH1 0x20 DUP3 ADD SWAP1 POP SWAP2 SWAP1 POP JUMP JUMPDEST PUSH1 0x0 PUSH2 0x26B5 PUSH1 0x11 DUP4 PUSH2 0x2C76 JUMP JUMPDEST SWAP2 POP PUSH32 0x6F776E6572203D20302061646472657373000000000000000000000000000000 PUSH1 0x0 DUP4 ADD MSTORE PUSH1 0x20 DUP3 ADD SWAP1 POP SWAP2 SWAP1 POP JUMP JUMPDEST PUSH1 0x0 PUSH2 0x26F5 PUSH1 0x0 DUP4 PUSH2 0x2C6B JUMP JUMPDEST SWAP2 POP PUSH1 0x0 DUP3 ADD SWAP1 POP SWAP2 SWAP1 POP JUMP JUMPDEST PUSH1 0x0 PUSH2 0x270F PUSH1 0x16 DUP4 PUSH2 0x2C76 JUMP JUMPDEST SWAP2 POP PUSH32 0x4E65656420746F2073656E64206D6F7265204554482E00000000000000000000 PUSH1 0x0 DUP4 ADD MSTORE PUSH1 0x20 DUP3 ADD SWAP1 POP SWAP2 SWAP1 POP JUMP JUMPDEST PUSH1 0x0 PUSH2 0x274F PUSH1 0xF DUP4 PUSH2 0x2C76 JUMP JUMPDEST SWAP2 POP PUSH32 0x546F6B656E206E6F742065786973740000000000000000000000000000000000 PUSH1 0x0 DUP4 ADD MSTORE PUSH1 0x20 DUP3 ADD SWAP1 POP SWAP2 SWAP1 POP JUMP JUMPDEST PUSH1 0x0 PUSH2 0x278F PUSH1 0x12 DUP4 PUSH2 0x2C76 JUMP JUMPDEST SWAP2 POP PUSH32 0x6E6F742045524337323152656365697665720000000000000000000000000000 PUSH1 0x0 DUP4 ADD MSTORE PUSH1 0x20 DUP3 ADD SWAP1 POP SWAP2 SWAP1 POP JUMP JUMPDEST PUSH1 0x0 PUSH2 0x27CF PUSH1 0x48 DUP4 PUSH2 0x2C76 JUMP JUMPDEST SWAP2 POP PUSH32 0x6E6F7420656E6F7567682072656D61696E696E6720726573657276656420666F PUSH1 0x0 DUP4 ADD MSTORE PUSH32 0x722061756374696F6E20746F20737570706F72742064657369726564206D696E PUSH1 0x20 DUP4 ADD MSTORE PUSH32 0x7420616D6F756E74000000000000000000000000000000000000000000000000 PUSH1 0x40 DUP4 ADD MSTORE PUSH1 0x60 DUP3 ADD SWAP1 POP SWAP2 SWAP1 POP JUMP JUMPDEST PUSH1 0x0 PUSH2 0x285B PUSH1 0x9 DUP4 PUSH2 0x2C76 JUMP JUMPDEST SWAP2 POP PUSH32 0x6E6F74206F776E65720000000000000000000000000000000000000000000000 PUSH1 0x0 DUP4 ADD MSTORE PUSH1 0x20 DUP3 ADD SWAP1 POP SWAP2 SWAP1 POP JUMP JUMPDEST PUSH2 0x2897 DUP2 PUSH2 0x2E11 JUMP JUMPDEST DUP3 MSTORE POP POP JUMP JUMPDEST PUSH1 0x0 PUSH2 0x28A9 DUP3 DUP6 PUSH2 0x2411 JUMP JUMPDEST SWAP2 POP PUSH2 0x28B5 DUP3 DUP5 PUSH2 0x2411 JUMP JUMPDEST SWAP2 POP DUP2 SWAP1 POP SWAP4 SWAP3 POP POP POP JUMP JUMPDEST PUSH1 0x0 PUSH2 0x28CC DUP3 PUSH2 0x26E8 JUMP JUMPDEST SWAP2 POP DUP2 SWAP1 POP SWAP2 SWAP1 POP JUMP JUMPDEST PUSH1 0x0 PUSH1 0x20 DUP3 ADD SWAP1 POP PUSH2 0x28EB PUSH1 0x0 DUP4 ADD DUP5 PUSH2 0x2381 JUMP JUMPDEST SWAP3 SWAP2 POP POP JUMP JUMPDEST PUSH1 0x0 PUSH1 0x60 DUP3 ADD SWAP1 POP PUSH2 0x2906 PUSH1 0x0 DUP4 ADD DUP7 PUSH2 0x2381 JUMP JUMPDEST PUSH2 0x2913 PUSH1 0x20 DUP4 ADD DUP6 PUSH2 0x2381 JUMP JUMPDEST PUSH2 0x2920 PUSH1 0x40 DUP4 ADD DUP5 PUSH2 0x2390 JUMP JUMPDEST SWAP5 SWAP4 POP POP POP POP JUMP JUMPDEST PUSH1 0x0 PUSH1 0x60 DUP3 ADD SWAP1 POP PUSH2 0x293D PUSH1 0x0 DUP4 ADD DUP7 PUSH2 0x2381 JUMP JUMPDEST PUSH2 0x294A PUSH1 0x20 DUP4 ADD DUP6 PUSH2 0x2381 JUMP JUMPDEST PUSH2 0x2957 PUSH1 0x40 DUP4 ADD DUP5 PUSH2 0x288E JUMP JUMPDEST SWAP5 SWAP4 POP POP POP POP JUMP JUMPDEST PUSH1 0x0 PUSH1 0x80 DUP3 ADD SWAP1 POP PUSH2 0x2974 PUSH1 0x0 DUP4 ADD DUP8 PUSH2 0x2381 JUMP JUMPDEST PUSH2 0x2981 PUSH1 0x20 DUP4 ADD DUP7 PUSH2 0x2381 JUMP JUMPDEST PUSH2 0x298E PUSH1 0x40 DUP4 ADD DUP6 PUSH2 0x288E JUMP JUMPDEST DUP2 DUP2 SUB PUSH1 0x60 DUP4 ADD MSTORE PUSH2 0x29A0 DUP2 DUP5 PUSH2 0x239F JUMP JUMPDEST SWAP1 POP SWAP6 SWAP5 POP POP POP POP POP JUMP JUMPDEST PUSH1 0x0 PUSH1 0x20 DUP3 ADD SWAP1 POP PUSH2 0x29C0 PUSH1 0x0 DUP4 ADD DUP5 PUSH2 0x2390 JUMP JUMPDEST SWAP3 SWAP2 POP POP JUMP JUMPDEST PUSH1 0x0 PUSH1 0x20 DUP3 ADD SWAP1 POP DUP2 DUP2 SUB PUSH1 0x0 DUP4 ADD MSTORE PUSH2 0x29E0 DUP2 DUP5 PUSH2 0x23D8 JUMP JUMPDEST SWAP1 POP SWAP3 SWAP2 POP POP JUMP JUMPDEST PUSH1 0x0 PUSH1 0x20 DUP3 ADD SWAP1 POP DUP2 DUP2 SUB PUSH1 0x0 DUP4 ADD MSTORE PUSH2 0x2A01 DUP2 PUSH2 0x2442 JUMP JUMPDEST SWAP1 POP SWAP2 SWAP1 POP JUMP JUMPDEST PUSH1 0x0 PUSH1 0x20 DUP3 ADD SWAP1 POP DUP2 DUP2 SUB PUSH1 0x0 DUP4 ADD MSTORE PUSH2 0x2A21 DUP2 PUSH2 0x2482 JUMP JUMPDEST SWAP1 POP SWAP2 SWAP1 POP JUMP JUMPDEST PUSH1 0x0 PUSH1 0x20 DUP3 ADD SWAP1 POP DUP2 DUP2 SUB PUSH1 0x0 DUP4 ADD MSTORE PUSH2 0x2A41 DUP2 PUSH2 0x24C2 JUMP JUMPDEST SWAP1 POP SWAP2 SWAP1 POP JUMP JUMPDEST PUSH1 0x0 PUSH1 0x20 DUP3 ADD SWAP1 POP DUP2 DUP2 SUB PUSH1 0x0 DUP4 ADD MSTORE PUSH2 0x2A61 DUP2 PUSH2 0x2502 JUMP JUMPDEST SWAP1 POP SWAP2 SWAP1 POP JUMP JUMPDEST PUSH1 0x0 PUSH1 0x20 DUP3 ADD SWAP1 POP DUP2 DUP2 SUB PUSH1 0x0 DUP4 ADD MSTORE PUSH2 0x2A81 DUP2 PUSH2 0x2568 JUMP JUMPDEST SWAP1 POP SWAP2 SWAP1 POP JUMP JUMPDEST PUSH1 0x0 PUSH1 0x20 DUP3 ADD SWAP1 POP DUP2 DUP2 SUB PUSH1 0x0 DUP4 ADD MSTORE PUSH2 0x2AA1 DUP2 PUSH2 0x25A8 JUMP JUMPDEST SWAP1 POP SWAP2 SWAP1 POP JUMP JUMPDEST PUSH1 0x0 PUSH1 0x20 DUP3 ADD SWAP1 POP DUP2 DUP2 SUB PUSH1 0x0 DUP4 ADD MSTORE PUSH2 0x2AC1 DUP2 PUSH2 0x25E8 JUMP JUMPDEST SWAP1 POP SWAP2 SWAP1 POP JUMP JUMPDEST PUSH1 0x0 PUSH1 0x20 DUP3 ADD SWAP1 POP DUP2 DUP2 SUB PUSH1 0x0 DUP4 ADD MSTORE PUSH2 0x2AE1 DUP2 PUSH2 0x2628 JUMP JUMPDEST SWAP1 POP SWAP2 SWAP1 POP JUMP JUMPDEST PUSH1 0x0 PUSH1 0x20 DUP3 ADD SWAP1 POP DUP2 DUP2 SUB PUSH1 0x0 DUP4 ADD MSTORE PUSH2 0x2B01 DUP2 PUSH2 0x2668 JUMP JUMPDEST SWAP1 POP SWAP2 SWAP1 POP JUMP JUMPDEST PUSH1 0x0 PUSH1 0x20 DUP3 ADD SWAP1 POP DUP2 DUP2 SUB PUSH1 0x0 DUP4 ADD MSTORE PUSH2 0x2B21 DUP2 PUSH2 0x26A8 JUMP JUMPDEST SWAP1 POP SWAP2 SWAP1 POP JUMP JUMPDEST PUSH1 0x0 PUSH1 0x20 DUP3 ADD SWAP1 POP DUP2 DUP2 SUB PUSH1 0x0 DUP4 ADD MSTORE PUSH2 0x2B41 DUP2 PUSH2 0x2702 JUMP JUMPDEST SWAP1 POP SWAP2 SWAP1 POP JUMP JUMPDEST PUSH1 0x0 PUSH1 0x20 DUP3 ADD SWAP1 POP DUP2 DUP2 SUB PUSH1 0x0 DUP4 ADD MSTORE PUSH2 0x2B61 DUP2 PUSH2 0x2742 JUMP JUMPDEST SWAP1 POP SWAP2 SWAP1 POP JUMP JUMPDEST PUSH1 0x0 PUSH1 0x20 DUP3 ADD SWAP1 POP DUP2 DUP2 SUB PUSH1 0x0 DUP4 ADD MSTORE PUSH2 0x2B81 DUP2 PUSH2 0x2782 JUMP JUMPDEST SWAP1 POP SWAP2 SWAP1 POP JUMP JUMPDEST PUSH1 0x0 PUSH1 0x20 DUP3 ADD SWAP1 POP DUP2 DUP2 SUB PUSH1 0x0 DUP4 ADD MSTORE PUSH2 0x2BA1 DUP2 PUSH2 0x27C2 JUMP JUMPDEST SWAP1 POP SWAP2 SWAP1 POP JUMP JUMPDEST PUSH1 0x0 PUSH1 0x20 DUP3 ADD SWAP1 POP DUP2 DUP2 SUB PUSH1 0x0 DUP4 ADD MSTORE PUSH2 0x2BC1 DUP2 PUSH2 0x284E JUMP JUMPDEST SWAP1 POP SWAP2 SWAP1 POP JUMP JUMPDEST PUSH1 0x0 PUSH1 0x20 DUP3 ADD SWAP1 POP PUSH2 0x2BDD PUSH1 0x0 DUP4 ADD DUP5 PUSH2 0x288E JUMP JUMPDEST SWAP3 SWAP2 POP POP JUMP JUMPDEST PUSH1 0x0 PUSH1 0x40 MLOAD SWAP1 POP DUP2 DUP2 ADD DUP2 DUP2 LT PUSH8 0xFFFFFFFFFFFFFFFF DUP3 GT OR ISZERO PUSH2 0x2C0A JUMPI PUSH2 0x2C09 PUSH2 0x2F96 JUMP JUMPDEST JUMPDEST DUP1 PUSH1 0x40 MSTORE POP SWAP2 SWAP1 POP JUMP JUMPDEST PUSH1 0x0 PUSH8 0xFFFFFFFFFFFFFFFF DUP3 GT ISZERO PUSH2 0x2C2F JUMPI PUSH2 0x2C2E PUSH2 0x2F96 JUMP JUMPDEST JUMPDEST PUSH1 0x1F NOT PUSH1 0x1F DUP4 ADD AND SWAP1 POP PUSH1 0x20 DUP2 ADD SWAP1 POP SWAP2 SWAP1 POP JUMP JUMPDEST PUSH1 0x0 DUP2 MLOAD SWAP1 POP SWAP2 SWAP1 POP JUMP JUMPDEST PUSH1 0x0 DUP2 MLOAD SWAP1 POP SWAP2 SWAP1 POP JUMP JUMPDEST PUSH1 0x0 DUP3 DUP3 MSTORE PUSH1 0x20 DUP3 ADD SWAP1 POP SWAP3 SWAP2 POP POP JUMP JUMPDEST PUSH1 0x0 DUP2 SWAP1 POP SWAP3 SWAP2 POP POP JUMP JUMPDEST PUSH1 0x0 DUP3 DUP3 MSTORE PUSH1 0x20 DUP3 ADD SWAP1 POP SWAP3 SWAP2 POP POP JUMP JUMPDEST PUSH1 0x0 DUP2 SWAP1 POP SWAP3 SWAP2 POP POP JUMP JUMPDEST PUSH1 0x0 PUSH2 0x2C9D DUP3 PUSH2 0x2E11 JUMP JUMPDEST SWAP2 POP PUSH2 0x2CA8 DUP4 PUSH2 0x2E11 JUMP JUMPDEST SWAP3 POP DUP3 PUSH32 0xFFFFFFFFFFFFFFFFFFFFFFFFFFFFFFFFFFFFFFFFFFFFFFFFFFFFFFFFFFFFFFFF SUB DUP3 GT ISZERO PUSH2 0x2CDD JUMPI PUSH2 0x2CDC PUSH2 0x2F09 JUMP JUMPDEST JUMPDEST DUP3 DUP3 ADD SWAP1 POP SWAP3 SWAP2 POP POP JUMP JUMPDEST PUSH1 0x0 PUSH2 0x2CF3 DUP3 PUSH2 0x2E11 JUMP JUMPDEST SWAP2 POP PUSH2 0x2CFE DUP4 PUSH2 0x2E11 JUMP JUMPDEST SWAP3 POP DUP3 PUSH2 0x2D0E JUMPI PUSH2 0x2D0D PUSH2 0x2F38 JUMP JUMPDEST JUMPDEST DUP3 DUP3 DIV SWAP1 POP SWAP3 SWAP2 POP POP JUMP JUMPDEST PUSH1 0x0 PUSH2 0x2D24 DUP3 PUSH2 0x2E11 JUMP JUMPDEST SWAP2 POP PUSH2 0x2D2F DUP4 PUSH2 0x2E11 JUMP JUMPDEST SWAP3 POP DUP2 PUSH32 0xFFFFFFFFFFFFFFFFFFFFFFFFFFFFFFFFFFFFFFFFFFFFFFFFFFFFFFFFFFFFFFFF DIV DUP4 GT DUP3 ISZERO ISZERO AND ISZERO PUSH2 0x2D68 JUMPI PUSH2 0x2D67 PUSH2 0x2F09 JUMP JUMPDEST JUMPDEST DUP3 DUP3 MUL SWAP1 POP SWAP3 SWAP2 POP POP JUMP JUMPDEST PUSH1 0x0 PUSH2 0x2D7E DUP3 PUSH2 0x2E11 JUMP JUMPDEST SWAP2 POP PUSH2 0x2D89 DUP4 PUSH2 0x2E11 JUMP JUMPDEST SWAP3 POP DUP3 DUP3 LT ISZERO PUSH2 0x2D9C JUMPI PUSH2 0x2D9B PUSH2 0x2F09 JUMP JUMPDEST JUMPDEST DUP3 DUP3 SUB SWAP1 POP SWAP3 SWAP2 POP POP JUMP JUMPDEST PUSH1 0x0 PUSH2 0x2DB2 DUP3 PUSH2 0x2DF1 JUMP JUMPDEST SWAP1 POP SWAP2 SWAP1 POP JUMP JUMPDEST PUSH1 0x0 DUP2 ISZERO ISZERO SWAP1 POP SWAP2 SWAP1 POP JUMP JUMPDEST PUSH1 0x0 PUSH32 0xFFFFFFFF00000000000000000000000000000000000000000000000000000000 DUP3 AND SWAP1 POP SWAP2 SWAP1 POP JUMP JUMPDEST PUSH1 0x0 PUSH20 0xFFFFFFFFFFFFFFFFFFFFFFFFFFFFFFFFFFFFFFFF DUP3 AND SWAP1 POP SWAP2 SWAP1 POP JUMP JUMPDEST PUSH1 0x0 DUP2 SWAP1 POP SWAP2 SWAP1 POP JUMP JUMPDEST DUP3 DUP2 DUP4 CALLDATACOPY PUSH1 0x0 DUP4 DUP4 ADD MSTORE POP POP POP JUMP JUMPDEST PUSH1 0x0 JUMPDEST DUP4 DUP2 LT ISZERO PUSH2 0x2E48 JUMPI DUP1 DUP3 ADD MLOAD DUP2 DUP5 ADD MSTORE PUSH1 0x20 DUP2 ADD SWAP1 POP PUSH2 0x2E2D JUMP JUMPDEST DUP4 DUP2 GT ISZERO PUSH2 0x2E57 JUMPI PUSH1 0x0 DUP5 DUP5 ADD MSTORE JUMPDEST POP POP POP POP JUMP JUMPDEST PUSH1 0x0 PUSH1 0x2 DUP3 DIV SWAP1 POP PUSH1 0x1 DUP3 AND DUP1 PUSH2 0x2E75 JUMPI PUSH1 0x7F DUP3 AND SWAP2 POP JUMPDEST PUSH1 0x20 DUP3 LT DUP2 EQ ISZERO PUSH2 0x2E89 JUMPI PUSH2 0x2E88 PUSH2 0x2F67 JUMP JUMPDEST JUMPDEST POP SWAP2 SWAP1 POP JUMP JUMPDEST PUSH1 0x0 PUSH2 0x2E9A DUP3 PUSH2 0x2E11 JUMP JUMPDEST SWAP2 POP PUSH32 0xFFFFFFFFFFFFFFFFFFFFFFFFFFFFFFFFFFFFFFFFFFFFFFFFFFFFFFFFFFFFFFFF DUP3 EQ ISZERO PUSH2 0x2ECD JUMPI PUSH2 0x2ECC PUSH2 0x2F09 JUMP JUMPDEST JUMPDEST PUSH1 0x1 DUP3 ADD SWAP1 POP SWAP2 SWAP1 POP JUMP JUMPDEST PUSH1 0x0 PUSH2 0x2EE3 DUP3 PUSH2 0x2E11 JUMP JUMPDEST SWAP2 POP PUSH2 0x2EEE DUP4 PUSH2 0x2E11 JUMP JUMPDEST SWAP3 POP DUP3 PUSH2 0x2EFE JUMPI PUSH2 0x2EFD PUSH2 0x2F38 JUMP JUMPDEST JUMPDEST DUP3 DUP3 MOD SWAP1 POP SWAP3 SWAP2 POP POP JUMP JUMPDEST PUSH32 0x4E487B7100000000000000000000000000000000000000000000000000000000 PUSH1 0x0 MSTORE PUSH1 0x11 PUSH1 0x4 MSTORE PUSH1 0x24 PUSH1 0x0 REVERT JUMPDEST PUSH32 0x4E487B7100000000000000000000000000000000000000000000000000000000 PUSH1 0x0 MSTORE PUSH1 0x12 PUSH1 0x4 MSTORE PUSH1 0x24 PUSH1 0x0 REVERT JUMPDEST PUSH32 0x4E487B7100000000000000000000000000000000000000000000000000000000 PUSH1 0x0 MSTORE PUSH1 0x22 PUSH1 0x4 MSTORE PUSH1 0x24 PUSH1 0x0 REVERT JUMPDEST PUSH32 0x4E487B7100000000000000000000000000000000000000000000000000000000 PUSH1 0x0 MSTORE PUSH1 0x41 PUSH1 0x4 MSTORE PUSH1 0x24 PUSH1 0x0 REVERT JUMPDEST PUSH1 0x0 PUSH1 0x1F NOT PUSH1 0x1F DUP4 ADD AND SWAP1 POP SWAP2 SWAP1 POP JUMP JUMPDEST PUSH2 0x2FDF DUP2 PUSH2 0x2DA7 JUMP JUMPDEST DUP2 EQ PUSH2 0x2FEA JUMPI PUSH1 0x0 DUP1 REVERT JUMPDEST POP JUMP JUMPDEST PUSH2 0x2FF6 DUP2 PUSH2 0x2DB9 JUMP JUMPDEST DUP2 EQ PUSH2 0x3001 JUMPI PUSH1 0x0 DUP1 REVERT JUMPDEST POP JUMP JUMPDEST PUSH2 0x300D DUP2 PUSH2 0x2DC5 JUMP JUMPDEST DUP2 EQ PUSH2 0x3018 JUMPI PUSH1 0x0 DUP1 REVERT JUMPDEST POP JUMP JUMPDEST PUSH2 0x3024 DUP2 PUSH2 0x2E11 JUMP JUMPDEST DUP2 EQ PUSH2 0x302F JUMPI PUSH1 0x0 DUP1 REVERT JUMPDEST POP JUMP INVALID LOG2 PUSH5 0x6970667358 0x22 SLT KECCAK256 LOG0 0xF9 0xBC DUP10 0x2B POP 0xD3 0xB0 ADDMOD 0x26 SWAP8 SWAP8 0x28 STATICCALL CREATE2 CALLDATASIZE 0xBD DUP2 PUSH2 0x418B PUSH19 0x1E137E074A8D0CFFE7FC64736F6C6343000800 STOP CALLER "
				},
				"gasEstimates": {
					"creation": {
						"codeDepositCost": "2478400",
						"executionCost": "infinite",
						"totalCost": "infinite"
					},
					"external": {
						"DROP_INTERVAL()": "397",
						"DROP_PER_STEP()": "infinite",
						"END_PRICE()": "373",
						"MAX_CPS()": "418",
						"START_PRICE()": "375",
						"TIME()": "396",
						"approvalForAll(address,bool)": "infinite",
						"approve(address,uint256)": "infinite",
						"auctionMint(uint256)": "infinite",
						"balanceOf(address)": "1647",
						"getApproved(uint256)": "2608",
						"getPrice(uint256)": "infinite",
						"isApprovedForAll(address,address)": "infinite",
						"name()": "infinite",
						"owner()": "1289",
						"ownerOf(uint256)": "1673",
						"renounceOwnership()": "24488",
						"safeTransferFrom(address,address,uint256)": "infinite",
						"safeTransferFrom(address,address,uint256,bytes)": "infinite",
						"setBaseURI(string)": "infinite",
						"setStartTime(uint256)": "21474",
						"startTime()": "1174",
						"supportsInterface(bytes4)": "777",
						"symbol()": "infinite",
						"tokenURI(uint256)": "infinite",
						"totalSupply()": "1235",
						"transferFrom(address,address,uint256)": "infinite",
						"transferOwnership(address)": "24857",
						"withdrawMoney()": "infinite"
					},
					"internal": {
						"_addTokenToAllTokensEnumeration(uint256)": "40937",
						"_baseURI()": "infinite"
					}
				},
				"methodIdentifiers": {
					"DROP_INTERVAL()": "096dc66f",
					"DROP_PER_STEP()": "3badcb56",
					"END_PRICE()": "da460977",
					"MAX_CPS()": "538f1672",
					"START_PRICE()": "3609ac8f",
					"TIME()": "beae6637",
					"approvalForAll(address,bool)": "c5e51b9e",
					"approve(address,uint256)": "095ea7b3",
					"auctionMint(uint256)": "4d3554c3",
					"balanceOf(address)": "70a08231",
					"getApproved(uint256)": "081812fc",
					"getPrice(uint256)": "e7572230",
					"isApprovedForAll(address,address)": "e985e9c5",
					"name()": "06fdde03",
					"owner()": "8da5cb5b",
					"ownerOf(uint256)": "6352211e",
					"renounceOwnership()": "715018a6",
					"safeTransferFrom(address,address,uint256)": "42842e0e",
					"safeTransferFrom(address,address,uint256,bytes)": "b88d4fde",
					"setBaseURI(string)": "55f804b3",
					"setStartTime(uint256)": "3e0a322d",
					"startTime()": "78e97925",
					"supportsInterface(bytes4)": "01ffc9a7",
					"symbol()": "95d89b41",
					"tokenURI(uint256)": "c87b56dd",
					"totalSupply()": "18160ddd",
					"transferFrom(address,address,uint256)": "23b872dd",
					"transferOwnership(address)": "f2fde38b",
					"withdrawMoney()": "ac446002"
				}
			},
			"storageLayout": {
				"storage": [
					{
						"astId": 7,
						"contract": "Chain Paper/CP.sol:CP",
						"label": "_owner",
						"offset": 0,
						"slot": "0",
						"type": "t_address"
					},
					{
						"astId": 413,
						"contract": "Chain Paper/CP.sol:CP",
						"label": "name",
						"offset": 0,
						"slot": "1",
						"type": "t_string_storage"
					},
					{
						"astId": 416,
						"contract": "Chain Paper/CP.sol:CP",
						"label": "symbol",
						"offset": 0,
						"slot": "2",
						"type": "t_string_storage"
					},
					{
						"astId": 420,
						"contract": "Chain Paper/CP.sol:CP",
						"label": "_owners",
						"offset": 0,
						"slot": "3",
						"type": "t_mapping(t_uint256,t_address)"
					},
					{
						"astId": 424,
						"contract": "Chain Paper/CP.sol:CP",
						"label": "_balances",
						"offset": 0,
						"slot": "4",
						"type": "t_mapping(t_address,t_uint256)"
					},
					{
						"astId": 428,
						"contract": "Chain Paper/CP.sol:CP",
						"label": "_tokenApprovals",
						"offset": 0,
						"slot": "5",
						"type": "t_mapping(t_uint256,t_address)"
					},
					{
						"astId": 434,
						"contract": "Chain Paper/CP.sol:CP",
						"label": "_operatorApprovals",
						"offset": 0,
						"slot": "6",
						"type": "t_mapping(t_address,t_mapping(t_address,t_bool))"
					},
					{
						"astId": 170,
						"contract": "Chain Paper/CP.sol:CP",
						"label": "startTime",
						"offset": 0,
						"slot": "7",
						"type": "t_uint256"
					},
					{
						"astId": 172,
						"contract": "Chain Paper/CP.sol:CP",
						"label": "_baseTokenURI",
						"offset": 0,
						"slot": "8",
						"type": "t_string_storage"
					},
					{
						"astId": 175,
						"contract": "Chain Paper/CP.sol:CP",
						"label": "_allTokens",
						"offset": 0,
						"slot": "9",
						"type": "t_array(t_uint256)dyn_storage"
					}
				],
				"types": {
					"t_address": {
						"encoding": "inplace",
						"label": "address",
						"numberOfBytes": "20"
					},
					"t_array(t_uint256)dyn_storage": {
						"base": "t_uint256",
						"encoding": "dynamic_array",
						"label": "uint256[]",
						"numberOfBytes": "32"
					},
					"t_bool": {
						"encoding": "inplace",
						"label": "bool",
						"numberOfBytes": "1"
					},
					"t_mapping(t_address,t_bool)": {
						"encoding": "mapping",
						"key": "t_address",
						"label": "mapping(address => bool)",
						"numberOfBytes": "32",
						"value": "t_bool"
					},
					"t_mapping(t_address,t_mapping(t_address,t_bool))": {
						"encoding": "mapping",
						"key": "t_address",
						"label": "mapping(address => mapping(address => bool))",
						"numberOfBytes": "32",
						"value": "t_mapping(t_address,t_bool)"
					},
					"t_mapping(t_address,t_uint256)": {
						"encoding": "mapping",
						"key": "t_address",
						"label": "mapping(address => uint256)",
						"numberOfBytes": "32",
						"value": "t_uint256"
					},
					"t_mapping(t_uint256,t_address)": {
						"encoding": "mapping",
						"key": "t_uint256",
						"label": "mapping(uint256 => address)",
						"numberOfBytes": "32",
						"value": "t_address"
					},
					"t_string_storage": {
						"encoding": "bytes",
						"label": "string",
						"numberOfBytes": "32"
					},
					"t_uint256": {
						"encoding": "inplace",
						"label": "uint256",
						"numberOfBytes": "32"
					}
				}
			},
			"userdoc": {
				"kind": "user",
				"methods": {},
				"version": 1
			}
		}
	}
}